{
  "contractName": "AssistantRegister",
  "abi": [
    {
      "anonymous": false,
      "inputs": [
        {
          "indexed": true,
          "internalType": "address",
          "name": "newAdm",
          "type": "address"
        },
        {
          "indexed": true,
          "internalType": "address",
          "name": "whoAddedAdm",
          "type": "address"
        }
      ],
      "name": "AdminAdded",
      "type": "event"
    },
    {
      "anonymous": false,
      "inputs": [
        {
          "indexed": true,
          "internalType": "address",
          "name": "accountRen",
          "type": "address"
        }
      ],
      "name": "AdminRenounce",
      "type": "event"
    },
    {
      "anonymous": false,
      "inputs": [
        {
          "indexed": true,
          "internalType": "address",
          "name": "_assistant",
          "type": "address"
        },
        {
          "indexed": true,
          "internalType": "address",
          "name": "_admin",
          "type": "address"
        },
        {
          "indexed": false,
          "internalType": "string",
          "name": "_name",
          "type": "string"
        },
        {
          "indexed": false,
          "internalType": "string",
          "name": "_aPat",
          "type": "string"
        },
        {
          "indexed": false,
          "internalType": "string",
          "name": "_aMat",
          "type": "string"
        },
        {
          "indexed": false,
          "internalType": "string",
          "name": "_curp",
          "type": "string"
        },
        {
          "indexed": false,
          "internalType": "string",
          "name": "_hashPicture",
          "type": "string"
        },
        {
          "indexed": false,
          "internalType": "uint256",
          "name": "date",
          "type": "uint256"
        }
      ],
      "name": "AssistantAdded",
      "type": "event"
    },
    {
      "anonymous": false,
      "inputs": [
        {
          "indexed": true,
          "internalType": "address",
          "name": "newAssistant",
          "type": "address"
        },
        {
          "indexed": true,
          "internalType": "address",
          "name": "whoAddedAssistant",
          "type": "address"
        }
      ],
      "name": "AssistantAdded",
      "type": "event"
    },
    {
      "anonymous": false,
      "inputs": [
        {
          "indexed": true,
          "internalType": "address",
          "name": "_assistant",
          "type": "address"
        },
        {
          "indexed": true,
          "internalType": "address",
          "name": "_admin",
          "type": "address"
        },
        {
          "indexed": false,
          "internalType": "string",
          "name": "_hashPicture",
          "type": "string"
        },
        {
          "indexed": false,
          "internalType": "uint256",
          "name": "_date",
          "type": "uint256"
        }
      ],
      "name": "AssistantDelete",
      "type": "event"
    },
    {
      "anonymous": false,
      "inputs": [
        {
          "indexed": true,
          "internalType": "address",
          "name": "oldAssistant",
          "type": "address"
        },
        {
          "indexed": true,
          "internalType": "address",
          "name": "whoRemovedAssistant",
          "type": "address"
        }
      ],
      "name": "AssistantRemoved",
      "type": "event"
    },
    {
      "anonymous": false,
      "inputs": [
        {
          "indexed": true,
          "internalType": "address",
          "name": "_assistant",
          "type": "address"
        },
        {
          "indexed": true,
          "internalType": "address",
          "name": "_admin",
          "type": "address"
        },
        {
          "indexed": false,
          "internalType": "string",
          "name": "_name",
          "type": "string"
        },
        {
          "indexed": false,
          "internalType": "string",
          "name": "_aPat",
          "type": "string"
        },
        {
          "indexed": false,
          "internalType": "string",
          "name": "_aMat",
          "type": "string"
        },
        {
          "indexed": false,
          "internalType": "string",
          "name": "_curp",
          "type": "string"
        },
        {
          "indexed": false,
          "internalType": "string",
          "name": "_hashPicture",
          "type": "string"
        },
        {
          "indexed": false,
          "internalType": "uint256",
          "name": "_date",
          "type": "uint256"
        },
        {
          "indexed": false,
          "internalType": "uint256",
          "name": "_queryDate",
          "type": "uint256"
        }
      ],
      "name": "AssistantRetrieve",
      "type": "event"
    },
    {
      "anonymous": false,
      "inputs": [
        {
          "indexed": true,
          "internalType": "address",
          "name": "_assistant",
          "type": "address"
        },
        {
          "indexed": true,
          "internalType": "address",
          "name": "_admin",
          "type": "address"
        },
        {
          "indexed": false,
          "internalType": "string",
          "name": "_name",
          "type": "string"
        },
        {
          "indexed": false,
          "internalType": "string",
          "name": "_aPat",
          "type": "string"
        },
        {
          "indexed": false,
          "internalType": "string",
          "name": "_aMat",
          "type": "string"
        },
        {
          "indexed": false,
          "internalType": "string",
          "name": "_curp",
          "type": "string"
        },
        {
          "indexed": false,
          "internalType": "string",
          "name": "_hashPicture",
          "type": "string"
        },
        {
          "indexed": false,
          "internalType": "uint256",
          "name": "_date",
          "type": "uint256"
        },
        {
          "indexed": false,
          "internalType": "uint256",
          "name": "_queryDate",
          "type": "uint256"
        }
      ],
      "name": "AssistantUpdate",
      "type": "event"
    },
    {
      "anonymous": false,
      "inputs": [
        {
          "indexed": true,
          "internalType": "address",
          "name": "_admin",
          "type": "address"
        },
        {
          "indexed": false,
          "internalType": "bool",
          "name": "_stop",
          "type": "bool"
        }
      ],
      "name": "LogSwitchStop",
      "type": "event"
    },
    {
      "anonymous": false,
      "inputs": [
        {
          "indexed": true,
          "internalType": "address",
          "name": "newMed",
          "type": "address"
        },
        {
          "indexed": true,
          "internalType": "address",
          "name": "whoAddedMed",
          "type": "address"
        }
      ],
      "name": "MedicAdded",
      "type": "event"
    },
    {
      "anonymous": false,
      "inputs": [
        {
          "indexed": true,
          "internalType": "address",
          "name": "oldMed",
          "type": "address"
        },
        {
          "indexed": true,
          "internalType": "address",
          "name": "whoRemovedMed",
          "type": "address"
        }
      ],
      "name": "MedicRemoved",
      "type": "event"
    },
    {
      "anonymous": false,
      "inputs": [
        {
          "indexed": true,
          "internalType": "address",
          "name": "medRen",
          "type": "address"
        }
      ],
      "name": "MedicRenounce",
      "type": "event"
    },
    {
      "anonymous": false,
      "inputs": [
        {
          "indexed": true,
          "internalType": "address",
          "name": "newPat",
          "type": "address"
        },
        {
          "indexed": true,
          "internalType": "address",
          "name": "whoAddedPat",
          "type": "address"
        }
      ],
      "name": "PatientAdded",
      "type": "event"
    },
    {
      "anonymous": false,
      "inputs": [
        {
          "indexed": true,
          "internalType": "address",
          "name": "oldPat",
          "type": "address"
        },
        {
          "indexed": true,
          "internalType": "address",
          "name": "whoRemovedPat",
          "type": "address"
        }
      ],
      "name": "PatientRemoved",
      "type": "event"
    },
    {
      "payable": false,
      "stateMutability": "nonpayable",
      "type": "fallback"
    },
    {
      "constant": false,
      "inputs": [
        {
          "internalType": "address",
          "name": "account",
          "type": "address"
        }
      ],
      "name": "addAdmin",
      "outputs": [],
      "payable": false,
      "stateMutability": "nonpayable",
      "type": "function"
    },
    {
      "constant": false,
      "inputs": [
        {
          "internalType": "address",
          "name": "account",
          "type": "address"
        }
      ],
      "name": "addMedic",
      "outputs": [],
      "payable": false,
      "stateMutability": "nonpayable",
      "type": "function"
    },
    {
      "constant": false,
      "inputs": [
        {
          "internalType": "address",
          "name": "account",
          "type": "address"
        }
      ],
      "name": "addPatient",
      "outputs": [],
      "payable": false,
      "stateMutability": "nonpayable",
      "type": "function"
    },
    {
      "constant": true,
      "inputs": [
        {
          "internalType": "address",
          "name": "",
          "type": "address"
        },
        {
          "internalType": "uint256",
          "name": "",
          "type": "uint256"
        }
      ],
      "name": "fileToAssistant",
      "outputs": [
        {
          "internalType": "string",
          "name": "name",
          "type": "string"
        },
        {
          "internalType": "string",
          "name": "aPat",
          "type": "string"
        },
        {
          "internalType": "string",
          "name": "aMat",
          "type": "string"
        },
        {
          "internalType": "string",
          "name": "curp",
          "type": "string"
        },
        {
          "internalType": "string",
          "name": "hashPicture",
          "type": "string"
        },
        {
          "internalType": "uint256",
          "name": "date",
          "type": "uint256"
        }
      ],
      "payable": false,
      "stateMutability": "view",
      "type": "function"
    },
    {
      "constant": true,
      "inputs": [
        {
          "internalType": "address",
          "name": "account",
          "type": "address"
        }
      ],
      "name": "isAdmin",
      "outputs": [
        {
          "internalType": "bool",
          "name": "",
          "type": "bool"
        }
      ],
      "payable": false,
      "stateMutability": "view",
      "type": "function"
    },
    {
      "constant": true,
      "inputs": [
        {
          "internalType": "address",
          "name": "account",
          "type": "address"
        }
      ],
      "name": "isAssistant",
      "outputs": [
        {
          "internalType": "bool",
          "name": "",
          "type": "bool"
        }
      ],
      "payable": false,
      "stateMutability": "view",
      "type": "function"
    },
    {
      "constant": true,
      "inputs": [
        {
          "internalType": "address",
          "name": "account",
          "type": "address"
        }
      ],
      "name": "isMedic",
      "outputs": [
        {
          "internalType": "bool",
          "name": "",
          "type": "bool"
        }
      ],
      "payable": false,
      "stateMutability": "view",
      "type": "function"
    },
    {
      "constant": true,
      "inputs": [
        {
          "internalType": "address",
          "name": "account",
          "type": "address"
        }
      ],
      "name": "isPatient",
      "outputs": [
        {
          "internalType": "bool",
          "name": "",
          "type": "bool"
        }
      ],
      "payable": false,
      "stateMutability": "view",
      "type": "function"
    },
    {
      "constant": false,
      "inputs": [
        {
          "internalType": "address",
          "name": "account",
          "type": "address"
        }
      ],
      "name": "removeAssistant",
      "outputs": [],
      "payable": false,
      "stateMutability": "nonpayable",
      "type": "function"
    },
    {
      "constant": false,
      "inputs": [
        {
          "internalType": "address",
          "name": "account",
          "type": "address"
        }
      ],
      "name": "removeMedic",
      "outputs": [],
      "payable": false,
      "stateMutability": "nonpayable",
      "type": "function"
    },
    {
      "constant": false,
      "inputs": [
        {
          "internalType": "address",
          "name": "account",
          "type": "address"
        }
      ],
      "name": "removePatient",
      "outputs": [],
      "payable": false,
      "stateMutability": "nonpayable",
      "type": "function"
    },
    {
      "constant": false,
      "inputs": [],
      "name": "renounceAdmin",
      "outputs": [],
      "payable": false,
      "stateMutability": "nonpayable",
      "type": "function"
    },
    {
      "constant": false,
      "inputs": [],
      "name": "renounceMedic",
      "outputs": [],
      "payable": false,
      "stateMutability": "nonpayable",
      "type": "function"
    },
    {
      "constant": false,
      "inputs": [
        {
          "internalType": "bool",
          "name": "_stop",
          "type": "bool"
        }
      ],
      "name": "emergencyStop",
      "outputs": [],
      "payable": false,
      "stateMutability": "nonpayable",
      "type": "function"
    },
    {
      "constant": false,
      "inputs": [
        {
          "internalType": "address",
          "name": "account",
          "type": "address"
        }
      ],
      "name": "addAssistant",
      "outputs": [],
      "payable": false,
      "stateMutability": "nonpayable",
      "type": "function"
    },
    {
      "constant": false,
      "inputs": [
        {
          "internalType": "address",
          "name": "_account",
          "type": "address"
        },
        {
          "internalType": "string",
          "name": "_name",
          "type": "string"
        },
        {
          "internalType": "string",
          "name": "_aPat",
          "type": "string"
        },
        {
          "internalType": "string",
          "name": "_aMat",
          "type": "string"
        },
        {
          "internalType": "string",
          "name": "_curp",
          "type": "string"
        },
        {
          "internalType": "string",
          "name": "_hashPicture",
          "type": "string"
        }
      ],
      "name": "addAssistant",
      "outputs": [
        {
          "internalType": "bool",
          "name": "_success",
          "type": "bool"
        }
      ],
      "payable": false,
      "stateMutability": "nonpayable",
      "type": "function"
    },
    {
      "constant": false,
      "inputs": [
        {
          "internalType": "address",
          "name": "_account",
          "type": "address"
        },
        {
          "internalType": "string",
          "name": "_name",
          "type": "string"
        },
        {
          "internalType": "string",
          "name": "_aPat",
          "type": "string"
        },
        {
          "internalType": "string",
          "name": "_aMat",
          "type": "string"
        },
        {
          "internalType": "string",
          "name": "_curp",
          "type": "string"
        },
        {
          "internalType": "string",
          "name": "_hashPicture",
          "type": "string"
        },
        {
          "internalType": "uint256",
          "name": "_date",
          "type": "uint256"
        }
      ],
      "name": "updateAssistant",
      "outputs": [
        {
          "internalType": "bool",
          "name": "_success",
          "type": "bool"
        }
      ],
      "payable": false,
      "stateMutability": "nonpayable",
      "type": "function"
    },
    {
      "constant": false,
      "inputs": [
        {
          "internalType": "address",
          "name": "_account",
          "type": "address"
        },
        {
          "internalType": "uint256",
          "name": "_date",
          "type": "uint256"
        }
      ],
      "name": "viewAssistant",
      "outputs": [
        {
          "internalType": "string",
          "name": "name",
          "type": "string"
        },
        {
          "internalType": "string",
          "name": "aPat",
          "type": "string"
        },
        {
          "internalType": "string",
          "name": "aMat",
          "type": "string"
        },
        {
          "internalType": "string",
          "name": "curp",
          "type": "string"
        },
        {
          "internalType": "string",
          "name": "hashPicture",
          "type": "string"
        }
      ],
      "payable": false,
      "stateMutability": "nonpayable",
      "type": "function"
    },
    {
      "constant": false,
      "inputs": [
        {
          "internalType": "address",
          "name": "_account",
          "type": "address"
        },
        {
          "internalType": "uint256",
          "name": "_date",
          "type": "uint256"
        }
      ],
      "name": "deleteAssistant",
      "outputs": [
        {
          "internalType": "bool",
          "name": "_success",
          "type": "bool"
        }
      ],
      "payable": false,
      "stateMutability": "nonpayable",
      "type": "function"
    }
  ],
  "bytecode": "0x60806040526000600560006101000a81548160ff02191690831515021790555062000030336200003660201b60201c565b62000272565b62000051816000620000ae60201b620037301790919060201c565b3373ffffffffffffffffffffffffffffffffffffffff168173ffffffffffffffffffffffffffffffffffffffff167fbf3f493c772c8c283fd124432c2d0f539ab343faa04258fe88e52912d36b102b60405160405180910390a350565b620000c082826200019260201b60201c565b1562000134576040517f08c379a000000000000000000000000000000000000000000000000000000000815260040180806020018281038252601f8152602001807f526f6c65733a206163636f756e7420616c72656164792068617320726f6c650081525060200191505060405180910390fd5b60018260000160008373ffffffffffffffffffffffffffffffffffffffff1673ffffffffffffffffffffffffffffffffffffffff16815260200190815260200160002060006101000a81548160ff0219169083151502179055505050565b60008073ffffffffffffffffffffffffffffffffffffffff168273ffffffffffffffffffffffffffffffffffffffff1614156200021b576040517f08c379a000000000000000000000000000000000000000000000000000000000815260040180806020018281038252602281526020018062003c806022913960400191505060405180910390fd5b8260000160008373ffffffffffffffffffffffffffffffffffffffff1673ffffffffffffffffffffffffffffffffffffffff16815260200190815260200160002060009054906101000a900460ff16905092915050565b6139fe80620002826000396000f3fe608060405234801561001057600080fd5b50600436106101215760003560e01c80637d0d6257116100ad578063b0397ff811610071578063b0397ff814610c27578063b8792f0b14610c6b578063bf72b9f514610caf578063c6584bb814610ffe578063eae3ef8a1461105a57610121565b80637d0d6257146107be5780638bad0c0a146108025780638f9c79ed1461080c578063a8d667a714610868578063b00284c3146108ce57610121565b80635b4aaf4e116100f45780635b4aaf4e146104375780635c8b67df146106ae5780636d263ceb146106f257806370480275146107365780637d01dbc21461077a57610121565b80630ac62e021461012357806324d7806c1461015357806333dc0abd146101af578063392dce49146101b9575b005b6101516004803603602081101561013957600080fd5b810190808035151590602001909291905050506110b6565b005b6101956004803603602081101561016957600080fd5b81019080803573ffffffffffffffffffffffffffffffffffffffff169060200190929190505050611183565b604051808215151515815260200191505060405180910390f35b6101b76111a0565b005b610205600480360360408110156101cf57600080fd5b81019080803573ffffffffffffffffffffffffffffffffffffffff16906020019092919080359060200190929190505050611209565b60405180806020018060200180602001806020018060200187815260200186810386528c818151815260200191508051906020019080838360005b8381101561025b578082015181840152602081019050610240565b50505050905090810190601f1680156102885780820380516001836020036101000a031916815260200191505b5086810385528b818151815260200191508051906020019080838360005b838110156102c15780820151818401526020810190506102a6565b50505050905090810190601f1680156102ee5780820380516001836020036101000a031916815260200191505b5086810384528a818151815260200191508051906020019080838360005b8381101561032757808201518184015260208101905061030c565b50505050905090810190601f1680156103545780820380516001836020036101000a031916815260200191505b50868103835289818151815260200191508051906020019080838360005b8381101561038d578082015181840152602081019050610372565b50505050905090810190601f1680156103ba5780820380516001836020036101000a031916815260200191505b50868103825288818151815260200191508051906020019080838360005b838110156103f35780820151818401526020810190506103d8565b50505050905090810190601f1680156104205780820380516001836020036101000a031916815260200191505b509b50505050505050505050505060405180910390f35b6104836004803603604081101561044d57600080fd5b81019080803573ffffffffffffffffffffffffffffffffffffffff16906020019092919080359060200190929190505050611557565b60405180806020018060200180602001806020018060200186810386528b818151815260200191508051906020019080838360005b838110156104d35780820151818401526020810190506104b8565b50505050905090810190601f1680156105005780820380516001836020036101000a031916815260200191505b5086810385528a818151815260200191508051906020019080838360005b8381101561053957808201518184015260208101905061051e565b50505050905090810190601f1680156105665780820380516001836020036101000a031916815260200191505b50868103845289818151815260200191508051906020019080838360005b8381101561059f578082015181840152602081019050610584565b50505050905090810190601f1680156105cc5780820380516001836020036101000a031916815260200191505b50868103835288818151815260200191508051906020019080838360005b838110156106055780820151818401526020810190506105ea565b50505050905090810190601f1680156106325780820380516001836020036101000a031916815260200191505b50868103825287818151815260200191508051906020019080838360005b8381101561066b578082015181840152602081019050610650565b50505050905090810190601f1680156106985780820380516001836020036101000a031916815260200191505b509a505050505050505050505060405180910390f35b6106f0600480360360208110156106c457600080fd5b81019080803573ffffffffffffffffffffffffffffffffffffffff169060200190929190505050611d98565b005b6107346004803603602081101561070857600080fd5b81019080803573ffffffffffffffffffffffffffffffffffffffff169060200190929190505050611e02565b005b6107786004803603602081101561074c57600080fd5b81019080803573ffffffffffffffffffffffffffffffffffffffff169060200190929190505050611e0e565b005b6107bc6004803603602081101561079057600080fd5b81019080803573ffffffffffffffffffffffffffffffffffffffff169060200190929190505050611e78565b005b610800600480360360208110156107d457600080fd5b81019080803573ffffffffffffffffffffffffffffffffffffffff169060200190929190505050611ee2565b005b61080a611f4c565b005b61084e6004803603602081101561082257600080fd5b81019080803573ffffffffffffffffffffffffffffffffffffffff169060200190929190505050611f57565b604051808215151515815260200191505060405180910390f35b6108b46004803603604081101561087e57600080fd5b81019080803573ffffffffffffffffffffffffffffffffffffffff16906020019092919080359060200190929190505050611f74565b604051808215151515815260200191505060405180910390f35b610c0d600480360360e08110156108e457600080fd5b81019080803573ffffffffffffffffffffffffffffffffffffffff1690602001909291908035906020019064010000000081111561092157600080fd5b82018360208201111561093357600080fd5b8035906020019184600183028401116401000000008311171561095557600080fd5b91908080601f016020809104026020016040519081016040528093929190818152602001838380828437600081840152601f19601f820116905080830192505050505050509192919290803590602001906401000000008111156109b857600080fd5b8201836020820111156109ca57600080fd5b803590602001918460018302840111640100000000831117156109ec57600080fd5b91908080601f016020809104026020016040519081016040528093929190818152602001838380828437600081840152601f19601f82011690508083019250505050505050919291929080359060200190640100000000811115610a4f57600080fd5b820183602082011115610a6157600080fd5b80359060200191846001830284011164010000000083111715610a8357600080fd5b91908080601f016020809104026020016040519081016040528093929190818152602001838380828437600081840152601f19601f82011690508083019250505050505050919291929080359060200190640100000000811115610ae657600080fd5b820183602082011115610af857600080fd5b80359060200191846001830284011164010000000083111715610b1a57600080fd5b91908080601f016020809104026020016040519081016040528093929190818152602001838380828437600081840152601f19601f82011690508083019250505050505050919291929080359060200190640100000000811115610b7d57600080fd5b820183602082011115610b8f57600080fd5b80359060200191846001830284011164010000000083111715610bb157600080fd5b91908080601f016020809104026020016040519081016040528093929190818152602001838380828437600081840152601f19601f8201169050808301925050505050505091929192908035906020019092919050505061234f565b604051808215151515815260200191505060405180910390f35b610c6960048036036020811015610c3d57600080fd5b81019080803573ffffffffffffffffffffffffffffffffffffffff169060200190929190505050612ba1565b005b610cad60048036036020811015610c8157600080fd5b81019080803573ffffffffffffffffffffffffffffffffffffffff169060200190929190505050612c0b565b005b610fe4600480360360c0811015610cc557600080fd5b81019080803573ffffffffffffffffffffffffffffffffffffffff16906020019092919080359060200190640100000000811115610d0257600080fd5b820183602082011115610d1457600080fd5b80359060200191846001830284011164010000000083111715610d3657600080fd5b91908080601f016020809104026020016040519081016040528093929190818152602001838380828437600081840152601f19601f82011690508083019250505050505050919291929080359060200190640100000000811115610d9957600080fd5b820183602082011115610dab57600080fd5b80359060200191846001830284011164010000000083111715610dcd57600080fd5b91908080601f016020809104026020016040519081016040528093929190818152602001838380828437600081840152601f19601f82011690508083019250505050505050919291929080359060200190640100000000811115610e3057600080fd5b820183602082011115610e4257600080fd5b80359060200191846001830284011164010000000083111715610e6457600080fd5b91908080601f016020809104026020016040519081016040528093929190818152602001838380828437600081840152601f19601f82011690508083019250505050505050919291929080359060200190640100000000811115610ec757600080fd5b820183602082011115610ed957600080fd5b80359060200191846001830284011164010000000083111715610efb57600080fd5b91908080601f016020809104026020016040519081016040528093929190818152602001838380828437600081840152601f19601f82011690508083019250505050505050919291929080359060200190640100000000811115610f5e57600080fd5b820183602082011115610f7057600080fd5b80359060200191846001830284011164010000000083111715610f9257600080fd5b91908080601f016020809104026020016040519081016040528093929190818152602001838380828437600081840152601f19601f820116905080830192505050505050509192919290505050612c75565b604051808215151515815260200191505060405180910390f35b6110406004803603602081101561101457600080fd5b81019080803573ffffffffffffffffffffffffffffffffffffffff16906020019092919050505061314a565b604051808215151515815260200191505060405180910390f35b61109c6004803603602081101561107057600080fd5b81019080803573ffffffffffffffffffffffffffffffffffffffff169060200190929190505050613167565b604051808215151515815260200191505060405180910390f35b6110bf33611183565b611114576040517f08c379a000000000000000000000000000000000000000000000000000000000815260040180806020018281038252602b81526020018061399f602b913960400191505060405180910390fd5b80600560006101000a81548160ff0219169083151502179055503373ffffffffffffffffffffffffffffffffffffffff167f58b15338e6499b2b2827d169f60332c3b4b476fcd06b9a3c7e37afa77c49228e82604051808215151515815260200191505060405180910390a250565b600061119982600061318490919063ffffffff16565b9050919050565b6111a933613167565b6111fe576040517f08c379a000000000000000000000000000000000000000000000000000000000815260040180806020018281038252602d81526020018061392f602d913960400191505060405180910390fd5b61120733613262565b565b6004602052816000526040600020818154811061122257fe5b906000526020600020906006020160009150915050806000018054600181600116156101000203166002900480601f0160208091040260200160405190810160405280929190818152602001828054600181600116156101000203166002900480156112cf5780601f106112a4576101008083540402835291602001916112cf565b820191906000526020600020905b8154815290600101906020018083116112b257829003601f168201915b505050505090806001018054600181600116156101000203166002900480601f01602080910402602001604051908101604052809291908181526020018280546001816001161561010002031660029004801561136d5780601f106113425761010080835404028352916020019161136d565b820191906000526020600020905b81548152906001019060200180831161135057829003601f168201915b505050505090806002018054600181600116156101000203166002900480601f01602080910402602001604051908101604052809291908181526020018280546001816001161561010002031660029004801561140b5780601f106113e05761010080835404028352916020019161140b565b820191906000526020600020905b8154815290600101906020018083116113ee57829003601f168201915b505050505090806003018054600181600116156101000203166002900480601f0160208091040260200160405190810160405280929190818152602001828054600181600116156101000203166002900480156114a95780601f1061147e576101008083540402835291602001916114a9565b820191906000526020600020905b81548152906001019060200180831161148c57829003601f168201915b505050505090806004018054600181600116156101000203166002900480601f0160208091040260200160405190810160405280929190818152602001828054600181600116156101000203166002900480156115475780601f1061151c57610100808354040283529160200191611547565b820191906000526020600020905b81548152906001019060200180831161152a57829003601f168201915b5050505050908060050154905086565b6060806060806060600560009054906101000a900460ff161561157957600080fd5b61158233611183565b6115d7576040517f08c379a000000000000000000000000000000000000000000000000000000000815260040180806020018281038252602b81526020018061399f602b913960400191505060405180910390fd5b6115e033611183565b1561161f578673ffffffffffffffffffffffffffffffffffffffff163373ffffffffffffffffffffffffffffffffffffffff16141561161e57600080fd5b5b600073ffffffffffffffffffffffffffffffffffffffff168773ffffffffffffffffffffffffffffffffffffffff16141561165957600080fd5b6000861015801561168a57507fffffffffffffffffffffffffffffffffffffffffffffffffffffffffffffffff8611155b61169357600080fd5b6000600460008973ffffffffffffffffffffffffffffffffffffffff1673ffffffffffffffffffffffffffffffffffffffff16815260200190815260200160002080549050116116e257600080fd5b600042905060006116f2896132d3565b90506116fc61380b565b60008090505b82811015611ac157600460008c73ffffffffffffffffffffffffffffffffffffffff1673ffffffffffffffffffffffffffffffffffffffff168152602001908152602001600020818154811061175457fe5b90600052602060002090600602016040518060c0016040529081600082018054600181600116156101000203166002900480601f0160208091040260200160405190810160405280929190818152602001828054600181600116156101000203166002900480156118065780601f106117db57610100808354040283529160200191611806565b820191906000526020600020905b8154815290600101906020018083116117e957829003601f168201915b50505050508152602001600182018054600181600116156101000203166002900480601f0160208091040260200160405190810160405280929190818152602001828054600181600116156101000203166002900480156118a85780601f1061187d576101008083540402835291602001916118a8565b820191906000526020600020905b81548152906001019060200180831161188b57829003601f168201915b50505050508152602001600282018054600181600116156101000203166002900480601f01602080910402602001604051908101604052809291908181526020018280546001816001161561010002031660029004801561194a5780601f1061191f5761010080835404028352916020019161194a565b820191906000526020600020905b81548152906001019060200180831161192d57829003601f168201915b50505050508152602001600382018054600181600116156101000203166002900480601f0160208091040260200160405190810160405280929190818152602001828054600181600116156101000203166002900480156119ec5780601f106119c1576101008083540402835291602001916119ec565b820191906000526020600020905b8154815290600101906020018083116119cf57829003601f168201915b50505050508152602001600482018054600181600116156101000203166002900480601f016020809104026020016040519081016040528092919081815260200182805460018160011615610100020316600290048015611a8e5780601f10611a6357610100808354040283529160200191611a8e565b820191906000526020600020905b815481529060010190602001808311611a7157829003601f168201915b505050505081526020016005820154815250509150898260a001511415611ab457611ac1565b8080600101915050611702565b503373ffffffffffffffffffffffffffffffffffffffff168a73ffffffffffffffffffffffffffffffffffffffff167f28fd7f2661662d2d2a6c26d8e8ce400adbb96c90835afe78174bd9b26673066f836000015184602001518560400151866060015187608001518860a001518b60405180806020018060200180602001806020018060200188815260200187815260200186810386528d818151815260200191508051906020019080838360005b83811015611b8c578082015181840152602081019050611b71565b50505050905090810190601f168015611bb95780820380516001836020036101000a031916815260200191505b5086810385528c818151815260200191508051906020019080838360005b83811015611bf2578082015181840152602081019050611bd7565b50505050905090810190601f168015611c1f5780820380516001836020036101000a031916815260200191505b5086810384528b818151815260200191508051906020019080838360005b83811015611c58578082015181840152602081019050611c3d565b50505050905090810190601f168015611c855780820380516001836020036101000a031916815260200191505b5086810383528a818151815260200191508051906020019080838360005b83811015611cbe578082015181840152602081019050611ca3565b50505050905090810190601f168015611ceb5780820380516001836020036101000a031916815260200191505b50868103825289818151815260200191508051906020019080838360005b83811015611d24578082015181840152602081019050611d09565b50505050905090810190601f168015611d515780820380516001836020036101000a031916815260200191505b509c5050505050505050505050505060405180910390a380600001519750806020015196508060400151955080606001519450806080015193505050509295509295909350565b611da133611183565b611df6576040517f08c379a000000000000000000000000000000000000000000000000000000000815260040180806020018281038252602b81526020018061399f602b913960400191505060405180910390fd5b611dff81613373565b50565b611e0b816133e4565b50565b611e1733611183565b611e6c576040517f08c379a000000000000000000000000000000000000000000000000000000000815260040180806020018281038252602b81526020018061399f602b913960400191505060405180910390fd5b611e7581613455565b50565b611e8133611183565b611ed6576040517f08c379a000000000000000000000000000000000000000000000000000000000815260040180806020018281038252602b81526020018061399f602b913960400191505060405180910390fd5b611edf81613262565b50565b611eeb33613167565b611f40576040517f08c379a000000000000000000000000000000000000000000000000000000000815260040180806020018281038252602d81526020018061392f602d913960400191505060405180910390fd5b611f49816134c6565b50565b611f5533613537565b565b6000611f6d82600261318490919063ffffffff16565b9050919050565b6000600560009054906101000a900460ff1615611f9057600080fd5b611f9933611183565b611fee576040517f08c379a000000000000000000000000000000000000000000000000000000000815260040180806020018281038252602b81526020018061399f602b913960400191505060405180910390fd5b600073ffffffffffffffffffffffffffffffffffffffff168373ffffffffffffffffffffffffffffffffffffffff16141561202857600080fd5b6000821015801561205957507fffffffffffffffffffffffffffffffffffffffffffffffffffffffffffffffff8211155b61206257600080fd5b6000600460008573ffffffffffffffffffffffffffffffffffffffff1673ffffffffffffffffffffffffffffffffffffffff16815260200190815260200160002080549050116120b157600080fd5b600042905060006120c1856132d3565b905060008090505b818110156123425784600460008873ffffffffffffffffffffffffffffffffffffffff1673ffffffffffffffffffffffffffffffffffffffff168152602001908152602001600020828154811061211c57fe5b9060005260206000209060060201600501541415612335573373ffffffffffffffffffffffffffffffffffffffff168673ffffffffffffffffffffffffffffffffffffffff167f4fe2d4b68a1f3052c23a44b79f2e2dc8c05a4a405a2593ee7a5efb1b7f6c712b600460008a73ffffffffffffffffffffffffffffffffffffffff1673ffffffffffffffffffffffffffffffffffffffff16815260200190815260200160002084815481106121cd57fe5b906000526020600020906006020160040186604051808060200183815260200182810382528481815460018160011615610100020316600290048152602001915080546001816001161561010002031660029004801561226e5780601f106122435761010080835404028352916020019161226e565b820191906000526020600020905b81548152906001019060200180831161225157829003601f168201915b5050935050505060405180910390a3600460008773ffffffffffffffffffffffffffffffffffffffff1673ffffffffffffffffffffffffffffffffffffffff16815260200190815260200160002081815481106122c757fe5b9060005260206000209060060201600080820160006122e69190613841565b6001820160006122f69190613841565b6002820160006123069190613841565b6003820160006123169190613841565b6004820160006123269190613841565b60058201600090555050612342565b80806001019150506120c9565b5060019250505092915050565b6000600560009054906101000a900460ff161561236b57600080fd5b61237433611183565b6123c9576040517f08c379a000000000000000000000000000000000000000000000000000000000815260040180806020018281038252602b81526020018061399f602b913960400191505060405180910390fd5b600073ffffffffffffffffffffffffffffffffffffffff168873ffffffffffffffffffffffffffffffffffffffff16141561240357600080fd5b603287511061241157600080fd5b601e86511061241f57600080fd5b601e85511061242d57600080fd5b600584511461243b57600080fd5b600583511461244957600080fd5b6000821015801561247a57507fffffffffffffffffffffffffffffffffffffffffffffffffffffffffffffffff8211155b61248357600080fd5b6000600460008a73ffffffffffffffffffffffffffffffffffffffff1673ffffffffffffffffffffffffffffffffffffffff16815260200190815260200160002080549050116124d257600080fd5b600042905060006124e28a6132d3565b90506124ec61380b565b60008090505b828110156128b157600460008d73ffffffffffffffffffffffffffffffffffffffff1673ffffffffffffffffffffffffffffffffffffffff168152602001908152602001600020818154811061254457fe5b90600052602060002090600602016040518060c0016040529081600082018054600181600116156101000203166002900480601f0160208091040260200160405190810160405280929190818152602001828054600181600116156101000203166002900480156125f65780601f106125cb576101008083540402835291602001916125f6565b820191906000526020600020905b8154815290600101906020018083116125d957829003601f168201915b50505050508152602001600182018054600181600116156101000203166002900480601f0160208091040260200160405190810160405280929190818152602001828054600181600116156101000203166002900480156126985780601f1061266d57610100808354040283529160200191612698565b820191906000526020600020905b81548152906001019060200180831161267b57829003601f168201915b50505050508152602001600282018054600181600116156101000203166002900480601f01602080910402602001604051908101604052809291908181526020018280546001816001161561010002031660029004801561273a5780601f1061270f5761010080835404028352916020019161273a565b820191906000526020600020905b81548152906001019060200180831161271d57829003601f168201915b50505050508152602001600382018054600181600116156101000203166002900480601f0160208091040260200160405190810160405280929190818152602001828054600181600116156101000203166002900480156127dc5780601f106127b1576101008083540402835291602001916127dc565b820191906000526020600020905b8154815290600101906020018083116127bf57829003601f168201915b50505050508152602001600482018054600181600116156101000203166002900480601f01602080910402602001604051908101604052809291908181526020018280546001816001161561010002031660029004801561287e5780601f106128535761010080835404028352916020019161287e565b820191906000526020600020905b81548152906001019060200180831161286157829003601f168201915b505050505081526020016005820154815250509150858260a0015114156128a4576128b1565b80806001019150506124f2565b50898160000181905250888160200181905250878160400181905250868160600181905250858160800181905250848160a00181815250503373ffffffffffffffffffffffffffffffffffffffff168b73ffffffffffffffffffffffffffffffffffffffff167f6574c4578d7190be305a97dbdfda73b095a5e0d8700ace43f1b43da4140a197b836000015184602001518560400151866060015187608001518860a001518b60405180806020018060200180602001806020018060200188815260200187815260200186810386528d818151815260200191508051906020019080838360005b838110156129b3578082015181840152602081019050612998565b50505050905090810190601f1680156129e05780820380516001836020036101000a031916815260200191505b5086810385528c818151815260200191508051906020019080838360005b83811015612a195780820151818401526020810190506129fe565b50505050905090810190601f168015612a465780820380516001836020036101000a031916815260200191505b5086810384528b818151815260200191508051906020019080838360005b83811015612a7f578082015181840152602081019050612a64565b50505050905090810190601f168015612aac5780820380516001836020036101000a031916815260200191505b5086810383528a818151815260200191508051906020019080838360005b83811015612ae5578082015181840152602081019050612aca565b50505050905090810190601f168015612b125780820380516001836020036101000a031916815260200191505b50868103825289818151815260200191508051906020019080838360005b83811015612b4b578082015181840152602081019050612b30565b50505050905090810190601f168015612b785780820380516001836020036101000a031916815260200191505b509c5050505050505050505050505060405180910390a360019350505050979650505050505050565b612baa33611183565b612bff576040517f08c379a000000000000000000000000000000000000000000000000000000000815260040180806020018281038252602b81526020018061399f602b913960400191505060405180910390fd5b612c0881613591565b50565b612c1433611183565b612c69576040517f08c379a000000000000000000000000000000000000000000000000000000000815260040180806020018281038252602b81526020018061399f602b913960400191505060405180910390fd5b612c7281613602565b50565b6000600560009054906101000a900460ff1615612c9157600080fd5b612c9a33611183565b612cef576040517f08c379a000000000000000000000000000000000000000000000000000000000815260040180806020018281038252602b81526020018061399f602b913960400191505060405180910390fd5b600073ffffffffffffffffffffffffffffffffffffffff168773ffffffffffffffffffffffffffffffffffffffff161415612d2957600080fd5b6032865110612d3757600080fd5b601e855110612d4557600080fd5b601e845110612d5357600080fd5b6005835114612d6157600080fd5b6005825114612d6f57600080fd5b6000429050612d7c61380b565b6040518060c00160405280898152602001888152602001878152602001868152602001858152602001838152509050600460008a73ffffffffffffffffffffffffffffffffffffffff1673ffffffffffffffffffffffffffffffffffffffff16815260200190815260200160002081908060018154018082558091505090600182039060005260206000209060060201600090919290919091506000820151816000019080519060200190612e32929190613889565b506020820151816001019080519060200190612e4f929190613889565b506040820151816002019080519060200190612e6c929190613889565b506060820151816003019080519060200190612e89929190613889565b506080820151816004019080519060200190612ea6929190613889565b5060a082015181600501555050503373ffffffffffffffffffffffffffffffffffffffff168973ffffffffffffffffffffffffffffffffffffffff167f9b9851c66ed693ccce632beb9c07033233d8ae4592c11ec3e0c035cab168e02e8a8a8a8a8a8960405180806020018060200180602001806020018060200187815260200186810386528c818151815260200191508051906020019080838360005b83811015612f5f578082015181840152602081019050612f44565b50505050905090810190601f168015612f8c5780820380516001836020036101000a031916815260200191505b5086810385528b818151815260200191508051906020019080838360005b83811015612fc5578082015181840152602081019050612faa565b50505050905090810190601f168015612ff25780820380516001836020036101000a031916815260200191505b5086810384528a818151815260200191508051906020019080838360005b8381101561302b578082015181840152602081019050613010565b50505050905090810190601f1680156130585780820380516001836020036101000a031916815260200191505b50868103835289818151815260200191508051906020019080838360005b83811015613091578082015181840152602081019050613076565b50505050905090810190601f1680156130be5780820380516001836020036101000a031916815260200191505b50868103825288818151815260200191508051906020019080838360005b838110156130f75780820151818401526020810190506130dc565b50505050905090810190601f1680156131245780820380516001836020036101000a031916815260200191505b509b50505050505050505050505060405180910390a36001925050509695505050505050565b600061316082600361318490919063ffffffff16565b9050919050565b600061317d82600161318490919063ffffffff16565b9050919050565b60008073ffffffffffffffffffffffffffffffffffffffff168273ffffffffffffffffffffffffffffffffffffffff16141561320b576040517f08c379a000000000000000000000000000000000000000000000000000000000815260040180806020018281038252602281526020018061397d6022913960400191505060405180910390fd5b8260000160008373ffffffffffffffffffffffffffffffffffffffff1673ffffffffffffffffffffffffffffffffffffffff16815260200190815260200160002060009054906101000a900460ff16905092915050565b61327681600161367390919063ffffffff16565b3373ffffffffffffffffffffffffffffffffffffffff168173ffffffffffffffffffffffffffffffffffffffff167fb35968fdda9034197de288afbe8a2947dedade83d7dbc0de3e340d4f62ce64dc60405160405180910390a350565b6000600560009054906101000a900460ff16156132ef57600080fd5b600073ffffffffffffffffffffffffffffffffffffffff168273ffffffffffffffffffffffffffffffffffffffff16141561332957600080fd5b600460008373ffffffffffffffffffffffffffffffffffffffff1673ffffffffffffffffffffffffffffffffffffffff168152602001908152602001600020805490509050919050565b61338781600361373090919063ffffffff16565b3373ffffffffffffffffffffffffffffffffffffffff168173ffffffffffffffffffffffffffffffffffffffff167f7fef988ea6e2f03c1f9fb16df333b2a7911dfb096f5c563866713c1c9517ec7060405160405180910390a350565b6133f881600261373090919063ffffffff16565b3373ffffffffffffffffffffffffffffffffffffffff168173ffffffffffffffffffffffffffffffffffffffff167ff6dfb9f71429364456283a1521c30cc400d799d7b381d7ce164687f11c18dbaf60405160405180910390a350565b61346981600061373090919063ffffffff16565b3373ffffffffffffffffffffffffffffffffffffffff168173ffffffffffffffffffffffffffffffffffffffff167fbf3f493c772c8c283fd124432c2d0f539ab343faa04258fe88e52912d36b102b60405160405180910390a350565b6134da81600261367390919063ffffffff16565b3373ffffffffffffffffffffffffffffffffffffffff168173ffffffffffffffffffffffffffffffffffffffff167fd00481c3fc5867ec74704c9c99334b8d53c7735c947bdcb6cbebcae6740ed94060405160405180910390a350565b61354b81600061367390919063ffffffff16565b8073ffffffffffffffffffffffffffffffffffffffff167f583e7032182b053f2bcd5e3ac78021a3c8d321735043ee84032742c9a6528afd60405160405180910390a250565b6135a581600161373090919063ffffffff16565b3373ffffffffffffffffffffffffffffffffffffffff168173ffffffffffffffffffffffffffffffffffffffff167f93b0ab94930bbad064296971ea5e731f84ae511662781bcaf28543ab9042368a60405160405180910390a350565b61361681600361367390919063ffffffff16565b3373ffffffffffffffffffffffffffffffffffffffff168173ffffffffffffffffffffffffffffffffffffffff167f83bb2e314d2b42b828b2082c5f08a3b9162d6322fe9b8bdaa47dc3d26ce183af60405160405180910390a350565b61367d8282613184565b6136d2576040517f08c379a000000000000000000000000000000000000000000000000000000000815260040180806020018281038252602181526020018061395c6021913960400191505060405180910390fd5b60008260000160008373ffffffffffffffffffffffffffffffffffffffff1673ffffffffffffffffffffffffffffffffffffffff16815260200190815260200160002060006101000a81548160ff0219169083151502179055505050565b61373a8282613184565b156137ad576040517f08c379a000000000000000000000000000000000000000000000000000000000815260040180806020018281038252601f8152602001807f526f6c65733a206163636f756e7420616c72656164792068617320726f6c650081525060200191505060405180910390fd5b60018260000160008373ffffffffffffffffffffffffffffffffffffffff1673ffffffffffffffffffffffffffffffffffffffff16815260200190815260200160002060006101000a81548160ff0219169083151502179055505050565b6040518060c001604052806060815260200160608152602001606081526020016060815260200160608152602001600081525090565b50805460018160011615610100020316600290046000825580601f106138675750613886565b601f0160209004906000526020600020908101906138859190613909565b5b50565b828054600181600116156101000203166002900490600052602060002090601f016020900481019282601f106138ca57805160ff19168380011785556138f8565b828001600101855582156138f8579182015b828111156138f75782518255916020019190600101906138dc565b5b5090506139059190613909565b5090565b61392b91905b8082111561392757600081600090555060010161390f565b5090565b9056fe4e6f207365206375656e746120636f6e20656c20726f6c2065737065636966696361646f284dc3a96469636f29526f6c65733a206163636f756e7420646f6573206e6f74206861766520726f6c65526f6c65733a206163636f756e7420697320746865207a65726f20616464726573734e6f207365206375656e746120636f6e20656c20726f6c2065737065636966696361646f2841646d696e29a265627a7a72315820ba9197791179803813d14d827824b27c7c03fc210719d51fc612d51e0bbd4b8064736f6c63430005100032526f6c65733a206163636f756e7420697320746865207a65726f2061646472657373",
  "source": "pragma solidity 0.5.16;\r\nimport \"./acceso/UserRoles.sol\";\r\n\r\n/**\r\n * @title Smart Contract de Registro de asistentes - El administrador agrega un asistente.\r\n * @author Francisco Alemn\r\n * @notice Este contrato representa el registro de un asistente.\r\n * @dev El contrato hereda las funciones del contrato de roles\r\n */\r\n\r\ncontract AssistantRegister is UserRoles {\r\n     /**\r\n     * @title Representa los datos del asistente.\r\n     */\r\n    struct Asistente {\r\n        string name;\r\n        string aPat;\r\n        string aMat;\r\n        string curp;\r\n        string hashPicture;\r\n        uint256 date;\r\n    }\r\n\r\n    /**\r\n     * @notice Mapea la direccin a la lista de asistentes..\r\n     */\r\n    mapping (address => Asistente[]) public fileToAssistant;\r\n\r\n    /**\r\n     * @notice Patrn de switch para encender/apagar\r\n     */\r\n    bool private stopped = false;\r\n\r\n    /**\r\n     * @dev Eventos que sern registrados en la blockchain.\r\n     */\r\n    event AssistantAdded(\r\n        address indexed _assistant,\r\n        address indexed _admin,\r\n        string _name,\r\n        string _aPat,\r\n        string _aMat,\r\n        string _curp,\r\n        string _hashPicture,\r\n        uint256 date);\r\n\r\n    event AssistantUpdate(\r\n        address indexed _assistant,\r\n        address indexed _admin,\r\n        string _name,\r\n        string _aPat,\r\n        string _aMat,\r\n        string _curp,\r\n        string _hashPicture,\r\n        uint256 _date,\r\n        uint256 _queryDate);\r\n\r\n    event AssistantRetrieve(\r\n        address indexed _assistant,\r\n        address indexed _admin,\r\n        string _name,\r\n        string _aPat,\r\n        string _aMat,\r\n        string  _curp,\r\n        string  _hashPicture,\r\n        uint256 _date,\r\n        uint256 _queryDate);\r\n\r\n    event AssistantDelete(\r\n        address indexed _assistant,\r\n        address indexed _admin,\r\n        string _hashPicture,\r\n        uint256 _date);\r\n\r\n    /**\r\n    * @dev Indica que se ha puesto el contrato en pausa.\r\n    * @param _admin Un administrador\r\n    * @param _stop Indica cuando hay una pausa o una reanudacin.\r\n    */\r\n    event LogSwitchStop(\r\n        address indexed _admin,\r\n        bool _stop\r\n    );\r\n\r\n    /**\r\n    * @dev Previene de ejecucin del contrato\r\n    */\r\n    modifier nonlyStopped {\r\n        require(!stopped);\r\n        _;\r\n    }\r\n\r\n    /**\r\n    * @dev Est funcin ser llamada para todos los mensajes que sean enviados a este contrado.\r\n    * Enviar Ether a este contrato ocasionar una excepcin, dado que las funciones no tienen un modificador de pago.\r\n    */\r\n    function() external {}\r\n\r\n    /**\r\n    * @notice Pausar el contrato\r\n    * Se detiene el contrato bajo ciertas condiciones.\r\n    * Sera til cuando nuevos errores sean descubiertos.\r\n    * @param _stop Switch del contrado de encendido/apagado\r\n    */\r\n    function emergencyStop(bool _stop) public onlyAdmin {\r\n        stopped = _stop;\r\n        emit LogSwitchStop(msg.sender, _stop);\r\n    }\r\n\r\n     /**\r\n   * @dev Funcin de registro de Asistente. Esta funcin es realizada por un administrador.\r\n   * @param _account a\r\n   * @param _name a\r\n   * @param _aPat a\r\n   * @param _aMat a\r\n   * @param _curp a\r\n   * @param _hashPicture a\r\n   *@param _date a\r\n   * @return _success a\r\n   */\r\n    function addAssistant(\r\n        address _account,\r\n        string memory _name,\r\n        string memory _aPat,\r\n        string memory _aMat,\r\n        string memory _curp,\r\n        string memory _hashPicture)\r\n    public nonlyStopped onlyAdmin returns (bool _success) {\r\n        require(_account != 0x0000000000000000000000000000000000000000);\r\n        require(bytes(_name).length < 50);\r\n        require(bytes(_aPat).length < 30);\r\n        require(bytes(_aMat).length < 30);\r\n        require(bytes(_curp).length == 5);\r\n        require(bytes(_hashPicture).length == 5);\r\n        uint256 _date = now;\r\n\r\n\r\n        Asistente memory asistente = Asistente(\r\n            _name,\r\n            _aPat,\r\n            _aMat,\r\n            _curp,\r\n            _hashPicture,\r\n            _date\r\n        );\r\n\r\n        fileToAssistant[_account].push(asistente);\r\n\r\n        emit AssistantAdded(\r\n            _account,\r\n            msg.sender,\r\n            _name,\r\n            _aPat,\r\n            _aMat,\r\n            _curp,\r\n            _hashPicture,\r\n            _date\r\n        );\r\n        _success = true;\r\n    }\r\n\r\n    /**\r\n    * @notice Returns el Asistente en el ndice del propietario de la direccin.\r\n    * @dev Controlado por el switch\r\n    * @param _account Cuenta del asistente\r\n    */\r\n    function updateAssistant(\r\n        address _account,\r\n        string memory _name,\r\n        string memory _aPat,\r\n        string memory _aMat,\r\n        string memory _curp,\r\n        string memory _hashPicture,\r\n        uint256 _date)\r\n    public nonlyStopped onlyAdmin returns (bool _success) {\r\n        require(_account != 0x0000000000000000000000000000000000000000);\r\n        require(bytes(_name).length < 50);\r\n        require(bytes(_aPat).length < 30);\r\n        require(bytes(_aMat).length < 30);\r\n        require(bytes(_curp).length == 5);\r\n        require(bytes(_hashPicture).length == 5);\r\n        require(_date >= 0 && _date <= 2**256 - 1);\r\n        require(fileToAssistant[_account].length > 0);\r\n\r\n        uint256 _queryDate = now;\r\n        uint256 len = getAssistantCount(_account);\r\n        Asistente memory asistente;\r\n        for (uint256 i = 0; i < len; i++) {\r\n            asistente = fileToAssistant[_account][i];\r\n            if (asistente.date == _date) {\r\n                break;\r\n            }\r\n        }\r\n\r\n        asistente.name = _name;\r\n        asistente.aPat = _aPat;\r\n        asistente.aMat = _aMat;\r\n        asistente.curp = _curp;\r\n        asistente.hashPicture = _hashPicture;\r\n        asistente.date = _date;\r\n\r\n        emit AssistantUpdate(\r\n            _account,\r\n            msg.sender,\r\n            asistente.name,\r\n            asistente.aPat,\r\n            asistente.aMat,\r\n            asistente.curp,\r\n            asistente.hashPicture,\r\n            asistente.date,\r\n            _queryDate\r\n        );\r\n        _success = true;\r\n    }\r\n\r\n    /**\r\n    * @notice Returns el Asistente.\r\n    * @dev Controlado por el switch\r\n    * @param _account The owner address\r\n    * @return _date The uploaded timestamp\r\n    */\r\n    function viewAssistant(address _account, uint256 _date) public nonlyStopped onlyAdmin returns (\r\n        string memory name,\r\n        string memory aPat,\r\n        string memory aMat,\r\n        string memory curp,\r\n        string memory hashPicture) {\r\n        if (isAdmin(msg.sender)) {\r\n            require(msg.sender != _account);\r\n        }\r\n        require(_account != 0x0000000000000000000000000000000000000000);\r\n        require(_date >= 0 && _date <= 2**256 - 1);\r\n        require(fileToAssistant[_account].length > 0);\r\n\r\n        uint256 _queryDate = now;\r\n        uint256 len = getAssistantCount(_account);\r\n        Asistente memory asistente;\r\n\r\n        for (uint256 i = 0; i < len; i++) {\r\n            asistente = fileToAssistant[_account][i];\r\n            if (asistente.date == _date) {\r\n                break;\r\n            }\r\n        }\r\n\r\n        emit AssistantRetrieve(\r\n            _account,\r\n            msg.sender,\r\n            asistente.name,\r\n            asistente.aPat,\r\n            asistente.aMat,\r\n            asistente.curp,\r\n            asistente.hashPicture,\r\n            asistente.date,\r\n            _queryDate\r\n        );\r\n        name = asistente.name;\r\n        aPat = asistente.aPat;\r\n        aMat = asistente.aMat;\r\n        curp = asistente.curp;\r\n        hashPicture = asistente.hashPicture;\r\n    }\r\n\r\n    /**\r\n    * @notice Returns el asistente en el ndice del propietario de la direccin.\r\n    * @dev Controlado por el switch\r\n    * @param _account The owner address\r\n    * @return _date The uploaded timestamp\r\n    */\r\n    function deleteAssistant(address _account, uint256 _date) public nonlyStopped onlyAdmin returns (bool _success) {\r\n        require(_account != 0x0000000000000000000000000000000000000000);\r\n        require(_date >= 0 && _date <= 2**256 - 1);\r\n        require(fileToAssistant[_account].length > 0);\r\n\r\n        uint256 _queryDate = now;\r\n        uint256 len = getAssistantCount(_account);\r\n\r\n        for (uint256 i = 0; i < len; i++) {\r\n            if (fileToAssistant[_account][i].date == _date) {\r\n                emit AssistantDelete(\r\n                    _account,\r\n                    msg.sender,\r\n                    fileToAssistant[_account][i].hashPicture,\r\n                    _queryDate\r\n                );\r\n                delete fileToAssistant[_account][i];\r\n                break;\r\n            }\r\n        }\r\n        _success = true;\r\n    }\r\n\r\n    /**\r\n    * @notice Retorna el nmero de Asistente que posee cierta direccin de asistente.\r\n    * @dev Controlado por el switch\r\n    * @param _assistant El dueo de la direccin\r\n    * @return Retorna el nmero de Asistente\r\n    */\r\n    function getAssistantCount(address _assistant) internal view nonlyStopped returns (uint256) {\r\n        require(_assistant != 0x0000000000000000000000000000000000000000);\r\n        return fileToAssistant[_assistant].length;\r\n    }\r\n\r\n}\r\n",
  "sourcePath": "D:\\Mega-AC1982\\Develop\\Angular\\MedicalHistory-BlockChainProject\\frontend\\truffle\\contracts\\AssistantRegister.sol",
  "compiler": {
    "name": "solc",
    "version": "0.5.16+commit.9c3226ce.Emscripten.clang"
  },
  "schemaVersion": "3.1.0",
  "updatedAt": "2020-04-29T01:07:47.857Z",
  "devdoc": {
    "author": "Francisco Alemn",
    "details": "El contrato hereda las funciones del contrato de roles",
    "methods": {
      "addAdmin(address)": {
        "details": "Funcin pblica para asignar admin",
        "params": {
          "account": "Cuenta que ser asignada como admin"
        }
      },
      "addAssistant(address)": {
        "details": "Funcin pblica para asignar asistente",
        "params": {
          "account": "Cuenta que ser asignada como asistente"
        }
      },
      "addAssistant(address,string,string,string,string,string)": {
        "details": "Funcin de registro de Asistente. Esta funcin es realizada por un administrador.",
        "params": {
          "_aMat": "a",
          "_aPat": "a",
          "_account": "a",
          "_curp": "a",
          "_hashPicture": "a param _date a",
          "_name": "a"
        },
        "return": "_success a"
      },
      "addMedic(address)": {
        "details": "Funcin pblica para asignar mdico",
        "params": {
          "account": "Cuenta que ser asignada como mdico"
        }
      },
      "addPatient(address)": {
        "details": "Funcin pblica para asignar paciente",
        "params": {
          "account": "Cuenta que ser asignada como paciente"
        }
      },
      "deleteAssistant(address,uint256)": {
        "details": "Controlado por el switch",
        "params": {
          "_account": "The owner address"
        },
        "return": "_date The uploaded timestamp"
      },
      "emergencyStop(bool)": {
        "params": {
          "_stop": "Switch del contrado de encendido/apagado"
        }
      },
      "isAdmin(address)": {
        "params": {
          "account": "Cuenta donde se validar el rol."
        },
        "return": "true si la cuenta tiene rol de admin"
      },
      "isAssistant(address)": {
        "params": {
          "account": "Cuenta donde se validar el rol."
        },
        "return": "true si la cuenta tiene rol de asistente"
      },
      "isMedic(address)": {
        "params": {
          "account": "Cuenta donde se validar el rol."
        },
        "return": "true si la cuenta tiene rol de mdico"
      },
      "isPatient(address)": {
        "params": {
          "account": "Cuenta donde se validar el rol."
        },
        "return": "true si la cuenta tiene rol de paciente"
      },
      "removeAssistant(address)": {
        "details": "Remover a rol de asistente. Quien invoque al contrato no volver a ser asistente."
      },
      "removeMedic(address)": {
        "details": "Funcin pblica para remover mdico",
        "params": {
          "account": "Cuenta que ser removida de mdico"
        }
      },
      "removePatient(address)": {
        "details": "Remover a rol de paciente. Quien invoque al contrato no volver a ser paciente."
      },
      "renounceAdmin()": {
        "details": "Renunciar a rol de administrador. Quien inque al contrato no volver a ser admin."
      },
      "renounceMedic()": {
        "details": "Renunciar a rol de personal mdico. Quien invoque al contrato no volver a ser mdico."
      },
      "updateAssistant(address,string,string,string,string,string,uint256)": {
        "details": "Controlado por el switch",
        "params": {
          "_account": "Cuenta del asistente"
        }
      },
      "viewAssistant(address,uint256)": {
        "details": "Controlado por el switch",
        "params": {
          "_account": "The owner address"
        },
        "return": "_date The uploaded timestamp"
      }
    },
    "title": "Smart Contract de Registro de asistentes - El administrador agrega un asistente."
  },
  "userdoc": {
    "methods": {
      "deleteAssistant(address,uint256)": {
        "notice": "Returns el asistente en el ndice del propietario de la direccin."
      },
      "emergencyStop(bool)": {
        "notice": "Pausar el contrato Se detiene el contrato bajo ciertas condiciones. Sera til cuando nuevos errores sean descubiertos."
      },
      "updateAssistant(address,string,string,string,string,string,uint256)": {
        "notice": "Returns el Asistente en el ndice del propietario de la direccin."
      },
      "viewAssistant(address,uint256)": {
        "notice": "Returns el Asistente."
      }
    },
    "notice": "Este contrato representa el registro de un asistente."
  }
}