{
  "contractName": "MedicsRegister",
  "abi": [
    {
      "anonymous": false,
      "inputs": [
        {
          "indexed": true,
          "internalType": "address",
          "name": "newAdm",
          "type": "address"
        },
        {
          "indexed": true,
          "internalType": "address",
          "name": "whoAddedAdm",
          "type": "address"
        }
      ],
      "name": "AdminAdded",
      "type": "event"
    },
    {
      "anonymous": false,
      "inputs": [
        {
          "indexed": true,
          "internalType": "address",
          "name": "accountRen",
          "type": "address"
        }
      ],
      "name": "AdminRenounce",
      "type": "event"
    },
    {
      "anonymous": false,
      "inputs": [
        {
          "indexed": true,
          "internalType": "address",
          "name": "newAssistant",
          "type": "address"
        },
        {
          "indexed": true,
          "internalType": "address",
          "name": "whoAddedAssistant",
          "type": "address"
        }
      ],
      "name": "AssistantAdded",
      "type": "event"
    },
    {
      "anonymous": false,
      "inputs": [
        {
          "indexed": true,
          "internalType": "address",
          "name": "oldAssistant",
          "type": "address"
        },
        {
          "indexed": true,
          "internalType": "address",
          "name": "whoRemovedAssistant",
          "type": "address"
        }
      ],
      "name": "AssistantRemoved",
      "type": "event"
    },
    {
      "anonymous": false,
      "inputs": [
        {
          "indexed": true,
          "internalType": "address",
          "name": "_admin",
          "type": "address"
        },
        {
          "indexed": false,
          "internalType": "bool",
          "name": "_stop",
          "type": "bool"
        }
      ],
      "name": "LogSwitchStop",
      "type": "event"
    },
    {
      "anonymous": false,
      "inputs": [
        {
          "indexed": true,
          "internalType": "address",
          "name": "newMed",
          "type": "address"
        },
        {
          "indexed": true,
          "internalType": "address",
          "name": "whoAddedMed",
          "type": "address"
        }
      ],
      "name": "MedicAdded",
      "type": "event"
    },
    {
      "anonymous": false,
      "inputs": [
        {
          "indexed": true,
          "internalType": "address",
          "name": "oldMed",
          "type": "address"
        },
        {
          "indexed": true,
          "internalType": "address",
          "name": "whoRemovedMed",
          "type": "address"
        }
      ],
      "name": "MedicRemoved",
      "type": "event"
    },
    {
      "anonymous": false,
      "inputs": [
        {
          "indexed": true,
          "internalType": "address",
          "name": "medRen",
          "type": "address"
        }
      ],
      "name": "MedicRenounce",
      "type": "event"
    },
    {
      "anonymous": false,
      "inputs": [
        {
          "indexed": true,
          "internalType": "address",
          "name": "_medic",
          "type": "address"
        },
        {
          "indexed": true,
          "internalType": "address",
          "name": "_admin",
          "type": "address"
        },
        {
          "indexed": false,
          "internalType": "string",
          "name": "_name",
          "type": "string"
        },
        {
          "indexed": false,
          "internalType": "string",
          "name": "_specialty",
          "type": "string"
        },
        {
          "indexed": false,
          "internalType": "string",
          "name": "_cedula",
          "type": "string"
        },
        {
          "indexed": false,
          "internalType": "string",
          "name": "_email",
          "type": "string"
        },
        {
          "indexed": false,
          "internalType": "string",
          "name": "_hashPicture",
          "type": "string"
        },
        {
          "indexed": false,
          "internalType": "uint256",
          "name": "_date",
          "type": "uint256"
        }
      ],
      "name": "MedicsAdded",
      "type": "event"
    },
    {
      "anonymous": false,
      "inputs": [
        {
          "indexed": true,
          "internalType": "address",
          "name": "_medic",
          "type": "address"
        },
        {
          "indexed": true,
          "internalType": "address",
          "name": "_admin",
          "type": "address"
        },
        {
          "indexed": false,
          "internalType": "string",
          "name": "_hashPicture",
          "type": "string"
        },
        {
          "indexed": false,
          "internalType": "uint256",
          "name": "_date",
          "type": "uint256"
        }
      ],
      "name": "MedicsDelete",
      "type": "event"
    },
    {
      "anonymous": false,
      "inputs": [
        {
          "indexed": true,
          "internalType": "address",
          "name": "_medic",
          "type": "address"
        },
        {
          "indexed": true,
          "internalType": "address",
          "name": "_admin",
          "type": "address"
        },
        {
          "indexed": false,
          "internalType": "string",
          "name": "_name",
          "type": "string"
        },
        {
          "indexed": false,
          "internalType": "string",
          "name": "_specialty",
          "type": "string"
        },
        {
          "indexed": false,
          "internalType": "string",
          "name": "_cedula",
          "type": "string"
        },
        {
          "indexed": false,
          "internalType": "string",
          "name": "_email",
          "type": "string"
        },
        {
          "indexed": false,
          "internalType": "string",
          "name": "_hashPicture",
          "type": "string"
        },
        {
          "indexed": false,
          "internalType": "uint256",
          "name": "_date",
          "type": "uint256"
        },
        {
          "indexed": false,
          "internalType": "uint256",
          "name": "_queryDate",
          "type": "uint256"
        }
      ],
      "name": "MedicsRetrieve",
      "type": "event"
    },
    {
      "anonymous": false,
      "inputs": [
        {
          "indexed": true,
          "internalType": "address",
          "name": "_medic",
          "type": "address"
        },
        {
          "indexed": true,
          "internalType": "address",
          "name": "_admin",
          "type": "address"
        },
        {
          "indexed": false,
          "internalType": "string",
          "name": "_name",
          "type": "string"
        },
        {
          "indexed": false,
          "internalType": "string",
          "name": "_specialty",
          "type": "string"
        },
        {
          "indexed": false,
          "internalType": "string",
          "name": "_cedula",
          "type": "string"
        },
        {
          "indexed": false,
          "internalType": "string",
          "name": "_email",
          "type": "string"
        },
        {
          "indexed": false,
          "internalType": "string",
          "name": "_hashPicture",
          "type": "string"
        },
        {
          "indexed": false,
          "internalType": "uint256",
          "name": "_date",
          "type": "uint256"
        },
        {
          "indexed": false,
          "internalType": "uint256",
          "name": "_queryDate",
          "type": "uint256"
        }
      ],
      "name": "MedicsUpdate",
      "type": "event"
    },
    {
      "anonymous": false,
      "inputs": [
        {
          "indexed": true,
          "internalType": "address",
          "name": "newPat",
          "type": "address"
        },
        {
          "indexed": true,
          "internalType": "address",
          "name": "whoAddedPat",
          "type": "address"
        }
      ],
      "name": "PatientAdded",
      "type": "event"
    },
    {
      "anonymous": false,
      "inputs": [
        {
          "indexed": true,
          "internalType": "address",
          "name": "oldPat",
          "type": "address"
        },
        {
          "indexed": true,
          "internalType": "address",
          "name": "whoRemovedPat",
          "type": "address"
        }
      ],
      "name": "PatientRemoved",
      "type": "event"
    },
    {
      "constant": false,
      "inputs": [
        {
          "internalType": "address",
          "name": "account",
          "type": "address"
        }
      ],
      "name": "addAdmin",
      "outputs": [],
      "payable": false,
      "stateMutability": "nonpayable",
      "type": "function"
    },
    {
      "constant": false,
      "inputs": [
        {
          "internalType": "address",
          "name": "account",
          "type": "address"
        }
      ],
      "name": "addAssistant",
      "outputs": [],
      "payable": false,
      "stateMutability": "nonpayable",
      "type": "function"
    },
    {
      "constant": false,
      "inputs": [
        {
          "internalType": "address",
          "name": "account",
          "type": "address"
        }
      ],
      "name": "addMedic",
      "outputs": [],
      "payable": false,
      "stateMutability": "nonpayable",
      "type": "function"
    },
    {
      "constant": false,
      "inputs": [
        {
          "internalType": "address",
          "name": "account",
          "type": "address"
        }
      ],
      "name": "addPatient",
      "outputs": [],
      "payable": false,
      "stateMutability": "nonpayable",
      "type": "function"
    },
    {
      "constant": true,
      "inputs": [
        {
          "internalType": "address",
          "name": "",
          "type": "address"
        },
        {
          "internalType": "uint256",
          "name": "",
          "type": "uint256"
        }
      ],
      "name": "fileToMedic",
      "outputs": [
        {
          "internalType": "string",
          "name": "name",
          "type": "string"
        },
        {
          "internalType": "string",
          "name": "specialty",
          "type": "string"
        },
        {
          "internalType": "string",
          "name": "cedula",
          "type": "string"
        },
        {
          "internalType": "string",
          "name": "email",
          "type": "string"
        },
        {
          "internalType": "string",
          "name": "hashPicture",
          "type": "string"
        },
        {
          "internalType": "uint256",
          "name": "date",
          "type": "uint256"
        }
      ],
      "payable": false,
      "stateMutability": "view",
      "type": "function"
    },
    {
      "constant": true,
      "inputs": [
        {
          "internalType": "address",
          "name": "account",
          "type": "address"
        }
      ],
      "name": "isAdmin",
      "outputs": [
        {
          "internalType": "bool",
          "name": "",
          "type": "bool"
        }
      ],
      "payable": false,
      "stateMutability": "view",
      "type": "function"
    },
    {
      "constant": true,
      "inputs": [
        {
          "internalType": "address",
          "name": "account",
          "type": "address"
        }
      ],
      "name": "isAssistant",
      "outputs": [
        {
          "internalType": "bool",
          "name": "",
          "type": "bool"
        }
      ],
      "payable": false,
      "stateMutability": "view",
      "type": "function"
    },
    {
      "constant": true,
      "inputs": [
        {
          "internalType": "address",
          "name": "account",
          "type": "address"
        }
      ],
      "name": "isMedic",
      "outputs": [
        {
          "internalType": "bool",
          "name": "",
          "type": "bool"
        }
      ],
      "payable": false,
      "stateMutability": "view",
      "type": "function"
    },
    {
      "constant": true,
      "inputs": [
        {
          "internalType": "address",
          "name": "account",
          "type": "address"
        }
      ],
      "name": "isPatient",
      "outputs": [
        {
          "internalType": "bool",
          "name": "",
          "type": "bool"
        }
      ],
      "payable": false,
      "stateMutability": "view",
      "type": "function"
    },
    {
      "constant": false,
      "inputs": [
        {
          "internalType": "address",
          "name": "account",
          "type": "address"
        }
      ],
      "name": "removeAssistant",
      "outputs": [],
      "payable": false,
      "stateMutability": "nonpayable",
      "type": "function"
    },
    {
      "constant": false,
      "inputs": [
        {
          "internalType": "address",
          "name": "account",
          "type": "address"
        }
      ],
      "name": "removeMedic",
      "outputs": [],
      "payable": false,
      "stateMutability": "nonpayable",
      "type": "function"
    },
    {
      "constant": false,
      "inputs": [
        {
          "internalType": "address",
          "name": "account",
          "type": "address"
        }
      ],
      "name": "removePatient",
      "outputs": [],
      "payable": false,
      "stateMutability": "nonpayable",
      "type": "function"
    },
    {
      "constant": false,
      "inputs": [],
      "name": "renounceAdmin",
      "outputs": [],
      "payable": false,
      "stateMutability": "nonpayable",
      "type": "function"
    },
    {
      "constant": false,
      "inputs": [],
      "name": "renounceMedic",
      "outputs": [],
      "payable": false,
      "stateMutability": "nonpayable",
      "type": "function"
    },
    {
      "constant": false,
      "inputs": [
        {
          "internalType": "bool",
          "name": "_stop",
          "type": "bool"
        }
      ],
      "name": "emergencyStop",
      "outputs": [],
      "payable": false,
      "stateMutability": "nonpayable",
      "type": "function"
    },
    {
      "constant": false,
      "inputs": [
        {
          "internalType": "address",
          "name": "_account",
          "type": "address"
        },
        {
          "internalType": "string",
          "name": "_name",
          "type": "string"
        },
        {
          "internalType": "string",
          "name": "_specialty",
          "type": "string"
        },
        {
          "internalType": "string",
          "name": "_cedula",
          "type": "string"
        },
        {
          "internalType": "string",
          "name": "_email",
          "type": "string"
        },
        {
          "internalType": "string",
          "name": "_hashPicture",
          "type": "string"
        }
      ],
      "name": "addMedics",
      "outputs": [
        {
          "internalType": "bool",
          "name": "_success",
          "type": "bool"
        }
      ],
      "payable": false,
      "stateMutability": "nonpayable",
      "type": "function"
    },
    {
      "constant": false,
      "inputs": [
        {
          "internalType": "address",
          "name": "_account",
          "type": "address"
        },
        {
          "internalType": "string",
          "name": "_name",
          "type": "string"
        },
        {
          "internalType": "string",
          "name": "_specialty",
          "type": "string"
        },
        {
          "internalType": "string",
          "name": "_cedula",
          "type": "string"
        },
        {
          "internalType": "string",
          "name": "_email",
          "type": "string"
        },
        {
          "internalType": "string",
          "name": "_hashPicture",
          "type": "string"
        },
        {
          "internalType": "uint256",
          "name": "_date",
          "type": "uint256"
        }
      ],
      "name": "updateMedics",
      "outputs": [
        {
          "internalType": "bool",
          "name": "_success",
          "type": "bool"
        }
      ],
      "payable": false,
      "stateMutability": "nonpayable",
      "type": "function"
    },
    {
      "constant": false,
      "inputs": [
        {
          "internalType": "address",
          "name": "_account",
          "type": "address"
        },
        {
          "internalType": "uint256",
          "name": "_date",
          "type": "uint256"
        }
      ],
      "name": "viewMedics",
      "outputs": [
        {
          "internalType": "string",
          "name": "name",
          "type": "string"
        },
        {
          "internalType": "string",
          "name": "specialty",
          "type": "string"
        },
        {
          "internalType": "string",
          "name": "cedula",
          "type": "string"
        },
        {
          "internalType": "string",
          "name": "email",
          "type": "string"
        },
        {
          "internalType": "string",
          "name": "hashPicture",
          "type": "string"
        }
      ],
      "payable": false,
      "stateMutability": "nonpayable",
      "type": "function"
    },
    {
      "constant": false,
      "inputs": [
        {
          "internalType": "address",
          "name": "_account",
          "type": "address"
        },
        {
          "internalType": "uint256",
          "name": "_date",
          "type": "uint256"
        }
      ],
      "name": "deleteMedics",
      "outputs": [
        {
          "internalType": "bool",
          "name": "_success",
          "type": "bool"
        }
      ],
      "payable": false,
      "stateMutability": "nonpayable",
      "type": "function"
    }
  ],
  "bytecode": "0x60806040526000600560006101000a81548160ff02191690831515021790555062000030336200003660201b60201c565b62000272565b62000051816000620000ae60201b620037331790919060201c565b3373ffffffffffffffffffffffffffffffffffffffff168173ffffffffffffffffffffffffffffffffffffffff167fbf3f493c772c8c283fd124432c2d0f539ab343faa04258fe88e52912d36b102b60405160405180910390a350565b620000c082826200019260201b60201c565b1562000134576040517f08c379a000000000000000000000000000000000000000000000000000000000815260040180806020018281038252601f8152602001807f526f6c65733a206163636f756e7420616c72656164792068617320726f6c650081525060200191505060405180910390fd5b60018260000160008373ffffffffffffffffffffffffffffffffffffffff1673ffffffffffffffffffffffffffffffffffffffff16815260200190815260200160002060006101000a81548160ff0219169083151502179055505050565b60008073ffffffffffffffffffffffffffffffffffffffff168273ffffffffffffffffffffffffffffffffffffffff1614156200021b576040517f08c379a000000000000000000000000000000000000000000000000000000000815260040180806020018281038252602281526020018062003c836022913960400191505060405180910390fd5b8260000160008373ffffffffffffffffffffffffffffffffffffffff1673ffffffffffffffffffffffffffffffffffffffff16815260200190815260200160002060009054906101000a900460ff16905092915050565b613a0180620002826000396000f3fe608060405234801561001057600080fd5b50600436106101215760003560e01c80637d0d6257116100ad578063c6584bb811610071578063c6584bb8146107bd578063d6aac86914610819578063e765e73514610a97578063ea04f68f14610de6578063eae3ef8a1461105d57610121565b80637d0d62571461068b5780638bad0c0a146106cf5780638f9c79ed146106d9578063b0397ff814610735578063b8792f0b1461077957610121565b80635c8b67df116100f45780635c8b67df1461022257806362499d5c146102665780636d263ceb146105bf57806370480275146106035780637d01dbc21461064757610121565b80630ac62e021461012657806324d7806c1461015657806333645874146101b257806333dc0abd14610218575b600080fd5b6101546004803603602081101561013c57600080fd5b810190808035151590602001909291905050506110b9565b005b6101986004803603602081101561016c57600080fd5b81019080803573ffffffffffffffffffffffffffffffffffffffff169060200190929190505050611186565b604051808215151515815260200191505060405180910390f35b6101fe600480360360408110156101c857600080fd5b81019080803573ffffffffffffffffffffffffffffffffffffffff169060200190929190803590602001909291905050506111a3565b604051808215151515815260200191505060405180910390f35b61022061157e565b005b6102646004803603602081101561023857600080fd5b81019080803573ffffffffffffffffffffffffffffffffffffffff1690602001909291905050506115e7565b005b6105a5600480360360e081101561027c57600080fd5b81019080803573ffffffffffffffffffffffffffffffffffffffff169060200190929190803590602001906401000000008111156102b957600080fd5b8201836020820111156102cb57600080fd5b803590602001918460018302840111640100000000831117156102ed57600080fd5b91908080601f016020809104026020016040519081016040528093929190818152602001838380828437600081840152601f19601f8201169050808301925050505050505091929192908035906020019064010000000081111561035057600080fd5b82018360208201111561036257600080fd5b8035906020019184600183028401116401000000008311171561038457600080fd5b91908080601f016020809104026020016040519081016040528093929190818152602001838380828437600081840152601f19601f820116905080830192505050505050509192919290803590602001906401000000008111156103e757600080fd5b8201836020820111156103f957600080fd5b8035906020019184600183028401116401000000008311171561041b57600080fd5b91908080601f016020809104026020016040519081016040528093929190818152602001838380828437600081840152601f19601f8201169050808301925050505050505091929192908035906020019064010000000081111561047e57600080fd5b82018360208201111561049057600080fd5b803590602001918460018302840111640100000000831117156104b257600080fd5b91908080601f016020809104026020016040519081016040528093929190818152602001838380828437600081840152601f19601f8201169050808301925050505050505091929192908035906020019064010000000081111561051557600080fd5b82018360208201111561052757600080fd5b8035906020019184600183028401116401000000008311171561054957600080fd5b91908080601f016020809104026020016040519081016040528093929190818152602001838380828437600081840152601f19601f82011690508083019250505050505050919291929080359060200190929190505050611651565b604051808215151515815260200191505060405180910390f35b610601600480360360208110156105d557600080fd5b81019080803573ffffffffffffffffffffffffffffffffffffffff169060200190929190505050611ea3565b005b6106456004803603602081101561061957600080fd5b81019080803573ffffffffffffffffffffffffffffffffffffffff169060200190929190505050611eaf565b005b6106896004803603602081101561065d57600080fd5b81019080803573ffffffffffffffffffffffffffffffffffffffff169060200190929190505050611f19565b005b6106cd600480360360208110156106a157600080fd5b81019080803573ffffffffffffffffffffffffffffffffffffffff169060200190929190505050611f83565b005b6106d7611fed565b005b61071b600480360360208110156106ef57600080fd5b81019080803573ffffffffffffffffffffffffffffffffffffffff169060200190929190505050611ff8565b604051808215151515815260200191505060405180910390f35b6107776004803603602081101561074b57600080fd5b81019080803573ffffffffffffffffffffffffffffffffffffffff169060200190929190505050612015565b005b6107bb6004803603602081101561078f57600080fd5b81019080803573ffffffffffffffffffffffffffffffffffffffff16906020019092919050505061207f565b005b6107ff600480360360208110156107d357600080fd5b81019080803573ffffffffffffffffffffffffffffffffffffffff1690602001909291905050506120e9565b604051808215151515815260200191505060405180910390f35b6108656004803603604081101561082f57600080fd5b81019080803573ffffffffffffffffffffffffffffffffffffffff16906020019092919080359060200190929190505050612106565b60405180806020018060200180602001806020018060200187815260200186810386528c818151815260200191508051906020019080838360005b838110156108bb5780820151818401526020810190506108a0565b50505050905090810190601f1680156108e85780820380516001836020036101000a031916815260200191505b5086810385528b818151815260200191508051906020019080838360005b83811015610921578082015181840152602081019050610906565b50505050905090810190601f16801561094e5780820380516001836020036101000a031916815260200191505b5086810384528a818151815260200191508051906020019080838360005b8381101561098757808201518184015260208101905061096c565b50505050905090810190601f1680156109b45780820380516001836020036101000a031916815260200191505b50868103835289818151815260200191508051906020019080838360005b838110156109ed5780820151818401526020810190506109d2565b50505050905090810190601f168015610a1a5780820380516001836020036101000a031916815260200191505b50868103825288818151815260200191508051906020019080838360005b83811015610a53578082015181840152602081019050610a38565b50505050905090810190601f168015610a805780820380516001836020036101000a031916815260200191505b509b50505050505050505050505060405180910390f35b610dcc600480360360c0811015610aad57600080fd5b81019080803573ffffffffffffffffffffffffffffffffffffffff16906020019092919080359060200190640100000000811115610aea57600080fd5b820183602082011115610afc57600080fd5b80359060200191846001830284011164010000000083111715610b1e57600080fd5b91908080601f016020809104026020016040519081016040528093929190818152602001838380828437600081840152601f19601f82011690508083019250505050505050919291929080359060200190640100000000811115610b8157600080fd5b820183602082011115610b9357600080fd5b80359060200191846001830284011164010000000083111715610bb557600080fd5b91908080601f016020809104026020016040519081016040528093929190818152602001838380828437600081840152601f19601f82011690508083019250505050505050919291929080359060200190640100000000811115610c1857600080fd5b820183602082011115610c2a57600080fd5b80359060200191846001830284011164010000000083111715610c4c57600080fd5b91908080601f016020809104026020016040519081016040528093929190818152602001838380828437600081840152601f19601f82011690508083019250505050505050919291929080359060200190640100000000811115610caf57600080fd5b820183602082011115610cc157600080fd5b80359060200191846001830284011164010000000083111715610ce357600080fd5b91908080601f016020809104026020016040519081016040528093929190818152602001838380828437600081840152601f19601f82011690508083019250505050505050919291929080359060200190640100000000811115610d4657600080fd5b820183602082011115610d5857600080fd5b80359060200191846001830284011164010000000083111715610d7a57600080fd5b91908080601f016020809104026020016040519081016040528093929190818152602001838380828437600081840152601f19601f820116905080830192505050505050509192919290505050612454565b604051808215151515815260200191505060405180910390f35b610e3260048036036040811015610dfc57600080fd5b81019080803573ffffffffffffffffffffffffffffffffffffffff16906020019092919080359060200190929190505050612929565b60405180806020018060200180602001806020018060200186810386528b818151815260200191508051906020019080838360005b83811015610e82578082015181840152602081019050610e67565b50505050905090810190601f168015610eaf5780820380516001836020036101000a031916815260200191505b5086810385528a818151815260200191508051906020019080838360005b83811015610ee8578082015181840152602081019050610ecd565b50505050905090810190601f168015610f155780820380516001836020036101000a031916815260200191505b50868103845289818151815260200191508051906020019080838360005b83811015610f4e578082015181840152602081019050610f33565b50505050905090810190601f168015610f7b5780820380516001836020036101000a031916815260200191505b50868103835288818151815260200191508051906020019080838360005b83811015610fb4578082015181840152602081019050610f99565b50505050905090810190601f168015610fe15780820380516001836020036101000a031916815260200191505b50868103825287818151815260200191508051906020019080838360005b8381101561101a578082015181840152602081019050610fff565b50505050905090810190601f1680156110475780820380516001836020036101000a031916815260200191505b509a505050505050505050505060405180910390f35b61109f6004803603602081101561107357600080fd5b81019080803573ffffffffffffffffffffffffffffffffffffffff16906020019092919050505061316a565b604051808215151515815260200191505060405180910390f35b6110c233611186565b611117576040517f08c379a000000000000000000000000000000000000000000000000000000000815260040180806020018281038252602b8152602001806139a2602b913960400191505060405180910390fd5b80600560006101000a81548160ff0219169083151502179055503373ffffffffffffffffffffffffffffffffffffffff167f58b15338e6499b2b2827d169f60332c3b4b476fcd06b9a3c7e37afa77c49228e82604051808215151515815260200191505060405180910390a250565b600061119c82600061318790919063ffffffff16565b9050919050565b6000600560009054906101000a900460ff16156111bf57600080fd5b6111c833611186565b61121d576040517f08c379a000000000000000000000000000000000000000000000000000000000815260040180806020018281038252602b8152602001806139a2602b913960400191505060405180910390fd5b600073ffffffffffffffffffffffffffffffffffffffff168373ffffffffffffffffffffffffffffffffffffffff16141561125757600080fd5b6000821015801561128857507fffffffffffffffffffffffffffffffffffffffffffffffffffffffffffffffff8211155b61129157600080fd5b6000600460008573ffffffffffffffffffffffffffffffffffffffff1673ffffffffffffffffffffffffffffffffffffffff16815260200190815260200160002080549050116112e057600080fd5b600042905060006112f085613265565b905060008090505b818110156115715784600460008873ffffffffffffffffffffffffffffffffffffffff1673ffffffffffffffffffffffffffffffffffffffff168152602001908152602001600020828154811061134b57fe5b9060005260206000209060060201600501541415611564573373ffffffffffffffffffffffffffffffffffffffff168673ffffffffffffffffffffffffffffffffffffffff167f1977237b5f2ef5422b52998d1f30b1e788c1c890c07a074c7856db9bc6d2ccc2600460008a73ffffffffffffffffffffffffffffffffffffffff1673ffffffffffffffffffffffffffffffffffffffff16815260200190815260200160002084815481106113fc57fe5b906000526020600020906006020160040186604051808060200183815260200182810382528481815460018160011615610100020316600290048152602001915080546001816001161561010002031660029004801561149d5780601f106114725761010080835404028352916020019161149d565b820191906000526020600020905b81548152906001019060200180831161148057829003601f168201915b5050935050505060405180910390a3600460008773ffffffffffffffffffffffffffffffffffffffff1673ffffffffffffffffffffffffffffffffffffffff16815260200190815260200160002081815481106114f657fe5b906000526020600020906006020160008082016000611515919061380e565b600182016000611525919061380e565b600282016000611535919061380e565b600382016000611545919061380e565b600482016000611555919061380e565b60058201600090555050611571565b80806001019150506112f8565b5060019250505092915050565b6115873361316a565b6115dc576040517f08c379a000000000000000000000000000000000000000000000000000000000815260040180806020018281038252602d815260200180613932602d913960400191505060405180910390fd5b6115e533613305565b565b6115f033611186565b611645576040517f08c379a000000000000000000000000000000000000000000000000000000000815260040180806020018281038252602b8152602001806139a2602b913960400191505060405180910390fd5b61164e81613376565b50565b6000600560009054906101000a900460ff161561166d57600080fd5b61167633611186565b6116cb576040517f08c379a000000000000000000000000000000000000000000000000000000000815260040180806020018281038252602b8152602001806139a2602b913960400191505060405180910390fd5b600073ffffffffffffffffffffffffffffffffffffffff168873ffffffffffffffffffffffffffffffffffffffff16141561170557600080fd5b608087511061171357600080fd5b601e86511061172157600080fd5b601e85511061172f57600080fd5b601e84511061173d57600080fd5b601e83511061174b57600080fd5b6000821015801561177c57507fffffffffffffffffffffffffffffffffffffffffffffffffffffffffffffffff8211155b61178557600080fd5b6000600460008a73ffffffffffffffffffffffffffffffffffffffff1673ffffffffffffffffffffffffffffffffffffffff16815260200190815260200160002080549050116117d457600080fd5b600042905060006117e48a613265565b90506117ee613856565b60008090505b82811015611bb357600460008d73ffffffffffffffffffffffffffffffffffffffff1673ffffffffffffffffffffffffffffffffffffffff168152602001908152602001600020818154811061184657fe5b90600052602060002090600602016040518060c0016040529081600082018054600181600116156101000203166002900480601f0160208091040260200160405190810160405280929190818152602001828054600181600116156101000203166002900480156118f85780601f106118cd576101008083540402835291602001916118f8565b820191906000526020600020905b8154815290600101906020018083116118db57829003601f168201915b50505050508152602001600182018054600181600116156101000203166002900480601f01602080910402602001604051908101604052809291908181526020018280546001816001161561010002031660029004801561199a5780601f1061196f5761010080835404028352916020019161199a565b820191906000526020600020905b81548152906001019060200180831161197d57829003601f168201915b50505050508152602001600282018054600181600116156101000203166002900480601f016020809104026020016040519081016040528092919081815260200182805460018160011615610100020316600290048015611a3c5780601f10611a1157610100808354040283529160200191611a3c565b820191906000526020600020905b815481529060010190602001808311611a1f57829003601f168201915b50505050508152602001600382018054600181600116156101000203166002900480601f016020809104026020016040519081016040528092919081815260200182805460018160011615610100020316600290048015611ade5780601f10611ab357610100808354040283529160200191611ade565b820191906000526020600020905b815481529060010190602001808311611ac157829003601f168201915b50505050508152602001600482018054600181600116156101000203166002900480601f016020809104026020016040519081016040528092919081815260200182805460018160011615610100020316600290048015611b805780601f10611b5557610100808354040283529160200191611b80565b820191906000526020600020905b815481529060010190602001808311611b6357829003601f168201915b505050505081526020016005820154815250509150858260a001511415611ba657611bb3565b80806001019150506117f4565b50898160000181905250888160200181905250878160400181905250868160600181905250858160800181905250848160a00181815250503373ffffffffffffffffffffffffffffffffffffffff168b73ffffffffffffffffffffffffffffffffffffffff167f30990cdc5872ccbf411335c8ed18c1622ddeafe254b87f4ab281a8536fdc105d836000015184602001518560400151866060015187608001518860a001518b60405180806020018060200180602001806020018060200188815260200187815260200186810386528d818151815260200191508051906020019080838360005b83811015611cb5578082015181840152602081019050611c9a565b50505050905090810190601f168015611ce25780820380516001836020036101000a031916815260200191505b5086810385528c818151815260200191508051906020019080838360005b83811015611d1b578082015181840152602081019050611d00565b50505050905090810190601f168015611d485780820380516001836020036101000a031916815260200191505b5086810384528b818151815260200191508051906020019080838360005b83811015611d81578082015181840152602081019050611d66565b50505050905090810190601f168015611dae5780820380516001836020036101000a031916815260200191505b5086810383528a818151815260200191508051906020019080838360005b83811015611de7578082015181840152602081019050611dcc565b50505050905090810190601f168015611e145780820380516001836020036101000a031916815260200191505b50868103825289818151815260200191508051906020019080838360005b83811015611e4d578082015181840152602081019050611e32565b50505050905090810190601f168015611e7a5780820380516001836020036101000a031916815260200191505b509c5050505050505050505050505060405180910390a360019350505050979650505050505050565b611eac816133e7565b50565b611eb833611186565b611f0d576040517f08c379a000000000000000000000000000000000000000000000000000000000815260040180806020018281038252602b8152602001806139a2602b913960400191505060405180910390fd5b611f1681613458565b50565b611f2233611186565b611f77576040517f08c379a000000000000000000000000000000000000000000000000000000000815260040180806020018281038252602b8152602001806139a2602b913960400191505060405180910390fd5b611f8081613305565b50565b611f8c3361316a565b611fe1576040517f08c379a000000000000000000000000000000000000000000000000000000000815260040180806020018281038252602d815260200180613932602d913960400191505060405180910390fd5b611fea816134c9565b50565b611ff63361353a565b565b600061200e82600261318790919063ffffffff16565b9050919050565b61201e33611186565b612073576040517f08c379a000000000000000000000000000000000000000000000000000000000815260040180806020018281038252602b8152602001806139a2602b913960400191505060405180910390fd5b61207c81613594565b50565b61208833611186565b6120dd576040517f08c379a000000000000000000000000000000000000000000000000000000000815260040180806020018281038252602b8152602001806139a2602b913960400191505060405180910390fd5b6120e681613605565b50565b60006120ff82600361318790919063ffffffff16565b9050919050565b6004602052816000526040600020818154811061211f57fe5b906000526020600020906006020160009150915050806000018054600181600116156101000203166002900480601f0160208091040260200160405190810160405280929190818152602001828054600181600116156101000203166002900480156121cc5780601f106121a1576101008083540402835291602001916121cc565b820191906000526020600020905b8154815290600101906020018083116121af57829003601f168201915b505050505090806001018054600181600116156101000203166002900480601f01602080910402602001604051908101604052809291908181526020018280546001816001161561010002031660029004801561226a5780601f1061223f5761010080835404028352916020019161226a565b820191906000526020600020905b81548152906001019060200180831161224d57829003601f168201915b505050505090806002018054600181600116156101000203166002900480601f0160208091040260200160405190810160405280929190818152602001828054600181600116156101000203166002900480156123085780601f106122dd57610100808354040283529160200191612308565b820191906000526020600020905b8154815290600101906020018083116122eb57829003601f168201915b505050505090806003018054600181600116156101000203166002900480601f0160208091040260200160405190810160405280929190818152602001828054600181600116156101000203166002900480156123a65780601f1061237b576101008083540402835291602001916123a6565b820191906000526020600020905b81548152906001019060200180831161238957829003601f168201915b505050505090806004018054600181600116156101000203166002900480601f0160208091040260200160405190810160405280929190818152602001828054600181600116156101000203166002900480156124445780601f1061241957610100808354040283529160200191612444565b820191906000526020600020905b81548152906001019060200180831161242757829003601f168201915b5050505050908060050154905086565b6000600560009054906101000a900460ff161561247057600080fd5b61247933611186565b6124ce576040517f08c379a000000000000000000000000000000000000000000000000000000000815260040180806020018281038252602b8152602001806139a2602b913960400191505060405180910390fd5b600073ffffffffffffffffffffffffffffffffffffffff168773ffffffffffffffffffffffffffffffffffffffff16141561250857600080fd5b608086511061251657600080fd5b601e85511061252457600080fd5b601e84511061253257600080fd5b601e83511061254057600080fd5b601e82511061254e57600080fd5b600042905061255b613856565b6040518060c00160405280898152602001888152602001878152602001868152602001858152602001838152509050600460008a73ffffffffffffffffffffffffffffffffffffffff1673ffffffffffffffffffffffffffffffffffffffff1681526020019081526020016000208190806001815401808255809150509060018203906000526020600020906006020160009091929091909150600082015181600001908051906020019061261192919061388c565b50602082015181600101908051906020019061262e92919061388c565b50604082015181600201908051906020019061264b92919061388c565b50606082015181600301908051906020019061266892919061388c565b50608082015181600401908051906020019061268592919061388c565b5060a082015181600501555050503373ffffffffffffffffffffffffffffffffffffffff168973ffffffffffffffffffffffffffffffffffffffff167f99ef3acfa68b13c01a6a7e6717e2224b4157940e6a56be5bd957d13c059fe3a08a8a8a8a8a8960405180806020018060200180602001806020018060200187815260200186810386528c818151815260200191508051906020019080838360005b8381101561273e578082015181840152602081019050612723565b50505050905090810190601f16801561276b5780820380516001836020036101000a031916815260200191505b5086810385528b818151815260200191508051906020019080838360005b838110156127a4578082015181840152602081019050612789565b50505050905090810190601f1680156127d15780820380516001836020036101000a031916815260200191505b5086810384528a818151815260200191508051906020019080838360005b8381101561280a5780820151818401526020810190506127ef565b50505050905090810190601f1680156128375780820380516001836020036101000a031916815260200191505b50868103835289818151815260200191508051906020019080838360005b83811015612870578082015181840152602081019050612855565b50505050905090810190601f16801561289d5780820380516001836020036101000a031916815260200191505b50868103825288818151815260200191508051906020019080838360005b838110156128d65780820151818401526020810190506128bb565b50505050905090810190601f1680156129035780820380516001836020036101000a031916815260200191505b509b50505050505050505050505060405180910390a36001925050509695505050505050565b6060806060806060600560009054906101000a900460ff161561294b57600080fd5b61295433611186565b6129a9576040517f08c379a000000000000000000000000000000000000000000000000000000000815260040180806020018281038252602b8152602001806139a2602b913960400191505060405180910390fd5b6129b233611186565b156129f1578673ffffffffffffffffffffffffffffffffffffffff163373ffffffffffffffffffffffffffffffffffffffff1614156129f057600080fd5b5b600073ffffffffffffffffffffffffffffffffffffffff168773ffffffffffffffffffffffffffffffffffffffff161415612a2b57600080fd5b60008610158015612a5c57507fffffffffffffffffffffffffffffffffffffffffffffffffffffffffffffffff8611155b612a6557600080fd5b6000600460008973ffffffffffffffffffffffffffffffffffffffff1673ffffffffffffffffffffffffffffffffffffffff1681526020019081526020016000208054905011612ab457600080fd5b60004290506000612ac489613265565b9050612ace613856565b60008090505b82811015612e9357600460008c73ffffffffffffffffffffffffffffffffffffffff1673ffffffffffffffffffffffffffffffffffffffff1681526020019081526020016000208181548110612b2657fe5b90600052602060002090600602016040518060c0016040529081600082018054600181600116156101000203166002900480601f016020809104026020016040519081016040528092919081815260200182805460018160011615610100020316600290048015612bd85780601f10612bad57610100808354040283529160200191612bd8565b820191906000526020600020905b815481529060010190602001808311612bbb57829003601f168201915b50505050508152602001600182018054600181600116156101000203166002900480601f016020809104026020016040519081016040528092919081815260200182805460018160011615610100020316600290048015612c7a5780601f10612c4f57610100808354040283529160200191612c7a565b820191906000526020600020905b815481529060010190602001808311612c5d57829003601f168201915b50505050508152602001600282018054600181600116156101000203166002900480601f016020809104026020016040519081016040528092919081815260200182805460018160011615610100020316600290048015612d1c5780601f10612cf157610100808354040283529160200191612d1c565b820191906000526020600020905b815481529060010190602001808311612cff57829003601f168201915b50505050508152602001600382018054600181600116156101000203166002900480601f016020809104026020016040519081016040528092919081815260200182805460018160011615610100020316600290048015612dbe5780601f10612d9357610100808354040283529160200191612dbe565b820191906000526020600020905b815481529060010190602001808311612da157829003601f168201915b50505050508152602001600482018054600181600116156101000203166002900480601f016020809104026020016040519081016040528092919081815260200182805460018160011615610100020316600290048015612e605780601f10612e3557610100808354040283529160200191612e60565b820191906000526020600020905b815481529060010190602001808311612e4357829003601f168201915b505050505081526020016005820154815250509150898260a001511415612e8657612e93565b8080600101915050612ad4565b503373ffffffffffffffffffffffffffffffffffffffff168a73ffffffffffffffffffffffffffffffffffffffff167fec95aa37f5ff4f1e52a5333f61229ce376a04a63d4ccdfae6678ef305b97f232836000015184602001518560400151866060015187608001518860a001518b60405180806020018060200180602001806020018060200188815260200187815260200186810386528d818151815260200191508051906020019080838360005b83811015612f5e578082015181840152602081019050612f43565b50505050905090810190601f168015612f8b5780820380516001836020036101000a031916815260200191505b5086810385528c818151815260200191508051906020019080838360005b83811015612fc4578082015181840152602081019050612fa9565b50505050905090810190601f168015612ff15780820380516001836020036101000a031916815260200191505b5086810384528b818151815260200191508051906020019080838360005b8381101561302a57808201518184015260208101905061300f565b50505050905090810190601f1680156130575780820380516001836020036101000a031916815260200191505b5086810383528a818151815260200191508051906020019080838360005b83811015613090578082015181840152602081019050613075565b50505050905090810190601f1680156130bd5780820380516001836020036101000a031916815260200191505b50868103825289818151815260200191508051906020019080838360005b838110156130f65780820151818401526020810190506130db565b50505050905090810190601f1680156131235780820380516001836020036101000a031916815260200191505b509c5050505050505050505050505060405180910390a380600001519750806020015196508060400151955080606001519450806080015193505050509295509295909350565b600061318082600161318790919063ffffffff16565b9050919050565b60008073ffffffffffffffffffffffffffffffffffffffff168273ffffffffffffffffffffffffffffffffffffffff16141561320e576040517f08c379a00000000000000000000000000000000000000000000000000000000081526004018080602001828103825260228152602001806139806022913960400191505060405180910390fd5b8260000160008373ffffffffffffffffffffffffffffffffffffffff1673ffffffffffffffffffffffffffffffffffffffff16815260200190815260200160002060009054906101000a900460ff16905092915050565b6000600560009054906101000a900460ff161561328157600080fd5b600073ffffffffffffffffffffffffffffffffffffffff168273ffffffffffffffffffffffffffffffffffffffff1614156132bb57600080fd5b600460008373ffffffffffffffffffffffffffffffffffffffff1673ffffffffffffffffffffffffffffffffffffffff168152602001908152602001600020805490509050919050565b61331981600161367690919063ffffffff16565b3373ffffffffffffffffffffffffffffffffffffffff168173ffffffffffffffffffffffffffffffffffffffff167fb35968fdda9034197de288afbe8a2947dedade83d7dbc0de3e340d4f62ce64dc60405160405180910390a350565b61338a81600361373390919063ffffffff16565b3373ffffffffffffffffffffffffffffffffffffffff168173ffffffffffffffffffffffffffffffffffffffff167f7fef988ea6e2f03c1f9fb16df333b2a7911dfb096f5c563866713c1c9517ec7060405160405180910390a350565b6133fb81600261373390919063ffffffff16565b3373ffffffffffffffffffffffffffffffffffffffff168173ffffffffffffffffffffffffffffffffffffffff167ff6dfb9f71429364456283a1521c30cc400d799d7b381d7ce164687f11c18dbaf60405160405180910390a350565b61346c81600061373390919063ffffffff16565b3373ffffffffffffffffffffffffffffffffffffffff168173ffffffffffffffffffffffffffffffffffffffff167fbf3f493c772c8c283fd124432c2d0f539ab343faa04258fe88e52912d36b102b60405160405180910390a350565b6134dd81600261367690919063ffffffff16565b3373ffffffffffffffffffffffffffffffffffffffff168173ffffffffffffffffffffffffffffffffffffffff167fd00481c3fc5867ec74704c9c99334b8d53c7735c947bdcb6cbebcae6740ed94060405160405180910390a350565b61354e81600061367690919063ffffffff16565b8073ffffffffffffffffffffffffffffffffffffffff167f583e7032182b053f2bcd5e3ac78021a3c8d321735043ee84032742c9a6528afd60405160405180910390a250565b6135a881600161373390919063ffffffff16565b3373ffffffffffffffffffffffffffffffffffffffff168173ffffffffffffffffffffffffffffffffffffffff167f93b0ab94930bbad064296971ea5e731f84ae511662781bcaf28543ab9042368a60405160405180910390a350565b61361981600361367690919063ffffffff16565b3373ffffffffffffffffffffffffffffffffffffffff168173ffffffffffffffffffffffffffffffffffffffff167f83bb2e314d2b42b828b2082c5f08a3b9162d6322fe9b8bdaa47dc3d26ce183af60405160405180910390a350565b6136808282613187565b6136d5576040517f08c379a000000000000000000000000000000000000000000000000000000000815260040180806020018281038252602181526020018061395f6021913960400191505060405180910390fd5b60008260000160008373ffffffffffffffffffffffffffffffffffffffff1673ffffffffffffffffffffffffffffffffffffffff16815260200190815260200160002060006101000a81548160ff0219169083151502179055505050565b61373d8282613187565b156137b0576040517f08c379a000000000000000000000000000000000000000000000000000000000815260040180806020018281038252601f8152602001807f526f6c65733a206163636f756e7420616c72656164792068617320726f6c650081525060200191505060405180910390fd5b60018260000160008373ffffffffffffffffffffffffffffffffffffffff1673ffffffffffffffffffffffffffffffffffffffff16815260200190815260200160002060006101000a81548160ff0219169083151502179055505050565b50805460018160011615610100020316600290046000825580601f106138345750613853565b601f016020900490600052602060002090810190613852919061390c565b5b50565b6040518060c001604052806060815260200160608152602001606081526020016060815260200160608152602001600081525090565b828054600181600116156101000203166002900490600052602060002090601f016020900481019282601f106138cd57805160ff19168380011785556138fb565b828001600101855582156138fb579182015b828111156138fa5782518255916020019190600101906138df565b5b509050613908919061390c565b5090565b61392e91905b8082111561392a576000816000905550600101613912565b5090565b9056fe4e6f207365206375656e746120636f6e20656c20726f6c2065737065636966696361646f284dc3a96469636f29526f6c65733a206163636f756e7420646f6573206e6f74206861766520726f6c65526f6c65733a206163636f756e7420697320746865207a65726f20616464726573734e6f207365206375656e746120636f6e20656c20726f6c2065737065636966696361646f2841646d696e29a265627a7a72315820f897145607dfa5d22f2fbb7c89e95be1d448c4c7aecf9feffc377ed90a3a8f6b64736f6c63430005100032526f6c65733a206163636f756e7420697320746865207a65726f2061646472657373",
  "source": "pragma solidity 0.5.16;\r\nimport \"./acceso/UserRoles.sol\";\r\n\r\n/**\r\n * @title Smart Contract de Registro de mdicos.\r\n * @author Francisco Alemn\r\n * @notice Este contrato representa el registro de los mdicos.\r\n * @dev El contrato hereda las funciones del contrato de roles\r\n */\r\n\r\ncontract MedicsRegister is UserRoles {\r\n\r\n     /**\r\n     * @title Representan los datos del mdico.\r\n     */\r\n    struct Medico {\r\n        string name;\r\n        string specialty;\r\n        string cedula;\r\n        string email;\r\n        string hashPicture;\r\n        uint256 date;\r\n    }\r\n\r\n    /**\r\n     * @notice Mapea la direccin al mdico..\r\n     */\r\n    mapping (address => Medico[]) public fileToMedic;\r\n\r\n     /**\r\n     * @notice Patrn de switch para encender/apagar\r\n     */\r\n    bool private stopped = false;\r\n\r\n     /**\r\n     * @dev Eventos que sern registrados en la blockchain.\r\n     */\r\n    event MedicsAdded(\r\n        address indexed _medic,\r\n        address indexed _admin,\r\n        string _name,\r\n        string _specialty,\r\n        string _cedula,\r\n        string _email,\r\n        string _hashPicture,\r\n        uint256 _date);\r\n\r\n    event MedicsUpdate(\r\n        address indexed _medic,\r\n        address indexed _admin,\r\n        string _name,\r\n        string _specialty,\r\n        string _cedula,\r\n        string _email,\r\n        string _hashPicture,\r\n        uint256 _date,\r\n        uint256 _queryDate);\r\n\r\n    event MedicsRetrieve(\r\n        address indexed _medic,\r\n        address indexed _admin,\r\n        string _name,\r\n        string _specialty,\r\n        string _cedula,\r\n        string  _email,\r\n        string  _hashPicture,\r\n        uint256 _date,\r\n        uint256 _queryDate);\r\n\r\n    event MedicsDelete(\r\n        address indexed _medic,\r\n        address indexed _admin,\r\n        string _hashPicture,\r\n        uint256 _date);\r\n\r\n    /**\r\n    * @dev Indica que se ha puesto el contrato en pausa.\r\n    * @param _admin Un administrador\r\n    * @param _stop Indica cuando hay una pausa o una reanudacin.\r\n    */\r\n    event LogSwitchStop(\r\n        address indexed _admin,\r\n        bool _stop\r\n    );\r\n\r\n    /**\r\n    * @dev Previene de ejecucin del contrato\r\n    */\r\n    modifier nonlyStopped {\r\n        require(!stopped);\r\n        _;\r\n    }\r\n\r\n    /**\r\n    * @notice Pausar el contrato\r\n    * Se detiene el contrato bajo ciertas condiciones.\r\n    * Sera til cuando nuevos errores sean descubiertos.\r\n    * @param _stop Switch del contrado de encendido/apagado\r\n    */\r\n    function emergencyStop(bool _stop) public onlyAdmin {\r\n        stopped = _stop;\r\n        emit LogSwitchStop(msg.sender, _stop);\r\n    }\r\n\r\n     /**\r\n   * @dev Funcin para agregar un mdico. Esta funcin es realizada por un administrador.\r\n   * @param _account a\r\n   * @param _name a\r\n   * @param _specialty a\r\n   * @param _cedula a\r\n   * @param _email a\r\n   * @param _hashPicture a\r\n   * @return _success a\r\n   */\r\n    function addMedics(\r\n        address _account,\r\n        string memory _name,\r\n        string memory _specialty,\r\n        string memory _cedula,\r\n        string memory _email,\r\n        string memory _hashPicture)\r\n    public nonlyStopped onlyAdmin returns (bool _success) {\r\n        require(_account != 0x0000000000000000000000000000000000000000);\r\n        require(bytes(_name).length < 128);\r\n        require(bytes(_specialty).length < 30);\r\n        require(bytes(_cedula).length < 30);\r\n        require(bytes(_email).length < 30);\r\n        require(bytes(_hashPicture).length < 30);\r\n\r\n        uint256 _date = now;\r\n        Medico memory medico = Medico(\r\n            _name,\r\n            _specialty,\r\n            _cedula,\r\n            _email,\r\n            _hashPicture,\r\n            _date\r\n        );\r\n\r\n        fileToMedic[_account].push(medico);\r\n\r\n        emit MedicsAdded(\r\n            _account,\r\n            msg.sender,\r\n            _name,\r\n            _specialty,\r\n            _cedula,\r\n            _email,\r\n            _hashPicture,\r\n            _date\r\n        );\r\n        _success = true;\r\n    }\r\n\r\n    /**\r\n    * @notice Returns el Medico en el ndice del propietario de la direccin.\r\n    * @dev Controlado por el switch\r\n    * @param _account Cuenta del mdico\r\n    * @return a\r\n    */\r\n    function updateMedics(\r\n        address _account,\r\n        string memory _name,\r\n        string memory _specialty,\r\n        string memory _cedula,\r\n        string memory _email,\r\n        string memory _hashPicture,\r\n        uint256 _date)\r\n    public nonlyStopped onlyAdmin returns (bool _success) {\r\n        require(_account != 0x0000000000000000000000000000000000000000);\r\n        require(bytes(_name).length < 128);\r\n        require(bytes(_specialty).length < 30);\r\n        require(bytes(_cedula).length < 30);\r\n        require(bytes(_email).length < 30);\r\n        require(bytes(_hashPicture).length < 30);\r\n        require(_date >= 0 && _date <= 2**256 - 1);\r\n        require(fileToMedic[_account].length > 0);\r\n\r\n        uint256 _queryDate = now;\r\n        uint256 len = getMedicsCount(_account);\r\n        Medico memory medico;\r\n        for (uint256 i = 0; i < len; i++) {\r\n            medico = fileToMedic[_account][i];\r\n            if (medico.date == _date) {\r\n                break;\r\n            }\r\n        }\r\n\r\n        medico.name = _name;\r\n        medico.specialty = _specialty;\r\n        medico.cedula = _cedula;\r\n        medico.email = _email;\r\n        medico.hashPicture = _hashPicture;\r\n        medico.date = _date;\r\n\r\n        emit MedicsUpdate(\r\n            _account,\r\n            msg.sender,\r\n            medico.name,\r\n            medico.specialty,\r\n            medico.cedula,\r\n            medico.email,\r\n            medico.hashPicture,\r\n            medico.date,\r\n            _queryDate\r\n        );\r\n        _success = true;\r\n    }\r\n\r\n    /**\r\n    * @notice Returns el Medico en el ndice del propietario de la direccin.\r\n    * @dev Controlado por el switch\r\n    * @param _account The owner address\r\n    * @return _date The uploaded timestamp\r\n    */\r\n    function viewMedics(address _account, uint256 _date) public nonlyStopped onlyAdmin returns (\r\n        string memory name,\r\n        string memory specialty,\r\n        string memory cedula,\r\n        string memory email,\r\n        string memory hashPicture) {\r\n        if (isAdmin(msg.sender)) {\r\n            require(msg.sender != _account);\r\n        }\r\n        require(_account != 0x0000000000000000000000000000000000000000);\r\n        require(_date >= 0 && _date <= 2**256 - 1);\r\n        require(fileToMedic[_account].length > 0);\r\n\r\n        uint256 _queryDate = now;\r\n        uint256 len = getMedicsCount(_account);\r\n        Medico memory medico;\r\n\r\n        for (uint256 i = 0; i < len; i++) {\r\n            medico = fileToMedic[_account][i];\r\n            if (medico.date == _date) {\r\n                break;\r\n            }\r\n        }\r\n\r\n        emit MedicsRetrieve(\r\n            _account,\r\n            msg.sender,\r\n            medico.name,\r\n            medico.specialty,\r\n            medico.cedula,\r\n            medico.email,\r\n            medico.hashPicture,\r\n            medico.date,\r\n            _queryDate\r\n        );\r\n        name = medico.name;\r\n        specialty = medico.specialty;\r\n        cedula = medico.cedula;\r\n        email = medico.email;\r\n        hashPicture = medico.hashPicture;\r\n    }\r\n\r\n    /**\r\n    * @notice Returns el medico en el ndice del propietario de la direccin.\r\n    * @dev Controlado por el switch\r\n    * @param _account The owner address\r\n    * @return _date The uploaded timestamp\r\n    */\r\n    function deleteMedics(address _account, uint256 _date) public nonlyStopped onlyAdmin returns (bool _success) {\r\n        require(_account != 0x0000000000000000000000000000000000000000);\r\n        require(_date >= 0 && _date <= 2**256 - 1);\r\n        require(fileToMedic[_account].length > 0);\r\n\r\n        uint256 _queryDate = now;\r\n        uint256 len = getMedicsCount(_account);\r\n\r\n        for (uint256 i = 0; i < len; i++) {\r\n            if (fileToMedic[_account][i].date == _date) {\r\n                emit MedicsDelete(\r\n                    _account,\r\n                    msg.sender,\r\n                    fileToMedic[_account][i].hashPicture,\r\n                    _queryDate\r\n                );\r\n                delete fileToMedic[_account][i];\r\n                break;\r\n            }\r\n        }\r\n        _success = true;\r\n    }\r\n\r\n    /**\r\n    * @notice Retorna el numero de medicos de esa direccion\r\n    * @dev Controlado por el switch\r\n    * @param _medic El dueo de la direccin\r\n    * @return Retorna el mdico\r\n    */\r\n    function getMedicsCount(address _medic) internal view nonlyStopped returns (uint256) {\r\n        require(_medic != 0x0000000000000000000000000000000000000000);\r\n        return fileToMedic[_medic].length;\r\n    }\r\n}\r\n",
  "sourcePath": "D:\\Mega-AC1982\\Develop\\Angular\\MedicalHistory-BlockChainProject\\frontend\\truffle\\contracts\\MedicsRegister.sol",
  "compiler": {
    "name": "solc",
    "version": "0.5.16+commit.9c3226ce.Emscripten.clang"
  },
  "schemaVersion": "3.1.0",
  "updatedAt": "2020-04-29T01:07:47.895Z",
  "devdoc": {
    "author": "Francisco Alemn",
    "details": "El contrato hereda las funciones del contrato de roles",
    "methods": {
      "addAdmin(address)": {
        "details": "Funcin pblica para asignar admin",
        "params": {
          "account": "Cuenta que ser asignada como admin"
        }
      },
      "addAssistant(address)": {
        "details": "Funcin pblica para asignar asistente",
        "params": {
          "account": "Cuenta que ser asignada como asistente"
        }
      },
      "addMedic(address)": {
        "details": "Funcin pblica para asignar mdico",
        "params": {
          "account": "Cuenta que ser asignada como mdico"
        }
      },
      "addMedics(address,string,string,string,string,string)": {
        "details": "Funcin para agregar un mdico. Esta funcin es realizada por un administrador.",
        "params": {
          "_account": "a",
          "_cedula": "a",
          "_email": "a",
          "_hashPicture": "a",
          "_name": "a",
          "_specialty": "a"
        },
        "return": "_success a"
      },
      "addPatient(address)": {
        "details": "Funcin pblica para asignar paciente",
        "params": {
          "account": "Cuenta que ser asignada como paciente"
        }
      },
      "deleteMedics(address,uint256)": {
        "details": "Controlado por el switch",
        "params": {
          "_account": "The owner address"
        },
        "return": "_date The uploaded timestamp"
      },
      "emergencyStop(bool)": {
        "params": {
          "_stop": "Switch del contrado de encendido/apagado"
        }
      },
      "isAdmin(address)": {
        "params": {
          "account": "Cuenta donde se validar el rol."
        },
        "return": "true si la cuenta tiene rol de admin"
      },
      "isAssistant(address)": {
        "params": {
          "account": "Cuenta donde se validar el rol."
        },
        "return": "true si la cuenta tiene rol de asistente"
      },
      "isMedic(address)": {
        "params": {
          "account": "Cuenta donde se validar el rol."
        },
        "return": "true si la cuenta tiene rol de mdico"
      },
      "isPatient(address)": {
        "params": {
          "account": "Cuenta donde se validar el rol."
        },
        "return": "true si la cuenta tiene rol de paciente"
      },
      "removeAssistant(address)": {
        "details": "Remover a rol de asistente. Quien invoque al contrato no volver a ser asistente."
      },
      "removeMedic(address)": {
        "details": "Funcin pblica para remover mdico",
        "params": {
          "account": "Cuenta que ser removida de mdico"
        }
      },
      "removePatient(address)": {
        "details": "Remover a rol de paciente. Quien invoque al contrato no volver a ser paciente."
      },
      "renounceAdmin()": {
        "details": "Renunciar a rol de administrador. Quien inque al contrato no volver a ser admin."
      },
      "renounceMedic()": {
        "details": "Renunciar a rol de personal mdico. Quien invoque al contrato no volver a ser mdico."
      },
      "updateMedics(address,string,string,string,string,string,uint256)": {
        "details": "Controlado por el switch",
        "params": {
          "_account": "Cuenta del mdico"
        },
        "return": "a"
      },
      "viewMedics(address,uint256)": {
        "details": "Controlado por el switch",
        "params": {
          "_account": "The owner address"
        },
        "return": "_date The uploaded timestamp"
      }
    },
    "title": "Smart Contract de Registro de mdicos."
  },
  "userdoc": {
    "methods": {
      "deleteMedics(address,uint256)": {
        "notice": "Returns el medico en el ndice del propietario de la direccin."
      },
      "emergencyStop(bool)": {
        "notice": "Pausar el contrato Se detiene el contrato bajo ciertas condiciones. Sera til cuando nuevos errores sean descubiertos."
      },
      "updateMedics(address,string,string,string,string,string,uint256)": {
        "notice": "Returns el Medico en el ndice del propietario de la direccin."
      },
      "viewMedics(address,uint256)": {
        "notice": "Returns el Medico en el ndice del propietario de la direccin."
      }
    },
    "notice": "Este contrato representa el registro de los mdicos."
  }
}