{
  "contractName": "PatientDiagnosis",
  "abi": [
    {
      "anonymous": false,
      "inputs": [
        {
          "indexed": true,
          "internalType": "address",
          "name": "newAdm",
          "type": "address"
        },
        {
          "indexed": true,
          "internalType": "address",
          "name": "whoAddedAdm",
          "type": "address"
        }
      ],
      "name": "AdminAdded",
      "type": "event"
    },
    {
      "anonymous": false,
      "inputs": [
        {
          "indexed": true,
          "internalType": "address",
          "name": "accountRen",
          "type": "address"
        }
      ],
      "name": "AdminRenounce",
      "type": "event"
    },
    {
      "anonymous": false,
      "inputs": [
        {
          "indexed": true,
          "internalType": "address",
          "name": "newAssistant",
          "type": "address"
        },
        {
          "indexed": true,
          "internalType": "address",
          "name": "whoAddedAssistant",
          "type": "address"
        }
      ],
      "name": "AssistantAdded",
      "type": "event"
    },
    {
      "anonymous": false,
      "inputs": [
        {
          "indexed": true,
          "internalType": "address",
          "name": "oldAssistant",
          "type": "address"
        },
        {
          "indexed": true,
          "internalType": "address",
          "name": "whoRemovedAssistant",
          "type": "address"
        }
      ],
      "name": "AssistantRemoved",
      "type": "event"
    },
    {
      "anonymous": false,
      "inputs": [
        {
          "indexed": true,
          "internalType": "address",
          "name": "_patient",
          "type": "address"
        },
        {
          "indexed": true,
          "internalType": "address",
          "name": "_medic",
          "type": "address"
        },
        {
          "indexed": false,
          "internalType": "string",
          "name": "_nombre",
          "type": "string"
        },
        {
          "indexed": false,
          "internalType": "string",
          "name": "_aPat",
          "type": "string"
        },
        {
          "indexed": false,
          "internalType": "string",
          "name": "_aMat",
          "type": "string"
        },
        {
          "indexed": false,
          "internalType": "string",
          "name": "_comorb",
          "type": "string"
        },
        {
          "indexed": false,
          "internalType": "uint256",
          "name": "_age",
          "type": "uint256"
        },
        {
          "indexed": false,
          "internalType": "uint256",
          "name": "_weight",
          "type": "uint256"
        },
        {
          "indexed": false,
          "internalType": "string",
          "name": "_diagnostic",
          "type": "string"
        },
        {
          "indexed": false,
          "internalType": "string",
          "name": "_observations",
          "type": "string"
        }
      ],
      "name": "DiagnosisUpdate",
      "type": "event"
    },
    {
      "anonymous": false,
      "inputs": [
        {
          "indexed": true,
          "internalType": "address",
          "name": "_patient",
          "type": "address"
        },
        {
          "indexed": true,
          "internalType": "address",
          "name": "_medic",
          "type": "address"
        },
        {
          "indexed": false,
          "internalType": "uint256",
          "name": "_date",
          "type": "uint256"
        }
      ],
      "name": "DiagnosticDelete",
      "type": "event"
    },
    {
      "anonymous": false,
      "inputs": [
        {
          "indexed": true,
          "internalType": "address",
          "name": "_patient",
          "type": "address"
        },
        {
          "indexed": true,
          "internalType": "address",
          "name": "_medic",
          "type": "address"
        },
        {
          "indexed": false,
          "internalType": "string",
          "name": "_nombre",
          "type": "string"
        },
        {
          "indexed": false,
          "internalType": "string",
          "name": "_aPat",
          "type": "string"
        },
        {
          "indexed": false,
          "internalType": "string",
          "name": "_aMat",
          "type": "string"
        },
        {
          "indexed": false,
          "internalType": "string",
          "name": "_comorb",
          "type": "string"
        },
        {
          "indexed": false,
          "internalType": "uint256",
          "name": "_age",
          "type": "uint256"
        },
        {
          "indexed": false,
          "internalType": "uint256",
          "name": "_weight",
          "type": "uint256"
        },
        {
          "indexed": false,
          "internalType": "string",
          "name": "_diagnostic",
          "type": "string"
        },
        {
          "indexed": false,
          "internalType": "string",
          "name": "_observations",
          "type": "string"
        }
      ],
      "name": "DiagnosticRetrieve",
      "type": "event"
    },
    {
      "anonymous": false,
      "inputs": [
        {
          "indexed": true,
          "internalType": "address",
          "name": "_patient",
          "type": "address"
        },
        {
          "indexed": true,
          "internalType": "address",
          "name": "_medic",
          "type": "address"
        },
        {
          "indexed": false,
          "internalType": "string",
          "name": "_nombre",
          "type": "string"
        },
        {
          "indexed": false,
          "internalType": "string",
          "name": "_aPat",
          "type": "string"
        },
        {
          "indexed": false,
          "internalType": "string",
          "name": "_aMat",
          "type": "string"
        },
        {
          "indexed": false,
          "internalType": "string",
          "name": "_comorb",
          "type": "string"
        },
        {
          "indexed": false,
          "internalType": "uint256",
          "name": "_age",
          "type": "uint256"
        },
        {
          "indexed": false,
          "internalType": "uint256",
          "name": "_weight",
          "type": "uint256"
        },
        {
          "indexed": false,
          "internalType": "string",
          "name": "_diagnostic",
          "type": "string"
        },
        {
          "indexed": false,
          "internalType": "string",
          "name": "_observations",
          "type": "string"
        },
        {
          "indexed": false,
          "internalType": "uint256",
          "name": "_date",
          "type": "uint256"
        }
      ],
      "name": "DiagnosticdAdded",
      "type": "event"
    },
    {
      "anonymous": false,
      "inputs": [
        {
          "indexed": true,
          "internalType": "address",
          "name": "_admin",
          "type": "address"
        },
        {
          "indexed": false,
          "internalType": "bool",
          "name": "_stop",
          "type": "bool"
        }
      ],
      "name": "LogSwitchStop",
      "type": "event"
    },
    {
      "anonymous": false,
      "inputs": [
        {
          "indexed": true,
          "internalType": "address",
          "name": "newMed",
          "type": "address"
        },
        {
          "indexed": true,
          "internalType": "address",
          "name": "whoAddedMed",
          "type": "address"
        }
      ],
      "name": "MedicAdded",
      "type": "event"
    },
    {
      "anonymous": false,
      "inputs": [
        {
          "indexed": true,
          "internalType": "address",
          "name": "oldMed",
          "type": "address"
        },
        {
          "indexed": true,
          "internalType": "address",
          "name": "whoRemovedMed",
          "type": "address"
        }
      ],
      "name": "MedicRemoved",
      "type": "event"
    },
    {
      "anonymous": false,
      "inputs": [
        {
          "indexed": true,
          "internalType": "address",
          "name": "medRen",
          "type": "address"
        }
      ],
      "name": "MedicRenounce",
      "type": "event"
    },
    {
      "anonymous": false,
      "inputs": [
        {
          "indexed": true,
          "internalType": "address",
          "name": "newPat",
          "type": "address"
        },
        {
          "indexed": true,
          "internalType": "address",
          "name": "whoAddedPat",
          "type": "address"
        }
      ],
      "name": "PatientAdded",
      "type": "event"
    },
    {
      "anonymous": false,
      "inputs": [
        {
          "indexed": true,
          "internalType": "address",
          "name": "oldPat",
          "type": "address"
        },
        {
          "indexed": true,
          "internalType": "address",
          "name": "whoRemovedPat",
          "type": "address"
        }
      ],
      "name": "PatientRemoved",
      "type": "event"
    },
    {
      "anonymous": false,
      "inputs": [
        {
          "indexed": true,
          "internalType": "address",
          "name": "_patient",
          "type": "address"
        },
        {
          "indexed": true,
          "internalType": "address",
          "name": "_medic",
          "type": "address"
        },
        {
          "indexed": false,
          "internalType": "string",
          "name": "_ipfsHash",
          "type": "string"
        }
      ],
      "name": "RecordAdded",
      "type": "event"
    },
    {
      "anonymous": false,
      "inputs": [
        {
          "indexed": true,
          "internalType": "address",
          "name": "_patient",
          "type": "address"
        },
        {
          "indexed": true,
          "internalType": "address",
          "name": "_medic",
          "type": "address"
        },
        {
          "indexed": false,
          "internalType": "string",
          "name": "_ipfsHash",
          "type": "string"
        }
      ],
      "name": "RecordDelete",
      "type": "event"
    },
    {
      "anonymous": false,
      "inputs": [
        {
          "indexed": true,
          "internalType": "address",
          "name": "_patient",
          "type": "address"
        },
        {
          "indexed": true,
          "internalType": "address",
          "name": "_medic",
          "type": "address"
        },
        {
          "indexed": false,
          "internalType": "string",
          "name": "_descript",
          "type": "string"
        },
        {
          "indexed": false,
          "internalType": "uint256",
          "name": "_uploadDate",
          "type": "uint256"
        }
      ],
      "name": "RecordRetrieve",
      "type": "event"
    },
    {
      "anonymous": false,
      "inputs": [
        {
          "indexed": true,
          "internalType": "address",
          "name": "_patient",
          "type": "address"
        },
        {
          "indexed": true,
          "internalType": "address",
          "name": "_medic",
          "type": "address"
        },
        {
          "indexed": false,
          "internalType": "string",
          "name": "_descript",
          "type": "string"
        }
      ],
      "name": "RecordUpdate",
      "type": "event"
    },
    {
      "payable": false,
      "stateMutability": "nonpayable",
      "type": "fallback"
    },
    {
      "constant": false,
      "inputs": [
        {
          "internalType": "address",
          "name": "account",
          "type": "address"
        }
      ],
      "name": "addAdmin",
      "outputs": [],
      "payable": false,
      "stateMutability": "nonpayable",
      "type": "function"
    },
    {
      "constant": false,
      "inputs": [
        {
          "internalType": "address",
          "name": "account",
          "type": "address"
        }
      ],
      "name": "addAssistant",
      "outputs": [],
      "payable": false,
      "stateMutability": "nonpayable",
      "type": "function"
    },
    {
      "constant": false,
      "inputs": [
        {
          "internalType": "address",
          "name": "account",
          "type": "address"
        }
      ],
      "name": "addMedic",
      "outputs": [],
      "payable": false,
      "stateMutability": "nonpayable",
      "type": "function"
    },
    {
      "constant": false,
      "inputs": [
        {
          "internalType": "address",
          "name": "account",
          "type": "address"
        }
      ],
      "name": "addPatient",
      "outputs": [],
      "payable": false,
      "stateMutability": "nonpayable",
      "type": "function"
    },
    {
      "constant": false,
      "inputs": [
        {
          "internalType": "address",
          "name": "_account",
          "type": "address"
        },
        {
          "internalType": "string",
          "name": "_descript",
          "type": "string"
        },
        {
          "internalType": "string",
          "name": "_ipfsHash",
          "type": "string"
        }
      ],
      "name": "addRecord",
      "outputs": [
        {
          "internalType": "bool",
          "name": "_success",
          "type": "bool"
        }
      ],
      "payable": false,
      "stateMutability": "nonpayable",
      "type": "function"
    },
    {
      "constant": false,
      "inputs": [
        {
          "internalType": "address",
          "name": "_account",
          "type": "address"
        },
        {
          "internalType": "string",
          "name": "_ipfsHash",
          "type": "string"
        }
      ],
      "name": "deleteRecord",
      "outputs": [
        {
          "internalType": "bool",
          "name": "_success",
          "type": "bool"
        }
      ],
      "payable": false,
      "stateMutability": "nonpayable",
      "type": "function"
    },
    {
      "constant": true,
      "inputs": [
        {
          "internalType": "address",
          "name": "",
          "type": "address"
        },
        {
          "internalType": "uint256",
          "name": "",
          "type": "uint256"
        }
      ],
      "name": "fileToPatientDiagnosis",
      "outputs": [
        {
          "internalType": "string",
          "name": "nombre",
          "type": "string"
        },
        {
          "internalType": "string",
          "name": "aPat",
          "type": "string"
        },
        {
          "internalType": "string",
          "name": "aMat",
          "type": "string"
        },
        {
          "internalType": "string",
          "name": "comorb",
          "type": "string"
        },
        {
          "internalType": "uint256",
          "name": "age",
          "type": "uint256"
        },
        {
          "internalType": "uint256",
          "name": "weight",
          "type": "uint256"
        },
        {
          "internalType": "string",
          "name": "diagnostic",
          "type": "string"
        },
        {
          "internalType": "string",
          "name": "observations",
          "type": "string"
        }
      ],
      "payable": false,
      "stateMutability": "view",
      "type": "function"
    },
    {
      "constant": true,
      "inputs": [
        {
          "internalType": "address",
          "name": "account",
          "type": "address"
        }
      ],
      "name": "isAdmin",
      "outputs": [
        {
          "internalType": "bool",
          "name": "",
          "type": "bool"
        }
      ],
      "payable": false,
      "stateMutability": "view",
      "type": "function"
    },
    {
      "constant": true,
      "inputs": [
        {
          "internalType": "address",
          "name": "account",
          "type": "address"
        }
      ],
      "name": "isAssistant",
      "outputs": [
        {
          "internalType": "bool",
          "name": "",
          "type": "bool"
        }
      ],
      "payable": false,
      "stateMutability": "view",
      "type": "function"
    },
    {
      "constant": true,
      "inputs": [
        {
          "internalType": "address",
          "name": "account",
          "type": "address"
        }
      ],
      "name": "isMedic",
      "outputs": [
        {
          "internalType": "bool",
          "name": "",
          "type": "bool"
        }
      ],
      "payable": false,
      "stateMutability": "view",
      "type": "function"
    },
    {
      "constant": true,
      "inputs": [
        {
          "internalType": "address",
          "name": "account",
          "type": "address"
        }
      ],
      "name": "isPatient",
      "outputs": [
        {
          "internalType": "bool",
          "name": "",
          "type": "bool"
        }
      ],
      "payable": false,
      "stateMutability": "view",
      "type": "function"
    },
    {
      "constant": false,
      "inputs": [
        {
          "internalType": "address",
          "name": "account",
          "type": "address"
        }
      ],
      "name": "removeAssistant",
      "outputs": [],
      "payable": false,
      "stateMutability": "nonpayable",
      "type": "function"
    },
    {
      "constant": false,
      "inputs": [
        {
          "internalType": "address",
          "name": "account",
          "type": "address"
        }
      ],
      "name": "removeMedic",
      "outputs": [],
      "payable": false,
      "stateMutability": "nonpayable",
      "type": "function"
    },
    {
      "constant": false,
      "inputs": [
        {
          "internalType": "address",
          "name": "account",
          "type": "address"
        }
      ],
      "name": "removePatient",
      "outputs": [],
      "payable": false,
      "stateMutability": "nonpayable",
      "type": "function"
    },
    {
      "constant": false,
      "inputs": [],
      "name": "renounceAdmin",
      "outputs": [],
      "payable": false,
      "stateMutability": "nonpayable",
      "type": "function"
    },
    {
      "constant": false,
      "inputs": [],
      "name": "renounceMedic",
      "outputs": [],
      "payable": false,
      "stateMutability": "nonpayable",
      "type": "function"
    },
    {
      "constant": false,
      "inputs": [
        {
          "internalType": "address",
          "name": "_account",
          "type": "address"
        },
        {
          "internalType": "string",
          "name": "_descript",
          "type": "string"
        },
        {
          "internalType": "string",
          "name": "_ipfsHash",
          "type": "string"
        }
      ],
      "name": "updateRecord",
      "outputs": [
        {
          "internalType": "bool",
          "name": "_success",
          "type": "bool"
        }
      ],
      "payable": false,
      "stateMutability": "nonpayable",
      "type": "function"
    },
    {
      "constant": false,
      "inputs": [
        {
          "internalType": "address",
          "name": "_account",
          "type": "address"
        },
        {
          "internalType": "string",
          "name": "_ipfsHash",
          "type": "string"
        }
      ],
      "name": "viewRecords",
      "outputs": [
        {
          "internalType": "string",
          "name": "_descript",
          "type": "string"
        },
        {
          "internalType": "uint256",
          "name": "_uploadDate",
          "type": "uint256"
        }
      ],
      "payable": false,
      "stateMutability": "nonpayable",
      "type": "function"
    },
    {
      "constant": false,
      "inputs": [
        {
          "internalType": "bool",
          "name": "_stop",
          "type": "bool"
        }
      ],
      "name": "emergencyStop",
      "outputs": [],
      "payable": false,
      "stateMutability": "nonpayable",
      "type": "function"
    },
    {
      "constant": true,
      "inputs": [
        {
          "internalType": "address",
          "name": "_account",
          "type": "address"
        },
        {
          "internalType": "uint256",
          "name": "_timeStamp",
          "type": "uint256"
        }
      ],
      "name": "patientDiagnosis",
      "outputs": [
        {
          "components": [
            {
              "internalType": "string",
              "name": "nombre",
              "type": "string"
            },
            {
              "internalType": "string",
              "name": "aPat",
              "type": "string"
            },
            {
              "internalType": "string",
              "name": "aMat",
              "type": "string"
            },
            {
              "internalType": "string",
              "name": "comorb",
              "type": "string"
            },
            {
              "internalType": "uint256",
              "name": "age",
              "type": "uint256"
            },
            {
              "internalType": "uint256",
              "name": "weight",
              "type": "uint256"
            },
            {
              "internalType": "string",
              "name": "diagnostic",
              "type": "string"
            },
            {
              "internalType": "string",
              "name": "observations",
              "type": "string"
            },
            {
              "internalType": "string[]",
              "name": "estudio",
              "type": "string[]"
            }
          ],
          "internalType": "struct PatientDiagnosis.Diagnostico",
          "name": "",
          "type": "tuple"
        }
      ],
      "payable": false,
      "stateMutability": "view",
      "type": "function"
    },
    {
      "constant": false,
      "inputs": [
        {
          "internalType": "address",
          "name": "_account",
          "type": "address"
        },
        {
          "internalType": "string",
          "name": "_nombre",
          "type": "string"
        },
        {
          "internalType": "string",
          "name": "_aPat",
          "type": "string"
        },
        {
          "internalType": "string",
          "name": "_aMat",
          "type": "string"
        },
        {
          "internalType": "string",
          "name": "_comorb",
          "type": "string"
        },
        {
          "internalType": "uint8",
          "name": "_age",
          "type": "uint8"
        },
        {
          "internalType": "uint8",
          "name": "_weight",
          "type": "uint8"
        },
        {
          "internalType": "string",
          "name": "_diagnostic",
          "type": "string"
        },
        {
          "internalType": "string",
          "name": "_observations",
          "type": "string"
        },
        {
          "internalType": "string[]",
          "name": "_estudio",
          "type": "string[]"
        }
      ],
      "name": "addDiagnostic",
      "outputs": [
        {
          "internalType": "bool",
          "name": "_success",
          "type": "bool"
        }
      ],
      "payable": false,
      "stateMutability": "nonpayable",
      "type": "function"
    },
    {
      "constant": false,
      "inputs": [
        {
          "internalType": "address",
          "name": "_account",
          "type": "address"
        },
        {
          "internalType": "string",
          "name": "_nombre",
          "type": "string"
        },
        {
          "internalType": "string",
          "name": "_aPat",
          "type": "string"
        },
        {
          "internalType": "string",
          "name": "_aMat",
          "type": "string"
        },
        {
          "internalType": "string",
          "name": "_comorb",
          "type": "string"
        },
        {
          "internalType": "uint256",
          "name": "_age",
          "type": "uint256"
        },
        {
          "internalType": "uint256",
          "name": "_weight",
          "type": "uint256"
        },
        {
          "internalType": "string",
          "name": "_diagnostic",
          "type": "string"
        },
        {
          "internalType": "string",
          "name": "_observations",
          "type": "string"
        },
        {
          "internalType": "string[]",
          "name": "_estudio",
          "type": "string[]"
        },
        {
          "internalType": "uint256",
          "name": "_date",
          "type": "uint256"
        }
      ],
      "name": "updateDiagnostic",
      "outputs": [
        {
          "internalType": "bool",
          "name": "_success",
          "type": "bool"
        }
      ],
      "payable": false,
      "stateMutability": "nonpayable",
      "type": "function"
    },
    {
      "constant": false,
      "inputs": [
        {
          "internalType": "address",
          "name": "_account",
          "type": "address"
        },
        {
          "internalType": "uint256",
          "name": "_date",
          "type": "uint256"
        }
      ],
      "name": "viewDiagnostic",
      "outputs": [
        {
          "internalType": "string",
          "name": "_nombre",
          "type": "string"
        },
        {
          "internalType": "string",
          "name": "_aPat",
          "type": "string"
        },
        {
          "internalType": "string",
          "name": "_aMat",
          "type": "string"
        },
        {
          "internalType": "string",
          "name": "_comorb",
          "type": "string"
        },
        {
          "internalType": "uint256",
          "name": "_age",
          "type": "uint256"
        },
        {
          "internalType": "uint256",
          "name": "_weight",
          "type": "uint256"
        },
        {
          "internalType": "string",
          "name": "_diagnostic",
          "type": "string"
        },
        {
          "internalType": "string",
          "name": "_observations",
          "type": "string"
        },
        {
          "internalType": "string[]",
          "name": "_estudio",
          "type": "string[]"
        }
      ],
      "payable": false,
      "stateMutability": "nonpayable",
      "type": "function"
    },
    {
      "constant": false,
      "inputs": [
        {
          "internalType": "address",
          "name": "_account",
          "type": "address"
        },
        {
          "internalType": "uint256",
          "name": "_date",
          "type": "uint256"
        }
      ],
      "name": "deleteDiagnostic",
      "outputs": [
        {
          "internalType": "bool",
          "name": "_success",
          "type": "bool"
        }
      ],
      "payable": false,
      "stateMutability": "nonpayable",
      "type": "function"
    }
  ],
  "bytecode": "0x60806040526000600560006101000a81548160ff0219169083151502179055506000600760006101000a81548160ff0219169083151502179055506200004b336200005160201b60201c565b62000346565b6200006c816000620000c960201b620028551790919060201c565b3373ffffffffffffffffffffffffffffffffffffffff168173ffffffffffffffffffffffffffffffffffffffff167fbf3f493c772c8c283fd124432c2d0f539ab343faa04258fe88e52912d36b102b60405160405180910390a350565b620000db82826200017c60201b60201c565b156200011e576040517f08c379a00000000000000000000000000000000000000000000000000000000081526004016200011590620002f1565b60405180910390fd5b60018260000160008373ffffffffffffffffffffffffffffffffffffffff1673ffffffffffffffffffffffffffffffffffffffff16815260200190815260200160002060006101000a81548160ff0219169083151502179055505050565b60008073ffffffffffffffffffffffffffffffffffffffff168273ffffffffffffffffffffffffffffffffffffffff161415620001f0576040517f08c379a0000000000000000000000000000000000000000000000000000000008152600401620001e79062000313565b60405180910390fd5b8260000160008373ffffffffffffffffffffffffffffffffffffffff1673ffffffffffffffffffffffffffffffffffffffff16815260200190815260200160002060009054906101000a900460ff16905092915050565b600062000256601f8362000335565b91507f526f6c65733a206163636f756e7420616c72656164792068617320726f6c65006000830152602082019050919050565b60006200029860228362000335565b91507f526f6c65733a206163636f756e7420697320746865207a65726f20616464726560008301527f73730000000000000000000000000000000000000000000000000000000000006020830152604082019050919050565b600060208201905081810360008301526200030c8162000247565b9050919050565b600060208201905081810360008301526200032e8162000289565b9050919050565b600082825260208201905092915050565b613d5d80620003566000396000f3fe608060405234801561001057600080fd5b50600436106101585760003560e01c80637d0d6257116100c3578063b8792f0b1161007c578063b8792f0b146103f2578063c6584bb81461040e578063ca62302e1461043e578063d47b41d51461046e578063e67fd0e01461049e578063eae3ef8a146104ce57610158565b80637d0d6257146103205780638bad0c0a1461033c5780638c406f2e146103465780638f9c79ed14610376578063a1f23f19146103a6578063b0397ff8146103d657610158565b80635995fd00116101155780635995fd001461024f5780635c11b70f146102805780635c8b67df146102b05780636d263ceb146102cc57806370480275146102e85780637d01dbc21461030457610158565b80630ac62e021461015a5780631c712b6c146101765780631e7b4621146101ae57806324d7806c146101de57806333dc0abd1461020e5780634e0581f414610218575b005b610174600480360361016f91908101906130c0565b6104fe565b005b610190600480360361018b9190810190613084565b6105b1565b6040516101a599989796959493929190613708565b60405180910390f35b6101c860048036036101c39190810190612d69565b610829565b6040516101d591906136a9565b60405180910390f35b6101f860048036036101f39190810190612c6d565b610a8f565b60405161020591906136a9565b60405180910390f35b610216610aac565b005b610232600480360361022d9190810190613084565b610aff565b6040516102469897969594939291906138ad565b60405180910390f35b61026960048036036102649190810190612c96565b610ee4565b60405161027792919061387d565b60405180910390f35b61029a60048036036102959190810190613084565b611106565b6040516102a79190613a65565b60405180910390f35b6102ca60048036036102c59190810190612c6d565b61163b565b005b6102e660048036036102e19190810190612c6d565b61168f565b005b61030260048036036102fd9190810190612c6d565b6116f3565b005b61031e60048036036103199190810190612c6d565b611747565b005b61033a60048036036103359190810190612c6d565b61179b565b005b6103446117ef565b005b610360600480360361035b9190810190612c96565b6117fa565b60405161036d91906136a9565b60405180910390f35b610390600480360361038b9190810190612c6d565b61194e565b60405161039d91906136a9565b60405180910390f35b6103c060048036036103bb9190810190612cea565b61196b565b6040516103cd91906136a9565b60405180910390f35b6103f060048036036103eb9190810190612c6d565b611b83565b005b61040c60048036036104079190810190612c6d565b611bd7565b005b61042860048036036104239190810190612c6d565b611c2b565b60405161043591906136a9565b60405180910390f35b61045860048036036104539190810190612f01565b611c48565b60405161046591906136a9565b60405180910390f35b61048860048036036104839190810190612cea565b611f92565b60405161049591906136a9565b60405180910390f35b6104b860048036036104b39190810190613084565b61213e565b6040516104c591906136a9565b60405180910390f35b6104e860048036036104e39190810190612c6d565b612358565b6040516104f591906136a9565b60405180910390f35b61050733610a8f565b610546576040517f08c379a000000000000000000000000000000000000000000000000000000000815260040161053d90613a25565b60405180910390fd5b80600760006101000a81548160ff0219169083151502179055503373ffffffffffffffffffffffffffffffffffffffff167f58b15338e6499b2b2827d169f60332c3b4b476fcd06b9a3c7e37afa77c49228e826040516105a691906136a9565b60405180910390a250565b6060806060806000806060806060600760009054906101000a900460ff16156105d957600080fd5b6105e23361194e565b806105f257506105f133612358565b5b610631576040517f08c379a000000000000000000000000000000000000000000000000000000000815260040161062890613a45565b60405180910390fd5b61063a3361194e565b15610678578a73ffffffffffffffffffffffffffffffffffffffff163373ffffffffffffffffffffffffffffffffffffffff161461067757600080fd5b5b61068133612358565b156106c0578a73ffffffffffffffffffffffffffffffffffffffff163373ffffffffffffffffffffffffffffffffffffffff1614156106bf57600080fd5b5b600073ffffffffffffffffffffffffffffffffffffffff168b73ffffffffffffffffffffffffffffffffffffffff1614156106fa57600080fd5b60008a1015801561072b57507fffffffffffffffffffffffffffffffffffffffffffffffffffffffffffffffff8a11155b61073457600080fd5b61073c6128fd565b6107468c8c611106565b90503373ffffffffffffffffffffffffffffffffffffffff168c73ffffffffffffffffffffffffffffffffffffffff167fb1bdf45da452b457a3dba4f78c0f49e6a8ef9281a11b57b00e9895b615de9bd1836000015184602001518560400151866060015187608001518860a001518960c001518a60e001516040516107d39897969594939291906138ad565b60405180910390a380600001519950806020015198508060400151975080606001519650806080015195508060a0015194508060c0015193508060e0015192508061010001519150509295985092959850929598565b6000600760009054906101000a900460ff161561084557600080fd5b61084e33612358565b61088d576040517f08c379a0000000000000000000000000000000000000000000000000000000008152600401610884906139c5565b60405180910390fd5b600073ffffffffffffffffffffffffffffffffffffffff168c73ffffffffffffffffffffffffffffffffffffffff1614156108c757600080fd5b60198b51106108d557600080fd5b60198a51106108e357600080fd5b60198951106108f157600080fd5b61010088511061090057600080fd5b6078871061090d57600080fd5b6102bc861061091b57600080fd5b603285511061092957600080fd5b61020084511061093857600080fd5b6000821015801561096957507fffffffffffffffffffffffffffffffffffffffffffffffffffffffffffffffff8211155b61097257600080fd5b600083511161098057600080fd5b6109886128fd565b6109928d84611106565b90508b81600001819052508a816020018190525089816040018190525088816060018190525087816080018181525050868160a0018181525050858160c00181905250848160e00181905250838161010001819052503373ffffffffffffffffffffffffffffffffffffffff168d73ffffffffffffffffffffffffffffffffffffffff167f0547703b415672550919d03f043e65aa58e12afff471ed9917b0b64d227912e0836000015184602001518560400151866060015187608001518860a001518960c001518a60e00151604051610a739897969594939291906138ad565b60405180910390a360019150509b9a5050505050505050505050565b6000610aa582600061237590919063ffffffff16565b9050919050565b610ab533612358565b610af4576040517f08c379a0000000000000000000000000000000000000000000000000000000008152600401610aeb906139c5565b60405180910390fd5b610afd3361243d565b565b600660205281600052604060002060205280600052604060002060009150915050806000018054600181600116156101000203166002900480601f016020809104026020016040519081016040528092919081815260200182805460018160011615610100020316600290048015610bb85780601f10610b8d57610100808354040283529160200191610bb8565b820191906000526020600020905b815481529060010190602001808311610b9b57829003601f168201915b505050505090806001018054600181600116156101000203166002900480601f016020809104026020016040519081016040528092919081815260200182805460018160011615610100020316600290048015610c565780601f10610c2b57610100808354040283529160200191610c56565b820191906000526020600020905b815481529060010190602001808311610c3957829003601f168201915b505050505090806002018054600181600116156101000203166002900480601f016020809104026020016040519081016040528092919081815260200182805460018160011615610100020316600290048015610cf45780601f10610cc957610100808354040283529160200191610cf4565b820191906000526020600020905b815481529060010190602001808311610cd757829003601f168201915b505050505090806003018054600181600116156101000203166002900480601f016020809104026020016040519081016040528092919081815260200182805460018160011615610100020316600290048015610d925780601f10610d6757610100808354040283529160200191610d92565b820191906000526020600020905b815481529060010190602001808311610d7557829003601f168201915b505050505090806004015490806005015490806006018054600181600116156101000203166002900480601f016020809104026020016040519081016040528092919081815260200182805460018160011615610100020316600290048015610e3c5780601f10610e1157610100808354040283529160200191610e3c565b820191906000526020600020905b815481529060010190602001808311610e1f57829003601f168201915b505050505090806007018054600181600116156101000203166002900480601f016020809104026020016040519081016040528092919081815260200182805460018160011615610100020316600290048015610eda5780601f10610eaf57610100808354040283529160200191610eda565b820191906000526020600020905b815481529060010190602001808311610ebd57829003601f168201915b5050505050905088565b60606000600760009054906101000a900460ff1615610f0257600080fd5b610f0b3361194e565b80610f1b5750610f1a33612358565b5b610f5a576040517f08c379a0000000000000000000000000000000000000000000000000000000008152600401610f5190613a45565b60405180910390fd5b600073ffffffffffffffffffffffffffffffffffffffff168473ffffffffffffffffffffffffffffffffffffffff161415610f9457600080fd5b602e835114610fa257600080fd5b610faa612949565b600484604051610fba9190613692565b9081526020016040518091039020604051806040016040529081600082018054600181600116156101000203166002900480601f01602080910402602001604051908101604052809291908181526020018280546001816001161561010002031660029004801561106c5780601f106110415761010080835404028352916020019161106c565b820191906000526020600020905b81548152906001019060200180831161104f57829003601f168201915b5050505050815260200160018201548152505090503373ffffffffffffffffffffffffffffffffffffffff168573ffffffffffffffffffffffffffffffffffffffff167f4ee0bf4d8ed0ec027f6654b0ba0995ae922f70b4f3bdbc0ff59c0a7dbd5491c6836000015184602001516040516110e8929190613955565b60405180910390a38060000151925080602001519150509250929050565b61110e6128fd565b600660008473ffffffffffffffffffffffffffffffffffffffff1673ffffffffffffffffffffffffffffffffffffffff168152602001908152602001600020600083815260200190815260200160002060405180610120016040529081600082018054600181600116156101000203166002900480601f0160208091040260200160405190810160405280929190818152602001828054600181600116156101000203166002900480156112035780601f106111d857610100808354040283529160200191611203565b820191906000526020600020905b8154815290600101906020018083116111e657829003601f168201915b50505050508152602001600182018054600181600116156101000203166002900480601f0160208091040260200160405190810160405280929190818152602001828054600181600116156101000203166002900480156112a55780601f1061127a576101008083540402835291602001916112a5565b820191906000526020600020905b81548152906001019060200180831161128857829003601f168201915b50505050508152602001600282018054600181600116156101000203166002900480601f0160208091040260200160405190810160405280929190818152602001828054600181600116156101000203166002900480156113475780601f1061131c57610100808354040283529160200191611347565b820191906000526020600020905b81548152906001019060200180831161132a57829003601f168201915b50505050508152602001600382018054600181600116156101000203166002900480601f0160208091040260200160405190810160405280929190818152602001828054600181600116156101000203166002900480156113e95780601f106113be576101008083540402835291602001916113e9565b820191906000526020600020905b8154815290600101906020018083116113cc57829003601f168201915b505050505081526020016004820154815260200160058201548152602001600682018054600181600116156101000203166002900480601f01602080910402602001604051908101604052809291908181526020018280546001816001161561010002031660029004801561149f5780601f106114745761010080835404028352916020019161149f565b820191906000526020600020905b81548152906001019060200180831161148257829003601f168201915b50505050508152602001600782018054600181600116156101000203166002900480601f0160208091040260200160405190810160405280929190818152602001828054600181600116156101000203166002900480156115415780601f1061151657610100808354040283529160200191611541565b820191906000526020600020905b81548152906001019060200180831161152457829003601f168201915b5050505050815260200160088201805480602002602001604051908101604052809291908181526020016000905b8282101561162b578382906000526020600020018054600181600116156101000203166002900480601f0160208091040260200160405190810160405280929190818152602001828054600181600116156101000203166002900480156116175780601f106115ec57610100808354040283529160200191611617565b820191906000526020600020905b8154815290600101906020018083116115fa57829003601f168201915b50505050508152602001906001019061156f565b5050505081525050905092915050565b61164433610a8f565b611683576040517f08c379a000000000000000000000000000000000000000000000000000000000815260040161167a90613a25565b60405180910390fd5b61168c816124ae565b50565b61169833611c2b565b806116a857506116a733612358565b5b6116e7576040517f08c379a00000000000000000000000000000000000000000000000000000000081526004016116de906139a5565b60405180910390fd5b6116f08161251f565b50565b6116fc33610a8f565b61173b576040517f08c379a000000000000000000000000000000000000000000000000000000000815260040161173290613a25565b60405180910390fd5b61174481612590565b50565b61175033610a8f565b61178f576040517f08c379a000000000000000000000000000000000000000000000000000000000815260040161178690613a25565b60405180910390fd5b6117988161243d565b50565b6117a433612358565b6117e3576040517f08c379a00000000000000000000000000000000000000000000000000000000081526004016117da906139c5565b60405180910390fd5b6117ec81612601565b50565b6117f833612672565b565b6000600760009054906101000a900460ff161561181657600080fd5b61181f33612358565b61185e576040517f08c379a0000000000000000000000000000000000000000000000000000000008152600401611855906139c5565b60405180910390fd5b600073ffffffffffffffffffffffffffffffffffffffff168373ffffffffffffffffffffffffffffffffffffffff16141561189857600080fd5b602e8251146118a657600080fd5b6004826040516118b69190613692565b9081526020016040518091039020600080820160006118d59190612963565b600182016000905550503373ffffffffffffffffffffffffffffffffffffffff168373ffffffffffffffffffffffffffffffffffffffff167f9c676f11f477f126926ac2bc49046b7a599e258a4f198776caa2644fce3cd7c68460405161193c91906136e6565b60405180910390a36001905092915050565b600061196482600261237590919063ffffffff16565b9050919050565b6000600760009054906101000a900460ff161561198757600080fd5b61199033612358565b6119cf576040517f08c379a00000000000000000000000000000000000000000000000000000000081526004016119c6906139c5565b60405180910390fd5b600073ffffffffffffffffffffffffffffffffffffffff168473ffffffffffffffffffffffffffffffffffffffff161415611a0957600080fd5b610100835110611a1857600080fd5b602e825114611a2657600080fd5b611a2e612949565b600483604051611a3e9190613692565b9081526020016040518091039020604051806040016040529081600082018054600181600116156101000203166002900480601f016020809104026020016040519081016040528092919081815260200182805460018160011615610100020316600290048015611af05780601f10611ac557610100808354040283529160200191611af0565b820191906000526020600020905b815481529060010190602001808311611ad357829003601f168201915b5050505050815260200160018201548152505090508381600001819052503373ffffffffffffffffffffffffffffffffffffffff168573ffffffffffffffffffffffffffffffffffffffff167f87a983619f6316fe3e7ce828f67913b1a1048bf0b29304e3722f250644b049818360000151604051611b6f91906136c4565b60405180910390a360019150509392505050565b611b8c33610a8f565b611bcb576040517f08c379a0000000000000000000000000000000000000000000000000000000008152600401611bc290613a25565b60405180910390fd5b611bd4816126cc565b50565b611be033610a8f565b611c1f576040517f08c379a0000000000000000000000000000000000000000000000000000000008152600401611c1690613a25565b60405180910390fd5b611c288161273d565b50565b6000611c4182600361237590919063ffffffff16565b9050919050565b6000600760009054906101000a900460ff1615611c6457600080fd5b611c6d33612358565b611cac576040517f08c379a0000000000000000000000000000000000000000000000000000000008152600401611ca3906139c5565b60405180910390fd5b600073ffffffffffffffffffffffffffffffffffffffff168b73ffffffffffffffffffffffffffffffffffffffff161415611ce657600080fd5b611cef8b61194e565b8015611d005750611cff33612358565b5b611d0957600080fd5b60198a5110611d1757600080fd5b6019895110611d2557600080fd5b6019885110611d3357600080fd5b6032875110611d4157600080fd5b60788660ff1610611d5157600080fd5b6102bc8560ff1610611d6257600080fd5b610100845110611d7157600080fd5b610200835110611d8057600080fd5b6000429050611d8d6128fd565b6040518061012001604052808d81526020018c81526020018b81526020018a81526020018960ff1681526020018860ff16815260200187815260200186815260200185815250905080600660008f73ffffffffffffffffffffffffffffffffffffffff1673ffffffffffffffffffffffffffffffffffffffff16815260200190815260200160002060008481526020019081526020016000206000820151816000019080519060200190611e429291906129ab565b506020820151816001019080519060200190611e5f9291906129ab565b506040820151816002019080519060200190611e7c9291906129ab565b506060820151816003019080519060200190611e999291906129ab565b506080820151816004015560a0820151816005015560c0820151816006019080519060200190611eca9291906129ab565b5060e0820151816007019080519060200190611ee79291906129ab565b50610100820151816008019080519060200190611f05929190612a2b565b509050503373ffffffffffffffffffffffffffffffffffffffff168d73ffffffffffffffffffffffffffffffffffffffff167f1169da2b7e42e374a2696d1160aea7eae847e5ca82eb70c71eb94593e34b18868e8e8e8e8e8e8e8e8c604051611f76999897969594939291906137c6565b60405180910390a36001925050509a9950505050505050505050565b6000600760009054906101000a900460ff1615611fae57600080fd5b611fb733612358565b611ff6576040517f08c379a0000000000000000000000000000000000000000000000000000000008152600401611fed906139c5565b60405180910390fd5b600073ffffffffffffffffffffffffffffffffffffffff168473ffffffffffffffffffffffffffffffffffffffff16141561203057600080fd5b6120398461194e565b61204257600080fd5b61010083511061205157600080fd5b602e82511461205f57600080fd5b600042905061206c612949565b6040518060400160405280868152602001838152509050806004856040516120949190613692565b908152602001604051809103902060008201518160000190805190602001906120be9291906129ab565b50602082015181600101559050503373ffffffffffffffffffffffffffffffffffffffff168673ffffffffffffffffffffffffffffffffffffffff167f977dc7867dd6fb513af3d4bb11f4457a5052487f13412788530b454c0b7dfa2c8660405161212991906136e6565b60405180910390a36001925050509392505050565b6000600760009054906101000a900460ff161561215a57600080fd5b61216333612358565b6121a2576040517f08c379a0000000000000000000000000000000000000000000000000000000008152600401612199906139c5565b60405180910390fd5b600073ffffffffffffffffffffffffffffffffffffffff168373ffffffffffffffffffffffffffffffffffffffff1614156121dc57600080fd5b6000821015801561220d57507fffffffffffffffffffffffffffffffffffffffffffffffffffffffffffffffff8211155b61221657600080fd5b600660008473ffffffffffffffffffffffffffffffffffffffff1673ffffffffffffffffffffffffffffffffffffffff1681526020019081526020016000206000838152602001908152602001600020600080820160006122779190612963565b6001820160006122879190612963565b6002820160006122979190612963565b6003820160006122a79190612963565b600482016000905560058201600090556006820160006122c79190612963565b6007820160006122d79190612963565b6008820160006122e79190612a8b565b50503373ffffffffffffffffffffffffffffffffffffffff168373ffffffffffffffffffffffffffffffffffffffff167f7c7588a2bfe6e9d3c0acb5a62b93b9cb012ba9a6de37d69a1f4c1067b0cfa530846040516123469190613a87565b60405180910390a36001905092915050565b600061236e82600161237590919063ffffffff16565b9050919050565b60008073ffffffffffffffffffffffffffffffffffffffff168273ffffffffffffffffffffffffffffffffffffffff1614156123e6576040517f08c379a00000000000000000000000000000000000000000000000000000000081526004016123dd90613a05565b60405180910390fd5b8260000160008373ffffffffffffffffffffffffffffffffffffffff1673ffffffffffffffffffffffffffffffffffffffff16815260200190815260200160002060009054906101000a900460ff16905092915050565b6124518160016127ae90919063ffffffff16565b3373ffffffffffffffffffffffffffffffffffffffff168173ffffffffffffffffffffffffffffffffffffffff167fb35968fdda9034197de288afbe8a2947dedade83d7dbc0de3e340d4f62ce64dc60405160405180910390a350565b6124c281600361285590919063ffffffff16565b3373ffffffffffffffffffffffffffffffffffffffff168173ffffffffffffffffffffffffffffffffffffffff167f7fef988ea6e2f03c1f9fb16df333b2a7911dfb096f5c563866713c1c9517ec7060405160405180910390a350565b61253381600261285590919063ffffffff16565b3373ffffffffffffffffffffffffffffffffffffffff168173ffffffffffffffffffffffffffffffffffffffff167ff6dfb9f71429364456283a1521c30cc400d799d7b381d7ce164687f11c18dbaf60405160405180910390a350565b6125a481600061285590919063ffffffff16565b3373ffffffffffffffffffffffffffffffffffffffff168173ffffffffffffffffffffffffffffffffffffffff167fbf3f493c772c8c283fd124432c2d0f539ab343faa04258fe88e52912d36b102b60405160405180910390a350565b6126158160026127ae90919063ffffffff16565b3373ffffffffffffffffffffffffffffffffffffffff168173ffffffffffffffffffffffffffffffffffffffff167fd00481c3fc5867ec74704c9c99334b8d53c7735c947bdcb6cbebcae6740ed94060405160405180910390a350565b6126868160006127ae90919063ffffffff16565b8073ffffffffffffffffffffffffffffffffffffffff167f583e7032182b053f2bcd5e3ac78021a3c8d321735043ee84032742c9a6528afd60405160405180910390a250565b6126e081600161285590919063ffffffff16565b3373ffffffffffffffffffffffffffffffffffffffff168173ffffffffffffffffffffffffffffffffffffffff167f93b0ab94930bbad064296971ea5e731f84ae511662781bcaf28543ab9042368a60405160405180910390a350565b6127518160036127ae90919063ffffffff16565b3373ffffffffffffffffffffffffffffffffffffffff168173ffffffffffffffffffffffffffffffffffffffff167f83bb2e314d2b42b828b2082c5f08a3b9162d6322fe9b8bdaa47dc3d26ce183af60405160405180910390a350565b6127b88282612375565b6127f7576040517f08c379a00000000000000000000000000000000000000000000000000000000081526004016127ee906139e5565b60405180910390fd5b60008260000160008373ffffffffffffffffffffffffffffffffffffffff1673ffffffffffffffffffffffffffffffffffffffff16815260200190815260200160002060006101000a81548160ff0219169083151502179055505050565b61285f8282612375565b1561289f576040517f08c379a000000000000000000000000000000000000000000000000000000000815260040161289690613985565b60405180910390fd5b60018260000160008373ffffffffffffffffffffffffffffffffffffffff1673ffffffffffffffffffffffffffffffffffffffff16815260200190815260200160002060006101000a81548160ff0219169083151502179055505050565b6040518061012001604052806060815260200160608152602001606081526020016060815260200160008152602001600081526020016060815260200160608152602001606081525090565b604051806040016040528060608152602001600081525090565b50805460018160011615610100020316600290046000825580601f1061298957506129a8565b601f0160209004906000526020600020908101906129a79190612aac565b5b50565b828054600181600116156101000203166002900490600052602060002090601f016020900481019282601f106129ec57805160ff1916838001178555612a1a565b82800160010185558215612a1a579182015b82811115612a195782518255916020019190600101906129fe565b5b509050612a279190612aac565b5090565b828054828255906000526020600020908101928215612a7a579160200282015b82811115612a79578251829080519060200190612a699291906129ab565b5091602001919060010190612a4b565b5b509050612a879190612ad1565b5090565b5080546000825590600052602060002090810190612aa99190612ad1565b50565b612ace91905b80821115612aca576000816000905550600101612ab2565b5090565b90565b612afa91905b80821115612af65760008181612aed9190612963565b50600101612ad7565b5090565b90565b600081359050612b0c81613cbe565b92915050565b600082601f830112612b2357600080fd5b8135612b36612b3182613acf565b613aa2565b9150818183526020840193506020810190508360005b83811015612b7c5781358601612b628882612b9b565b845260208401935060208301925050600181019050612b4c565b5050505092915050565b600081359050612b9581613cd5565b92915050565b600082601f830112612bac57600080fd5b8135612bbf612bba82613af7565b613aa2565b91508082526020830160208301858383011115612bdb57600080fd5b612be6838284613c6b565b50505092915050565b600082601f830112612c0057600080fd5b8135612c13612c0e82613b23565b613aa2565b91508082526020830160208301858383011115612c2f57600080fd5b612c3a838284613c6b565b50505092915050565b600081359050612c5281613cec565b92915050565b600081359050612c6781613d03565b92915050565b600060208284031215612c7f57600080fd5b6000612c8d84828501612afd565b91505092915050565b60008060408385031215612ca957600080fd5b6000612cb785828601612afd565b925050602083013567ffffffffffffffff811115612cd457600080fd5b612ce085828601612bef565b9150509250929050565b600080600060608486031215612cff57600080fd5b6000612d0d86828701612afd565b935050602084013567ffffffffffffffff811115612d2a57600080fd5b612d3686828701612bef565b925050604084013567ffffffffffffffff811115612d5357600080fd5b612d5f86828701612bef565b9150509250925092565b60008060008060008060008060008060006101608c8e031215612d8b57600080fd5b6000612d998e828f01612afd565b9b505060208c013567ffffffffffffffff811115612db657600080fd5b612dc28e828f01612bef565b9a505060408c013567ffffffffffffffff811115612ddf57600080fd5b612deb8e828f01612bef565b99505060608c013567ffffffffffffffff811115612e0857600080fd5b612e148e828f01612bef565b98505060808c013567ffffffffffffffff811115612e3157600080fd5b612e3d8e828f01612bef565b97505060a0612e4e8e828f01612c43565b96505060c0612e5f8e828f01612c43565b95505060e08c013567ffffffffffffffff811115612e7c57600080fd5b612e888e828f01612bef565b9450506101008c013567ffffffffffffffff811115612ea657600080fd5b612eb28e828f01612bef565b9350506101208c013567ffffffffffffffff811115612ed057600080fd5b612edc8e828f01612b12565b925050610140612eee8e828f01612c43565b9150509295989b509295989b9093969950565b6000806000806000806000806000806101408b8d031215612f2157600080fd5b6000612f2f8d828e01612afd565b9a505060208b013567ffffffffffffffff811115612f4c57600080fd5b612f588d828e01612bef565b99505060408b013567ffffffffffffffff811115612f7557600080fd5b612f818d828e01612bef565b98505060608b013567ffffffffffffffff811115612f9e57600080fd5b612faa8d828e01612bef565b97505060808b013567ffffffffffffffff811115612fc757600080fd5b612fd38d828e01612bef565b96505060a0612fe48d828e01612c58565b95505060c0612ff58d828e01612c58565b94505060e08b013567ffffffffffffffff81111561301257600080fd5b61301e8d828e01612bef565b9350506101008b013567ffffffffffffffff81111561303c57600080fd5b6130488d828e01612bef565b9250506101208b013567ffffffffffffffff81111561306657600080fd5b6130728d828e01612b12565b9150509295989b9194979a5092959850565b6000806040838503121561309757600080fd5b60006130a585828601612afd565b92505060206130b685828601612c43565b9150509250929050565b6000602082840312156130d257600080fd5b60006130e084828501612b86565b91505092915050565b60006130f58383613260565b905092915050565b600061310882613b7a565b6131128185613bc6565b93508360208202850161312485613b5f565b8060005b85811015613160578484038952815161314185826130e9565b945061314c83613ba8565b925060208a01995050600181019050613128565b50829750879550505050505092915050565b600061317d82613b6f565b6131878185613bb5565b93508360208202850161319985613b4f565b8060005b858110156131d557848403895281516131b685826130e9565b94506131c183613b9b565b925060208a0199505060018101905061319d565b50829750879550505050505092915050565b6131f081613c16565b82525050565b600061320182613b90565b61320b8185613be8565b935061321b818560208601613c7a565b61322481613cad565b840191505092915050565b600061323a82613b90565b6132448185613bf9565b9350613254818560208601613c7a565b80840191505092915050565b600061326b82613b85565b6132758185613bd7565b9350613285818560208601613c7a565b61328e81613cad565b840191505092915050565b60006132a482613b85565b6132ae8185613be8565b93506132be818560208601613c7a565b6132c781613cad565b840191505092915050565b60006132df601f83613be8565b91507f526f6c65733a206163636f756e7420616c72656164792068617320726f6c65006000830152602082019050919050565b600061331f603983613be8565b91507f4e6f207365206375656e746120636f6e20656c20726f6c20657370656369666960008301527f6361646f284173697374656e7465206f206dc3a96469636f29000000000000006020830152604082019050919050565b6000613385602d83613be8565b91507f4e6f207365206375656e746120636f6e20656c20726f6c20657370656369666960008301527f6361646f284dc3a96469636f29000000000000000000000000000000000000006020830152604082019050919050565b60006133eb602183613be8565b91507f526f6c65733a206163636f756e7420646f6573206e6f74206861766520726f6c60008301527f65000000000000000000000000000000000000000000000000000000000000006020830152604082019050919050565b6000613451602283613be8565b91507f526f6c65733a206163636f756e7420697320746865207a65726f20616464726560008301527f73730000000000000000000000000000000000000000000000000000000000006020830152604082019050919050565b60006134b7602b83613be8565b91507f4e6f207365206375656e746120636f6e20656c20726f6c20657370656369666960008301527f6361646f2841646d696e290000000000000000000000000000000000000000006020830152604082019050919050565b600061351d603883613be8565b91507f4e6f207365206375656e746120636f6e20656c20726f6c20657370656369666960008301527f6361646f2850616369656e7465206f206dc3a96469636f2900000000000000006020830152604082019050919050565b60006101208301600083015184820360008601526135948282613260565b915050602083015184820360208601526135ae8282613260565b915050604083015184820360408601526135c88282613260565b915050606083015184820360608601526135e28282613260565b91505060808301516135f76080860182613665565b5060a083015161360a60a0860182613665565b5060c083015184820360c08601526136228282613260565b91505060e083015184820360e086015261363c8282613260565b9150506101008301518482036101008601526136588282613172565b9150508091505092915050565b61366e81613c42565b82525050565b61367d81613c42565b82525050565b61368c81613c59565b82525050565b600061369e828461322f565b915081905092915050565b60006020820190506136be60008301846131e7565b92915050565b600060208201905081810360008301526136de8184613299565b905092915050565b6000602082019050818103600083015261370081846131f6565b905092915050565b6000610120820190508181036000830152613723818c6131f6565b90508181036020830152613737818b6131f6565b9050818103604083015261374b818a6131f6565b9050818103606083015261375f81896131f6565b905061376e6080830188613674565b61377b60a0830187613674565b81810360c083015261378d81866131f6565b905081810360e08301526137a181856131f6565b90508181036101008301526137b681846130fd565b90509a9950505050505050505050565b60006101208201905081810360008301526137e1818c6131f6565b905081810360208301526137f5818b6131f6565b90508181036040830152613809818a6131f6565b9050818103606083015261381d81896131f6565b905061382c6080830188613683565b61383960a0830187613683565b81810360c083015261384b81866131f6565b905081810360e083015261385f81856131f6565b905061386f610100830184613674565b9a9950505050505050505050565b6000604082019050818103600083015261389781856131f6565b90506138a66020830184613674565b9392505050565b60006101008201905081810360008301526138c8818b613299565b905081810360208301526138dc818a613299565b905081810360408301526138f08189613299565b905081810360608301526139048188613299565b90506139136080830187613674565b61392060a0830186613674565b81810360c08301526139328185613299565b905081810360e08301526139468184613299565b90509998505050505050505050565b6000604082019050818103600083015261396f8185613299565b905061397e6020830184613674565b9392505050565b6000602082019050818103600083015261399e816132d2565b9050919050565b600060208201905081810360008301526139be81613312565b9050919050565b600060208201905081810360008301526139de81613378565b9050919050565b600060208201905081810360008301526139fe816133de565b9050919050565b60006020820190508181036000830152613a1e81613444565b9050919050565b60006020820190508181036000830152613a3e816134aa565b9050919050565b60006020820190508181036000830152613a5e81613510565b9050919050565b60006020820190508181036000830152613a7f8184613576565b905092915050565b6000602082019050613a9c6000830184613674565b92915050565b6000604051905081810181811067ffffffffffffffff82111715613ac557600080fd5b8060405250919050565b600067ffffffffffffffff821115613ae657600080fd5b602082029050602081019050919050565b600067ffffffffffffffff821115613b0e57600080fd5b601f19601f8301169050602081019050919050565b600067ffffffffffffffff821115613b3a57600080fd5b601f19601f8301169050602081019050919050565b6000819050602082019050919050565b6000819050602082019050919050565b600081519050919050565b600081519050919050565b600081519050919050565b600081519050919050565b6000602082019050919050565b6000602082019050919050565b600082825260208201905092915050565b600082825260208201905092915050565b600082825260208201905092915050565b600082825260208201905092915050565b600081905092915050565b6000613c0f82613c22565b9050919050565b60008115159050919050565b600073ffffffffffffffffffffffffffffffffffffffff82169050919050565b6000819050919050565b600060ff82169050919050565b6000613c6482613c4c565b9050919050565b82818337600083830152505050565b60005b83811015613c98578082015181840152602081019050613c7d565b83811115613ca7576000848401525b50505050565b6000601f19601f8301169050919050565b613cc781613c04565b8114613cd257600080fd5b50565b613cde81613c16565b8114613ce957600080fd5b50565b613cf581613c42565b8114613d0057600080fd5b50565b613d0c81613c4c565b8114613d1757600080fd5b5056fea365627a7a7231582042117db495eb587e402d7012e1198fff96fa0f7a8d551ef19235ef1a4528fb5f6c6578706572696d656e74616cf564736f6c63430005100040",
  "source": "pragma solidity ^0.5.16;\r\npragma experimental ABIEncoderV2;\r\n\r\nimport \"./PatientRecords.sol\";\r\n\r\n/**\r\n * @title Smart Contract de Diagnstico de pacientes - Control de Diagnstico realizado por el mdico.\r\n * @author Francisco Alemn\r\n * @notice Este contrato representa el registro de un Diagnstico asociado a una persona.\r\n * @dev El contrato hereda las funciones del contrato de roles\r\n */\r\n\r\ncontract PatientDiagnosis is PatientRecords {\r\n\r\n    /**\r\n     * @title Representa un Dignostico el cual le pertenece a un paciente.\r\n     */\r\n    struct Diagnostico {\r\n        string nombre;\r\n        string aPat;\r\n        string aMat;\r\n        string comorb;\r\n        uint256 age;\r\n        uint256 weight;\r\n        string diagnostic;\r\n        string observations;\r\n        string[] estudio;\r\n    }\r\n\r\n    /**\r\n     * @notice Mapea el paciente a su diagnstico..\r\n     */\r\n    mapping (address => mapping (uint256 => Diagnostico)) public fileToPatientDiagnosis;\r\n\r\n    /**\r\n     * @notice Patrn de switch para encender/apagar\r\n     */\r\n    bool private stopped = false;\r\n\r\n    /**\r\n     * @dev Eventos que sern registrados en la blockchain.\r\n     */\r\n    event DiagnosticdAdded(\r\n        address indexed _patient,\r\n        address indexed _medic,\r\n        string _nombre,\r\n        string _aPat,\r\n        string _aMat,\r\n        string _comorb,\r\n        uint256 _age,\r\n        uint256 _weight,\r\n        string _diagnostic,\r\n        string _observations,\r\n        uint256 _date\r\n        );\r\n\r\n    event DiagnosisUpdate(\r\n        address indexed _patient,\r\n        address indexed _medic,\r\n        string _nombre,\r\n        string _aPat,\r\n        string _aMat,\r\n        string _comorb,\r\n        uint256 _age,\r\n        uint256 _weight,\r\n        string _diagnostic,\r\n        string _observations\r\n        );\r\n\r\n    event DiagnosticRetrieve(\r\n        address indexed _patient,\r\n        address indexed _medic,\r\n        string _nombre,\r\n        string _aPat,\r\n        string _aMat,\r\n        string _comorb,\r\n        uint256 _age,\r\n        uint256 _weight,\r\n        string _diagnostic,\r\n        string  _observations\r\n        );\r\n\r\n    event DiagnosticDelete(\r\n        address indexed _patient,\r\n        address indexed _medic,\r\n        uint256 _date\r\n        );\r\n\r\n    /**\r\n    * @dev Indica que se ha puesto el contrato en pausa.\r\n    * @param _admin Un administrador\r\n    * @param _stop Indica cuando hay una pausa o una reanudacin.\r\n    */\r\n    event LogSwitchStop(\r\n        address indexed _admin,\r\n        bool _stop\r\n    );\r\n\r\n    /**\r\n    * @dev Previene de ejecucin del contrato\r\n    */\r\n    modifier nonlyStopped {\r\n        require(!stopped);\r\n        _;\r\n    }\r\n\r\n    /**\r\n    * @dev Est funcin ser llamada para todos los mensajes que sean enviados a este contrado.\r\n    * Enviar Ether a este contrato ocasionar una excepcin, dado que las funciones no tienen un modificador de pago.\r\n    */\r\n    function() external {}\r\n\r\n    /**\r\n    * @notice Pausar el contrato\r\n    * Se detiene el contrato bajo ciertas condiciones.\r\n    * Sera til cuando nuevos errores sean descubiertos.\r\n    * @param _stop Switch del contrado de encendido/apagado\r\n    */\r\n    function emergencyStop(bool _stop) public onlyAdmin {\r\n        stopped = _stop;\r\n        emit LogSwitchStop(msg.sender, _stop);\r\n    }\r\n\r\n    function patientDiagnosis(address _account, uint256 _timeStamp) public view returns (Diagnostico memory) {\r\n        return fileToPatientDiagnosis[_account][_timeStamp];\r\n    }\r\n\r\n    /**\r\n   * @dev Funcin de creacin de Diagnstico. Esta funcin es realizada por un doctor.\r\n   * @param _account a\r\n   * @param _age a\r\n   * @param _weight a\r\n   * @param _diagnostic a\r\n   * @param _observations a\r\n   *@param _date a\r\n   * @return _success a\r\n   */\r\n    function addDiagnostic(\r\n        address _account,\r\n        string memory _nombre,\r\n        string memory _aPat,\r\n        string memory _aMat,\r\n        string memory _comorb,\r\n        uint8 _age,\r\n        uint8 _weight,\r\n        string memory _diagnostic,\r\n        string memory _observations,\r\n        string[] memory _estudio\r\n        )\r\n    public nonlyStopped onlyMedic returns (bool _success) {\r\n        require(_account != address(0));\r\n        require(isPatient(_account) && isMedic(msg.sender));\r\n        require(bytes(_nombre).length < 25);\r\n        require(bytes(_aPat).length < 25);\r\n        require(bytes(_aMat).length < 25);\r\n        require(bytes(_comorb).length < 50);\r\n        require(_age < 120);\r\n        require(_weight < 700);\r\n        require(bytes(_diagnostic).length < 256);\r\n        require(bytes(_observations).length < 512);\r\n\r\n        uint256 _date = now;\r\n        Diagnostico memory diagnostico = Diagnostico(\r\n            _nombre,\r\n            _aPat,\r\n            _aMat,\r\n            _comorb,\r\n            _age,\r\n            _weight,\r\n            _diagnostic,\r\n            _observations,\r\n            _estudio\r\n        );\r\n\r\n        fileToPatientDiagnosis[_account][_date] = diagnostico;\r\n\r\n        emit DiagnosticdAdded(\r\n            _account,\r\n            msg.sender,\r\n            _nombre,\r\n            _aPat,\r\n            _aMat,\r\n            _comorb,\r\n            _age,\r\n            _weight,\r\n            _diagnostic,\r\n            _observations,\r\n            _date\r\n        );\r\n        _success = true;\r\n    }\r\n\r\n    /**\r\n    * @notice Returns el Diagnstico en el ndice del propietario de la direccin.\r\n    * @dev Controlado por el switch\r\n    * @param _account Cuenta del paciente\r\n    */\r\n    function updateDiagnostic(\r\n        address _account,\r\n        string memory _nombre,\r\n        string memory _aPat,\r\n        string memory _aMat,\r\n        string memory _comorb,\r\n        uint256 _age,\r\n        uint256 _weight,\r\n        string memory _diagnostic,\r\n        string memory _observations,\r\n        string[] memory _estudio,\r\n        uint256 _date\r\n        )\r\n    public nonlyStopped onlyMedic returns (bool _success) {\r\n        require(_account != address(0));\r\n        require(bytes(_nombre).length < 25);\r\n        require(bytes(_aPat).length < 25);\r\n        require(bytes(_aMat).length < 25);\r\n        require(bytes(_comorb).length < 256);\r\n        require(_age < 120);\r\n        require(_weight < 700);\r\n        require(bytes(_diagnostic).length < 50);\r\n        require(bytes(_observations).length < 512);\r\n        require(_date >= 0 && _date <= 2**256 - 1);\r\n        //require(fileToPatientDiagnosis[_account][_date] != 0);\r\n        require(_estudio.length > 0);\r\n\r\n        Diagnostico memory diagnostico = patientDiagnosis(_account, _date);\r\n\r\n        diagnostico.nombre = _nombre;\r\n        diagnostico.aPat = _aPat;\r\n        diagnostico.aMat = _aMat;\r\n        diagnostico.comorb = _comorb;\r\n        diagnostico.age = _age;\r\n        diagnostico.weight = _weight;\r\n        diagnostico.diagnostic = _diagnostic;\r\n        diagnostico.observations = _observations;\r\n        diagnostico.estudio = _estudio;\r\n\r\n        emit DiagnosisUpdate(\r\n            _account,\r\n            msg.sender,\r\n            diagnostico.nombre,\r\n            diagnostico.aPat,\r\n            diagnostico.aMat,\r\n            diagnostico.comorb,\r\n            diagnostico.age,\r\n            diagnostico.weight,\r\n            diagnostico.diagnostic,\r\n            diagnostico.observations\r\n        );\r\n        _success = true;\r\n    }\r\n\r\n    /**\r\n    * @notice Returns el Diagnstico en el ndice del propietario de la direccin.\r\n    * @dev Controlado por el switch\r\n    * @param _account The owner address\r\n    * @return _date The uploaded timestamp\r\n    */\r\n    function viewDiagnostic(address _account, uint256 _date) public nonlyStopped onlyPatient returns (\r\n        string memory _nombre,\r\n        string memory _aPat,\r\n        string memory _aMat,\r\n        string memory _comorb,\r\n        uint256 _age,\r\n        uint256 _weight,\r\n        string memory _diagnostic,\r\n        string memory _observations,\r\n        string[] memory _estudio\r\n        ) {\r\n        if (isPatient(msg.sender)) {\r\n            require(msg.sender == _account);\r\n        }\r\n        if (isMedic(msg.sender)) {\r\n            require(msg.sender != _account);\r\n        }\r\n        require(_account != address(0));\r\n        require(_date >= 0 && _date <= 2**256 - 1);\r\n        //require(fileToPatientDiagnosis[_account][_date] != false);\r\n\r\n        Diagnostico memory diagnostico = patientDiagnosis(_account, _date);\r\n\r\n        emit DiagnosticRetrieve(\r\n            _account,\r\n            msg.sender,\r\n            diagnostico.nombre,\r\n            diagnostico.aPat,\r\n            diagnostico.aMat,\r\n            diagnostico.comorb,\r\n            diagnostico.age,\r\n            diagnostico.weight,\r\n            diagnostico.diagnostic,\r\n            diagnostico.observations\r\n        );\r\n        _nombre = diagnostico.nombre;\r\n        _aPat = diagnostico.aPat;\r\n        _aMat = diagnostico.aMat;\r\n        _comorb = diagnostico.comorb;\r\n        _age = diagnostico.age;\r\n        _weight = diagnostico.weight;\r\n        _diagnostic = diagnostico.diagnostic;\r\n        _observations = diagnostico.observations;\r\n        _estudio = diagnostico.estudio;\r\n    }\r\n\r\n    /**\r\n    * @notice Returns el estudio en el ndice del propietario de la direccin.\r\n    * @dev Controlado por el switch\r\n    * @param _account The owner address\r\n    * @return _uploadDate The uploaded timestamp\r\n    */\r\n    function deleteDiagnostic(address _account, uint256 _date) public nonlyStopped onlyMedic returns (bool _success) {\r\n        require(_account != address(0));\r\n        require(_date >= 0 && _date <= 2**256 - 1);\r\n        //require(fileToPatientDiagnosis[_account][_date] != false);\r\n\r\n        delete fileToPatientDiagnosis[_account][_date];\r\n\r\n        emit DiagnosticDelete(\r\n            _account,\r\n            msg.sender,\r\n            _date\r\n        );\r\n        _success = true;\r\n    }\r\n\r\n}\r\n",
  "sourcePath": "D:\\Mega-AC1982\\Develop\\Block-Chain\\MedicalHistory-BlockChainProject\\frontend\\truffle\\contracts\\PatientDiagnosis.sol",
  "compiler": {
    "name": "solc",
    "version": "0.5.16+commit.9c3226ce.Emscripten.clang"
  },
  "schemaVersion": "3.0.23",
  "updatedAt": "2020-04-26T07:41:43.981Z",
  "networkType": "ethereum",
  "devdoc": {
    "author": "Francisco Alemn",
    "details": "El contrato hereda las funciones del contrato de roles",
    "methods": {
      "addAdmin(address)": {
        "details": "Funcin pblica para asignar admin",
        "params": {
          "account": "Cuenta que ser asignada como admin"
        }
      },
      "addAssistant(address)": {
        "details": "Funcin pblica para asignar asistente",
        "params": {
          "account": "Cuenta que ser asignada como asistente"
        }
      },
      "addDiagnostic(address,string,string,string,string,uint8,uint8,string,string,string[])": {
        "details": "Funcin de creacin de Diagnstico. Esta funcin es realizada por un doctor.",
        "params": {
          "_account": "a",
          "_age": "a",
          "_diagnostic": "a",
          "_observations": "a param _date a",
          "_weight": "a"
        },
        "return": "_success a"
      },
      "addMedic(address)": {
        "details": "Funcin pblica para asignar mdico",
        "params": {
          "account": "Cuenta que ser asignada como mdico"
        }
      },
      "addPatient(address)": {
        "details": "Funcin pblica para asignar paciente",
        "params": {
          "account": "Cuenta que ser asignada como paciente"
        }
      },
      "addRecord(address,string,string)": {
        "details": "Funcin de creacin de Estudio. Esta funcin es realizada por un doctor.",
        "params": {
          "_account": "a",
          "_ipfsHash": "a"
        },
        "return": "_success a"
      },
      "deleteDiagnostic(address,uint256)": {
        "details": "Controlado por el switch",
        "params": {
          "_account": "The owner address"
        },
        "return": "_uploadDate The uploaded timestamp"
      },
      "deleteRecord(address,string)": {
        "details": "Controlado por el switch",
        "params": {
          "_account": "The owner address"
        },
        "return": "_uploadDate The uploaded timestamp"
      },
      "emergencyStop(bool)": {
        "params": {
          "_stop": "Switch del contrado de encendido/apagado"
        }
      },
      "isAdmin(address)": {
        "params": {
          "account": "Cuenta donde se validar el rol."
        },
        "return": "true si la cuenta tiene rol de admin"
      },
      "isAssistant(address)": {
        "params": {
          "account": "Cuenta donde se validar el rol."
        },
        "return": "true si la cuenta tiene rol de asistente"
      },
      "isMedic(address)": {
        "params": {
          "account": "Cuenta donde se validar el rol."
        },
        "return": "true si la cuenta tiene rol de mdico"
      },
      "isPatient(address)": {
        "params": {
          "account": "Cuenta donde se validar el rol."
        },
        "return": "true si la cuenta tiene rol de paciente"
      },
      "removeAssistant(address)": {
        "details": "Remover a rol de asistente. Quien invoque al contrato no volver a ser asistente."
      },
      "removeMedic(address)": {
        "details": "Funcin pblica para remover mdico",
        "params": {
          "account": "Cuenta que ser removida de mdico"
        }
      },
      "removePatient(address)": {
        "details": "Remover a rol de paciente. Quien invoque al contrato no volver a ser paciente."
      },
      "renounceAdmin()": {
        "details": "Renunciar a rol de administrador. Quien inque al contrato no volver a ser admin."
      },
      "renounceMedic()": {
        "details": "Renunciar a rol de personal mdico. Quien invoque al contrato no volver a ser mdico."
      },
      "updateDiagnostic(address,string,string,string,string,uint256,uint256,string,string,string[],uint256)": {
        "details": "Controlado por el switch",
        "params": {
          "_account": "Cuenta del paciente"
        }
      },
      "updateRecord(address,string,string)": {
        "details": "Controlado por el switch",
        "params": {
          "_account": "Cuenta del paciente"
        },
        "return": "_ipfsHash The IPFS hash"
      },
      "viewDiagnostic(address,uint256)": {
        "details": "Controlado por el switch",
        "params": {
          "_account": "The owner address"
        },
        "return": "_date The uploaded timestamp"
      },
      "viewRecords(address,string)": {
        "details": "Controlado por el switch",
        "params": {
          "_account": "The owner address"
        },
        "return": "_uploadDate The uploaded timestamp"
      }
    },
    "title": "Smart Contract de Diagnstico de pacientes - Control de Diagnstico realizado por el mdico."
  },
  "userdoc": {
    "methods": {
      "deleteDiagnostic(address,uint256)": {
        "notice": "Returns el estudio en el ndice del propietario de la direccin."
      },
      "deleteRecord(address,string)": {
        "notice": "Returns el estudio en el ndice del propietario de la direccin."
      },
      "emergencyStop(bool)": {
        "notice": "Pausar el contrato Se detiene el contrato bajo ciertas condiciones. Sera til cuando nuevos errores sean descubiertos."
      },
      "updateDiagnostic(address,string,string,string,string,uint256,uint256,string,string,string[],uint256)": {
        "notice": "Returns el Diagnstico en el ndice del propietario de la direccin."
      },
      "updateRecord(address,string,string)": {
        "notice": "Returns el estudio en el ndice del propietario de la direccin."
      },
      "viewDiagnostic(address,uint256)": {
        "notice": "Returns el Diagnstico en el ndice del propietario de la direccin."
      },
      "viewRecords(address,string)": {
        "notice": "Returns el estudio en el ndice del propietario de la direccin."
      }
    },
    "notice": "Este contrato representa el registro de un Diagnstico asociado a una persona."
  }
}