{
  "contractName": "PendingRecords",
  "abi": [
    {
      "anonymous": false,
      "inputs": [
        {
          "indexed": false,
          "internalType": "string",
          "name": "_hash",
          "type": "string"
        }
      ],
      "name": "newMedicRecord",
      "type": "event"
    },
    {
      "anonymous": false,
      "inputs": [
        {
          "indexed": false,
          "internalType": "string",
          "name": "_hash",
          "type": "string"
        }
      ],
      "name": "removeMedicRecord",
      "type": "event"
    },
    {
      "payable": false,
      "stateMutability": "nonpayable",
      "type": "fallback"
    },
    {
      "constant": true,
      "inputs": [
        {
          "internalType": "uint256",
          "name": "",
          "type": "uint256"
        }
      ],
      "name": "MedicPending",
      "outputs": [
        {
          "internalType": "string",
          "name": "",
          "type": "string"
        }
      ],
      "payable": false,
      "stateMutability": "view",
      "type": "function"
    },
    {
      "constant": false,
      "inputs": [
        {
          "internalType": "string",
          "name": "_hashString",
          "type": "string"
        }
      ],
      "name": "addMedicRecord",
      "outputs": [],
      "payable": false,
      "stateMutability": "nonpayable",
      "type": "function"
    },
    {
      "constant": true,
      "inputs": [],
      "name": "getPendingLength",
      "outputs": [
        {
          "internalType": "uint256",
          "name": "count",
          "type": "uint256"
        }
      ],
      "payable": false,
      "stateMutability": "view",
      "type": "function"
    },
    {
      "constant": true,
      "inputs": [
        {
          "internalType": "uint32",
          "name": "_index",
          "type": "uint32"
        }
      ],
      "name": "getPendingRequest",
      "outputs": [
        {
          "internalType": "string",
          "name": "_hashString",
          "type": "string"
        }
      ],
      "payable": false,
      "stateMutability": "view",
      "type": "function"
    },
    {
      "constant": false,
      "inputs": [
        {
          "internalType": "uint32",
          "name": "_index",
          "type": "uint32"
        }
      ],
      "name": "removePending",
      "outputs": [
        {
          "internalType": "bool",
          "name": "success",
          "type": "bool"
        }
      ],
      "payable": false,
      "stateMutability": "nonpayable",
      "type": "function"
    }
  ],
  "bytecode": "0x608060405234801561001057600080fd5b50610974806100206000396000f3fe608060405234801561001057600080fd5b50600436106100575760003560e01c8063510b2f61146100595780635acec4ab146101145780637c619d69146101c15780639b2ae4c614610268578063beea194b14610286575b005b6101126004803603602081101561006f57600080fd5b810190808035906020019064010000000081111561008c57600080fd5b82018360208201111561009e57600080fd5b803590602001918460018302840111640100000000831117156100c057600080fd5b91908080601f016020809104026020016040519081016040528093929190818152602001838380828437600081840152601f19601f8201169050808301925050505050505091929192905050506102d2565b005b6101466004803603602081101561012a57600080fd5b81019080803563ffffffff1690602001909291905050506103b0565b6040518080602001828103825283818151815260200191508051906020019080838360005b8381101561018657808201518184015260208101905061016b565b50505050905090810190601f1680156101b35780820380516001836020036101000a031916815260200191505b509250505060405180910390f35b6101ed600480360360208110156101d757600080fd5b8101908080359060200190929190505050610472565b6040518080602001828103825283818151815260200191508051906020019080838360005b8381101561022d578082015181840152602081019050610212565b50505050905090810190601f16801561025a5780820380516001836020036101000a031916815260200191505b509250505060405180910390f35b61027061052b565b6040518082815260200191505060405180910390f35b6102b86004803603602081101561029c57600080fd5b81019080803563ffffffff16906020019092919050505061053a565b604051808215151515815260200191505060405180910390f35b600081908060018154018082558091505090600182039060005260206000200160009091929091909150908051906020019061030f929190610773565b50507f5e332f3731dadf621e80f98267e93056826ab706140072569d6b4e9c56a4b6b8816040518080602001828103825283818151815260200191508051906020019080838360005b83811015610373578082015181840152602081019050610358565b50505050905090810190601f1680156103a05780820380516001836020036101000a031916815260200191505b509250505060405180910390a150565b606060008263ffffffff16815481106103c557fe5b906000526020600020018054600181600116156101000203166002900480601f0160208091040260200160405190810160405280929190818152602001828054600181600116156101000203166002900480156104635780601f1061043857610100808354040283529160200191610463565b820191906000526020600020905b81548152906001019060200180831161044657829003601f168201915b50505050509050809050919050565b6000818154811061047f57fe5b906000526020600020016000915090508054600181600116156101000203166002900480601f0160208091040260200160405190810160405280929190818152602001828054600181600116156101000203166002900480156105235780601f106104f857610100808354040283529160200191610523565b820191906000526020600020905b81548152906001019060200180831161050657829003601f168201915b505050505081565b60008080549050905080905090565b600080805490508263ffffffff1610610556576000905061076e565b606060008363ffffffff168154811061056b57fe5b906000526020600020018054600181600116156101000203166002900480601f0160208091040260200160405190810160405280929190818152602001828054600181600116156101000203166002900480156106095780601f106105de57610100808354040283529160200191610609565b820191906000526020600020905b8154815290600101906020018083116105ec57829003601f168201915b5050505050905060008363ffffffff1690505b60016000805490500381101561068a576000600182018154811061063c57fe5b906000526020600020016000828154811061065357fe5b90600052602060002001908054600181600116156101000203166002900461067c9291906107f3565b50808060010191505061061c565b506000600160008054905003815481106106a057fe5b9060005260206000200160006106b6919061087a565b60008054809190600190036106cb91906108c2565b507ff2dda0b2a2118242536b96d5f9d1e2d0ea2004859866cc4664f249fd47842551816040518080602001828103825283818151815260200191508051906020019080838360005b8381101561072e578082015181840152602081019050610713565b50505050905090810190601f16801561075b5780820380516001836020036101000a031916815260200191505b509250505060405180910390a160019150505b919050565b828054600181600116156101000203166002900490600052602060002090601f016020900481019282601f106107b457805160ff19168380011785556107e2565b828001600101855582156107e2579182015b828111156107e15782518255916020019190600101906107c6565b5b5090506107ef91906108ee565b5090565b828054600181600116156101000203166002900490600052602060002090601f016020900481019282601f1061082c5780548555610869565b8280016001018555821561086957600052602060002091601f016020900482015b8281111561086857825482559160010191906001019061084d565b5b50905061087691906108ee565b5090565b50805460018160011615610100020316600290046000825580601f106108a057506108bf565b601f0160209004906000526020600020908101906108be91906108ee565b5b50565b8154818355818111156108e9578183600052602060002091820191016108e89190610913565b5b505050565b61091091905b8082111561090c5760008160009055506001016108f4565b5090565b90565b61093c91905b80821115610938576000818161092f919061087a565b50600101610919565b5090565b9056fea265627a7a723158209a91d8c8fe14f0acb3f3ece70fb9eab24663d0c41c45e75ac80a06a7d9028fd764736f6c63430005100032",
  "source": "pragma solidity 0.5.16;\r\n\r\ncontract PendingRecords\r\n{\r\n    string[] public MedicPending;\r\n\r\n    /**\r\n    * @dev Está función será llamada para todos los mensajes que sean enviados a este contrado.\r\n    * Enviar Ether a este contrato ocasionará una excepción, dado que las funciones no tienen un modificador de pago.\r\n    */\r\n    function() external {}\r\n\r\n\r\n    /**\r\n    * @notice Guarda el hash de un registro del medico\r\n    * @param _hashString cadena de IPFS que contiene el archivo de registro\r\n    */\r\n    function addMedicRecord(string memory _hashString) public{\r\n        MedicPending.push(_hashString);\r\n        emit newMedicRecord(_hashString);\r\n    }\r\n\r\n    /**\r\n    * @notice Regresa la longitud del arreglo de solicitudes pendientes\r\n    * @return Longitud de MedicPending\r\n    */\r\n    function getPendingLength() public view returns(uint count) {\r\n        count = MedicPending.length;\r\n        //emit lenMedicRecord(count);\r\n        return count;\r\n    }\r\n\r\n    /**\r\n    * @notice Regresa la cadena hash de un indice dado\r\n    * @param _index Indice a consultar\r\n    * @return Cadena dentro del indice indicado en MedicPending\r\n    */\r\n    function getPendingRequest(uint32 _index) public view returns(string memory _hashString){\r\n        _hashString = MedicPending[_index];\r\n        //emit getMedicRecord(_hashString);\r\n        return _hashString;\r\n    }\r\n\r\n    /**\r\n    * @notice Remueve el elemento del indice indicado\r\n    * @dev Hace un swap para no dejar espacios en blanco\r\n    * @param _index The owner address\r\n    * @return booleano diciendo si fue exitoso o no\r\n    */\r\n    function removePending(uint32 _index) public returns(bool success){\r\n        if (_index >= MedicPending.length) return false;\r\n\r\n        string memory removed_hash = MedicPending[_index];\r\n        for (uint i = _index; i<MedicPending.length-1; i++){\r\n            MedicPending[i] = MedicPending[i+1];\r\n        }\r\n        delete MedicPending[MedicPending.length-1];\r\n        MedicPending.length--;\r\n        emit removeMedicRecord(removed_hash);\r\n        return true;\r\n    }\r\n\r\n    event newMedicRecord(string _hash);\r\n    event removeMedicRecord(string _hash);\r\n    //event lenMedicRecord(uint _len);\r\n    //event getMedicRecord(string _hash);\r\n\r\n}",
  "sourcePath": "C:\\Users\\Lili\\Documents\\GitHub\\Medical_Block\\MedicalHistory-BlockChainProject\\frontend\\truffle\\contracts\\PendingRecords.sol",
  "compiler": {
    "name": "solc",
    "version": "0.5.16+commit.9c3226ce.Emscripten.clang"
  },
  "schemaVersion": "3.0.23",
  "updatedAt": "2020-04-27T04:33:57.525Z",
  "networkType": "ethereum",
  "devdoc": {
    "methods": {
      "addMedicRecord(string)": {
        "params": {
          "_hashString": "cadena de IPFS que contiene el archivo de registro"
        }
      },
      "getPendingLength()": {
        "return": "Longitud de MedicPending"
      },
      "getPendingRequest(uint32)": {
        "params": {
          "_index": "Indice a consultar"
        },
        "return": "Cadena dentro del indice indicado en MedicPending"
      },
      "removePending(uint32)": {
        "details": "Hace un swap para no dejar espacios en blanco",
        "params": {
          "_index": "The owner address"
        },
        "return": "booleano diciendo si fue exitoso o no"
      }
    }
  },
  "userdoc": {
    "methods": {
      "addMedicRecord(string)": {
        "notice": "Guarda el hash de un registro del medico"
      },
      "getPendingLength()": {
        "notice": "Regresa la longitud del arreglo de solicitudes pendientes"
      },
      "getPendingRequest(uint32)": {
        "notice": "Regresa la cadena hash de un indice dado"
      },
      "removePending(uint32)": {
        "notice": "Remueve el elemento del indice indicado"
      }
    }
  }
}