{
  "contractName": "AssistantRegister",
  "abi": [
    {
      "anonymous": false,
      "inputs": [
        {
          "indexed": true,
          "internalType": "address",
          "name": "newAdm",
          "type": "address"
        },
        {
          "indexed": true,
          "internalType": "address",
          "name": "whoAddedAdm",
          "type": "address"
        }
      ],
      "name": "AdminAdded",
      "type": "event"
    },
    {
      "anonymous": false,
      "inputs": [
        {
          "indexed": true,
          "internalType": "address",
          "name": "accountRen",
          "type": "address"
        }
      ],
      "name": "AdminRenounce",
      "type": "event"
    },
    {
      "anonymous": false,
      "inputs": [
        {
          "indexed": true,
          "internalType": "address",
          "name": "_assistant",
          "type": "address"
        },
        {
          "indexed": true,
          "internalType": "address",
          "name": "_admin",
          "type": "address"
        },
        {
          "indexed": false,
          "internalType": "string",
          "name": "_name",
          "type": "string"
        },
        {
          "indexed": false,
          "internalType": "string",
          "name": "_aPat",
          "type": "string"
        },
        {
          "indexed": false,
          "internalType": "string",
          "name": "_aMat",
          "type": "string"
        },
        {
          "indexed": false,
          "internalType": "string",
          "name": "_curp",
          "type": "string"
        },
        {
          "indexed": false,
          "internalType": "string",
          "name": "_hashPicture",
          "type": "string"
        },
        {
          "indexed": false,
          "internalType": "uint256",
          "name": "date",
          "type": "uint256"
        }
      ],
      "name": "AssistantAdded",
      "type": "event"
    },
    {
      "anonymous": false,
      "inputs": [
        {
          "indexed": true,
          "internalType": "address",
          "name": "newAssistant",
          "type": "address"
        },
        {
          "indexed": true,
          "internalType": "address",
          "name": "whoAddedAssistant",
          "type": "address"
        }
      ],
      "name": "AssistantAdded",
      "type": "event"
    },
    {
      "anonymous": false,
      "inputs": [
        {
          "indexed": true,
          "internalType": "address",
          "name": "_assistant",
          "type": "address"
        },
        {
          "indexed": true,
          "internalType": "address",
          "name": "_admin",
          "type": "address"
        },
        {
          "indexed": false,
          "internalType": "string",
          "name": "_hashPicture",
          "type": "string"
        },
        {
          "indexed": false,
          "internalType": "uint256",
          "name": "_date",
          "type": "uint256"
        }
      ],
      "name": "AssistantDelete",
      "type": "event"
    },
    {
      "anonymous": false,
      "inputs": [
        {
          "indexed": true,
          "internalType": "address",
          "name": "oldAssistant",
          "type": "address"
        },
        {
          "indexed": true,
          "internalType": "address",
          "name": "whoRemovedAssistant",
          "type": "address"
        }
      ],
      "name": "AssistantRemoved",
      "type": "event"
    },
    {
      "anonymous": false,
      "inputs": [
        {
          "indexed": true,
          "internalType": "address",
          "name": "_assistant",
          "type": "address"
        },
        {
          "indexed": true,
          "internalType": "address",
          "name": "_admin",
          "type": "address"
        },
        {
          "indexed": false,
          "internalType": "string",
          "name": "_name",
          "type": "string"
        },
        {
          "indexed": false,
          "internalType": "string",
          "name": "_aPat",
          "type": "string"
        },
        {
          "indexed": false,
          "internalType": "string",
          "name": "_aMat",
          "type": "string"
        },
        {
          "indexed": false,
          "internalType": "string",
          "name": "_curp",
          "type": "string"
        },
        {
          "indexed": false,
          "internalType": "string",
          "name": "_hashPicture",
          "type": "string"
        },
        {
          "indexed": false,
          "internalType": "uint256",
          "name": "_date",
          "type": "uint256"
        },
        {
          "indexed": false,
          "internalType": "uint256",
          "name": "_queryDate",
          "type": "uint256"
        }
      ],
      "name": "AssistantRetrieve",
      "type": "event"
    },
    {
      "anonymous": false,
      "inputs": [
        {
          "indexed": true,
          "internalType": "address",
          "name": "_assistant",
          "type": "address"
        },
        {
          "indexed": true,
          "internalType": "address",
          "name": "_admin",
          "type": "address"
        },
        {
          "indexed": false,
          "internalType": "string",
          "name": "_name",
          "type": "string"
        },
        {
          "indexed": false,
          "internalType": "string",
          "name": "_aPat",
          "type": "string"
        },
        {
          "indexed": false,
          "internalType": "string",
          "name": "_aMat",
          "type": "string"
        },
        {
          "indexed": false,
          "internalType": "string",
          "name": "_curp",
          "type": "string"
        },
        {
          "indexed": false,
          "internalType": "string",
          "name": "_hashPicture",
          "type": "string"
        },
        {
          "indexed": false,
          "internalType": "uint256",
          "name": "_date",
          "type": "uint256"
        },
        {
          "indexed": false,
          "internalType": "uint256",
          "name": "_queryDate",
          "type": "uint256"
        }
      ],
      "name": "AssistantUpdate",
      "type": "event"
    },
    {
      "anonymous": false,
      "inputs": [
        {
          "indexed": true,
          "internalType": "address",
          "name": "_admin",
          "type": "address"
        },
        {
          "indexed": false,
          "internalType": "bool",
          "name": "_stop",
          "type": "bool"
        }
      ],
      "name": "LogSwitchStop",
      "type": "event"
    },
    {
      "anonymous": false,
      "inputs": [
        {
          "indexed": true,
          "internalType": "address",
          "name": "newMed",
          "type": "address"
        },
        {
          "indexed": true,
          "internalType": "address",
          "name": "whoAddedMed",
          "type": "address"
        }
      ],
      "name": "MedicAdded",
      "type": "event"
    },
    {
      "anonymous": false,
      "inputs": [
        {
          "indexed": true,
          "internalType": "address",
          "name": "oldMed",
          "type": "address"
        },
        {
          "indexed": true,
          "internalType": "address",
          "name": "whoRemovedMed",
          "type": "address"
        }
      ],
      "name": "MedicRemoved",
      "type": "event"
    },
    {
      "anonymous": false,
      "inputs": [
        {
          "indexed": true,
          "internalType": "address",
          "name": "medRen",
          "type": "address"
        }
      ],
      "name": "MedicRenounce",
      "type": "event"
    },
    {
      "anonymous": false,
      "inputs": [
        {
          "indexed": true,
          "internalType": "address",
          "name": "newPat",
          "type": "address"
        },
        {
          "indexed": true,
          "internalType": "address",
          "name": "whoAddedPat",
          "type": "address"
        }
      ],
      "name": "PatientAdded",
      "type": "event"
    },
    {
      "anonymous": false,
      "inputs": [
        {
          "indexed": true,
          "internalType": "address",
          "name": "oldPat",
          "type": "address"
        },
        {
          "indexed": true,
          "internalType": "address",
          "name": "whoRemovedPat",
          "type": "address"
        }
      ],
      "name": "PatientRemoved",
      "type": "event"
    },
    {
      "payable": false,
      "stateMutability": "nonpayable",
      "type": "fallback"
    },
    {
      "constant": false,
      "inputs": [
        {
          "internalType": "address",
          "name": "account",
          "type": "address"
        }
      ],
      "name": "addAdmin",
      "outputs": [],
      "payable": false,
      "stateMutability": "nonpayable",
      "type": "function"
    },
    {
      "constant": false,
      "inputs": [
        {
          "internalType": "address",
          "name": "account",
          "type": "address"
        }
      ],
      "name": "addMedic",
      "outputs": [],
      "payable": false,
      "stateMutability": "nonpayable",
      "type": "function"
    },
    {
      "constant": false,
      "inputs": [
        {
          "internalType": "address",
          "name": "account",
          "type": "address"
        }
      ],
      "name": "addPatient",
      "outputs": [],
      "payable": false,
      "stateMutability": "nonpayable",
      "type": "function"
    },
    {
      "constant": true,
      "inputs": [
        {
          "internalType": "address",
          "name": "",
          "type": "address"
        },
        {
          "internalType": "uint256",
          "name": "",
          "type": "uint256"
        }
      ],
      "name": "fileToAssistant",
      "outputs": [
        {
          "internalType": "string",
          "name": "name",
          "type": "string"
        },
        {
          "internalType": "string",
          "name": "aPat",
          "type": "string"
        },
        {
          "internalType": "string",
          "name": "aMat",
          "type": "string"
        },
        {
          "internalType": "string",
          "name": "curp",
          "type": "string"
        },
        {
          "internalType": "string",
          "name": "hashPicture",
          "type": "string"
        },
        {
          "internalType": "uint256",
          "name": "date",
          "type": "uint256"
        }
      ],
      "payable": false,
      "stateMutability": "view",
      "type": "function"
    },
    {
      "constant": true,
      "inputs": [
        {
          "internalType": "address",
          "name": "account",
          "type": "address"
        }
      ],
      "name": "isAdmin",
      "outputs": [
        {
          "internalType": "bool",
          "name": "",
          "type": "bool"
        }
      ],
      "payable": false,
      "stateMutability": "view",
      "type": "function"
    },
    {
      "constant": true,
      "inputs": [
        {
          "internalType": "address",
          "name": "account",
          "type": "address"
        }
      ],
      "name": "isAssistant",
      "outputs": [
        {
          "internalType": "bool",
          "name": "",
          "type": "bool"
        }
      ],
      "payable": false,
      "stateMutability": "view",
      "type": "function"
    },
    {
      "constant": true,
      "inputs": [
        {
          "internalType": "address",
          "name": "account",
          "type": "address"
        }
      ],
      "name": "isMedic",
      "outputs": [
        {
          "internalType": "bool",
          "name": "",
          "type": "bool"
        }
      ],
      "payable": false,
      "stateMutability": "view",
      "type": "function"
    },
    {
      "constant": true,
      "inputs": [
        {
          "internalType": "address",
          "name": "account",
          "type": "address"
        }
      ],
      "name": "isPatient",
      "outputs": [
        {
          "internalType": "bool",
          "name": "",
          "type": "bool"
        }
      ],
      "payable": false,
      "stateMutability": "view",
      "type": "function"
    },
    {
      "constant": false,
      "inputs": [
        {
          "internalType": "address",
          "name": "account",
          "type": "address"
        }
      ],
      "name": "removeAssistant",
      "outputs": [],
      "payable": false,
      "stateMutability": "nonpayable",
      "type": "function"
    },
    {
      "constant": false,
      "inputs": [
        {
          "internalType": "address",
          "name": "account",
          "type": "address"
        }
      ],
      "name": "removeMedic",
      "outputs": [],
      "payable": false,
      "stateMutability": "nonpayable",
      "type": "function"
    },
    {
      "constant": false,
      "inputs": [
        {
          "internalType": "address",
          "name": "account",
          "type": "address"
        }
      ],
      "name": "removePatient",
      "outputs": [],
      "payable": false,
      "stateMutability": "nonpayable",
      "type": "function"
    },
    {
      "constant": false,
      "inputs": [],
      "name": "renounceAdmin",
      "outputs": [],
      "payable": false,
      "stateMutability": "nonpayable",
      "type": "function"
    },
    {
      "constant": false,
      "inputs": [],
      "name": "renounceMedic",
      "outputs": [],
      "payable": false,
      "stateMutability": "nonpayable",
      "type": "function"
    },
    {
      "constant": false,
      "inputs": [
        {
          "internalType": "bool",
          "name": "_stop",
          "type": "bool"
        }
      ],
      "name": "emergencyStop",
      "outputs": [],
      "payable": false,
      "stateMutability": "nonpayable",
      "type": "function"
    },
    {
      "constant": false,
      "inputs": [
        {
          "internalType": "address",
          "name": "account",
          "type": "address"
        }
      ],
      "name": "addAssistant",
      "outputs": [],
      "payable": false,
      "stateMutability": "nonpayable",
      "type": "function"
    },
    {
      "constant": false,
      "inputs": [
        {
          "internalType": "address",
          "name": "_account",
          "type": "address"
        },
        {
          "internalType": "string",
          "name": "_name",
          "type": "string"
        },
        {
          "internalType": "string",
          "name": "_aPat",
          "type": "string"
        },
        {
          "internalType": "string",
          "name": "_aMat",
          "type": "string"
        },
        {
          "internalType": "string",
          "name": "_curp",
          "type": "string"
        },
        {
          "internalType": "string",
          "name": "_hashPicture",
          "type": "string"
        }
      ],
      "name": "addAssistant",
      "outputs": [
        {
          "internalType": "bool",
          "name": "_success",
          "type": "bool"
        }
      ],
      "payable": false,
      "stateMutability": "nonpayable",
      "type": "function"
    },
    {
      "constant": false,
      "inputs": [
        {
          "internalType": "address",
          "name": "_account",
          "type": "address"
        },
        {
          "internalType": "string",
          "name": "_name",
          "type": "string"
        },
        {
          "internalType": "string",
          "name": "_aPat",
          "type": "string"
        },
        {
          "internalType": "string",
          "name": "_aMat",
          "type": "string"
        },
        {
          "internalType": "string",
          "name": "_curp",
          "type": "string"
        },
        {
          "internalType": "string",
          "name": "_hashPicture",
          "type": "string"
        },
        {
          "internalType": "uint256",
          "name": "_date",
          "type": "uint256"
        }
      ],
      "name": "updateAssistant",
      "outputs": [
        {
          "internalType": "bool",
          "name": "_success",
          "type": "bool"
        }
      ],
      "payable": false,
      "stateMutability": "nonpayable",
      "type": "function"
    },
    {
      "constant": false,
      "inputs": [
        {
          "internalType": "address",
          "name": "_account",
          "type": "address"
        },
        {
          "internalType": "uint256",
          "name": "_date",
          "type": "uint256"
        }
      ],
      "name": "viewAssistant",
      "outputs": [
        {
          "internalType": "string",
          "name": "name",
          "type": "string"
        },
        {
          "internalType": "string",
          "name": "aPat",
          "type": "string"
        },
        {
          "internalType": "string",
          "name": "aMat",
          "type": "string"
        },
        {
          "internalType": "string",
          "name": "curp",
          "type": "string"
        },
        {
          "internalType": "string",
          "name": "hashPicture",
          "type": "string"
        }
      ],
      "payable": false,
      "stateMutability": "nonpayable",
      "type": "function"
    },
    {
      "constant": false,
      "inputs": [
        {
          "internalType": "address",
          "name": "_account",
          "type": "address"
        },
        {
          "internalType": "uint256",
          "name": "_date",
          "type": "uint256"
        }
      ],
      "name": "deleteAssistant",
      "outputs": [
        {
          "internalType": "bool",
          "name": "_success",
          "type": "bool"
        }
      ],
      "payable": false,
      "stateMutability": "nonpayable",
      "type": "function"
    }
  ],
  "bytecode": "0x60806040526000600560006101000a81548160ff02191690831515021790555062000030336200003660201b60201c565b62000272565b62000051816000620000ae60201b6200379e1790919060201c565b3373ffffffffffffffffffffffffffffffffffffffff168173ffffffffffffffffffffffffffffffffffffffff167fbf3f493c772c8c283fd124432c2d0f539ab343faa04258fe88e52912d36b102b60405160405180910390a350565b620000c082826200019260201b60201c565b1562000134576040517f08c379a000000000000000000000000000000000000000000000000000000000815260040180806020018281038252601f8152602001807f526f6c65733a206163636f756e7420616c72656164792068617320726f6c650081525060200191505060405180910390fd5b60018260000160008373ffffffffffffffffffffffffffffffffffffffff1673ffffffffffffffffffffffffffffffffffffffff16815260200190815260200160002060006101000a81548160ff0219169083151502179055505050565b60008073ffffffffffffffffffffffffffffffffffffffff168273ffffffffffffffffffffffffffffffffffffffff1614156200021b576040517f08c379a000000000000000000000000000000000000000000000000000000000815260040180806020018281038252602281526020018062003d276022913960400191505060405180910390fd5b8260000160008373ffffffffffffffffffffffffffffffffffffffff1673ffffffffffffffffffffffffffffffffffffffff16815260200190815260200160002060009054906101000a900460ff16905092915050565b613aa580620002826000396000f3fe608060405234801561001057600080fd5b50600436106101215760003560e01c80637d0d6257116100ad578063b0397ff811610071578063b0397ff814610c27578063b8792f0b14610c6b578063bf72b9f514610caf578063c6584bb814610ffe578063eae3ef8a1461105a57610121565b80637d0d6257146107be5780638bad0c0a146108025780638f9c79ed1461080c578063a8d667a714610868578063b00284c3146108ce57610121565b80635b4aaf4e116100f45780635b4aaf4e146104375780635c8b67df146106ae5780636d263ceb146106f257806370480275146107365780637d01dbc21461077a57610121565b80630ac62e021461012357806324d7806c1461015357806333dc0abd146101af578063392dce49146101b9575b005b6101516004803603602081101561013957600080fd5b810190808035151590602001909291905050506110b6565b005b6101956004803603602081101561016957600080fd5b81019080803573ffffffffffffffffffffffffffffffffffffffff169060200190929190505050611183565b604051808215151515815260200191505060405180910390f35b6101b76111a0565b005b610205600480360360408110156101cf57600080fd5b81019080803573ffffffffffffffffffffffffffffffffffffffff16906020019092919080359060200190929190505050611209565b60405180806020018060200180602001806020018060200187815260200186810386528c818151815260200191508051906020019080838360005b8381101561025b578082015181840152602081019050610240565b50505050905090810190601f1680156102885780820380516001836020036101000a031916815260200191505b5086810385528b818151815260200191508051906020019080838360005b838110156102c15780820151818401526020810190506102a6565b50505050905090810190601f1680156102ee5780820380516001836020036101000a031916815260200191505b5086810384528a818151815260200191508051906020019080838360005b8381101561032757808201518184015260208101905061030c565b50505050905090810190601f1680156103545780820380516001836020036101000a031916815260200191505b50868103835289818151815260200191508051906020019080838360005b8381101561038d578082015181840152602081019050610372565b50505050905090810190601f1680156103ba5780820380516001836020036101000a031916815260200191505b50868103825288818151815260200191508051906020019080838360005b838110156103f35780820151818401526020810190506103d8565b50505050905090810190601f1680156104205780820380516001836020036101000a031916815260200191505b509b50505050505050505050505060405180910390f35b6104836004803603604081101561044d57600080fd5b81019080803573ffffffffffffffffffffffffffffffffffffffff16906020019092919080359060200190929190505050611557565b60405180806020018060200180602001806020018060200186810386528b818151815260200191508051906020019080838360005b838110156104d35780820151818401526020810190506104b8565b50505050905090810190601f1680156105005780820380516001836020036101000a031916815260200191505b5086810385528a818151815260200191508051906020019080838360005b8381101561053957808201518184015260208101905061051e565b50505050905090810190601f1680156105665780820380516001836020036101000a031916815260200191505b50868103845289818151815260200191508051906020019080838360005b8381101561059f578082015181840152602081019050610584565b50505050905090810190601f1680156105cc5780820380516001836020036101000a031916815260200191505b50868103835288818151815260200191508051906020019080838360005b838110156106055780820151818401526020810190506105ea565b50505050905090810190601f1680156106325780820380516001836020036101000a031916815260200191505b50868103825287818151815260200191508051906020019080838360005b8381101561066b578082015181840152602081019050610650565b50505050905090810190601f1680156106985780820380516001836020036101000a031916815260200191505b509a505050505050505050505060405180910390f35b6106f0600480360360208110156106c457600080fd5b81019080803573ffffffffffffffffffffffffffffffffffffffff169060200190929190505050611d98565b005b6107346004803603602081101561070857600080fd5b81019080803573ffffffffffffffffffffffffffffffffffffffff169060200190929190505050611e02565b005b6107786004803603602081101561074c57600080fd5b81019080803573ffffffffffffffffffffffffffffffffffffffff169060200190929190505050611e7c565b005b6107bc6004803603602081101561079057600080fd5b81019080803573ffffffffffffffffffffffffffffffffffffffff169060200190929190505050611ee6565b005b610800600480360360208110156107d457600080fd5b81019080803573ffffffffffffffffffffffffffffffffffffffff169060200190929190505050611f50565b005b61080a611fba565b005b61084e6004803603602081101561082257600080fd5b81019080803573ffffffffffffffffffffffffffffffffffffffff169060200190929190505050611fc5565b604051808215151515815260200191505060405180910390f35b6108b46004803603604081101561087e57600080fd5b81019080803573ffffffffffffffffffffffffffffffffffffffff16906020019092919080359060200190929190505050611fe2565b604051808215151515815260200191505060405180910390f35b610c0d600480360360e08110156108e457600080fd5b81019080803573ffffffffffffffffffffffffffffffffffffffff1690602001909291908035906020019064010000000081111561092157600080fd5b82018360208201111561093357600080fd5b8035906020019184600183028401116401000000008311171561095557600080fd5b91908080601f016020809104026020016040519081016040528093929190818152602001838380828437600081840152601f19601f820116905080830192505050505050509192919290803590602001906401000000008111156109b857600080fd5b8201836020820111156109ca57600080fd5b803590602001918460018302840111640100000000831117156109ec57600080fd5b91908080601f016020809104026020016040519081016040528093929190818152602001838380828437600081840152601f19601f82011690508083019250505050505050919291929080359060200190640100000000811115610a4f57600080fd5b820183602082011115610a6157600080fd5b80359060200191846001830284011164010000000083111715610a8357600080fd5b91908080601f016020809104026020016040519081016040528093929190818152602001838380828437600081840152601f19601f82011690508083019250505050505050919291929080359060200190640100000000811115610ae657600080fd5b820183602082011115610af857600080fd5b80359060200191846001830284011164010000000083111715610b1a57600080fd5b91908080601f016020809104026020016040519081016040528093929190818152602001838380828437600081840152601f19601f82011690508083019250505050505050919291929080359060200190640100000000811115610b7d57600080fd5b820183602082011115610b8f57600080fd5b80359060200191846001830284011164010000000083111715610bb157600080fd5b91908080601f016020809104026020016040519081016040528093929190818152602001838380828437600081840152601f19601f820116905080830192505050505050509192919290803590602001909291905050506123bd565b604051808215151515815260200191505060405180910390f35b610c6960048036036020811015610c3d57600080fd5b81019080803573ffffffffffffffffffffffffffffffffffffffff169060200190929190505050612c0f565b005b610cad60048036036020811015610c8157600080fd5b81019080803573ffffffffffffffffffffffffffffffffffffffff169060200190929190505050612c79565b005b610fe4600480360360c0811015610cc557600080fd5b81019080803573ffffffffffffffffffffffffffffffffffffffff16906020019092919080359060200190640100000000811115610d0257600080fd5b820183602082011115610d1457600080fd5b80359060200191846001830284011164010000000083111715610d3657600080fd5b91908080601f016020809104026020016040519081016040528093929190818152602001838380828437600081840152601f19601f82011690508083019250505050505050919291929080359060200190640100000000811115610d9957600080fd5b820183602082011115610dab57600080fd5b80359060200191846001830284011164010000000083111715610dcd57600080fd5b91908080601f016020809104026020016040519081016040528093929190818152602001838380828437600081840152601f19601f82011690508083019250505050505050919291929080359060200190640100000000811115610e3057600080fd5b820183602082011115610e4257600080fd5b80359060200191846001830284011164010000000083111715610e6457600080fd5b91908080601f016020809104026020016040519081016040528093929190818152602001838380828437600081840152601f19601f82011690508083019250505050505050919291929080359060200190640100000000811115610ec757600080fd5b820183602082011115610ed957600080fd5b80359060200191846001830284011164010000000083111715610efb57600080fd5b91908080601f016020809104026020016040519081016040528093929190818152602001838380828437600081840152601f19601f82011690508083019250505050505050919291929080359060200190640100000000811115610f5e57600080fd5b820183602082011115610f7057600080fd5b80359060200191846001830284011164010000000083111715610f9257600080fd5b91908080601f016020809104026020016040519081016040528093929190818152602001838380828437600081840152601f19601f820116905080830192505050505050509192919290505050612ce3565b604051808215151515815260200191505060405180910390f35b6110406004803603602081101561101457600080fd5b81019080803573ffffffffffffffffffffffffffffffffffffffff1690602001909291905050506131b8565b604051808215151515815260200191505060405180910390f35b61109c6004803603602081101561107057600080fd5b81019080803573ffffffffffffffffffffffffffffffffffffffff1690602001909291905050506131d5565b604051808215151515815260200191505060405180910390f35b6110bf33611183565b611114576040517f08c379a000000000000000000000000000000000000000000000000000000000815260040180806020018281038252602b815260200180613a46602b913960400191505060405180910390fd5b80600560006101000a81548160ff0219169083151502179055503373ffffffffffffffffffffffffffffffffffffffff167f58b15338e6499b2b2827d169f60332c3b4b476fcd06b9a3c7e37afa77c49228e82604051808215151515815260200191505060405180910390a250565b60006111998260006131f290919063ffffffff16565b9050919050565b6111a9336131d5565b6111fe576040517f08c379a000000000000000000000000000000000000000000000000000000000815260040180806020018281038252602d8152602001806139d6602d913960400191505060405180910390fd5b611207336132d0565b565b6004602052816000526040600020818154811061122257fe5b906000526020600020906006020160009150915050806000018054600181600116156101000203166002900480601f0160208091040260200160405190810160405280929190818152602001828054600181600116156101000203166002900480156112cf5780601f106112a4576101008083540402835291602001916112cf565b820191906000526020600020905b8154815290600101906020018083116112b257829003601f168201915b505050505090806001018054600181600116156101000203166002900480601f01602080910402602001604051908101604052809291908181526020018280546001816001161561010002031660029004801561136d5780601f106113425761010080835404028352916020019161136d565b820191906000526020600020905b81548152906001019060200180831161135057829003601f168201915b505050505090806002018054600181600116156101000203166002900480601f01602080910402602001604051908101604052809291908181526020018280546001816001161561010002031660029004801561140b5780601f106113e05761010080835404028352916020019161140b565b820191906000526020600020905b8154815290600101906020018083116113ee57829003601f168201915b505050505090806003018054600181600116156101000203166002900480601f0160208091040260200160405190810160405280929190818152602001828054600181600116156101000203166002900480156114a95780601f1061147e576101008083540402835291602001916114a9565b820191906000526020600020905b81548152906001019060200180831161148c57829003601f168201915b505050505090806004018054600181600116156101000203166002900480601f0160208091040260200160405190810160405280929190818152602001828054600181600116156101000203166002900480156115475780601f1061151c57610100808354040283529160200191611547565b820191906000526020600020905b81548152906001019060200180831161152a57829003601f168201915b5050505050908060050154905086565b6060806060806060600560009054906101000a900460ff161561157957600080fd5b61158233611183565b6115d7576040517f08c379a000000000000000000000000000000000000000000000000000000000815260040180806020018281038252602b815260200180613a46602b913960400191505060405180910390fd5b6115e033611183565b1561161f578673ffffffffffffffffffffffffffffffffffffffff163373ffffffffffffffffffffffffffffffffffffffff16141561161e57600080fd5b5b600073ffffffffffffffffffffffffffffffffffffffff168773ffffffffffffffffffffffffffffffffffffffff16141561165957600080fd5b6000861015801561168a57507fffffffffffffffffffffffffffffffffffffffffffffffffffffffffffffffff8611155b61169357600080fd5b6000600460008973ffffffffffffffffffffffffffffffffffffffff1673ffffffffffffffffffffffffffffffffffffffff16815260200190815260200160002080549050116116e257600080fd5b600042905060006116f289613341565b90506116fc613879565b60008090505b82811015611ac157600460008c73ffffffffffffffffffffffffffffffffffffffff1673ffffffffffffffffffffffffffffffffffffffff168152602001908152602001600020818154811061175457fe5b90600052602060002090600602016040518060c0016040529081600082018054600181600116156101000203166002900480601f0160208091040260200160405190810160405280929190818152602001828054600181600116156101000203166002900480156118065780601f106117db57610100808354040283529160200191611806565b820191906000526020600020905b8154815290600101906020018083116117e957829003601f168201915b50505050508152602001600182018054600181600116156101000203166002900480601f0160208091040260200160405190810160405280929190818152602001828054600181600116156101000203166002900480156118a85780601f1061187d576101008083540402835291602001916118a8565b820191906000526020600020905b81548152906001019060200180831161188b57829003601f168201915b50505050508152602001600282018054600181600116156101000203166002900480601f01602080910402602001604051908101604052809291908181526020018280546001816001161561010002031660029004801561194a5780601f1061191f5761010080835404028352916020019161194a565b820191906000526020600020905b81548152906001019060200180831161192d57829003601f168201915b50505050508152602001600382018054600181600116156101000203166002900480601f0160208091040260200160405190810160405280929190818152602001828054600181600116156101000203166002900480156119ec5780601f106119c1576101008083540402835291602001916119ec565b820191906000526020600020905b8154815290600101906020018083116119cf57829003601f168201915b50505050508152602001600482018054600181600116156101000203166002900480601f016020809104026020016040519081016040528092919081815260200182805460018160011615610100020316600290048015611a8e5780601f10611a6357610100808354040283529160200191611a8e565b820191906000526020600020905b815481529060010190602001808311611a7157829003601f168201915b505050505081526020016005820154815250509150898260a001511415611ab457611ac1565b8080600101915050611702565b503373ffffffffffffffffffffffffffffffffffffffff168a73ffffffffffffffffffffffffffffffffffffffff167f28fd7f2661662d2d2a6c26d8e8ce400adbb96c90835afe78174bd9b26673066f836000015184602001518560400151866060015187608001518860a001518b60405180806020018060200180602001806020018060200188815260200187815260200186810386528d818151815260200191508051906020019080838360005b83811015611b8c578082015181840152602081019050611b71565b50505050905090810190601f168015611bb95780820380516001836020036101000a031916815260200191505b5086810385528c818151815260200191508051906020019080838360005b83811015611bf2578082015181840152602081019050611bd7565b50505050905090810190601f168015611c1f5780820380516001836020036101000a031916815260200191505b5086810384528b818151815260200191508051906020019080838360005b83811015611c58578082015181840152602081019050611c3d565b50505050905090810190601f168015611c855780820380516001836020036101000a031916815260200191505b5086810383528a818151815260200191508051906020019080838360005b83811015611cbe578082015181840152602081019050611ca3565b50505050905090810190601f168015611ceb5780820380516001836020036101000a031916815260200191505b50868103825289818151815260200191508051906020019080838360005b83811015611d24578082015181840152602081019050611d09565b50505050905090810190601f168015611d515780820380516001836020036101000a031916815260200191505b509c5050505050505050505050505060405180910390a380600001519750806020015196508060400151955080606001519450806080015193505050509295509295909350565b611da133611183565b611df6576040517f08c379a000000000000000000000000000000000000000000000000000000000815260040180806020018281038252602b815260200180613a46602b913960400191505060405180910390fd5b611dff816133e1565b50565b611e0b336131b8565b80611e1b5750611e1a336131d5565b5b611e70576040517f08c379a000000000000000000000000000000000000000000000000000000000815260040180806020018281038252603981526020018061399d6039913960400191505060405180910390fd5b611e7981613452565b50565b611e8533611183565b611eda576040517f08c379a000000000000000000000000000000000000000000000000000000000815260040180806020018281038252602b815260200180613a46602b913960400191505060405180910390fd5b611ee3816134c3565b50565b611eef33611183565b611f44576040517f08c379a000000000000000000000000000000000000000000000000000000000815260040180806020018281038252602b815260200180613a46602b913960400191505060405180910390fd5b611f4d816132d0565b50565b611f59336131d5565b611fae576040517f08c379a000000000000000000000000000000000000000000000000000000000815260040180806020018281038252602d8152602001806139d6602d913960400191505060405180910390fd5b611fb781613534565b50565b611fc3336135a5565b565b6000611fdb8260026131f290919063ffffffff16565b9050919050565b6000600560009054906101000a900460ff1615611ffe57600080fd5b61200733611183565b61205c576040517f08c379a000000000000000000000000000000000000000000000000000000000815260040180806020018281038252602b815260200180613a46602b913960400191505060405180910390fd5b600073ffffffffffffffffffffffffffffffffffffffff168373ffffffffffffffffffffffffffffffffffffffff16141561209657600080fd5b600082101580156120c757507fffffffffffffffffffffffffffffffffffffffffffffffffffffffffffffffff8211155b6120d057600080fd5b6000600460008573ffffffffffffffffffffffffffffffffffffffff1673ffffffffffffffffffffffffffffffffffffffff168152602001908152602001600020805490501161211f57600080fd5b6000429050600061212f85613341565b905060008090505b818110156123b05784600460008873ffffffffffffffffffffffffffffffffffffffff1673ffffffffffffffffffffffffffffffffffffffff168152602001908152602001600020828154811061218a57fe5b90600052602060002090600602016005015414156123a3573373ffffffffffffffffffffffffffffffffffffffff168673ffffffffffffffffffffffffffffffffffffffff167f4fe2d4b68a1f3052c23a44b79f2e2dc8c05a4a405a2593ee7a5efb1b7f6c712b600460008a73ffffffffffffffffffffffffffffffffffffffff1673ffffffffffffffffffffffffffffffffffffffff168152602001908152602001600020848154811061223b57fe5b90600052602060002090600602016004018660405180806020018381526020018281038252848181546001816001161561010002031660029004815260200191508054600181600116156101000203166002900480156122dc5780601f106122b1576101008083540402835291602001916122dc565b820191906000526020600020905b8154815290600101906020018083116122bf57829003601f168201915b5050935050505060405180910390a3600460008773ffffffffffffffffffffffffffffffffffffffff1673ffffffffffffffffffffffffffffffffffffffff168152602001908152602001600020818154811061233557fe5b90600052602060002090600602016000808201600061235491906138af565b60018201600061236491906138af565b60028201600061237491906138af565b60038201600061238491906138af565b60048201600061239491906138af565b600582016000905550506123b0565b8080600101915050612137565b5060019250505092915050565b6000600560009054906101000a900460ff16156123d957600080fd5b6123e233611183565b612437576040517f08c379a000000000000000000000000000000000000000000000000000000000815260040180806020018281038252602b815260200180613a46602b913960400191505060405180910390fd5b600073ffffffffffffffffffffffffffffffffffffffff168873ffffffffffffffffffffffffffffffffffffffff16141561247157600080fd5b603287511061247f57600080fd5b601e86511061248d57600080fd5b601e85511061249b57600080fd5b60058451146124a957600080fd5b60058351146124b757600080fd5b600082101580156124e857507fffffffffffffffffffffffffffffffffffffffffffffffffffffffffffffffff8211155b6124f157600080fd5b6000600460008a73ffffffffffffffffffffffffffffffffffffffff1673ffffffffffffffffffffffffffffffffffffffff168152602001908152602001600020805490501161254057600080fd5b600042905060006125508a613341565b905061255a613879565b60008090505b8281101561291f57600460008d73ffffffffffffffffffffffffffffffffffffffff1673ffffffffffffffffffffffffffffffffffffffff16815260200190815260200160002081815481106125b257fe5b90600052602060002090600602016040518060c0016040529081600082018054600181600116156101000203166002900480601f0160208091040260200160405190810160405280929190818152602001828054600181600116156101000203166002900480156126645780601f1061263957610100808354040283529160200191612664565b820191906000526020600020905b81548152906001019060200180831161264757829003601f168201915b50505050508152602001600182018054600181600116156101000203166002900480601f0160208091040260200160405190810160405280929190818152602001828054600181600116156101000203166002900480156127065780601f106126db57610100808354040283529160200191612706565b820191906000526020600020905b8154815290600101906020018083116126e957829003601f168201915b50505050508152602001600282018054600181600116156101000203166002900480601f0160208091040260200160405190810160405280929190818152602001828054600181600116156101000203166002900480156127a85780601f1061277d576101008083540402835291602001916127a8565b820191906000526020600020905b81548152906001019060200180831161278b57829003601f168201915b50505050508152602001600382018054600181600116156101000203166002900480601f01602080910402602001604051908101604052809291908181526020018280546001816001161561010002031660029004801561284a5780601f1061281f5761010080835404028352916020019161284a565b820191906000526020600020905b81548152906001019060200180831161282d57829003601f168201915b50505050508152602001600482018054600181600116156101000203166002900480601f0160208091040260200160405190810160405280929190818152602001828054600181600116156101000203166002900480156128ec5780601f106128c1576101008083540402835291602001916128ec565b820191906000526020600020905b8154815290600101906020018083116128cf57829003601f168201915b505050505081526020016005820154815250509150858260a0015114156129125761291f565b8080600101915050612560565b50898160000181905250888160200181905250878160400181905250868160600181905250858160800181905250848160a00181815250503373ffffffffffffffffffffffffffffffffffffffff168b73ffffffffffffffffffffffffffffffffffffffff167f6574c4578d7190be305a97dbdfda73b095a5e0d8700ace43f1b43da4140a197b836000015184602001518560400151866060015187608001518860a001518b60405180806020018060200180602001806020018060200188815260200187815260200186810386528d818151815260200191508051906020019080838360005b83811015612a21578082015181840152602081019050612a06565b50505050905090810190601f168015612a4e5780820380516001836020036101000a031916815260200191505b5086810385528c818151815260200191508051906020019080838360005b83811015612a87578082015181840152602081019050612a6c565b50505050905090810190601f168015612ab45780820380516001836020036101000a031916815260200191505b5086810384528b818151815260200191508051906020019080838360005b83811015612aed578082015181840152602081019050612ad2565b50505050905090810190601f168015612b1a5780820380516001836020036101000a031916815260200191505b5086810383528a818151815260200191508051906020019080838360005b83811015612b53578082015181840152602081019050612b38565b50505050905090810190601f168015612b805780820380516001836020036101000a031916815260200191505b50868103825289818151815260200191508051906020019080838360005b83811015612bb9578082015181840152602081019050612b9e565b50505050905090810190601f168015612be65780820380516001836020036101000a031916815260200191505b509c5050505050505050505050505060405180910390a360019350505050979650505050505050565b612c1833611183565b612c6d576040517f08c379a000000000000000000000000000000000000000000000000000000000815260040180806020018281038252602b815260200180613a46602b913960400191505060405180910390fd5b612c76816135ff565b50565b612c8233611183565b612cd7576040517f08c379a000000000000000000000000000000000000000000000000000000000815260040180806020018281038252602b815260200180613a46602b913960400191505060405180910390fd5b612ce081613670565b50565b6000600560009054906101000a900460ff1615612cff57600080fd5b612d0833611183565b612d5d576040517f08c379a000000000000000000000000000000000000000000000000000000000815260040180806020018281038252602b815260200180613a46602b913960400191505060405180910390fd5b600073ffffffffffffffffffffffffffffffffffffffff168773ffffffffffffffffffffffffffffffffffffffff161415612d9757600080fd5b6032865110612da557600080fd5b601e855110612db357600080fd5b601e845110612dc157600080fd5b6005835114612dcf57600080fd5b6005825114612ddd57600080fd5b6000429050612dea613879565b6040518060c00160405280898152602001888152602001878152602001868152602001858152602001838152509050600460008a73ffffffffffffffffffffffffffffffffffffffff1673ffffffffffffffffffffffffffffffffffffffff16815260200190815260200160002081908060018154018082558091505090600182039060005260206000209060060201600090919290919091506000820151816000019080519060200190612ea09291906138f7565b506020820151816001019080519060200190612ebd9291906138f7565b506040820151816002019080519060200190612eda9291906138f7565b506060820151816003019080519060200190612ef79291906138f7565b506080820151816004019080519060200190612f149291906138f7565b5060a082015181600501555050503373ffffffffffffffffffffffffffffffffffffffff168973ffffffffffffffffffffffffffffffffffffffff167f9b9851c66ed693ccce632beb9c07033233d8ae4592c11ec3e0c035cab168e02e8a8a8a8a8a8960405180806020018060200180602001806020018060200187815260200186810386528c818151815260200191508051906020019080838360005b83811015612fcd578082015181840152602081019050612fb2565b50505050905090810190601f168015612ffa5780820380516001836020036101000a031916815260200191505b5086810385528b818151815260200191508051906020019080838360005b83811015613033578082015181840152602081019050613018565b50505050905090810190601f1680156130605780820380516001836020036101000a031916815260200191505b5086810384528a818151815260200191508051906020019080838360005b8381101561309957808201518184015260208101905061307e565b50505050905090810190601f1680156130c65780820380516001836020036101000a031916815260200191505b50868103835289818151815260200191508051906020019080838360005b838110156130ff5780820151818401526020810190506130e4565b50505050905090810190601f16801561312c5780820380516001836020036101000a031916815260200191505b50868103825288818151815260200191508051906020019080838360005b8381101561316557808201518184015260208101905061314a565b50505050905090810190601f1680156131925780820380516001836020036101000a031916815260200191505b509b50505050505050505050505060405180910390a36001925050509695505050505050565b60006131ce8260036131f290919063ffffffff16565b9050919050565b60006131eb8260016131f290919063ffffffff16565b9050919050565b60008073ffffffffffffffffffffffffffffffffffffffff168273ffffffffffffffffffffffffffffffffffffffff161415613279576040517f08c379a0000000000000000000000000000000000000000000000000000000008152600401808060200182810382526022815260200180613a246022913960400191505060405180910390fd5b8260000160008373ffffffffffffffffffffffffffffffffffffffff1673ffffffffffffffffffffffffffffffffffffffff16815260200190815260200160002060009054906101000a900460ff16905092915050565b6132e48160016136e190919063ffffffff16565b3373ffffffffffffffffffffffffffffffffffffffff168173ffffffffffffffffffffffffffffffffffffffff167fb35968fdda9034197de288afbe8a2947dedade83d7dbc0de3e340d4f62ce64dc60405160405180910390a350565b6000600560009054906101000a900460ff161561335d57600080fd5b600073ffffffffffffffffffffffffffffffffffffffff168273ffffffffffffffffffffffffffffffffffffffff16141561339757600080fd5b600460008373ffffffffffffffffffffffffffffffffffffffff1673ffffffffffffffffffffffffffffffffffffffff168152602001908152602001600020805490509050919050565b6133f581600361379e90919063ffffffff16565b3373ffffffffffffffffffffffffffffffffffffffff168173ffffffffffffffffffffffffffffffffffffffff167f7fef988ea6e2f03c1f9fb16df333b2a7911dfb096f5c563866713c1c9517ec7060405160405180910390a350565b61346681600261379e90919063ffffffff16565b3373ffffffffffffffffffffffffffffffffffffffff168173ffffffffffffffffffffffffffffffffffffffff167ff6dfb9f71429364456283a1521c30cc400d799d7b381d7ce164687f11c18dbaf60405160405180910390a350565b6134d781600061379e90919063ffffffff16565b3373ffffffffffffffffffffffffffffffffffffffff168173ffffffffffffffffffffffffffffffffffffffff167fbf3f493c772c8c283fd124432c2d0f539ab343faa04258fe88e52912d36b102b60405160405180910390a350565b6135488160026136e190919063ffffffff16565b3373ffffffffffffffffffffffffffffffffffffffff168173ffffffffffffffffffffffffffffffffffffffff167fd00481c3fc5867ec74704c9c99334b8d53c7735c947bdcb6cbebcae6740ed94060405160405180910390a350565b6135b98160006136e190919063ffffffff16565b8073ffffffffffffffffffffffffffffffffffffffff167f583e7032182b053f2bcd5e3ac78021a3c8d321735043ee84032742c9a6528afd60405160405180910390a250565b61361381600161379e90919063ffffffff16565b3373ffffffffffffffffffffffffffffffffffffffff168173ffffffffffffffffffffffffffffffffffffffff167f93b0ab94930bbad064296971ea5e731f84ae511662781bcaf28543ab9042368a60405160405180910390a350565b6136848160036136e190919063ffffffff16565b3373ffffffffffffffffffffffffffffffffffffffff168173ffffffffffffffffffffffffffffffffffffffff167f83bb2e314d2b42b828b2082c5f08a3b9162d6322fe9b8bdaa47dc3d26ce183af60405160405180910390a350565b6136eb82826131f2565b613740576040517f08c379a0000000000000000000000000000000000000000000000000000000008152600401808060200182810382526021815260200180613a036021913960400191505060405180910390fd5b60008260000160008373ffffffffffffffffffffffffffffffffffffffff1673ffffffffffffffffffffffffffffffffffffffff16815260200190815260200160002060006101000a81548160ff0219169083151502179055505050565b6137a882826131f2565b1561381b576040517f08c379a000000000000000000000000000000000000000000000000000000000815260040180806020018281038252601f8152602001807f526f6c65733a206163636f756e7420616c72656164792068617320726f6c650081525060200191505060405180910390fd5b60018260000160008373ffffffffffffffffffffffffffffffffffffffff1673ffffffffffffffffffffffffffffffffffffffff16815260200190815260200160002060006101000a81548160ff0219169083151502179055505050565b6040518060c001604052806060815260200160608152602001606081526020016060815260200160608152602001600081525090565b50805460018160011615610100020316600290046000825580601f106138d557506138f4565b601f0160209004906000526020600020908101906138f39190613977565b5b50565b828054600181600116156101000203166002900490600052602060002090601f016020900481019282601f1061393857805160ff1916838001178555613966565b82800160010185558215613966579182015b8281111561396557825182559160200191906001019061394a565b5b5090506139739190613977565b5090565b61399991905b8082111561399557600081600090555060010161397d565b5090565b9056fe4e6f207365206375656e746120636f6e20656c20726f6c2065737065636966696361646f284173697374656e7465206f206dc3a96469636f294e6f207365206375656e746120636f6e20656c20726f6c2065737065636966696361646f284dc3a96469636f29526f6c65733a206163636f756e7420646f6573206e6f74206861766520726f6c65526f6c65733a206163636f756e7420697320746865207a65726f20616464726573734e6f207365206375656e746120636f6e20656c20726f6c2065737065636966696361646f2841646d696e29a265627a7a72315820eca7b78110e35519c45687207fd7ffdb63ea680cdfa6c4fe91a014dc91edd69064736f6c63430005100032526f6c65733a206163636f756e7420697320746865207a65726f2061646472657373",
  "source": "pragma solidity 0.5.16;\nimport \"./acceso/UserRoles.sol\";\n\n/**\n * @title Smart Contract de Registro de asistentes - El administrador agrega un asistente.\n * @author Francisco Alemn\n * @notice Este contrato representa el registro de un asistente.\n * @dev El contrato hereda las funciones del contrato de roles\n */\n\ncontract AssistantRegister is UserRoles {\n     /**\n     * @title Representa los datos del asistente.\n     */\n    struct Asistente {\n        string name;\n        string aPat;\n        string aMat;\n        string curp;\n        string hashPicture;\n        uint256 date;\n    }\n\n    /**\n     * @notice Mapea la direccin a la lista de asistentes..\n     */\n    mapping (address => Asistente[]) public fileToAssistant;\n\n    /**\n     * @notice Patrn de switch para encender/apagar\n     */\n    bool private stopped = false;\n\n    /**\n     * @dev Eventos que sern registrados en la blockchain.\n     */\n    event AssistantAdded(\n        address indexed _assistant,\n        address indexed _admin,\n        string _name,\n        string _aPat,\n        string _aMat,\n        string _curp,\n        string _hashPicture,\n        uint256 date);\n\n    event AssistantUpdate(\n        address indexed _assistant,\n        address indexed _admin,\n        string _name,\n        string _aPat,\n        string _aMat,\n        string _curp,\n        string _hashPicture,\n        uint256 _date,\n        uint256 _queryDate);\n\n    event AssistantRetrieve(\n        address indexed _assistant,\n        address indexed _admin,\n        string _name,\n        string _aPat,\n        string _aMat,\n        string  _curp,\n        string  _hashPicture,\n        uint256 _date,\n        uint256 _queryDate);\n\n    event AssistantDelete(\n        address indexed _assistant,\n        address indexed _admin,\n        string _hashPicture,\n        uint256 _date);\n\n    /**\n    * @dev Indica que se ha puesto el contrato en pausa.\n    * @param _admin Un administrador\n    * @param _stop Indica cuando hay una pausa o una reanudacin.\n    */\n    event LogSwitchStop(\n        address indexed _admin,\n        bool _stop\n    );\n\n    /**\n    * @dev Previene de ejecucin del contrato\n    */\n    modifier nonlyStopped {\n        require(!stopped);\n        _;\n    }\n\n    /**\n    * @dev Est funcin ser llamada para todos los mensajes que sean enviados a este contrado.\n    * Enviar Ether a este contrato ocasionar una excepcin, dado que las funciones no tienen un modificador de pago.\n    */\n    function() external {}\n\n    /**\n    * @notice Pausar el contrato\n    * Se detiene el contrato bajo ciertas condiciones.\n    * Sera til cuando nuevos errores sean descubiertos.\n    * @param _stop Switch del contrado de encendido/apagado\n    */\n    function emergencyStop(bool _stop) public onlyAdmin {\n        stopped = _stop;\n        emit LogSwitchStop(msg.sender, _stop);\n    }\n\n     /**\n   * @dev Funcin de registro de Asistente. Esta funcin es realizada por un administrador.\n   * @param _account a\n   * @param _name a\n   * @param _aPat a\n   * @param _aMat a\n   * @param _curp a\n   * @param _hashPicture a\n   *@param _date a\n   * @return _success a\n   */\n    function addAssistant(\n        address _account,\n        string memory _name,\n        string memory _aPat,\n        string memory _aMat,\n        string memory _curp,\n        string memory _hashPicture)\n    public nonlyStopped onlyAdmin returns (bool _success) {\n        require(_account != 0x0000000000000000000000000000000000000000);\n        require(bytes(_name).length < 50);\n        require(bytes(_aPat).length < 30);\n        require(bytes(_aMat).length < 30);\n        require(bytes(_curp).length == 5);\n        require(bytes(_hashPicture).length == 5);\n        uint256 _date = now;\n\n\n        Asistente memory asistente = Asistente(\n            _name,\n            _aPat,\n            _aMat,\n            _curp,\n            _hashPicture,\n            _date\n        );\n\n        fileToAssistant[_account].push(asistente);\n\n        emit AssistantAdded(\n            _account,\n            msg.sender,\n            _name,\n            _aPat,\n            _aMat,\n            _curp,\n            _hashPicture,\n            _date\n        );\n        _success = true;\n    }\n\n    /**\n    * @notice Returns el Asistente en el ndice del propietario de la direccin.\n    * @dev Controlado por el switch\n    * @param _account Cuenta del asistente\n    */\n    function updateAssistant(\n        address _account,\n        string memory _name,\n        string memory _aPat,\n        string memory _aMat,\n        string memory _curp,\n        string memory _hashPicture,\n        uint256 _date)\n    public nonlyStopped onlyAdmin returns (bool _success) {\n        require(_account != 0x0000000000000000000000000000000000000000);\n        require(bytes(_name).length < 50);\n        require(bytes(_aPat).length < 30);\n        require(bytes(_aMat).length < 30);\n        require(bytes(_curp).length == 5);\n        require(bytes(_hashPicture).length == 5);\n        require(_date >= 0 && _date <= 2**256 - 1);\n        require(fileToAssistant[_account].length > 0);\n\n        uint256 _queryDate = now;\n        uint256 len = getAssistantCount(_account);\n        Asistente memory asistente;\n        for (uint256 i = 0; i < len; i++) {\n            asistente = fileToAssistant[_account][i];\n            if (asistente.date == _date) {\n                break;\n            }\n        }\n\n        asistente.name = _name;\n        asistente.aPat = _aPat;\n        asistente.aMat = _aMat;\n        asistente.curp = _curp;\n        asistente.hashPicture = _hashPicture;\n        asistente.date = _date;\n\n        emit AssistantUpdate(\n            _account,\n            msg.sender,\n            asistente.name,\n            asistente.aPat,\n            asistente.aMat,\n            asistente.curp,\n            asistente.hashPicture,\n            asistente.date,\n            _queryDate\n        );\n        _success = true;\n    }\n\n    /**\n    * @notice Returns el Asistente.\n    * @dev Controlado por el switch\n    * @param _account The owner address\n    * @return _date The uploaded timestamp\n    */\n    function viewAssistant(address _account, uint256 _date) public nonlyStopped onlyAdmin returns (\n        string memory name,\n        string memory aPat,\n        string memory aMat,\n        string memory curp,\n        string memory hashPicture) {\n        if (isAdmin(msg.sender)) {\n            require(msg.sender != _account);\n        }\n        require(_account != 0x0000000000000000000000000000000000000000);\n        require(_date >= 0 && _date <= 2**256 - 1);\n        require(fileToAssistant[_account].length > 0);\n\n        uint256 _queryDate = now;\n        uint256 len = getAssistantCount(_account);\n        Asistente memory asistente;\n\n        for (uint256 i = 0; i < len; i++) {\n            asistente = fileToAssistant[_account][i];\n            if (asistente.date == _date) {\n                break;\n            }\n        }\n\n        emit AssistantRetrieve(\n            _account,\n            msg.sender,\n            asistente.name,\n            asistente.aPat,\n            asistente.aMat,\n            asistente.curp,\n            asistente.hashPicture,\n            asistente.date,\n            _queryDate\n        );\n        name = asistente.name;\n        aPat = asistente.aPat;\n        aMat = asistente.aMat;\n        curp = asistente.curp;\n        hashPicture = asistente.hashPicture;\n    }\n\n    /**\n    * @notice Returns el asistente en el ndice del propietario de la direccin.\n    * @dev Controlado por el switch\n    * @param _account The owner address\n    * @return _date The uploaded timestamp\n    */\n    function deleteAssistant(address _account, uint256 _date) public nonlyStopped onlyAdmin returns (bool _success) {\n        require(_account != 0x0000000000000000000000000000000000000000);\n        require(_date >= 0 && _date <= 2**256 - 1);\n        require(fileToAssistant[_account].length > 0);\n\n        uint256 _queryDate = now;\n        uint256 len = getAssistantCount(_account);\n\n        for (uint256 i = 0; i < len; i++) {\n            if (fileToAssistant[_account][i].date == _date) {\n                emit AssistantDelete(\n                    _account,\n                    msg.sender,\n                    fileToAssistant[_account][i].hashPicture,\n                    _queryDate\n                );\n                delete fileToAssistant[_account][i];\n                break;\n            }\n        }\n        _success = true;\n    }\n\n    /**\n    * @notice Retorna el nmero de Asistente que posee cierta direccin de asistente.\n    * @dev Controlado por el switch\n    * @param _assistant El dueo de la direccin\n    * @return Retorna el nmero de Asistente\n    */\n    function getAssistantCount(address _assistant) internal view nonlyStopped returns (uint256) {\n        require(_assistant != 0x0000000000000000000000000000000000000000);\n        return fileToAssistant[_assistant].length;\n    }\n\n}\n",
  "sourcePath": "/home/seno/Maestra/Distribuidos/Backend/backend/contracts/AssistantRegister.sol",
  "compiler": {
    "name": "solc",
    "version": "0.5.16+commit.9c3226ce.Emscripten.clang"
  },
  "schemaVersion": "3.0.23",
  "updatedAt": "2020-04-27T05:52:26.297Z",
  "devdoc": {
    "author": "Francisco Alemn",
    "details": "El contrato hereda las funciones del contrato de roles",
    "methods": {
      "addAdmin(address)": {
        "details": "Funcin pblica para asignar admin",
        "params": {
          "account": "Cuenta que ser asignada como admin"
        }
      },
      "addAssistant(address)": {
        "details": "Funcin pblica para asignar asistente",
        "params": {
          "account": "Cuenta que ser asignada como asistente"
        }
      },
      "addAssistant(address,string,string,string,string,string)": {
        "details": "Funcin de registro de Asistente. Esta funcin es realizada por un administrador.",
        "params": {
          "_aMat": "a",
          "_aPat": "a",
          "_account": "a",
          "_curp": "a",
          "_hashPicture": "a param _date a",
          "_name": "a"
        },
        "return": "_success a"
      },
      "addMedic(address)": {
        "details": "Funcin pblica para asignar mdico",
        "params": {
          "account": "Cuenta que ser asignada como mdico"
        }
      },
      "addPatient(address)": {
        "details": "Funcin pblica para asignar paciente",
        "params": {
          "account": "Cuenta que ser asignada como paciente"
        }
      },
      "deleteAssistant(address,uint256)": {
        "details": "Controlado por el switch",
        "params": {
          "_account": "The owner address"
        },
        "return": "_date The uploaded timestamp"
      },
      "emergencyStop(bool)": {
        "params": {
          "_stop": "Switch del contrado de encendido/apagado"
        }
      },
      "isAdmin(address)": {
        "params": {
          "account": "Cuenta donde se validar el rol."
        },
        "return": "true si la cuenta tiene rol de admin"
      },
      "isAssistant(address)": {
        "params": {
          "account": "Cuenta donde se validar el rol."
        },
        "return": "true si la cuenta tiene rol de asistente"
      },
      "isMedic(address)": {
        "params": {
          "account": "Cuenta donde se validar el rol."
        },
        "return": "true si la cuenta tiene rol de mdico"
      },
      "isPatient(address)": {
        "params": {
          "account": "Cuenta donde se validar el rol."
        },
        "return": "true si la cuenta tiene rol de paciente"
      },
      "removeAssistant(address)": {
        "details": "Remover a rol de asistente. Quien invoque al contrato no volver a ser asistente."
      },
      "removeMedic(address)": {
        "details": "Funcin pblica para remover mdico",
        "params": {
          "account": "Cuenta que ser removida de mdico"
        }
      },
      "removePatient(address)": {
        "details": "Remover a rol de paciente. Quien invoque al contrato no volver a ser paciente."
      },
      "renounceAdmin()": {
        "details": "Renunciar a rol de administrador. Quien inque al contrato no volver a ser admin."
      },
      "renounceMedic()": {
        "details": "Renunciar a rol de personal mdico. Quien invoque al contrato no volver a ser mdico."
      },
      "updateAssistant(address,string,string,string,string,string,uint256)": {
        "details": "Controlado por el switch",
        "params": {
          "_account": "Cuenta del asistente"
        }
      },
      "viewAssistant(address,uint256)": {
        "details": "Controlado por el switch",
        "params": {
          "_account": "The owner address"
        },
        "return": "_date The uploaded timestamp"
      }
    },
    "title": "Smart Contract de Registro de asistentes - El administrador agrega un asistente."
  },
  "userdoc": {
    "methods": {
      "deleteAssistant(address,uint256)": {
        "notice": "Returns el asistente en el ndice del propietario de la direccin."
      },
      "emergencyStop(bool)": {
        "notice": "Pausar el contrato Se detiene el contrato bajo ciertas condiciones. Sera til cuando nuevos errores sean descubiertos."
      },
      "updateAssistant(address,string,string,string,string,string,uint256)": {
        "notice": "Returns el Asistente en el ndice del propietario de la direccin."
      },
      "viewAssistant(address,uint256)": {
        "notice": "Returns el Asistente."
      }
    },
    "notice": "Este contrato representa el registro de un asistente."
  }
}