{
  "contractName": "PatientDiagnosis",
  "abi": [
    {
      "anonymous": false,
      "inputs": [
        {
          "indexed": true,
          "internalType": "address",
          "name": "newAdm",
          "type": "address"
        },
        {
          "indexed": true,
          "internalType": "address",
          "name": "whoAddedAdm",
          "type": "address"
        }
      ],
      "name": "AdminAdded",
      "type": "event"
    },
    {
      "anonymous": false,
      "inputs": [
        {
          "indexed": true,
          "internalType": "address",
          "name": "accountRen",
          "type": "address"
        }
      ],
      "name": "AdminRenounce",
      "type": "event"
    },
    {
      "anonymous": false,
      "inputs": [
        {
          "indexed": true,
          "internalType": "address",
          "name": "newAssistant",
          "type": "address"
        },
        {
          "indexed": true,
          "internalType": "address",
          "name": "whoAddedAssistant",
          "type": "address"
        }
      ],
      "name": "AssistantAdded",
      "type": "event"
    },
    {
      "anonymous": false,
      "inputs": [
        {
          "indexed": true,
          "internalType": "address",
          "name": "oldAssistant",
          "type": "address"
        },
        {
          "indexed": true,
          "internalType": "address",
          "name": "whoRemovedAssistant",
          "type": "address"
        }
      ],
      "name": "AssistantRemoved",
      "type": "event"
    },
    {
      "anonymous": false,
      "inputs": [
        {
          "indexed": true,
          "internalType": "address",
          "name": "_patient",
          "type": "address"
        },
        {
          "indexed": true,
          "internalType": "address",
          "name": "_medic",
          "type": "address"
        },
        {
          "indexed": false,
          "internalType": "string",
          "name": "_nombre",
          "type": "string"
        },
        {
          "indexed": false,
          "internalType": "string",
          "name": "_comorb",
          "type": "string"
        },
        {
          "indexed": false,
          "internalType": "uint256",
          "name": "_age",
          "type": "uint256"
        },
        {
          "indexed": false,
          "internalType": "uint256",
          "name": "_weight",
          "type": "uint256"
        },
        {
          "indexed": false,
          "internalType": "string",
          "name": "_diagnostic",
          "type": "string"
        },
        {
          "indexed": false,
          "internalType": "string",
          "name": "_observations",
          "type": "string"
        }
      ],
      "name": "DiagnosisUpdate",
      "type": "event"
    },
    {
      "anonymous": false,
      "inputs": [
        {
          "indexed": true,
          "internalType": "address",
          "name": "_patient",
          "type": "address"
        },
        {
          "indexed": true,
          "internalType": "address",
          "name": "_medic",
          "type": "address"
        },
        {
          "indexed": false,
          "internalType": "uint256",
          "name": "_date",
          "type": "uint256"
        }
      ],
      "name": "DiagnosticDelete",
      "type": "event"
    },
    {
      "anonymous": false,
      "inputs": [
        {
          "indexed": true,
          "internalType": "address",
          "name": "_patient",
          "type": "address"
        },
        {
          "indexed": true,
          "internalType": "address",
          "name": "_medic",
          "type": "address"
        },
        {
          "indexed": false,
          "internalType": "string",
          "name": "_nombre",
          "type": "string"
        },
        {
          "indexed": false,
          "internalType": "string",
          "name": "_comorb",
          "type": "string"
        },
        {
          "indexed": false,
          "internalType": "uint256",
          "name": "_age",
          "type": "uint256"
        },
        {
          "indexed": false,
          "internalType": "uint256",
          "name": "_weight",
          "type": "uint256"
        },
        {
          "indexed": false,
          "internalType": "string",
          "name": "_diagnostic",
          "type": "string"
        },
        {
          "indexed": false,
          "internalType": "string",
          "name": "_observations",
          "type": "string"
        }
      ],
      "name": "DiagnosticRetrieve",
      "type": "event"
    },
    {
      "anonymous": false,
      "inputs": [
        {
          "indexed": true,
          "internalType": "address",
          "name": "_patient",
          "type": "address"
        },
        {
          "indexed": true,
          "internalType": "address",
          "name": "_medic",
          "type": "address"
        },
        {
          "indexed": false,
          "internalType": "string",
          "name": "_nombre",
          "type": "string"
        },
        {
          "indexed": false,
          "internalType": "string",
          "name": "_comorb",
          "type": "string"
        },
        {
          "indexed": false,
          "internalType": "uint256",
          "name": "_age",
          "type": "uint256"
        },
        {
          "indexed": false,
          "internalType": "uint256",
          "name": "_weight",
          "type": "uint256"
        },
        {
          "indexed": false,
          "internalType": "string",
          "name": "_diagnostic",
          "type": "string"
        },
        {
          "indexed": false,
          "internalType": "string",
          "name": "_observations",
          "type": "string"
        },
        {
          "indexed": false,
          "internalType": "uint256",
          "name": "_date",
          "type": "uint256"
        }
      ],
      "name": "DiagnosticdAdded",
      "type": "event"
    },
    {
      "anonymous": false,
      "inputs": [
        {
          "indexed": true,
          "internalType": "address",
          "name": "_admin",
          "type": "address"
        },
        {
          "indexed": false,
          "internalType": "bool",
          "name": "_stop",
          "type": "bool"
        }
      ],
      "name": "LogSwitchStop",
      "type": "event"
    },
    {
      "anonymous": false,
      "inputs": [
        {
          "indexed": true,
          "internalType": "address",
          "name": "newMed",
          "type": "address"
        },
        {
          "indexed": true,
          "internalType": "address",
          "name": "whoAddedMed",
          "type": "address"
        }
      ],
      "name": "MedicAdded",
      "type": "event"
    },
    {
      "anonymous": false,
      "inputs": [
        {
          "indexed": true,
          "internalType": "address",
          "name": "oldMed",
          "type": "address"
        },
        {
          "indexed": true,
          "internalType": "address",
          "name": "whoRemovedMed",
          "type": "address"
        }
      ],
      "name": "MedicRemoved",
      "type": "event"
    },
    {
      "anonymous": false,
      "inputs": [
        {
          "indexed": true,
          "internalType": "address",
          "name": "medRen",
          "type": "address"
        }
      ],
      "name": "MedicRenounce",
      "type": "event"
    },
    {
      "anonymous": false,
      "inputs": [
        {
          "indexed": true,
          "internalType": "address",
          "name": "_medic",
          "type": "address"
        },
        {
          "indexed": true,
          "internalType": "address",
          "name": "_admin",
          "type": "address"
        },
        {
          "indexed": false,
          "internalType": "string",
          "name": "_name",
          "type": "string"
        },
        {
          "indexed": false,
          "internalType": "string",
          "name": "_specialty",
          "type": "string"
        },
        {
          "indexed": false,
          "internalType": "string",
          "name": "_cedula",
          "type": "string"
        },
        {
          "indexed": false,
          "internalType": "string",
          "name": "_email",
          "type": "string"
        },
        {
          "indexed": false,
          "internalType": "string",
          "name": "_hashPicture",
          "type": "string"
        },
        {
          "indexed": false,
          "internalType": "uint256",
          "name": "_date",
          "type": "uint256"
        }
      ],
      "name": "MedicsAdded",
      "type": "event"
    },
    {
      "anonymous": false,
      "inputs": [
        {
          "indexed": true,
          "internalType": "address",
          "name": "_medic",
          "type": "address"
        },
        {
          "indexed": true,
          "internalType": "address",
          "name": "_admin",
          "type": "address"
        },
        {
          "indexed": false,
          "internalType": "string",
          "name": "_hashPicture",
          "type": "string"
        },
        {
          "indexed": false,
          "internalType": "uint256",
          "name": "_date",
          "type": "uint256"
        }
      ],
      "name": "MedicsDelete",
      "type": "event"
    },
    {
      "anonymous": false,
      "inputs": [
        {
          "indexed": true,
          "internalType": "address",
          "name": "_medic",
          "type": "address"
        },
        {
          "indexed": true,
          "internalType": "address",
          "name": "_admin",
          "type": "address"
        },
        {
          "indexed": false,
          "internalType": "string",
          "name": "_name",
          "type": "string"
        },
        {
          "indexed": false,
          "internalType": "string",
          "name": "_specialty",
          "type": "string"
        },
        {
          "indexed": false,
          "internalType": "string",
          "name": "_cedula",
          "type": "string"
        },
        {
          "indexed": false,
          "internalType": "string",
          "name": "_email",
          "type": "string"
        },
        {
          "indexed": false,
          "internalType": "string",
          "name": "_hashPicture",
          "type": "string"
        },
        {
          "indexed": false,
          "internalType": "uint256",
          "name": "_date",
          "type": "uint256"
        },
        {
          "indexed": false,
          "internalType": "uint256",
          "name": "_queryDate",
          "type": "uint256"
        }
      ],
      "name": "MedicsRetrieve",
      "type": "event"
    },
    {
      "anonymous": false,
      "inputs": [
        {
          "indexed": true,
          "internalType": "address",
          "name": "_medic",
          "type": "address"
        },
        {
          "indexed": true,
          "internalType": "address",
          "name": "_admin",
          "type": "address"
        },
        {
          "indexed": false,
          "internalType": "string",
          "name": "_name",
          "type": "string"
        },
        {
          "indexed": false,
          "internalType": "string",
          "name": "_specialty",
          "type": "string"
        },
        {
          "indexed": false,
          "internalType": "string",
          "name": "_cedula",
          "type": "string"
        },
        {
          "indexed": false,
          "internalType": "string",
          "name": "_email",
          "type": "string"
        },
        {
          "indexed": false,
          "internalType": "string",
          "name": "_hashPicture",
          "type": "string"
        },
        {
          "indexed": false,
          "internalType": "uint256",
          "name": "_date",
          "type": "uint256"
        },
        {
          "indexed": false,
          "internalType": "uint256",
          "name": "_queryDate",
          "type": "uint256"
        }
      ],
      "name": "MedicsUpdate",
      "type": "event"
    },
    {
      "anonymous": false,
      "inputs": [
        {
          "indexed": false,
          "internalType": "string",
          "name": "_hash",
          "type": "string"
        }
      ],
      "name": "NewMedicRecord",
      "type": "event"
    },
    {
      "anonymous": false,
      "inputs": [
        {
          "indexed": true,
          "internalType": "address",
          "name": "newPat",
          "type": "address"
        },
        {
          "indexed": true,
          "internalType": "address",
          "name": "whoAddedPat",
          "type": "address"
        }
      ],
      "name": "PatientAdded",
      "type": "event"
    },
    {
      "anonymous": false,
      "inputs": [
        {
          "indexed": true,
          "internalType": "address",
          "name": "oldPat",
          "type": "address"
        },
        {
          "indexed": true,
          "internalType": "address",
          "name": "whoRemovedPat",
          "type": "address"
        }
      ],
      "name": "PatientRemoved",
      "type": "event"
    },
    {
      "anonymous": false,
      "inputs": [
        {
          "indexed": true,
          "internalType": "address",
          "name": "_patient",
          "type": "address"
        },
        {
          "indexed": true,
          "internalType": "address",
          "name": "_medic",
          "type": "address"
        },
        {
          "indexed": false,
          "internalType": "string",
          "name": "_ipfsHash",
          "type": "string"
        }
      ],
      "name": "RecordAdded",
      "type": "event"
    },
    {
      "anonymous": false,
      "inputs": [
        {
          "indexed": true,
          "internalType": "address",
          "name": "_patient",
          "type": "address"
        },
        {
          "indexed": true,
          "internalType": "address",
          "name": "_medic",
          "type": "address"
        },
        {
          "indexed": false,
          "internalType": "string",
          "name": "_ipfsHash",
          "type": "string"
        }
      ],
      "name": "RecordDelete",
      "type": "event"
    },
    {
      "anonymous": false,
      "inputs": [
        {
          "indexed": true,
          "internalType": "address",
          "name": "_patient",
          "type": "address"
        },
        {
          "indexed": true,
          "internalType": "address",
          "name": "_medic",
          "type": "address"
        },
        {
          "indexed": false,
          "internalType": "string",
          "name": "_descript",
          "type": "string"
        },
        {
          "indexed": false,
          "internalType": "uint256",
          "name": "_uploadDate",
          "type": "uint256"
        }
      ],
      "name": "RecordRetrieve",
      "type": "event"
    },
    {
      "anonymous": false,
      "inputs": [
        {
          "indexed": true,
          "internalType": "address",
          "name": "_patient",
          "type": "address"
        },
        {
          "indexed": true,
          "internalType": "address",
          "name": "_medic",
          "type": "address"
        },
        {
          "indexed": false,
          "internalType": "string",
          "name": "_descript",
          "type": "string"
        }
      ],
      "name": "RecordUpdate",
      "type": "event"
    },
    {
      "anonymous": false,
      "inputs": [
        {
          "indexed": false,
          "internalType": "string",
          "name": "_hash",
          "type": "string"
        }
      ],
      "name": "RemoveMedicRecord",
      "type": "event"
    },
    {
      "payable": true,
      "stateMutability": "payable",
      "type": "fallback"
    },
    {
      "constant": false,
      "inputs": [
        {
          "internalType": "address",
          "name": "account",
          "type": "address"
        }
      ],
      "name": "addAdmin",
      "outputs": [],
      "payable": false,
      "stateMutability": "nonpayable",
      "type": "function"
    },
    {
      "constant": false,
      "inputs": [
        {
          "internalType": "address",
          "name": "account",
          "type": "address"
        }
      ],
      "name": "addAssistant",
      "outputs": [],
      "payable": false,
      "stateMutability": "nonpayable",
      "type": "function"
    },
    {
      "constant": false,
      "inputs": [
        {
          "internalType": "address",
          "name": "account",
          "type": "address"
        }
      ],
      "name": "addMedic",
      "outputs": [],
      "payable": false,
      "stateMutability": "nonpayable",
      "type": "function"
    },
    {
      "constant": false,
      "inputs": [
        {
          "internalType": "string",
          "name": "_hashString",
          "type": "string"
        }
      ],
      "name": "addMedicRecord",
      "outputs": [],
      "payable": false,
      "stateMutability": "nonpayable",
      "type": "function"
    },
    {
      "constant": false,
      "inputs": [
        {
          "internalType": "address",
          "name": "_account",
          "type": "address"
        },
        {
          "internalType": "string",
          "name": "_name",
          "type": "string"
        },
        {
          "internalType": "string",
          "name": "_specialty",
          "type": "string"
        },
        {
          "internalType": "string",
          "name": "_cedula",
          "type": "string"
        },
        {
          "internalType": "string",
          "name": "_email",
          "type": "string"
        },
        {
          "internalType": "string",
          "name": "_hashPicture",
          "type": "string"
        }
      ],
      "name": "addMedics",
      "outputs": [
        {
          "internalType": "bool",
          "name": "_success",
          "type": "bool"
        }
      ],
      "payable": false,
      "stateMutability": "nonpayable",
      "type": "function"
    },
    {
      "constant": false,
      "inputs": [
        {
          "internalType": "address",
          "name": "account",
          "type": "address"
        }
      ],
      "name": "addPatient",
      "outputs": [],
      "payable": false,
      "stateMutability": "nonpayable",
      "type": "function"
    },
    {
      "constant": false,
      "inputs": [
        {
          "internalType": "address",
          "name": "_account",
          "type": "address"
        },
        {
          "internalType": "string",
          "name": "_descript",
          "type": "string"
        },
        {
          "internalType": "string",
          "name": "_ipfsHash",
          "type": "string"
        }
      ],
      "name": "addRecord",
      "outputs": [
        {
          "internalType": "bool",
          "name": "_success",
          "type": "bool"
        }
      ],
      "payable": false,
      "stateMutability": "nonpayable",
      "type": "function"
    },
    {
      "constant": false,
      "inputs": [
        {
          "internalType": "address",
          "name": "_account",
          "type": "address"
        },
        {
          "internalType": "uint256",
          "name": "_date",
          "type": "uint256"
        }
      ],
      "name": "deleteMedics",
      "outputs": [
        {
          "internalType": "bool",
          "name": "_success",
          "type": "bool"
        }
      ],
      "payable": false,
      "stateMutability": "nonpayable",
      "type": "function"
    },
    {
      "constant": false,
      "inputs": [
        {
          "internalType": "address",
          "name": "_account",
          "type": "address"
        },
        {
          "internalType": "string",
          "name": "_ipfsHash",
          "type": "string"
        }
      ],
      "name": "deleteRecord",
      "outputs": [
        {
          "internalType": "bool",
          "name": "_success",
          "type": "bool"
        }
      ],
      "payable": false,
      "stateMutability": "nonpayable",
      "type": "function"
    },
    {
      "constant": true,
      "inputs": [
        {
          "internalType": "address",
          "name": "",
          "type": "address"
        },
        {
          "internalType": "uint256",
          "name": "",
          "type": "uint256"
        }
      ],
      "name": "fileToMedic",
      "outputs": [
        {
          "internalType": "string",
          "name": "name",
          "type": "string"
        },
        {
          "internalType": "string",
          "name": "specialty",
          "type": "string"
        },
        {
          "internalType": "string",
          "name": "cedula",
          "type": "string"
        },
        {
          "internalType": "string",
          "name": "email",
          "type": "string"
        },
        {
          "internalType": "string",
          "name": "hashPicture",
          "type": "string"
        },
        {
          "internalType": "uint256",
          "name": "date",
          "type": "uint256"
        }
      ],
      "payable": false,
      "stateMutability": "view",
      "type": "function"
    },
    {
      "constant": true,
      "inputs": [
        {
          "internalType": "address",
          "name": "",
          "type": "address"
        },
        {
          "internalType": "uint256",
          "name": "",
          "type": "uint256"
        }
      ],
      "name": "fileToPatientDiagnosis",
      "outputs": [
        {
          "internalType": "string",
          "name": "nombre",
          "type": "string"
        },
        {
          "internalType": "string",
          "name": "comorb",
          "type": "string"
        },
        {
          "internalType": "uint256",
          "name": "age",
          "type": "uint256"
        },
        {
          "internalType": "uint256",
          "name": "weight",
          "type": "uint256"
        },
        {
          "internalType": "string",
          "name": "diagnostic",
          "type": "string"
        },
        {
          "internalType": "string",
          "name": "observations",
          "type": "string"
        }
      ],
      "payable": false,
      "stateMutability": "view",
      "type": "function"
    },
    {
      "constant": true,
      "inputs": [],
      "name": "getPendingLength",
      "outputs": [
        {
          "internalType": "uint256",
          "name": "count",
          "type": "uint256"
        }
      ],
      "payable": false,
      "stateMutability": "view",
      "type": "function"
    },
    {
      "constant": true,
      "inputs": [
        {
          "internalType": "uint32",
          "name": "_index",
          "type": "uint32"
        }
      ],
      "name": "getPendingRequest",
      "outputs": [
        {
          "internalType": "string",
          "name": "_hashString",
          "type": "string"
        }
      ],
      "payable": false,
      "stateMutability": "view",
      "type": "function"
    },
    {
      "constant": true,
      "inputs": [
        {
          "internalType": "address",
          "name": "account",
          "type": "address"
        }
      ],
      "name": "isAdmin",
      "outputs": [
        {
          "internalType": "bool",
          "name": "",
          "type": "bool"
        }
      ],
      "payable": false,
      "stateMutability": "view",
      "type": "function"
    },
    {
      "constant": true,
      "inputs": [
        {
          "internalType": "address",
          "name": "account",
          "type": "address"
        }
      ],
      "name": "isAssistant",
      "outputs": [
        {
          "internalType": "bool",
          "name": "",
          "type": "bool"
        }
      ],
      "payable": false,
      "stateMutability": "view",
      "type": "function"
    },
    {
      "constant": true,
      "inputs": [
        {
          "internalType": "address",
          "name": "account",
          "type": "address"
        }
      ],
      "name": "isMedic",
      "outputs": [
        {
          "internalType": "bool",
          "name": "",
          "type": "bool"
        }
      ],
      "payable": false,
      "stateMutability": "view",
      "type": "function"
    },
    {
      "constant": true,
      "inputs": [
        {
          "internalType": "address",
          "name": "account",
          "type": "address"
        }
      ],
      "name": "isPatient",
      "outputs": [
        {
          "internalType": "bool",
          "name": "",
          "type": "bool"
        }
      ],
      "payable": false,
      "stateMutability": "view",
      "type": "function"
    },
    {
      "constant": true,
      "inputs": [
        {
          "internalType": "uint256",
          "name": "",
          "type": "uint256"
        }
      ],
      "name": "medicPending",
      "outputs": [
        {
          "internalType": "string",
          "name": "",
          "type": "string"
        }
      ],
      "payable": false,
      "stateMutability": "view",
      "type": "function"
    },
    {
      "constant": false,
      "inputs": [
        {
          "internalType": "address",
          "name": "account",
          "type": "address"
        }
      ],
      "name": "removeAssistant",
      "outputs": [],
      "payable": false,
      "stateMutability": "nonpayable",
      "type": "function"
    },
    {
      "constant": false,
      "inputs": [
        {
          "internalType": "address",
          "name": "account",
          "type": "address"
        }
      ],
      "name": "removeMedic",
      "outputs": [],
      "payable": false,
      "stateMutability": "nonpayable",
      "type": "function"
    },
    {
      "constant": false,
      "inputs": [
        {
          "internalType": "address",
          "name": "account",
          "type": "address"
        }
      ],
      "name": "removePatient",
      "outputs": [],
      "payable": false,
      "stateMutability": "nonpayable",
      "type": "function"
    },
    {
      "constant": false,
      "inputs": [
        {
          "internalType": "uint32",
          "name": "_index",
          "type": "uint32"
        }
      ],
      "name": "removePending",
      "outputs": [
        {
          "internalType": "bool",
          "name": "success",
          "type": "bool"
        }
      ],
      "payable": false,
      "stateMutability": "nonpayable",
      "type": "function"
    },
    {
      "constant": false,
      "inputs": [],
      "name": "renounceAdmin",
      "outputs": [],
      "payable": false,
      "stateMutability": "nonpayable",
      "type": "function"
    },
    {
      "constant": false,
      "inputs": [],
      "name": "renounceMedic",
      "outputs": [],
      "payable": false,
      "stateMutability": "nonpayable",
      "type": "function"
    },
    {
      "constant": false,
      "inputs": [
        {
          "internalType": "address",
          "name": "_account",
          "type": "address"
        },
        {
          "internalType": "string",
          "name": "_name",
          "type": "string"
        },
        {
          "internalType": "string",
          "name": "_specialty",
          "type": "string"
        },
        {
          "internalType": "string",
          "name": "_cedula",
          "type": "string"
        },
        {
          "internalType": "string",
          "name": "_email",
          "type": "string"
        },
        {
          "internalType": "string",
          "name": "_hashPicture",
          "type": "string"
        },
        {
          "internalType": "uint256",
          "name": "_date",
          "type": "uint256"
        }
      ],
      "name": "updateMedics",
      "outputs": [
        {
          "internalType": "bool",
          "name": "_success",
          "type": "bool"
        }
      ],
      "payable": false,
      "stateMutability": "nonpayable",
      "type": "function"
    },
    {
      "constant": false,
      "inputs": [
        {
          "internalType": "address",
          "name": "_account",
          "type": "address"
        },
        {
          "internalType": "string",
          "name": "_descript",
          "type": "string"
        },
        {
          "internalType": "string",
          "name": "_ipfsHash",
          "type": "string"
        }
      ],
      "name": "updateRecord",
      "outputs": [
        {
          "internalType": "bool",
          "name": "_success",
          "type": "bool"
        }
      ],
      "payable": false,
      "stateMutability": "nonpayable",
      "type": "function"
    },
    {
      "constant": false,
      "inputs": [
        {
          "internalType": "address",
          "name": "_account",
          "type": "address"
        },
        {
          "internalType": "uint256",
          "name": "_date",
          "type": "uint256"
        }
      ],
      "name": "viewMedics",
      "outputs": [
        {
          "internalType": "string",
          "name": "name",
          "type": "string"
        },
        {
          "internalType": "string",
          "name": "specialty",
          "type": "string"
        },
        {
          "internalType": "string",
          "name": "cedula",
          "type": "string"
        },
        {
          "internalType": "string",
          "name": "email",
          "type": "string"
        },
        {
          "internalType": "string",
          "name": "hashPicture",
          "type": "string"
        }
      ],
      "payable": false,
      "stateMutability": "nonpayable",
      "type": "function"
    },
    {
      "constant": false,
      "inputs": [
        {
          "internalType": "address",
          "name": "_account",
          "type": "address"
        },
        {
          "internalType": "string",
          "name": "_ipfsHash",
          "type": "string"
        }
      ],
      "name": "viewRecords",
      "outputs": [
        {
          "internalType": "string",
          "name": "_descript",
          "type": "string"
        },
        {
          "internalType": "uint256",
          "name": "_uploadDate",
          "type": "uint256"
        }
      ],
      "payable": false,
      "stateMutability": "nonpayable",
      "type": "function"
    },
    {
      "constant": false,
      "inputs": [
        {
          "internalType": "bool",
          "name": "_stop",
          "type": "bool"
        }
      ],
      "name": "emergencyStop",
      "outputs": [],
      "payable": false,
      "stateMutability": "nonpayable",
      "type": "function"
    },
    {
      "constant": true,
      "inputs": [
        {
          "internalType": "address",
          "name": "_account",
          "type": "address"
        },
        {
          "internalType": "uint256",
          "name": "_timeStamp",
          "type": "uint256"
        }
      ],
      "name": "patientDiagnosis",
      "outputs": [
        {
          "components": [
            {
              "internalType": "string",
              "name": "nombre",
              "type": "string"
            },
            {
              "internalType": "string",
              "name": "comorb",
              "type": "string"
            },
            {
              "internalType": "uint256",
              "name": "age",
              "type": "uint256"
            },
            {
              "internalType": "uint256",
              "name": "weight",
              "type": "uint256"
            },
            {
              "internalType": "string",
              "name": "diagnostic",
              "type": "string"
            },
            {
              "internalType": "string",
              "name": "observations",
              "type": "string"
            },
            {
              "internalType": "string[]",
              "name": "estudio",
              "type": "string[]"
            }
          ],
          "internalType": "struct PatientDiagnosis.Diagnostico",
          "name": "",
          "type": "tuple"
        }
      ],
      "payable": false,
      "stateMutability": "view",
      "type": "function"
    },
    {
      "constant": false,
      "inputs": [
        {
          "internalType": "address",
          "name": "_account",
          "type": "address"
        },
        {
          "internalType": "string",
          "name": "_nombre",
          "type": "string"
        },
        {
          "internalType": "string",
          "name": "_comorb",
          "type": "string"
        },
        {
          "internalType": "uint8",
          "name": "_age",
          "type": "uint8"
        },
        {
          "internalType": "uint8",
          "name": "_weight",
          "type": "uint8"
        },
        {
          "internalType": "string",
          "name": "_diagnostic",
          "type": "string"
        },
        {
          "internalType": "string",
          "name": "_observations",
          "type": "string"
        },
        {
          "internalType": "string[]",
          "name": "_estudio",
          "type": "string[]"
        }
      ],
      "name": "addDiagnostic",
      "outputs": [
        {
          "internalType": "bool",
          "name": "_success",
          "type": "bool"
        }
      ],
      "payable": false,
      "stateMutability": "nonpayable",
      "type": "function"
    },
    {
      "constant": false,
      "inputs": [
        {
          "internalType": "address",
          "name": "_account",
          "type": "address"
        },
        {
          "internalType": "string",
          "name": "_nombre",
          "type": "string"
        },
        {
          "internalType": "string",
          "name": "_comorb",
          "type": "string"
        },
        {
          "internalType": "uint256",
          "name": "_age",
          "type": "uint256"
        },
        {
          "internalType": "uint256",
          "name": "_weight",
          "type": "uint256"
        },
        {
          "internalType": "string",
          "name": "_diagnostic",
          "type": "string"
        },
        {
          "internalType": "string",
          "name": "_observations",
          "type": "string"
        },
        {
          "internalType": "string[]",
          "name": "_estudio",
          "type": "string[]"
        },
        {
          "internalType": "uint256",
          "name": "_date",
          "type": "uint256"
        }
      ],
      "name": "updateDiagnostic",
      "outputs": [
        {
          "internalType": "bool",
          "name": "_success",
          "type": "bool"
        }
      ],
      "payable": false,
      "stateMutability": "nonpayable",
      "type": "function"
    },
    {
      "constant": false,
      "inputs": [
        {
          "internalType": "address",
          "name": "_account",
          "type": "address"
        },
        {
          "internalType": "uint256",
          "name": "_date",
          "type": "uint256"
        }
      ],
      "name": "viewDiagnostic",
      "outputs": [
        {
          "internalType": "string",
          "name": "_nombre",
          "type": "string"
        },
        {
          "internalType": "string",
          "name": "_comorb",
          "type": "string"
        },
        {
          "internalType": "uint256",
          "name": "_age",
          "type": "uint256"
        },
        {
          "internalType": "uint256",
          "name": "_weight",
          "type": "uint256"
        },
        {
          "internalType": "string",
          "name": "_diagnostic",
          "type": "string"
        },
        {
          "internalType": "string",
          "name": "_observations",
          "type": "string"
        },
        {
          "internalType": "string[]",
          "name": "_estudio",
          "type": "string[]"
        }
      ],
      "payable": false,
      "stateMutability": "nonpayable",
      "type": "function"
    },
    {
      "constant": false,
      "inputs": [
        {
          "internalType": "address",
          "name": "_account",
          "type": "address"
        },
        {
          "internalType": "uint256",
          "name": "_date",
          "type": "uint256"
        }
      ],
      "name": "deleteDiagnostic",
      "outputs": [
        {
          "internalType": "bool",
          "name": "_success",
          "type": "bool"
        }
      ],
      "payable": false,
      "stateMutability": "nonpayable",
      "type": "function"
    }
  ],
  "bytecode": "0x60806040526000600560006101000a81548160ff0219169083151502179055506000600860006101000a81548160ff0219169083151502179055506000600a60006101000a81548160ff02191690831515021790555062000066336200006c60201b60201c565b62000361565b62000087816000620000e460201b620042db1790919060201c565b3373ffffffffffffffffffffffffffffffffffffffff168173ffffffffffffffffffffffffffffffffffffffff167fbf3f493c772c8c283fd124432c2d0f539ab343faa04258fe88e52912d36b102b60405160405180910390a350565b620000f682826200019760201b60201c565b1562000139576040517f08c379a000000000000000000000000000000000000000000000000000000000815260040162000130906200030c565b60405180910390fd5b60018260000160008373ffffffffffffffffffffffffffffffffffffffff1673ffffffffffffffffffffffffffffffffffffffff16815260200190815260200160002060006101000a81548160ff0219169083151502179055505050565b60008073ffffffffffffffffffffffffffffffffffffffff168273ffffffffffffffffffffffffffffffffffffffff1614156200020b576040517f08c379a000000000000000000000000000000000000000000000000000000000815260040162000202906200032e565b60405180910390fd5b8260000160008373ffffffffffffffffffffffffffffffffffffffff1673ffffffffffffffffffffffffffffffffffffffff16815260200190815260200160002060009054906101000a900460ff16905092915050565b600062000271601f8362000350565b91507f526f6c65733a206163636f756e7420616c72656164792068617320726f6c65006000830152602082019050919050565b6000620002b360228362000350565b91507f526f6c65733a206163636f756e7420697320746865207a65726f20616464726560008301527f73730000000000000000000000000000000000000000000000000000000000006020830152604082019050919050565b60006020820190508181036000830152620003278162000262565b9050919050565b600060208201905081810360008301526200034981620002a4565b9050919050565b600082825260208201905092915050565b615d9a80620003716000396000f3fe6080604052600436106101f95760003560e01c80637d0d62571161010d578063b8792f0b116100a0578063d6aac8691161006f578063d6aac869146107de578063e67fd0e014610820578063e765e7351461085d578063ea04f68f1461089a578063eae3ef8a146108db576101f9565b8063b8792f0b146106fe578063beea194b14610727578063c6584bb814610764578063d47b41d5146107a1576101f9565b80638f9c79ed116100dc5780638f9c79ed146106305780639b2ae4c61461066d578063a1f23f1914610698578063b0397ff8146106d5576101f9565b80637d0d6257146105765780637f6afeb71461059f5780638bad0c0a146105dc5780638c406f2e146105f3576101f9565b806354746ddd116101905780635c8b67df1161015f5780635c8b67df1461049557806362499d5c146104be5780636d263ceb146104fb57806370480275146105245780637d01dbc21461054d576101f9565b806354746ddd146103a05780635995fd00146103dd5780635acec4ab1461041b5780635c11b70f14610458576101f9565b806333dc0abd116101cc57806333dc0abd146102e157806347d96cb1146102f85780634e0581f414610335578063510b2f6114610377576101f9565b80630ac62e02146101fb5780631c712b6c1461022457806324d7806c1461026757806333645874146102a4575b005b34801561020757600080fd5b50610222600480360361021d9190810190614e19565b610918565b005b34801561023057600080fd5b5061024b60048036036102469190810190614ddd565b6109cb565b60405161025e9796959493929190615646565b60405180910390f35b34801561027357600080fd5b5061028e60048036036102899190810190614862565b610c24565b60405161029b91906154ed565b60405180910390f35b3480156102b057600080fd5b506102cb60048036036102c69190810190614ddd565b610c41565b6040516102d891906154ed565b60405180910390f35b3480156102ed57600080fd5b506102f6610f7e565b005b34801561030457600080fd5b5061031f600480360361031a9190810190614e83565b610fd1565b60405161032c9190615508565b60405180910390f35b34801561034157600080fd5b5061035c60048036036103579190810190614ddd565b61108a565b60405161036e969594939291906158a9565b60405180910390f35b34801561038357600080fd5b5061039e60048036036103999190810190614e42565b611333565b005b3480156103ac57600080fd5b506103c760048036036103c29190810190614cb3565b6113ac565b6040516103d491906154ed565b60405180910390f35b3480156103e957600080fd5b5061040460048036036103ff919081019061488b565b61168c565b604051610412929190615763565b60405180910390f35b34801561042757600080fd5b50610442600480360361043d9190810190614eac565b6118ae565b60405161044f919061552a565b60405180910390f35b34801561046457600080fd5b5061047f600480360361047a9190810190614ddd565b61196d565b60405161048c9190615a66565b60405180910390f35b3480156104a157600080fd5b506104bc60048036036104b79190810190614862565b611d5d565b005b3480156104ca57600080fd5b506104e560048036036104e09190810190614a5f565b611db1565b6040516104f291906154ed565b60405180910390f35b34801561050757600080fd5b50610522600480360361051d9190810190614862565b6123d0565b005b34801561053057600080fd5b5061054b60048036036105469190810190614862565b612434565b005b34801561055957600080fd5b50610574600480360361056f9190810190614862565b612488565b005b34801561058257600080fd5b5061059d60048036036105989190810190614862565b6124dc565b005b3480156105ab57600080fd5b506105c660048036036105c19190810190614b75565b612530565b6040516105d391906154ed565b60405180910390f35b3480156105e857600080fd5b506105f1612759565b005b3480156105ff57600080fd5b5061061a6004803603610615919081019061488b565b612764565b60405161062791906154ed565b60405180910390f35b34801561063c57600080fd5b5061065760048036036106529190810190614862565b6128b8565b60405161066491906154ed565b60405180910390f35b34801561067957600080fd5b506106826128d5565b60405161068f9190615a88565b60405180910390f35b3480156106a457600080fd5b506106bf60048036036106ba91908101906148df565b6128e2565b6040516106cc91906154ed565b60405180910390f35b3480156106e157600080fd5b506106fc60048036036106f79190810190614862565b612afa565b005b34801561070a57600080fd5b5061072560048036036107209190810190614862565b612b4e565b005b34801561073357600080fd5b5061074e60048036036107499190810190614eac565b612ba2565b60405161075b91906154ed565b60405180910390f35b34801561077057600080fd5b5061078b60048036036107869190810190614862565b612d77565b60405161079891906154ed565b60405180910390f35b3480156107ad57600080fd5b506107c860048036036107c391908101906148df565b612d94565b6040516107d591906154ed565b60405180910390f35b3480156107ea57600080fd5b5061080560048036036108009190810190614ddd565b612f40565b60405161081796959493929190615793565b60405180910390f35b34801561082c57600080fd5b5061084760048036036108429190810190614ddd565b61328e565b60405161085491906154ed565b60405180910390f35b34801561086957600080fd5b50610884600480360361087f919081019061495e565b613488565b60405161089191906154ed565b60405180910390f35b3480156108a657600080fd5b506108c160048036036108bc9190810190614ddd565b613730565b6040516108d295949392919061554c565b60405180910390f35b3480156108e757600080fd5b5061090260048036036108fd9190810190614862565b613d3e565b60405161090f91906154ed565b60405180910390f35b61092133610c24565b610960576040517f08c379a000000000000000000000000000000000000000000000000000000000815260040161095790615a26565b60405180910390fd5b80600a60006101000a81548160ff0219169083151502179055503373ffffffffffffffffffffffffffffffffffffffff167f58b15338e6499b2b2827d169f60332c3b4b476fcd06b9a3c7e37afa77c49228e826040516109c091906154ed565b60405180910390a250565b6060806000806060806060600a60009054906101000a900460ff16156109f057600080fd5b6109f9336128b8565b80610a095750610a0833613d3e565b5b610a48576040517f08c379a0000000000000000000000000000000000000000000000000000000008152600401610a3f90615a46565b60405180910390fd5b610a51336128b8565b15610a8f578873ffffffffffffffffffffffffffffffffffffffff163373ffffffffffffffffffffffffffffffffffffffff1614610a8e57600080fd5b5b610a9833613d3e565b15610ad7578873ffffffffffffffffffffffffffffffffffffffff163373ffffffffffffffffffffffffffffffffffffffff161415610ad657600080fd5b5b600073ffffffffffffffffffffffffffffffffffffffff168973ffffffffffffffffffffffffffffffffffffffff161415610b1157600080fd5b60008810158015610b4257507fffffffffffffffffffffffffffffffffffffffffffffffffffffffffffffffff8811155b610b4b57600080fd5b610b53614383565b610b5d8a8a61196d565b90503373ffffffffffffffffffffffffffffffffffffffff168a73ffffffffffffffffffffffffffffffffffffffff167f8bbba8bb4d6e081699be53ecefd55587844d7cfadb5769bcaa1e06c32a199785836000015184602001518560400151866060015187608001518860a00151604051610bde969594939291906158a9565b60405180910390a380600001519750806020015196508060400151955080606001519450806080015193508060a0015192508060c0015191505092959891949750929550565b6000610c3a826000613d5b90919063ffffffff16565b9050919050565b6000600a60009054906101000a900460ff1615610c5d57600080fd5b610c6633610c24565b610ca5576040517f08c379a0000000000000000000000000000000000000000000000000000000008152600401610c9c90615a26565b60405180910390fd5b600073ffffffffffffffffffffffffffffffffffffffff168373ffffffffffffffffffffffffffffffffffffffff161415610cdf57600080fd5b60008210158015610d1057507fffffffffffffffffffffffffffffffffffffffffffffffffffffffffffffffff8211155b610d1957600080fd5b6000600460008573ffffffffffffffffffffffffffffffffffffffff1673ffffffffffffffffffffffffffffffffffffffff1681526020019081526020016000208054905011610d6857600080fd5b60004290506000610d7885613e23565b905060008090505b81811015610f715784600460008873ffffffffffffffffffffffffffffffffffffffff1673ffffffffffffffffffffffffffffffffffffffff1681526020019081526020016000208281548110610dd357fe5b9060005260206000209060060201600501541415610f64573373ffffffffffffffffffffffffffffffffffffffff168673ffffffffffffffffffffffffffffffffffffffff167f1977237b5f2ef5422b52998d1f30b1e788c1c890c07a074c7856db9bc6d2ccc2600460008a73ffffffffffffffffffffffffffffffffffffffff1673ffffffffffffffffffffffffffffffffffffffff1681526020019081526020016000208481548110610e8457fe5b906000526020600020906006020160040186604051610ea4929190615956565b60405180910390a3600460008773ffffffffffffffffffffffffffffffffffffffff1673ffffffffffffffffffffffffffffffffffffffff1681526020019081526020016000208181548110610ef657fe5b906000526020600020906006020160008082016000610f1591906143c0565b600182016000610f2591906143c0565b600282016000610f3591906143c0565b600382016000610f4591906143c0565b600482016000610f5591906143c0565b60058201600090555050610f71565b8080600101915050610d80565b5060019250505092915050565b610f8733613d3e565b610fc6576040517f08c379a0000000000000000000000000000000000000000000000000000000008152600401610fbd906159c6565b60405180910390fd5b610fcf33613ec3565b565b60068181548110610fde57fe5b906000526020600020016000915090508054600181600116156101000203166002900480601f0160208091040260200160405190810160405280929190818152602001828054600181600116156101000203166002900480156110825780601f1061105757610100808354040283529160200191611082565b820191906000526020600020905b81548152906001019060200180831161106557829003601f168201915b505050505081565b600960205281600052604060002060205280600052604060002060009150915050806000018054600181600116156101000203166002900480601f0160208091040260200160405190810160405280929190818152602001828054600181600116156101000203166002900480156111435780601f1061111857610100808354040283529160200191611143565b820191906000526020600020905b81548152906001019060200180831161112657829003601f168201915b505050505090806001018054600181600116156101000203166002900480601f0160208091040260200160405190810160405280929190818152602001828054600181600116156101000203166002900480156111e15780601f106111b6576101008083540402835291602001916111e1565b820191906000526020600020905b8154815290600101906020018083116111c457829003601f168201915b505050505090806002015490806003015490806004018054600181600116156101000203166002900480601f01602080910402602001604051908101604052809291908181526020018280546001816001161561010002031660029004801561128b5780601f106112605761010080835404028352916020019161128b565b820191906000526020600020905b81548152906001019060200180831161126e57829003601f168201915b505050505090806005018054600181600116156101000203166002900480601f0160208091040260200160405190810160405280929190818152602001828054600181600116156101000203166002900480156113295780601f106112fe57610100808354040283529160200191611329565b820191906000526020600020905b81548152906001019060200180831161130c57829003601f168201915b5050505050905086565b6006819080600181540180825580915050906001820390600052602060002001600090919290919091509080519060200190611370929190614408565b50507fda8ad9477ca7c92626705474e6194137fbe13627f4f72e07c6d8411bf7c7a1f0816040516113a1919061552a565b60405180910390a150565b6000600a60009054906101000a900460ff16156113c857600080fd5b6113d133613d3e565b611410576040517f08c379a0000000000000000000000000000000000000000000000000000000008152600401611407906159c6565b60405180910390fd5b600073ffffffffffffffffffffffffffffffffffffffff168973ffffffffffffffffffffffffffffffffffffffff16141561144a57600080fd5b611453896128b8565b8015611464575061146333613d3e565b5b61146d57600080fd5b601988511061147b57600080fd5b603287511061148957600080fd5b60788660ff161061149957600080fd5b6102bc8560ff16106114aa57600080fd5b6101008451106114b957600080fd5b6102008351106114c857600080fd5b60004290506114d5614383565b6040518060e001604052808b81526020018a81526020018960ff1681526020018860ff16815260200187815260200186815260200185815250905080600960008d73ffffffffffffffffffffffffffffffffffffffff1673ffffffffffffffffffffffffffffffffffffffff1681526020019081526020016000206000848152602001908152602001600020600082015181600001908051906020019061157d929190614488565b50602082015181600101908051906020019061159a929190614488565b50604082015181600201556060820151816003015560808201518160040190805190602001906115cb929190614488565b5060a08201518160050190805190602001906115e8929190614488565b5060c0820151816006019080519060200190611605929190614508565b509050503373ffffffffffffffffffffffffffffffffffffffff168b73ffffffffffffffffffffffffffffffffffffffff167fc2f829d90bed53418acbc963ce64812a64fe843c1bb77c74cb582a0c797008c08c8c8c8c8c8c8a60405161167297969594939291906156d8565b60405180910390a360019250505098975050505050505050565b60606000600a60009054906101000a900460ff16156116aa57600080fd5b6116b3336128b8565b806116c357506116c233613d3e565b5b611702576040517f08c379a00000000000000000000000000000000000000000000000000000000081526004016116f990615a46565b60405180910390fd5b600073ffffffffffffffffffffffffffffffffffffffff168473ffffffffffffffffffffffffffffffffffffffff16141561173c57600080fd5b602e83511461174a57600080fd5b611752614568565b60078460405161176291906154d6565b9081526020016040518091039020604051806040016040529081600082018054600181600116156101000203166002900480601f0160208091040260200160405190810160405280929190818152602001828054600181600116156101000203166002900480156118145780601f106117e957610100808354040283529160200191611814565b820191906000526020600020905b8154815290600101906020018083116117f757829003601f168201915b5050505050815260200160018201548152505090503373ffffffffffffffffffffffffffffffffffffffff168573ffffffffffffffffffffffffffffffffffffffff167f4ee0bf4d8ed0ec027f6654b0ba0995ae922f70b4f3bdbc0ff59c0a7dbd5491c683600001518460200151604051611890929190615926565b60405180910390a38060000151925080602001519150509250929050565b606060068263ffffffff16815481106118c357fe5b906000526020600020018054600181600116156101000203166002900480601f0160208091040260200160405190810160405280929190818152602001828054600181600116156101000203166002900480156119615780601f1061193657610100808354040283529160200191611961565b820191906000526020600020905b81548152906001019060200180831161194457829003601f168201915b50505050509050919050565b611975614383565b600960008473ffffffffffffffffffffffffffffffffffffffff1673ffffffffffffffffffffffffffffffffffffffff16815260200190815260200160002060008381526020019081526020016000206040518060e0016040529081600082018054600181600116156101000203166002900480601f016020809104026020016040519081016040528092919081815260200182805460018160011615610100020316600290048015611a695780601f10611a3e57610100808354040283529160200191611a69565b820191906000526020600020905b815481529060010190602001808311611a4c57829003601f168201915b50505050508152602001600182018054600181600116156101000203166002900480601f016020809104026020016040519081016040528092919081815260200182805460018160011615610100020316600290048015611b0b5780601f10611ae057610100808354040283529160200191611b0b565b820191906000526020600020905b815481529060010190602001808311611aee57829003601f168201915b505050505081526020016002820154815260200160038201548152602001600482018054600181600116156101000203166002900480601f016020809104026020016040519081016040528092919081815260200182805460018160011615610100020316600290048015611bc15780601f10611b9657610100808354040283529160200191611bc1565b820191906000526020600020905b815481529060010190602001808311611ba457829003601f168201915b50505050508152602001600582018054600181600116156101000203166002900480601f016020809104026020016040519081016040528092919081815260200182805460018160011615610100020316600290048015611c635780601f10611c3857610100808354040283529160200191611c63565b820191906000526020600020905b815481529060010190602001808311611c4657829003601f168201915b5050505050815260200160068201805480602002602001604051908101604052809291908181526020016000905b82821015611d4d578382906000526020600020018054600181600116156101000203166002900480601f016020809104026020016040519081016040528092919081815260200182805460018160011615610100020316600290048015611d395780601f10611d0e57610100808354040283529160200191611d39565b820191906000526020600020905b815481529060010190602001808311611d1c57829003601f168201915b505050505081526020019060010190611c91565b5050505081525050905092915050565b611d6633610c24565b611da5576040517f08c379a0000000000000000000000000000000000000000000000000000000008152600401611d9c90615a26565b60405180910390fd5b611dae81613f34565b50565b6000600a60009054906101000a900460ff1615611dcd57600080fd5b611dd633610c24565b611e15576040517f08c379a0000000000000000000000000000000000000000000000000000000008152600401611e0c90615a26565b60405180910390fd5b600073ffffffffffffffffffffffffffffffffffffffff168873ffffffffffffffffffffffffffffffffffffffff161415611e4f57600080fd5b6080875110611e5d57600080fd5b601e865110611e6b57600080fd5b601e855110611e7957600080fd5b601e845110611e8757600080fd5b601e835110611e9557600080fd5b60008210158015611ec657507fffffffffffffffffffffffffffffffffffffffffffffffffffffffffffffffff8211155b611ecf57600080fd5b6000600460008a73ffffffffffffffffffffffffffffffffffffffff1673ffffffffffffffffffffffffffffffffffffffff1681526020019081526020016000208054905011611f1e57600080fd5b60004290506000611f2e8a613e23565b9050611f38614582565b60008090505b828110156122fd57600460008d73ffffffffffffffffffffffffffffffffffffffff1673ffffffffffffffffffffffffffffffffffffffff1681526020019081526020016000208181548110611f9057fe5b90600052602060002090600602016040518060c0016040529081600082018054600181600116156101000203166002900480601f0160208091040260200160405190810160405280929190818152602001828054600181600116156101000203166002900480156120425780601f1061201757610100808354040283529160200191612042565b820191906000526020600020905b81548152906001019060200180831161202557829003601f168201915b50505050508152602001600182018054600181600116156101000203166002900480601f0160208091040260200160405190810160405280929190818152602001828054600181600116156101000203166002900480156120e45780601f106120b9576101008083540402835291602001916120e4565b820191906000526020600020905b8154815290600101906020018083116120c757829003601f168201915b50505050508152602001600282018054600181600116156101000203166002900480601f0160208091040260200160405190810160405280929190818152602001828054600181600116156101000203166002900480156121865780601f1061215b57610100808354040283529160200191612186565b820191906000526020600020905b81548152906001019060200180831161216957829003601f168201915b50505050508152602001600382018054600181600116156101000203166002900480601f0160208091040260200160405190810160405280929190818152602001828054600181600116156101000203166002900480156122285780601f106121fd57610100808354040283529160200191612228565b820191906000526020600020905b81548152906001019060200180831161220b57829003601f168201915b50505050508152602001600482018054600181600116156101000203166002900480601f0160208091040260200160405190810160405280929190818152602001828054600181600116156101000203166002900480156122ca5780601f1061229f576101008083540402835291602001916122ca565b820191906000526020600020905b8154815290600101906020018083116122ad57829003601f168201915b505050505081526020016005820154815250509150858260a0015114156122f0576122fd565b8080600101915050611f3e565b50898160000181905250888160200181905250878160400181905250868160600181905250858160800181905250848160a00181815250503373ffffffffffffffffffffffffffffffffffffffff168b73ffffffffffffffffffffffffffffffffffffffff167f30990cdc5872ccbf411335c8ed18c1622ddeafe254b87f4ab281a8536fdc105d836000015184602001518560400151866060015187608001518860a001518b6040516123b69796959493929190615817565b60405180910390a360019350505050979650505050505050565b6123d933612d77565b806123e957506123e833613d3e565b5b612428576040517f08c379a000000000000000000000000000000000000000000000000000000000815260040161241f906159a6565b60405180910390fd5b61243181613fa5565b50565b61243d33610c24565b61247c576040517f08c379a000000000000000000000000000000000000000000000000000000000815260040161247390615a26565b60405180910390fd5b61248581614016565b50565b61249133610c24565b6124d0576040517f08c379a00000000000000000000000000000000000000000000000000000000081526004016124c790615a26565b60405180910390fd5b6124d981613ec3565b50565b6124e533613d3e565b612524576040517f08c379a000000000000000000000000000000000000000000000000000000000815260040161251b906159c6565b60405180910390fd5b61252d81614087565b50565b6000600a60009054906101000a900460ff161561254c57600080fd5b61255533613d3e565b612594576040517f08c379a000000000000000000000000000000000000000000000000000000000815260040161258b906159c6565b60405180910390fd5b600073ffffffffffffffffffffffffffffffffffffffff168a73ffffffffffffffffffffffffffffffffffffffff1614156125ce57600080fd5b60198951106125dc57600080fd5b6101008851106125eb57600080fd5b607887106125f857600080fd5b6102bc861061260657600080fd5b603285511061261457600080fd5b61020084511061262357600080fd5b6000821015801561265457507fffffffffffffffffffffffffffffffffffffffffffffffffffffffffffffffff8211155b61265d57600080fd5b600083511161266b57600080fd5b612673614383565b61267d8b8461196d565b90508981600001819052508881602001819052508781604001818152505086816060018181525050858160800181905250848160a00181905250838160c001819052503373ffffffffffffffffffffffffffffffffffffffff168b73ffffffffffffffffffffffffffffffffffffffff167fdaef669ea4b2f39d5f5c66c6b96c81e3fd027cb8f34a8341bf1dbf3ed8532582836000015184602001518560400151866060015187608001518860a0015160405161273f969594939291906158a9565b60405180910390a360019150509998505050505050505050565b612762336140f8565b565b6000600a60009054906101000a900460ff161561278057600080fd5b61278933613d3e565b6127c8576040517f08c379a00000000000000000000000000000000000000000000000000000000081526004016127bf906159c6565b60405180910390fd5b600073ffffffffffffffffffffffffffffffffffffffff168373ffffffffffffffffffffffffffffffffffffffff16141561280257600080fd5b602e82511461281057600080fd5b60078260405161282091906154d6565b90815260200160405180910390206000808201600061283f91906143c0565b600182016000905550503373ffffffffffffffffffffffffffffffffffffffff168373ffffffffffffffffffffffffffffffffffffffff167f9c676f11f477f126926ac2bc49046b7a599e258a4f198776caa2644fce3cd7c6846040516128a6919061552a565b60405180910390a36001905092915050565b60006128ce826002613d5b90919063ffffffff16565b9050919050565b6000600680549050905090565b6000600a60009054906101000a900460ff16156128fe57600080fd5b61290733613d3e565b612946576040517f08c379a000000000000000000000000000000000000000000000000000000000815260040161293d906159c6565b60405180910390fd5b600073ffffffffffffffffffffffffffffffffffffffff168473ffffffffffffffffffffffffffffffffffffffff16141561298057600080fd5b61010083511061298f57600080fd5b602e82511461299d57600080fd5b6129a5614568565b6007836040516129b591906154d6565b9081526020016040518091039020604051806040016040529081600082018054600181600116156101000203166002900480601f016020809104026020016040519081016040528092919081815260200182805460018160011615610100020316600290048015612a675780601f10612a3c57610100808354040283529160200191612a67565b820191906000526020600020905b815481529060010190602001808311612a4a57829003601f168201915b5050505050815260200160018201548152505090508381600001819052503373ffffffffffffffffffffffffffffffffffffffff168573ffffffffffffffffffffffffffffffffffffffff167f87a983619f6316fe3e7ce828f67913b1a1048bf0b29304e3722f250644b049818360000151604051612ae69190615508565b60405180910390a360019150509392505050565b612b0333610c24565b612b42576040517f08c379a0000000000000000000000000000000000000000000000000000000008152600401612b3990615a26565b60405180910390fd5b612b4b81614152565b50565b612b5733610c24565b612b96576040517f08c379a0000000000000000000000000000000000000000000000000000000008152600401612b8d90615a26565b60405180910390fd5b612b9f816141c3565b50565b60006006805490508263ffffffff1610612bbf5760009050612d72565b606060068363ffffffff1681548110612bd457fe5b906000526020600020018054600181600116156101000203166002900480601f016020809104026020016040519081016040528092919081815260200182805460018160011615610100020316600290048015612c725780601f10612c4757610100808354040283529160200191612c72565b820191906000526020600020905b815481529060010190602001808311612c5557829003601f168201915b5050505050905060008363ffffffff1690505b600160068054905003811015612cf35760066001820181548110612ca557fe5b9060005260206000200160068281548110612cbc57fe5b906000526020600020019080546001816001161561010002031660029004612ce59291906145b8565b508080600101915050612c85565b50600660016006805490500381548110612d0957fe5b906000526020600020016000612d1f91906143c0565b6006805480919060019003612d34919061463f565b507ff2cbfee8c87498d0a092f7a5fd04a4bdad181bc04b6dfb9f6406e09809d2f58481604051612d64919061552a565b60405180910390a160019150505b919050565b6000612d8d826003613d5b90919063ffffffff16565b9050919050565b6000600a60009054906101000a900460ff1615612db057600080fd5b612db933613d3e565b612df8576040517f08c379a0000000000000000000000000000000000000000000000000000000008152600401612def906159c6565b60405180910390fd5b600073ffffffffffffffffffffffffffffffffffffffff168473ffffffffffffffffffffffffffffffffffffffff161415612e3257600080fd5b612e3b846128b8565b612e4457600080fd5b610100835110612e5357600080fd5b602e825114612e6157600080fd5b6000429050612e6e614568565b604051806040016040528086815260200183815250905080600785604051612e9691906154d6565b90815260200160405180910390206000820151816000019080519060200190612ec0929190614488565b50602082015181600101559050503373ffffffffffffffffffffffffffffffffffffffff168673ffffffffffffffffffffffffffffffffffffffff167f977dc7867dd6fb513af3d4bb11f4457a5052487f13412788530b454c0b7dfa2c86604051612f2b919061552a565b60405180910390a36001925050509392505050565b60046020528160005260406000208181548110612f5957fe5b906000526020600020906006020160009150915050806000018054600181600116156101000203166002900480601f0160208091040260200160405190810160405280929190818152602001828054600181600116156101000203166002900480156130065780601f10612fdb57610100808354040283529160200191613006565b820191906000526020600020905b815481529060010190602001808311612fe957829003601f168201915b505050505090806001018054600181600116156101000203166002900480601f0160208091040260200160405190810160405280929190818152602001828054600181600116156101000203166002900480156130a45780601f10613079576101008083540402835291602001916130a4565b820191906000526020600020905b81548152906001019060200180831161308757829003601f168201915b505050505090806002018054600181600116156101000203166002900480601f0160208091040260200160405190810160405280929190818152602001828054600181600116156101000203166002900480156131425780601f1061311757610100808354040283529160200191613142565b820191906000526020600020905b81548152906001019060200180831161312557829003601f168201915b505050505090806003018054600181600116156101000203166002900480601f0160208091040260200160405190810160405280929190818152602001828054600181600116156101000203166002900480156131e05780601f106131b5576101008083540402835291602001916131e0565b820191906000526020600020905b8154815290600101906020018083116131c357829003601f168201915b505050505090806004018054600181600116156101000203166002900480601f01602080910402602001604051908101604052809291908181526020018280546001816001161561010002031660029004801561327e5780601f106132535761010080835404028352916020019161327e565b820191906000526020600020905b81548152906001019060200180831161326157829003601f168201915b5050505050908060050154905086565b6000600a60009054906101000a900460ff16156132aa57600080fd5b6132b333613d3e565b6132f2576040517f08c379a00000000000000000000000000000000000000000000000000000000081526004016132e9906159c6565b60405180910390fd5b600073ffffffffffffffffffffffffffffffffffffffff168373ffffffffffffffffffffffffffffffffffffffff16141561332c57600080fd5b6000821015801561335d57507fffffffffffffffffffffffffffffffffffffffffffffffffffffffffffffffff8211155b61336657600080fd5b600960008473ffffffffffffffffffffffffffffffffffffffff1673ffffffffffffffffffffffffffffffffffffffff1681526020019081526020016000206000838152602001908152602001600020600080820160006133c791906143c0565b6001820160006133d791906143c0565b600282016000905560038201600090556004820160006133f791906143c0565b60058201600061340791906143c0565b600682016000613417919061466b565b50503373ffffffffffffffffffffffffffffffffffffffff168373ffffffffffffffffffffffffffffffffffffffff167f7c7588a2bfe6e9d3c0acb5a62b93b9cb012ba9a6de37d69a1f4c1067b0cfa530846040516134769190615a88565b60405180910390a36001905092915050565b6000600a60009054906101000a900460ff16156134a457600080fd5b6134ad33610c24565b6134ec576040517f08c379a00000000000000000000000000000000000000000000000000000000081526004016134e390615a26565b60405180910390fd5b600073ffffffffffffffffffffffffffffffffffffffff168773ffffffffffffffffffffffffffffffffffffffff16141561352657600080fd5b608086511061353457600080fd5b601e85511061354257600080fd5b601e84511061355057600080fd5b601e83511061355e57600080fd5b601e82511061356c57600080fd5b6000429050613579614582565b6040518060c00160405280898152602001888152602001878152602001868152602001858152602001838152509050600460008a73ffffffffffffffffffffffffffffffffffffffff1673ffffffffffffffffffffffffffffffffffffffff1681526020019081526020016000208190806001815401808255809150509060018203906000526020600020906006020160009091929091909150600082015181600001908051906020019061362f929190614488565b50602082015181600101908051906020019061364c929190614488565b506040820151816002019080519060200190613669929190614488565b506060820151816003019080519060200190613686929190614488565b5060808201518160040190805190602001906136a3929190614488565b5060a082015181600501555050503373ffffffffffffffffffffffffffffffffffffffff168973ffffffffffffffffffffffffffffffffffffffff167f99ef3acfa68b13c01a6a7e6717e2224b4157940e6a56be5bd957d13c059fe3a08a8a8a8a8a89604051613718969594939291906155c2565b60405180910390a36001925050509695505050505050565b6060806060806060600a60009054906101000a900460ff161561375257600080fd5b61375b33610c24565b61379a576040517f08c379a000000000000000000000000000000000000000000000000000000000815260040161379190615a26565b60405180910390fd5b6137a333610c24565b156137e2578673ffffffffffffffffffffffffffffffffffffffff163373ffffffffffffffffffffffffffffffffffffffff1614156137e157600080fd5b5b600073ffffffffffffffffffffffffffffffffffffffff168773ffffffffffffffffffffffffffffffffffffffff16141561381c57600080fd5b6000861015801561384d57507fffffffffffffffffffffffffffffffffffffffffffffffffffffffffffffffff8611155b61385657600080fd5b6000600460008973ffffffffffffffffffffffffffffffffffffffff1673ffffffffffffffffffffffffffffffffffffffff16815260200190815260200160002080549050116138a557600080fd5b600042905060006138b589613e23565b90506138bf614582565b60008090505b82811015613c8457600460008c73ffffffffffffffffffffffffffffffffffffffff1673ffffffffffffffffffffffffffffffffffffffff168152602001908152602001600020818154811061391757fe5b90600052602060002090600602016040518060c0016040529081600082018054600181600116156101000203166002900480601f0160208091040260200160405190810160405280929190818152602001828054600181600116156101000203166002900480156139c95780601f1061399e576101008083540402835291602001916139c9565b820191906000526020600020905b8154815290600101906020018083116139ac57829003601f168201915b50505050508152602001600182018054600181600116156101000203166002900480601f016020809104026020016040519081016040528092919081815260200182805460018160011615610100020316600290048015613a6b5780601f10613a4057610100808354040283529160200191613a6b565b820191906000526020600020905b815481529060010190602001808311613a4e57829003601f168201915b50505050508152602001600282018054600181600116156101000203166002900480601f016020809104026020016040519081016040528092919081815260200182805460018160011615610100020316600290048015613b0d5780601f10613ae257610100808354040283529160200191613b0d565b820191906000526020600020905b815481529060010190602001808311613af057829003601f168201915b50505050508152602001600382018054600181600116156101000203166002900480601f016020809104026020016040519081016040528092919081815260200182805460018160011615610100020316600290048015613baf5780601f10613b8457610100808354040283529160200191613baf565b820191906000526020600020905b815481529060010190602001808311613b9257829003601f168201915b50505050508152602001600482018054600181600116156101000203166002900480601f016020809104026020016040519081016040528092919081815260200182805460018160011615610100020316600290048015613c515780601f10613c2657610100808354040283529160200191613c51565b820191906000526020600020905b815481529060010190602001808311613c3457829003601f168201915b505050505081526020016005820154815250509150898260a001511415613c7757613c84565b80806001019150506138c5565b503373ffffffffffffffffffffffffffffffffffffffff168a73ffffffffffffffffffffffffffffffffffffffff167fec95aa37f5ff4f1e52a5333f61229ce376a04a63d4ccdfae6678ef305b97f232836000015184602001518560400151866060015187608001518860a001518b604051613d069796959493929190615817565b60405180910390a380600001519750806020015196508060400151955080606001519450806080015193505050509295509295909350565b6000613d54826001613d5b90919063ffffffff16565b9050919050565b60008073ffffffffffffffffffffffffffffffffffffffff168273ffffffffffffffffffffffffffffffffffffffff161415613dcc576040517f08c379a0000000000000000000000000000000000000000000000000000000008152600401613dc390615a06565b60405180910390fd5b8260000160008373ffffffffffffffffffffffffffffffffffffffff1673ffffffffffffffffffffffffffffffffffffffff16815260200190815260200160002060009054906101000a900460ff16905092915050565b6000600a60009054906101000a900460ff1615613e3f57600080fd5b600073ffffffffffffffffffffffffffffffffffffffff168273ffffffffffffffffffffffffffffffffffffffff161415613e7957600080fd5b600460008373ffffffffffffffffffffffffffffffffffffffff1673ffffffffffffffffffffffffffffffffffffffff168152602001908152602001600020805490509050919050565b613ed781600161423490919063ffffffff16565b3373ffffffffffffffffffffffffffffffffffffffff168173ffffffffffffffffffffffffffffffffffffffff167fb35968fdda9034197de288afbe8a2947dedade83d7dbc0de3e340d4f62ce64dc60405160405180910390a350565b613f488160036142db90919063ffffffff16565b3373ffffffffffffffffffffffffffffffffffffffff168173ffffffffffffffffffffffffffffffffffffffff167f7fef988ea6e2f03c1f9fb16df333b2a7911dfb096f5c563866713c1c9517ec7060405160405180910390a350565b613fb98160026142db90919063ffffffff16565b3373ffffffffffffffffffffffffffffffffffffffff168173ffffffffffffffffffffffffffffffffffffffff167ff6dfb9f71429364456283a1521c30cc400d799d7b381d7ce164687f11c18dbaf60405160405180910390a350565b61402a8160006142db90919063ffffffff16565b3373ffffffffffffffffffffffffffffffffffffffff168173ffffffffffffffffffffffffffffffffffffffff167fbf3f493c772c8c283fd124432c2d0f539ab343faa04258fe88e52912d36b102b60405160405180910390a350565b61409b81600261423490919063ffffffff16565b3373ffffffffffffffffffffffffffffffffffffffff168173ffffffffffffffffffffffffffffffffffffffff167fd00481c3fc5867ec74704c9c99334b8d53c7735c947bdcb6cbebcae6740ed94060405160405180910390a350565b61410c81600061423490919063ffffffff16565b8073ffffffffffffffffffffffffffffffffffffffff167f583e7032182b053f2bcd5e3ac78021a3c8d321735043ee84032742c9a6528afd60405160405180910390a250565b6141668160016142db90919063ffffffff16565b3373ffffffffffffffffffffffffffffffffffffffff168173ffffffffffffffffffffffffffffffffffffffff167f93b0ab94930bbad064296971ea5e731f84ae511662781bcaf28543ab9042368a60405160405180910390a350565b6141d781600361423490919063ffffffff16565b3373ffffffffffffffffffffffffffffffffffffffff168173ffffffffffffffffffffffffffffffffffffffff167f83bb2e314d2b42b828b2082c5f08a3b9162d6322fe9b8bdaa47dc3d26ce183af60405160405180910390a350565b61423e8282613d5b565b61427d576040517f08c379a0000000000000000000000000000000000000000000000000000000008152600401614274906159e6565b60405180910390fd5b60008260000160008373ffffffffffffffffffffffffffffffffffffffff1673ffffffffffffffffffffffffffffffffffffffff16815260200190815260200160002060006101000a81548160ff0219169083151502179055505050565b6142e58282613d5b565b15614325576040517f08c379a000000000000000000000000000000000000000000000000000000000815260040161431c90615986565b60405180910390fd5b60018260000160008373ffffffffffffffffffffffffffffffffffffffff1673ffffffffffffffffffffffffffffffffffffffff16815260200190815260200160002060006101000a81548160ff0219169083151502179055505050565b6040518060e00160405280606081526020016060815260200160008152602001600081526020016060815260200160608152602001606081525090565b50805460018160011615610100020316600290046000825580601f106143e65750614405565b601f016020900490600052602060002090810190614404919061468c565b5b50565b828054600181600116156101000203166002900490600052602060002090601f016020900481019282601f1061444957805160ff1916838001178555614477565b82800160010185558215614477579182015b8281111561447657825182559160200191906001019061445b565b5b509050614484919061468c565b5090565b828054600181600116156101000203166002900490600052602060002090601f016020900481019282601f106144c957805160ff19168380011785556144f7565b828001600101855582156144f7579182015b828111156144f65782518255916020019190600101906144db565b5b509050614504919061468c565b5090565b828054828255906000526020600020908101928215614557579160200282015b82811115614556578251829080519060200190614546929190614488565b5091602001919060010190614528565b5b50905061456491906146b1565b5090565b604051806040016040528060608152602001600081525090565b6040518060c001604052806060815260200160608152602001606081526020016060815260200160608152602001600081525090565b828054600181600116156101000203166002900490600052602060002090601f016020900481019282601f106145f1578054855561462e565b8280016001018555821561462e57600052602060002091601f016020900482015b8281111561462d578254825591600101919060010190614612565b5b50905061463b919061468c565b5090565b8154818355818111156146665781836000526020600020918201910161466591906146b1565b5b505050565b508054600082559060005260206000209081019061468991906146b1565b50565b6146ae91905b808211156146aa576000816000905550600101614692565b5090565b90565b6146da91905b808211156146d657600081816146cd91906143c0565b506001016146b7565b5090565b90565b6000813590506146ec81615ce4565b92915050565b600082601f83011261470357600080fd5b813561471661471182615ad0565b615aa3565b9150818183526020840193506020810190508360005b8381101561475c5781358601614742888261477b565b84526020840193506020830192505060018101905061472c565b5050505092915050565b60008135905061477581615cfb565b92915050565b600082601f83011261478c57600080fd5b813561479f61479a82615af8565b615aa3565b915080825260208301602083018583830111156147bb57600080fd5b6147c6838284615c91565b50505092915050565b600082601f8301126147e057600080fd5b81356147f36147ee82615b24565b615aa3565b9150808252602083016020830185838301111561480f57600080fd5b61481a838284615c91565b50505092915050565b60008135905061483281615d12565b92915050565b60008135905061484781615d29565b92915050565b60008135905061485c81615d40565b92915050565b60006020828403121561487457600080fd5b6000614882848285016146dd565b91505092915050565b6000806040838503121561489e57600080fd5b60006148ac858286016146dd565b925050602083013567ffffffffffffffff8111156148c957600080fd5b6148d5858286016147cf565b9150509250929050565b6000806000606084860312156148f457600080fd5b6000614902868287016146dd565b935050602084013567ffffffffffffffff81111561491f57600080fd5b61492b868287016147cf565b925050604084013567ffffffffffffffff81111561494857600080fd5b614954868287016147cf565b9150509250925092565b60008060008060008060c0878903121561497757600080fd5b600061498589828a016146dd565b965050602087013567ffffffffffffffff8111156149a257600080fd5b6149ae89828a016147cf565b955050604087013567ffffffffffffffff8111156149cb57600080fd5b6149d789828a016147cf565b945050606087013567ffffffffffffffff8111156149f457600080fd5b614a0089828a016147cf565b935050608087013567ffffffffffffffff811115614a1d57600080fd5b614a2989828a016147cf565b92505060a087013567ffffffffffffffff811115614a4657600080fd5b614a5289828a016147cf565b9150509295509295509295565b600080600080600080600060e0888a031215614a7a57600080fd5b6000614a888a828b016146dd565b975050602088013567ffffffffffffffff811115614aa557600080fd5b614ab18a828b016147cf565b965050604088013567ffffffffffffffff811115614ace57600080fd5b614ada8a828b016147cf565b955050606088013567ffffffffffffffff811115614af757600080fd5b614b038a828b016147cf565b945050608088013567ffffffffffffffff811115614b2057600080fd5b614b2c8a828b016147cf565b93505060a088013567ffffffffffffffff811115614b4957600080fd5b614b558a828b016147cf565b92505060c0614b668a828b01614823565b91505092959891949750929550565b60008060008060008060008060006101208a8c031215614b9457600080fd5b6000614ba28c828d016146dd565b99505060208a013567ffffffffffffffff811115614bbf57600080fd5b614bcb8c828d016147cf565b98505060408a013567ffffffffffffffff811115614be857600080fd5b614bf48c828d016147cf565b9750506060614c058c828d01614823565b9650506080614c168c828d01614823565b95505060a08a013567ffffffffffffffff811115614c3357600080fd5b614c3f8c828d016147cf565b94505060c08a013567ffffffffffffffff811115614c5c57600080fd5b614c688c828d016147cf565b93505060e08a013567ffffffffffffffff811115614c8557600080fd5b614c918c828d016146f2565b925050610100614ca38c828d01614823565b9150509295985092959850929598565b600080600080600080600080610100898b031215614cd057600080fd5b6000614cde8b828c016146dd565b985050602089013567ffffffffffffffff811115614cfb57600080fd5b614d078b828c016147cf565b975050604089013567ffffffffffffffff811115614d2457600080fd5b614d308b828c016147cf565b9650506060614d418b828c0161484d565b9550506080614d528b828c0161484d565b94505060a089013567ffffffffffffffff811115614d6f57600080fd5b614d7b8b828c016147cf565b93505060c089013567ffffffffffffffff811115614d9857600080fd5b614da48b828c016147cf565b92505060e089013567ffffffffffffffff811115614dc157600080fd5b614dcd8b828c016146f2565b9150509295985092959890939650565b60008060408385031215614df057600080fd5b6000614dfe858286016146dd565b9250506020614e0f85828601614823565b9150509250929050565b600060208284031215614e2b57600080fd5b6000614e3984828501614766565b91505092915050565b600060208284031215614e5457600080fd5b600082013567ffffffffffffffff811115614e6e57600080fd5b614e7a848285016147cf565b91505092915050565b600060208284031215614e9557600080fd5b6000614ea384828501614823565b91505092915050565b600060208284031215614ebe57600080fd5b6000614ecc84828501614838565b91505092915050565b6000614ee1838361504c565b905092915050565b6000614ef482615b90565b614efe8185615bdc565b935083602082028501614f1085615b60565b8060005b85811015614f4c5784840389528151614f2d8582614ed5565b9450614f3883615bbe565b925060208a01995050600181019050614f14565b50829750879550505050505092915050565b6000614f6982615b85565b614f738185615bcb565b935083602082028501614f8585615b50565b8060005b85811015614fc15784840389528151614fa28582614ed5565b9450614fad83615bb1565b925060208a01995050600181019050614f89565b50829750879550505050505092915050565b614fdc81615c2c565b82525050565b6000614fed82615ba6565b614ff78185615bfe565b9350615007818560208601615ca0565b61501081615cd3565b840191505092915050565b600061502682615ba6565b6150308185615c0f565b9350615040818560208601615ca0565b80840191505092915050565b600061505782615b9b565b6150618185615bed565b9350615071818560208601615ca0565b61507a81615cd3565b840191505092915050565b600061509082615b9b565b61509a8185615bfe565b93506150aa818560208601615ca0565b6150b381615cd3565b840191505092915050565b6000815460018116600081146150db576001811461510157615145565b607f60028304166150ec8187615bfe565b955060ff198316865260208601935050615145565b6002820461510f8187615bfe565b955061511a85615b70565b60005b8281101561513c5781548189015260018201915060208101905061511d565b80880195505050505b505092915050565b600061515a601f83615bfe565b91507f526f6c65733a206163636f756e7420616c72656164792068617320726f6c65006000830152602082019050919050565b600061519a603983615bfe565b91507f4e6f207365206375656e746120636f6e20656c20726f6c20657370656369666960008301527f6361646f284173697374656e7465206f206dc3a96469636f29000000000000006020830152604082019050919050565b6000615200602d83615bfe565b91507f4e6f207365206375656e746120636f6e20656c20726f6c20657370656369666960008301527f6361646f284dc3a96469636f29000000000000000000000000000000000000006020830152604082019050919050565b6000615266602183615bfe565b91507f526f6c65733a206163636f756e7420646f6573206e6f74206861766520726f6c60008301527f65000000000000000000000000000000000000000000000000000000000000006020830152604082019050919050565b60006152cc602283615bfe565b91507f526f6c65733a206163636f756e7420697320746865207a65726f20616464726560008301527f73730000000000000000000000000000000000000000000000000000000000006020830152604082019050919050565b6000615332602b83615bfe565b91507f4e6f207365206375656e746120636f6e20656c20726f6c20657370656369666960008301527f6361646f2841646d696e290000000000000000000000000000000000000000006020830152604082019050919050565b6000615398603883615bfe565b91507f4e6f207365206375656e746120636f6e20656c20726f6c20657370656369666960008301527f6361646f2850616369656e7465206f206dc3a96469636f2900000000000000006020830152604082019050919050565b600060e083016000830151848203600086015261540e828261504c565b91505060208301518482036020860152615428828261504c565b915050604083015161543d60408601826154a9565b50606083015161545060608601826154a9565b5060808301518482036080860152615468828261504c565b91505060a083015184820360a0860152615482828261504c565b91505060c083015184820360c086015261549c8282614f5e565b9150508091505092915050565b6154b281615c58565b82525050565b6154c181615c58565b82525050565b6154d081615c7f565b82525050565b60006154e2828461501b565b915081905092915050565b60006020820190506155026000830184614fd3565b92915050565b600060208201905081810360008301526155228184615085565b905092915050565b600060208201905081810360008301526155448184614fe2565b905092915050565b600060a08201905081810360008301526155668188614fe2565b9050818103602083015261557a8187614fe2565b9050818103604083015261558e8186614fe2565b905081810360608301526155a28185614fe2565b905081810360808301526155b68184614fe2565b90509695505050505050565b600060c08201905081810360008301526155dc8189614fe2565b905081810360208301526155f08188614fe2565b905081810360408301526156048187614fe2565b905081810360608301526156188186614fe2565b9050818103608083015261562c8185614fe2565b905061563b60a08301846154b8565b979650505050505050565b600060e0820190508181036000830152615660818a614fe2565b905081810360208301526156748189614fe2565b905061568360408301886154b8565b61569060608301876154b8565b81810360808301526156a28186614fe2565b905081810360a08301526156b68185614fe2565b905081810360c08301526156ca8184614ee9565b905098975050505050505050565b600060e08201905081810360008301526156f2818a614fe2565b905081810360208301526157068189614fe2565b905061571560408301886154c7565b61572260608301876154c7565b81810360808301526157348186614fe2565b905081810360a08301526157488185614fe2565b905061575760c08301846154b8565b98975050505050505050565b6000604082019050818103600083015261577d8185614fe2565b905061578c60208301846154b8565b9392505050565b600060c08201905081810360008301526157ad8189615085565b905081810360208301526157c18188615085565b905081810360408301526157d58187615085565b905081810360608301526157e98186615085565b905081810360808301526157fd8185615085565b905061580c60a08301846154b8565b979650505050505050565b600060e0820190508181036000830152615831818a615085565b905081810360208301526158458189615085565b905081810360408301526158598188615085565b9050818103606083015261586d8187615085565b905081810360808301526158818186615085565b905061589060a08301856154b8565b61589d60c08301846154b8565b98975050505050505050565b600060c08201905081810360008301526158c38189615085565b905081810360208301526158d78188615085565b90506158e660408301876154b8565b6158f360608301866154b8565b81810360808301526159058185615085565b905081810360a08301526159198184615085565b9050979650505050505050565b600060408201905081810360008301526159408185615085565b905061594f60208301846154b8565b9392505050565b6000604082019050818103600083015261597081856150be565b905061597f60208301846154b8565b9392505050565b6000602082019050818103600083015261599f8161514d565b9050919050565b600060208201905081810360008301526159bf8161518d565b9050919050565b600060208201905081810360008301526159df816151f3565b9050919050565b600060208201905081810360008301526159ff81615259565b9050919050565b60006020820190508181036000830152615a1f816152bf565b9050919050565b60006020820190508181036000830152615a3f81615325565b9050919050565b60006020820190508181036000830152615a5f8161538b565b9050919050565b60006020820190508181036000830152615a8081846153f1565b905092915050565b6000602082019050615a9d60008301846154b8565b92915050565b6000604051905081810181811067ffffffffffffffff82111715615ac657600080fd5b8060405250919050565b600067ffffffffffffffff821115615ae757600080fd5b602082029050602081019050919050565b600067ffffffffffffffff821115615b0f57600080fd5b601f19601f8301169050602081019050919050565b600067ffffffffffffffff821115615b3b57600080fd5b601f19601f8301169050602081019050919050565b6000819050602082019050919050565b6000819050602082019050919050565b60008190508160005260206000209050919050565b600081519050919050565b600081519050919050565b600081519050919050565b600081519050919050565b6000602082019050919050565b6000602082019050919050565b600082825260208201905092915050565b600082825260208201905092915050565b600082825260208201905092915050565b600082825260208201905092915050565b600081905092915050565b6000615c2582615c38565b9050919050565b60008115159050919050565b600073ffffffffffffffffffffffffffffffffffffffff82169050919050565b6000819050919050565b600063ffffffff82169050919050565b600060ff82169050919050565b6000615c8a82615c72565b9050919050565b82818337600083830152505050565b60005b83811015615cbe578082015181840152602081019050615ca3565b83811115615ccd576000848401525b50505050565b6000601f19601f8301169050919050565b615ced81615c1a565b8114615cf857600080fd5b50565b615d0481615c2c565b8114615d0f57600080fd5b50565b615d1b81615c58565b8114615d2657600080fd5b50565b615d3281615c62565b8114615d3d57600080fd5b50565b615d4981615c72565b8114615d5457600080fd5b5056fea365627a7a72315820d08ac848058eb6586617137be3b3f3ca5d3f0fe6182b716004e911a57ef6d3366c6578706572696d656e74616cf564736f6c63430005100040",
  "source": "pragma solidity 0.5.16;\npragma experimental ABIEncoderV2;\n\nimport \"./PatientRecords.sol\";\n\n/**\n * @title Smart Contract de Diagnstico de pacientes - Control de Diagnstico realizado por el mdico.\n * @author Francisco Alemn\n * @notice Este contrato representa el registro de un Diagnstico asociado a una persona.\n * @dev El contrato hereda las funciones del contrato de roles\n */\n\ncontract PatientDiagnosis is PatientRecords {\n\n    /**\n     * @title Representa un Dignostico el cual le pertenece a un paciente.\n     */\n    struct Diagnostico {\n        string nombre;\n        string comorb;\n        uint256 age;\n        uint256 weight;\n        string diagnostic;\n        string observations;\n        string[] estudio;\n    }\n\n    /**\n     * @notice Mapea el paciente a su diagnstico..\n     */\n    mapping (address => mapping (uint256 => Diagnostico)) public fileToPatientDiagnosis;\n\n    /**\n     * @notice Patrn de switch para encender/apagar\n     */\n    bool private stopped = false;\n\n    /**\n     * @dev Eventos que sern registrados en la blockchain.\n     */\n    event DiagnosticdAdded(\n        address indexed _patient,\n        address indexed _medic,\n        string _nombre,\n        string _comorb,\n        uint256 _age,\n        uint256 _weight,\n        string _diagnostic,\n        string _observations,\n        uint256 _date\n        );\n\n    event DiagnosisUpdate(\n        address indexed _patient,\n        address indexed _medic,\n        string _nombre,\n        string _comorb,\n        uint256 _age,\n        uint256 _weight,\n        string _diagnostic,\n        string _observations\n        );\n\n    event DiagnosticRetrieve(\n        address indexed _patient,\n        address indexed _medic,\n        string _nombre,\n        string _comorb,\n        uint256 _age,\n        uint256 _weight,\n        string _diagnostic,\n        string  _observations\n        );\n\n    event DiagnosticDelete(\n        address indexed _patient,\n        address indexed _medic,\n        uint256 _date\n        );\n\n    /**\n    * @dev Indica que se ha puesto el contrato en pausa.\n    * @param _admin Un administrador\n    * @param _stop Indica cuando hay una pausa o una reanudacin.\n    */\n    event LogSwitchStop(\n        address indexed _admin,\n        bool _stop\n    );\n\n    /**\n    * @dev Previene de ejecucin del contrato\n    */\n    modifier nonlyStopped {\n        require(!stopped);\n        _;\n    }\n\n    /**\n    * @dev Est funcin ser llamada para todos los mensajes que sean enviados a este contrado.\n    * Enviar Ether a este contrato ocasionar una excepcin, dado que las funciones no tienen un modificador de pago.\n    */\n    function () external payable {}\n\n    /**\n    * @notice Pausar el contrato\n    * Se detiene el contrato bajo ciertas condiciones.\n    * Sera til cuando nuevos errores sean descubiertos.\n    * @param _stop Switch del contrado de encendido/apagado\n    */\n    function emergencyStop(bool _stop) public onlyAdmin {\n        stopped = _stop;\n        emit LogSwitchStop(msg.sender, _stop);\n    }\n\n    function patientDiagnosis(address _account, uint256 _timeStamp) public view returns (Diagnostico memory) {\n        return fileToPatientDiagnosis[_account][_timeStamp];\n    }\n\n    /**\n   * @dev Funcin de creacin de Diagnstico. Esta funcin es realizada por un doctor.\n   * @param _account a\n   * @param _age a\n   * @param _weight a\n   * @param _diagnostic a\n   * @param _observations a\n   *@param _date a\n   * @return _success a\n   */\n    function addDiagnostic(\n        address _account,\n        string memory _nombre,\n        string memory _comorb,\n        uint8 _age,\n        uint8 _weight,\n        string memory _diagnostic,\n        string memory _observations,\n        string[] memory _estudio\n        )\n    public nonlyStopped onlyMedic returns (bool _success) {\n        require(_account != address(0));\n        require(isPatient(_account) && isMedic(msg.sender));\n        require(bytes(_nombre).length < 25);\n        require(bytes(_comorb).length < 50);\n        require(_age < 120);\n        require(_weight < 700);\n        require(bytes(_diagnostic).length < 256);\n        require(bytes(_observations).length < 512);\n\n        uint256 _date = now;\n        Diagnostico memory diagnostico = Diagnostico(\n            _nombre,\n            _comorb,\n            _age,\n            _weight,\n            _diagnostic,\n            _observations,\n            _estudio\n        );\n\n        fileToPatientDiagnosis[_account][_date] = diagnostico;\n\n        emit DiagnosticdAdded(\n            _account,\n            msg.sender,\n            _nombre,\n            _comorb,\n            _age,\n            _weight,\n            _diagnostic,\n            _observations,\n            _date\n        );\n        _success = true;\n    }\n\n    /**\n    * @notice Returns el Diagnstico en el ndice del propietario de la direccin.\n    * @dev Controlado por el switch\n    * @param _account Cuenta del paciente\n    */\n    function updateDiagnostic(\n        address _account,\n        string memory _nombre,\n        string memory _comorb,\n        uint256 _age,\n        uint256 _weight,\n        string memory _diagnostic,\n        string memory _observations,\n        string[] memory _estudio,\n        uint256 _date\n        )\n    public nonlyStopped onlyMedic returns (bool _success) {\n        require(_account != address(0));\n        require(bytes(_nombre).length < 25);\n        require(bytes(_comorb).length < 256);\n        require(_age < 120);\n        require(_weight < 700);\n        require(bytes(_diagnostic).length < 50);\n        require(bytes(_observations).length < 512);\n        require(_date >= 0 && _date <= 2**256 - 1);\n        //require(fileToPatientDiagnosis[_account][_date] != 0);\n        require(_estudio.length > 0);\n\n        Diagnostico memory diagnostico = patientDiagnosis(_account, _date);\n\n        diagnostico.nombre = _nombre;\n        diagnostico.comorb = _comorb;\n        diagnostico.age = _age;\n        diagnostico.weight = _weight;\n        diagnostico.diagnostic = _diagnostic;\n        diagnostico.observations = _observations;\n        diagnostico.estudio = _estudio;\n\n        emit DiagnosisUpdate(\n            _account,\n            msg.sender,\n            diagnostico.nombre,\n            diagnostico.comorb,\n            diagnostico.age,\n            diagnostico.weight,\n            diagnostico.diagnostic,\n            diagnostico.observations\n        );\n        _success = true;\n    }\n\n    /**\n    * @notice Returns el Diagnstico en el ndice del propietario de la direccin.\n    * @dev Controlado por el switch\n    * @param _account The owner address\n    * @return _date The uploaded timestamp\n    */\n    function viewDiagnostic(address _account, uint256 _date) public nonlyStopped onlyPatient returns (\n        string memory _nombre,\n        string memory _comorb,\n        uint256 _age,\n        uint256 _weight,\n        string memory _diagnostic,\n        string memory _observations,\n        string[] memory _estudio\n        ) {\n        if (isPatient(msg.sender)) {\n            require(msg.sender == _account);\n        }\n        if (isMedic(msg.sender)) {\n            require(msg.sender != _account);\n        }\n        require(_account != address(0));\n        require(_date >= 0 && _date <= 2**256 - 1);\n        //require(fileToPatientDiagnosis[_account][_date] != false);\n\n        Diagnostico memory diagnostico = patientDiagnosis(_account, _date);\n\n        emit DiagnosticRetrieve(\n            _account,\n            msg.sender,\n            diagnostico.nombre,\n            diagnostico.comorb,\n            diagnostico.age,\n            diagnostico.weight,\n            diagnostico.diagnostic,\n            diagnostico.observations\n        );\n        _nombre = diagnostico.nombre;\n        _comorb = diagnostico.comorb;\n        _age = diagnostico.age;\n        _weight = diagnostico.weight;\n        _diagnostic = diagnostico.diagnostic;\n        _observations = diagnostico.observations;\n        _estudio = diagnostico.estudio;\n    }\n\n    /**\n    * @notice Returns el estudio en el ndice del propietario de la direccin.\n    * @dev Controlado por el switch\n    * @param _account The owner address\n    * @return _uploadDate The uploaded timestamp\n    */\n    function deleteDiagnostic(address _account, uint256 _date) public nonlyStopped onlyMedic returns (bool _success) {\n        require(_account != address(0));\n        require(_date >= 0 && _date <= 2**256 - 1);\n        //require(fileToPatientDiagnosis[_account][_date] != false);\n\n        delete fileToPatientDiagnosis[_account][_date];\n\n        emit DiagnosticDelete(\n            _account,\n            msg.sender,\n            _date\n        );\n        _success = true;\n    }\n\n}\n",
  "sourcePath": "/home/seno/Maestra/Distribuidos/Backend/backend/contracts/PatientDiagnosis.sol",
  "compiler": {
    "name": "solc",
    "version": "0.5.16+commit.9c3226ce.Emscripten.clang"
  },
  "schemaVersion": "3.0.23",
  "updatedAt": "2020-04-27T05:52:33.096Z",
  "networkType": "ethereum",
  "devdoc": {
    "author": "Francisco Alemn",
    "details": "El contrato hereda las funciones del contrato de roles",
    "methods": {
      "addAdmin(address)": {
        "details": "Funcin pblica para asignar admin",
        "params": {
          "account": "Cuenta que ser asignada como admin"
        }
      },
      "addAssistant(address)": {
        "details": "Funcin pblica para asignar asistente",
        "params": {
          "account": "Cuenta que ser asignada como asistente"
        }
      },
      "addDiagnostic(address,string,string,uint8,uint8,string,string,string[])": {
        "details": "Funcin de creacin de Diagnstico. Esta funcin es realizada por un doctor.",
        "params": {
          "_account": "a",
          "_age": "a",
          "_diagnostic": "a",
          "_observations": "a param _date a",
          "_weight": "a"
        },
        "return": "_success a"
      },
      "addMedic(address)": {
        "details": "Funcin pblica para asignar mdico",
        "params": {
          "account": "Cuenta que ser asignada como mdico"
        }
      },
      "addMedicRecord(string)": {
        "params": {
          "_hashString": "cadena de IPFS que contiene el archivo de registro"
        }
      },
      "addMedics(address,string,string,string,string,string)": {
        "details": "Funcin para agregar un mdico. Esta funcin es realizada por un administrador.",
        "params": {
          "_account": "a",
          "_cedula": "a",
          "_email": "a",
          "_hashPicture": "a",
          "_name": "a",
          "_specialty": "a"
        },
        "return": "_success a"
      },
      "addPatient(address)": {
        "details": "Funcin pblica para asignar paciente",
        "params": {
          "account": "Cuenta que ser asignada como paciente"
        }
      },
      "addRecord(address,string,string)": {
        "details": "Funcin de creacin de Estudio. Esta funcin es realizada por un doctor.",
        "params": {
          "_account": "a",
          "_ipfsHash": "a"
        },
        "return": "_success a"
      },
      "deleteDiagnostic(address,uint256)": {
        "details": "Controlado por el switch",
        "params": {
          "_account": "The owner address"
        },
        "return": "_uploadDate The uploaded timestamp"
      },
      "deleteMedics(address,uint256)": {
        "details": "Controlado por el switch",
        "params": {
          "_account": "The owner address"
        },
        "return": "_date The uploaded timestamp"
      },
      "deleteRecord(address,string)": {
        "details": "Controlado por el switch",
        "params": {
          "_account": "The owner address"
        },
        "return": "_uploadDate The uploaded timestamp"
      },
      "emergencyStop(bool)": {
        "params": {
          "_stop": "Switch del contrado de encendido/apagado"
        }
      },
      "getPendingLength()": {
        "return": "Longitud de MedicPending"
      },
      "getPendingRequest(uint32)": {
        "params": {
          "_index": "Indice a consultar"
        },
        "return": "Cadena dentro del indice indicado en MedicPending"
      },
      "isAdmin(address)": {
        "params": {
          "account": "Cuenta donde se validar el rol."
        },
        "return": "true si la cuenta tiene rol de admin"
      },
      "isAssistant(address)": {
        "params": {
          "account": "Cuenta donde se validar el rol."
        },
        "return": "true si la cuenta tiene rol de asistente"
      },
      "isMedic(address)": {
        "params": {
          "account": "Cuenta donde se validar el rol."
        },
        "return": "true si la cuenta tiene rol de mdico"
      },
      "isPatient(address)": {
        "params": {
          "account": "Cuenta donde se validar el rol."
        },
        "return": "true si la cuenta tiene rol de paciente"
      },
      "removeAssistant(address)": {
        "details": "Remover a rol de asistente. Quien invoque al contrato no volver a ser asistente."
      },
      "removeMedic(address)": {
        "details": "Funcin pblica para remover mdico",
        "params": {
          "account": "Cuenta que ser removida de mdico"
        }
      },
      "removePatient(address)": {
        "details": "Remover a rol de paciente. Quien invoque al contrato no volver a ser paciente."
      },
      "removePending(uint32)": {
        "details": "Hace un swap para no dejar espacios en blanco",
        "params": {
          "_index": "The owner address"
        },
        "return": "booleano diciendo si fue exitoso o no"
      },
      "renounceAdmin()": {
        "details": "Renunciar a rol de administrador. Quien inque al contrato no volver a ser admin."
      },
      "renounceMedic()": {
        "details": "Renunciar a rol de personal mdico. Quien invoque al contrato no volver a ser mdico."
      },
      "updateDiagnostic(address,string,string,uint256,uint256,string,string,string[],uint256)": {
        "details": "Controlado por el switch",
        "params": {
          "_account": "Cuenta del paciente"
        }
      },
      "updateMedics(address,string,string,string,string,string,uint256)": {
        "details": "Controlado por el switch",
        "params": {
          "_account": "Cuenta del mdico"
        },
        "return": "a"
      },
      "updateRecord(address,string,string)": {
        "details": "Controlado por el switch",
        "params": {
          "_account": "Cuenta del paciente"
        },
        "return": "_ipfsHash The IPFS hash"
      },
      "viewDiagnostic(address,uint256)": {
        "details": "Controlado por el switch",
        "params": {
          "_account": "The owner address"
        },
        "return": "_date The uploaded timestamp"
      },
      "viewMedics(address,uint256)": {
        "details": "Controlado por el switch",
        "params": {
          "_account": "The owner address"
        },
        "return": "_date The uploaded timestamp"
      },
      "viewRecords(address,string)": {
        "details": "Controlado por el switch",
        "params": {
          "_account": "The owner address"
        },
        "return": "_uploadDate The uploaded timestamp"
      }
    },
    "title": "Smart Contract de Diagnstico de pacientes - Control de Diagnstico realizado por el mdico."
  },
  "userdoc": {
    "methods": {
      "addMedicRecord(string)": {
        "notice": "Guarda el hash de un registro del medico"
      },
      "deleteDiagnostic(address,uint256)": {
        "notice": "Returns el estudio en el ndice del propietario de la direccin."
      },
      "deleteMedics(address,uint256)": {
        "notice": "Returns el medico en el ndice del propietario de la direccin."
      },
      "deleteRecord(address,string)": {
        "notice": "Returns el estudio en el ndice del propietario de la direccin."
      },
      "emergencyStop(bool)": {
        "notice": "Pausar el contrato Se detiene el contrato bajo ciertas condiciones. Sera til cuando nuevos errores sean descubiertos."
      },
      "getPendingLength()": {
        "notice": "Regresa la longitud del arreglo de solicitudes pendientes"
      },
      "getPendingRequest(uint32)": {
        "notice": "Regresa la cadena hash de un indice dado"
      },
      "removePending(uint32)": {
        "notice": "Remueve el elemento del indice indicado"
      },
      "updateDiagnostic(address,string,string,uint256,uint256,string,string,string[],uint256)": {
        "notice": "Returns el Diagnstico en el ndice del propietario de la direccin."
      },
      "updateMedics(address,string,string,string,string,string,uint256)": {
        "notice": "Returns el Medico en el ndice del propietario de la direccin."
      },
      "updateRecord(address,string,string)": {
        "notice": "Returns el estudio en el ndice del propietario de la direccin."
      },
      "viewDiagnostic(address,uint256)": {
        "notice": "Returns el Diagnstico en el ndice del propietario de la direccin."
      },
      "viewMedics(address,uint256)": {
        "notice": "Returns el Medico en el ndice del propietario de la direccin."
      },
      "viewRecords(address,string)": {
        "notice": "Returns el estudio en el ndice del propietario de la direccin."
      }
    },
    "notice": "Este contrato representa el registro de un Diagnstico asociado a una persona."
  }
}