{
  "contractName": "PatientDiagnosis",
  "abi": [
    {
      "anonymous": false,
      "inputs": [
        {
          "indexed": true,
          "internalType": "address",
          "name": "newAdm",
          "type": "address"
        },
        {
          "indexed": true,
          "internalType": "address",
          "name": "whoAddedAdm",
          "type": "address"
        }
      ],
      "name": "AdminAdded",
      "type": "event"
    },
    {
      "anonymous": false,
      "inputs": [
        {
          "indexed": true,
          "internalType": "address",
          "name": "accountRen",
          "type": "address"
        }
      ],
      "name": "AdminRenounce",
      "type": "event"
    },
    {
      "anonymous": false,
      "inputs": [
        {
          "indexed": true,
          "internalType": "address",
          "name": "_patient",
          "type": "address"
        },
        {
          "indexed": true,
          "internalType": "address",
          "name": "_medic",
          "type": "address"
        },
        {
          "indexed": false,
          "internalType": "string",
          "name": "_nombre",
          "type": "string"
        },
        {
          "indexed": false,
          "internalType": "string",
          "name": "_aPat",
          "type": "string"
        },
        {
          "indexed": false,
          "internalType": "string",
          "name": "_aMat",
          "type": "string"
        },
        {
          "indexed": false,
          "internalType": "string",
          "name": "_comorb",
          "type": "string"
        },
        {
          "indexed": false,
          "internalType": "uint256",
          "name": "_age",
          "type": "uint256"
        },
        {
          "indexed": false,
          "internalType": "uint256",
          "name": "_weight",
          "type": "uint256"
        },
        {
          "indexed": false,
          "internalType": "string",
          "name": "_diagnostic",
          "type": "string"
        },
        {
          "indexed": false,
          "internalType": "string",
          "name": "_observations",
          "type": "string"
        }
      ],
      "name": "DiagnosisUpdate",
      "type": "event"
    },
    {
      "anonymous": false,
      "inputs": [
        {
          "indexed": true,
          "internalType": "address",
          "name": "_patient",
          "type": "address"
        },
        {
          "indexed": true,
          "internalType": "address",
          "name": "_medic",
          "type": "address"
        },
        {
          "indexed": false,
          "internalType": "uint256",
          "name": "_date",
          "type": "uint256"
        }
      ],
      "name": "DiagnosticDelete",
      "type": "event"
    },
    {
      "anonymous": false,
      "inputs": [
        {
          "indexed": true,
          "internalType": "address",
          "name": "_patient",
          "type": "address"
        },
        {
          "indexed": true,
          "internalType": "address",
          "name": "_medic",
          "type": "address"
        },
        {
          "indexed": false,
          "internalType": "string",
          "name": "_nombre",
          "type": "string"
        },
        {
          "indexed": false,
          "internalType": "string",
          "name": "_aPat",
          "type": "string"
        },
        {
          "indexed": false,
          "internalType": "string",
          "name": "_aMat",
          "type": "string"
        },
        {
          "indexed": false,
          "internalType": "string",
          "name": "_comorb",
          "type": "string"
        },
        {
          "indexed": false,
          "internalType": "uint256",
          "name": "_age",
          "type": "uint256"
        },
        {
          "indexed": false,
          "internalType": "uint256",
          "name": "_weight",
          "type": "uint256"
        },
        {
          "indexed": false,
          "internalType": "string",
          "name": "_diagnostic",
          "type": "string"
        },
        {
          "indexed": false,
          "internalType": "string",
          "name": "_observations",
          "type": "string"
        }
      ],
      "name": "DiagnosticRetrieve",
      "type": "event"
    },
    {
      "anonymous": false,
      "inputs": [
        {
          "indexed": true,
          "internalType": "address",
          "name": "_patient",
          "type": "address"
        },
        {
          "indexed": true,
          "internalType": "address",
          "name": "_medic",
          "type": "address"
        },
        {
          "indexed": false,
          "internalType": "string",
          "name": "_nombre",
          "type": "string"
        },
        {
          "indexed": false,
          "internalType": "string",
          "name": "_aPat",
          "type": "string"
        },
        {
          "indexed": false,
          "internalType": "string",
          "name": "_aMat",
          "type": "string"
        },
        {
          "indexed": false,
          "internalType": "string",
          "name": "_comorb",
          "type": "string"
        },
        {
          "indexed": false,
          "internalType": "uint256",
          "name": "_age",
          "type": "uint256"
        },
        {
          "indexed": false,
          "internalType": "uint256",
          "name": "_weight",
          "type": "uint256"
        },
        {
          "indexed": false,
          "internalType": "string",
          "name": "_diagnostic",
          "type": "string"
        },
        {
          "indexed": false,
          "internalType": "string",
          "name": "_observations",
          "type": "string"
        }
      ],
      "name": "DiagnosticdAdded",
      "type": "event"
    },
    {
      "anonymous": false,
      "inputs": [
        {
          "indexed": true,
          "internalType": "address",
          "name": "_admin",
          "type": "address"
        },
        {
          "indexed": false,
          "internalType": "bool",
          "name": "_stop",
          "type": "bool"
        }
      ],
      "name": "LogSwitchStop",
      "type": "event"
    },
    {
      "anonymous": false,
      "inputs": [
        {
          "indexed": true,
          "internalType": "address",
          "name": "newMed",
          "type": "address"
        },
        {
          "indexed": true,
          "internalType": "address",
          "name": "whoAddedMed",
          "type": "address"
        }
      ],
      "name": "MedicAdded",
      "type": "event"
    },
    {
      "anonymous": false,
      "inputs": [
        {
          "indexed": true,
          "internalType": "address",
          "name": "oldMed",
          "type": "address"
        },
        {
          "indexed": true,
          "internalType": "address",
          "name": "whoRemovedMed",
          "type": "address"
        }
      ],
      "name": "MedicRemoved",
      "type": "event"
    },
    {
      "anonymous": false,
      "inputs": [
        {
          "indexed": true,
          "internalType": "address",
          "name": "medRen",
          "type": "address"
        }
      ],
      "name": "MedicRenounce",
      "type": "event"
    },
    {
      "anonymous": false,
      "inputs": [
        {
          "indexed": true,
          "internalType": "address",
          "name": "newPat",
          "type": "address"
        },
        {
          "indexed": true,
          "internalType": "address",
          "name": "whoAddedPat",
          "type": "address"
        }
      ],
      "name": "PatientAdded",
      "type": "event"
    },
    {
      "anonymous": false,
      "inputs": [
        {
          "indexed": true,
          "internalType": "address",
          "name": "oldPat",
          "type": "address"
        },
        {
          "indexed": true,
          "internalType": "address",
          "name": "whoRemovedPat",
          "type": "address"
        }
      ],
      "name": "PatientRemoved",
      "type": "event"
    },
    {
      "anonymous": false,
      "inputs": [
        {
          "indexed": true,
          "internalType": "address",
          "name": "_patient",
          "type": "address"
        },
        {
          "indexed": true,
          "internalType": "address",
          "name": "_medic",
          "type": "address"
        },
        {
          "indexed": false,
          "internalType": "string",
          "name": "_ipfsHash",
          "type": "string"
        }
      ],
      "name": "RecordAdded",
      "type": "event"
    },
    {
      "anonymous": false,
      "inputs": [
        {
          "indexed": true,
          "internalType": "address",
          "name": "_patient",
          "type": "address"
        },
        {
          "indexed": true,
          "internalType": "address",
          "name": "_medic",
          "type": "address"
        },
        {
          "indexed": false,
          "internalType": "string",
          "name": "_ipfsHash",
          "type": "string"
        }
      ],
      "name": "RecordDelete",
      "type": "event"
    },
    {
      "anonymous": false,
      "inputs": [
        {
          "indexed": true,
          "internalType": "address",
          "name": "_patient",
          "type": "address"
        },
        {
          "indexed": true,
          "internalType": "address",
          "name": "_medic",
          "type": "address"
        },
        {
          "indexed": false,
          "internalType": "string",
          "name": "_descript",
          "type": "string"
        },
        {
          "indexed": false,
          "internalType": "uint256",
          "name": "_uploadDate",
          "type": "uint256"
        }
      ],
      "name": "RecordRetrieve",
      "type": "event"
    },
    {
      "anonymous": false,
      "inputs": [
        {
          "indexed": true,
          "internalType": "address",
          "name": "_patient",
          "type": "address"
        },
        {
          "indexed": true,
          "internalType": "address",
          "name": "_medic",
          "type": "address"
        },
        {
          "indexed": false,
          "internalType": "string",
          "name": "_descript",
          "type": "string"
        }
      ],
      "name": "RecordUpdate",
      "type": "event"
    },
    {
      "payable": false,
      "stateMutability": "nonpayable",
      "type": "fallback"
    },
    {
      "constant": false,
      "inputs": [
        {
          "internalType": "address",
          "name": "account",
          "type": "address"
        }
      ],
      "name": "addAdmin",
      "outputs": [],
      "payable": false,
      "stateMutability": "nonpayable",
      "type": "function"
    },
    {
      "constant": false,
      "inputs": [
        {
          "internalType": "address",
          "name": "account",
          "type": "address"
        }
      ],
      "name": "addMedic",
      "outputs": [],
      "payable": false,
      "stateMutability": "nonpayable",
      "type": "function"
    },
    {
      "constant": false,
      "inputs": [
        {
          "internalType": "address",
          "name": "account",
          "type": "address"
        }
      ],
      "name": "addPatient",
      "outputs": [],
      "payable": false,
      "stateMutability": "nonpayable",
      "type": "function"
    },
    {
      "constant": false,
      "inputs": [
        {
          "internalType": "address",
          "name": "_account",
          "type": "address"
        },
        {
          "internalType": "string",
          "name": "_descript",
          "type": "string"
        },
        {
          "internalType": "string",
          "name": "_ipfsHash",
          "type": "string"
        }
      ],
      "name": "addRecord",
      "outputs": [
        {
          "internalType": "bool",
          "name": "_success",
          "type": "bool"
        }
      ],
      "payable": false,
      "stateMutability": "nonpayable",
      "type": "function"
    },
    {
      "constant": false,
      "inputs": [
        {
          "internalType": "address",
          "name": "_account",
          "type": "address"
        },
        {
          "internalType": "string",
          "name": "_ipfsHash",
          "type": "string"
        }
      ],
      "name": "deleteRecord",
      "outputs": [
        {
          "internalType": "bool",
          "name": "_success",
          "type": "bool"
        }
      ],
      "payable": false,
      "stateMutability": "nonpayable",
      "type": "function"
    },
    {
      "constant": true,
      "inputs": [
        {
          "internalType": "address",
          "name": "",
          "type": "address"
        },
        {
          "internalType": "uint256",
          "name": "",
          "type": "uint256"
        }
      ],
      "name": "fileToPatientDiagnosis",
      "outputs": [
        {
          "internalType": "string",
          "name": "nombre",
          "type": "string"
        },
        {
          "internalType": "string",
          "name": "aPat",
          "type": "string"
        },
        {
          "internalType": "string",
          "name": "aMat",
          "type": "string"
        },
        {
          "internalType": "string",
          "name": "comorb",
          "type": "string"
        },
        {
          "internalType": "uint256",
          "name": "age",
          "type": "uint256"
        },
        {
          "internalType": "uint256",
          "name": "weight",
          "type": "uint256"
        },
        {
          "internalType": "string",
          "name": "diagnostic",
          "type": "string"
        },
        {
          "internalType": "string",
          "name": "observations",
          "type": "string"
        }
      ],
      "payable": false,
      "stateMutability": "view",
      "type": "function"
    },
    {
      "constant": true,
      "inputs": [
        {
          "internalType": "string",
          "name": "",
          "type": "string"
        }
      ],
      "name": "ipfsHashToEstudio",
      "outputs": [
        {
          "internalType": "string",
          "name": "descript",
          "type": "string"
        },
        {
          "internalType": "uint256",
          "name": "uploadDate",
          "type": "uint256"
        }
      ],
      "payable": false,
      "stateMutability": "view",
      "type": "function"
    },
    {
      "constant": true,
      "inputs": [
        {
          "internalType": "address",
          "name": "account",
          "type": "address"
        }
      ],
      "name": "isAdmin",
      "outputs": [
        {
          "internalType": "bool",
          "name": "",
          "type": "bool"
        }
      ],
      "payable": false,
      "stateMutability": "view",
      "type": "function"
    },
    {
      "constant": true,
      "inputs": [
        {
          "internalType": "address",
          "name": "account",
          "type": "address"
        }
      ],
      "name": "isMedic",
      "outputs": [
        {
          "internalType": "bool",
          "name": "",
          "type": "bool"
        }
      ],
      "payable": false,
      "stateMutability": "view",
      "type": "function"
    },
    {
      "constant": true,
      "inputs": [
        {
          "internalType": "address",
          "name": "account",
          "type": "address"
        }
      ],
      "name": "isPatient",
      "outputs": [
        {
          "internalType": "bool",
          "name": "",
          "type": "bool"
        }
      ],
      "payable": false,
      "stateMutability": "view",
      "type": "function"
    },
    {
      "constant": false,
      "inputs": [
        {
          "internalType": "address",
          "name": "account",
          "type": "address"
        }
      ],
      "name": "removeMedic",
      "outputs": [],
      "payable": false,
      "stateMutability": "nonpayable",
      "type": "function"
    },
    {
      "constant": false,
      "inputs": [
        {
          "internalType": "address",
          "name": "account",
          "type": "address"
        }
      ],
      "name": "removePatient",
      "outputs": [],
      "payable": false,
      "stateMutability": "nonpayable",
      "type": "function"
    },
    {
      "constant": false,
      "inputs": [],
      "name": "renounceAdmin",
      "outputs": [],
      "payable": false,
      "stateMutability": "nonpayable",
      "type": "function"
    },
    {
      "constant": false,
      "inputs": [],
      "name": "renounceMedic",
      "outputs": [],
      "payable": false,
      "stateMutability": "nonpayable",
      "type": "function"
    },
    {
      "constant": false,
      "inputs": [
        {
          "internalType": "address",
          "name": "_account",
          "type": "address"
        },
        {
          "internalType": "string",
          "name": "_descript",
          "type": "string"
        },
        {
          "internalType": "string",
          "name": "_ipfsHash",
          "type": "string"
        }
      ],
      "name": "updateRecord",
      "outputs": [
        {
          "internalType": "bool",
          "name": "_success",
          "type": "bool"
        }
      ],
      "payable": false,
      "stateMutability": "nonpayable",
      "type": "function"
    },
    {
      "constant": false,
      "inputs": [
        {
          "internalType": "address",
          "name": "_account",
          "type": "address"
        },
        {
          "internalType": "string",
          "name": "_ipfsHash",
          "type": "string"
        }
      ],
      "name": "viewRecords",
      "outputs": [
        {
          "internalType": "string",
          "name": "_descript",
          "type": "string"
        },
        {
          "internalType": "uint256",
          "name": "_uploadDate",
          "type": "uint256"
        }
      ],
      "payable": false,
      "stateMutability": "nonpayable",
      "type": "function"
    },
    {
      "constant": false,
      "inputs": [
        {
          "internalType": "bool",
          "name": "_stop",
          "type": "bool"
        }
      ],
      "name": "emergencyStop",
      "outputs": [],
      "payable": false,
      "stateMutability": "nonpayable",
      "type": "function"
    },
    {
      "constant": true,
      "inputs": [
        {
          "internalType": "address",
          "name": "_account",
          "type": "address"
        },
        {
          "internalType": "uint256",
          "name": "_timeStamp",
          "type": "uint256"
        }
      ],
      "name": "patientDiagnosis",
      "outputs": [
        {
          "components": [
            {
              "internalType": "string",
              "name": "nombre",
              "type": "string"
            },
            {
              "internalType": "string",
              "name": "aPat",
              "type": "string"
            },
            {
              "internalType": "string",
              "name": "aMat",
              "type": "string"
            },
            {
              "internalType": "string",
              "name": "comorb",
              "type": "string"
            },
            {
              "internalType": "uint256",
              "name": "age",
              "type": "uint256"
            },
            {
              "internalType": "uint256",
              "name": "weight",
              "type": "uint256"
            },
            {
              "internalType": "string",
              "name": "diagnostic",
              "type": "string"
            },
            {
              "internalType": "string",
              "name": "observations",
              "type": "string"
            },
            {
              "internalType": "string[]",
              "name": "estudio",
              "type": "string[]"
            }
          ],
          "internalType": "struct PatientDiagnosis.Diagnostico",
          "name": "",
          "type": "tuple"
        }
      ],
      "payable": false,
      "stateMutability": "view",
      "type": "function"
    },
    {
      "constant": false,
      "inputs": [
        {
          "internalType": "address",
          "name": "_account",
          "type": "address"
        },
        {
          "internalType": "string",
          "name": "_nombre",
          "type": "string"
        },
        {
          "internalType": "string",
          "name": "_aPat",
          "type": "string"
        },
        {
          "internalType": "string",
          "name": "_aMat",
          "type": "string"
        },
        {
          "internalType": "string",
          "name": "_comorb",
          "type": "string"
        },
        {
          "internalType": "uint256",
          "name": "_age",
          "type": "uint256"
        },
        {
          "internalType": "uint256",
          "name": "_weight",
          "type": "uint256"
        },
        {
          "internalType": "string",
          "name": "_diagnostic",
          "type": "string"
        },
        {
          "internalType": "string",
          "name": "_observations",
          "type": "string"
        },
        {
          "internalType": "string[]",
          "name": "_estudio",
          "type": "string[]"
        }
      ],
      "name": "addDiagnostic",
      "outputs": [
        {
          "internalType": "bool",
          "name": "_success",
          "type": "bool"
        }
      ],
      "payable": false,
      "stateMutability": "nonpayable",
      "type": "function"
    },
    {
      "constant": false,
      "inputs": [
        {
          "internalType": "address",
          "name": "_account",
          "type": "address"
        },
        {
          "internalType": "string",
          "name": "_nombre",
          "type": "string"
        },
        {
          "internalType": "string",
          "name": "_aPat",
          "type": "string"
        },
        {
          "internalType": "string",
          "name": "_aMat",
          "type": "string"
        },
        {
          "internalType": "string",
          "name": "_comorb",
          "type": "string"
        },
        {
          "internalType": "uint256",
          "name": "_age",
          "type": "uint256"
        },
        {
          "internalType": "uint256",
          "name": "_weight",
          "type": "uint256"
        },
        {
          "internalType": "string",
          "name": "_diagnostic",
          "type": "string"
        },
        {
          "internalType": "string",
          "name": "_observations",
          "type": "string"
        },
        {
          "internalType": "string[]",
          "name": "_estudio",
          "type": "string[]"
        },
        {
          "internalType": "uint256",
          "name": "_date",
          "type": "uint256"
        }
      ],
      "name": "updateDiagnostic",
      "outputs": [
        {
          "internalType": "bool",
          "name": "_success",
          "type": "bool"
        }
      ],
      "payable": false,
      "stateMutability": "nonpayable",
      "type": "function"
    },
    {
      "constant": false,
      "inputs": [
        {
          "internalType": "address",
          "name": "_account",
          "type": "address"
        },
        {
          "internalType": "uint256",
          "name": "_date",
          "type": "uint256"
        }
      ],
      "name": "viewDiagnostic",
      "outputs": [
        {
          "internalType": "string",
          "name": "_nombre",
          "type": "string"
        },
        {
          "internalType": "string",
          "name": "_aPat",
          "type": "string"
        },
        {
          "internalType": "string",
          "name": "_aMat",
          "type": "string"
        },
        {
          "internalType": "string",
          "name": "_comorb",
          "type": "string"
        },
        {
          "internalType": "uint256",
          "name": "_age",
          "type": "uint256"
        },
        {
          "internalType": "uint256",
          "name": "_weight",
          "type": "uint256"
        },
        {
          "internalType": "string",
          "name": "_diagnostic",
          "type": "string"
        },
        {
          "internalType": "string",
          "name": "_observations",
          "type": "string"
        },
        {
          "internalType": "string[]",
          "name": "_estudio",
          "type": "string[]"
        }
      ],
      "payable": false,
      "stateMutability": "nonpayable",
      "type": "function"
    },
    {
      "constant": false,
      "inputs": [
        {
          "internalType": "address",
          "name": "_account",
          "type": "address"
        },
        {
          "internalType": "uint256",
          "name": "_date",
          "type": "uint256"
        }
      ],
      "name": "deleteDiagnostic",
      "outputs": [
        {
          "internalType": "bool",
          "name": "_success",
          "type": "bool"
        }
      ],
      "payable": false,
      "stateMutability": "nonpayable",
      "type": "function"
    }
  ],
  "bytecode": "0x60806040526000600460006101000a81548160ff0219169083151502179055506000600660006101000a81548160ff0219169083151502179055506200004b336200005160201b60201c565b62000346565b6200006c816000620000c960201b620026e01790919060201c565b3373ffffffffffffffffffffffffffffffffffffffff168173ffffffffffffffffffffffffffffffffffffffff167fbf3f493c772c8c283fd124432c2d0f539ab343faa04258fe88e52912d36b102b60405160405180910390a350565b620000db82826200017c60201b60201c565b156200011e576040517f08c379a00000000000000000000000000000000000000000000000000000000081526004016200011590620002f1565b60405180910390fd5b60018260000160008373ffffffffffffffffffffffffffffffffffffffff1673ffffffffffffffffffffffffffffffffffffffff16815260200190815260200160002060006101000a81548160ff0219169083151502179055505050565b60008073ffffffffffffffffffffffffffffffffffffffff168273ffffffffffffffffffffffffffffffffffffffff161415620001f0576040517f08c379a0000000000000000000000000000000000000000000000000000000008152600401620001e79062000313565b60405180910390fd5b8260000160008373ffffffffffffffffffffffffffffffffffffffff1673ffffffffffffffffffffffffffffffffffffffff16815260200190815260200160002060009054906101000a900460ff16905092915050565b600062000256601f8362000335565b91507f526f6c65733a206163636f756e7420616c72656164792068617320726f6c65006000830152602082019050919050565b60006200029860228362000335565b91507f526f6c65733a206163636f756e7420697320746865207a65726f20616464726560008301527f73730000000000000000000000000000000000000000000000000000000000006020830152604082019050919050565b600060208201905081810360008301526200030c8162000247565b9050919050565b600060208201905081810360008301526200032e8162000289565b9050919050565b600082825260208201905092915050565b613b3a80620003566000396000f3fe608060405234801561001057600080fd5b50600436106101425760003560e01c80637d0d6257116100b8578063a1f23f191161007c578063a1f23f19146103a5578063abc5151d146103d5578063b0397ff814610405578063d47b41d514610421578063e67fd0e014610451578063eae3ef8a1461048157610142565b80637d0d6257146102ee5780638bad0c0a1461030a5780638c406f2e146103145780638f9c79ed1461034457806392af9db11461037457610142565b80634e0581f41161010a5780634e0581f4146102025780635995fd00146102395780635c11b70f1461026a5780636d263ceb1461029a57806370480275146102b65780637d01dbc2146102d257610142565b80630ac62e02146101445780631c712b6c146101605780631e7b46211461019857806324d7806c146101c857806333dc0abd146101f8575b005b61015e60048036036101599190810190612f36565b6104b1565b005b61017a60048036036101759190810190612efa565b610564565b60405161018f999897969594939291906135f2565b60405180910390f35b6101b260048036036101ad9190810190612d62565b6107dc565b6040516101bf91906134eb565b60405180910390f35b6101e260048036036101dd9190810190612ae3565b610a42565b6040516101ef91906134eb565b60405180910390f35b610200610a5f565b005b61021c60048036036102179190810190612efa565b610ab2565b6040516102309897969594939291906136e0565b60405180910390f35b610253600480360361024e9190810190612b0c565b610e97565b6040516102619291906136b0565b60405180910390f35b610284600480360361027f9190810190612efa565b6110b9565b6040516102919190613878565b60405180910390f35b6102b460048036036102af9190810190612ae3565b6115ee565b005b6102d060048036036102cb9190810190612ae3565b611642565b005b6102ec60048036036102e79190810190612ae3565b611696565b005b61030860048036036103039190810190612ae3565b6116ea565b005b61031261173e565b005b61032e60048036036103299190810190612b0c565b611749565b60405161033b91906134eb565b60405180910390f35b61035e60048036036103599190810190612ae3565b61189d565b60405161036b91906134eb565b60405180910390f35b61038e60048036036103899190810190612f5f565b6118ba565b60405161039c929190613788565b60405180910390f35b6103bf60048036036103ba9190810190612b60565b61198c565b6040516103cc91906134eb565b60405180910390f35b6103ef60048036036103ea9190810190612bdf565b611ba4565b6040516103fc91906134eb565b60405180910390f35b61041f600480360361041a9190810190612ae3565b611ebd565b005b61043b60048036036104369190810190612b60565b611f11565b60405161044891906134eb565b60405180910390f35b61046b60048036036104669190810190612efa565b6120ab565b60405161047891906134eb565b60405180910390f35b61049b60048036036104969190810190612ae3565b6122c5565b6040516104a891906134eb565b60405180910390f35b6104ba33610a42565b6104f9576040517f08c379a00000000000000000000000000000000000000000000000000000000081526004016104f090613838565b60405180910390fd5b80600660006101000a81548160ff0219169083151502179055503373ffffffffffffffffffffffffffffffffffffffff167f58b15338e6499b2b2827d169f60332c3b4b476fcd06b9a3c7e37afa77c49228e8260405161055991906134eb565b60405180910390a250565b6060806060806000806060806060600660009054906101000a900460ff161561058c57600080fd5b6105953361189d565b806105a557506105a4336122c5565b5b6105e4576040517f08c379a00000000000000000000000000000000000000000000000000000000081526004016105db90613858565b60405180910390fd5b6105ed3361189d565b1561062b578a73ffffffffffffffffffffffffffffffffffffffff163373ffffffffffffffffffffffffffffffffffffffff161461062a57600080fd5b5b610634336122c5565b15610673578a73ffffffffffffffffffffffffffffffffffffffff163373ffffffffffffffffffffffffffffffffffffffff16141561067257600080fd5b5b600073ffffffffffffffffffffffffffffffffffffffff168b73ffffffffffffffffffffffffffffffffffffffff1614156106ad57600080fd5b60008a101580156106de57507fffffffffffffffffffffffffffffffffffffffffffffffffffffffffffffffff8a11155b6106e757600080fd5b6106ef612788565b6106f98c8c6110b9565b90503373ffffffffffffffffffffffffffffffffffffffff168c73ffffffffffffffffffffffffffffffffffffffff167fb1bdf45da452b457a3dba4f78c0f49e6a8ef9281a11b57b00e9895b615de9bd1836000015184602001518560400151866060015187608001518860a001518960c001518a60e001516040516107869897969594939291906136e0565b60405180910390a380600001519950806020015198508060400151975080606001519650806080015195508060a0015194508060c0015193508060e0015192508061010001519150509295985092959850929598565b6000600660009054906101000a900460ff16156107f857600080fd5b610801336122c5565b610840576040517f08c379a0000000000000000000000000000000000000000000000000000000008152600401610837906137d8565b60405180910390fd5b600073ffffffffffffffffffffffffffffffffffffffff168c73ffffffffffffffffffffffffffffffffffffffff16141561087a57600080fd5b60198b511061088857600080fd5b60198a511061089657600080fd5b60198951106108a457600080fd5b6101008851106108b357600080fd5b607887106108c057600080fd5b6102bc86106108ce57600080fd5b60328551106108dc57600080fd5b6102008451106108eb57600080fd5b6000821015801561091c57507fffffffffffffffffffffffffffffffffffffffffffffffffffffffffffffffff8211155b61092557600080fd5b600083511161093357600080fd5b61093b612788565b6109458d846110b9565b90508b81600001819052508a816020018190525089816040018190525088816060018190525087816080018181525050868160a0018181525050858160c00181905250848160e00181905250838161010001819052503373ffffffffffffffffffffffffffffffffffffffff168d73ffffffffffffffffffffffffffffffffffffffff167f0547703b415672550919d03f043e65aa58e12afff471ed9917b0b64d227912e0836000015184602001518560400151866060015187608001518860a001518960c001518a60e00151604051610a269897969594939291906136e0565b60405180910390a360019150509b9a5050505050505050505050565b6000610a588260006122e290919063ffffffff16565b9050919050565b610a68336122c5565b610aa7576040517f08c379a0000000000000000000000000000000000000000000000000000000008152600401610a9e906137d8565b60405180910390fd5b610ab0336123aa565b565b600560205281600052604060002060205280600052604060002060009150915050806000018054600181600116156101000203166002900480601f016020809104026020016040519081016040528092919081815260200182805460018160011615610100020316600290048015610b6b5780601f10610b4057610100808354040283529160200191610b6b565b820191906000526020600020905b815481529060010190602001808311610b4e57829003601f168201915b505050505090806001018054600181600116156101000203166002900480601f016020809104026020016040519081016040528092919081815260200182805460018160011615610100020316600290048015610c095780601f10610bde57610100808354040283529160200191610c09565b820191906000526020600020905b815481529060010190602001808311610bec57829003601f168201915b505050505090806002018054600181600116156101000203166002900480601f016020809104026020016040519081016040528092919081815260200182805460018160011615610100020316600290048015610ca75780601f10610c7c57610100808354040283529160200191610ca7565b820191906000526020600020905b815481529060010190602001808311610c8a57829003601f168201915b505050505090806003018054600181600116156101000203166002900480601f016020809104026020016040519081016040528092919081815260200182805460018160011615610100020316600290048015610d455780601f10610d1a57610100808354040283529160200191610d45565b820191906000526020600020905b815481529060010190602001808311610d2857829003601f168201915b505050505090806004015490806005015490806006018054600181600116156101000203166002900480601f016020809104026020016040519081016040528092919081815260200182805460018160011615610100020316600290048015610def5780601f10610dc457610100808354040283529160200191610def565b820191906000526020600020905b815481529060010190602001808311610dd257829003601f168201915b505050505090806007018054600181600116156101000203166002900480601f016020809104026020016040519081016040528092919081815260200182805460018160011615610100020316600290048015610e8d5780601f10610e6257610100808354040283529160200191610e8d565b820191906000526020600020905b815481529060010190602001808311610e7057829003601f168201915b5050505050905088565b60606000600660009054906101000a900460ff1615610eb557600080fd5b610ebe3361189d565b80610ece5750610ecd336122c5565b5b610f0d576040517f08c379a0000000000000000000000000000000000000000000000000000000008152600401610f0490613858565b60405180910390fd5b600073ffffffffffffffffffffffffffffffffffffffff168473ffffffffffffffffffffffffffffffffffffffff161415610f4757600080fd5b602e835114610f5557600080fd5b610f5d6127d4565b600384604051610f6d91906134d4565b9081526020016040518091039020604051806040016040529081600082018054600181600116156101000203166002900480601f01602080910402602001604051908101604052809291908181526020018280546001816001161561010002031660029004801561101f5780601f10610ff45761010080835404028352916020019161101f565b820191906000526020600020905b81548152906001019060200180831161100257829003601f168201915b5050505050815260200160018201548152505090503373ffffffffffffffffffffffffffffffffffffffff168573ffffffffffffffffffffffffffffffffffffffff167f4ee0bf4d8ed0ec027f6654b0ba0995ae922f70b4f3bdbc0ff59c0a7dbd5491c68360000151846020015160405161109b929190613788565b60405180910390a38060000151925080602001519150509250929050565b6110c1612788565b600560008473ffffffffffffffffffffffffffffffffffffffff1673ffffffffffffffffffffffffffffffffffffffff168152602001908152602001600020600083815260200190815260200160002060405180610120016040529081600082018054600181600116156101000203166002900480601f0160208091040260200160405190810160405280929190818152602001828054600181600116156101000203166002900480156111b65780601f1061118b576101008083540402835291602001916111b6565b820191906000526020600020905b81548152906001019060200180831161119957829003601f168201915b50505050508152602001600182018054600181600116156101000203166002900480601f0160208091040260200160405190810160405280929190818152602001828054600181600116156101000203166002900480156112585780601f1061122d57610100808354040283529160200191611258565b820191906000526020600020905b81548152906001019060200180831161123b57829003601f168201915b50505050508152602001600282018054600181600116156101000203166002900480601f0160208091040260200160405190810160405280929190818152602001828054600181600116156101000203166002900480156112fa5780601f106112cf576101008083540402835291602001916112fa565b820191906000526020600020905b8154815290600101906020018083116112dd57829003601f168201915b50505050508152602001600382018054600181600116156101000203166002900480601f01602080910402602001604051908101604052809291908181526020018280546001816001161561010002031660029004801561139c5780601f106113715761010080835404028352916020019161139c565b820191906000526020600020905b81548152906001019060200180831161137f57829003601f168201915b505050505081526020016004820154815260200160058201548152602001600682018054600181600116156101000203166002900480601f0160208091040260200160405190810160405280929190818152602001828054600181600116156101000203166002900480156114525780601f1061142757610100808354040283529160200191611452565b820191906000526020600020905b81548152906001019060200180831161143557829003601f168201915b50505050508152602001600782018054600181600116156101000203166002900480601f0160208091040260200160405190810160405280929190818152602001828054600181600116156101000203166002900480156114f45780601f106114c9576101008083540402835291602001916114f4565b820191906000526020600020905b8154815290600101906020018083116114d757829003601f168201915b5050505050815260200160088201805480602002602001604051908101604052809291908181526020016000905b828210156115de578382906000526020600020018054600181600116156101000203166002900480601f0160208091040260200160405190810160405280929190818152602001828054600181600116156101000203166002900480156115ca5780601f1061159f576101008083540402835291602001916115ca565b820191906000526020600020905b8154815290600101906020018083116115ad57829003601f168201915b505050505081526020019060010190611522565b5050505081525050905092915050565b6115f7336122c5565b611636576040517f08c379a000000000000000000000000000000000000000000000000000000000815260040161162d906137d8565b60405180910390fd5b61163f8161241b565b50565b61164b33610a42565b61168a576040517f08c379a000000000000000000000000000000000000000000000000000000000815260040161168190613838565b60405180910390fd5b6116938161248c565b50565b61169f33610a42565b6116de576040517f08c379a00000000000000000000000000000000000000000000000000000000081526004016116d590613838565b60405180910390fd5b6116e7816123aa565b50565b6116f3336122c5565b611732576040517f08c379a0000000000000000000000000000000000000000000000000000000008152600401611729906137d8565b60405180910390fd5b61173b816124fd565b50565b6117473361256e565b565b6000600660009054906101000a900460ff161561176557600080fd5b61176e336122c5565b6117ad576040517f08c379a00000000000000000000000000000000000000000000000000000000081526004016117a4906137d8565b60405180910390fd5b600073ffffffffffffffffffffffffffffffffffffffff168373ffffffffffffffffffffffffffffffffffffffff1614156117e757600080fd5b602e8251146117f557600080fd5b60038260405161180591906134d4565b90815260200160405180910390206000808201600061182491906127ee565b600182016000905550503373ffffffffffffffffffffffffffffffffffffffff168373ffffffffffffffffffffffffffffffffffffffff167f9c676f11f477f126926ac2bc49046b7a599e258a4f198776caa2644fce3cd7c68460405161188b9190613528565b60405180910390a36001905092915050565b60006118b38260026122e290919063ffffffff16565b9050919050565b600381805160208101820180518482526020830160208501208183528095505050505050600091509050806000018054600181600116156101000203166002900480601f01602080910402602001604051908101604052809291908181526020018280546001816001161561010002031660029004801561197c5780601f106119515761010080835404028352916020019161197c565b820191906000526020600020905b81548152906001019060200180831161195f57829003601f168201915b5050505050908060010154905082565b6000600660009054906101000a900460ff16156119a857600080fd5b6119b1336122c5565b6119f0576040517f08c379a00000000000000000000000000000000000000000000000000000000081526004016119e7906137d8565b60405180910390fd5b600073ffffffffffffffffffffffffffffffffffffffff168473ffffffffffffffffffffffffffffffffffffffff161415611a2a57600080fd5b610100835110611a3957600080fd5b602e825114611a4757600080fd5b611a4f6127d4565b600383604051611a5f91906134d4565b9081526020016040518091039020604051806040016040529081600082018054600181600116156101000203166002900480601f016020809104026020016040519081016040528092919081815260200182805460018160011615610100020316600290048015611b115780601f10611ae657610100808354040283529160200191611b11565b820191906000526020600020905b815481529060010190602001808311611af457829003601f168201915b5050505050815260200160018201548152505090508381600001819052503373ffffffffffffffffffffffffffffffffffffffff168573ffffffffffffffffffffffffffffffffffffffff167f87a983619f6316fe3e7ce828f67913b1a1048bf0b29304e3722f250644b049818360000151604051611b909190613506565b60405180910390a360019150509392505050565b6000600660009054906101000a900460ff1615611bc057600080fd5b611bc9336122c5565b611c08576040517f08c379a0000000000000000000000000000000000000000000000000000000008152600401611bff906137d8565b60405180910390fd5b600073ffffffffffffffffffffffffffffffffffffffff168b73ffffffffffffffffffffffffffffffffffffffff161415611c4257600080fd5b60198a5110611c5057600080fd5b6019895110611c5e57600080fd5b6019885110611c6c57600080fd5b6032875110611c7a57600080fd5b60788610611c8757600080fd5b6102bc8510611c9557600080fd5b610100845110611ca457600080fd5b610200835110611cb357600080fd5b6000429050611cc0612788565b6040518061012001604052808d81526020018c81526020018b81526020018a815260200189815260200188815260200187815260200186815260200185815250905080600560008f73ffffffffffffffffffffffffffffffffffffffff1673ffffffffffffffffffffffffffffffffffffffff16815260200190815260200160002060008481526020019081526020016000206000820151816000019080519060200190611d6f929190612836565b506020820151816001019080519060200190611d8c929190612836565b506040820151816002019080519060200190611da9929190612836565b506060820151816003019080519060200190611dc6929190612836565b506080820151816004015560a0820151816005015560c0820151816006019080519060200190611df7929190612836565b5060e0820151816007019080519060200190611e14929190612836565b50610100820151816008019080519060200190611e329291906128b6565b509050503373ffffffffffffffffffffffffffffffffffffffff168d73ffffffffffffffffffffffffffffffffffffffff167feb392a0f351e3cc6e4adc6f3498ae2764e65ccc62cff40bb3041514c687b5ed28e8e8e8e8e8e8e8e604051611ea198979695949392919061354a565b60405180910390a36001925050509a9950505050505050505050565b611ec633610a42565b611f05576040517f08c379a0000000000000000000000000000000000000000000000000000000008152600401611efc90613838565b60405180910390fd5b611f0e816125c8565b50565b6000600660009054906101000a900460ff1615611f2d57600080fd5b611f36336122c5565b611f75576040517f08c379a0000000000000000000000000000000000000000000000000000000008152600401611f6c906137d8565b60405180910390fd5b600073ffffffffffffffffffffffffffffffffffffffff168473ffffffffffffffffffffffffffffffffffffffff161415611faf57600080fd5b610100835110611fbe57600080fd5b602e825114611fcc57600080fd5b6000429050611fd96127d4565b60405180604001604052808681526020018381525090508060038560405161200191906134d4565b9081526020016040518091039020600082015181600001908051906020019061202b929190612836565b50602082015181600101559050503373ffffffffffffffffffffffffffffffffffffffff168673ffffffffffffffffffffffffffffffffffffffff167f977dc7867dd6fb513af3d4bb11f4457a5052487f13412788530b454c0b7dfa2c866040516120969190613528565b60405180910390a36001925050509392505050565b6000600660009054906101000a900460ff16156120c757600080fd5b6120d0336122c5565b61210f576040517f08c379a0000000000000000000000000000000000000000000000000000000008152600401612106906137d8565b60405180910390fd5b600073ffffffffffffffffffffffffffffffffffffffff168373ffffffffffffffffffffffffffffffffffffffff16141561214957600080fd5b6000821015801561217a57507fffffffffffffffffffffffffffffffffffffffffffffffffffffffffffffffff8211155b61218357600080fd5b600560008473ffffffffffffffffffffffffffffffffffffffff1673ffffffffffffffffffffffffffffffffffffffff1681526020019081526020016000206000838152602001908152602001600020600080820160006121e491906127ee565b6001820160006121f491906127ee565b60028201600061220491906127ee565b60038201600061221491906127ee565b6004820160009055600582016000905560068201600061223491906127ee565b60078201600061224491906127ee565b6008820160006122549190612916565b50503373ffffffffffffffffffffffffffffffffffffffff168373ffffffffffffffffffffffffffffffffffffffff167f7c7588a2bfe6e9d3c0acb5a62b93b9cb012ba9a6de37d69a1f4c1067b0cfa530846040516122b3919061389a565b60405180910390a36001905092915050565b60006122db8260016122e290919063ffffffff16565b9050919050565b60008073ffffffffffffffffffffffffffffffffffffffff168273ffffffffffffffffffffffffffffffffffffffff161415612353576040517f08c379a000000000000000000000000000000000000000000000000000000000815260040161234a90613818565b60405180910390fd5b8260000160008373ffffffffffffffffffffffffffffffffffffffff1673ffffffffffffffffffffffffffffffffffffffff16815260200190815260200160002060009054906101000a900460ff16905092915050565b6123be81600161263990919063ffffffff16565b3373ffffffffffffffffffffffffffffffffffffffff168173ffffffffffffffffffffffffffffffffffffffff167fb35968fdda9034197de288afbe8a2947dedade83d7dbc0de3e340d4f62ce64dc60405160405180910390a350565b61242f8160026126e090919063ffffffff16565b3373ffffffffffffffffffffffffffffffffffffffff168173ffffffffffffffffffffffffffffffffffffffff167ff6dfb9f71429364456283a1521c30cc400d799d7b381d7ce164687f11c18dbaf60405160405180910390a350565b6124a08160006126e090919063ffffffff16565b3373ffffffffffffffffffffffffffffffffffffffff168173ffffffffffffffffffffffffffffffffffffffff167fbf3f493c772c8c283fd124432c2d0f539ab343faa04258fe88e52912d36b102b60405160405180910390a350565b61251181600261263990919063ffffffff16565b3373ffffffffffffffffffffffffffffffffffffffff168173ffffffffffffffffffffffffffffffffffffffff167fd00481c3fc5867ec74704c9c99334b8d53c7735c947bdcb6cbebcae6740ed94060405160405180910390a350565b61258281600061263990919063ffffffff16565b8073ffffffffffffffffffffffffffffffffffffffff167f583e7032182b053f2bcd5e3ac78021a3c8d321735043ee84032742c9a6528afd60405160405180910390a250565b6125dc8160016126e090919063ffffffff16565b3373ffffffffffffffffffffffffffffffffffffffff168173ffffffffffffffffffffffffffffffffffffffff167f93b0ab94930bbad064296971ea5e731f84ae511662781bcaf28543ab9042368a60405160405180910390a350565b61264382826122e2565b612682576040517f08c379a0000000000000000000000000000000000000000000000000000000008152600401612679906137f8565b60405180910390fd5b60008260000160008373ffffffffffffffffffffffffffffffffffffffff1673ffffffffffffffffffffffffffffffffffffffff16815260200190815260200160002060006101000a81548160ff0219169083151502179055505050565b6126ea82826122e2565b1561272a576040517f08c379a0000000000000000000000000000000000000000000000000000000008152600401612721906137b8565b60405180910390fd5b60018260000160008373ffffffffffffffffffffffffffffffffffffffff1673ffffffffffffffffffffffffffffffffffffffff16815260200190815260200160002060006101000a81548160ff0219169083151502179055505050565b6040518061012001604052806060815260200160608152602001606081526020016060815260200160008152602001600081526020016060815260200160608152602001606081525090565b604051806040016040528060608152602001600081525090565b50805460018160011615610100020316600290046000825580601f106128145750612833565b601f0160209004906000526020600020908101906128329190612937565b5b50565b828054600181600116156101000203166002900490600052602060002090601f016020900481019282601f1061287757805160ff19168380011785556128a5565b828001600101855582156128a5579182015b828111156128a4578251825591602001919060010190612889565b5b5090506128b29190612937565b5090565b828054828255906000526020600020908101928215612905579160200282015b828111156129045782518290805190602001906128f4929190612836565b50916020019190600101906128d6565b5b509050612912919061295c565b5090565b5080546000825590600052602060002090810190612934919061295c565b50565b61295991905b8082111561295557600081600090555060010161293d565b5090565b90565b61298591905b80821115612981576000818161297891906127ee565b50600101612962565b5090565b90565b60008135905061299781613ab2565b92915050565b600082601f8301126129ae57600080fd5b81356129c16129bc826138e2565b6138b5565b9150818183526020840193506020810190508360005b83811015612a0757813586016129ed8882612a26565b8452602084019350602083019250506001810190506129d7565b5050505092915050565b600081359050612a2081613ac9565b92915050565b600082601f830112612a3757600080fd5b8135612a4a612a458261390a565b6138b5565b91508082526020830160208301858383011115612a6657600080fd5b612a71838284613a5f565b50505092915050565b600082601f830112612a8b57600080fd5b8135612a9e612a9982613936565b6138b5565b91508082526020830160208301858383011115612aba57600080fd5b612ac5838284613a5f565b50505092915050565b600081359050612add81613ae0565b92915050565b600060208284031215612af557600080fd5b6000612b0384828501612988565b91505092915050565b60008060408385031215612b1f57600080fd5b6000612b2d85828601612988565b925050602083013567ffffffffffffffff811115612b4a57600080fd5b612b5685828601612a7a565b9150509250929050565b600080600060608486031215612b7557600080fd5b6000612b8386828701612988565b935050602084013567ffffffffffffffff811115612ba057600080fd5b612bac86828701612a7a565b925050604084013567ffffffffffffffff811115612bc957600080fd5b612bd586828701612a7a565b9150509250925092565b6000806000806000806000806000806101408b8d031215612bff57600080fd5b6000612c0d8d828e01612988565b9a505060208b013567ffffffffffffffff811115612c2a57600080fd5b612c368d828e01612a7a565b99505060408b013567ffffffffffffffff811115612c5357600080fd5b612c5f8d828e01612a7a565b98505060608b013567ffffffffffffffff811115612c7c57600080fd5b612c888d828e01612a7a565b97505060808b013567ffffffffffffffff811115612ca557600080fd5b612cb18d828e01612a7a565b96505060a0612cc28d828e01612ace565b95505060c0612cd38d828e01612ace565b94505060e08b013567ffffffffffffffff811115612cf057600080fd5b612cfc8d828e01612a7a565b9350506101008b013567ffffffffffffffff811115612d1a57600080fd5b612d268d828e01612a7a565b9250506101208b013567ffffffffffffffff811115612d4457600080fd5b612d508d828e0161299d565b9150509295989b9194979a5092959850565b60008060008060008060008060008060006101608c8e031215612d8457600080fd5b6000612d928e828f01612988565b9b505060208c013567ffffffffffffffff811115612daf57600080fd5b612dbb8e828f01612a7a565b9a505060408c013567ffffffffffffffff811115612dd857600080fd5b612de48e828f01612a7a565b99505060608c013567ffffffffffffffff811115612e0157600080fd5b612e0d8e828f01612a7a565b98505060808c013567ffffffffffffffff811115612e2a57600080fd5b612e368e828f01612a7a565b97505060a0612e478e828f01612ace565b96505060c0612e588e828f01612ace565b95505060e08c013567ffffffffffffffff811115612e7557600080fd5b612e818e828f01612a7a565b9450506101008c013567ffffffffffffffff811115612e9f57600080fd5b612eab8e828f01612a7a565b9350506101208c013567ffffffffffffffff811115612ec957600080fd5b612ed58e828f0161299d565b925050610140612ee78e828f01612ace565b9150509295989b509295989b9093969950565b60008060408385031215612f0d57600080fd5b6000612f1b85828601612988565b9250506020612f2c85828601612ace565b9150509250929050565b600060208284031215612f4857600080fd5b6000612f5684828501612a11565b91505092915050565b600060208284031215612f7157600080fd5b600082013567ffffffffffffffff811115612f8b57600080fd5b612f9784828501612a26565b91505092915050565b6000612fac8383613117565b905092915050565b6000612fbf8261398d565b612fc981856139d9565b935083602082028501612fdb85613972565b8060005b858110156130175784840389528151612ff88582612fa0565b9450613003836139bb565b925060208a01995050600181019050612fdf565b50829750879550505050505092915050565b600061303482613982565b61303e81856139c8565b93508360208202850161305085613962565b8060005b8581101561308c578484038952815161306d8582612fa0565b9450613078836139ae565b925060208a01995050600181019050613054565b50829750879550505050505092915050565b6130a781613a29565b82525050565b60006130b8826139a3565b6130c281856139fb565b93506130d2818560208601613a6e565b6130db81613aa1565b840191505092915050565b60006130f1826139a3565b6130fb8185613a0c565b935061310b818560208601613a6e565b80840191505092915050565b600061312282613998565b61312c81856139ea565b935061313c818560208601613a6e565b61314581613aa1565b840191505092915050565b600061315b82613998565b61316581856139fb565b9350613175818560208601613a6e565b61317e81613aa1565b840191505092915050565b6000613196601f836139fb565b91507f526f6c65733a206163636f756e7420616c72656164792068617320726f6c65006000830152602082019050919050565b60006131d6602d836139fb565b91507f4e6f207365206375656e746120636f6e20656c20726f6c20657370656369666960008301527f6361646f284dc3a96469636f29000000000000000000000000000000000000006020830152604082019050919050565b600061323c6021836139fb565b91507f526f6c65733a206163636f756e7420646f6573206e6f74206861766520726f6c60008301527f65000000000000000000000000000000000000000000000000000000000000006020830152604082019050919050565b60006132a26022836139fb565b91507f526f6c65733a206163636f756e7420697320746865207a65726f20616464726560008301527f73730000000000000000000000000000000000000000000000000000000000006020830152604082019050919050565b6000613308602b836139fb565b91507f4e6f207365206375656e746120636f6e20656c20726f6c20657370656369666960008301527f6361646f2841646d696e290000000000000000000000000000000000000000006020830152604082019050919050565b600061336e6038836139fb565b91507f4e6f207365206375656e746120636f6e20656c20726f6c20657370656369666960008301527f6361646f2850616369656e7465206f206dc3a96469636f2900000000000000006020830152604082019050919050565b60006101208301600083015184820360008601526133e58282613117565b915050602083015184820360208601526133ff8282613117565b915050604083015184820360408601526134198282613117565b915050606083015184820360608601526134338282613117565b915050608083015161344860808601826134b6565b5060a083015161345b60a08601826134b6565b5060c083015184820360c08601526134738282613117565b91505060e083015184820360e086015261348d8282613117565b9150506101008301518482036101008601526134a98282613029565b9150508091505092915050565b6134bf81613a55565b82525050565b6134ce81613a55565b82525050565b60006134e082846130e6565b915081905092915050565b6000602082019050613500600083018461309e565b92915050565b600060208201905081810360008301526135208184613150565b905092915050565b6000602082019050818103600083015261354281846130ad565b905092915050565b6000610100820190508181036000830152613565818b6130ad565b90508181036020830152613579818a6130ad565b9050818103604083015261358d81896130ad565b905081810360608301526135a181886130ad565b90506135b060808301876134c5565b6135bd60a08301866134c5565b81810360c08301526135cf81856130ad565b905081810360e08301526135e381846130ad565b90509998505050505050505050565b600061012082019050818103600083015261360d818c6130ad565b90508181036020830152613621818b6130ad565b90508181036040830152613635818a6130ad565b9050818103606083015261364981896130ad565b905061365860808301886134c5565b61366560a08301876134c5565b81810360c083015261367781866130ad565b905081810360e083015261368b81856130ad565b90508181036101008301526136a08184612fb4565b90509a9950505050505050505050565b600060408201905081810360008301526136ca81856130ad565b90506136d960208301846134c5565b9392505050565b60006101008201905081810360008301526136fb818b613150565b9050818103602083015261370f818a613150565b905081810360408301526137238189613150565b905081810360608301526137378188613150565b905061374660808301876134c5565b61375360a08301866134c5565b81810360c08301526137658185613150565b905081810360e08301526137798184613150565b90509998505050505050505050565b600060408201905081810360008301526137a28185613150565b90506137b160208301846134c5565b9392505050565b600060208201905081810360008301526137d181613189565b9050919050565b600060208201905081810360008301526137f1816131c9565b9050919050565b600060208201905081810360008301526138118161322f565b9050919050565b6000602082019050818103600083015261383181613295565b9050919050565b60006020820190508181036000830152613851816132fb565b9050919050565b6000602082019050818103600083015261387181613361565b9050919050565b6000602082019050818103600083015261389281846133c7565b905092915050565b60006020820190506138af60008301846134c5565b92915050565b6000604051905081810181811067ffffffffffffffff821117156138d857600080fd5b8060405250919050565b600067ffffffffffffffff8211156138f957600080fd5b602082029050602081019050919050565b600067ffffffffffffffff82111561392157600080fd5b601f19601f8301169050602081019050919050565b600067ffffffffffffffff82111561394d57600080fd5b601f19601f8301169050602081019050919050565b6000819050602082019050919050565b6000819050602082019050919050565b600081519050919050565b600081519050919050565b600081519050919050565b600081519050919050565b6000602082019050919050565b6000602082019050919050565b600082825260208201905092915050565b600082825260208201905092915050565b600082825260208201905092915050565b600082825260208201905092915050565b600081905092915050565b6000613a2282613a35565b9050919050565b60008115159050919050565b600073ffffffffffffffffffffffffffffffffffffffff82169050919050565b6000819050919050565b82818337600083830152505050565b60005b83811015613a8c578082015181840152602081019050613a71565b83811115613a9b576000848401525b50505050565b6000601f19601f8301169050919050565b613abb81613a17565b8114613ac657600080fd5b50565b613ad281613a29565b8114613add57600080fd5b50565b613ae981613a55565b8114613af457600080fd5b5056fea365627a7a72315820a4bd521c177f278354b3e1afb886457a59763b60fc45265059c8a93804b29c976c6578706572696d656e74616cf564736f6c63430005100040",
  "source": "pragma solidity ^0.5.16;\npragma experimental ABIEncoderV2;\n\nimport \"./PatientRecords.sol\";\n\n/**\n * @title Smart Contract de Diagnstico de pacientes - Control de Diagnstico realizado por el mdico.\n * @author Francisco Alemn\n * @notice Este contrato representa el registro de un Diagnstico asociado a una persona.\n * @dev El contrato hereda las funciones del contrato de roles\n */\n\ncontract PatientDiagnosis is PatientRecords {\n\n    /**\n     * @title Representa un Dignostico el cual le pertenece a un paciente.\n     */\n    struct Diagnostico {\n        string nombre;\n        string aPat;\n        string aMat;\n        string comorb;\n        uint256 age;\n        uint256 weight;\n        string diagnostic;\n        string observations;\n        string[] estudio;\n    }\n\n    /**\n     * @notice Mapea el paciente a su diagnstico..\n     */\n    mapping (address => mapping (uint256 => Diagnostico)) public fileToPatientDiagnosis;\n\n    /**\n     * @notice Patrn de switch para encender/apagar\n     */\n    bool private stopped = false;\n\n    /**\n     * @dev Eventos que sern registrados en la blockchain.\n     */\n    event DiagnosticdAdded(\n        address indexed _patient,\n        address indexed _medic,\n        string _nombre,\n        string _aPat,\n        string _aMat,\n        string _comorb,\n        uint256 _age,\n        uint256 _weight,\n        string _diagnostic,\n        string _observations\n        );\n\n    event DiagnosisUpdate(\n        address indexed _patient,\n        address indexed _medic,\n        string _nombre,\n        string _aPat,\n        string _aMat,\n        string _comorb,\n        uint256 _age,\n        uint256 _weight,\n        string _diagnostic,\n        string _observations\n        );\n\n    event DiagnosticRetrieve(\n        address indexed _patient,\n        address indexed _medic,\n        string _nombre,\n        string _aPat,\n        string _aMat,\n        string _comorb,\n        uint256 _age,\n        uint256 _weight,\n        string _diagnostic,\n        string  _observations\n        );\n\n    event DiagnosticDelete(\n        address indexed _patient,\n        address indexed _medic,\n        uint256 _date\n        );\n\n    /**\n    * @dev Indica que se ha puesto el contrato en pausa.\n    * @param _admin Un administrador\n    * @param _stop Indica cuando hay una pausa o una reanudacin.\n    */\n    event LogSwitchStop(\n        address indexed _admin,\n        bool _stop\n    );\n\n    /**\n    * @dev Previene de ejecucin del contrato\n    */\n    modifier nonlyStopped {\n        require(!stopped);\n        _;\n    }\n\n    /**\n    * @dev Est funcin ser llamada para todos los mensajes que sean enviados a este contrado.\n    * Enviar Ether a este contrato ocasionar una excepcin, dado que las funciones no tienen un modificador de pago.\n    */\n    function() external {}\n\n    /**\n    * @notice Pausar el contrato\n    * Se detiene el contrato bajo ciertas condiciones.\n    * Sera til cuando nuevos errores sean descubiertos.\n    * @param _stop Switch del contrado de encendido/apagado\n    */\n    function emergencyStop(bool _stop) public onlyAdmin {\n        stopped = _stop;\n        emit LogSwitchStop(msg.sender, _stop);\n    }\n\n    function patientDiagnosis(address _account, uint256 _timeStamp) public view returns (Diagnostico memory) {\n        return fileToPatientDiagnosis[_account][_timeStamp];\n    }\n\n    /**\n   * @dev Funcin de creacin de Diagnstico. Esta funcin es realizada por un doctor.\n   * @param _account a\n   * @param _age a\n   * @param _weight a\n   * @param _diagnostic a\n   * @param _observations a\n   *@param _date a\n   * @return _success a\n   */\n    function addDiagnostic(\n        address _account,\n        string memory _nombre,\n        string memory _aPat,\n        string memory _aMat,\n        string memory _comorb,\n        uint256 _age,\n        uint256 _weight,\n        string memory _diagnostic,\n        string memory _observations,\n        string[] memory _estudio\n        )\n    public nonlyStopped onlyMedic returns (bool _success) {\n        require(_account != 0x0000000000000000000000000000000000000000);\n        require(bytes(_nombre).length < 25);\n        require(bytes(_aPat).length < 25);\n        require(bytes(_aMat).length < 25);\n        require(bytes(_comorb).length < 50);\n        require(_age < 120);\n        require(_weight < 700);\n        require(bytes(_diagnostic).length < 256);\n        require(bytes(_observations).length < 512);\n\n        uint256 _date = now;\n        Diagnostico memory diagnostico = Diagnostico(\n            _nombre,\n            _aPat,\n            _aMat,\n            _comorb,\n            _age,\n            _weight,\n            _diagnostic,\n            _observations,\n            _estudio\n        );\n\n        fileToPatientDiagnosis[_account][_date] = diagnostico;\n\n        emit DiagnosticdAdded(\n            _account,\n            msg.sender,\n            _nombre,\n            _aPat,\n            _aMat,\n            _comorb,\n            _age,\n            _weight,\n            _diagnostic,\n            _observations\n        );\n        _success = true;\n    }\n\n    /**\n    * @notice Returns el Diagnstico en el ndice del propietario de la direccin.\n    * @dev Controlado por el switch\n    * @param _account Cuenta del paciente\n    */\n    function updateDiagnostic(\n        address _account,\n        string memory _nombre,\n        string memory _aPat,\n        string memory _aMat,\n        string memory _comorb,\n        uint256 _age,\n        uint256 _weight,\n        string memory _diagnostic,\n        string memory _observations,\n        string[] memory _estudio,\n        uint256 _date\n        )\n    public nonlyStopped onlyMedic returns (bool _success) {\n        require(_account != address(0));\n        require(bytes(_nombre).length < 25);\n        require(bytes(_aPat).length < 25);\n        require(bytes(_aMat).length < 25);\n        require(bytes(_comorb).length < 256);\n        require(_age < 120);\n        require(_weight < 700);\n        require(bytes(_diagnostic).length < 50);\n        require(bytes(_observations).length < 512);\n        require(_date >= 0 && _date <= 2**256 - 1);\n        //require(fileToPatientDiagnosis[_account][_date] != 0);\n        require(_estudio.length > 0);\n\n        Diagnostico memory diagnostico = patientDiagnosis(_account, _date);\n\n        diagnostico.nombre = _nombre;\n        diagnostico.aPat = _aPat;\n        diagnostico.aMat = _aMat;\n        diagnostico.comorb = _comorb;\n        diagnostico.age = _age;\n        diagnostico.weight = _weight;\n        diagnostico.diagnostic = _diagnostic;\n        diagnostico.observations = _observations;\n        diagnostico.estudio = _estudio;\n\n        emit DiagnosisUpdate(\n            _account,\n            msg.sender,\n            diagnostico.nombre,\n            diagnostico.aPat,\n            diagnostico.aMat,\n            diagnostico.comorb,\n            diagnostico.age,\n            diagnostico.weight,\n            diagnostico.diagnostic,\n            diagnostico.observations\n        );\n        _success = true;\n    }\n\n    /**\n    * @notice Returns el Diagnstico en el ndice del propietario de la direccin.\n    * @dev Controlado por el switch\n    * @param _account The owner address\n    * @return _date The uploaded timestamp\n    */\n    function viewDiagnostic(address _account, uint256 _date) public nonlyStopped onlyPatient returns (\n        string memory _nombre,\n        string memory _aPat,\n        string memory _aMat,\n        string memory _comorb,\n        uint256 _age,\n        uint256 _weight,\n        string memory _diagnostic,\n        string memory _observations,\n        string[] memory _estudio\n        ) {\n        if (isPatient(msg.sender)) {\n            require(msg.sender == _account);\n        }\n        if (isMedic(msg.sender)) {\n            require(msg.sender != _account);\n        }\n        require(_account != address(0));\n        require(_date >= 0 && _date <= 2**256 - 1);\n        //require(fileToPatientDiagnosis[_account][_date] != false);\n\n        Diagnostico memory diagnostico = patientDiagnosis(_account, _date);\n\n        emit DiagnosticRetrieve(\n            _account,\n            msg.sender,\n            diagnostico.nombre,\n            diagnostico.aPat,\n            diagnostico.aMat,\n            diagnostico.comorb,\n            diagnostico.age,\n            diagnostico.weight,\n            diagnostico.diagnostic,\n            diagnostico.observations\n        );\n        _nombre = diagnostico.nombre;\n        _aPat = diagnostico.aPat;\n        _aMat = diagnostico.aMat;\n        _comorb = diagnostico.comorb;\n        _age = diagnostico.age;\n        _weight = diagnostico.weight;\n        _diagnostic = diagnostico.diagnostic;\n        _observations = diagnostico.observations;\n        _estudio = diagnostico.estudio;\n    }\n\n    /**\n    * @notice Returns el estudio en el ndice del propietario de la direccin.\n    * @dev Controlado por el switch\n    * @param _account The owner address\n    * @return _uploadDate The uploaded timestamp\n    */\n    function deleteDiagnostic(address _account, uint256 _date) public nonlyStopped onlyMedic returns (bool _success) {\n        require(_account != address(0));\n        require(_date >= 0 && _date <= 2**256 - 1);\n        //require(fileToPatientDiagnosis[_account][_date] != false);\n\n        delete fileToPatientDiagnosis[_account][_date];\n\n        emit DiagnosticDelete(\n            _account,\n            msg.sender,\n            _date\n        );\n        _success = true;\n    }\n\n}\n",
  "sourcePath": "/home/seno/Maestra/Distribuidos/Backend/backend/contracts/PatientDiagnosis.sol",
  "compiler": {
    "name": "solc",
    "version": "0.5.16+commit.9c3226ce.Emscripten.clang"
  },
  "schemaVersion": "3.0.23",
  "updatedAt": "2020-04-15T03:46:43.741Z",
  "networkType": "ethereum",
  "devdoc": {
    "author": "Francisco Alemn",
    "details": "El contrato hereda las funciones del contrato de roles",
    "methods": {
      "addAdmin(address)": {
        "details": "Funcin pblica para asignar admin",
        "params": {
          "account": "Cuenta que ser asignada como admin"
        }
      },
      "addDiagnostic(address,string,string,string,string,uint256,uint256,string,string,string[])": {
        "details": "Funcin de creacin de Diagnstico. Esta funcin es realizada por un doctor.",
        "params": {
          "_account": "a",
          "_age": "a",
          "_diagnostic": "a",
          "_observations": "a param _date a",
          "_weight": "a"
        },
        "return": "_success a"
      },
      "addMedic(address)": {
        "details": "Funcin pblica para asignar mdico",
        "params": {
          "account": "Cuenta que ser asignada como mdico"
        }
      },
      "addPatient(address)": {
        "details": "Funcin pblica para asignar paciente",
        "params": {
          "account": "Cuenta que ser asignada como paciente"
        }
      },
      "addRecord(address,string,string)": {
        "details": "Funcin de creacin de Estudio. Esta funcin es realizada por un doctor.",
        "params": {
          "_account": "a",
          "_ipfsHash": "a"
        },
        "return": "_success a"
      },
      "deleteDiagnostic(address,uint256)": {
        "details": "Controlado por el switch",
        "params": {
          "_account": "The owner address"
        },
        "return": "_uploadDate The uploaded timestamp"
      },
      "deleteRecord(address,string)": {
        "details": "Controlado por el switch",
        "params": {
          "_account": "The owner address"
        },
        "return": "_uploadDate The uploaded timestamp"
      },
      "emergencyStop(bool)": {
        "params": {
          "_stop": "Switch del contrado de encendido/apagado"
        }
      },
      "isAdmin(address)": {
        "params": {
          "account": "Cuenta donde se validar el rol."
        },
        "return": "true si la cuenta tiene rol de admin"
      },
      "isMedic(address)": {
        "params": {
          "account": "Cuenta donde se validar el rol."
        },
        "return": "true si la cuenta tiene rol de mdico"
      },
      "isPatient(address)": {
        "params": {
          "account": "Cuenta donde se validar el rol."
        },
        "return": "true si la cuenta tiene rol de paciente"
      },
      "removeMedic(address)": {
        "details": "Funcin pblica para remover mdico",
        "params": {
          "account": "Cuenta que ser removida de mdico"
        }
      },
      "removePatient(address)": {
        "details": "Remover a rol de paciente. Quien invoque al contrato no volver a ser paciente."
      },
      "renounceAdmin()": {
        "details": "Renunciar a rol de administrador. Quien inque al contrato no volver a ser admin."
      },
      "renounceMedic()": {
        "details": "Renunciar a rol de personal mdico. Quien invoque al contrato no volver a ser mdico."
      },
      "updateDiagnostic(address,string,string,string,string,uint256,uint256,string,string,string[],uint256)": {
        "details": "Controlado por el switch",
        "params": {
          "_account": "Cuenta del paciente"
        }
      },
      "updateRecord(address,string,string)": {
        "details": "Controlado por el switch",
        "params": {
          "_account": "Cuenta del paciente"
        },
        "return": "_ipfsHash The IPFS hash"
      },
      "viewDiagnostic(address,uint256)": {
        "details": "Controlado por el switch",
        "params": {
          "_account": "The owner address"
        },
        "return": "_date The uploaded timestamp"
      },
      "viewRecords(address,string)": {
        "details": "Controlado por el switch",
        "params": {
          "_account": "The owner address"
        },
        "return": "_uploadDate The uploaded timestamp"
      }
    },
    "title": "Smart Contract de Diagnstico de pacientes - Control de Diagnstico realizado por el mdico."
  },
  "userdoc": {
    "methods": {
      "deleteDiagnostic(address,uint256)": {
        "notice": "Returns el estudio en el ndice del propietario de la direccin."
      },
      "deleteRecord(address,string)": {
        "notice": "Returns el estudio en el ndice del propietario de la direccin."
      },
      "emergencyStop(bool)": {
        "notice": "Pausar el contrato Se detiene el contrato bajo ciertas condiciones. Sera til cuando nuevos errores sean descubiertos."
      },
      "updateDiagnostic(address,string,string,string,string,uint256,uint256,string,string,string[],uint256)": {
        "notice": "Returns el Diagnstico en el ndice del propietario de la direccin."
      },
      "updateRecord(address,string,string)": {
        "notice": "Returns el estudio en el ndice del propietario de la direccin."
      },
      "viewDiagnostic(address,uint256)": {
        "notice": "Returns el Diagnstico en el ndice del propietario de la direccin."
      },
      "viewRecords(address,string)": {
        "notice": "Returns el estudio en el ndice del propietario de la direccin."
      }
    },
    "notice": "Este contrato representa el registro de un Diagnstico asociado a una persona."
  }
}