{
  "contractName": "PatientRecords",
  "abi": [
    {
      "anonymous": false,
      "inputs": [
        {
          "indexed": true,
          "internalType": "address",
          "name": "newAdm",
          "type": "address"
        },
        {
          "indexed": true,
          "internalType": "address",
          "name": "whoAddedAdm",
          "type": "address"
        }
      ],
      "name": "AdminAdded",
      "type": "event"
    },
    {
      "anonymous": false,
      "inputs": [
        {
          "indexed": true,
          "internalType": "address",
          "name": "accountRen",
          "type": "address"
        }
      ],
      "name": "AdminRenounce",
      "type": "event"
    },
    {
      "anonymous": false,
      "inputs": [
        {
          "indexed": true,
          "internalType": "address",
          "name": "_admin",
          "type": "address"
        },
        {
          "indexed": false,
          "internalType": "bool",
          "name": "_stop",
          "type": "bool"
        }
      ],
      "name": "LogSwitchStop",
      "type": "event"
    },
    {
      "anonymous": false,
      "inputs": [
        {
          "indexed": true,
          "internalType": "address",
          "name": "newMed",
          "type": "address"
        },
        {
          "indexed": true,
          "internalType": "address",
          "name": "whoAddedMed",
          "type": "address"
        }
      ],
      "name": "MedicAdded",
      "type": "event"
    },
    {
      "anonymous": false,
      "inputs": [
        {
          "indexed": true,
          "internalType": "address",
          "name": "oldMed",
          "type": "address"
        },
        {
          "indexed": true,
          "internalType": "address",
          "name": "whoRemovedMed",
          "type": "address"
        }
      ],
      "name": "MedicRemoved",
      "type": "event"
    },
    {
      "anonymous": false,
      "inputs": [
        {
          "indexed": true,
          "internalType": "address",
          "name": "medRen",
          "type": "address"
        }
      ],
      "name": "MedicRenounce",
      "type": "event"
    },
    {
      "anonymous": false,
      "inputs": [
        {
          "indexed": true,
          "internalType": "address",
          "name": "newPat",
          "type": "address"
        },
        {
          "indexed": true,
          "internalType": "address",
          "name": "whoAddedPat",
          "type": "address"
        }
      ],
      "name": "PatientAdded",
      "type": "event"
    },
    {
      "anonymous": false,
      "inputs": [
        {
          "indexed": true,
          "internalType": "address",
          "name": "oldPat",
          "type": "address"
        },
        {
          "indexed": true,
          "internalType": "address",
          "name": "whoRemovedPat",
          "type": "address"
        }
      ],
      "name": "PatientRemoved",
      "type": "event"
    },
    {
      "anonymous": false,
      "inputs": [
        {
          "indexed": true,
          "internalType": "address",
          "name": "_patient",
          "type": "address"
        },
        {
          "indexed": true,
          "internalType": "address",
          "name": "_medic",
          "type": "address"
        },
        {
          "indexed": false,
          "internalType": "string",
          "name": "_nombre",
          "type": "string"
        },
        {
          "indexed": false,
          "internalType": "string",
          "name": "_comorb",
          "type": "string"
        },
        {
          "indexed": false,
          "internalType": "string",
          "name": "_groupBlood",
          "type": "string"
        },
        {
          "indexed": false,
          "internalType": "string",
          "name": "_ipfsHash",
          "type": "string"
        },
        {
          "indexed": false,
          "internalType": "uint256",
          "name": "_uploadDate",
          "type": "uint256"
        }
      ],
      "name": "RecordAdded",
      "type": "event"
    },
    {
      "anonymous": false,
      "inputs": [
        {
          "indexed": true,
          "internalType": "address",
          "name": "_patient",
          "type": "address"
        },
        {
          "indexed": true,
          "internalType": "address",
          "name": "_medic",
          "type": "address"
        },
        {
          "indexed": false,
          "internalType": "string",
          "name": "ipfsHash",
          "type": "string"
        },
        {
          "indexed": false,
          "internalType": "uint256",
          "name": "_uploadDate",
          "type": "uint256"
        }
      ],
      "name": "RecordDelete",
      "type": "event"
    },
    {
      "anonymous": false,
      "inputs": [
        {
          "indexed": true,
          "internalType": "address",
          "name": "_patient",
          "type": "address"
        },
        {
          "indexed": true,
          "internalType": "address",
          "name": "_medic",
          "type": "address"
        },
        {
          "indexed": false,
          "internalType": "string",
          "name": "_nombre",
          "type": "string"
        },
        {
          "indexed": false,
          "internalType": "string",
          "name": "_comorb",
          "type": "string"
        },
        {
          "indexed": false,
          "internalType": "string",
          "name": "_groupBlood",
          "type": "string"
        },
        {
          "indexed": false,
          "internalType": "string",
          "name": "_ipfsHash",
          "type": "string"
        },
        {
          "indexed": false,
          "internalType": "uint256",
          "name": "_uploadDate",
          "type": "uint256"
        },
        {
          "indexed": false,
          "internalType": "uint256",
          "name": "_queryDate",
          "type": "uint256"
        }
      ],
      "name": "RecordRetrieve",
      "type": "event"
    },
    {
      "anonymous": false,
      "inputs": [
        {
          "indexed": true,
          "internalType": "address",
          "name": "_patient",
          "type": "address"
        },
        {
          "indexed": true,
          "internalType": "address",
          "name": "_medic",
          "type": "address"
        },
        {
          "indexed": false,
          "internalType": "string",
          "name": "_nombre",
          "type": "string"
        },
        {
          "indexed": false,
          "internalType": "string",
          "name": "_comorb",
          "type": "string"
        },
        {
          "indexed": false,
          "internalType": "string",
          "name": "_groupBlood",
          "type": "string"
        },
        {
          "indexed": false,
          "internalType": "string",
          "name": "_ipfsHash",
          "type": "string"
        },
        {
          "indexed": false,
          "internalType": "uint256",
          "name": "_uploadDate",
          "type": "uint256"
        },
        {
          "indexed": false,
          "internalType": "uint256",
          "name": "_queryDate",
          "type": "uint256"
        }
      ],
      "name": "RecordUpdate",
      "type": "event"
    },
    {
      "payable": false,
      "stateMutability": "nonpayable",
      "type": "fallback"
    },
    {
      "constant": false,
      "inputs": [
        {
          "internalType": "address",
          "name": "account",
          "type": "address"
        }
      ],
      "name": "addAdmin",
      "outputs": [],
      "payable": false,
      "stateMutability": "nonpayable",
      "type": "function"
    },
    {
      "constant": false,
      "inputs": [
        {
          "internalType": "address",
          "name": "account",
          "type": "address"
        }
      ],
      "name": "addMedic",
      "outputs": [],
      "payable": false,
      "stateMutability": "nonpayable",
      "type": "function"
    },
    {
      "constant": false,
      "inputs": [
        {
          "internalType": "address",
          "name": "account",
          "type": "address"
        }
      ],
      "name": "addPatient",
      "outputs": [],
      "payable": false,
      "stateMutability": "nonpayable",
      "type": "function"
    },
    {
      "constant": true,
      "inputs": [
        {
          "internalType": "address",
          "name": "",
          "type": "address"
        },
        {
          "internalType": "uint256",
          "name": "",
          "type": "uint256"
        }
      ],
      "name": "fileToPatient",
      "outputs": [
        {
          "internalType": "string",
          "name": "nombre",
          "type": "string"
        },
        {
          "internalType": "string",
          "name": "comorb",
          "type": "string"
        },
        {
          "internalType": "string",
          "name": "groupBlood",
          "type": "string"
        },
        {
          "internalType": "string",
          "name": "ipfsHash",
          "type": "string"
        },
        {
          "internalType": "uint256",
          "name": "uploadDate",
          "type": "uint256"
        }
      ],
      "payable": false,
      "stateMutability": "view",
      "type": "function"
    },
    {
      "constant": true,
      "inputs": [
        {
          "internalType": "address",
          "name": "account",
          "type": "address"
        }
      ],
      "name": "isAdmin",
      "outputs": [
        {
          "internalType": "bool",
          "name": "",
          "type": "bool"
        }
      ],
      "payable": false,
      "stateMutability": "view",
      "type": "function"
    },
    {
      "constant": true,
      "inputs": [
        {
          "internalType": "address",
          "name": "account",
          "type": "address"
        }
      ],
      "name": "isMedic",
      "outputs": [
        {
          "internalType": "bool",
          "name": "",
          "type": "bool"
        }
      ],
      "payable": false,
      "stateMutability": "view",
      "type": "function"
    },
    {
      "constant": true,
      "inputs": [
        {
          "internalType": "address",
          "name": "account",
          "type": "address"
        }
      ],
      "name": "isPatient",
      "outputs": [
        {
          "internalType": "bool",
          "name": "",
          "type": "bool"
        }
      ],
      "payable": false,
      "stateMutability": "view",
      "type": "function"
    },
    {
      "constant": false,
      "inputs": [
        {
          "internalType": "address",
          "name": "account",
          "type": "address"
        }
      ],
      "name": "removeMedic",
      "outputs": [],
      "payable": false,
      "stateMutability": "nonpayable",
      "type": "function"
    },
    {
      "constant": false,
      "inputs": [
        {
          "internalType": "address",
          "name": "account",
          "type": "address"
        }
      ],
      "name": "removePatient",
      "outputs": [],
      "payable": false,
      "stateMutability": "nonpayable",
      "type": "function"
    },
    {
      "constant": false,
      "inputs": [],
      "name": "renounceAdmin",
      "outputs": [],
      "payable": false,
      "stateMutability": "nonpayable",
      "type": "function"
    },
    {
      "constant": false,
      "inputs": [],
      "name": "renounceMedic",
      "outputs": [],
      "payable": false,
      "stateMutability": "nonpayable",
      "type": "function"
    },
    {
      "constant": false,
      "inputs": [
        {
          "internalType": "bool",
          "name": "_stop",
          "type": "bool"
        }
      ],
      "name": "emergencyStop",
      "outputs": [],
      "payable": false,
      "stateMutability": "nonpayable",
      "type": "function"
    },
    {
      "constant": false,
      "inputs": [
        {
          "internalType": "address",
          "name": "_account",
          "type": "address"
        },
        {
          "internalType": "string",
          "name": "_nombre",
          "type": "string"
        },
        {
          "internalType": "string",
          "name": "_comorb",
          "type": "string"
        },
        {
          "internalType": "string",
          "name": "_groupBlood",
          "type": "string"
        },
        {
          "internalType": "string",
          "name": "_ipfsHash",
          "type": "string"
        }
      ],
      "name": "addRecord",
      "outputs": [
        {
          "internalType": "bool",
          "name": "_success",
          "type": "bool"
        }
      ],
      "payable": false,
      "stateMutability": "nonpayable",
      "type": "function"
    },
    {
      "constant": false,
      "inputs": [
        {
          "internalType": "address",
          "name": "_account",
          "type": "address"
        },
        {
          "internalType": "uint256",
          "name": "_uploadDate",
          "type": "uint256"
        }
      ],
      "name": "viewRecord",
      "outputs": [
        {
          "internalType": "string",
          "name": "nombre",
          "type": "string"
        },
        {
          "internalType": "string",
          "name": "comorb",
          "type": "string"
        },
        {
          "internalType": "string",
          "name": "groupBlood",
          "type": "string"
        },
        {
          "internalType": "string",
          "name": "ipfsHash",
          "type": "string"
        }
      ],
      "payable": false,
      "stateMutability": "nonpayable",
      "type": "function"
    },
    {
      "constant": false,
      "inputs": [
        {
          "internalType": "address",
          "name": "_account",
          "type": "address"
        },
        {
          "internalType": "string",
          "name": "_nombre",
          "type": "string"
        },
        {
          "internalType": "string",
          "name": "_comorb",
          "type": "string"
        },
        {
          "internalType": "string",
          "name": "_groupBlood",
          "type": "string"
        },
        {
          "internalType": "string",
          "name": "_ipfsHash",
          "type": "string"
        },
        {
          "internalType": "uint256",
          "name": "_uploadDate",
          "type": "uint256"
        }
      ],
      "name": "updateRecord",
      "outputs": [
        {
          "internalType": "bool",
          "name": "_success",
          "type": "bool"
        }
      ],
      "payable": false,
      "stateMutability": "nonpayable",
      "type": "function"
    },
    {
      "constant": false,
      "inputs": [
        {
          "internalType": "address",
          "name": "_account",
          "type": "address"
        },
        {
          "internalType": "uint256",
          "name": "_uploadDate",
          "type": "uint256"
        }
      ],
      "name": "deleteRecord",
      "outputs": [
        {
          "internalType": "bool",
          "name": "_success",
          "type": "bool"
        }
      ],
      "payable": false,
      "stateMutability": "nonpayable",
      "type": "function"
    }
  ],
  "bytecode": "0x60806040526000600460006101000a81548160ff02191690831515021790555062000030336200003660201b60201c565b62000272565b62000051816000620000ae60201b62002f731790919060201c565b3373ffffffffffffffffffffffffffffffffffffffff168173ffffffffffffffffffffffffffffffffffffffff167fbf3f493c772c8c283fd124432c2d0f539ab343faa04258fe88e52912d36b102b60405160405180910390a350565b620000c082826200019260201b60201c565b1562000134576040517f08c379a000000000000000000000000000000000000000000000000000000000815260040180806020018281038252601f8152602001807f526f6c65733a206163636f756e7420616c72656164792068617320726f6c650081525060200191505060405180910390fd5b60018260000160008373ffffffffffffffffffffffffffffffffffffffff1673ffffffffffffffffffffffffffffffffffffffff16815260200190815260200160002060006101000a81548160ff0219169083151502179055505050565b60008073ffffffffffffffffffffffffffffffffffffffff168273ffffffffffffffffffffffffffffffffffffffff1614156200021b576040517f08c379a0000000000000000000000000000000000000000000000000000000008152600401808060200182810382526022815260200180620034f46022913960400191505060405180910390fd5b8260000160008373ffffffffffffffffffffffffffffffffffffffff1673ffffffffffffffffffffffffffffffffffffffff16815260200190815260200160002060009054906101000a900460ff16905092915050565b61327280620002826000396000f3fe608060405234801561001057600080fd5b50600436106101005760003560e01c80637d0d625711610097578063b0397ff811610066578063b0397ff8146108ee578063eae3ef8a14610932578063f48285401461098e578063f69e9fa114610ba057610100565b80637d0d6257146105825780638bad0c0a146105c65780638f9c79ed146105d0578063a33505571461062c57610100565b8063413e63ad116100d3578063413e63ad146101fe5780636d263ceb146104b657806370480275146104fa5780637d01dbc21461053e57610100565b80630ac62e0214610102578063210661b71461013257806324d7806c1461019857806333dc0abd146101f4575b005b6101306004803603602081101561011857600080fd5b81019080803515159060200190929190505050610dab565b005b61017e6004803603604081101561014857600080fd5b81019080803573ffffffffffffffffffffffffffffffffffffffff16906020019092919080359060200190929190505050610e78565b604051808215151515815260200191505060405180910390f35b6101da600480360360208110156101ae57600080fd5b81019080803573ffffffffffffffffffffffffffffffffffffffff169060200190929190505050611243565b604051808215151515815260200191505060405180910390f35b6101fc611260565b005b61049c600480360360a081101561021457600080fd5b81019080803573ffffffffffffffffffffffffffffffffffffffff1690602001909291908035906020019064010000000081111561025157600080fd5b82018360208201111561026357600080fd5b8035906020019184600183028401116401000000008311171561028557600080fd5b91908080601f016020809104026020016040519081016040528093929190818152602001838380828437600081840152601f19601f820116905080830192505050505050509192919290803590602001906401000000008111156102e857600080fd5b8201836020820111156102fa57600080fd5b8035906020019184600183028401116401000000008311171561031c57600080fd5b91908080601f016020809104026020016040519081016040528093929190818152602001838380828437600081840152601f19601f8201169050808301925050505050505091929192908035906020019064010000000081111561037f57600080fd5b82018360208201111561039157600080fd5b803590602001918460018302840111640100000000831117156103b357600080fd5b91908080601f016020809104026020016040519081016040528093929190818152602001838380828437600081840152601f19601f8201169050808301925050505050505091929192908035906020019064010000000081111561041657600080fd5b82018360208201111561042857600080fd5b8035906020019184600183028401116401000000008311171561044a57600080fd5b91908080601f016020809104026020016040519081016040528093929190818152602001838380828437600081840152601f19601f8201169050808301925050505050505091929192905050506112c9565b604051808215151515815260200191505060405180910390f35b6104f8600480360360208110156104cc57600080fd5b81019080803573ffffffffffffffffffffffffffffffffffffffff1690602001909291905050506116ff565b005b61053c6004803603602081101561051057600080fd5b81019080803573ffffffffffffffffffffffffffffffffffffffff169060200190929190505050611769565b005b6105806004803603602081101561055457600080fd5b81019080803573ffffffffffffffffffffffffffffffffffffffff1690602001909291905050506117d3565b005b6105c46004803603602081101561059857600080fd5b81019080803573ffffffffffffffffffffffffffffffffffffffff16906020019092919050505061183d565b005b6105ce6118a7565b005b610612600480360360208110156105e657600080fd5b81019080803573ffffffffffffffffffffffffffffffffffffffff1690602001909291905050506118b2565b604051808215151515815260200191505060405180910390f35b6108d4600480360360c081101561064257600080fd5b81019080803573ffffffffffffffffffffffffffffffffffffffff1690602001909291908035906020019064010000000081111561067f57600080fd5b82018360208201111561069157600080fd5b803590602001918460018302840111640100000000831117156106b357600080fd5b91908080601f016020809104026020016040519081016040528093929190818152602001838380828437600081840152601f19601f8201169050808301925050505050505091929192908035906020019064010000000081111561071657600080fd5b82018360208201111561072857600080fd5b8035906020019184600183028401116401000000008311171561074a57600080fd5b91908080601f016020809104026020016040519081016040528093929190818152602001838380828437600081840152601f19601f820116905080830192505050505050509192919290803590602001906401000000008111156107ad57600080fd5b8201836020820111156107bf57600080fd5b803590602001918460018302840111640100000000831117156107e157600080fd5b91908080601f016020809104026020016040519081016040528093929190818152602001838380828437600081840152601f19601f8201169050808301925050505050505091929192908035906020019064010000000081111561084457600080fd5b82018360208201111561085657600080fd5b8035906020019184600183028401116401000000008311171561087857600080fd5b91908080601f016020809104026020016040519081016040528093929190818152602001838380828437600081840152601f19601f820116905080830192505050505050509192919290803590602001909291905050506118cf565b604051808215151515815260200191505060405180910390f35b6109306004803603602081101561090457600080fd5b81019080803573ffffffffffffffffffffffffffffffffffffffff169060200190929190505050611ff7565b005b6109746004803603602081101561094857600080fd5b81019080803573ffffffffffffffffffffffffffffffffffffffff169060200190929190505050612061565b604051808215151515815260200191505060405180910390f35b6109da600480360360408110156109a457600080fd5b81019080803573ffffffffffffffffffffffffffffffffffffffff1690602001909291908035906020019092919050505061207e565b604051808060200180602001806020018060200186815260200185810385528a818151815260200191508051906020019080838360005b83811015610a2c578082015181840152602081019050610a11565b50505050905090810190601f168015610a595780820380516001836020036101000a031916815260200191505b50858103845289818151815260200191508051906020019080838360005b83811015610a92578082015181840152602081019050610a77565b50505050905090810190601f168015610abf5780820380516001836020036101000a031916815260200191505b50858103835288818151815260200191508051906020019080838360005b83811015610af8578082015181840152602081019050610add565b50505050905090810190601f168015610b255780820380516001836020036101000a031916815260200191505b50858103825287818151815260200191508051906020019080838360005b83811015610b5e578082015181840152602081019050610b43565b50505050905090810190601f168015610b8b5780820380516001836020036101000a031916815260200191505b50995050505050505050505060405180910390f35b610bec60048036036040811015610bb657600080fd5b81019080803573ffffffffffffffffffffffffffffffffffffffff1690602001909291908035906020019092919050505061232e565b6040518080602001806020018060200180602001858103855289818151815260200191508051906020019080838360005b83811015610c38578082015181840152602081019050610c1d565b50505050905090810190601f168015610c655780820380516001836020036101000a031916815260200191505b50858103845288818151815260200191508051906020019080838360005b83811015610c9e578082015181840152602081019050610c83565b50505050905090810190601f168015610ccb5780820380516001836020036101000a031916815260200191505b50858103835287818151815260200191508051906020019080838360005b83811015610d04578082015181840152602081019050610ce9565b50505050905090810190601f168015610d315780820380516001836020036101000a031916815260200191505b50858103825286818151815260200191508051906020019080838360005b83811015610d6a578082015181840152602081019050610d4f565b50505050905090810190601f168015610d975780820380516001836020036101000a031916815260200191505b509850505050505050505060405180910390f35b610db433611243565b610e09576040517f08c379a000000000000000000000000000000000000000000000000000000000815260040180806020018281038252602b8152602001806131db602b913960400191505060405180910390fd5b80600460006101000a81548160ff0219169083151502179055503373ffffffffffffffffffffffffffffffffffffffff167f58b15338e6499b2b2827d169f60332c3b4b476fcd06b9a3c7e37afa77c49228e82604051808215151515815260200191505060405180910390a250565b6000600460009054906101000a900460ff1615610e9457600080fd5b610e9d33612061565b610ef2576040517f08c379a000000000000000000000000000000000000000000000000000000000815260040180806020018281038252602d81526020018061316b602d913960400191505060405180910390fd5b600073ffffffffffffffffffffffffffffffffffffffff168373ffffffffffffffffffffffffffffffffffffffff161415610f2c57600080fd5b60008210158015610f5d57507fffffffffffffffffffffffffffffffffffffffffffffffffffffffffffffffff8211155b610f6657600080fd5b6000600360008573ffffffffffffffffffffffffffffffffffffffff1673ffffffffffffffffffffffffffffffffffffffff1681526020019081526020016000208054905011610fb557600080fd5b60004290506000610fc585612aa9565b905060008090505b818110156112365784600360008873ffffffffffffffffffffffffffffffffffffffff1673ffffffffffffffffffffffffffffffffffffffff168152602001908152602001600020828154811061102057fe5b9060005260206000209060050201600401541415611229573373ffffffffffffffffffffffffffffffffffffffff168673ffffffffffffffffffffffffffffffffffffffff167ff0371b550d736674069b622708da6cbd867e000d38b2a7b9d5c790320281ae62600360008a73ffffffffffffffffffffffffffffffffffffffff1673ffffffffffffffffffffffffffffffffffffffff16815260200190815260200160002084815481106110d157fe5b90600052602060002090600502016003018660405180806020018381526020018281038252848181546001816001161561010002031660029004815260200191508054600181600116156101000203166002900480156111725780601f1061114757610100808354040283529160200191611172565b820191906000526020600020905b81548152906001019060200180831161115557829003601f168201915b5050935050505060405180910390a3600360008773ffffffffffffffffffffffffffffffffffffffff1673ffffffffffffffffffffffffffffffffffffffff16815260200190815260200160002081815481106111cb57fe5b9060005260206000209060050201600080820160006111ea919061304e565b6001820160006111fa919061304e565b60028201600061120a919061304e565b60038201600061121a919061304e565b60048201600090555050611236565b8080600101915050610fcd565b5060019250505092915050565b6000611259826000612b4990919063ffffffff16565b9050919050565b61126933612061565b6112be576040517f08c379a000000000000000000000000000000000000000000000000000000000815260040180806020018281038252602d81526020018061316b602d913960400191505060405180910390fd5b6112c733612c27565b565b6000600460009054906101000a900460ff16156112e557600080fd5b6112ee33612061565b611343576040517f08c379a000000000000000000000000000000000000000000000000000000000815260040180806020018281038252602d81526020018061316b602d913960400191505060405180910390fd5b600073ffffffffffffffffffffffffffffffffffffffff168673ffffffffffffffffffffffffffffffffffffffff161461137c57600080fd5b608085511061138a57600080fd5b61020084511061139957600080fd5b60088351106113a757600080fd5b602e8251146113b557600080fd5b60004290506113c2613096565b6040518060a00160405280888152602001878152602001868152602001858152602001838152509050600360008973ffffffffffffffffffffffffffffffffffffffff1673ffffffffffffffffffffffffffffffffffffffff168152602001908152602001600020819080600181540180825580915050906001820390600052602060002090600502016000909192909190915060008201518160000190805190602001906114729291906130c5565b50602082015181600101908051906020019061148f9291906130c5565b5060408201518160020190805190602001906114ac9291906130c5565b5060608201518160030190805190602001906114c99291906130c5565b50608082015181600401555050503373ffffffffffffffffffffffffffffffffffffffff168873ffffffffffffffffffffffffffffffffffffffff167f753651ddc2ba552e15e08b46cda3c68b6aea715ad420168a186896b27b0b7f4d8989898988604051808060200180602001806020018060200186815260200185810385528a818151815260200191508051906020019080838360005b8381101561157d578082015181840152602081019050611562565b50505050905090810190601f1680156115aa5780820380516001836020036101000a031916815260200191505b50858103845289818151815260200191508051906020019080838360005b838110156115e35780820151818401526020810190506115c8565b50505050905090810190601f1680156116105780820380516001836020036101000a031916815260200191505b50858103835288818151815260200191508051906020019080838360005b8381101561164957808201518184015260208101905061162e565b50505050905090810190601f1680156116765780820380516001836020036101000a031916815260200191505b50858103825287818151815260200191508051906020019080838360005b838110156116af578082015181840152602081019050611694565b50505050905090810190601f1680156116dc5780820380516001836020036101000a031916815260200191505b50995050505050505050505060405180910390a360019250505095945050505050565b61170833612061565b61175d576040517f08c379a000000000000000000000000000000000000000000000000000000000815260040180806020018281038252602d81526020018061316b602d913960400191505060405180910390fd5b61176681612c98565b50565b61177233611243565b6117c7576040517f08c379a000000000000000000000000000000000000000000000000000000000815260040180806020018281038252602b8152602001806131db602b913960400191505060405180910390fd5b6117d081612d09565b50565b6117dc33611243565b611831576040517f08c379a000000000000000000000000000000000000000000000000000000000815260040180806020018281038252602b8152602001806131db602b913960400191505060405180910390fd5b61183a81612c27565b50565b61184633612061565b61189b576040517f08c379a000000000000000000000000000000000000000000000000000000000815260040180806020018281038252602d81526020018061316b602d913960400191505060405180910390fd5b6118a481612d7a565b50565b6118b033612deb565b565b60006118c8826002612b4990919063ffffffff16565b9050919050565b6000600460009054906101000a900460ff16156118eb57600080fd5b6118f433612061565b611949576040517f08c379a000000000000000000000000000000000000000000000000000000000815260040180806020018281038252602d81526020018061316b602d913960400191505060405180910390fd5b600073ffffffffffffffffffffffffffffffffffffffff168773ffffffffffffffffffffffffffffffffffffffff16141561198357600080fd5b608086511061199157600080fd5b6102008551106119a057600080fd5b60088451106119ae57600080fd5b602e8351146119bc57600080fd5b600082101580156119ed57507fffffffffffffffffffffffffffffffffffffffffffffffffffffffffffffffff8211155b6119f657600080fd5b6000600360008973ffffffffffffffffffffffffffffffffffffffff1673ffffffffffffffffffffffffffffffffffffffff1681526020019081526020016000208054905011611a4557600080fd5b60004290506000611a5589612aa9565b9050611a5f613096565b60008090505b82811015611d8257600360008c73ffffffffffffffffffffffffffffffffffffffff1673ffffffffffffffffffffffffffffffffffffffff1681526020019081526020016000208181548110611ab757fe5b90600052602060002090600502016040518060a0016040529081600082018054600181600116156101000203166002900480601f016020809104026020016040519081016040528092919081815260200182805460018160011615610100020316600290048015611b695780601f10611b3e57610100808354040283529160200191611b69565b820191906000526020600020905b815481529060010190602001808311611b4c57829003601f168201915b50505050508152602001600182018054600181600116156101000203166002900480601f016020809104026020016040519081016040528092919081815260200182805460018160011615610100020316600290048015611c0b5780601f10611be057610100808354040283529160200191611c0b565b820191906000526020600020905b815481529060010190602001808311611bee57829003601f168201915b50505050508152602001600282018054600181600116156101000203166002900480601f016020809104026020016040519081016040528092919081815260200182805460018160011615610100020316600290048015611cad5780601f10611c8257610100808354040283529160200191611cad565b820191906000526020600020905b815481529060010190602001808311611c9057829003601f168201915b50505050508152602001600382018054600181600116156101000203166002900480601f016020809104026020016040519081016040528092919081815260200182805460018160011615610100020316600290048015611d4f5780601f10611d2457610100808354040283529160200191611d4f565b820191906000526020600020905b815481529060010190602001808311611d3257829003601f168201915b5050505050815260200160048201548152505091508582608001511415611d7557611d82565b8080600101915050611a65565b50888160000181905250878160200181905250868160400181905250858160600181905250848160800181815250503373ffffffffffffffffffffffffffffffffffffffff168a73ffffffffffffffffffffffffffffffffffffffff167f39839fda2545be7180937f62eaf609a1738bd2b7569a5e2b00fa21aa9b7e29f3836000015184602001518560400151866060015187608001518a604051808060200180602001806020018060200187815260200186815260200185810385528b818151815260200191508051906020019080838360005b83811015611e72578082015181840152602081019050611e57565b50505050905090810190601f168015611e9f5780820380516001836020036101000a031916815260200191505b5085810384528a818151815260200191508051906020019080838360005b83811015611ed8578082015181840152602081019050611ebd565b50505050905090810190601f168015611f055780820380516001836020036101000a031916815260200191505b50858103835289818151815260200191508051906020019080838360005b83811015611f3e578082015181840152602081019050611f23565b50505050905090810190601f168015611f6b5780820380516001836020036101000a031916815260200191505b50858103825288818151815260200191508051906020019080838360005b83811015611fa4578082015181840152602081019050611f89565b50505050905090810190601f168015611fd15780820380516001836020036101000a031916815260200191505b509a505050505050505050505060405180910390a3600193505050509695505050505050565b61200033611243565b612055576040517f08c379a000000000000000000000000000000000000000000000000000000000815260040180806020018281038252602b8152602001806131db602b913960400191505060405180910390fd5b61205e81612e45565b50565b6000612077826001612b4990919063ffffffff16565b9050919050565b6003602052816000526040600020818154811061209757fe5b906000526020600020906005020160009150915050806000018054600181600116156101000203166002900480601f0160208091040260200160405190810160405280929190818152602001828054600181600116156101000203166002900480156121445780601f1061211957610100808354040283529160200191612144565b820191906000526020600020905b81548152906001019060200180831161212757829003601f168201915b505050505090806001018054600181600116156101000203166002900480601f0160208091040260200160405190810160405280929190818152602001828054600181600116156101000203166002900480156121e25780601f106121b7576101008083540402835291602001916121e2565b820191906000526020600020905b8154815290600101906020018083116121c557829003601f168201915b505050505090806002018054600181600116156101000203166002900480601f0160208091040260200160405190810160405280929190818152602001828054600181600116156101000203166002900480156122805780601f1061225557610100808354040283529160200191612280565b820191906000526020600020905b81548152906001019060200180831161226357829003601f168201915b505050505090806003018054600181600116156101000203166002900480601f01602080910402602001604051908101604052809291908181526020018280546001816001161561010002031660029004801561231e5780601f106122f35761010080835404028352916020019161231e565b820191906000526020600020905b81548152906001019060200180831161230157829003601f168201915b5050505050908060040154905085565b606080606080600460009054906101000a900460ff161561234e57600080fd5b612357336118b2565b80612367575061236633612061565b5b6123bc576040517f08c379a00000000000000000000000000000000000000000000000000000000081526004018080602001828103825260388152602001806132066038913960400191505060405180910390fd5b6123c5336118b2565b15612403578573ffffffffffffffffffffffffffffffffffffffff163373ffffffffffffffffffffffffffffffffffffffff161461240257600080fd5b5b61240c33612061565b1561244b578573ffffffffffffffffffffffffffffffffffffffff163373ffffffffffffffffffffffffffffffffffffffff16141561244a57600080fd5b5b600073ffffffffffffffffffffffffffffffffffffffff168673ffffffffffffffffffffffffffffffffffffffff16141561248557600080fd5b600085101580156124b657507fffffffffffffffffffffffffffffffffffffffffffffffffffffffffffffffff8511155b6124bf57600080fd5b6000600360008873ffffffffffffffffffffffffffffffffffffffff1673ffffffffffffffffffffffffffffffffffffffff168152602001908152602001600020805490501161250e57600080fd5b6000429050600061251e88612aa9565b9050612528613096565b60008090505b8281101561284b57600360008b73ffffffffffffffffffffffffffffffffffffffff1673ffffffffffffffffffffffffffffffffffffffff168152602001908152602001600020818154811061258057fe5b90600052602060002090600502016040518060a0016040529081600082018054600181600116156101000203166002900480601f0160208091040260200160405190810160405280929190818152602001828054600181600116156101000203166002900480156126325780601f1061260757610100808354040283529160200191612632565b820191906000526020600020905b81548152906001019060200180831161261557829003601f168201915b50505050508152602001600182018054600181600116156101000203166002900480601f0160208091040260200160405190810160405280929190818152602001828054600181600116156101000203166002900480156126d45780601f106126a9576101008083540402835291602001916126d4565b820191906000526020600020905b8154815290600101906020018083116126b757829003601f168201915b50505050508152602001600282018054600181600116156101000203166002900480601f0160208091040260200160405190810160405280929190818152602001828054600181600116156101000203166002900480156127765780601f1061274b57610100808354040283529160200191612776565b820191906000526020600020905b81548152906001019060200180831161275957829003601f168201915b50505050508152602001600382018054600181600116156101000203166002900480601f0160208091040260200160405190810160405280929190818152602001828054600181600116156101000203166002900480156128185780601f106127ed57610100808354040283529160200191612818565b820191906000526020600020905b8154815290600101906020018083116127fb57829003601f168201915b505050505081526020016004820154815250509150888260800151141561283e5761284b565b808060010191505061252e565b503373ffffffffffffffffffffffffffffffffffffffff168973ffffffffffffffffffffffffffffffffffffffff167f43133ed354b3cf00affc72fa3d5a0b42e15b77f2839c5498933c8f1619a92dcc836000015184602001518560400151866060015187608001518a604051808060200180602001806020018060200187815260200186815260200185810385528b818151815260200191508051906020019080838360005b8381101561290d5780820151818401526020810190506128f2565b50505050905090810190601f16801561293a5780820380516001836020036101000a031916815260200191505b5085810384528a818151815260200191508051906020019080838360005b83811015612973578082015181840152602081019050612958565b50505050905090810190601f1680156129a05780820380516001836020036101000a031916815260200191505b50858103835289818151815260200191508051906020019080838360005b838110156129d95780820151818401526020810190506129be565b50505050905090810190601f168015612a065780820380516001836020036101000a031916815260200191505b50858103825288818151815260200191508051906020019080838360005b83811015612a3f578082015181840152602081019050612a24565b50505050905090810190601f168015612a6c5780820380516001836020036101000a031916815260200191505b509a505050505050505050505060405180910390a38060000151965080602001519550806040015194508060600151935050505092959194509250565b6000600460009054906101000a900460ff1615612ac557600080fd5b600073ffffffffffffffffffffffffffffffffffffffff168273ffffffffffffffffffffffffffffffffffffffff161415612aff57600080fd5b600360008373ffffffffffffffffffffffffffffffffffffffff1673ffffffffffffffffffffffffffffffffffffffff168152602001908152602001600020805490509050919050565b60008073ffffffffffffffffffffffffffffffffffffffff168273ffffffffffffffffffffffffffffffffffffffff161415612bd0576040517f08c379a00000000000000000000000000000000000000000000000000000000081526004018080602001828103825260228152602001806131b96022913960400191505060405180910390fd5b8260000160008373ffffffffffffffffffffffffffffffffffffffff1673ffffffffffffffffffffffffffffffffffffffff16815260200190815260200160002060009054906101000a900460ff16905092915050565b612c3b816001612eb690919063ffffffff16565b3373ffffffffffffffffffffffffffffffffffffffff168173ffffffffffffffffffffffffffffffffffffffff167fb35968fdda9034197de288afbe8a2947dedade83d7dbc0de3e340d4f62ce64dc60405160405180910390a350565b612cac816002612f7390919063ffffffff16565b3373ffffffffffffffffffffffffffffffffffffffff168173ffffffffffffffffffffffffffffffffffffffff167ff6dfb9f71429364456283a1521c30cc400d799d7b381d7ce164687f11c18dbaf60405160405180910390a350565b612d1d816000612f7390919063ffffffff16565b3373ffffffffffffffffffffffffffffffffffffffff168173ffffffffffffffffffffffffffffffffffffffff167fbf3f493c772c8c283fd124432c2d0f539ab343faa04258fe88e52912d36b102b60405160405180910390a350565b612d8e816002612eb690919063ffffffff16565b3373ffffffffffffffffffffffffffffffffffffffff168173ffffffffffffffffffffffffffffffffffffffff167fd00481c3fc5867ec74704c9c99334b8d53c7735c947bdcb6cbebcae6740ed94060405160405180910390a350565b612dff816000612eb690919063ffffffff16565b8073ffffffffffffffffffffffffffffffffffffffff167f583e7032182b053f2bcd5e3ac78021a3c8d321735043ee84032742c9a6528afd60405160405180910390a250565b612e59816001612f7390919063ffffffff16565b3373ffffffffffffffffffffffffffffffffffffffff168173ffffffffffffffffffffffffffffffffffffffff167f93b0ab94930bbad064296971ea5e731f84ae511662781bcaf28543ab9042368a60405160405180910390a350565b612ec08282612b49565b612f15576040517f08c379a00000000000000000000000000000000000000000000000000000000081526004018080602001828103825260218152602001806131986021913960400191505060405180910390fd5b60008260000160008373ffffffffffffffffffffffffffffffffffffffff1673ffffffffffffffffffffffffffffffffffffffff16815260200190815260200160002060006101000a81548160ff0219169083151502179055505050565b612f7d8282612b49565b15612ff0576040517f08c379a000000000000000000000000000000000000000000000000000000000815260040180806020018281038252601f8152602001807f526f6c65733a206163636f756e7420616c72656164792068617320726f6c650081525060200191505060405180910390fd5b60018260000160008373ffffffffffffffffffffffffffffffffffffffff1673ffffffffffffffffffffffffffffffffffffffff16815260200190815260200160002060006101000a81548160ff0219169083151502179055505050565b50805460018160011615610100020316600290046000825580601f106130745750613093565b601f0160209004906000526020600020908101906130929190613145565b5b50565b6040518060a0016040528060608152602001606081526020016060815260200160608152602001600081525090565b828054600181600116156101000203166002900490600052602060002090601f016020900481019282601f1061310657805160ff1916838001178555613134565b82800160010185558215613134579182015b82811115613133578251825591602001919060010190613118565b5b5090506131419190613145565b5090565b61316791905b8082111561316357600081600090555060010161314b565b5090565b9056fe4e6f207365206375656e746120636f6e20656c20726f6c2065737065636966696361646f284dc3a96469636f29526f6c65733a206163636f756e7420646f6573206e6f74206861766520726f6c65526f6c65733a206163636f756e7420697320746865207a65726f20616464726573734e6f207365206375656e746120636f6e20656c20726f6c2065737065636966696361646f2841646d696e294e6f207365206375656e746120636f6e20656c20726f6c2065737065636966696361646f2850616369656e7465206f206dc3a96469636f29a265627a7a723158200920ad629098bd320e7496f71e3e617472280fed614542ad686d2435aaa6de2f64736f6c63430005100032526f6c65733a206163636f756e7420697320746865207a65726f2061646472657373",
  "source": "pragma solidity 0.5.16;\n\nimport \"./acceso/UserRoles.sol\";\n\n/**\n * @title Smart Contract de Historial de pacientes - Control de Estudio basado en rol.\n * @author Adrin Constante\n * @notice Este contrato representa el registro de un Estudio asociado a una persona.\n * @notice Debido a las limitaciones de almacenamiento, los Estudio serl almacenados en IPFS.\n * El hash IPFS generado por el archivo en conjunto con metadatos del paciente sern almacenados en la blockchain.\n * @dev El contrato hereda las funciones del contrato de roles\n */\n\ncontract PatientRecords is UserRoles {\n    /**\n     * @title Representa un Estudio el cual le pertenece a un paciente.\n     */\n    struct Estudio {\n        string nombre;\n        string comorb;\n        string groupBlood;\n        string ipfsHash;\n        uint256 uploadDate;\n    }\n\n    /**\n     * @notice Mapea el paciente a su historial clnico..\n     */\n    mapping (address => Estudio[]) public fileToPatient;\n\n    /**\n     * @notice Patrn de switch para encender/apagar\n     */\n    bool private stopped = false;\n\n    /**\n     * @dev Eventos que sern registrados en la blockchain con finalidad de auditoria.\n     */\n    event RecordAdded(\n        address indexed _patient,\n        address indexed _medic,\n        string _nombre,\n        string _comorb,\n        string _groupBlood,\n        string _ipfsHash,\n        uint256 _uploadDate);\n\n    event RecordUpdate(\n        address indexed _patient,\n        address indexed _medic,\n        string _nombre,\n        string _comorb,\n        string _groupBlood,\n        string _ipfsHash,\n        uint256 _uploadDate,\n        uint256 _queryDate);\n\n    event RecordRetrieve(\n        address indexed _patient,\n        address indexed _medic,\n        string _nombre,\n        string _comorb,\n        string _groupBlood,\n        string  _ipfsHash,\n        uint256  _uploadDate,\n        uint256 _queryDate);\n\n    event RecordDelete(\n        address indexed _patient,\n        address indexed _medic,\n        string ipfsHash,\n        uint256 _uploadDate);\n\n    /**\n    * @dev Indica que se ha puesto el contrato en pausa.\n    * @param _admin Un administrador\n    * @param _stop Indica cuando hay una pausa o una reanudacin.\n    */\n    event LogSwitchStop(\n        address indexed _admin,\n        bool _stop\n    );\n\n    /**\n    * @dev Previene de ejecucin del contrato\n    */\n    modifier nonlyStopped {\n        require(!stopped);\n        _;\n    }\n\n    /**\n    * @dev Est funcin ser llamada para todos los mensajes que sean enviados a este contrado.\n    * Enviar Ether a este contrato ocasionar una excepcin, dado que las funciones no tienen un modificador de pago.\n    */\n    function() external {}\n\n    /**\n    * @notice Pausar el contrato\n    * Se detiene el contrato bajo ciertas condiciones.\n    * Sera til cuando nuevos errores sean descubiertos.\n    * @param _stop Switch del contrado de encendido/apagado\n    */\n    function emergencyStop(bool _stop) public onlyAdmin {\n        stopped = _stop;\n        emit LogSwitchStop(msg.sender, _stop);\n    }\n\n  /**\n   * @dev Funcin de creacin de Estudio. Esta funcin es realizada por un doctor.\n   * @param _account a\n   * @param _nombre a\n   * @param _comorb a\n   * @param _groupBlood a\n   * @param _ipfsHash a\n   * @return _success a\n   */\n    function addRecord(\n        address _account,\n        string memory _nombre,\n        string memory _comorb,\n        string memory _groupBlood,\n        string memory _ipfsHash)\n    public nonlyStopped onlyMedic returns (bool _success) {\n        require(_account == 0x0000000000000000000000000000000000000000);\n        require(bytes(_nombre).length < 128);\n        require(bytes(_comorb).length < 512);\n        require(bytes(_groupBlood).length < 8);\n        require(bytes(_ipfsHash).length == 46);\n\n        uint256 _uploadDate = now;\n        Estudio memory estudio = Estudio(\n            _nombre,\n            _comorb,\n            _groupBlood,\n            _ipfsHash,\n            _uploadDate\n        );\n\n        fileToPatient[_account].push(estudio);\n\n        emit RecordAdded(\n            _account,\n            msg.sender,\n            _nombre,\n            _comorb,\n            _groupBlood,\n            _ipfsHash,\n            _uploadDate\n        );\n        _success = true;\n    }\n\n    /**\n    * @notice Returns el estudio en el ndice del propietario de la direccin.\n    * @dev Controlado por el switch\n    * @param _account The owner address\n    * @return _uploadDate The uploaded timestamp\n    */\n    function viewRecord(address _account, uint256 _uploadDate) public nonlyStopped onlyPatient returns (\n        string memory nombre,\n        string memory comorb,\n        string memory groupBlood,\n        string memory ipfsHash) {\n        if (isPatient(msg.sender)) {\n            require(msg.sender == _account);\n        }\n        if (isMedic(msg.sender)) {\n            require(msg.sender != _account);\n        }\n        require(_account != 0x0000000000000000000000000000000000000000);\n        require(_uploadDate >= 0 && _uploadDate <= 2**256 - 1);\n        require(fileToPatient[_account].length > 0);\n\n        uint256 _queryDate = now;\n        uint256 len = getRecordCount(_account);\n        Estudio memory estudio;\n\n        for (uint256 i = 0; i < len; i++) {\n            estudio = fileToPatient[_account][i];\n            if (estudio.uploadDate == _uploadDate) {\n                break;\n            }\n        }\n\n        emit RecordRetrieve(\n            _account,\n            msg.sender,\n            estudio.nombre,\n            estudio.comorb,\n            estudio.groupBlood,\n            estudio.ipfsHash,\n            estudio.uploadDate,\n            _queryDate\n        );\n        nombre = estudio.nombre;\n        comorb = estudio.comorb;\n        groupBlood = estudio.groupBlood;\n        ipfsHash = estudio.ipfsHash;\n    }\n\n    /**\n    * @notice Returns el estudio en el ndice del propietario de la direccin.\n    * @dev Controlado por el switch\n    * @param _account Cuenta del paciente\n    * @return _ipfsHash The IPFS hash\n    */\n    function updateRecord(\n        address _account,\n        string memory _nombre,\n        string memory _comorb,\n        string memory _groupBlood,\n        string memory _ipfsHash,\n        uint256 _uploadDate)\n    public nonlyStopped onlyMedic returns (bool _success) {\n        require(_account != 0x0000000000000000000000000000000000000000);\n        require(bytes(_nombre).length < 128);\n        require(bytes(_comorb).length < 512);\n        require(bytes(_groupBlood).length < 8);\n        require(bytes(_ipfsHash).length == 46);\n        require(_uploadDate >= 0 && _uploadDate <= 2**256 - 1);\n        require(fileToPatient[_account].length > 0);\n\n        uint256 _queryDate = now;\n        uint256 len = getRecordCount(_account);\n        Estudio memory estudio;\n        for (uint256 i = 0; i < len; i++) {\n            estudio = fileToPatient[_account][i];\n            if (estudio.uploadDate == _uploadDate) {\n                break;\n            }\n        }\n\n        estudio.nombre = _nombre;\n        estudio.comorb = _comorb;\n        estudio.groupBlood = _groupBlood;\n        estudio.ipfsHash = _ipfsHash;\n        estudio.uploadDate = _uploadDate;\n\n        emit RecordUpdate(\n            _account,\n            msg.sender,\n            estudio.nombre,\n            estudio.comorb,\n            estudio.groupBlood,\n            estudio.ipfsHash,\n            estudio.uploadDate,\n            _queryDate\n        );\n        _success = true;\n    }\n\n    /**\n    * @notice Returns el estudio en el ndice del propietario de la direccin.\n    * @dev Controlado por el switch\n    * @param _account The owner address\n    * @return _uploadDate The uploaded timestamp\n    */\n    function deleteRecord(address _account, uint256 _uploadDate) public nonlyStopped onlyMedic returns (bool _success) {\n        require(_account != 0x0000000000000000000000000000000000000000);\n        require(_uploadDate >= 0 && _uploadDate <= 2**256 - 1);\n        require(fileToPatient[_account].length > 0);\n\n        uint256 _queryDate = now;\n        uint256 len = getRecordCount(_account);\n\n        for (uint256 i = 0; i < len; i++) {\n            if (fileToPatient[_account][i].uploadDate == _uploadDate) {\n                emit RecordDelete(\n                    _account,\n                    msg.sender,\n                    fileToPatient[_account][i].ipfsHash,\n                    _queryDate\n                );\n                delete fileToPatient[_account][i];\n                break;\n            }\n        }\n        _success = true;\n    }\n\n    /**\n    * @notice Retorna el nmero de Estudios que posee cierta direccin de paciente.\n    * @dev Controlado por el switch\n    * @param _patient El dueo de la direccin\n    * @return Retorna el nmero de estudios de cierto paciente\n    */\n    function getRecordCount(address _patient) internal view nonlyStopped returns (uint256) {\n        require(_patient != 0x0000000000000000000000000000000000000000);\n        return fileToPatient[_patient].length;\n    }\n}\n",
  "sourcePath": "/home/seno/Maestra/Distribuidos/Backend/backend/contracts/PatientRecords.sol",
  "compiler": {
    "name": "solc",
    "version": "0.5.16+commit.9c3226ce.Emscripten.clang"
  },
  "schemaVersion": "3.0.23",
  "updatedAt": "2020-03-29T22:46:21.935Z",
  "networkType": "ethereum",
  "devdoc": {
    "author": "Adrin Constante",
    "details": "El contrato hereda las funciones del contrato de roles",
    "methods": {
      "addAdmin(address)": {
        "details": "Funcin pblica para asignar admin",
        "params": {
          "account": "Cuenta que ser asignada como admin"
        }
      },
      "addMedic(address)": {
        "details": "Funcin pblica para asignar mdico",
        "params": {
          "account": "Cuenta que ser asignada como mdico"
        }
      },
      "addPatient(address)": {
        "details": "Funcin pblica para asignar paciente",
        "params": {
          "account": "Cuenta que ser asignada como paciente"
        }
      },
      "addRecord(address,string,string,string,string)": {
        "details": "Funcin de creacin de Estudio. Esta funcin es realizada por un doctor.",
        "params": {
          "_account": "a",
          "_comorb": "a",
          "_groupBlood": "a",
          "_ipfsHash": "a",
          "_nombre": "a"
        },
        "return": "_success a"
      },
      "deleteRecord(address,uint256)": {
        "details": "Controlado por el switch",
        "params": {
          "_account": "The owner address"
        },
        "return": "_uploadDate The uploaded timestamp"
      },
      "emergencyStop(bool)": {
        "params": {
          "_stop": "Switch del contrado de encendido/apagado"
        }
      },
      "isAdmin(address)": {
        "params": {
          "account": "Cuenta donde se validar el rol."
        },
        "return": "true si la cuenta tiene rol de admin"
      },
      "isMedic(address)": {
        "params": {
          "account": "Cuenta donde se validar el rol."
        },
        "return": "true si la cuenta tiene rol de mdico"
      },
      "isPatient(address)": {
        "params": {
          "account": "Cuenta donde se validar el rol."
        },
        "return": "true si la cuenta tiene rol de paciente"
      },
      "removeMedic(address)": {
        "details": "Funcin pblica para remover mdico",
        "params": {
          "account": "Cuenta que ser removida de mdico"
        }
      },
      "removePatient(address)": {
        "details": "Remover a rol de paciente. Quien invoque al contrato no volver a ser paciente."
      },
      "renounceAdmin()": {
        "details": "Renunciar a rol de administrador. Quien inque al contrato no volver a ser admin."
      },
      "renounceMedic()": {
        "details": "Renunciar a rol de personal mdico. Quien invoque al contrato no volver a ser mdico."
      },
      "updateRecord(address,string,string,string,string,uint256)": {
        "details": "Controlado por el switch",
        "params": {
          "_account": "Cuenta del paciente"
        },
        "return": "_ipfsHash The IPFS hash"
      },
      "viewRecord(address,uint256)": {
        "details": "Controlado por el switch",
        "params": {
          "_account": "The owner address"
        },
        "return": "_uploadDate The uploaded timestamp"
      }
    },
    "title": "Smart Contract de Historial de pacientes - Control de Estudio basado en rol."
  },
  "userdoc": {
    "methods": {
      "deleteRecord(address,uint256)": {
        "notice": "Returns el estudio en el ndice del propietario de la direccin."
      },
      "emergencyStop(bool)": {
        "notice": "Pausar el contrato Se detiene el contrato bajo ciertas condiciones. Sera til cuando nuevos errores sean descubiertos."
      },
      "updateRecord(address,string,string,string,string,uint256)": {
        "notice": "Returns el estudio en el ndice del propietario de la direccin."
      },
      "viewRecord(address,uint256)": {
        "notice": "Returns el estudio en el ndice del propietario de la direccin."
      }
    },
    "notice": "Este contrato representa el registro de un Estudio asociado a una persona.Debido a las limitaciones de almacenamiento, los Estudio serl almacenados en IPFS. El hash IPFS generado por el archivo en conjunto con metadatos del paciente sern almacenados en la blockchain."
  }
}