{
  "contractName": "PatientDiagnosis",
  "abi": [
    {
      "anonymous": false,
      "inputs": [
        {
          "indexed": true,
          "internalType": "address",
          "name": "newAdm",
          "type": "address"
        },
        {
          "indexed": true,
          "internalType": "address",
          "name": "whoAddedAdm",
          "type": "address"
        }
      ],
      "name": "AdminAdded",
      "type": "event"
    },
    {
      "anonymous": false,
      "inputs": [
        {
          "indexed": true,
          "internalType": "address",
          "name": "accountRen",
          "type": "address"
        }
      ],
      "name": "AdminRenounce",
      "type": "event"
    },
    {
      "anonymous": false,
      "inputs": [
        {
          "indexed": true,
          "internalType": "address",
          "name": "newAssistant",
          "type": "address"
        },
        {
          "indexed": true,
          "internalType": "address",
          "name": "whoAddedAssistant",
          "type": "address"
        }
      ],
      "name": "AssistantAdded",
      "type": "event"
    },
    {
      "anonymous": false,
      "inputs": [
        {
          "indexed": true,
          "internalType": "address",
          "name": "oldAssistant",
          "type": "address"
        },
        {
          "indexed": true,
          "internalType": "address",
          "name": "whoRemovedAssistant",
          "type": "address"
        }
      ],
      "name": "AssistantRemoved",
      "type": "event"
    },
    {
      "anonymous": false,
      "inputs": [
        {
          "indexed": true,
          "internalType": "address",
          "name": "_patient",
          "type": "address"
        },
        {
          "indexed": true,
          "internalType": "address",
          "name": "_medic",
          "type": "address"
        },
        {
          "indexed": false,
          "internalType": "string",
          "name": "_nombre",
          "type": "string"
        },
        {
          "indexed": false,
          "internalType": "string",
          "name": "_aPat",
          "type": "string"
        },
        {
          "indexed": false,
          "internalType": "string",
          "name": "_aMat",
          "type": "string"
        },
        {
          "indexed": false,
          "internalType": "string",
          "name": "_comorb",
          "type": "string"
        },
        {
          "indexed": false,
          "internalType": "uint256",
          "name": "_age",
          "type": "uint256"
        },
        {
          "indexed": false,
          "internalType": "uint256",
          "name": "_weight",
          "type": "uint256"
        },
        {
          "indexed": false,
          "internalType": "string",
          "name": "_diagnostic",
          "type": "string"
        },
        {
          "indexed": false,
          "internalType": "string",
          "name": "_observations",
          "type": "string"
        }
      ],
      "name": "DiagnosisUpdate",
      "type": "event"
    },
    {
      "anonymous": false,
      "inputs": [
        {
          "indexed": true,
          "internalType": "address",
          "name": "_patient",
          "type": "address"
        },
        {
          "indexed": true,
          "internalType": "address",
          "name": "_medic",
          "type": "address"
        },
        {
          "indexed": false,
          "internalType": "uint256",
          "name": "_date",
          "type": "uint256"
        }
      ],
      "name": "DiagnosticDelete",
      "type": "event"
    },
    {
      "anonymous": false,
      "inputs": [
        {
          "indexed": true,
          "internalType": "address",
          "name": "_patient",
          "type": "address"
        },
        {
          "indexed": true,
          "internalType": "address",
          "name": "_medic",
          "type": "address"
        },
        {
          "indexed": false,
          "internalType": "string",
          "name": "_nombre",
          "type": "string"
        },
        {
          "indexed": false,
          "internalType": "string",
          "name": "_aPat",
          "type": "string"
        },
        {
          "indexed": false,
          "internalType": "string",
          "name": "_aMat",
          "type": "string"
        },
        {
          "indexed": false,
          "internalType": "string",
          "name": "_comorb",
          "type": "string"
        },
        {
          "indexed": false,
          "internalType": "uint256",
          "name": "_age",
          "type": "uint256"
        },
        {
          "indexed": false,
          "internalType": "uint256",
          "name": "_weight",
          "type": "uint256"
        },
        {
          "indexed": false,
          "internalType": "string",
          "name": "_diagnostic",
          "type": "string"
        },
        {
          "indexed": false,
          "internalType": "string",
          "name": "_observations",
          "type": "string"
        }
      ],
      "name": "DiagnosticRetrieve",
      "type": "event"
    },
    {
      "anonymous": false,
      "inputs": [
        {
          "indexed": true,
          "internalType": "address",
          "name": "_patient",
          "type": "address"
        },
        {
          "indexed": true,
          "internalType": "address",
          "name": "_medic",
          "type": "address"
        },
        {
          "indexed": false,
          "internalType": "string",
          "name": "_nombre",
          "type": "string"
        },
        {
          "indexed": false,
          "internalType": "string",
          "name": "_aPat",
          "type": "string"
        },
        {
          "indexed": false,
          "internalType": "string",
          "name": "_aMat",
          "type": "string"
        },
        {
          "indexed": false,
          "internalType": "string",
          "name": "_comorb",
          "type": "string"
        },
        {
          "indexed": false,
          "internalType": "uint256",
          "name": "_age",
          "type": "uint256"
        },
        {
          "indexed": false,
          "internalType": "uint256",
          "name": "_weight",
          "type": "uint256"
        },
        {
          "indexed": false,
          "internalType": "string",
          "name": "_diagnostic",
          "type": "string"
        },
        {
          "indexed": false,
          "internalType": "string",
          "name": "_observations",
          "type": "string"
        }
      ],
      "name": "DiagnosticdAdded",
      "type": "event"
    },
    {
      "anonymous": false,
      "inputs": [
        {
          "indexed": true,
          "internalType": "address",
          "name": "_admin",
          "type": "address"
        },
        {
          "indexed": false,
          "internalType": "bool",
          "name": "_stop",
          "type": "bool"
        }
      ],
      "name": "LogSwitchStop",
      "type": "event"
    },
    {
      "anonymous": false,
      "inputs": [
        {
          "indexed": true,
          "internalType": "address",
          "name": "newMed",
          "type": "address"
        },
        {
          "indexed": true,
          "internalType": "address",
          "name": "whoAddedMed",
          "type": "address"
        }
      ],
      "name": "MedicAdded",
      "type": "event"
    },
    {
      "anonymous": false,
      "inputs": [
        {
          "indexed": true,
          "internalType": "address",
          "name": "oldMed",
          "type": "address"
        },
        {
          "indexed": true,
          "internalType": "address",
          "name": "whoRemovedMed",
          "type": "address"
        }
      ],
      "name": "MedicRemoved",
      "type": "event"
    },
    {
      "anonymous": false,
      "inputs": [
        {
          "indexed": true,
          "internalType": "address",
          "name": "medRen",
          "type": "address"
        }
      ],
      "name": "MedicRenounce",
      "type": "event"
    },
    {
      "anonymous": false,
      "inputs": [
        {
          "indexed": true,
          "internalType": "address",
          "name": "newPat",
          "type": "address"
        },
        {
          "indexed": true,
          "internalType": "address",
          "name": "whoAddedPat",
          "type": "address"
        }
      ],
      "name": "PatientAdded",
      "type": "event"
    },
    {
      "anonymous": false,
      "inputs": [
        {
          "indexed": true,
          "internalType": "address",
          "name": "oldPat",
          "type": "address"
        },
        {
          "indexed": true,
          "internalType": "address",
          "name": "whoRemovedPat",
          "type": "address"
        }
      ],
      "name": "PatientRemoved",
      "type": "event"
    },
    {
      "anonymous": false,
      "inputs": [
        {
          "indexed": true,
          "internalType": "address",
          "name": "_patient",
          "type": "address"
        },
        {
          "indexed": true,
          "internalType": "address",
          "name": "_medic",
          "type": "address"
        },
        {
          "indexed": false,
          "internalType": "string",
          "name": "_ipfsHash",
          "type": "string"
        }
      ],
      "name": "RecordAdded",
      "type": "event"
    },
    {
      "anonymous": false,
      "inputs": [
        {
          "indexed": true,
          "internalType": "address",
          "name": "_patient",
          "type": "address"
        },
        {
          "indexed": true,
          "internalType": "address",
          "name": "_medic",
          "type": "address"
        },
        {
          "indexed": false,
          "internalType": "string",
          "name": "_ipfsHash",
          "type": "string"
        }
      ],
      "name": "RecordDelete",
      "type": "event"
    },
    {
      "anonymous": false,
      "inputs": [
        {
          "indexed": true,
          "internalType": "address",
          "name": "_patient",
          "type": "address"
        },
        {
          "indexed": true,
          "internalType": "address",
          "name": "_medic",
          "type": "address"
        },
        {
          "indexed": false,
          "internalType": "string",
          "name": "_descript",
          "type": "string"
        },
        {
          "indexed": false,
          "internalType": "uint256",
          "name": "_uploadDate",
          "type": "uint256"
        }
      ],
      "name": "RecordRetrieve",
      "type": "event"
    },
    {
      "anonymous": false,
      "inputs": [
        {
          "indexed": true,
          "internalType": "address",
          "name": "_patient",
          "type": "address"
        },
        {
          "indexed": true,
          "internalType": "address",
          "name": "_medic",
          "type": "address"
        },
        {
          "indexed": false,
          "internalType": "string",
          "name": "_descript",
          "type": "string"
        }
      ],
      "name": "RecordUpdate",
      "type": "event"
    },
    {
      "payable": false,
      "stateMutability": "nonpayable",
      "type": "fallback"
    },
    {
      "constant": false,
      "inputs": [
        {
          "internalType": "address",
          "name": "account",
          "type": "address"
        }
      ],
      "name": "addAdmin",
      "outputs": [],
      "payable": false,
      "stateMutability": "nonpayable",
      "type": "function"
    },
    {
      "constant": false,
      "inputs": [
        {
          "internalType": "address",
          "name": "account",
          "type": "address"
        }
      ],
      "name": "addAssistant",
      "outputs": [],
      "payable": false,
      "stateMutability": "nonpayable",
      "type": "function"
    },
    {
      "constant": false,
      "inputs": [
        {
          "internalType": "address",
          "name": "account",
          "type": "address"
        }
      ],
      "name": "addMedic",
      "outputs": [],
      "payable": false,
      "stateMutability": "nonpayable",
      "type": "function"
    },
    {
      "constant": false,
      "inputs": [
        {
          "internalType": "address",
          "name": "account",
          "type": "address"
        }
      ],
      "name": "addPatient",
      "outputs": [],
      "payable": false,
      "stateMutability": "nonpayable",
      "type": "function"
    },
    {
      "constant": false,
      "inputs": [
        {
          "internalType": "address",
          "name": "_account",
          "type": "address"
        },
        {
          "internalType": "string",
          "name": "_descript",
          "type": "string"
        },
        {
          "internalType": "string",
          "name": "_ipfsHash",
          "type": "string"
        }
      ],
      "name": "addRecord",
      "outputs": [
        {
          "internalType": "bool",
          "name": "_success",
          "type": "bool"
        }
      ],
      "payable": false,
      "stateMutability": "nonpayable",
      "type": "function"
    },
    {
      "constant": false,
      "inputs": [
        {
          "internalType": "address",
          "name": "_account",
          "type": "address"
        },
        {
          "internalType": "string",
          "name": "_ipfsHash",
          "type": "string"
        }
      ],
      "name": "deleteRecord",
      "outputs": [
        {
          "internalType": "bool",
          "name": "_success",
          "type": "bool"
        }
      ],
      "payable": false,
      "stateMutability": "nonpayable",
      "type": "function"
    },
    {
      "constant": true,
      "inputs": [
        {
          "internalType": "address",
          "name": "",
          "type": "address"
        },
        {
          "internalType": "uint256",
          "name": "",
          "type": "uint256"
        }
      ],
      "name": "fileToPatientDiagnosis",
      "outputs": [
        {
          "internalType": "string",
          "name": "nombre",
          "type": "string"
        },
        {
          "internalType": "string",
          "name": "aPat",
          "type": "string"
        },
        {
          "internalType": "string",
          "name": "aMat",
          "type": "string"
        },
        {
          "internalType": "string",
          "name": "comorb",
          "type": "string"
        },
        {
          "internalType": "uint256",
          "name": "age",
          "type": "uint256"
        },
        {
          "internalType": "uint256",
          "name": "weight",
          "type": "uint256"
        },
        {
          "internalType": "string",
          "name": "diagnostic",
          "type": "string"
        },
        {
          "internalType": "string",
          "name": "observations",
          "type": "string"
        }
      ],
      "payable": false,
      "stateMutability": "view",
      "type": "function"
    },
    {
      "constant": true,
      "inputs": [
        {
          "internalType": "address",
          "name": "account",
          "type": "address"
        }
      ],
      "name": "isAdmin",
      "outputs": [
        {
          "internalType": "bool",
          "name": "",
          "type": "bool"
        }
      ],
      "payable": false,
      "stateMutability": "view",
      "type": "function"
    },
    {
      "constant": true,
      "inputs": [
        {
          "internalType": "address",
          "name": "account",
          "type": "address"
        }
      ],
      "name": "isAssistant",
      "outputs": [
        {
          "internalType": "bool",
          "name": "",
          "type": "bool"
        }
      ],
      "payable": false,
      "stateMutability": "view",
      "type": "function"
    },
    {
      "constant": true,
      "inputs": [
        {
          "internalType": "address",
          "name": "account",
          "type": "address"
        }
      ],
      "name": "isMedic",
      "outputs": [
        {
          "internalType": "bool",
          "name": "",
          "type": "bool"
        }
      ],
      "payable": false,
      "stateMutability": "view",
      "type": "function"
    },
    {
      "constant": true,
      "inputs": [
        {
          "internalType": "address",
          "name": "account",
          "type": "address"
        }
      ],
      "name": "isPatient",
      "outputs": [
        {
          "internalType": "bool",
          "name": "",
          "type": "bool"
        }
      ],
      "payable": false,
      "stateMutability": "view",
      "type": "function"
    },
    {
      "constant": false,
      "inputs": [
        {
          "internalType": "address",
          "name": "account",
          "type": "address"
        }
      ],
      "name": "removeAssistant",
      "outputs": [],
      "payable": false,
      "stateMutability": "nonpayable",
      "type": "function"
    },
    {
      "constant": false,
      "inputs": [
        {
          "internalType": "address",
          "name": "account",
          "type": "address"
        }
      ],
      "name": "removeMedic",
      "outputs": [],
      "payable": false,
      "stateMutability": "nonpayable",
      "type": "function"
    },
    {
      "constant": false,
      "inputs": [
        {
          "internalType": "address",
          "name": "account",
          "type": "address"
        }
      ],
      "name": "removePatient",
      "outputs": [],
      "payable": false,
      "stateMutability": "nonpayable",
      "type": "function"
    },
    {
      "constant": false,
      "inputs": [],
      "name": "renounceAdmin",
      "outputs": [],
      "payable": false,
      "stateMutability": "nonpayable",
      "type": "function"
    },
    {
      "constant": false,
      "inputs": [],
      "name": "renounceMedic",
      "outputs": [],
      "payable": false,
      "stateMutability": "nonpayable",
      "type": "function"
    },
    {
      "constant": false,
      "inputs": [
        {
          "internalType": "address",
          "name": "_account",
          "type": "address"
        },
        {
          "internalType": "string",
          "name": "_descript",
          "type": "string"
        },
        {
          "internalType": "string",
          "name": "_ipfsHash",
          "type": "string"
        }
      ],
      "name": "updateRecord",
      "outputs": [
        {
          "internalType": "bool",
          "name": "_success",
          "type": "bool"
        }
      ],
      "payable": false,
      "stateMutability": "nonpayable",
      "type": "function"
    },
    {
      "constant": false,
      "inputs": [
        {
          "internalType": "address",
          "name": "_account",
          "type": "address"
        },
        {
          "internalType": "string",
          "name": "_ipfsHash",
          "type": "string"
        }
      ],
      "name": "viewRecords",
      "outputs": [
        {
          "internalType": "string",
          "name": "_descript",
          "type": "string"
        },
        {
          "internalType": "uint256",
          "name": "_uploadDate",
          "type": "uint256"
        }
      ],
      "payable": false,
      "stateMutability": "nonpayable",
      "type": "function"
    },
    {
      "constant": false,
      "inputs": [
        {
          "internalType": "bool",
          "name": "_stop",
          "type": "bool"
        }
      ],
      "name": "emergencyStop",
      "outputs": [],
      "payable": false,
      "stateMutability": "nonpayable",
      "type": "function"
    },
    {
      "constant": true,
      "inputs": [
        {
          "internalType": "address",
          "name": "_account",
          "type": "address"
        },
        {
          "internalType": "uint256",
          "name": "_timeStamp",
          "type": "uint256"
        }
      ],
      "name": "patientDiagnosis",
      "outputs": [
        {
          "components": [
            {
              "internalType": "string",
              "name": "nombre",
              "type": "string"
            },
            {
              "internalType": "string",
              "name": "aPat",
              "type": "string"
            },
            {
              "internalType": "string",
              "name": "aMat",
              "type": "string"
            },
            {
              "internalType": "string",
              "name": "comorb",
              "type": "string"
            },
            {
              "internalType": "uint256",
              "name": "age",
              "type": "uint256"
            },
            {
              "internalType": "uint256",
              "name": "weight",
              "type": "uint256"
            },
            {
              "internalType": "string",
              "name": "diagnostic",
              "type": "string"
            },
            {
              "internalType": "string",
              "name": "observations",
              "type": "string"
            },
            {
              "internalType": "string[]",
              "name": "estudio",
              "type": "string[]"
            }
          ],
          "internalType": "struct PatientDiagnosis.Diagnostico",
          "name": "",
          "type": "tuple"
        }
      ],
      "payable": false,
      "stateMutability": "view",
      "type": "function"
    },
    {
      "constant": false,
      "inputs": [
        {
          "internalType": "address",
          "name": "_account",
          "type": "address"
        },
        {
          "internalType": "string",
          "name": "_nombre",
          "type": "string"
        },
        {
          "internalType": "string",
          "name": "_aPat",
          "type": "string"
        },
        {
          "internalType": "string",
          "name": "_aMat",
          "type": "string"
        },
        {
          "internalType": "string",
          "name": "_comorb",
          "type": "string"
        },
        {
          "internalType": "uint256",
          "name": "_age",
          "type": "uint256"
        },
        {
          "internalType": "uint256",
          "name": "_weight",
          "type": "uint256"
        },
        {
          "internalType": "string",
          "name": "_diagnostic",
          "type": "string"
        },
        {
          "internalType": "string",
          "name": "_observations",
          "type": "string"
        },
        {
          "internalType": "string[]",
          "name": "_estudio",
          "type": "string[]"
        }
      ],
      "name": "addDiagnostic",
      "outputs": [
        {
          "internalType": "bool",
          "name": "_success",
          "type": "bool"
        }
      ],
      "payable": false,
      "stateMutability": "nonpayable",
      "type": "function"
    },
    {
      "constant": false,
      "inputs": [
        {
          "internalType": "address",
          "name": "_account",
          "type": "address"
        },
        {
          "internalType": "string",
          "name": "_nombre",
          "type": "string"
        },
        {
          "internalType": "string",
          "name": "_aPat",
          "type": "string"
        },
        {
          "internalType": "string",
          "name": "_aMat",
          "type": "string"
        },
        {
          "internalType": "string",
          "name": "_comorb",
          "type": "string"
        },
        {
          "internalType": "uint256",
          "name": "_age",
          "type": "uint256"
        },
        {
          "internalType": "uint256",
          "name": "_weight",
          "type": "uint256"
        },
        {
          "internalType": "string",
          "name": "_diagnostic",
          "type": "string"
        },
        {
          "internalType": "string",
          "name": "_observations",
          "type": "string"
        },
        {
          "internalType": "string[]",
          "name": "_estudio",
          "type": "string[]"
        },
        {
          "internalType": "uint256",
          "name": "_date",
          "type": "uint256"
        }
      ],
      "name": "updateDiagnostic",
      "outputs": [
        {
          "internalType": "bool",
          "name": "_success",
          "type": "bool"
        }
      ],
      "payable": false,
      "stateMutability": "nonpayable",
      "type": "function"
    },
    {
      "constant": false,
      "inputs": [
        {
          "internalType": "address",
          "name": "_account",
          "type": "address"
        },
        {
          "internalType": "uint256",
          "name": "_date",
          "type": "uint256"
        }
      ],
      "name": "viewDiagnostic",
      "outputs": [
        {
          "internalType": "string",
          "name": "_nombre",
          "type": "string"
        },
        {
          "internalType": "string",
          "name": "_aPat",
          "type": "string"
        },
        {
          "internalType": "string",
          "name": "_aMat",
          "type": "string"
        },
        {
          "internalType": "string",
          "name": "_comorb",
          "type": "string"
        },
        {
          "internalType": "uint256",
          "name": "_age",
          "type": "uint256"
        },
        {
          "internalType": "uint256",
          "name": "_weight",
          "type": "uint256"
        },
        {
          "internalType": "string",
          "name": "_diagnostic",
          "type": "string"
        },
        {
          "internalType": "string",
          "name": "_observations",
          "type": "string"
        },
        {
          "internalType": "string[]",
          "name": "_estudio",
          "type": "string[]"
        }
      ],
      "payable": false,
      "stateMutability": "nonpayable",
      "type": "function"
    },
    {
      "constant": false,
      "inputs": [
        {
          "internalType": "address",
          "name": "_account",
          "type": "address"
        },
        {
          "internalType": "uint256",
          "name": "_date",
          "type": "uint256"
        }
      ],
      "name": "deleteDiagnostic",
      "outputs": [
        {
          "internalType": "bool",
          "name": "_success",
          "type": "bool"
        }
      ],
      "payable": false,
      "stateMutability": "nonpayable",
      "type": "function"
    }
  ],
  "bytecode": "0x60806040526000600560006101000a81548160ff0219169083151502179055506000600760006101000a81548160ff0219169083151502179055506200004b336200005160201b60201c565b62000346565b6200006c816000620000c960201b620028471790919060201c565b3373ffffffffffffffffffffffffffffffffffffffff168173ffffffffffffffffffffffffffffffffffffffff167fbf3f493c772c8c283fd124432c2d0f539ab343faa04258fe88e52912d36b102b60405160405180910390a350565b620000db82826200017c60201b60201c565b156200011e576040517f08c379a00000000000000000000000000000000000000000000000000000000081526004016200011590620002f1565b60405180910390fd5b60018260000160008373ffffffffffffffffffffffffffffffffffffffff1673ffffffffffffffffffffffffffffffffffffffff16815260200190815260200160002060006101000a81548160ff0219169083151502179055505050565b60008073ffffffffffffffffffffffffffffffffffffffff168273ffffffffffffffffffffffffffffffffffffffff161415620001f0576040517f08c379a0000000000000000000000000000000000000000000000000000000008152600401620001e79062000313565b60405180910390fd5b8260000160008373ffffffffffffffffffffffffffffffffffffffff1673ffffffffffffffffffffffffffffffffffffffff16815260200190815260200160002060009054906101000a900460ff16905092915050565b600062000256601f8362000335565b91507f526f6c65733a206163636f756e7420616c72656164792068617320726f6c65006000830152602082019050919050565b60006200029860228362000335565b91507f526f6c65733a206163636f756e7420697320746865207a65726f20616464726560008301527f73730000000000000000000000000000000000000000000000000000000000006020830152604082019050919050565b600060208201905081810360008301526200030c8162000247565b9050919050565b600060208201905081810360008301526200032e8162000289565b9050919050565b600082825260208201905092915050565b613ce680620003566000396000f3fe608060405234801561001057600080fd5b50600436106101585760003560e01c80637d0d6257116100c3578063b0397ff81161007c578063b0397ff814610406578063b8792f0b14610422578063c6584bb81461043e578063d47b41d51461046e578063e67fd0e01461049e578063eae3ef8a146104ce57610158565b80637d0d6257146103205780638bad0c0a1461033c5780638c406f2e146103465780638f9c79ed14610376578063a1f23f19146103a6578063abc5151d146103d657610158565b80635995fd00116101155780635995fd001461024f5780635c11b70f146102805780635c8b67df146102b05780636d263ceb146102cc57806370480275146102e85780637d01dbc21461030457610158565b80630ac62e021461015a5780631c712b6c146101765780631e7b4621146101ae57806324d7806c146101de57806333dc0abd1461020e5780634e0581f414610218575b005b610174600480360361016f919081019061309d565b6104fe565b005b610190600480360361018b9190810190613061565b6105b1565b6040516101a59998979695949392919061377e565b60405180910390f35b6101c860048036036101c39190810190612ec9565b610829565b6040516101d59190613677565b60405180910390f35b6101f860048036036101f39190810190612c4a565b610a8f565b6040516102059190613677565b60405180910390f35b610216610aac565b005b610232600480360361022d9190810190613061565b610aff565b60405161024698979695949392919061386c565b60405180910390f35b61026960048036036102649190810190612c73565b610ee4565b60405161027792919061383c565b60405180910390f35b61029a60048036036102959190810190613061565b611106565b6040516102a79190613a24565b60405180910390f35b6102ca60048036036102c59190810190612c4a565b61163b565b005b6102e660048036036102e19190810190612c4a565b61168f565b005b61030260048036036102fd9190810190612c4a565b6116f3565b005b61031e60048036036103199190810190612c4a565b611747565b005b61033a60048036036103359190810190612c4a565b61179b565b005b6103446117ef565b005b610360600480360361035b9190810190612c73565b6117fa565b60405161036d9190613677565b60405180910390f35b610390600480360361038b9190810190612c4a565b61194e565b60405161039d9190613677565b60405180910390f35b6103c060048036036103bb9190810190612cc7565b61196b565b6040516103cd9190613677565b60405180910390f35b6103f060048036036103eb9190810190612d46565b611b83565b6040516103fd9190613677565b60405180910390f35b610420600480360361041b9190810190612c4a565b611ebf565b005b61043c60048036036104379190810190612c4a565b611f13565b005b61045860048036036104539190810190612c4a565b611f67565b6040516104659190613677565b60405180910390f35b61048860048036036104839190810190612cc7565b611f84565b6040516104959190613677565b60405180910390f35b6104b860048036036104b39190810190613061565b612130565b6040516104c59190613677565b60405180910390f35b6104e860048036036104e39190810190612c4a565b61234a565b6040516104f59190613677565b60405180910390f35b61050733610a8f565b610546576040517f08c379a000000000000000000000000000000000000000000000000000000000815260040161053d906139e4565b60405180910390fd5b80600760006101000a81548160ff0219169083151502179055503373ffffffffffffffffffffffffffffffffffffffff167f58b15338e6499b2b2827d169f60332c3b4b476fcd06b9a3c7e37afa77c49228e826040516105a69190613677565b60405180910390a250565b6060806060806000806060806060600760009054906101000a900460ff16156105d957600080fd5b6105e23361194e565b806105f257506105f13361234a565b5b610631576040517f08c379a000000000000000000000000000000000000000000000000000000000815260040161062890613a04565b60405180910390fd5b61063a3361194e565b15610678578a73ffffffffffffffffffffffffffffffffffffffff163373ffffffffffffffffffffffffffffffffffffffff161461067757600080fd5b5b6106813361234a565b156106c0578a73ffffffffffffffffffffffffffffffffffffffff163373ffffffffffffffffffffffffffffffffffffffff1614156106bf57600080fd5b5b600073ffffffffffffffffffffffffffffffffffffffff168b73ffffffffffffffffffffffffffffffffffffffff1614156106fa57600080fd5b60008a1015801561072b57507fffffffffffffffffffffffffffffffffffffffffffffffffffffffffffffffff8a11155b61073457600080fd5b61073c6128ef565b6107468c8c611106565b90503373ffffffffffffffffffffffffffffffffffffffff168c73ffffffffffffffffffffffffffffffffffffffff167fb1bdf45da452b457a3dba4f78c0f49e6a8ef9281a11b57b00e9895b615de9bd1836000015184602001518560400151866060015187608001518860a001518960c001518a60e001516040516107d398979695949392919061386c565b60405180910390a380600001519950806020015198508060400151975080606001519650806080015195508060a0015194508060c0015193508060e0015192508061010001519150509295985092959850929598565b6000600760009054906101000a900460ff161561084557600080fd5b61084e3361234a565b61088d576040517f08c379a000000000000000000000000000000000000000000000000000000000815260040161088490613984565b60405180910390fd5b600073ffffffffffffffffffffffffffffffffffffffff168c73ffffffffffffffffffffffffffffffffffffffff1614156108c757600080fd5b60198b51106108d557600080fd5b60198a51106108e357600080fd5b60198951106108f157600080fd5b61010088511061090057600080fd5b6078871061090d57600080fd5b6102bc861061091b57600080fd5b603285511061092957600080fd5b61020084511061093857600080fd5b6000821015801561096957507fffffffffffffffffffffffffffffffffffffffffffffffffffffffffffffffff8211155b61097257600080fd5b600083511161098057600080fd5b6109886128ef565b6109928d84611106565b90508b81600001819052508a816020018190525089816040018190525088816060018190525087816080018181525050868160a0018181525050858160c00181905250848160e00181905250838161010001819052503373ffffffffffffffffffffffffffffffffffffffff168d73ffffffffffffffffffffffffffffffffffffffff167f0547703b415672550919d03f043e65aa58e12afff471ed9917b0b64d227912e0836000015184602001518560400151866060015187608001518860a001518960c001518a60e00151604051610a7398979695949392919061386c565b60405180910390a360019150509b9a5050505050505050505050565b6000610aa582600061236790919063ffffffff16565b9050919050565b610ab53361234a565b610af4576040517f08c379a0000000000000000000000000000000000000000000000000000000008152600401610aeb90613984565b60405180910390fd5b610afd3361242f565b565b600660205281600052604060002060205280600052604060002060009150915050806000018054600181600116156101000203166002900480601f016020809104026020016040519081016040528092919081815260200182805460018160011615610100020316600290048015610bb85780601f10610b8d57610100808354040283529160200191610bb8565b820191906000526020600020905b815481529060010190602001808311610b9b57829003601f168201915b505050505090806001018054600181600116156101000203166002900480601f016020809104026020016040519081016040528092919081815260200182805460018160011615610100020316600290048015610c565780601f10610c2b57610100808354040283529160200191610c56565b820191906000526020600020905b815481529060010190602001808311610c3957829003601f168201915b505050505090806002018054600181600116156101000203166002900480601f016020809104026020016040519081016040528092919081815260200182805460018160011615610100020316600290048015610cf45780601f10610cc957610100808354040283529160200191610cf4565b820191906000526020600020905b815481529060010190602001808311610cd757829003601f168201915b505050505090806003018054600181600116156101000203166002900480601f016020809104026020016040519081016040528092919081815260200182805460018160011615610100020316600290048015610d925780601f10610d6757610100808354040283529160200191610d92565b820191906000526020600020905b815481529060010190602001808311610d7557829003601f168201915b505050505090806004015490806005015490806006018054600181600116156101000203166002900480601f016020809104026020016040519081016040528092919081815260200182805460018160011615610100020316600290048015610e3c5780601f10610e1157610100808354040283529160200191610e3c565b820191906000526020600020905b815481529060010190602001808311610e1f57829003601f168201915b505050505090806007018054600181600116156101000203166002900480601f016020809104026020016040519081016040528092919081815260200182805460018160011615610100020316600290048015610eda5780601f10610eaf57610100808354040283529160200191610eda565b820191906000526020600020905b815481529060010190602001808311610ebd57829003601f168201915b5050505050905088565b60606000600760009054906101000a900460ff1615610f0257600080fd5b610f0b3361194e565b80610f1b5750610f1a3361234a565b5b610f5a576040517f08c379a0000000000000000000000000000000000000000000000000000000008152600401610f5190613a04565b60405180910390fd5b600073ffffffffffffffffffffffffffffffffffffffff168473ffffffffffffffffffffffffffffffffffffffff161415610f9457600080fd5b602e835114610fa257600080fd5b610faa61293b565b600484604051610fba9190613660565b9081526020016040518091039020604051806040016040529081600082018054600181600116156101000203166002900480601f01602080910402602001604051908101604052809291908181526020018280546001816001161561010002031660029004801561106c5780601f106110415761010080835404028352916020019161106c565b820191906000526020600020905b81548152906001019060200180831161104f57829003601f168201915b5050505050815260200160018201548152505090503373ffffffffffffffffffffffffffffffffffffffff168573ffffffffffffffffffffffffffffffffffffffff167f4ee0bf4d8ed0ec027f6654b0ba0995ae922f70b4f3bdbc0ff59c0a7dbd5491c6836000015184602001516040516110e8929190613914565b60405180910390a38060000151925080602001519150509250929050565b61110e6128ef565b600660008473ffffffffffffffffffffffffffffffffffffffff1673ffffffffffffffffffffffffffffffffffffffff168152602001908152602001600020600083815260200190815260200160002060405180610120016040529081600082018054600181600116156101000203166002900480601f0160208091040260200160405190810160405280929190818152602001828054600181600116156101000203166002900480156112035780601f106111d857610100808354040283529160200191611203565b820191906000526020600020905b8154815290600101906020018083116111e657829003601f168201915b50505050508152602001600182018054600181600116156101000203166002900480601f0160208091040260200160405190810160405280929190818152602001828054600181600116156101000203166002900480156112a55780601f1061127a576101008083540402835291602001916112a5565b820191906000526020600020905b81548152906001019060200180831161128857829003601f168201915b50505050508152602001600282018054600181600116156101000203166002900480601f0160208091040260200160405190810160405280929190818152602001828054600181600116156101000203166002900480156113475780601f1061131c57610100808354040283529160200191611347565b820191906000526020600020905b81548152906001019060200180831161132a57829003601f168201915b50505050508152602001600382018054600181600116156101000203166002900480601f0160208091040260200160405190810160405280929190818152602001828054600181600116156101000203166002900480156113e95780601f106113be576101008083540402835291602001916113e9565b820191906000526020600020905b8154815290600101906020018083116113cc57829003601f168201915b505050505081526020016004820154815260200160058201548152602001600682018054600181600116156101000203166002900480601f01602080910402602001604051908101604052809291908181526020018280546001816001161561010002031660029004801561149f5780601f106114745761010080835404028352916020019161149f565b820191906000526020600020905b81548152906001019060200180831161148257829003601f168201915b50505050508152602001600782018054600181600116156101000203166002900480601f0160208091040260200160405190810160405280929190818152602001828054600181600116156101000203166002900480156115415780601f1061151657610100808354040283529160200191611541565b820191906000526020600020905b81548152906001019060200180831161152457829003601f168201915b5050505050815260200160088201805480602002602001604051908101604052809291908181526020016000905b8282101561162b578382906000526020600020018054600181600116156101000203166002900480601f0160208091040260200160405190810160405280929190818152602001828054600181600116156101000203166002900480156116175780601f106115ec57610100808354040283529160200191611617565b820191906000526020600020905b8154815290600101906020018083116115fa57829003601f168201915b50505050508152602001906001019061156f565b5050505081525050905092915050565b61164433610a8f565b611683576040517f08c379a000000000000000000000000000000000000000000000000000000000815260040161167a906139e4565b60405180910390fd5b61168c816124a0565b50565b61169833611f67565b806116a857506116a73361234a565b5b6116e7576040517f08c379a00000000000000000000000000000000000000000000000000000000081526004016116de90613964565b60405180910390fd5b6116f081612511565b50565b6116fc33610a8f565b61173b576040517f08c379a0000000000000000000000000000000000000000000000000000000008152600401611732906139e4565b60405180910390fd5b61174481612582565b50565b61175033610a8f565b61178f576040517f08c379a0000000000000000000000000000000000000000000000000000000008152600401611786906139e4565b60405180910390fd5b6117988161242f565b50565b6117a43361234a565b6117e3576040517f08c379a00000000000000000000000000000000000000000000000000000000081526004016117da90613984565b60405180910390fd5b6117ec816125f3565b50565b6117f833612664565b565b6000600760009054906101000a900460ff161561181657600080fd5b61181f3361234a565b61185e576040517f08c379a000000000000000000000000000000000000000000000000000000000815260040161185590613984565b60405180910390fd5b600073ffffffffffffffffffffffffffffffffffffffff168373ffffffffffffffffffffffffffffffffffffffff16141561189857600080fd5b602e8251146118a657600080fd5b6004826040516118b69190613660565b9081526020016040518091039020600080820160006118d59190612955565b600182016000905550503373ffffffffffffffffffffffffffffffffffffffff168373ffffffffffffffffffffffffffffffffffffffff167f9c676f11f477f126926ac2bc49046b7a599e258a4f198776caa2644fce3cd7c68460405161193c91906136b4565b60405180910390a36001905092915050565b600061196482600261236790919063ffffffff16565b9050919050565b6000600760009054906101000a900460ff161561198757600080fd5b6119903361234a565b6119cf576040517f08c379a00000000000000000000000000000000000000000000000000000000081526004016119c690613984565b60405180910390fd5b600073ffffffffffffffffffffffffffffffffffffffff168473ffffffffffffffffffffffffffffffffffffffff161415611a0957600080fd5b610100835110611a1857600080fd5b602e825114611a2657600080fd5b611a2e61293b565b600483604051611a3e9190613660565b9081526020016040518091039020604051806040016040529081600082018054600181600116156101000203166002900480601f016020809104026020016040519081016040528092919081815260200182805460018160011615610100020316600290048015611af05780601f10611ac557610100808354040283529160200191611af0565b820191906000526020600020905b815481529060010190602001808311611ad357829003601f168201915b5050505050815260200160018201548152505090508381600001819052503373ffffffffffffffffffffffffffffffffffffffff168573ffffffffffffffffffffffffffffffffffffffff167f87a983619f6316fe3e7ce828f67913b1a1048bf0b29304e3722f250644b049818360000151604051611b6f9190613692565b60405180910390a360019150509392505050565b6000600760009054906101000a900460ff1615611b9f57600080fd5b611ba83361234a565b611be7576040517f08c379a0000000000000000000000000000000000000000000000000000000008152600401611bde90613984565b60405180910390fd5b600073ffffffffffffffffffffffffffffffffffffffff168b73ffffffffffffffffffffffffffffffffffffffff161415611c2157600080fd5b611c2a8b61194e565b8015611c3b5750611c3a3361234a565b5b611c4457600080fd5b60198a5110611c5257600080fd5b6019895110611c6057600080fd5b6019885110611c6e57600080fd5b6032875110611c7c57600080fd5b60788610611c8957600080fd5b6102bc8510611c9757600080fd5b610100845110611ca657600080fd5b610200835110611cb557600080fd5b6000429050611cc26128ef565b6040518061012001604052808d81526020018c81526020018b81526020018a815260200189815260200188815260200187815260200186815260200185815250905080600660008f73ffffffffffffffffffffffffffffffffffffffff1673ffffffffffffffffffffffffffffffffffffffff16815260200190815260200160002060008481526020019081526020016000206000820151816000019080519060200190611d7192919061299d565b506020820151816001019080519060200190611d8e92919061299d565b506040820151816002019080519060200190611dab92919061299d565b506060820151816003019080519060200190611dc892919061299d565b506080820151816004015560a0820151816005015560c0820151816006019080519060200190611df992919061299d565b5060e0820151816007019080519060200190611e1692919061299d565b50610100820151816008019080519060200190611e34929190612a1d565b509050503373ffffffffffffffffffffffffffffffffffffffff168d73ffffffffffffffffffffffffffffffffffffffff167feb392a0f351e3cc6e4adc6f3498ae2764e65ccc62cff40bb3041514c687b5ed28e8e8e8e8e8e8e8e604051611ea39897969594939291906136d6565b60405180910390a36001925050509a9950505050505050505050565b611ec833610a8f565b611f07576040517f08c379a0000000000000000000000000000000000000000000000000000000008152600401611efe906139e4565b60405180910390fd5b611f10816126be565b50565b611f1c33610a8f565b611f5b576040517f08c379a0000000000000000000000000000000000000000000000000000000008152600401611f52906139e4565b60405180910390fd5b611f648161272f565b50565b6000611f7d82600361236790919063ffffffff16565b9050919050565b6000600760009054906101000a900460ff1615611fa057600080fd5b611fa93361234a565b611fe8576040517f08c379a0000000000000000000000000000000000000000000000000000000008152600401611fdf90613984565b60405180910390fd5b600073ffffffffffffffffffffffffffffffffffffffff168473ffffffffffffffffffffffffffffffffffffffff16141561202257600080fd5b61202b8461194e565b61203457600080fd5b61010083511061204357600080fd5b602e82511461205157600080fd5b600042905061205e61293b565b6040518060400160405280868152602001838152509050806004856040516120869190613660565b908152602001604051809103902060008201518160000190805190602001906120b092919061299d565b50602082015181600101559050503373ffffffffffffffffffffffffffffffffffffffff168673ffffffffffffffffffffffffffffffffffffffff167f977dc7867dd6fb513af3d4bb11f4457a5052487f13412788530b454c0b7dfa2c8660405161211b91906136b4565b60405180910390a36001925050509392505050565b6000600760009054906101000a900460ff161561214c57600080fd5b6121553361234a565b612194576040517f08c379a000000000000000000000000000000000000000000000000000000000815260040161218b90613984565b60405180910390fd5b600073ffffffffffffffffffffffffffffffffffffffff168373ffffffffffffffffffffffffffffffffffffffff1614156121ce57600080fd5b600082101580156121ff57507fffffffffffffffffffffffffffffffffffffffffffffffffffffffffffffffff8211155b61220857600080fd5b600660008473ffffffffffffffffffffffffffffffffffffffff1673ffffffffffffffffffffffffffffffffffffffff1681526020019081526020016000206000838152602001908152602001600020600080820160006122699190612955565b6001820160006122799190612955565b6002820160006122899190612955565b6003820160006122999190612955565b600482016000905560058201600090556006820160006122b99190612955565b6007820160006122c99190612955565b6008820160006122d99190612a7d565b50503373ffffffffffffffffffffffffffffffffffffffff168373ffffffffffffffffffffffffffffffffffffffff167f7c7588a2bfe6e9d3c0acb5a62b93b9cb012ba9a6de37d69a1f4c1067b0cfa530846040516123389190613a46565b60405180910390a36001905092915050565b600061236082600161236790919063ffffffff16565b9050919050565b60008073ffffffffffffffffffffffffffffffffffffffff168273ffffffffffffffffffffffffffffffffffffffff1614156123d8576040517f08c379a00000000000000000000000000000000000000000000000000000000081526004016123cf906139c4565b60405180910390fd5b8260000160008373ffffffffffffffffffffffffffffffffffffffff1673ffffffffffffffffffffffffffffffffffffffff16815260200190815260200160002060009054906101000a900460ff16905092915050565b6124438160016127a090919063ffffffff16565b3373ffffffffffffffffffffffffffffffffffffffff168173ffffffffffffffffffffffffffffffffffffffff167fb35968fdda9034197de288afbe8a2947dedade83d7dbc0de3e340d4f62ce64dc60405160405180910390a350565b6124b481600361284790919063ffffffff16565b3373ffffffffffffffffffffffffffffffffffffffff168173ffffffffffffffffffffffffffffffffffffffff167f7fef988ea6e2f03c1f9fb16df333b2a7911dfb096f5c563866713c1c9517ec7060405160405180910390a350565b61252581600261284790919063ffffffff16565b3373ffffffffffffffffffffffffffffffffffffffff168173ffffffffffffffffffffffffffffffffffffffff167ff6dfb9f71429364456283a1521c30cc400d799d7b381d7ce164687f11c18dbaf60405160405180910390a350565b61259681600061284790919063ffffffff16565b3373ffffffffffffffffffffffffffffffffffffffff168173ffffffffffffffffffffffffffffffffffffffff167fbf3f493c772c8c283fd124432c2d0f539ab343faa04258fe88e52912d36b102b60405160405180910390a350565b6126078160026127a090919063ffffffff16565b3373ffffffffffffffffffffffffffffffffffffffff168173ffffffffffffffffffffffffffffffffffffffff167fd00481c3fc5867ec74704c9c99334b8d53c7735c947bdcb6cbebcae6740ed94060405160405180910390a350565b6126788160006127a090919063ffffffff16565b8073ffffffffffffffffffffffffffffffffffffffff167f583e7032182b053f2bcd5e3ac78021a3c8d321735043ee84032742c9a6528afd60405160405180910390a250565b6126d281600161284790919063ffffffff16565b3373ffffffffffffffffffffffffffffffffffffffff168173ffffffffffffffffffffffffffffffffffffffff167f93b0ab94930bbad064296971ea5e731f84ae511662781bcaf28543ab9042368a60405160405180910390a350565b6127438160036127a090919063ffffffff16565b3373ffffffffffffffffffffffffffffffffffffffff168173ffffffffffffffffffffffffffffffffffffffff167f83bb2e314d2b42b828b2082c5f08a3b9162d6322fe9b8bdaa47dc3d26ce183af60405160405180910390a350565b6127aa8282612367565b6127e9576040517f08c379a00000000000000000000000000000000000000000000000000000000081526004016127e0906139a4565b60405180910390fd5b60008260000160008373ffffffffffffffffffffffffffffffffffffffff1673ffffffffffffffffffffffffffffffffffffffff16815260200190815260200160002060006101000a81548160ff0219169083151502179055505050565b6128518282612367565b15612891576040517f08c379a000000000000000000000000000000000000000000000000000000000815260040161288890613944565b60405180910390fd5b60018260000160008373ffffffffffffffffffffffffffffffffffffffff1673ffffffffffffffffffffffffffffffffffffffff16815260200190815260200160002060006101000a81548160ff0219169083151502179055505050565b6040518061012001604052806060815260200160608152602001606081526020016060815260200160008152602001600081526020016060815260200160608152602001606081525090565b604051806040016040528060608152602001600081525090565b50805460018160011615610100020316600290046000825580601f1061297b575061299a565b601f0160209004906000526020600020908101906129999190612a9e565b5b50565b828054600181600116156101000203166002900490600052602060002090601f016020900481019282601f106129de57805160ff1916838001178555612a0c565b82800160010185558215612a0c579182015b82811115612a0b5782518255916020019190600101906129f0565b5b509050612a199190612a9e565b5090565b828054828255906000526020600020908101928215612a6c579160200282015b82811115612a6b578251829080519060200190612a5b92919061299d565b5091602001919060010190612a3d565b5b509050612a799190612ac3565b5090565b5080546000825590600052602060002090810190612a9b9190612ac3565b50565b612ac091905b80821115612abc576000816000905550600101612aa4565b5090565b90565b612aec91905b80821115612ae85760008181612adf9190612955565b50600101612ac9565b5090565b90565b600081359050612afe81613c5e565b92915050565b600082601f830112612b1557600080fd5b8135612b28612b2382613a8e565b613a61565b9150818183526020840193506020810190508360005b83811015612b6e5781358601612b548882612b8d565b845260208401935060208301925050600181019050612b3e565b5050505092915050565b600081359050612b8781613c75565b92915050565b600082601f830112612b9e57600080fd5b8135612bb1612bac82613ab6565b613a61565b91508082526020830160208301858383011115612bcd57600080fd5b612bd8838284613c0b565b50505092915050565b600082601f830112612bf257600080fd5b8135612c05612c0082613ae2565b613a61565b91508082526020830160208301858383011115612c2157600080fd5b612c2c838284613c0b565b50505092915050565b600081359050612c4481613c8c565b92915050565b600060208284031215612c5c57600080fd5b6000612c6a84828501612aef565b91505092915050565b60008060408385031215612c8657600080fd5b6000612c9485828601612aef565b925050602083013567ffffffffffffffff811115612cb157600080fd5b612cbd85828601612be1565b9150509250929050565b600080600060608486031215612cdc57600080fd5b6000612cea86828701612aef565b935050602084013567ffffffffffffffff811115612d0757600080fd5b612d1386828701612be1565b925050604084013567ffffffffffffffff811115612d3057600080fd5b612d3c86828701612be1565b9150509250925092565b6000806000806000806000806000806101408b8d031215612d6657600080fd5b6000612d748d828e01612aef565b9a505060208b013567ffffffffffffffff811115612d9157600080fd5b612d9d8d828e01612be1565b99505060408b013567ffffffffffffffff811115612dba57600080fd5b612dc68d828e01612be1565b98505060608b013567ffffffffffffffff811115612de357600080fd5b612def8d828e01612be1565b97505060808b013567ffffffffffffffff811115612e0c57600080fd5b612e188d828e01612be1565b96505060a0612e298d828e01612c35565b95505060c0612e3a8d828e01612c35565b94505060e08b013567ffffffffffffffff811115612e5757600080fd5b612e638d828e01612be1565b9350506101008b013567ffffffffffffffff811115612e8157600080fd5b612e8d8d828e01612be1565b9250506101208b013567ffffffffffffffff811115612eab57600080fd5b612eb78d828e01612b04565b9150509295989b9194979a5092959850565b60008060008060008060008060008060006101608c8e031215612eeb57600080fd5b6000612ef98e828f01612aef565b9b505060208c013567ffffffffffffffff811115612f1657600080fd5b612f228e828f01612be1565b9a505060408c013567ffffffffffffffff811115612f3f57600080fd5b612f4b8e828f01612be1565b99505060608c013567ffffffffffffffff811115612f6857600080fd5b612f748e828f01612be1565b98505060808c013567ffffffffffffffff811115612f9157600080fd5b612f9d8e828f01612be1565b97505060a0612fae8e828f01612c35565b96505060c0612fbf8e828f01612c35565b95505060e08c013567ffffffffffffffff811115612fdc57600080fd5b612fe88e828f01612be1565b9450506101008c013567ffffffffffffffff81111561300657600080fd5b6130128e828f01612be1565b9350506101208c013567ffffffffffffffff81111561303057600080fd5b61303c8e828f01612b04565b92505061014061304e8e828f01612c35565b9150509295989b509295989b9093969950565b6000806040838503121561307457600080fd5b600061308285828601612aef565b925050602061309385828601612c35565b9150509250929050565b6000602082840312156130af57600080fd5b60006130bd84828501612b78565b91505092915050565b60006130d2838361323d565b905092915050565b60006130e582613b39565b6130ef8185613b85565b93508360208202850161310185613b1e565b8060005b8581101561313d578484038952815161311e85826130c6565b945061312983613b67565b925060208a01995050600181019050613105565b50829750879550505050505092915050565b600061315a82613b2e565b6131648185613b74565b93508360208202850161317685613b0e565b8060005b858110156131b2578484038952815161319385826130c6565b945061319e83613b5a565b925060208a0199505060018101905061317a565b50829750879550505050505092915050565b6131cd81613bd5565b82525050565b60006131de82613b4f565b6131e88185613ba7565b93506131f8818560208601613c1a565b61320181613c4d565b840191505092915050565b600061321782613b4f565b6132218185613bb8565b9350613231818560208601613c1a565b80840191505092915050565b600061324882613b44565b6132528185613b96565b9350613262818560208601613c1a565b61326b81613c4d565b840191505092915050565b600061328182613b44565b61328b8185613ba7565b935061329b818560208601613c1a565b6132a481613c4d565b840191505092915050565b60006132bc601f83613ba7565b91507f526f6c65733a206163636f756e7420616c72656164792068617320726f6c65006000830152602082019050919050565b60006132fc603983613ba7565b91507f4e6f207365206375656e746120636f6e20656c20726f6c20657370656369666960008301527f6361646f284173697374656e7465206f206dc3a96469636f29000000000000006020830152604082019050919050565b6000613362602d83613ba7565b91507f4e6f207365206375656e746120636f6e20656c20726f6c20657370656369666960008301527f6361646f284dc3a96469636f29000000000000000000000000000000000000006020830152604082019050919050565b60006133c8602183613ba7565b91507f526f6c65733a206163636f756e7420646f6573206e6f74206861766520726f6c60008301527f65000000000000000000000000000000000000000000000000000000000000006020830152604082019050919050565b600061342e602283613ba7565b91507f526f6c65733a206163636f756e7420697320746865207a65726f20616464726560008301527f73730000000000000000000000000000000000000000000000000000000000006020830152604082019050919050565b6000613494602b83613ba7565b91507f4e6f207365206375656e746120636f6e20656c20726f6c20657370656369666960008301527f6361646f2841646d696e290000000000000000000000000000000000000000006020830152604082019050919050565b60006134fa603883613ba7565b91507f4e6f207365206375656e746120636f6e20656c20726f6c20657370656369666960008301527f6361646f2850616369656e7465206f206dc3a96469636f2900000000000000006020830152604082019050919050565b6000610120830160008301518482036000860152613571828261323d565b9150506020830151848203602086015261358b828261323d565b915050604083015184820360408601526135a5828261323d565b915050606083015184820360608601526135bf828261323d565b91505060808301516135d46080860182613642565b5060a08301516135e760a0860182613642565b5060c083015184820360c08601526135ff828261323d565b91505060e083015184820360e0860152613619828261323d565b915050610100830151848203610100860152613635828261314f565b9150508091505092915050565b61364b81613c01565b82525050565b61365a81613c01565b82525050565b600061366c828461320c565b915081905092915050565b600060208201905061368c60008301846131c4565b92915050565b600060208201905081810360008301526136ac8184613276565b905092915050565b600060208201905081810360008301526136ce81846131d3565b905092915050565b60006101008201905081810360008301526136f1818b6131d3565b90508181036020830152613705818a6131d3565b9050818103604083015261371981896131d3565b9050818103606083015261372d81886131d3565b905061373c6080830187613651565b61374960a0830186613651565b81810360c083015261375b81856131d3565b905081810360e083015261376f81846131d3565b90509998505050505050505050565b6000610120820190508181036000830152613799818c6131d3565b905081810360208301526137ad818b6131d3565b905081810360408301526137c1818a6131d3565b905081810360608301526137d581896131d3565b90506137e46080830188613651565b6137f160a0830187613651565b81810360c083015261380381866131d3565b905081810360e083015261381781856131d3565b905081810361010083015261382c81846130da565b90509a9950505050505050505050565b6000604082019050818103600083015261385681856131d3565b90506138656020830184613651565b9392505050565b6000610100820190508181036000830152613887818b613276565b9050818103602083015261389b818a613276565b905081810360408301526138af8189613276565b905081810360608301526138c38188613276565b90506138d26080830187613651565b6138df60a0830186613651565b81810360c08301526138f18185613276565b905081810360e08301526139058184613276565b90509998505050505050505050565b6000604082019050818103600083015261392e8185613276565b905061393d6020830184613651565b9392505050565b6000602082019050818103600083015261395d816132af565b9050919050565b6000602082019050818103600083015261397d816132ef565b9050919050565b6000602082019050818103600083015261399d81613355565b9050919050565b600060208201905081810360008301526139bd816133bb565b9050919050565b600060208201905081810360008301526139dd81613421565b9050919050565b600060208201905081810360008301526139fd81613487565b9050919050565b60006020820190508181036000830152613a1d816134ed565b9050919050565b60006020820190508181036000830152613a3e8184613553565b905092915050565b6000602082019050613a5b6000830184613651565b92915050565b6000604051905081810181811067ffffffffffffffff82111715613a8457600080fd5b8060405250919050565b600067ffffffffffffffff821115613aa557600080fd5b602082029050602081019050919050565b600067ffffffffffffffff821115613acd57600080fd5b601f19601f8301169050602081019050919050565b600067ffffffffffffffff821115613af957600080fd5b601f19601f8301169050602081019050919050565b6000819050602082019050919050565b6000819050602082019050919050565b600081519050919050565b600081519050919050565b600081519050919050565b600081519050919050565b6000602082019050919050565b6000602082019050919050565b600082825260208201905092915050565b600082825260208201905092915050565b600082825260208201905092915050565b600082825260208201905092915050565b600081905092915050565b6000613bce82613be1565b9050919050565b60008115159050919050565b600073ffffffffffffffffffffffffffffffffffffffff82169050919050565b6000819050919050565b82818337600083830152505050565b60005b83811015613c38578082015181840152602081019050613c1d565b83811115613c47576000848401525b50505050565b6000601f19601f8301169050919050565b613c6781613bc3565b8114613c7257600080fd5b50565b613c7e81613bd5565b8114613c8957600080fd5b50565b613c9581613c01565b8114613ca057600080fd5b5056fea365627a7a7231582038f1d999549557587e5a73bb1f88eaaad173a6c69617d7ec187c0203bdb715336c6578706572696d656e74616cf564736f6c63430005100040",
  "source": "pragma solidity ^0.5.16;\npragma experimental ABIEncoderV2;\n\nimport \"./PatientRecords.sol\";\n\n/**\n * @title Smart Contract de Diagnstico de pacientes - Control de Diagnstico realizado por el mdico.\n * @author Francisco Alemn\n * @notice Este contrato representa el registro de un Diagnstico asociado a una persona.\n * @dev El contrato hereda las funciones del contrato de roles\n */\n\ncontract PatientDiagnosis is PatientRecords {\n\n    /**\n     * @title Representa un Dignostico el cual le pertenece a un paciente.\n     */\n    struct Diagnostico {\n        string nombre;\n        string aPat;\n        string aMat;\n        string comorb;\n        uint256 age;\n        uint256 weight;\n        string diagnostic;\n        string observations;\n        string[] estudio;\n    }\n\n    /**\n     * @notice Mapea el paciente a su diagnstico..\n     */\n    mapping (address => mapping (uint256 => Diagnostico)) public fileToPatientDiagnosis;\n\n    /**\n     * @notice Patrn de switch para encender/apagar\n     */\n    bool private stopped = false;\n\n    /**\n     * @dev Eventos que sern registrados en la blockchain.\n     */\n    event DiagnosticdAdded(\n        address indexed _patient,\n        address indexed _medic,\n        string _nombre,\n        string _aPat,\n        string _aMat,\n        string _comorb,\n        uint256 _age,\n        uint256 _weight,\n        string _diagnostic,\n        string _observations\n        );\n\n    event DiagnosisUpdate(\n        address indexed _patient,\n        address indexed _medic,\n        string _nombre,\n        string _aPat,\n        string _aMat,\n        string _comorb,\n        uint256 _age,\n        uint256 _weight,\n        string _diagnostic,\n        string _observations\n        );\n\n    event DiagnosticRetrieve(\n        address indexed _patient,\n        address indexed _medic,\n        string _nombre,\n        string _aPat,\n        string _aMat,\n        string _comorb,\n        uint256 _age,\n        uint256 _weight,\n        string _diagnostic,\n        string  _observations\n        );\n\n    event DiagnosticDelete(\n        address indexed _patient,\n        address indexed _medic,\n        uint256 _date\n        );\n\n    /**\n    * @dev Indica que se ha puesto el contrato en pausa.\n    * @param _admin Un administrador\n    * @param _stop Indica cuando hay una pausa o una reanudacin.\n    */\n    event LogSwitchStop(\n        address indexed _admin,\n        bool _stop\n    );\n\n    /**\n    * @dev Previene de ejecucin del contrato\n    */\n    modifier nonlyStopped {\n        require(!stopped);\n        _;\n    }\n\n    /**\n    * @dev Est funcin ser llamada para todos los mensajes que sean enviados a este contrado.\n    * Enviar Ether a este contrato ocasionar una excepcin, dado que las funciones no tienen un modificador de pago.\n    */\n    function() external {}\n\n    /**\n    * @notice Pausar el contrato\n    * Se detiene el contrato bajo ciertas condiciones.\n    * Sera til cuando nuevos errores sean descubiertos.\n    * @param _stop Switch del contrado de encendido/apagado\n    */\n    function emergencyStop(bool _stop) public onlyAdmin {\n        stopped = _stop;\n        emit LogSwitchStop(msg.sender, _stop);\n    }\n\n    function patientDiagnosis(address _account, uint256 _timeStamp) public view returns (Diagnostico memory) {\n        return fileToPatientDiagnosis[_account][_timeStamp];\n    }\n\n    /**\n   * @dev Funcin de creacin de Diagnstico. Esta funcin es realizada por un doctor.\n   * @param _account a\n   * @param _age a\n   * @param _weight a\n   * @param _diagnostic a\n   * @param _observations a\n   *@param _date a\n   * @return _success a\n   */\n    function addDiagnostic(\n        address _account,\n        string memory _nombre,\n        string memory _aPat,\n        string memory _aMat,\n        string memory _comorb,\n        uint256 _age,\n        uint256 _weight,\n        string memory _diagnostic,\n        string memory _observations,\n        string[] memory _estudio\n        )\n    public nonlyStopped onlyMedic returns (bool _success) {\n        require(_account != address(0));\n        require(isPatient(_account) && isMedic(msg.sender));\n        require(bytes(_nombre).length < 25);\n        require(bytes(_aPat).length < 25);\n        require(bytes(_aMat).length < 25);\n        require(bytes(_comorb).length < 50);\n        require(_age < 120);\n        require(_weight < 700);\n        require(bytes(_diagnostic).length < 256);\n        require(bytes(_observations).length < 512);\n\n        uint256 _date = now;\n        Diagnostico memory diagnostico = Diagnostico(\n            _nombre,\n            _aPat,\n            _aMat,\n            _comorb,\n            _age,\n            _weight,\n            _diagnostic,\n            _observations,\n            _estudio\n        );\n\n        fileToPatientDiagnosis[_account][_date] = diagnostico;\n\n        emit DiagnosticdAdded(\n            _account,\n            msg.sender,\n            _nombre,\n            _aPat,\n            _aMat,\n            _comorb,\n            _age,\n            _weight,\n            _diagnostic,\n            _observations\n        );\n        _success = true;\n    }\n\n    /**\n    * @notice Returns el Diagnstico en el ndice del propietario de la direccin.\n    * @dev Controlado por el switch\n    * @param _account Cuenta del paciente\n    */\n    function updateDiagnostic(\n        address _account,\n        string memory _nombre,\n        string memory _aPat,\n        string memory _aMat,\n        string memory _comorb,\n        uint256 _age,\n        uint256 _weight,\n        string memory _diagnostic,\n        string memory _observations,\n        string[] memory _estudio,\n        uint256 _date\n        )\n    public nonlyStopped onlyMedic returns (bool _success) {\n        require(_account != address(0));\n        require(bytes(_nombre).length < 25);\n        require(bytes(_aPat).length < 25);\n        require(bytes(_aMat).length < 25);\n        require(bytes(_comorb).length < 256);\n        require(_age < 120);\n        require(_weight < 700);\n        require(bytes(_diagnostic).length < 50);\n        require(bytes(_observations).length < 512);\n        require(_date >= 0 && _date <= 2**256 - 1);\n        //require(fileToPatientDiagnosis[_account][_date] != 0);\n        require(_estudio.length > 0);\n\n        Diagnostico memory diagnostico = patientDiagnosis(_account, _date);\n\n        diagnostico.nombre = _nombre;\n        diagnostico.aPat = _aPat;\n        diagnostico.aMat = _aMat;\n        diagnostico.comorb = _comorb;\n        diagnostico.age = _age;\n        diagnostico.weight = _weight;\n        diagnostico.diagnostic = _diagnostic;\n        diagnostico.observations = _observations;\n        diagnostico.estudio = _estudio;\n\n        emit DiagnosisUpdate(\n            _account,\n            msg.sender,\n            diagnostico.nombre,\n            diagnostico.aPat,\n            diagnostico.aMat,\n            diagnostico.comorb,\n            diagnostico.age,\n            diagnostico.weight,\n            diagnostico.diagnostic,\n            diagnostico.observations\n        );\n        _success = true;\n    }\n\n    /**\n    * @notice Returns el Diagnstico en el ndice del propietario de la direccin.\n    * @dev Controlado por el switch\n    * @param _account The owner address\n    * @return _date The uploaded timestamp\n    */\n    function viewDiagnostic(address _account, uint256 _date) public nonlyStopped onlyPatient returns (\n        string memory _nombre,\n        string memory _aPat,\n        string memory _aMat,\n        string memory _comorb,\n        uint256 _age,\n        uint256 _weight,\n        string memory _diagnostic,\n        string memory _observations,\n        string[] memory _estudio\n        ) {\n        if (isPatient(msg.sender)) {\n            require(msg.sender == _account);\n        }\n        if (isMedic(msg.sender)) {\n            require(msg.sender != _account);\n        }\n        require(_account != address(0));\n        require(_date >= 0 && _date <= 2**256 - 1);\n        //require(fileToPatientDiagnosis[_account][_date] != false);\n\n        Diagnostico memory diagnostico = patientDiagnosis(_account, _date);\n\n        emit DiagnosticRetrieve(\n            _account,\n            msg.sender,\n            diagnostico.nombre,\n            diagnostico.aPat,\n            diagnostico.aMat,\n            diagnostico.comorb,\n            diagnostico.age,\n            diagnostico.weight,\n            diagnostico.diagnostic,\n            diagnostico.observations\n        );\n        _nombre = diagnostico.nombre;\n        _aPat = diagnostico.aPat;\n        _aMat = diagnostico.aMat;\n        _comorb = diagnostico.comorb;\n        _age = diagnostico.age;\n        _weight = diagnostico.weight;\n        _diagnostic = diagnostico.diagnostic;\n        _observations = diagnostico.observations;\n        _estudio = diagnostico.estudio;\n    }\n\n    /**\n    * @notice Returns el estudio en el ndice del propietario de la direccin.\n    * @dev Controlado por el switch\n    * @param _account The owner address\n    * @return _uploadDate The uploaded timestamp\n    */\n    function deleteDiagnostic(address _account, uint256 _date) public nonlyStopped onlyMedic returns (bool _success) {\n        require(_account != address(0));\n        require(_date >= 0 && _date <= 2**256 - 1);\n        //require(fileToPatientDiagnosis[_account][_date] != false);\n\n        delete fileToPatientDiagnosis[_account][_date];\n\n        emit DiagnosticDelete(\n            _account,\n            msg.sender,\n            _date\n        );\n        _success = true;\n    }\n\n}\n",
  "sourcePath": "/home/seno/Maestra/Distribuidos/Backend/backend/contracts/PatientDiagnosis.sol",
  "compiler": {
    "name": "solc",
    "version": "0.5.16+commit.9c3226ce.Emscripten.clang"
  },
  "schemaVersion": "3.0.23",
  "updatedAt": "2020-04-15T12:18:04.673Z",
  "devdoc": {
    "author": "Francisco Alemn",
    "details": "El contrato hereda las funciones del contrato de roles",
    "methods": {
      "addAdmin(address)": {
        "details": "Funcin pblica para asignar admin",
        "params": {
          "account": "Cuenta que ser asignada como admin"
        }
      },
      "addAssistant(address)": {
        "details": "Funcin pblica para asignar asistente",
        "params": {
          "account": "Cuenta que ser asignada como asistente"
        }
      },
      "addDiagnostic(address,string,string,string,string,uint256,uint256,string,string,string[])": {
        "details": "Funcin de creacin de Diagnstico. Esta funcin es realizada por un doctor.",
        "params": {
          "_account": "a",
          "_age": "a",
          "_diagnostic": "a",
          "_observations": "a param _date a",
          "_weight": "a"
        },
        "return": "_success a"
      },
      "addMedic(address)": {
        "details": "Funcin pblica para asignar mdico",
        "params": {
          "account": "Cuenta que ser asignada como mdico"
        }
      },
      "addPatient(address)": {
        "details": "Funcin pblica para asignar paciente",
        "params": {
          "account": "Cuenta que ser asignada como paciente"
        }
      },
      "addRecord(address,string,string)": {
        "details": "Funcin de creacin de Estudio. Esta funcin es realizada por un doctor.",
        "params": {
          "_account": "a",
          "_ipfsHash": "a"
        },
        "return": "_success a"
      },
      "deleteDiagnostic(address,uint256)": {
        "details": "Controlado por el switch",
        "params": {
          "_account": "The owner address"
        },
        "return": "_uploadDate The uploaded timestamp"
      },
      "deleteRecord(address,string)": {
        "details": "Controlado por el switch",
        "params": {
          "_account": "The owner address"
        },
        "return": "_uploadDate The uploaded timestamp"
      },
      "emergencyStop(bool)": {
        "params": {
          "_stop": "Switch del contrado de encendido/apagado"
        }
      },
      "isAdmin(address)": {
        "params": {
          "account": "Cuenta donde se validar el rol."
        },
        "return": "true si la cuenta tiene rol de admin"
      },
      "isAssistant(address)": {
        "params": {
          "account": "Cuenta donde se validar el rol."
        },
        "return": "true si la cuenta tiene rol de asistente"
      },
      "isMedic(address)": {
        "params": {
          "account": "Cuenta donde se validar el rol."
        },
        "return": "true si la cuenta tiene rol de mdico"
      },
      "isPatient(address)": {
        "params": {
          "account": "Cuenta donde se validar el rol."
        },
        "return": "true si la cuenta tiene rol de paciente"
      },
      "removeAssistant(address)": {
        "details": "Remover a rol de asistente. Quien invoque al contrato no volver a ser asistente."
      },
      "removeMedic(address)": {
        "details": "Funcin pblica para remover mdico",
        "params": {
          "account": "Cuenta que ser removida de mdico"
        }
      },
      "removePatient(address)": {
        "details": "Remover a rol de paciente. Quien invoque al contrato no volver a ser paciente."
      },
      "renounceAdmin()": {
        "details": "Renunciar a rol de administrador. Quien inque al contrato no volver a ser admin."
      },
      "renounceMedic()": {
        "details": "Renunciar a rol de personal mdico. Quien invoque al contrato no volver a ser mdico."
      },
      "updateDiagnostic(address,string,string,string,string,uint256,uint256,string,string,string[],uint256)": {
        "details": "Controlado por el switch",
        "params": {
          "_account": "Cuenta del paciente"
        }
      },
      "updateRecord(address,string,string)": {
        "details": "Controlado por el switch",
        "params": {
          "_account": "Cuenta del paciente"
        },
        "return": "_ipfsHash The IPFS hash"
      },
      "viewDiagnostic(address,uint256)": {
        "details": "Controlado por el switch",
        "params": {
          "_account": "The owner address"
        },
        "return": "_date The uploaded timestamp"
      },
      "viewRecords(address,string)": {
        "details": "Controlado por el switch",
        "params": {
          "_account": "The owner address"
        },
        "return": "_uploadDate The uploaded timestamp"
      }
    },
    "title": "Smart Contract de Diagnstico de pacientes - Control de Diagnstico realizado por el mdico."
  },
  "userdoc": {
    "methods": {
      "deleteDiagnostic(address,uint256)": {
        "notice": "Returns el estudio en el ndice del propietario de la direccin."
      },
      "deleteRecord(address,string)": {
        "notice": "Returns el estudio en el ndice del propietario de la direccin."
      },
      "emergencyStop(bool)": {
        "notice": "Pausar el contrato Se detiene el contrato bajo ciertas condiciones. Sera til cuando nuevos errores sean descubiertos."
      },
      "updateDiagnostic(address,string,string,string,string,uint256,uint256,string,string,string[],uint256)": {
        "notice": "Returns el Diagnstico en el ndice del propietario de la direccin."
      },
      "updateRecord(address,string,string)": {
        "notice": "Returns el estudio en el ndice del propietario de la direccin."
      },
      "viewDiagnostic(address,uint256)": {
        "notice": "Returns el Diagnstico en el ndice del propietario de la direccin."
      },
      "viewRecords(address,string)": {
        "notice": "Returns el estudio en el ndice del propietario de la direccin."
      }
    },
    "notice": "Este contrato representa el registro de un Diagnstico asociado a una persona."
  }
}