{
  "contractName": "PatientDiagnosis",
  "abi": [
    {
      "anonymous": false,
      "inputs": [
        {
          "indexed": true,
          "internalType": "address",
          "name": "newAdm",
          "type": "address"
        },
        {
          "indexed": true,
          "internalType": "address",
          "name": "whoAddedAdm",
          "type": "address"
        }
      ],
      "name": "AdminAdded",
      "type": "event"
    },
    {
      "anonymous": false,
      "inputs": [
        {
          "indexed": true,
          "internalType": "address",
          "name": "_patient",
          "type": "address"
        },
        {
          "indexed": true,
          "internalType": "address",
          "name": "_medic",
          "type": "address"
        },
        {
          "indexed": false,
          "internalType": "uint256",
          "name": "_date",
          "type": "uint256"
        }
      ],
      "name": "DiagnosisUpdate",
      "type": "event"
    },
    {
      "anonymous": false,
      "inputs": [
        {
          "indexed": true,
          "internalType": "address",
          "name": "_patient",
          "type": "address"
        },
        {
          "indexed": true,
          "internalType": "address",
          "name": "_medic",
          "type": "address"
        },
        {
          "indexed": false,
          "internalType": "uint256",
          "name": "_date",
          "type": "uint256"
        }
      ],
      "name": "DiagnosticAdded",
      "type": "event"
    },
    {
      "anonymous": false,
      "inputs": [
        {
          "indexed": true,
          "internalType": "address",
          "name": "_patient",
          "type": "address"
        },
        {
          "indexed": true,
          "internalType": "address",
          "name": "_medic",
          "type": "address"
        },
        {
          "indexed": false,
          "internalType": "string",
          "name": "_comorb",
          "type": "string"
        },
        {
          "indexed": false,
          "internalType": "uint256",
          "name": "_age",
          "type": "uint256"
        },
        {
          "indexed": false,
          "internalType": "uint256",
          "name": "_weight",
          "type": "uint256"
        },
        {
          "indexed": false,
          "internalType": "string",
          "name": "_diagnostic",
          "type": "string"
        },
        {
          "indexed": false,
          "internalType": "string",
          "name": "_observations",
          "type": "string"
        },
        {
          "indexed": false,
          "internalType": "string[]",
          "name": "_estudio",
          "type": "string[]"
        }
      ],
      "name": "DiagnosticRetrieve",
      "type": "event"
    },
    {
      "anonymous": false,
      "inputs": [
        {
          "indexed": true,
          "internalType": "address",
          "name": "_patient",
          "type": "address"
        },
        {
          "indexed": true,
          "internalType": "address",
          "name": "_medic",
          "type": "address"
        },
        {
          "indexed": false,
          "internalType": "uint256[]",
          "name": "_dates",
          "type": "uint256[]"
        }
      ],
      "name": "FullDiagnosticRetrieve",
      "type": "event"
    },
    {
      "anonymous": false,
      "inputs": [
        {
          "indexed": true,
          "internalType": "address",
          "name": "_admin",
          "type": "address"
        },
        {
          "indexed": false,
          "internalType": "bool",
          "name": "_stop",
          "type": "bool"
        }
      ],
      "name": "LogSwitchStop",
      "type": "event"
    },
    {
      "anonymous": false,
      "inputs": [
        {
          "indexed": true,
          "internalType": "address",
          "name": "newMed",
          "type": "address"
        },
        {
          "indexed": true,
          "internalType": "address",
          "name": "whoAddedMed",
          "type": "address"
        }
      ],
      "name": "MedicAdded",
      "type": "event"
    },
    {
      "anonymous": false,
      "inputs": [
        {
          "indexed": true,
          "internalType": "address",
          "name": "oldMed",
          "type": "address"
        },
        {
          "indexed": true,
          "internalType": "address",
          "name": "whoRemovedMed",
          "type": "address"
        }
      ],
      "name": "MedicRemoved",
      "type": "event"
    },
    {
      "anonymous": false,
      "inputs": [
        {
          "indexed": true,
          "internalType": "address",
          "name": "_medic",
          "type": "address"
        },
        {
          "indexed": true,
          "internalType": "address",
          "name": "_admin",
          "type": "address"
        },
        {
          "indexed": false,
          "internalType": "string",
          "name": "_name",
          "type": "string"
        },
        {
          "indexed": false,
          "internalType": "string",
          "name": "_specialty",
          "type": "string"
        },
        {
          "indexed": false,
          "internalType": "string",
          "name": "_cedula",
          "type": "string"
        },
        {
          "indexed": false,
          "internalType": "string",
          "name": "_email",
          "type": "string"
        },
        {
          "indexed": false,
          "internalType": "string",
          "name": "_hashPicture",
          "type": "string"
        },
        {
          "indexed": false,
          "internalType": "uint256",
          "name": "_date",
          "type": "uint256"
        }
      ],
      "name": "MedicsAdded",
      "type": "event"
    },
    {
      "anonymous": false,
      "inputs": [
        {
          "indexed": true,
          "internalType": "address",
          "name": "_medic",
          "type": "address"
        },
        {
          "indexed": true,
          "internalType": "address",
          "name": "_admin",
          "type": "address"
        },
        {
          "indexed": false,
          "internalType": "string",
          "name": "_name",
          "type": "string"
        },
        {
          "indexed": false,
          "internalType": "string",
          "name": "_specialty",
          "type": "string"
        },
        {
          "indexed": false,
          "internalType": "string",
          "name": "_cedula",
          "type": "string"
        },
        {
          "indexed": false,
          "internalType": "string",
          "name": "_email",
          "type": "string"
        },
        {
          "indexed": false,
          "internalType": "string",
          "name": "_hashPicture",
          "type": "string"
        },
        {
          "indexed": false,
          "internalType": "uint256",
          "name": "_date",
          "type": "uint256"
        },
        {
          "indexed": false,
          "internalType": "uint256",
          "name": "_queryDate",
          "type": "uint256"
        }
      ],
      "name": "MedicsRetrieve",
      "type": "event"
    },
    {
      "anonymous": false,
      "inputs": [
        {
          "indexed": true,
          "internalType": "address",
          "name": "_patient",
          "type": "address"
        },
        {
          "indexed": false,
          "internalType": "uint256",
          "name": "whenWas",
          "type": "uint256"
        }
      ],
      "name": "PatientAdded",
      "type": "event"
    },
    {
      "anonymous": false,
      "inputs": [
        {
          "indexed": true,
          "internalType": "address",
          "name": "whoAddedPat",
          "type": "address"
        }
      ],
      "name": "PatientAdded",
      "type": "event"
    },
    {
      "anonymous": false,
      "inputs": [
        {
          "indexed": true,
          "internalType": "address",
          "name": "oldPat",
          "type": "address"
        },
        {
          "indexed": true,
          "internalType": "address",
          "name": "whoRemovedPat",
          "type": "address"
        }
      ],
      "name": "PatientRemoved",
      "type": "event"
    },
    {
      "anonymous": false,
      "inputs": [
        {
          "indexed": true,
          "internalType": "address",
          "name": "_patient",
          "type": "address"
        },
        {
          "indexed": true,
          "internalType": "address",
          "name": "_medic",
          "type": "address"
        },
        {
          "indexed": false,
          "internalType": "string",
          "name": "_nombre",
          "type": "string"
        },
        {
          "indexed": false,
          "internalType": "string",
          "name": "_curp",
          "type": "string"
        },
        {
          "indexed": false,
          "internalType": "string",
          "name": "_tipoSangre",
          "type": "string"
        },
        {
          "indexed": false,
          "internalType": "string",
          "name": "_sexo",
          "type": "string"
        },
        {
          "indexed": false,
          "internalType": "string",
          "name": "_hashCredencial",
          "type": "string"
        },
        {
          "indexed": false,
          "internalType": "string",
          "name": "_hashFoto",
          "type": "string"
        },
        {
          "indexed": false,
          "internalType": "uint256",
          "name": "whenWas",
          "type": "uint256"
        }
      ],
      "name": "PatientRetrieve",
      "type": "event"
    },
    {
      "anonymous": false,
      "inputs": [
        {
          "indexed": true,
          "internalType": "address",
          "name": "_patient",
          "type": "address"
        },
        {
          "indexed": true,
          "internalType": "address",
          "name": "_medic",
          "type": "address"
        },
        {
          "indexed": false,
          "internalType": "uint256",
          "name": "whenWas",
          "type": "uint256"
        }
      ],
      "name": "PatientUpdate",
      "type": "event"
    },
    {
      "anonymous": false,
      "inputs": [
        {
          "indexed": true,
          "internalType": "address",
          "name": "_patient",
          "type": "address"
        },
        {
          "indexed": true,
          "internalType": "address",
          "name": "_medic",
          "type": "address"
        },
        {
          "indexed": false,
          "internalType": "string",
          "name": "_ipfsHash",
          "type": "string"
        }
      ],
      "name": "RecordAdded",
      "type": "event"
    },
    {
      "anonymous": false,
      "inputs": [
        {
          "indexed": true,
          "internalType": "address",
          "name": "_patient",
          "type": "address"
        },
        {
          "indexed": true,
          "internalType": "address",
          "name": "_medic",
          "type": "address"
        },
        {
          "indexed": false,
          "internalType": "string",
          "name": "_descript",
          "type": "string"
        },
        {
          "indexed": false,
          "internalType": "uint256",
          "name": "_uploadDate",
          "type": "uint256"
        }
      ],
      "name": "RecordRetrieve",
      "type": "event"
    },
    {
      "anonymous": false,
      "inputs": [
        {
          "indexed": true,
          "internalType": "address",
          "name": "_patient",
          "type": "address"
        },
        {
          "indexed": true,
          "internalType": "address",
          "name": "_medic",
          "type": "address"
        },
        {
          "indexed": false,
          "internalType": "string",
          "name": "_descript",
          "type": "string"
        }
      ],
      "name": "RecordUpdate",
      "type": "event"
    },
    {
      "payable": true,
      "stateMutability": "payable",
      "type": "fallback"
    },
    {
      "constant": false,
      "inputs": [
        {
          "internalType": "address",
          "name": "account",
          "type": "address"
        }
      ],
      "name": "addAdmin",
      "outputs": [],
      "payable": false,
      "stateMutability": "nonpayable",
      "type": "function"
    },
    {
      "constant": false,
      "inputs": [
        {
          "internalType": "address",
          "name": "account",
          "type": "address"
        }
      ],
      "name": "addMedic",
      "outputs": [],
      "payable": false,
      "stateMutability": "nonpayable",
      "type": "function"
    },
    {
      "constant": false,
      "inputs": [
        {
          "internalType": "address",
          "name": "_account",
          "type": "address"
        },
        {
          "internalType": "string",
          "name": "_name",
          "type": "string"
        },
        {
          "internalType": "string",
          "name": "_specialty",
          "type": "string"
        },
        {
          "internalType": "string",
          "name": "_cedula",
          "type": "string"
        },
        {
          "internalType": "string",
          "name": "_email",
          "type": "string"
        },
        {
          "internalType": "string",
          "name": "_hashPicture",
          "type": "string"
        }
      ],
      "name": "addMedics",
      "outputs": [
        {
          "internalType": "bool",
          "name": "_success",
          "type": "bool"
        }
      ],
      "payable": false,
      "stateMutability": "nonpayable",
      "type": "function"
    },
    {
      "constant": false,
      "inputs": [
        {
          "internalType": "address",
          "name": "account",
          "type": "address"
        }
      ],
      "name": "addPatient",
      "outputs": [],
      "payable": false,
      "stateMutability": "nonpayable",
      "type": "function"
    },
    {
      "constant": false,
      "inputs": [
        {
          "internalType": "address",
          "name": "_account",
          "type": "address"
        },
        {
          "internalType": "string",
          "name": "_descript",
          "type": "string"
        },
        {
          "internalType": "string",
          "name": "_ipfsHash",
          "type": "string"
        }
      ],
      "name": "addRecord",
      "outputs": [
        {
          "internalType": "bool",
          "name": "_success",
          "type": "bool"
        }
      ],
      "payable": false,
      "stateMutability": "nonpayable",
      "type": "function"
    },
    {
      "constant": false,
      "inputs": [
        {
          "internalType": "bool",
          "name": "_stop",
          "type": "bool"
        }
      ],
      "name": "emergencyStop",
      "outputs": [],
      "payable": false,
      "stateMutability": "nonpayable",
      "type": "function"
    },
    {
      "constant": true,
      "inputs": [
        {
          "internalType": "address",
          "name": "",
          "type": "address"
        },
        {
          "internalType": "uint256",
          "name": "",
          "type": "uint256"
        }
      ],
      "name": "extendedFileToPatientDiagnosis",
      "outputs": [
        {
          "internalType": "uint256",
          "name": "",
          "type": "uint256"
        }
      ],
      "payable": false,
      "stateMutability": "view",
      "type": "function"
    },
    {
      "constant": true,
      "inputs": [
        {
          "internalType": "address",
          "name": "",
          "type": "address"
        }
      ],
      "name": "fileToMedic",
      "outputs": [
        {
          "internalType": "string",
          "name": "name",
          "type": "string"
        },
        {
          "internalType": "string",
          "name": "specialty",
          "type": "string"
        },
        {
          "internalType": "string",
          "name": "cedula",
          "type": "string"
        },
        {
          "internalType": "string",
          "name": "email",
          "type": "string"
        },
        {
          "internalType": "string",
          "name": "hashPicture",
          "type": "string"
        },
        {
          "internalType": "uint256",
          "name": "whenAdded",
          "type": "uint256"
        },
        {
          "internalType": "bool",
          "name": "isMedico",
          "type": "bool"
        }
      ],
      "payable": false,
      "stateMutability": "view",
      "type": "function"
    },
    {
      "constant": true,
      "inputs": [
        {
          "internalType": "address",
          "name": "",
          "type": "address"
        }
      ],
      "name": "fileToPatient",
      "outputs": [
        {
          "internalType": "string",
          "name": "nombre",
          "type": "string"
        },
        {
          "internalType": "string",
          "name": "curp",
          "type": "string"
        },
        {
          "internalType": "string",
          "name": "tipoSangre",
          "type": "string"
        },
        {
          "internalType": "string",
          "name": "sexo",
          "type": "string"
        },
        {
          "internalType": "string",
          "name": "hashCredencial",
          "type": "string"
        },
        {
          "internalType": "string",
          "name": "hashFoto",
          "type": "string"
        },
        {
          "internalType": "bool",
          "name": "isPatient",
          "type": "bool"
        }
      ],
      "payable": false,
      "stateMutability": "view",
      "type": "function"
    },
    {
      "constant": true,
      "inputs": [
        {
          "internalType": "address",
          "name": "",
          "type": "address"
        },
        {
          "internalType": "uint256",
          "name": "",
          "type": "uint256"
        }
      ],
      "name": "fileToPatientDiagnosis",
      "outputs": [
        {
          "internalType": "string",
          "name": "comorb",
          "type": "string"
        },
        {
          "internalType": "uint256",
          "name": "age",
          "type": "uint256"
        },
        {
          "internalType": "uint256",
          "name": "weight",
          "type": "uint256"
        },
        {
          "internalType": "string",
          "name": "diagnostic",
          "type": "string"
        },
        {
          "internalType": "string",
          "name": "observations",
          "type": "string"
        },
        {
          "internalType": "bool",
          "name": "isDiag",
          "type": "bool"
        }
      ],
      "payable": false,
      "stateMutability": "view",
      "type": "function"
    },
    {
      "constant": true,
      "inputs": [
        {
          "internalType": "address",
          "name": "account",
          "type": "address"
        }
      ],
      "name": "isAdmin",
      "outputs": [
        {
          "internalType": "bool",
          "name": "",
          "type": "bool"
        }
      ],
      "payable": false,
      "stateMutability": "view",
      "type": "function"
    },
    {
      "constant": true,
      "inputs": [
        {
          "internalType": "address",
          "name": "account",
          "type": "address"
        }
      ],
      "name": "isMedic",
      "outputs": [
        {
          "internalType": "bool",
          "name": "",
          "type": "bool"
        }
      ],
      "payable": false,
      "stateMutability": "view",
      "type": "function"
    },
    {
      "constant": true,
      "inputs": [
        {
          "internalType": "address",
          "name": "account",
          "type": "address"
        }
      ],
      "name": "isPatient",
      "outputs": [
        {
          "internalType": "bool",
          "name": "",
          "type": "bool"
        }
      ],
      "payable": false,
      "stateMutability": "view",
      "type": "function"
    },
    {
      "constant": false,
      "inputs": [
        {
          "internalType": "address",
          "name": "account",
          "type": "address"
        }
      ],
      "name": "removeMedic",
      "outputs": [],
      "payable": false,
      "stateMutability": "nonpayable",
      "type": "function"
    },
    {
      "constant": false,
      "inputs": [
        {
          "internalType": "address",
          "name": "account",
          "type": "address"
        }
      ],
      "name": "removePatient",
      "outputs": [],
      "payable": false,
      "stateMutability": "nonpayable",
      "type": "function"
    },
    {
      "constant": false,
      "inputs": [
        {
          "internalType": "address",
          "name": "_account",
          "type": "address"
        },
        {
          "internalType": "string",
          "name": "_descript",
          "type": "string"
        },
        {
          "internalType": "string",
          "name": "_ipfsHash",
          "type": "string"
        }
      ],
      "name": "updateRecord",
      "outputs": [
        {
          "internalType": "bool",
          "name": "_success",
          "type": "bool"
        }
      ],
      "payable": false,
      "stateMutability": "nonpayable",
      "type": "function"
    },
    {
      "constant": false,
      "inputs": [
        {
          "internalType": "address",
          "name": "_account",
          "type": "address"
        },
        {
          "internalType": "uint256",
          "name": "_date",
          "type": "uint256"
        }
      ],
      "name": "viewMedics",
      "outputs": [
        {
          "internalType": "string",
          "name": "name",
          "type": "string"
        },
        {
          "internalType": "string",
          "name": "specialty",
          "type": "string"
        },
        {
          "internalType": "string",
          "name": "cedula",
          "type": "string"
        },
        {
          "internalType": "string",
          "name": "email",
          "type": "string"
        },
        {
          "internalType": "string",
          "name": "hashPicture",
          "type": "string"
        },
        {
          "internalType": "uint256",
          "name": "whenAdded",
          "type": "uint256"
        }
      ],
      "payable": false,
      "stateMutability": "nonpayable",
      "type": "function"
    },
    {
      "constant": false,
      "inputs": [
        {
          "internalType": "address",
          "name": "_account",
          "type": "address"
        },
        {
          "internalType": "string",
          "name": "_ipfsHash",
          "type": "string"
        }
      ],
      "name": "viewRecords",
      "outputs": [
        {
          "internalType": "string",
          "name": "_descript",
          "type": "string"
        },
        {
          "internalType": "uint256",
          "name": "_uploadDate",
          "type": "uint256"
        }
      ],
      "payable": false,
      "stateMutability": "nonpayable",
      "type": "function"
    },
    {
      "constant": true,
      "inputs": [
        {
          "internalType": "address",
          "name": "_account",
          "type": "address"
        },
        {
          "internalType": "uint256",
          "name": "_timeStamp",
          "type": "uint256"
        }
      ],
      "name": "patientDiagnosis",
      "outputs": [
        {
          "components": [
            {
              "internalType": "string",
              "name": "comorb",
              "type": "string"
            },
            {
              "internalType": "uint256",
              "name": "age",
              "type": "uint256"
            },
            {
              "internalType": "uint256",
              "name": "weight",
              "type": "uint256"
            },
            {
              "internalType": "string",
              "name": "diagnostic",
              "type": "string"
            },
            {
              "internalType": "string",
              "name": "observations",
              "type": "string"
            },
            {
              "internalType": "string[]",
              "name": "estudio",
              "type": "string[]"
            },
            {
              "internalType": "bool",
              "name": "isDiag",
              "type": "bool"
            }
          ],
          "internalType": "struct PatientDiagnosis.Diagnostico",
          "name": "diag",
          "type": "tuple"
        }
      ],
      "payable": false,
      "stateMutability": "view",
      "type": "function"
    },
    {
      "constant": true,
      "inputs": [
        {
          "internalType": "address",
          "name": "_account",
          "type": "address"
        }
      ],
      "name": "extendedIsDiag",
      "outputs": [
        {
          "internalType": "bool",
          "name": "isIndeed",
          "type": "bool"
        }
      ],
      "payable": false,
      "stateMutability": "view",
      "type": "function"
    },
    {
      "constant": true,
      "inputs": [
        {
          "internalType": "address",
          "name": "entityAddress",
          "type": "address"
        },
        {
          "internalType": "uint256",
          "name": "date",
          "type": "uint256"
        }
      ],
      "name": "isDiag",
      "outputs": [
        {
          "internalType": "bool",
          "name": "isIndeed",
          "type": "bool"
        }
      ],
      "payable": false,
      "stateMutability": "view",
      "type": "function"
    },
    {
      "constant": true,
      "inputs": [
        {
          "internalType": "address",
          "name": "entityAddress",
          "type": "address"
        }
      ],
      "name": "isPaciente",
      "outputs": [
        {
          "internalType": "bool",
          "name": "isIndeed",
          "type": "bool"
        }
      ],
      "payable": false,
      "stateMutability": "view",
      "type": "function"
    },
    {
      "constant": false,
      "inputs": [
        {
          "internalType": "address",
          "name": "_account",
          "type": "address"
        },
        {
          "internalType": "string",
          "name": "_comorb",
          "type": "string"
        },
        {
          "internalType": "uint16",
          "name": "_age",
          "type": "uint16"
        },
        {
          "internalType": "uint16",
          "name": "_weight",
          "type": "uint16"
        },
        {
          "internalType": "string",
          "name": "_diagnostic",
          "type": "string"
        },
        {
          "internalType": "string",
          "name": "_observations",
          "type": "string"
        },
        {
          "internalType": "string[]",
          "name": "_estudio",
          "type": "string[]"
        }
      ],
      "name": "addDiagnostic",
      "outputs": [
        {
          "internalType": "bool",
          "name": "_success",
          "type": "bool"
        }
      ],
      "payable": false,
      "stateMutability": "nonpayable",
      "type": "function"
    },
    {
      "constant": false,
      "inputs": [
        {
          "internalType": "string",
          "name": "_nombre",
          "type": "string"
        },
        {
          "internalType": "string",
          "name": "_curp",
          "type": "string"
        },
        {
          "internalType": "string",
          "name": "_tipoSangre",
          "type": "string"
        },
        {
          "internalType": "string",
          "name": "_sexo",
          "type": "string"
        },
        {
          "internalType": "string",
          "name": "_hashCredencial",
          "type": "string"
        },
        {
          "internalType": "string",
          "name": "_hashFoto",
          "type": "string"
        }
      ],
      "name": "patientSelfReg",
      "outputs": [
        {
          "internalType": "bool",
          "name": "_success",
          "type": "bool"
        }
      ],
      "payable": true,
      "stateMutability": "payable",
      "type": "function"
    },
    {
      "constant": false,
      "inputs": [
        {
          "internalType": "address",
          "name": "_account",
          "type": "address"
        },
        {
          "internalType": "string",
          "name": "_comorb",
          "type": "string"
        },
        {
          "internalType": "uint256",
          "name": "_age",
          "type": "uint256"
        },
        {
          "internalType": "uint256",
          "name": "_weight",
          "type": "uint256"
        },
        {
          "internalType": "string",
          "name": "_diagnostic",
          "type": "string"
        },
        {
          "internalType": "string",
          "name": "_observations",
          "type": "string"
        },
        {
          "internalType": "string[]",
          "name": "_estudio",
          "type": "string[]"
        },
        {
          "internalType": "uint256",
          "name": "_date",
          "type": "uint256"
        }
      ],
      "name": "updateDiagnostic",
      "outputs": [
        {
          "internalType": "bool",
          "name": "_success",
          "type": "bool"
        }
      ],
      "payable": false,
      "stateMutability": "nonpayable",
      "type": "function"
    },
    {
      "constant": false,
      "inputs": [
        {
          "internalType": "address",
          "name": "_account",
          "type": "address"
        },
        {
          "internalType": "string",
          "name": "_nombre",
          "type": "string"
        },
        {
          "internalType": "string",
          "name": "_curp",
          "type": "string"
        },
        {
          "internalType": "string",
          "name": "_tipoSangre",
          "type": "string"
        },
        {
          "internalType": "string",
          "name": "_sexo",
          "type": "string"
        },
        {
          "internalType": "string",
          "name": "_hashCredencial",
          "type": "string"
        },
        {
          "internalType": "string",
          "name": "_hashFoto",
          "type": "string"
        }
      ],
      "name": "selfUpdatePatient",
      "outputs": [
        {
          "internalType": "bool",
          "name": "_success",
          "type": "bool"
        }
      ],
      "payable": true,
      "stateMutability": "payable",
      "type": "function"
    },
    {
      "constant": false,
      "inputs": [
        {
          "internalType": "address",
          "name": "_account",
          "type": "address"
        },
        {
          "internalType": "uint256",
          "name": "_date",
          "type": "uint256"
        }
      ],
      "name": "viewDiagnostic",
      "outputs": [
        {
          "internalType": "bool",
          "name": "_success",
          "type": "bool"
        }
      ],
      "payable": false,
      "stateMutability": "nonpayable",
      "type": "function"
    },
    {
      "constant": false,
      "inputs": [
        {
          "internalType": "address",
          "name": "_account",
          "type": "address"
        }
      ],
      "name": "retrievePatient",
      "outputs": [
        {
          "internalType": "string",
          "name": "_hashCredencial",
          "type": "string"
        },
        {
          "internalType": "string",
          "name": "_hashFoto",
          "type": "string"
        }
      ],
      "payable": true,
      "stateMutability": "payable",
      "type": "function"
    },
    {
      "constant": false,
      "inputs": [
        {
          "internalType": "address",
          "name": "_account",
          "type": "address"
        }
      ],
      "name": "extendedViewDiagnostic",
      "outputs": [
        {
          "internalType": "uint256[]",
          "name": "_dates",
          "type": "uint256[]"
        }
      ],
      "payable": false,
      "stateMutability": "nonpayable",
      "type": "function"
    }
  ],
  "bytecode": "0x60806040526000600460006101000a81548160ff0219169083151502179055506000600660006101000a81548160ff0219169083151502179055506000600a60006101000a81548160ff02191690831515021790555062000066336200006c60201b60201c565b62000438565b600073ffffffffffffffffffffffffffffffffffffffff168173ffffffffffffffffffffffffffffffffffffffff161415620000df576040517f08c379a0000000000000000000000000000000000000000000000000000000008152600401620000d69062000405565b60405180910390fd5b620000fa8160006200015760201b6200431d1790919060201c565b3373ffffffffffffffffffffffffffffffffffffffff168173ffffffffffffffffffffffffffffffffffffffff167fbf3f493c772c8c283fd124432c2d0f539ab343faa04258fe88e52912d36b102b60405160405180910390a350565b6200016982826200020a60201b60201c565b15620001ac576040517f08c379a0000000000000000000000000000000000000000000000000000000008152600401620001a390620003c1565b60405180910390fd5b60018260000160008373ffffffffffffffffffffffffffffffffffffffff1673ffffffffffffffffffffffffffffffffffffffff16815260200190815260200160002060006101000a81548160ff0219169083151502179055505050565b60008073ffffffffffffffffffffffffffffffffffffffff168273ffffffffffffffffffffffffffffffffffffffff1614156200027e576040517f08c379a00000000000000000000000000000000000000000000000000000000081526004016200027590620003e3565b60405180910390fd5b8260000160008373ffffffffffffffffffffffffffffffffffffffff1673ffffffffffffffffffffffffffffffffffffffff16815260200190815260200160002060009054906101000a900460ff16905092915050565b6000620002e4601f8362000427565b91507f526f6c65733a206163636f756e7420616c72656164792068617320726f6c65006000830152602082019050919050565b60006200032660228362000427565b91507f526f6c65733a206163636f756e7420697320746865207a65726f20616464726560008301527f73730000000000000000000000000000000000000000000000000000000000006020830152604082019050919050565b60006200038e60198362000427565b91507f4572726f7220656e206c612061646472657373207573616461000000000000006000830152602082019050919050565b60006020820190508181036000830152620003dc81620002d5565b9050919050565b60006020820190508181036000830152620003fe8162000317565b9050919050565b6000602082019050818103600083015262000420816200037f565b9050919050565b600082825260208201905092915050565b615ed580620004486000396000f3fe6080604052600436106101c25760003560e01c806370480275116100f7578063a1f23f1911610095578063e765e73511610064578063e765e73514610727578063ea04f68f14610764578063ea6d89bd146107a6578063eae3ef8a146107e9576101c2565b8063a1f23f1914610654578063b0397ff814610691578063d47b41d5146106ba578063e11dd61c146106f7576101c2565b80638f9c79ed116100d15780638f9c79ed1461056d578063928a47d6146105aa57806395a4420a146105e75780639dfaa7e214610624576101c2565b806370480275146104f25780637d01dbc21461051b5780637d0d625714610544576101c2565b806339aa3987116101645780635c11b70f1161013e5780635c11b70f146104125780636278ed791461044f5780636d263ceb1461048c5780636f7ee01e146104b5576101c2565b806339aa39871461034f5780634e0581f4146103925780635995fd00146103d4576101c2565b80631c712b6c116101a05780631c712b6c14610267578063209074dd146102a457806324d7806c146102e15780632a50bc271461031e576101c2565b80630ac62e02146101c45780630e15809a146101ed5780630e9cb9ba1461022a575b005b3480156101d057600080fd5b506101eb60048036036101e69190810190614dac565b610826565b005b3480156101f957600080fd5b50610214600480360361020f9190810190614835565b6108d9565b60405161022191906155a9565b60405180910390f35b34801561023657600080fd5b50610251600480360361024c9190810190614d70565b610928565b60405161025e9190615b8e565b60405180910390f35b34801561027357600080fd5b5061028e60048036036102899190810190614d70565b610956565b60405161029b91906155a9565b60405180910390f35b3480156102b057600080fd5b506102cb60048036036102c69190810190614b60565b610c1f565b6040516102d891906155a9565b60405180910390f35b3480156102ed57600080fd5b5061030860048036036103039190810190614835565b610f69565b60405161031591906155a9565b60405180910390f35b61033860048036036103339190810190614835565b610f86565b604051610346929190615608565b60405180910390f35b34801561035b57600080fd5b5061037660048036036103719190810190614835565b611520565b60405161038997969594939291906156f3565b60405180910390f35b34801561039e57600080fd5b506103b960048036036103b49190810190614d70565b6118ff565b6040516103cb969594939291906159f6565b60405180910390f35b3480156103e057600080fd5b506103fb60048036036103f6919081019061485e565b611b1d565b6040516104099291906156c3565b60405180910390f35b34801561041e57600080fd5b5061043960048036036104349190810190614d70565b611d5a565b6040516104469190615b6c565b60405180910390f35b34801561045b57600080fd5b5061047660048036036104719190810190614835565b6120c3565b60405161048391906155a9565b60405180910390f35b34801561049857600080fd5b506104b360048036036104ae9190810190614835565b61211c565b005b3480156104c157600080fd5b506104dc60048036036104d79190810190614835565b612128565b6040516104e99190615565565b60405180910390f35b3480156104fe57600080fd5b5061051960048036036105149190810190614835565b612448565b005b34801561052757600080fd5b50610542600480360361053d9190810190614835565b61249c565b005b34801561055057600080fd5b5061056b60048036036105669190810190614835565b6124f0565b005b34801561057957600080fd5b50610594600480360361058f9190810190614835565b612544565b6040516105a191906155a9565b60405180910390f35b3480156105b657600080fd5b506105d160048036036105cc9190810190614c5e565b612561565b6040516105de91906155a9565b60405180910390f35b3480156105f357600080fd5b5061060e60048036036106099190810190614d70565b612853565b60405161061b91906155a9565b60405180910390f35b61063e60048036036106399190810190614dd5565b6128be565b60405161064b91906155a9565b60405180910390f35b34801561066057600080fd5b5061067b600480360361067691908101906148b2565b612b2e565b60405161068891906155a9565b60405180910390f35b34801561069d57600080fd5b506106b860048036036106b39190810190614835565b612d61565b005b3480156106c657600080fd5b506106e160048036036106dc91908101906148b2565b612db5565b6040516106ee91906155a9565b60405180910390f35b610711600480360361070c9190810190614a32565b612f8a565b60405161071e91906155a9565b60405180910390f35b34801561073357600080fd5b5061074e60048036036107499190810190614931565b613265565b60405161075b91906155a9565b60405180910390f35b34801561077057600080fd5b5061078b60048036036107869190810190614d70565b613514565b60405161079d9695949392919061563f565b60405180910390f35b3480156107b257600080fd5b506107cd60048036036107c89190810190614835565b613aa3565b6040516107e09796959493929190615825565b60405180910390f35b3480156107f557600080fd5b50610810600480360361080b9190810190614835565b613dea565b60405161081d91906155a9565b60405180910390f35b61082f33610f69565b61086e576040517f08c379a000000000000000000000000000000000000000000000000000000000815260040161086590615b0c565b60405180910390fd5b80600660006101000a81548160ff0219169083151502179055503373ffffffffffffffffffffffffffffffffffffffff167f58b15338e6499b2b2827d169f60332c3b4b476fcd06b9a3c7e37afa77c49228e826040516108ce91906155a9565b60405180910390a250565b600080600860008473ffffffffffffffffffffffffffffffffffffffff1673ffffffffffffffffffffffffffffffffffffffff1681526020019081526020016000208054905010159050919050565b6008602052816000526040600020818154811061094157fe5b90600052602060002001600091509150505481565b6000600a60009054906101000a900460ff161561097257600080fd5b61097b33612544565b8061098b575061098a33613dea565b5b6109ca576040517f08c379a00000000000000000000000000000000000000000000000000000000081526004016109c190615b2c565b60405180910390fd5b600073ffffffffffffffffffffffffffffffffffffffff168373ffffffffffffffffffffffffffffffffffffffff161415610a0457600080fd5b60008210158015610a3557507fffffffffffffffffffffffffffffffffffffffffffffffffffffffffffffffff8211155b610a3e57600080fd5b610a488383612853565b610a5157600080fd5b610a5961446c565b610a638484611d5a565b9050610a6e33613dea565b8015610a7f5750610a7e33612544565b5b15610af8578373ffffffffffffffffffffffffffffffffffffffff163373ffffffffffffffffffffffffffffffffffffffff16141580610aea57508373ffffffffffffffffffffffffffffffffffffffff163373ffffffffffffffffffffffffffffffffffffffff16145b610af357600080fd5b610b8d565b610b0133613dea565b15610b44578373ffffffffffffffffffffffffffffffffffffffff163373ffffffffffffffffffffffffffffffffffffffff161415610b3f57600080fd5b610b8c565b610b4d33612544565b15610b8b578373ffffffffffffffffffffffffffffffffffffffff163373ffffffffffffffffffffffffffffffffffffffff1614610b8a57600080fd5b5b5b5b3373ffffffffffffffffffffffffffffffffffffffff168473ffffffffffffffffffffffffffffffffffffffff167fe16669e0e55bfd648b5c00e04428a3a61bcbbc506b4eac67bffd4fb6db93f0f0836000015184602001518560400151866060015187608001518860a00151604051610c0c96959493929190615979565b60405180910390a3600191505092915050565b6000600a60009054906101000a900460ff1615610c3b57600080fd5b610c4433613dea565b610c83576040517f08c379a0000000000000000000000000000000000000000000000000000000008152600401610c7a90615a8c565b60405180910390fd5b600073ffffffffffffffffffffffffffffffffffffffff168873ffffffffffffffffffffffffffffffffffffffff161415610cbd57600080fd5b610cc6886108d9565b610ccf57600080fd5b610cd888612544565b8015610ce95750610ce833613dea565b5b610cf257600080fd5b6032875110610d0057600080fd5b60788661ffff1610610d1157600080fd5b6102bc8561ffff1610610d2357600080fd5b610100845110610d3257600080fd5b610200835110610d4157600080fd5b6000429050610d4e61446c565b6040518060e001604052808a81526020018961ffff1681526020018861ffff16815260200187815260200186815260200185815260200160011515815250905080600760008c73ffffffffffffffffffffffffffffffffffffffff1673ffffffffffffffffffffffffffffffffffffffff16815260200190815260200160002060008481526020019081526020016000206000820151816000019080519060200190610dfb9291906144ab565b5060208201518160010155604082015181600201556060820151816003019080519060200190610e2c9291906144ab565b506080820151816004019080519060200190610e499291906144ab565b5060a0820151816005019080519060200190610e6692919061452b565b5060c08201518160060160006101000a81548160ff021916908315150217905550905050600860008b73ffffffffffffffffffffffffffffffffffffffff1673ffffffffffffffffffffffffffffffffffffffff1681526020019081526020016000208290806001815401808255809150509060018203906000526020600020016000909192909190915055503373ffffffffffffffffffffffffffffffffffffffff168a73ffffffffffffffffffffffffffffffffffffffff167fc76a6c87db395959e2b38c12986f5904eb13332810fff9c429f1f96ce566aa0084604051610f509190615b8e565b60405180910390a3600192505050979650505050505050565b6000610f7f826000613e0790919063ffffffff16565b9050919050565b606080600a60009054906101000a900460ff1615610fa357600080fd5b610fac33612544565b80610fbc5750610fbb33613dea565b5b610ffb576040517f08c379a0000000000000000000000000000000000000000000000000000000008152600401610ff290615b2c565b60405180910390fd5b600073ffffffffffffffffffffffffffffffffffffffff168373ffffffffffffffffffffffffffffffffffffffff16141561103557600080fd5b66038d7ea4c68000341461104857600080fd5b61105061458b565b600960008573ffffffffffffffffffffffffffffffffffffffff1673ffffffffffffffffffffffffffffffffffffffff1681526020019081526020016000206040518060e0016040529081600082018054600181600116156101000203166002900480601f0160208091040260200160405190810160405280929190818152602001828054600181600116156101000203166002900480156111335780601f1061110857610100808354040283529160200191611133565b820191906000526020600020905b81548152906001019060200180831161111657829003601f168201915b50505050508152602001600182018054600181600116156101000203166002900480601f0160208091040260200160405190810160405280929190818152602001828054600181600116156101000203166002900480156111d55780601f106111aa576101008083540402835291602001916111d5565b820191906000526020600020905b8154815290600101906020018083116111b857829003601f168201915b50505050508152602001600282018054600181600116156101000203166002900480601f0160208091040260200160405190810160405280929190818152602001828054600181600116156101000203166002900480156112775780601f1061124c57610100808354040283529160200191611277565b820191906000526020600020905b81548152906001019060200180831161125a57829003601f168201915b50505050508152602001600382018054600181600116156101000203166002900480601f0160208091040260200160405190810160405280929190818152602001828054600181600116156101000203166002900480156113195780601f106112ee57610100808354040283529160200191611319565b820191906000526020600020905b8154815290600101906020018083116112fc57829003601f168201915b50505050508152602001600482018054600181600116156101000203166002900480601f0160208091040260200160405190810160405280929190818152602001828054600181600116156101000203166002900480156113bb5780601f10611390576101008083540402835291602001916113bb565b820191906000526020600020905b81548152906001019060200180831161139e57829003601f168201915b50505050508152602001600582018054600181600116156101000203166002900480601f01602080910402602001604051908101604052809291908181526020018280546001816001161561010002031660029004801561145d5780601f106114325761010080835404028352916020019161145d565b820191906000526020600020905b81548152906001019060200180831161144057829003601f168201915b505050505081526020016006820160009054906101000a900460ff16151515158152505090503373ffffffffffffffffffffffffffffffffffffffff168473ffffffffffffffffffffffffffffffffffffffff167f16415829ac3edb82b22ad83d057c7c1f86de9ee05fbf6ad3ce3b410a74a38ac7836000015184602001518560400151866060015187608001518860a0015142604051611504979695949392919061578c565b60405180910390a3806080015192508060a00151915050915091565b6009602052806000526040600020600091509050806000018054600181600116156101000203166002900480601f0160208091040260200160405190810160405280929190818152602001828054600181600116156101000203166002900480156115cc5780601f106115a1576101008083540402835291602001916115cc565b820191906000526020600020905b8154815290600101906020018083116115af57829003601f168201915b505050505090806001018054600181600116156101000203166002900480601f01602080910402602001604051908101604052809291908181526020018280546001816001161561010002031660029004801561166a5780601f1061163f5761010080835404028352916020019161166a565b820191906000526020600020905b81548152906001019060200180831161164d57829003601f168201915b505050505090806002018054600181600116156101000203166002900480601f0160208091040260200160405190810160405280929190818152602001828054600181600116156101000203166002900480156117085780601f106116dd57610100808354040283529160200191611708565b820191906000526020600020905b8154815290600101906020018083116116eb57829003601f168201915b505050505090806003018054600181600116156101000203166002900480601f0160208091040260200160405190810160405280929190818152602001828054600181600116156101000203166002900480156117a65780601f1061177b576101008083540402835291602001916117a6565b820191906000526020600020905b81548152906001019060200180831161178957829003601f168201915b505050505090806004018054600181600116156101000203166002900480601f0160208091040260200160405190810160405280929190818152602001828054600181600116156101000203166002900480156118445780601f1061181957610100808354040283529160200191611844565b820191906000526020600020905b81548152906001019060200180831161182757829003601f168201915b505050505090806005018054600181600116156101000203166002900480601f0160208091040260200160405190810160405280929190818152602001828054600181600116156101000203166002900480156118e25780601f106118b7576101008083540402835291602001916118e2565b820191906000526020600020905b8154815290600101906020018083116118c557829003601f168201915b5050505050908060060160009054906101000a900460ff16905087565b600760205281600052604060002060205280600052604060002060009150915050806000018054600181600116156101000203166002900480601f0160208091040260200160405190810160405280929190818152602001828054600181600116156101000203166002900480156119b85780601f1061198d576101008083540402835291602001916119b8565b820191906000526020600020905b81548152906001019060200180831161199b57829003601f168201915b505050505090806001015490806002015490806003018054600181600116156101000203166002900480601f016020809104026020016040519081016040528092919081815260200182805460018160011615610100020316600290048015611a625780601f10611a3757610100808354040283529160200191611a62565b820191906000526020600020905b815481529060010190602001808311611a4557829003601f168201915b505050505090806004018054600181600116156101000203166002900480601f016020809104026020016040519081016040528092919081815260200182805460018160011615610100020316600290048015611b005780601f10611ad557610100808354040283529160200191611b00565b820191906000526020600020905b815481529060010190602001808311611ae357829003601f168201915b5050505050908060060160009054906101000a900460ff16905086565b60606000600a60009054906101000a900460ff1615611b3b57600080fd5b611b4433612544565b80611b545750611b5333613dea565b5b611b93576040517f08c379a0000000000000000000000000000000000000000000000000000000008152600401611b8a90615b2c565b60405180910390fd5b600073ffffffffffffffffffffffffffffffffffffffff168473ffffffffffffffffffffffffffffffffffffffff161415611bcd57600080fd5b602e835114611bdb57600080fd5b611be36145ca565b600584604051611bf3919061554e565b9081526020016040518091039020604051806060016040529081600082018054600181600116156101000203166002900480601f016020809104026020016040519081016040528092919081815260200182805460018160011615610100020316600290048015611ca55780601f10611c7a57610100808354040283529160200191611ca5565b820191906000526020600020905b815481529060010190602001808311611c8857829003601f168201915b50505050508152602001600182015481526020016002820160009054906101000a900460ff16151515158152505090503373ffffffffffffffffffffffffffffffffffffffff168573ffffffffffffffffffffffffffffffffffffffff167f4ee0bf4d8ed0ec027f6654b0ba0995ae922f70b4f3bdbc0ff59c0a7dbd5491c683600001518460200151604051611d3c929190615949565b60405180910390a38060000151925080602001519150509250929050565b611d6261446c565b600760008473ffffffffffffffffffffffffffffffffffffffff1673ffffffffffffffffffffffffffffffffffffffff16815260200190815260200160002060008381526020019081526020016000206040518060e0016040529081600082018054600181600116156101000203166002900480601f016020809104026020016040519081016040528092919081815260200182805460018160011615610100020316600290048015611e565780601f10611e2b57610100808354040283529160200191611e56565b820191906000526020600020905b815481529060010190602001808311611e3957829003601f168201915b505050505081526020016001820154815260200160028201548152602001600382018054600181600116156101000203166002900480601f016020809104026020016040519081016040528092919081815260200182805460018160011615610100020316600290048015611f0c5780601f10611ee157610100808354040283529160200191611f0c565b820191906000526020600020905b815481529060010190602001808311611eef57829003601f168201915b50505050508152602001600482018054600181600116156101000203166002900480601f016020809104026020016040519081016040528092919081815260200182805460018160011615610100020316600290048015611fae5780601f10611f8357610100808354040283529160200191611fae565b820191906000526020600020905b815481529060010190602001808311611f9157829003601f168201915b5050505050815260200160058201805480602002602001604051908101604052809291908181526020016000905b82821015612098578382906000526020600020018054600181600116156101000203166002900480601f0160208091040260200160405190810160405280929190818152602001828054600181600116156101000203166002900480156120845780601f1061205957610100808354040283529160200191612084565b820191906000526020600020905b81548152906001019060200180831161206757829003601f168201915b505050505081526020019060010190611fdc565b5050505081526020016006820160009054906101000a900460ff161515151581525050905092915050565b6000600960008373ffffffffffffffffffffffffffffffffffffffff1673ffffffffffffffffffffffffffffffffffffffff16815260200190815260200160002060060160009054906101000a900460ff169050919050565b61212581613ecf565b50565b6060600a60009054906101000a900460ff161561214457600080fd5b61214d33612544565b8061215d575061215c33613dea565b5b61219c576040517f08c379a000000000000000000000000000000000000000000000000000000000815260040161219390615b2c565b60405180910390fd5b600073ffffffffffffffffffffffffffffffffffffffff168273ffffffffffffffffffffffffffffffffffffffff1614156121d657600080fd5b6121df826108d9565b6121e857600080fd5b6121f133613dea565b8015612202575061220133612544565b5b1561227b578173ffffffffffffffffffffffffffffffffffffffff163373ffffffffffffffffffffffffffffffffffffffff1614158061226d57508173ffffffffffffffffffffffffffffffffffffffff163373ffffffffffffffffffffffffffffffffffffffff16145b61227657600080fd5b612310565b61228433613dea565b156122c7578173ffffffffffffffffffffffffffffffffffffffff163373ffffffffffffffffffffffffffffffffffffffff1614156122c257600080fd5b61230f565b6122d033612544565b1561230e578173ffffffffffffffffffffffffffffffffffffffff163373ffffffffffffffffffffffffffffffffffffffff161461230d57600080fd5b5b5b5b3373ffffffffffffffffffffffffffffffffffffffff168273ffffffffffffffffffffffffffffffffffffffff167fc7f5159d1102cf2ec23ffec745ab0d855395057e6c5f7619dc2826012fe9a5b5600860008673ffffffffffffffffffffffffffffffffffffffff1673ffffffffffffffffffffffffffffffffffffffff1681526020019081526020016000206040516123ab9190615587565b60405180910390a3600860008373ffffffffffffffffffffffffffffffffffffffff1673ffffffffffffffffffffffffffffffffffffffff16815260200190815260200160002080548060200260200160405190810160405280929190818152602001828054801561243c57602002820191906000526020600020905b815481526020019060010190808311612428575b50505050509050919050565b61245133610f69565b612490576040517f08c379a000000000000000000000000000000000000000000000000000000000815260040161248790615b0c565b60405180910390fd5b61249981613f99565b50565b6124a533610f69565b6124e4576040517f08c379a00000000000000000000000000000000000000000000000000000000081526004016124db90615b0c565b60405180910390fd5b6124ed8161407a565b50565b6124f933613dea565b612538576040517f08c379a000000000000000000000000000000000000000000000000000000000815260040161252f90615a8c565b60405180910390fd5b6125418161415b565b50565b600061255a826002613e0790919063ffffffff16565b9050919050565b6000600a60009054906101000a900460ff161561257d57600080fd5b61258633613dea565b6125c5576040517f08c379a00000000000000000000000000000000000000000000000000000000081526004016125bc90615a8c565b60405180910390fd5b600073ffffffffffffffffffffffffffffffffffffffff168973ffffffffffffffffffffffffffffffffffffffff1614156125ff57600080fd5b6126098983612853565b61261257600080fd5b61010088511061262157600080fd5b6078871061262e57600080fd5b6102bc861061263c57600080fd5b603285511061264a57600080fd5b61020084511061265957600080fd5b6000821015801561268a57507fffffffffffffffffffffffffffffffffffffffffffffffffffffffffffffffff8211155b61269357600080fd5b60008351116126a157600080fd5b6126a961446c565b6040518060e001604052808a815260200189815260200188815260200187815260200186815260200185815260200160011515815250905080600760008c73ffffffffffffffffffffffffffffffffffffffff1673ffffffffffffffffffffffffffffffffffffffff1681526020019081526020016000206000858152602001908152602001600020600082015181600001908051906020019061274e9291906144ab565b506020820151816001015560408201518160020155606082015181600301908051906020019061277f9291906144ab565b50608082015181600401908051906020019061279c9291906144ab565b5060a08201518160050190805190602001906127b992919061452b565b5060c08201518160060160006101000a81548160ff0219169083151502179055509050503373ffffffffffffffffffffffffffffffffffffffff168a73ffffffffffffffffffffffffffffffffffffffff167f8864f7e8a3380841730dc6cd85a46a50d39d8521d4c55ba7faf825e5bb1d6a614260405161283a9190615b8e565b60405180910390a3600191505098975050505050505050565b6000600760008473ffffffffffffffffffffffffffffffffffffffff1673ffffffffffffffffffffffffffffffffffffffff168152602001908152602001600020600083815260200190815260200160002060060160009054906101000a900460ff16905092915050565b6000600a60009054906101000a900460ff16156128da57600080fd5b66b1a2bc2ec500003414612923576040517f08c379a000000000000000000000000000000000000000000000000000000000815260040161291a90615aac565b60405180910390fd5b603287511061293157600080fd5b601286511461293f57600080fd5b600885511061294d57600080fd5b600a84511061295b57600080fd5b602e83511461296957600080fd5b602e82511461297757600080fd5b61297f61458b565b6040518060e0016040528089815260200188815260200187815260200186815260200185815260200184815260200160011515815250905080600960003373ffffffffffffffffffffffffffffffffffffffff1673ffffffffffffffffffffffffffffffffffffffff1681526020019081526020016000206000820151816000019080519060200190612a139291906144ab565b506020820151816001019080519060200190612a309291906144ab565b506040820151816002019080519060200190612a4d9291906144ab565b506060820151816003019080519060200190612a6a9291906144ab565b506080820151816004019080519060200190612a879291906144ab565b5060a0820151816005019080519060200190612aa49291906144ab565b5060c08201518160060160006101000a81548160ff021916908315150217905550905050612ad13361211c565b3373ffffffffffffffffffffffffffffffffffffffff167f9f815c7c90015ccc408ebc7248155bc63ec6c595bea724abf4d4c58066fb400242604051612b179190615b8e565b60405180910390a260019150509695505050505050565b6000600a60009054906101000a900460ff1615612b4a57600080fd5b612b5333613dea565b612b92576040517f08c379a0000000000000000000000000000000000000000000000000000000008152600401612b8990615a8c565b60405180910390fd5b600073ffffffffffffffffffffffffffffffffffffffff168473ffffffffffffffffffffffffffffffffffffffff161415612bcc57600080fd5b610100835110612bdb57600080fd5b602e825114612be957600080fd5b612bf16145ca565b600583604051612c01919061554e565b9081526020016040518091039020604051806060016040529081600082018054600181600116156101000203166002900480601f016020809104026020016040519081016040528092919081815260200182805460018160011615610100020316600290048015612cb35780601f10612c8857610100808354040283529160200191612cb3565b820191906000526020600020905b815481529060010190602001808311612c9657829003601f168201915b50505050508152602001600182015481526020016002820160009054906101000a900460ff16151515158152505090508381600001819052503373ffffffffffffffffffffffffffffffffffffffff168573ffffffffffffffffffffffffffffffffffffffff167f87a983619f6316fe3e7ce828f67913b1a1048bf0b29304e3722f250644b049818360000151604051612d4d91906155c4565b60405180910390a360019150509392505050565b612d6a33610f69565b612da9576040517f08c379a0000000000000000000000000000000000000000000000000000000008152600401612da090615b0c565b60405180910390fd5b612db28161423c565b50565b6000600a60009054906101000a900460ff1615612dd157600080fd5b612dda33613dea565b612e19576040517f08c379a0000000000000000000000000000000000000000000000000000000008152600401612e1090615a8c565b60405180910390fd5b600073ffffffffffffffffffffffffffffffffffffffff168473ffffffffffffffffffffffffffffffffffffffff161415612e5357600080fd5b612e5c84612544565b612e6557600080fd5b610100835110612e7457600080fd5b602e825114612e8257600080fd5b6000429050612e8f6145ca565b604051806060016040528086815260200183815260200160011515815250905080600585604051612ec0919061554e565b90815260200160405180910390206000820151816000019080519060200190612eea9291906144ab565b506020820151816001015560408201518160020160006101000a81548160ff0219169083151502179055509050503373ffffffffffffffffffffffffffffffffffffffff168673ffffffffffffffffffffffffffffffffffffffff167f977dc7867dd6fb513af3d4bb11f4457a5052487f13412788530b454c0b7dfa2c86604051612f7591906155e6565b60405180910390a36001925050509392505050565b6000600a60009054906101000a900460ff1615612fa657600080fd5b612faf33612544565b80612fbf5750612fbe33613dea565b5b612ffe576040517f08c379a0000000000000000000000000000000000000000000000000000000008152600401612ff590615b2c565b60405180910390fd5b600073ffffffffffffffffffffffffffffffffffffffff168873ffffffffffffffffffffffffffffffffffffffff16141561303857600080fd5b666a94d74f430000341461304b57600080fd5b603287511061305957600080fd5b601286511461306757600080fd5b600885511061307557600080fd5b600a84511061308357600080fd5b602e83511461309157600080fd5b602e82511461309f57600080fd5b6130a761458b565b6040518060e0016040528089815260200188815260200187815260200186815260200185815260200184815260200160011515815250905080600960008b73ffffffffffffffffffffffffffffffffffffffff1673ffffffffffffffffffffffffffffffffffffffff168152602001908152602001600020600082015181600001908051906020019061313b9291906144ab565b5060208201518160010190805190602001906131589291906144ab565b5060408201518160020190805190602001906131759291906144ab565b5060608201518160030190805190602001906131929291906144ab565b5060808201518160040190805190602001906131af9291906144ab565b5060a08201518160050190805190602001906131cc9291906144ab565b5060c08201518160060160006101000a81548160ff0219169083151502179055509050503373ffffffffffffffffffffffffffffffffffffffff168973ffffffffffffffffffffffffffffffffffffffff167f9e71bc592b814feac46375b302d8d1a7df91fcc6f69df3adb3bc0ce721fe6daf4260405161324d9190615b8e565b60405180910390a36001915050979650505050505050565b6000600a60009054906101000a900460ff161561328157600080fd5b61328a33610f69565b6132c9576040517f08c379a00000000000000000000000000000000000000000000000000000000081526004016132c090615b0c565b60405180910390fd5b600073ffffffffffffffffffffffffffffffffffffffff168773ffffffffffffffffffffffffffffffffffffffff16141561330357600080fd5b608086511061331157600080fd5b601e85511061331f57600080fd5b601e84511061332d57600080fd5b601e83511061333b57600080fd5b601e82511061334957600080fd5b60004290506133566145ed565b6040518060e0016040528089815260200188815260200187815260200186815260200185815260200183815260200160011515815250905080600360008b73ffffffffffffffffffffffffffffffffffffffff1673ffffffffffffffffffffffffffffffffffffffff16815260200190815260200160002060008201518160000190805190602001906133ea9291906144ab565b5060208201518160010190805190602001906134079291906144ab565b5060408201518160020190805190602001906134249291906144ab565b5060608201518160030190805190602001906134419291906144ab565b50608082015181600401908051906020019061345e9291906144ab565b5060a0820151816005015560c08201518160060160006101000a81548160ff02191690831515021790555090505061349589612d61565b3373ffffffffffffffffffffffffffffffffffffffff168973ffffffffffffffffffffffffffffffffffffffff167f99ef3acfa68b13c01a6a7e6717e2224b4157940e6a56be5bd957d13c059fe3a08a8a8a8a8a896040516134fc9695949392919061563f565b60405180910390a36001925050509695505050505050565b60608060608060606000600a60009054906101000a900460ff161561353857600080fd5b61354133610f69565b613580576040517f08c379a000000000000000000000000000000000000000000000000000000000815260040161357790615b0c565b60405180910390fd5b61358933610f69565b156135c8578773ffffffffffffffffffffffffffffffffffffffff163373ffffffffffffffffffffffffffffffffffffffff1614156135c757600080fd5b5b600073ffffffffffffffffffffffffffffffffffffffff168873ffffffffffffffffffffffffffffffffffffffff16141561360257600080fd5b6000871015801561363357507fffffffffffffffffffffffffffffffffffffffffffffffffffffffffffffffff8711155b61363c57600080fd5b60004290506136496145ed565b600360008b73ffffffffffffffffffffffffffffffffffffffff1673ffffffffffffffffffffffffffffffffffffffff1681526020019081526020016000206040518060e0016040529081600082018054600181600116156101000203166002900480601f01602080910402602001604051908101604052809291908181526020018280546001816001161561010002031660029004801561372c5780601f106137015761010080835404028352916020019161372c565b820191906000526020600020905b81548152906001019060200180831161370f57829003601f168201915b50505050508152602001600182018054600181600116156101000203166002900480601f0160208091040260200160405190810160405280929190818152602001828054600181600116156101000203166002900480156137ce5780601f106137a3576101008083540402835291602001916137ce565b820191906000526020600020905b8154815290600101906020018083116137b157829003601f168201915b50505050508152602001600282018054600181600116156101000203166002900480601f0160208091040260200160405190810160405280929190818152602001828054600181600116156101000203166002900480156138705780601f1061384557610100808354040283529160200191613870565b820191906000526020600020905b81548152906001019060200180831161385357829003601f168201915b50505050508152602001600382018054600181600116156101000203166002900480601f0160208091040260200160405190810160405280929190818152602001828054600181600116156101000203166002900480156139125780601f106138e757610100808354040283529160200191613912565b820191906000526020600020905b8154815290600101906020018083116138f557829003601f168201915b50505050508152602001600482018054600181600116156101000203166002900480601f0160208091040260200160405190810160405280929190818152602001828054600181600116156101000203166002900480156139b45780601f10613989576101008083540402835291602001916139b4565b820191906000526020600020905b81548152906001019060200180831161399757829003601f168201915b50505050508152602001600582015481526020016006820160009054906101000a900460ff16151515158152505090503373ffffffffffffffffffffffffffffffffffffffff168a73ffffffffffffffffffffffffffffffffffffffff167fec95aa37f5ff4f1e52a5333f61229ce376a04a63d4ccdfae6678ef305b97f232836000015184602001518560400151866060015187608001518860a001518a604051613a6597969594939291906158b7565b60405180910390a380600001519750806020015196508060400151955080606001519450806080015193508060a00151925050509295509295509295565b6003602052806000526040600020600091509050806000018054600181600116156101000203166002900480601f016020809104026020016040519081016040528092919081815260200182805460018160011615610100020316600290048015613b4f5780601f10613b2457610100808354040283529160200191613b4f565b820191906000526020600020905b815481529060010190602001808311613b3257829003601f168201915b505050505090806001018054600181600116156101000203166002900480601f016020809104026020016040519081016040528092919081815260200182805460018160011615610100020316600290048015613bed5780601f10613bc257610100808354040283529160200191613bed565b820191906000526020600020905b815481529060010190602001808311613bd057829003601f168201915b505050505090806002018054600181600116156101000203166002900480601f016020809104026020016040519081016040528092919081815260200182805460018160011615610100020316600290048015613c8b5780601f10613c6057610100808354040283529160200191613c8b565b820191906000526020600020905b815481529060010190602001808311613c6e57829003601f168201915b505050505090806003018054600181600116156101000203166002900480601f016020809104026020016040519081016040528092919081815260200182805460018160011615610100020316600290048015613d295780601f10613cfe57610100808354040283529160200191613d29565b820191906000526020600020905b815481529060010190602001808311613d0c57829003601f168201915b505050505090806004018054600181600116156101000203166002900480601f016020809104026020016040519081016040528092919081815260200182805460018160011615610100020316600290048015613dc75780601f10613d9c57610100808354040283529160200191613dc7565b820191906000526020600020905b815481529060010190602001808311613daa57829003601f168201915b5050505050908060050154908060060160009054906101000a900460ff16905087565b6000613e00826001613e0790919063ffffffff16565b9050919050565b60008073ffffffffffffffffffffffffffffffffffffffff168273ffffffffffffffffffffffffffffffffffffffff161415613e78576040517f08c379a0000000000000000000000000000000000000000000000000000000008152600401613e6f90615aec565b60405180910390fd5b8260000160008373ffffffffffffffffffffffffffffffffffffffff1673ffffffffffffffffffffffffffffffffffffffff16815260200190815260200160002060009054906101000a900460ff16905092915050565b600073ffffffffffffffffffffffffffffffffffffffff168173ffffffffffffffffffffffffffffffffffffffff161415613f3f576040517f08c379a0000000000000000000000000000000000000000000000000000000008152600401613f3690615b4c565b60405180910390fd5b613f5381600261431d90919063ffffffff16565b3373ffffffffffffffffffffffffffffffffffffffff167fa58cff07db0adda3ab7a40bd2f18ab57210bf38391a52ffd2e8eee6b8bdec71a60405160405180910390a250565b600073ffffffffffffffffffffffffffffffffffffffff168173ffffffffffffffffffffffffffffffffffffffff161415614009576040517f08c379a000000000000000000000000000000000000000000000000000000000815260040161400090615b4c565b60405180910390fd5b61401d81600061431d90919063ffffffff16565b3373ffffffffffffffffffffffffffffffffffffffff168173ffffffffffffffffffffffffffffffffffffffff167fbf3f493c772c8c283fd124432c2d0f539ab343faa04258fe88e52912d36b102b60405160405180910390a350565b600073ffffffffffffffffffffffffffffffffffffffff168173ffffffffffffffffffffffffffffffffffffffff1614156140ea576040517f08c379a00000000000000000000000000000000000000000000000000000000081526004016140e190615b4c565b60405180910390fd5b6140fe8160016143c590919063ffffffff16565b3373ffffffffffffffffffffffffffffffffffffffff168173ffffffffffffffffffffffffffffffffffffffff167fb35968fdda9034197de288afbe8a2947dedade83d7dbc0de3e340d4f62ce64dc60405160405180910390a350565b600073ffffffffffffffffffffffffffffffffffffffff168173ffffffffffffffffffffffffffffffffffffffff1614156141cb576040517f08c379a00000000000000000000000000000000000000000000000000000000081526004016141c290615b4c565b60405180910390fd5b6141df8160026143c590919063ffffffff16565b3373ffffffffffffffffffffffffffffffffffffffff168173ffffffffffffffffffffffffffffffffffffffff167fd00481c3fc5867ec74704c9c99334b8d53c7735c947bdcb6cbebcae6740ed94060405160405180910390a350565b600073ffffffffffffffffffffffffffffffffffffffff168173ffffffffffffffffffffffffffffffffffffffff1614156142ac576040517f08c379a00000000000000000000000000000000000000000000000000000000081526004016142a390615b4c565b60405180910390fd5b6142c081600161431d90919063ffffffff16565b3373ffffffffffffffffffffffffffffffffffffffff168173ffffffffffffffffffffffffffffffffffffffff167f93b0ab94930bbad064296971ea5e731f84ae511662781bcaf28543ab9042368a60405160405180910390a350565b6143278282613e07565b15614367576040517f08c379a000000000000000000000000000000000000000000000000000000000815260040161435e90615a6c565b60405180910390fd5b60018260000160008373ffffffffffffffffffffffffffffffffffffffff1673ffffffffffffffffffffffffffffffffffffffff16815260200190815260200160002060006101000a81548160ff0219169083151502179055505050565b6143cf8282613e07565b61440e576040517f08c379a000000000000000000000000000000000000000000000000000000000815260040161440590615acc565b60405180910390fd5b60008260000160008373ffffffffffffffffffffffffffffffffffffffff1673ffffffffffffffffffffffffffffffffffffffff16815260200190815260200160002060006101000a81548160ff0219169083151502179055505050565b6040518060e001604052806060815260200160008152602001600081526020016060815260200160608152602001606081526020016000151581525090565b828054600181600116156101000203166002900490600052602060002090601f016020900481019282601f106144ec57805160ff191683800117855561451a565b8280016001018555821561451a579182015b828111156145195782518255916020019190600101906144fe565b5b509050614527919061462c565b5090565b82805482825590600052602060002090810192821561457a579160200282015b828111156145795782518290805190602001906145699291906144ab565b509160200191906001019061454b565b5b5090506145879190614651565b5090565b6040518060e001604052806060815260200160608152602001606081526020016060815260200160608152602001606081526020016000151581525090565b604051806060016040528060608152602001600081526020016000151581525090565b6040518060e001604052806060815260200160608152602001606081526020016060815260200160608152602001600081526020016000151581525090565b61464e91905b8082111561464a576000816000905550600101614632565b5090565b90565b61467a91905b80821115614676576000818161466d919061467d565b50600101614657565b5090565b90565b50805460018160011615610100020316600290046000825580601f106146a357506146c2565b601f0160209004906000526020600020908101906146c1919061462c565b5b50565b6000813590506146d481615e36565b92915050565b600082601f8301126146eb57600080fd5b81356146fe6146f982615bd6565b615ba9565b9150818183526020840193506020810190508360005b83811015614744578135860161472a8882614763565b845260208401935060208301925050600181019050614714565b5050505092915050565b60008135905061475d81615e4d565b92915050565b600082601f83011261477457600080fd5b813561478761478282615bfe565b615ba9565b915080825260208301602083018583830111156147a357600080fd5b6147ae838284615da9565b50505092915050565b600082601f8301126147c857600080fd5b81356147db6147d682615c2a565b615ba9565b915080825260208301602083018583830111156147f757600080fd5b614802838284615da9565b50505092915050565b60008135905061481a81615e64565b92915050565b60008135905061482f81615e7b565b92915050565b60006020828403121561484757600080fd5b6000614855848285016146c5565b91505092915050565b6000806040838503121561487157600080fd5b600061487f858286016146c5565b925050602083013567ffffffffffffffff81111561489c57600080fd5b6148a8858286016147b7565b9150509250929050565b6000806000606084860312156148c757600080fd5b60006148d5868287016146c5565b935050602084013567ffffffffffffffff8111156148f257600080fd5b6148fe868287016147b7565b925050604084013567ffffffffffffffff81111561491b57600080fd5b614927868287016147b7565b9150509250925092565b60008060008060008060c0878903121561494a57600080fd5b600061495889828a016146c5565b965050602087013567ffffffffffffffff81111561497557600080fd5b61498189828a016147b7565b955050604087013567ffffffffffffffff81111561499e57600080fd5b6149aa89828a016147b7565b945050606087013567ffffffffffffffff8111156149c757600080fd5b6149d389828a016147b7565b935050608087013567ffffffffffffffff8111156149f057600080fd5b6149fc89828a016147b7565b92505060a087013567ffffffffffffffff811115614a1957600080fd5b614a2589828a016147b7565b9150509295509295509295565b600080600080600080600060e0888a031215614a4d57600080fd5b6000614a5b8a828b016146c5565b975050602088013567ffffffffffffffff811115614a7857600080fd5b614a848a828b016147b7565b965050604088013567ffffffffffffffff811115614aa157600080fd5b614aad8a828b016147b7565b955050606088013567ffffffffffffffff811115614aca57600080fd5b614ad68a828b016147b7565b945050608088013567ffffffffffffffff811115614af357600080fd5b614aff8a828b016147b7565b93505060a088013567ffffffffffffffff811115614b1c57600080fd5b614b288a828b016147b7565b92505060c088013567ffffffffffffffff811115614b4557600080fd5b614b518a828b016147b7565b91505092959891949750929550565b600080600080600080600060e0888a031215614b7b57600080fd5b6000614b898a828b016146c5565b975050602088013567ffffffffffffffff811115614ba657600080fd5b614bb28a828b016147b7565b9650506040614bc38a828b0161480b565b9550506060614bd48a828b0161480b565b945050608088013567ffffffffffffffff811115614bf157600080fd5b614bfd8a828b016147b7565b93505060a088013567ffffffffffffffff811115614c1a57600080fd5b614c268a828b016147b7565b92505060c088013567ffffffffffffffff811115614c4357600080fd5b614c4f8a828b016146da565b91505092959891949750929550565b600080600080600080600080610100898b031215614c7b57600080fd5b6000614c898b828c016146c5565b985050602089013567ffffffffffffffff811115614ca657600080fd5b614cb28b828c016147b7565b9750506040614cc38b828c01614820565b9650506060614cd48b828c01614820565b955050608089013567ffffffffffffffff811115614cf157600080fd5b614cfd8b828c016147b7565b94505060a089013567ffffffffffffffff811115614d1a57600080fd5b614d268b828c016147b7565b93505060c089013567ffffffffffffffff811115614d4357600080fd5b614d4f8b828c016146da565b92505060e0614d608b828c01614820565b9150509295985092959890939650565b60008060408385031215614d8357600080fd5b6000614d91858286016146c5565b9250506020614da285828601614820565b9150509250929050565b600060208284031215614dbe57600080fd5b6000614dcc8482850161474e565b91505092915050565b60008060008060008060c08789031215614dee57600080fd5b600087013567ffffffffffffffff811115614e0857600080fd5b614e1489828a016147b7565b965050602087013567ffffffffffffffff811115614e3157600080fd5b614e3d89828a016147b7565b955050604087013567ffffffffffffffff811115614e5a57600080fd5b614e6689828a016147b7565b945050606087013567ffffffffffffffff811115614e8357600080fd5b614e8f89828a016147b7565b935050608087013567ffffffffffffffff811115614eac57600080fd5b614eb889828a016147b7565b92505060a087013567ffffffffffffffff811115614ed557600080fd5b614ee189828a016147b7565b9150509295509295509295565b6000614efa838361514f565b905092915050565b6000614f0e8383615530565b60208301905092915050565b6000614f2582615c8b565b614f2f8185615ce9565b935083602082028501614f4185615c56565b8060005b85811015614f7d5784840389528151614f5e8582614eee565b9450614f6983615cc2565b925060208a01995050600181019050614f45565b50829750879550505050505092915050565b6000614f9a82615c8b565b614fa48185615cfa565b935083602082028501614fb685615c56565b8060005b85811015614ff25784840389528151614fd38582614eee565b9450614fde83615cc2565b925060208a01995050600181019050614fba565b50829750879550505050505092915050565b600061500f82615c96565b6150198185615d0b565b935061502483615c66565b8060005b8381101561505557815161503c8882614f02565b975061504783615ccf565b925050600181019050615028565b5085935050505092915050565b600061506d82615ca1565b6150778185615d0b565b935061508283615c76565b8060005b838110156150ba5761509782615e05565b6150a18882614f02565b97506150ac83615cdc565b925050600181019050615086565b5085935050505092915050565b6150d081615d65565b82525050565b6150df81615d65565b82525050565b60006150f082615cb7565b6150fa8185615d2d565b935061510a818560208601615db8565b61511381615e18565b840191505092915050565b600061512982615cb7565b6151338185615d3e565b9350615143818560208601615db8565b80840191505092915050565b600061515a82615cac565b6151648185615d1c565b9350615174818560208601615db8565b61517d81615e18565b840191505092915050565b600061519382615cac565b61519d8185615d2d565b93506151ad818560208601615db8565b6151b681615e18565b840191505092915050565b60006151ce601f83615d2d565b91507f526f6c65733a206163636f756e7420616c72656164792068617320726f6c65006000830152602082019050919050565b600061520e602d83615d2d565b91507f4e6f207365206375656e746120636f6e20656c20726f6c20657370656369666960008301527f6361646f284dc3a96469636f29000000000000000000000000000000000000006020830152604082019050919050565b6000615274600b83615d2d565b91507f506167616c65206d696a6f0000000000000000000000000000000000000000006000830152602082019050919050565b60006152b4602183615d2d565b91507f526f6c65733a206163636f756e7420646f6573206e6f74206861766520726f6c60008301527f65000000000000000000000000000000000000000000000000000000000000006020830152604082019050919050565b600061531a602283615d2d565b91507f526f6c65733a206163636f756e7420697320746865207a65726f20616464726560008301527f73730000000000000000000000000000000000000000000000000000000000006020830152604082019050919050565b6000615380602b83615d2d565b91507f4e6f207365206375656e746120636f6e20656c20726f6c20657370656369666960008301527f6361646f2841646d696e290000000000000000000000000000000000000000006020830152604082019050919050565b60006153e6603883615d2d565b91507f4e6f207365206375656e746120636f6e20656c20726f6c20657370656369666960008301527f6361646f2850616369656e7465206f206dc3a96469636f2900000000000000006020830152604082019050919050565b600061544c601983615d2d565b91507f4572726f7220656e206c612061646472657373207573616461000000000000006000830152602082019050919050565b600060e083016000830151848203600086015261549c828261514f565b91505060208301516154b16020860182615530565b5060408301516154c46040860182615530565b50606083015184820360608601526154dc828261514f565b915050608083015184820360808601526154f6828261514f565b91505060a083015184820360a08601526155108282614f1a565b91505060c083015161552560c08601826150c7565b508091505092915050565b61553981615d9f565b82525050565b61554881615d9f565b82525050565b600061555a828461511e565b915081905092915050565b6000602082019050818103600083015261557f8184615004565b905092915050565b600060208201905081810360008301526155a18184615062565b905092915050565b60006020820190506155be60008301846150d6565b92915050565b600060208201905081810360008301526155de8184615188565b905092915050565b6000602082019050818103600083015261560081846150e5565b905092915050565b6000604082019050818103600083015261562281856150e5565b9050818103602083015261563681846150e5565b90509392505050565b600060c082019050818103600083015261565981896150e5565b9050818103602083015261566d81886150e5565b9050818103604083015261568181876150e5565b9050818103606083015261569581866150e5565b905081810360808301526156a981856150e5565b90506156b860a083018461553f565b979650505050505050565b600060408201905081810360008301526156dd81856150e5565b90506156ec602083018461553f565b9392505050565b600060e082019050818103600083015261570d818a615188565b905081810360208301526157218189615188565b905081810360408301526157358188615188565b905081810360608301526157498187615188565b9050818103608083015261575d8186615188565b905081810360a08301526157718185615188565b905061578060c08301846150d6565b98975050505050505050565b600060e08201905081810360008301526157a6818a615188565b905081810360208301526157ba8189615188565b905081810360408301526157ce8188615188565b905081810360608301526157e28187615188565b905081810360808301526157f68186615188565b905081810360a083015261580a8185615188565b905061581960c083018461553f565b98975050505050505050565b600060e082019050818103600083015261583f818a615188565b905081810360208301526158538189615188565b905081810360408301526158678188615188565b9050818103606083015261587b8187615188565b9050818103608083015261588f8186615188565b905061589e60a083018561553f565b6158ab60c08301846150d6565b98975050505050505050565b600060e08201905081810360008301526158d1818a615188565b905081810360208301526158e58189615188565b905081810360408301526158f98188615188565b9050818103606083015261590d8187615188565b905081810360808301526159218186615188565b905061593060a083018561553f565b61593d60c083018461553f565b98975050505050505050565b600060408201905081810360008301526159638185615188565b9050615972602083018461553f565b9392505050565b600060c08201905081810360008301526159938189615188565b90506159a2602083018861553f565b6159af604083018761553f565b81810360608301526159c18186615188565b905081810360808301526159d58185615188565b905081810360a08301526159e98184614f8f565b9050979650505050505050565b600060c0820190508181036000830152615a108189615188565b9050615a1f602083018861553f565b615a2c604083018761553f565b8181036060830152615a3e8186615188565b90508181036080830152615a528185615188565b9050615a6160a08301846150d6565b979650505050505050565b60006020820190508181036000830152615a85816151c1565b9050919050565b60006020820190508181036000830152615aa581615201565b9050919050565b60006020820190508181036000830152615ac581615267565b9050919050565b60006020820190508181036000830152615ae5816152a7565b9050919050565b60006020820190508181036000830152615b058161530d565b9050919050565b60006020820190508181036000830152615b2581615373565b9050919050565b60006020820190508181036000830152615b45816153d9565b9050919050565b60006020820190508181036000830152615b658161543f565b9050919050565b60006020820190508181036000830152615b86818461547f565b905092915050565b6000602082019050615ba3600083018461553f565b92915050565b6000604051905081810181811067ffffffffffffffff82111715615bcc57600080fd5b8060405250919050565b600067ffffffffffffffff821115615bed57600080fd5b602082029050602081019050919050565b600067ffffffffffffffff821115615c1557600080fd5b601f19601f8301169050602081019050919050565b600067ffffffffffffffff821115615c4157600080fd5b601f19601f8301169050602081019050919050565b6000819050602082019050919050565b6000819050602082019050919050565b60008190508160005260206000209050919050565b600081519050919050565b600081519050919050565b600081549050919050565b600081519050919050565b600081519050919050565b6000602082019050919050565b6000602082019050919050565b6000600182019050919050565b600082825260208201905092915050565b600082825260208201905092915050565b600082825260208201905092915050565b600082825260208201905092915050565b600082825260208201905092915050565b600081905092915050565b6000819050919050565b6000615d5e82615d7f565b9050919050565b60008115159050919050565b600061ffff82169050919050565b600073ffffffffffffffffffffffffffffffffffffffff82169050919050565b6000819050919050565b82818337600083830152505050565b60005b83811015615dd6578082015181840152602081019050615dbb565b83811115615de5576000848401525b50505050565b6000615dfe615df983615e29565b615d49565b9050919050565b6000615e118254615deb565b9050919050565b6000601f19601f8301169050919050565b60008160001c9050919050565b615e3f81615d53565b8114615e4a57600080fd5b50565b615e5681615d65565b8114615e6157600080fd5b50565b615e6d81615d71565b8114615e7857600080fd5b50565b615e8481615d9f565b8114615e8f57600080fd5b5056fea365627a7a72315820fe88dd8cfe5ded46f705deb70f1f9ea75ab6372c49df29802c0cb8c736b3654c6c6578706572696d656e74616cf564736f6c63430005100040",
  "source": "pragma solidity 0.5.16;\r\npragma experimental ABIEncoderV2;\r\n\r\nimport \"./PatientRecords.sol\";\r\n\r\n/**\r\n * @title Smart Contract de Diagnstico de pacientes - Control de Diagnstico realizado por el mdico.\r\n * @author Francisco Alemn\r\n * @notice Este contrato representa el registro de un Diagnstico asociado a una persona.\r\n * @dev El contrato hereda las funciones del contrato de roles\r\n */\r\n\r\ncontract PatientDiagnosis is PatientRecords {\r\n\r\n    /**\r\n     * @title Representa un Dignostico el cual le pertenece a un paciente.\r\n     */\r\n    struct Diagnostico {\r\n        string comorb;\r\n        uint256 age;\r\n        uint256 weight;\r\n        string diagnostic;\r\n        string observations;\r\n        string[] estudio;\r\n        bool isDiag;\r\n    }\r\n\r\n    /**\r\n     * @title Representa un Estudio el cual le pertenece a un paciente.\r\n     */\r\n    struct Paciente {\r\n        string nombre;\r\n        string curp;\r\n        string tipoSangre;\r\n        string sexo;\r\n        string hashCredencial;\r\n        string hashFoto;\r\n        bool isPatient;\r\n    }\r\n\r\n    /**\r\n     * @notice Mapea el paciente a su diagnstico..\r\n     */\r\n    mapping (address => mapping (uint256 => Diagnostico)) public fileToPatientDiagnosis;\r\n    mapping (address => uint256[]) public extendedFileToPatientDiagnosis;\r\n    mapping (address => Paciente) public fileToPatient;\r\n    /**\r\n     * @notice Patrn de switch para encender/apagar\r\n     */\r\n    bool private stopped = false;\r\n\r\n    /**\r\n     * @dev Eventos que sern registrados en la blockchain.\r\n     */\r\n    event DiagnosticAdded(\r\n        address indexed _patient,\r\n        address indexed _medic,\r\n        uint256 _date\r\n        );\r\n\r\n    event DiagnosisUpdate(\r\n        address indexed _patient,\r\n        address indexed _medic,\r\n        uint256 _date\r\n        );\r\n\r\n    event DiagnosticRetrieve(\r\n        address indexed _patient,\r\n        address indexed _medic,\r\n        string _comorb,\r\n        uint256 _age,\r\n        uint256 _weight,\r\n        string _diagnostic,\r\n        string  _observations,\r\n        string[] _estudio\r\n        );\r\n\r\n    event FullDiagnosticRetrieve(\r\n        address indexed _patient,\r\n        address indexed _medic,\r\n        uint256[] _dates\r\n    );\r\n\r\n//    event DiagnosticDelete(\r\n//        address indexed _patient,\r\n//        address indexed _medic,\r\n//        uint256 _date\r\n//        );\r\n    event PatientAdded(\r\n        address indexed _patient,\r\n        uint256 whenWas\r\n        );\r\n\r\n    event PatientUpdate(\r\n        address indexed _patient,\r\n        address indexed _medic,\r\n        uint256 whenWas\r\n        );\r\n\r\n    event PatientRetrieve(\r\n        address indexed _patient,\r\n        address indexed _medic,\r\n        string _nombre,\r\n        string _curp,\r\n        string _tipoSangre,\r\n        string _sexo,\r\n        string _hashCredencial,\r\n        string _hashFoto,\r\n        uint256 whenWas\r\n        );\r\n\r\n//    event PatientDelete(\r\n//        address indexed _patient,\r\n//        address indexed _medic,\r\n//        uint256 _date\r\n//        );\r\n    /**\r\n    * @dev Indica que se ha puesto el contrato en pausa.\r\n    * @param _admin Un administrador\r\n    * @param _stop Indica cuando hay una pausa o una reanudacin.\r\n    */\r\n    event LogSwitchStop(\r\n        address indexed _admin,\r\n        bool _stop\r\n    );\r\n\r\n    /**\r\n    * @dev Previene de ejecucin del contrato\r\n    */\r\n    modifier nonlyStopped {\r\n        require(!stopped);\r\n        _;\r\n    }\r\n\r\n    /**\r\n    * @dev Est funcin ser llamada para todos los mensajes que sean enviados a este contrado.\r\n    * Enviar Ether a este contrato ocasionar una excepcin, dado que las funciones no tienen un modificador de pago.\r\n    */\r\n    function () external payable {}\r\n\r\n    function patientDiagnosis(address _account, uint256 _timeStamp) public view returns (Diagnostico memory diag) {\r\n        return fileToPatientDiagnosis[_account][_timeStamp];\r\n    }\r\n\r\n    function extendedIsDiag(address _account) public view returns (bool isIndeed) {\r\n        return extendedFileToPatientDiagnosis[_account].length >= 0;\r\n    }\r\n\r\n    function isDiag(address entityAddress, uint256 date) public view returns(bool isIndeed) {\r\n        return fileToPatientDiagnosis[entityAddress][date].isDiag;\r\n    }\r\n\r\n    function isPaciente(address entityAddress) public view returns(bool isIndeed) {\r\n        return fileToPatient[entityAddress].isPatient;\r\n    }\r\n\r\n    /**\r\n   * @dev Funcin de creacin de Diagnstico. Esta funcin es realizada por un doctor.\r\n   * @param _account a\r\n   * @param _age a\r\n   * @param _weight a\r\n   * @param _diagnostic a\r\n   * @param _observations a\r\n   *@param _date a\r\n   * @return _success a\r\n   */\r\n    function addDiagnostic(\r\n        address _account,\r\n        string memory _comorb,\r\n        uint16 _age,\r\n        uint16 _weight,\r\n        string memory _diagnostic,\r\n        string memory _observations,\r\n        string[] memory _estudio\r\n        )\r\n    public nonlyStopped onlyMedic returns (bool _success) {\r\n        require(_account != address(0));\r\n        require(extendedIsDiag(_account));\r\n        require(isPatient(_account) && isMedic(msg.sender));\r\n        require(bytes(_comorb).length < 50);\r\n        require(_age < 120);\r\n        require(_weight < 700);\r\n        require(bytes(_diagnostic).length < 256);\r\n        require(bytes(_observations).length < 512);\r\n\r\n        uint256 _date = now;\r\n        Diagnostico memory diagnostico = Diagnostico(\r\n            _comorb,\r\n            _age,\r\n            _weight,\r\n            _diagnostic,\r\n            _observations,\r\n            _estudio,\r\n            true\r\n        );\r\n\r\n        fileToPatientDiagnosis[_account][_date] = diagnostico;\r\n        extendedFileToPatientDiagnosis[_account].push(_date);\r\n\r\n        emit DiagnosticAdded(\r\n            _account,\r\n            msg.sender,\r\n            _date\r\n        );\r\n        _success = true;\r\n    }\r\n\r\n    /**\r\n   * @dev Funcin de creacin de Diagnstico. Esta funcin es realizada por un doctor.\r\n   * @return _success a\r\n   */\r\n    function patientSelfReg(\r\n        string memory _nombre,\r\n        string memory _curp,\r\n        string memory _tipoSangre,\r\n        string memory _sexo,\r\n        string memory _hashCredencial,\r\n        string memory _hashFoto\r\n        )\r\n    public payable nonlyStopped returns (bool _success) {\r\n        require(msg.value == 0.05 ether, \"Pagale mijo\");\r\n        require(bytes(_nombre).length < 50);\r\n        require(bytes(_curp).length == 18);\r\n        require(bytes(_tipoSangre).length < 8);\r\n        require(bytes(_sexo).length < 10);\r\n        require(bytes(_hashCredencial).length == 46);\r\n        require(bytes(_hashFoto).length == 46);\r\n\r\n        Paciente memory paciente = Paciente(\r\n            _nombre,\r\n            _curp,\r\n            _tipoSangre,\r\n            _sexo,\r\n            _hashCredencial,\r\n            _hashFoto,\r\n            true\r\n        );\r\n\r\n        fileToPatient[msg.sender] = paciente;\r\n        addPatient(msg.sender);\r\n\r\n        emit PatientAdded(\r\n            msg.sender,\r\n            now\r\n        );\r\n        _success = true;\r\n    }\r\n\r\n    /**\r\n    * @notice Returns el Diagnstico en el ndice del propietario de la direccin.\r\n    * @dev Controlado por el switch\r\n    * @param _account Cuenta del paciente\r\n    */\r\n    function updateDiagnostic(\r\n        address _account,\r\n        string memory _comorb,\r\n        uint256 _age,\r\n        uint256 _weight,\r\n        string memory _diagnostic,\r\n        string memory _observations,\r\n        string[] memory _estudio,\r\n        uint256 _date\r\n        )\r\n    public nonlyStopped onlyMedic returns (bool _success) {\r\n        require(_account != address(0));\r\n        require(isDiag(_account, _date));\r\n        require(bytes(_comorb).length < 256);\r\n        require(_age < 120);\r\n        require(_weight < 700);\r\n        require(bytes(_diagnostic).length < 50);\r\n        require(bytes(_observations).length < 512);\r\n        require(_date >= 0 && _date <= 2**256 - 1);\r\n        require(_estudio.length > 0);\r\n\r\n        Diagnostico memory diagnostico = Diagnostico(\r\n            _comorb,\r\n            _age,\r\n            _weight,\r\n            _diagnostic,\r\n            _observations,\r\n            _estudio,\r\n            true\r\n        );\r\n\r\n        fileToPatientDiagnosis[_account][_date] = diagnostico;\r\n\r\n        emit DiagnosisUpdate(\r\n            _account,\r\n            msg.sender,\r\n            now\r\n        );\r\n        _success = true;\r\n    }\r\n\r\n    /**\r\n   * @dev Funcin de creacin de Diagnstico. Esta funcin es realizada por un doctor.\r\n   * @param _account a\r\n   * @return _success a\r\n   */\r\n    function selfUpdatePatient(\r\n        address _account,\r\n        string memory _nombre,\r\n        string memory _curp,\r\n        string memory _tipoSangre,\r\n        string memory _sexo,\r\n        string memory _hashCredencial,\r\n        string memory _hashFoto\r\n        )\r\n    public payable nonlyStopped onlyPatient returns (bool _success) {\r\n        require(_account != address(0));\r\n        require(msg.value == 0.03 ether);\r\n        require(bytes(_nombre).length < 50);\r\n        require(bytes(_curp).length == 18);\r\n        require(bytes(_tipoSangre).length < 8);\r\n        require(bytes(_sexo).length < 10);\r\n        require(bytes(_hashCredencial).length == 46);\r\n        require(bytes(_hashFoto).length == 46);\r\n\r\n        Paciente memory paciente = Paciente(\r\n            _nombre,\r\n            _curp,\r\n            _tipoSangre,\r\n            _sexo,\r\n            _hashCredencial,\r\n            _hashFoto,\r\n            true\r\n        );\r\n\r\n        fileToPatient[_account] = paciente;\r\n\r\n        emit PatientUpdate(\r\n            _account,\r\n            msg.sender,\r\n            now\r\n        );\r\n        _success = true;\r\n    }\r\n\r\n    /**\r\n    * @notice Returns el Diagnstico en el ndice del propietario de la direccin.\r\n    * @dev Controlado por el switch\r\n    * @param _account The owner address\r\n    * @return _date The uploaded timestamp\r\n    */\r\n    function viewDiagnostic(address _account, uint256 _date) public nonlyStopped onlyPatient returns (\r\n        bool _success\r\n        ) {\r\n        require(_account != address(0));\r\n        require(_date >= 0 && _date <= 2**256 - 1);\r\n        require(isDiag(_account, _date));\r\n        Diagnostico memory diagnostico = patientDiagnosis(_account, _date);\r\n        if (isMedic(msg.sender) && isPatient(msg.sender)) {\r\n            require(msg.sender != _account || msg.sender == _account);\r\n        } else if (isMedic(msg.sender)) {\r\n            require(msg.sender != _account);\r\n        } else if (isPatient(msg.sender)) {\r\n            require(msg.sender == _account);\r\n        }\r\n        emit DiagnosticRetrieve(\r\n            _account,\r\n            msg.sender,\r\n            diagnostico.comorb,\r\n            diagnostico.age,\r\n            diagnostico.weight,\r\n            diagnostico.diagnostic,\r\n            diagnostico.observations,\r\n            diagnostico.estudio\r\n        );\r\n        _success = true;\r\n    }\r\n\r\n    /**\r\n   * @dev Funcin de creacin de Diagnstico. Esta funcin es realizada por un doctor.\r\n   * @param _account a\r\n   */\r\n    function retrievePatient(\r\n        address _account\r\n        )\r\n    public payable nonlyStopped onlyPatient returns (\r\n            string memory _hashCredencial,\r\n            string memory _hashFoto\r\n        ) {\r\n        require(_account != address(0));\r\n        require(msg.value == 0.001 ether);\r\n\r\n        Paciente memory paciente = fileToPatient[_account];\r\n\r\n        emit PatientRetrieve(\r\n            _account,\r\n            msg.sender,\r\n            paciente.nombre,\r\n            paciente.curp,\r\n            paciente.tipoSangre,\r\n            paciente.sexo,\r\n            paciente.hashCredencial,\r\n            paciente.hashFoto,\r\n            now\r\n        );\r\n\r\n        _hashCredencial = paciente.hashCredencial;\r\n        _hashFoto = paciente.hashFoto;\r\n    }\r\n\r\n    /**\r\n    * @notice Returns el Diagnstico en el ndice del propietario de la direccin.\r\n    * @dev Controlado por el switch\r\n    * @param _account The owner address\r\n    * @return _date The uploaded timestamp\r\n    */\r\n    function extendedViewDiagnostic(\r\n        address _account\r\n        )\r\n    public nonlyStopped onlyPatient returns (uint256[] memory _dates) {\r\n        require(_account != address(0));\r\n        require(extendedIsDiag(_account));\r\n        if (isMedic(msg.sender) && isPatient(msg.sender)) {\r\n            require(msg.sender != _account || msg.sender == _account);\r\n        } else if (isMedic(msg.sender)) {\r\n            require(msg.sender != _account);\r\n        } else if (isPatient(msg.sender)) {\r\n            require(msg.sender == _account);\r\n        }\r\n        emit FullDiagnosticRetrieve(\r\n            _account,\r\n            msg.sender,\r\n            extendedFileToPatientDiagnosis[_account]\r\n        );\r\n        _dates = extendedFileToPatientDiagnosis[_account];\r\n    }\r\n\r\n    /**\r\n    * @notice Returns el estudio en el ndice del propietario de la direccin.\r\n    * @dev Controlado por el switch\r\n    * @param _account The owner address\r\n    * @return _uploadDate The uploaded timestamp\r\n    */\r\n//    function deleteDiagnostic(address _account, uint256 _date) public nonlyStopped onlyMedic returns (bool _success) {\r\n//        require(_account != address(0));\r\n//        require(isDiag(_account, _date));\r\n//        require(_date >= 0 && _date <= 2**256 - 1);\r\n//\r\n//        fileToPatientDiagnosis[_account][_date].isDiag = false;\r\n//\r\n//        emit DiagnosticDelete(\r\n//            _account,\r\n//            msg.sender,\r\n//            _date\r\n//        );\r\n//        _success = true;\r\n//    }\r\n\r\n}\r\n",
  "sourcePath": "D:\\Mega-AC1982\\Develop\\Block-Chain\\v1.1\\MedicalHistory-BlockChainProject\\frontend\\truffle\\contracts\\PatientDiagnosis.sol",
  "compiler": {
    "name": "solc",
    "version": "0.5.16+commit.9c3226ce.Emscripten.clang"
  },
  "schemaVersion": "3.1.0",
  "updatedAt": "2020-04-29T07:14:34.442Z",
  "devdoc": {
    "author": "Francisco Alemn",
    "details": "El contrato hereda las funciones del contrato de roles",
    "methods": {
      "addAdmin(address)": {
        "details": "Funcin pblica para asignar admin",
        "params": {
          "account": "Cuenta que ser asignada como admin"
        }
      },
      "addDiagnostic(address,string,uint16,uint16,string,string,string[])": {
        "details": "Funcin de creacin de Diagnstico. Esta funcin es realizada por un doctor.",
        "params": {
          "_account": "a",
          "_age": "a",
          "_diagnostic": "a",
          "_observations": "a param _date a",
          "_weight": "a"
        },
        "return": "_success a"
      },
      "addMedic(address)": {
        "details": "Funcin pblica para asignar mdico",
        "params": {
          "account": "Cuenta que ser asignada como mdico"
        }
      },
      "addMedics(address,string,string,string,string,string)": {
        "details": "Funcin para agregar un mdico. Esta funcin es realizada por un administrador.",
        "params": {
          "_account": "a",
          "_cedula": "a",
          "_email": "a",
          "_hashPicture": "a",
          "_name": "a",
          "_specialty": "a"
        },
        "return": "_success a"
      },
      "addPatient(address)": {
        "details": "Funcin pblica para asignar paciente",
        "params": {
          "account": "Cuenta que ser asignada como paciente"
        }
      },
      "addRecord(address,string,string)": {
        "details": "Funcin de creacin de Estudio. Esta funcin es realizada por un doctor.",
        "params": {
          "_account": "a",
          "_ipfsHash": "a"
        },
        "return": "_success a"
      },
      "emergencyStop(bool)": {
        "params": {
          "_stop": "Switch del contrado de encendido/apagado"
        }
      },
      "extendedViewDiagnostic(address)": {
        "details": "Controlado por el switch",
        "params": {
          "_account": "The owner address"
        },
        "return": "_date The uploaded timestamp"
      },
      "isAdmin(address)": {
        "params": {
          "account": "Cuenta donde se validar el rol."
        },
        "return": "true si la cuenta tiene rol de admin"
      },
      "isMedic(address)": {
        "params": {
          "account": "Cuenta donde se validar el rol."
        },
        "return": "true si la cuenta tiene rol de mdico"
      },
      "isPatient(address)": {
        "params": {
          "account": "Cuenta donde se validar el rol."
        },
        "return": "true si la cuenta tiene rol de paciente"
      },
      "patientSelfReg(string,string,string,string,string,string)": {
        "details": "Funcin de creacin de Diagnstico. Esta funcin es realizada por un doctor.",
        "return": "_success a"
      },
      "removeMedic(address)": {
        "details": "Funcin pblica para remover mdico",
        "params": {
          "account": "Cuenta que ser removida de mdico"
        }
      },
      "removePatient(address)": {
        "details": "Remover a rol de paciente. Quien invoque al contrato no volver a ser paciente."
      },
      "retrievePatient(address)": {
        "details": "Funcin de creacin de Diagnstico. Esta funcin es realizada por un doctor.",
        "params": {
          "_account": "a"
        }
      },
      "selfUpdatePatient(address,string,string,string,string,string,string)": {
        "details": "Funcin de creacin de Diagnstico. Esta funcin es realizada por un doctor.",
        "params": {
          "_account": "a"
        },
        "return": "_success a"
      },
      "updateDiagnostic(address,string,uint256,uint256,string,string,string[],uint256)": {
        "details": "Controlado por el switch",
        "params": {
          "_account": "Cuenta del paciente"
        }
      },
      "updateRecord(address,string,string)": {
        "details": "Controlado por el switch",
        "params": {
          "_account": "Cuenta del paciente"
        },
        "return": "_ipfsHash The IPFS hash"
      },
      "viewDiagnostic(address,uint256)": {
        "details": "Controlado por el switch",
        "params": {
          "_account": "The owner address"
        },
        "return": "_date The uploaded timestamp"
      },
      "viewMedics(address,uint256)": {
        "details": "Controlado por el switch",
        "params": {
          "_account": "The owner address"
        },
        "return": "_date The uploaded timestamp"
      },
      "viewRecords(address,string)": {
        "details": "Controlado por el switch",
        "params": {
          "_account": "The owner address"
        },
        "return": "_uploadDate The uploaded timestamp"
      }
    },
    "title": "Smart Contract de Diagnstico de pacientes - Control de Diagnstico realizado por el mdico."
  },
  "userdoc": {
    "methods": {
      "emergencyStop(bool)": {
        "notice": "Pausar el contrato Se detiene el contrato bajo ciertas condiciones. Sera til cuando nuevos errores sean descubiertos."
      },
      "extendedViewDiagnostic(address)": {
        "notice": "Returns el Diagnstico en el ndice del propietario de la direccin."
      },
      "updateDiagnostic(address,string,uint256,uint256,string,string,string[],uint256)": {
        "notice": "Returns el Diagnstico en el ndice del propietario de la direccin."
      },
      "updateRecord(address,string,string)": {
        "notice": "Returns el estudio en el ndice del propietario de la direccin."
      },
      "viewDiagnostic(address,uint256)": {
        "notice": "Returns el Diagnstico en el ndice del propietario de la direccin."
      },
      "viewMedics(address,uint256)": {
        "notice": "Returns el Medico en el ndice del propietario de la direccin."
      },
      "viewRecords(address,string)": {
        "notice": "Returns el estudio en el ndice del propietario de la direccin."
      }
    },
    "notice": "Este contrato representa el registro de un Diagnstico asociado a una persona."
  }
}