{
  "contractName": "PatientDiagnosis",
  "abi": [
    {
      "anonymous": false,
      "inputs": [
        {
          "indexed": true,
          "internalType": "address",
          "name": "newAdm",
          "type": "address"
        },
        {
          "indexed": true,
          "internalType": "address",
          "name": "whoAddedAdm",
          "type": "address"
        }
      ],
      "name": "AdminAdded",
      "type": "event"
    },
    {
      "anonymous": false,
      "inputs": [
        {
          "indexed": true,
          "internalType": "address",
          "name": "accountRen",
          "type": "address"
        }
      ],
      "name": "AdminRenounce",
      "type": "event"
    },
    {
      "anonymous": false,
      "inputs": [
        {
          "indexed": true,
          "internalType": "address",
          "name": "newAssistant",
          "type": "address"
        },
        {
          "indexed": true,
          "internalType": "address",
          "name": "whoAddedAssistant",
          "type": "address"
        }
      ],
      "name": "AssistantAdded",
      "type": "event"
    },
    {
      "anonymous": false,
      "inputs": [
        {
          "indexed": true,
          "internalType": "address",
          "name": "oldAssistant",
          "type": "address"
        },
        {
          "indexed": true,
          "internalType": "address",
          "name": "whoRemovedAssistant",
          "type": "address"
        }
      ],
      "name": "AssistantRemoved",
      "type": "event"
    },
    {
      "anonymous": false,
      "inputs": [
        {
          "indexed": true,
          "internalType": "address",
          "name": "_patient",
          "type": "address"
        },
        {
          "indexed": true,
          "internalType": "address",
          "name": "_medic",
          "type": "address"
        },
        {
          "indexed": false,
          "internalType": "string",
          "name": "_comorb",
          "type": "string"
        },
        {
          "indexed": false,
          "internalType": "uint256",
          "name": "_age",
          "type": "uint256"
        },
        {
          "indexed": false,
          "internalType": "uint256",
          "name": "_weight",
          "type": "uint256"
        },
        {
          "indexed": false,
          "internalType": "string",
          "name": "_diagnostic",
          "type": "string"
        },
        {
          "indexed": false,
          "internalType": "string",
          "name": "_observations",
          "type": "string"
        }
      ],
      "name": "DiagnosisUpdate",
      "type": "event"
    },
    {
      "anonymous": false,
      "inputs": [
        {
          "indexed": true,
          "internalType": "address",
          "name": "_patient",
          "type": "address"
        },
        {
          "indexed": true,
          "internalType": "address",
          "name": "_medic",
          "type": "address"
        },
        {
          "indexed": false,
          "internalType": "uint256",
          "name": "_date",
          "type": "uint256"
        }
      ],
      "name": "DiagnosticDelete",
      "type": "event"
    },
    {
      "anonymous": false,
      "inputs": [
        {
          "indexed": true,
          "internalType": "address",
          "name": "_patient",
          "type": "address"
        },
        {
          "indexed": true,
          "internalType": "address",
          "name": "_medic",
          "type": "address"
        },
        {
          "indexed": false,
          "internalType": "string",
          "name": "_comorb",
          "type": "string"
        },
        {
          "indexed": false,
          "internalType": "uint256",
          "name": "_age",
          "type": "uint256"
        },
        {
          "indexed": false,
          "internalType": "uint256",
          "name": "_weight",
          "type": "uint256"
        },
        {
          "indexed": false,
          "internalType": "string",
          "name": "_diagnostic",
          "type": "string"
        },
        {
          "indexed": false,
          "internalType": "string",
          "name": "_observations",
          "type": "string"
        }
      ],
      "name": "DiagnosticRetrieve",
      "type": "event"
    },
    {
      "anonymous": false,
      "inputs": [
        {
          "indexed": true,
          "internalType": "address",
          "name": "_patient",
          "type": "address"
        },
        {
          "indexed": true,
          "internalType": "address",
          "name": "_medic",
          "type": "address"
        },
        {
          "indexed": false,
          "internalType": "string",
          "name": "_comorb",
          "type": "string"
        },
        {
          "indexed": false,
          "internalType": "uint256",
          "name": "_age",
          "type": "uint256"
        },
        {
          "indexed": false,
          "internalType": "uint256",
          "name": "_weight",
          "type": "uint256"
        },
        {
          "indexed": false,
          "internalType": "string",
          "name": "_diagnostic",
          "type": "string"
        },
        {
          "indexed": false,
          "internalType": "string",
          "name": "_observations",
          "type": "string"
        },
        {
          "indexed": false,
          "internalType": "uint256",
          "name": "_date",
          "type": "uint256"
        }
      ],
      "name": "DiagnosticdAdded",
      "type": "event"
    },
    {
      "anonymous": false,
      "inputs": [
        {
          "indexed": true,
          "internalType": "address",
          "name": "_patient",
          "type": "address"
        },
        {
          "indexed": true,
          "internalType": "address",
          "name": "_medic",
          "type": "address"
        },
        {
          "indexed": false,
          "internalType": "uint256[]",
          "name": "_dates",
          "type": "uint256[]"
        }
      ],
      "name": "FullDiagnosticRetrieve",
      "type": "event"
    },
    {
      "anonymous": false,
      "inputs": [
        {
          "indexed": true,
          "internalType": "address",
          "name": "_admin",
          "type": "address"
        },
        {
          "indexed": false,
          "internalType": "bool",
          "name": "_stop",
          "type": "bool"
        }
      ],
      "name": "LogSwitchStop",
      "type": "event"
    },
    {
      "anonymous": false,
      "inputs": [
        {
          "indexed": true,
          "internalType": "address",
          "name": "newMed",
          "type": "address"
        },
        {
          "indexed": true,
          "internalType": "address",
          "name": "whoAddedMed",
          "type": "address"
        }
      ],
      "name": "MedicAdded",
      "type": "event"
    },
    {
      "anonymous": false,
      "inputs": [
        {
          "indexed": true,
          "internalType": "address",
          "name": "oldMed",
          "type": "address"
        },
        {
          "indexed": true,
          "internalType": "address",
          "name": "whoRemovedMed",
          "type": "address"
        }
      ],
      "name": "MedicRemoved",
      "type": "event"
    },
    {
      "anonymous": false,
      "inputs": [
        {
          "indexed": true,
          "internalType": "address",
          "name": "medRen",
          "type": "address"
        }
      ],
      "name": "MedicRenounce",
      "type": "event"
    },
    {
      "anonymous": false,
      "inputs": [
        {
          "indexed": true,
          "internalType": "address",
          "name": "_medic",
          "type": "address"
        },
        {
          "indexed": true,
          "internalType": "address",
          "name": "_admin",
          "type": "address"
        },
        {
          "indexed": false,
          "internalType": "string",
          "name": "_name",
          "type": "string"
        },
        {
          "indexed": false,
          "internalType": "string",
          "name": "_specialty",
          "type": "string"
        },
        {
          "indexed": false,
          "internalType": "string",
          "name": "_cedula",
          "type": "string"
        },
        {
          "indexed": false,
          "internalType": "string",
          "name": "_email",
          "type": "string"
        },
        {
          "indexed": false,
          "internalType": "string",
          "name": "_hashPicture",
          "type": "string"
        },
        {
          "indexed": false,
          "internalType": "uint256",
          "name": "_date",
          "type": "uint256"
        }
      ],
      "name": "MedicsAdded",
      "type": "event"
    },
    {
      "anonymous": false,
      "inputs": [
        {
          "indexed": true,
          "internalType": "address",
          "name": "_medic",
          "type": "address"
        },
        {
          "indexed": true,
          "internalType": "address",
          "name": "_admin",
          "type": "address"
        },
        {
          "indexed": false,
          "internalType": "string",
          "name": "_hashPicture",
          "type": "string"
        },
        {
          "indexed": false,
          "internalType": "uint256",
          "name": "_date",
          "type": "uint256"
        }
      ],
      "name": "MedicsDelete",
      "type": "event"
    },
    {
      "anonymous": false,
      "inputs": [
        {
          "indexed": true,
          "internalType": "address",
          "name": "_medic",
          "type": "address"
        },
        {
          "indexed": true,
          "internalType": "address",
          "name": "_admin",
          "type": "address"
        },
        {
          "indexed": false,
          "internalType": "string",
          "name": "_name",
          "type": "string"
        },
        {
          "indexed": false,
          "internalType": "string",
          "name": "_specialty",
          "type": "string"
        },
        {
          "indexed": false,
          "internalType": "string",
          "name": "_cedula",
          "type": "string"
        },
        {
          "indexed": false,
          "internalType": "string",
          "name": "_email",
          "type": "string"
        },
        {
          "indexed": false,
          "internalType": "string",
          "name": "_hashPicture",
          "type": "string"
        },
        {
          "indexed": false,
          "internalType": "uint256",
          "name": "_date",
          "type": "uint256"
        },
        {
          "indexed": false,
          "internalType": "uint256",
          "name": "_queryDate",
          "type": "uint256"
        }
      ],
      "name": "MedicsRetrieve",
      "type": "event"
    },
    {
      "anonymous": false,
      "inputs": [
        {
          "indexed": true,
          "internalType": "address",
          "name": "_medic",
          "type": "address"
        },
        {
          "indexed": true,
          "internalType": "address",
          "name": "_admin",
          "type": "address"
        },
        {
          "indexed": false,
          "internalType": "string",
          "name": "_name",
          "type": "string"
        },
        {
          "indexed": false,
          "internalType": "string",
          "name": "_specialty",
          "type": "string"
        },
        {
          "indexed": false,
          "internalType": "string",
          "name": "_cedula",
          "type": "string"
        },
        {
          "indexed": false,
          "internalType": "string",
          "name": "_email",
          "type": "string"
        },
        {
          "indexed": false,
          "internalType": "string",
          "name": "_hashPicture",
          "type": "string"
        },
        {
          "indexed": false,
          "internalType": "uint256",
          "name": "_date",
          "type": "uint256"
        },
        {
          "indexed": false,
          "internalType": "uint256",
          "name": "_queryDate",
          "type": "uint256"
        }
      ],
      "name": "MedicsUpdate",
      "type": "event"
    },
    {
      "anonymous": false,
      "inputs": [
        {
          "indexed": false,
          "internalType": "string",
          "name": "_hash",
          "type": "string"
        }
      ],
      "name": "NewMedicRecord",
      "type": "event"
    },
    {
      "anonymous": false,
      "inputs": [
        {
          "indexed": true,
          "internalType": "address",
          "name": "newPat",
          "type": "address"
        },
        {
          "indexed": true,
          "internalType": "address",
          "name": "whoAddedPat",
          "type": "address"
        }
      ],
      "name": "PatientAdded",
      "type": "event"
    },
    {
      "anonymous": false,
      "inputs": [
        {
          "indexed": true,
          "internalType": "address",
          "name": "oldPat",
          "type": "address"
        },
        {
          "indexed": true,
          "internalType": "address",
          "name": "whoRemovedPat",
          "type": "address"
        }
      ],
      "name": "PatientRemoved",
      "type": "event"
    },
    {
      "anonymous": false,
      "inputs": [
        {
          "indexed": true,
          "internalType": "address",
          "name": "_patient",
          "type": "address"
        },
        {
          "indexed": true,
          "internalType": "address",
          "name": "_medic",
          "type": "address"
        },
        {
          "indexed": false,
          "internalType": "string",
          "name": "_ipfsHash",
          "type": "string"
        }
      ],
      "name": "RecordAdded",
      "type": "event"
    },
    {
      "anonymous": false,
      "inputs": [
        {
          "indexed": true,
          "internalType": "address",
          "name": "_patient",
          "type": "address"
        },
        {
          "indexed": true,
          "internalType": "address",
          "name": "_medic",
          "type": "address"
        },
        {
          "indexed": false,
          "internalType": "string",
          "name": "_ipfsHash",
          "type": "string"
        }
      ],
      "name": "RecordDelete",
      "type": "event"
    },
    {
      "anonymous": false,
      "inputs": [
        {
          "indexed": true,
          "internalType": "address",
          "name": "_patient",
          "type": "address"
        },
        {
          "indexed": true,
          "internalType": "address",
          "name": "_medic",
          "type": "address"
        },
        {
          "indexed": false,
          "internalType": "string",
          "name": "_descript",
          "type": "string"
        },
        {
          "indexed": false,
          "internalType": "uint256",
          "name": "_uploadDate",
          "type": "uint256"
        }
      ],
      "name": "RecordRetrieve",
      "type": "event"
    },
    {
      "anonymous": false,
      "inputs": [
        {
          "indexed": true,
          "internalType": "address",
          "name": "_patient",
          "type": "address"
        },
        {
          "indexed": true,
          "internalType": "address",
          "name": "_medic",
          "type": "address"
        },
        {
          "indexed": false,
          "internalType": "string",
          "name": "_descript",
          "type": "string"
        }
      ],
      "name": "RecordUpdate",
      "type": "event"
    },
    {
      "anonymous": false,
      "inputs": [
        {
          "indexed": false,
          "internalType": "string",
          "name": "_hash",
          "type": "string"
        }
      ],
      "name": "RemoveMedicRecord",
      "type": "event"
    },
    {
      "payable": true,
      "stateMutability": "payable",
      "type": "fallback"
    },
    {
      "constant": false,
      "inputs": [
        {
          "internalType": "address",
          "name": "account",
          "type": "address"
        }
      ],
      "name": "addAdmin",
      "outputs": [],
      "payable": false,
      "stateMutability": "nonpayable",
      "type": "function"
    },
    {
      "constant": false,
      "inputs": [
        {
          "internalType": "address",
          "name": "account",
          "type": "address"
        }
      ],
      "name": "addAssistant",
      "outputs": [],
      "payable": false,
      "stateMutability": "nonpayable",
      "type": "function"
    },
    {
      "constant": false,
      "inputs": [
        {
          "internalType": "address",
          "name": "account",
          "type": "address"
        }
      ],
      "name": "addMedic",
      "outputs": [],
      "payable": false,
      "stateMutability": "nonpayable",
      "type": "function"
    },
    {
      "constant": false,
      "inputs": [
        {
          "internalType": "string",
          "name": "_hashString",
          "type": "string"
        }
      ],
      "name": "addMedicRecord",
      "outputs": [],
      "payable": false,
      "stateMutability": "nonpayable",
      "type": "function"
    },
    {
      "constant": false,
      "inputs": [
        {
          "internalType": "address",
          "name": "_account",
          "type": "address"
        },
        {
          "internalType": "string",
          "name": "_name",
          "type": "string"
        },
        {
          "internalType": "string",
          "name": "_specialty",
          "type": "string"
        },
        {
          "internalType": "string",
          "name": "_cedula",
          "type": "string"
        },
        {
          "internalType": "string",
          "name": "_email",
          "type": "string"
        },
        {
          "internalType": "string",
          "name": "_hashPicture",
          "type": "string"
        }
      ],
      "name": "addMedics",
      "outputs": [
        {
          "internalType": "bool",
          "name": "_success",
          "type": "bool"
        }
      ],
      "payable": false,
      "stateMutability": "nonpayable",
      "type": "function"
    },
    {
      "constant": false,
      "inputs": [
        {
          "internalType": "address",
          "name": "account",
          "type": "address"
        }
      ],
      "name": "addPatient",
      "outputs": [],
      "payable": false,
      "stateMutability": "nonpayable",
      "type": "function"
    },
    {
      "constant": false,
      "inputs": [
        {
          "internalType": "address",
          "name": "_account",
          "type": "address"
        },
        {
          "internalType": "string",
          "name": "_descript",
          "type": "string"
        },
        {
          "internalType": "string",
          "name": "_ipfsHash",
          "type": "string"
        }
      ],
      "name": "addRecord",
      "outputs": [
        {
          "internalType": "bool",
          "name": "_success",
          "type": "bool"
        }
      ],
      "payable": false,
      "stateMutability": "nonpayable",
      "type": "function"
    },
    {
      "constant": false,
      "inputs": [
        {
          "internalType": "address",
          "name": "_account",
          "type": "address"
        },
        {
          "internalType": "uint256",
          "name": "_date",
          "type": "uint256"
        }
      ],
      "name": "deleteMedics",
      "outputs": [
        {
          "internalType": "bool",
          "name": "_success",
          "type": "bool"
        }
      ],
      "payable": false,
      "stateMutability": "nonpayable",
      "type": "function"
    },
    {
      "constant": false,
      "inputs": [
        {
          "internalType": "address",
          "name": "_account",
          "type": "address"
        },
        {
          "internalType": "string",
          "name": "_ipfsHash",
          "type": "string"
        }
      ],
      "name": "deleteRecord",
      "outputs": [
        {
          "internalType": "bool",
          "name": "_success",
          "type": "bool"
        }
      ],
      "payable": false,
      "stateMutability": "nonpayable",
      "type": "function"
    },
    {
      "constant": true,
      "inputs": [
        {
          "internalType": "address",
          "name": "",
          "type": "address"
        },
        {
          "internalType": "uint256",
          "name": "",
          "type": "uint256"
        }
      ],
      "name": "extendedFileToPatientDiagnosis",
      "outputs": [
        {
          "internalType": "uint256",
          "name": "",
          "type": "uint256"
        }
      ],
      "payable": false,
      "stateMutability": "view",
      "type": "function"
    },
    {
      "constant": true,
      "inputs": [
        {
          "internalType": "address",
          "name": "",
          "type": "address"
        },
        {
          "internalType": "uint256",
          "name": "",
          "type": "uint256"
        }
      ],
      "name": "fileToMedic",
      "outputs": [
        {
          "internalType": "string",
          "name": "name",
          "type": "string"
        },
        {
          "internalType": "string",
          "name": "specialty",
          "type": "string"
        },
        {
          "internalType": "string",
          "name": "cedula",
          "type": "string"
        },
        {
          "internalType": "string",
          "name": "email",
          "type": "string"
        },
        {
          "internalType": "string",
          "name": "hashPicture",
          "type": "string"
        },
        {
          "internalType": "uint256",
          "name": "date",
          "type": "uint256"
        }
      ],
      "payable": false,
      "stateMutability": "view",
      "type": "function"
    },
    {
      "constant": true,
      "inputs": [
        {
          "internalType": "address",
          "name": "",
          "type": "address"
        },
        {
          "internalType": "uint256",
          "name": "",
          "type": "uint256"
        }
      ],
      "name": "fileToPatientDiagnosis",
      "outputs": [
        {
          "internalType": "string",
          "name": "comorb",
          "type": "string"
        },
        {
          "internalType": "uint256",
          "name": "age",
          "type": "uint256"
        },
        {
          "internalType": "uint256",
          "name": "weight",
          "type": "uint256"
        },
        {
          "internalType": "string",
          "name": "diagnostic",
          "type": "string"
        },
        {
          "internalType": "string",
          "name": "observations",
          "type": "string"
        }
      ],
      "payable": false,
      "stateMutability": "view",
      "type": "function"
    },
    {
      "constant": true,
      "inputs": [],
      "name": "getPendingLength",
      "outputs": [
        {
          "internalType": "uint256",
          "name": "count",
          "type": "uint256"
        }
      ],
      "payable": false,
      "stateMutability": "view",
      "type": "function"
    },
    {
      "constant": true,
      "inputs": [
        {
          "internalType": "uint32",
          "name": "_index",
          "type": "uint32"
        }
      ],
      "name": "getPendingRequest",
      "outputs": [
        {
          "internalType": "string",
          "name": "_hashString",
          "type": "string"
        }
      ],
      "payable": false,
      "stateMutability": "view",
      "type": "function"
    },
    {
      "constant": true,
      "inputs": [
        {
          "internalType": "address",
          "name": "account",
          "type": "address"
        }
      ],
      "name": "isAdmin",
      "outputs": [
        {
          "internalType": "bool",
          "name": "",
          "type": "bool"
        }
      ],
      "payable": false,
      "stateMutability": "view",
      "type": "function"
    },
    {
      "constant": true,
      "inputs": [
        {
          "internalType": "address",
          "name": "account",
          "type": "address"
        }
      ],
      "name": "isAssistant",
      "outputs": [
        {
          "internalType": "bool",
          "name": "",
          "type": "bool"
        }
      ],
      "payable": false,
      "stateMutability": "view",
      "type": "function"
    },
    {
      "constant": true,
      "inputs": [
        {
          "internalType": "address",
          "name": "account",
          "type": "address"
        }
      ],
      "name": "isMedic",
      "outputs": [
        {
          "internalType": "bool",
          "name": "",
          "type": "bool"
        }
      ],
      "payable": false,
      "stateMutability": "view",
      "type": "function"
    },
    {
      "constant": true,
      "inputs": [
        {
          "internalType": "address",
          "name": "account",
          "type": "address"
        }
      ],
      "name": "isPatient",
      "outputs": [
        {
          "internalType": "bool",
          "name": "",
          "type": "bool"
        }
      ],
      "payable": false,
      "stateMutability": "view",
      "type": "function"
    },
    {
      "constant": true,
      "inputs": [
        {
          "internalType": "uint256",
          "name": "",
          "type": "uint256"
        }
      ],
      "name": "medicPending",
      "outputs": [
        {
          "internalType": "string",
          "name": "",
          "type": "string"
        }
      ],
      "payable": false,
      "stateMutability": "view",
      "type": "function"
    },
    {
      "constant": false,
      "inputs": [
        {
          "internalType": "address",
          "name": "account",
          "type": "address"
        }
      ],
      "name": "removeAssistant",
      "outputs": [],
      "payable": false,
      "stateMutability": "nonpayable",
      "type": "function"
    },
    {
      "constant": false,
      "inputs": [
        {
          "internalType": "address",
          "name": "account",
          "type": "address"
        }
      ],
      "name": "removeMedic",
      "outputs": [],
      "payable": false,
      "stateMutability": "nonpayable",
      "type": "function"
    },
    {
      "constant": false,
      "inputs": [
        {
          "internalType": "address",
          "name": "account",
          "type": "address"
        }
      ],
      "name": "removePatient",
      "outputs": [],
      "payable": false,
      "stateMutability": "nonpayable",
      "type": "function"
    },
    {
      "constant": false,
      "inputs": [
        {
          "internalType": "uint32",
          "name": "_index",
          "type": "uint32"
        }
      ],
      "name": "removePending",
      "outputs": [
        {
          "internalType": "bool",
          "name": "success",
          "type": "bool"
        }
      ],
      "payable": false,
      "stateMutability": "nonpayable",
      "type": "function"
    },
    {
      "constant": false,
      "inputs": [],
      "name": "renounceAdmin",
      "outputs": [],
      "payable": false,
      "stateMutability": "nonpayable",
      "type": "function"
    },
    {
      "constant": false,
      "inputs": [],
      "name": "renounceMedic",
      "outputs": [],
      "payable": false,
      "stateMutability": "nonpayable",
      "type": "function"
    },
    {
      "constant": false,
      "inputs": [
        {
          "internalType": "address",
          "name": "_account",
          "type": "address"
        },
        {
          "internalType": "string",
          "name": "_name",
          "type": "string"
        },
        {
          "internalType": "string",
          "name": "_specialty",
          "type": "string"
        },
        {
          "internalType": "string",
          "name": "_cedula",
          "type": "string"
        },
        {
          "internalType": "string",
          "name": "_email",
          "type": "string"
        },
        {
          "internalType": "string",
          "name": "_hashPicture",
          "type": "string"
        },
        {
          "internalType": "uint256",
          "name": "_date",
          "type": "uint256"
        }
      ],
      "name": "updateMedics",
      "outputs": [
        {
          "internalType": "bool",
          "name": "_success",
          "type": "bool"
        }
      ],
      "payable": false,
      "stateMutability": "nonpayable",
      "type": "function"
    },
    {
      "constant": false,
      "inputs": [
        {
          "internalType": "address",
          "name": "_account",
          "type": "address"
        },
        {
          "internalType": "string",
          "name": "_descript",
          "type": "string"
        },
        {
          "internalType": "string",
          "name": "_ipfsHash",
          "type": "string"
        }
      ],
      "name": "updateRecord",
      "outputs": [
        {
          "internalType": "bool",
          "name": "_success",
          "type": "bool"
        }
      ],
      "payable": false,
      "stateMutability": "nonpayable",
      "type": "function"
    },
    {
      "constant": false,
      "inputs": [
        {
          "internalType": "address",
          "name": "_account",
          "type": "address"
        },
        {
          "internalType": "uint256",
          "name": "_date",
          "type": "uint256"
        }
      ],
      "name": "viewMedics",
      "outputs": [
        {
          "internalType": "string",
          "name": "name",
          "type": "string"
        },
        {
          "internalType": "string",
          "name": "specialty",
          "type": "string"
        },
        {
          "internalType": "string",
          "name": "cedula",
          "type": "string"
        },
        {
          "internalType": "string",
          "name": "email",
          "type": "string"
        },
        {
          "internalType": "string",
          "name": "hashPicture",
          "type": "string"
        }
      ],
      "payable": false,
      "stateMutability": "nonpayable",
      "type": "function"
    },
    {
      "constant": false,
      "inputs": [
        {
          "internalType": "address",
          "name": "_account",
          "type": "address"
        },
        {
          "internalType": "string",
          "name": "_ipfsHash",
          "type": "string"
        }
      ],
      "name": "viewRecords",
      "outputs": [
        {
          "internalType": "string",
          "name": "_descript",
          "type": "string"
        },
        {
          "internalType": "uint256",
          "name": "_uploadDate",
          "type": "uint256"
        }
      ],
      "payable": false,
      "stateMutability": "nonpayable",
      "type": "function"
    },
    {
      "constant": false,
      "inputs": [
        {
          "internalType": "bool",
          "name": "_stop",
          "type": "bool"
        }
      ],
      "name": "emergencyStop",
      "outputs": [],
      "payable": false,
      "stateMutability": "nonpayable",
      "type": "function"
    },
    {
      "constant": true,
      "inputs": [
        {
          "internalType": "address",
          "name": "_account",
          "type": "address"
        },
        {
          "internalType": "uint256",
          "name": "_timeStamp",
          "type": "uint256"
        }
      ],
      "name": "patientDiagnosis",
      "outputs": [
        {
          "components": [
            {
              "internalType": "string",
              "name": "comorb",
              "type": "string"
            },
            {
              "internalType": "uint256",
              "name": "age",
              "type": "uint256"
            },
            {
              "internalType": "uint256",
              "name": "weight",
              "type": "uint256"
            },
            {
              "internalType": "string",
              "name": "diagnostic",
              "type": "string"
            },
            {
              "internalType": "string",
              "name": "observations",
              "type": "string"
            },
            {
              "internalType": "string[]",
              "name": "estudio",
              "type": "string[]"
            }
          ],
          "internalType": "struct PatientDiagnosis.Diagnostico",
          "name": "",
          "type": "tuple"
        }
      ],
      "payable": false,
      "stateMutability": "view",
      "type": "function"
    },
    {
      "constant": false,
      "inputs": [
        {
          "internalType": "address",
          "name": "_account",
          "type": "address"
        },
        {
          "internalType": "string",
          "name": "_comorb",
          "type": "string"
        },
        {
          "internalType": "uint16",
          "name": "_age",
          "type": "uint16"
        },
        {
          "internalType": "uint16",
          "name": "_weight",
          "type": "uint16"
        },
        {
          "internalType": "string",
          "name": "_diagnostic",
          "type": "string"
        },
        {
          "internalType": "string",
          "name": "_observations",
          "type": "string"
        },
        {
          "internalType": "string[]",
          "name": "_estudio",
          "type": "string[]"
        }
      ],
      "name": "addDiagnostic",
      "outputs": [
        {
          "internalType": "bool",
          "name": "_success",
          "type": "bool"
        }
      ],
      "payable": false,
      "stateMutability": "nonpayable",
      "type": "function"
    },
    {
      "constant": false,
      "inputs": [
        {
          "internalType": "address",
          "name": "_account",
          "type": "address"
        },
        {
          "internalType": "string",
          "name": "_comorb",
          "type": "string"
        },
        {
          "internalType": "uint256",
          "name": "_age",
          "type": "uint256"
        },
        {
          "internalType": "uint256",
          "name": "_weight",
          "type": "uint256"
        },
        {
          "internalType": "string",
          "name": "_diagnostic",
          "type": "string"
        },
        {
          "internalType": "string",
          "name": "_observations",
          "type": "string"
        },
        {
          "internalType": "string[]",
          "name": "_estudio",
          "type": "string[]"
        },
        {
          "internalType": "uint256",
          "name": "_date",
          "type": "uint256"
        }
      ],
      "name": "updateDiagnostic",
      "outputs": [
        {
          "internalType": "bool",
          "name": "_success",
          "type": "bool"
        }
      ],
      "payable": false,
      "stateMutability": "nonpayable",
      "type": "function"
    },
    {
      "constant": false,
      "inputs": [
        {
          "internalType": "address",
          "name": "_account",
          "type": "address"
        },
        {
          "internalType": "uint256",
          "name": "_date",
          "type": "uint256"
        }
      ],
      "name": "viewDiagnostic",
      "outputs": [
        {
          "internalType": "string",
          "name": "_comorb",
          "type": "string"
        },
        {
          "internalType": "uint256",
          "name": "_age",
          "type": "uint256"
        },
        {
          "internalType": "uint256",
          "name": "_weight",
          "type": "uint256"
        },
        {
          "internalType": "string",
          "name": "_diagnostic",
          "type": "string"
        },
        {
          "internalType": "string",
          "name": "_observations",
          "type": "string"
        },
        {
          "internalType": "string[]",
          "name": "_estudio",
          "type": "string[]"
        }
      ],
      "payable": false,
      "stateMutability": "nonpayable",
      "type": "function"
    },
    {
      "constant": false,
      "inputs": [
        {
          "internalType": "address",
          "name": "_account",
          "type": "address"
        }
      ],
      "name": "extendedViewDiagnostic",
      "outputs": [
        {
          "internalType": "uint256[]",
          "name": "_dates",
          "type": "uint256[]"
        }
      ],
      "payable": false,
      "stateMutability": "nonpayable",
      "type": "function"
    },
    {
      "constant": false,
      "inputs": [
        {
          "internalType": "address",
          "name": "_account",
          "type": "address"
        },
        {
          "internalType": "uint256",
          "name": "_date",
          "type": "uint256"
        }
      ],
      "name": "deleteDiagnostic",
      "outputs": [
        {
          "internalType": "bool",
          "name": "_success",
          "type": "bool"
        }
      ],
      "payable": false,
      "stateMutability": "nonpayable",
      "type": "function"
    }
  ],
  "bytecode": "0x60806040526000600560006101000a81548160ff0219169083151502179055506000600860006101000a81548160ff0219169083151502179055506000600b60006101000a81548160ff02191690831515021790555062000066336200006c60201b60201c565b62000361565b62000087816000620000e460201b6200457a1790919060201c565b3373ffffffffffffffffffffffffffffffffffffffff168173ffffffffffffffffffffffffffffffffffffffff167fbf3f493c772c8c283fd124432c2d0f539ab343faa04258fe88e52912d36b102b60405160405180910390a350565b620000f682826200019760201b60201c565b1562000139576040517f08c379a000000000000000000000000000000000000000000000000000000000815260040162000130906200030c565b60405180910390fd5b60018260000160008373ffffffffffffffffffffffffffffffffffffffff1673ffffffffffffffffffffffffffffffffffffffff16815260200190815260200160002060006101000a81548160ff0219169083151502179055505050565b60008073ffffffffffffffffffffffffffffffffffffffff168273ffffffffffffffffffffffffffffffffffffffff1614156200020b576040517f08c379a000000000000000000000000000000000000000000000000000000000815260040162000202906200032e565b60405180910390fd5b8260000160008373ffffffffffffffffffffffffffffffffffffffff1673ffffffffffffffffffffffffffffffffffffffff16815260200190815260200160002060009054906101000a900460ff16905092915050565b600062000271601f8362000350565b91507f526f6c65733a206163636f756e7420616c72656164792068617320726f6c65006000830152602082019050919050565b6000620002b360228362000350565b91507f526f6c65733a206163636f756e7420697320746865207a65726f20616464726560008301527f73730000000000000000000000000000000000000000000000000000000000006020830152604082019050919050565b60006020820190508181036000830152620003278162000262565b9050919050565b600060208201905081810360008301526200034981620002a4565b9050919050565b600082825260208201905092915050565b615fcd80620003716000396000f3fe60806040526004361061020f5760003560e01c80637d01dbc211610118578063b8792f0b116100a0578063d6aac8691161006f578063d6aac8691461086c578063e67fd0e0146108ae578063e765e735146108eb578063ea04f68f14610928578063eae3ef8a146109695761020f565b8063b8792f0b1461078c578063beea194b146107b5578063c6584bb8146107f2578063d47b41d51461082f5761020f565b80638f9c79ed116100e75780638f9c79ed14610681578063928a47d6146106be5780639b2ae4c6146106fb578063a1f23f1914610726578063b0397ff8146107635761020f565b80637d01dbc2146105db5780637d0d6257146106045780638bad0c0a1461062d5780638c406f2e146106445761020f565b8063510b2f611161019b5780635c8b67df1161016a5780635c8b67df146104e657806362499d5c1461050f5780636d263ceb1461054c5780636f7ee01e1461057557806370480275146105b25761020f565b8063510b2f61146104055780635995fd001461042e5780635acec4ab1461046c5780635c11b70f146104a95761020f565b806324d7806c116101e257806324d7806c146102f6578063336458741461033357806333dc0abd1461037057806347d96cb1146103875780634e0581f4146103c45761020f565b80630ac62e02146102115780630e9cb9ba1461023a5780631c712b6c14610277578063209074dd146102b9575b005b34801561021d57600080fd5b5061023860048036036102339190810190615059565b6109a6565b005b34801561024657600080fd5b50610261600480360361025c919081019061501d565b610a59565b60405161026e9190615c81565b60405180910390f35b34801561028357600080fd5b5061029e6004803603610299919081019061501d565b610a87565b6040516102b096959493929190615944565b60405180910390f35b3480156102c557600080fd5b506102e060048036036102db9190810190614e0d565b610cd0565b6040516102ed9190615745565b60405180910390f35b34801561030257600080fd5b5061031d60048036036103189190810190614afa565b610fe9565b60405161032a9190615745565b60405180910390f35b34801561033f57600080fd5b5061035a6004803603610355919081019061501d565b611006565b6040516103679190615745565b60405180910390f35b34801561037c57600080fd5b50610385611343565b005b34801561039357600080fd5b506103ae60048036036103a991908101906150c3565b611396565b6040516103bb9190615760565b60405180910390f35b3480156103d057600080fd5b506103eb60048036036103e6919081019061501d565b61144f565b6040516103fc959493929190615b07565b60405180910390f35b34801561041157600080fd5b5061042c60048036036104279190810190615082565b61165a565b005b34801561043a57600080fd5b5061045560048036036104509190810190614b23565b6116d3565b604051610463929190615914565b60405180910390f35b34801561047857600080fd5b50610493600480360361048e91908101906150ec565b6118f5565b6040516104a09190615782565b60405180910390f35b3480156104b557600080fd5b506104d060048036036104cb919081019061501d565b6119b4565b6040516104dd9190615c5f565b60405180910390f35b3480156104f257600080fd5b5061050d60048036036105089190810190614afa565b611d02565b005b34801561051b57600080fd5b5061053660048036036105319190810190614cf7565b611d56565b6040516105439190615745565b60405180910390f35b34801561055857600080fd5b50610573600480360361056e9190810190614afa565b612375565b005b34801561058157600080fd5b5061059c60048036036105979190810190614afa565b612381565b6040516105a99190615723565b60405180910390f35b3480156105be57600080fd5b506105d960048036036105d49190810190614afa565b612701565b005b3480156105e757600080fd5b5061060260048036036105fd9190810190614afa565b612755565b005b34801561061057600080fd5b5061062b60048036036106269190810190614afa565b6127a9565b005b34801561063957600080fd5b506106426127fd565b005b34801561065057600080fd5b5061066b60048036036106669190810190614b23565b612808565b6040516106789190615745565b60405180910390f35b34801561068d57600080fd5b506106a860048036036106a39190810190614afa565b61295c565b6040516106b59190615745565b60405180910390f35b3480156106ca57600080fd5b506106e560048036036106e09190810190614f0b565b612979565b6040516106f29190615745565b60405180910390f35b34801561070757600080fd5b50610710612b84565b60405161071d9190615c81565b60405180910390f35b34801561073257600080fd5b5061074d60048036036107489190810190614b77565b612b91565b60405161075a9190615745565b60405180910390f35b34801561076f57600080fd5b5061078a60048036036107859190810190614afa565b612da9565b005b34801561079857600080fd5b506107b360048036036107ae9190810190614afa565b612dfd565b005b3480156107c157600080fd5b506107dc60048036036107d791908101906150ec565b612e51565b6040516107e99190615745565b60405180910390f35b3480156107fe57600080fd5b5061081960048036036108149190810190614afa565b613026565b6040516108269190615745565b60405180910390f35b34801561083b57600080fd5b5061085660048036036108519190810190614b77565b613043565b6040516108639190615745565b60405180910390f35b34801561087857600080fd5b50610893600480360361088e919081019061501d565b6131ef565b6040516108a5969594939291906159c1565b60405180910390f35b3480156108ba57600080fd5b506108d560048036036108d0919081019061501d565b61353d565b6040516108e29190615745565b60405180910390f35b3480156108f757600080fd5b50610912600480360361090d9190810190614bf6565b613727565b60405161091f9190615745565b60405180910390f35b34801561093457600080fd5b5061094f600480360361094a919081019061501d565b6139cf565b6040516109609594939291906157a4565b60405180910390f35b34801561097557600080fd5b50610990600480360361098b9190810190614afa565b613fdd565b60405161099d9190615745565b60405180910390f35b6109af33610fe9565b6109ee576040517f08c379a00000000000000000000000000000000000000000000000000000000081526004016109e590615c1f565b60405180910390fd5b80600b60006101000a81548160ff0219169083151502179055503373ffffffffffffffffffffffffffffffffffffffff167f58b15338e6499b2b2827d169f60332c3b4b476fcd06b9a3c7e37afa77c49228e82604051610a4e9190615745565b60405180910390a250565b600a6020528160005260406000208181548110610a7257fe5b90600052602060002001600091509150505481565b60606000806060806060600b60009054906101000a900460ff1615610aab57600080fd5b610ab43361295c565b80610ac45750610ac333613fdd565b5b610b03576040517f08c379a0000000000000000000000000000000000000000000000000000000008152600401610afa90615c3f565b60405180910390fd5b610b0c3361295c565b15610b4a578773ffffffffffffffffffffffffffffffffffffffff163373ffffffffffffffffffffffffffffffffffffffff1614610b4957600080fd5b5b610b5333613fdd565b15610b92578773ffffffffffffffffffffffffffffffffffffffff163373ffffffffffffffffffffffffffffffffffffffff161415610b9157600080fd5b5b600073ffffffffffffffffffffffffffffffffffffffff168873ffffffffffffffffffffffffffffffffffffffff161415610bcc57600080fd5b60008710158015610bfd57507fffffffffffffffffffffffffffffffffffffffffffffffffffffffffffffffff8711155b610c0657600080fd5b610c0e614622565b610c1889896119b4565b90503373ffffffffffffffffffffffffffffffffffffffff168973ffffffffffffffffffffffffffffffffffffffff167f9938502686a91e4f81577fc5def2278e38d6af2a37e6eb3d255fdb29b3af63fa83600001518460200151856040015186606001518760800151604051610c93959493929190615b07565b60405180910390a380600001519650806020015195508060400151945080606001519350806080015192508060a001519150509295509295509295565b6000600b60009054906101000a900460ff1615610cec57600080fd5b610cf533613fdd565b610d34576040517f08c379a0000000000000000000000000000000000000000000000000000000008152600401610d2b90615bbf565b60405180910390fd5b600073ffffffffffffffffffffffffffffffffffffffff168873ffffffffffffffffffffffffffffffffffffffff161415610d6e57600080fd5b610d778861295c565b8015610d885750610d8733613fdd565b5b610d9157600080fd5b6032875110610d9f57600080fd5b60788661ffff1610610db057600080fd5b6102bc8561ffff1610610dc257600080fd5b610100845110610dd157600080fd5b610200835110610de057600080fd5b6000429050610ded614622565b6040518060c001604052808a81526020018961ffff1681526020018861ffff16815260200187815260200186815260200185815250905080600960008c73ffffffffffffffffffffffffffffffffffffffff1673ffffffffffffffffffffffffffffffffffffffff16815260200190815260200160002060008481526020019081526020016000206000820151816000019080519060200190610e91929190614658565b5060208201518160010155604082015181600201556060820151816003019080519060200190610ec2929190614658565b506080820151816004019080519060200190610edf929190614658565b5060a0820151816005019080519060200190610efc9291906146d8565b50905050600a60008b73ffffffffffffffffffffffffffffffffffffffff1673ffffffffffffffffffffffffffffffffffffffff1681526020019081526020016000208290806001815401808255809150509060018203906000526020600020016000909192909190915055503373ffffffffffffffffffffffffffffffffffffffff168a73ffffffffffffffffffffffffffffffffffffffff167f866c1b39a900d211ac3081a7c2effd472052b2a95746d648ae286f89c41d8eb18b8b8b8b8b89604051610fd09695949392919061589e565b60405180910390a3600192505050979650505050505050565b6000610fff826000613ffa90919063ffffffff16565b9050919050565b6000600b60009054906101000a900460ff161561102257600080fd5b61102b33610fe9565b61106a576040517f08c379a000000000000000000000000000000000000000000000000000000000815260040161106190615c1f565b60405180910390fd5b600073ffffffffffffffffffffffffffffffffffffffff168373ffffffffffffffffffffffffffffffffffffffff1614156110a457600080fd5b600082101580156110d557507fffffffffffffffffffffffffffffffffffffffffffffffffffffffffffffffff8211155b6110de57600080fd5b6000600460008573ffffffffffffffffffffffffffffffffffffffff1673ffffffffffffffffffffffffffffffffffffffff168152602001908152602001600020805490501161112d57600080fd5b6000429050600061113d856140c2565b905060008090505b818110156113365784600460008873ffffffffffffffffffffffffffffffffffffffff1673ffffffffffffffffffffffffffffffffffffffff168152602001908152602001600020828154811061119857fe5b9060005260206000209060060201600501541415611329573373ffffffffffffffffffffffffffffffffffffffff168673ffffffffffffffffffffffffffffffffffffffff167f1977237b5f2ef5422b52998d1f30b1e788c1c890c07a074c7856db9bc6d2ccc2600460008a73ffffffffffffffffffffffffffffffffffffffff1673ffffffffffffffffffffffffffffffffffffffff168152602001908152602001600020848154811061124957fe5b906000526020600020906006020160040186604051611269929190615b6f565b60405180910390a3600460008773ffffffffffffffffffffffffffffffffffffffff1673ffffffffffffffffffffffffffffffffffffffff16815260200190815260200160002081815481106112bb57fe5b9060005260206000209060060201600080820160006112da9190614738565b6001820160006112ea9190614738565b6002820160006112fa9190614738565b60038201600061130a9190614738565b60048201600061131a9190614738565b60058201600090555050611336565b8080600101915050611145565b5060019250505092915050565b61134c33613fdd565b61138b576040517f08c379a000000000000000000000000000000000000000000000000000000000815260040161138290615bbf565b60405180910390fd5b61139433614162565b565b600681815481106113a357fe5b906000526020600020016000915090508054600181600116156101000203166002900480601f0160208091040260200160405190810160405280929190818152602001828054600181600116156101000203166002900480156114475780601f1061141c57610100808354040283529160200191611447565b820191906000526020600020905b81548152906001019060200180831161142a57829003601f168201915b505050505081565b600960205281600052604060002060205280600052604060002060009150915050806000018054600181600116156101000203166002900480601f0160208091040260200160405190810160405280929190818152602001828054600181600116156101000203166002900480156115085780601f106114dd57610100808354040283529160200191611508565b820191906000526020600020905b8154815290600101906020018083116114eb57829003601f168201915b505050505090806001015490806002015490806003018054600181600116156101000203166002900480601f0160208091040260200160405190810160405280929190818152602001828054600181600116156101000203166002900480156115b25780601f10611587576101008083540402835291602001916115b2565b820191906000526020600020905b81548152906001019060200180831161159557829003601f168201915b505050505090806004018054600181600116156101000203166002900480601f0160208091040260200160405190810160405280929190818152602001828054600181600116156101000203166002900480156116505780601f1061162557610100808354040283529160200191611650565b820191906000526020600020905b81548152906001019060200180831161163357829003601f168201915b5050505050905085565b6006819080600181540180825580915050906001820390600052602060002001600090919290919091509080519060200190611697929190614780565b50507fda8ad9477ca7c92626705474e6194137fbe13627f4f72e07c6d8411bf7c7a1f0816040516116c89190615782565b60405180910390a150565b60606000600b60009054906101000a900460ff16156116f157600080fd5b6116fa3361295c565b8061170a575061170933613fdd565b5b611749576040517f08c379a000000000000000000000000000000000000000000000000000000000815260040161174090615c3f565b60405180910390fd5b600073ffffffffffffffffffffffffffffffffffffffff168473ffffffffffffffffffffffffffffffffffffffff16141561178357600080fd5b602e83511461179157600080fd5b611799614800565b6007846040516117a9919061570c565b9081526020016040518091039020604051806040016040529081600082018054600181600116156101000203166002900480601f01602080910402602001604051908101604052809291908181526020018280546001816001161561010002031660029004801561185b5780601f106118305761010080835404028352916020019161185b565b820191906000526020600020905b81548152906001019060200180831161183e57829003601f168201915b5050505050815260200160018201548152505090503373ffffffffffffffffffffffffffffffffffffffff168573ffffffffffffffffffffffffffffffffffffffff167f4ee0bf4d8ed0ec027f6654b0ba0995ae922f70b4f3bdbc0ff59c0a7dbd5491c6836000015184602001516040516118d7929190615ad7565b60405180910390a38060000151925080602001519150509250929050565b606060068263ffffffff168154811061190a57fe5b906000526020600020018054600181600116156101000203166002900480601f0160208091040260200160405190810160405280929190818152602001828054600181600116156101000203166002900480156119a85780601f1061197d576101008083540402835291602001916119a8565b820191906000526020600020905b81548152906001019060200180831161198b57829003601f168201915b50505050509050919050565b6119bc614622565b600960008473ffffffffffffffffffffffffffffffffffffffff1673ffffffffffffffffffffffffffffffffffffffff16815260200190815260200160002060008381526020019081526020016000206040518060c0016040529081600082018054600181600116156101000203166002900480601f016020809104026020016040519081016040528092919081815260200182805460018160011615610100020316600290048015611ab05780601f10611a8557610100808354040283529160200191611ab0565b820191906000526020600020905b815481529060010190602001808311611a9357829003601f168201915b505050505081526020016001820154815260200160028201548152602001600382018054600181600116156101000203166002900480601f016020809104026020016040519081016040528092919081815260200182805460018160011615610100020316600290048015611b665780601f10611b3b57610100808354040283529160200191611b66565b820191906000526020600020905b815481529060010190602001808311611b4957829003601f168201915b50505050508152602001600482018054600181600116156101000203166002900480601f016020809104026020016040519081016040528092919081815260200182805460018160011615610100020316600290048015611c085780601f10611bdd57610100808354040283529160200191611c08565b820191906000526020600020905b815481529060010190602001808311611beb57829003601f168201915b5050505050815260200160058201805480602002602001604051908101604052809291908181526020016000905b82821015611cf2578382906000526020600020018054600181600116156101000203166002900480601f016020809104026020016040519081016040528092919081815260200182805460018160011615610100020316600290048015611cde5780601f10611cb357610100808354040283529160200191611cde565b820191906000526020600020905b815481529060010190602001808311611cc157829003601f168201915b505050505081526020019060010190611c36565b5050505081525050905092915050565b611d0b33610fe9565b611d4a576040517f08c379a0000000000000000000000000000000000000000000000000000000008152600401611d4190615c1f565b60405180910390fd5b611d53816141d3565b50565b6000600b60009054906101000a900460ff1615611d7257600080fd5b611d7b33610fe9565b611dba576040517f08c379a0000000000000000000000000000000000000000000000000000000008152600401611db190615c1f565b60405180910390fd5b600073ffffffffffffffffffffffffffffffffffffffff168873ffffffffffffffffffffffffffffffffffffffff161415611df457600080fd5b6080875110611e0257600080fd5b601e865110611e1057600080fd5b601e855110611e1e57600080fd5b601e845110611e2c57600080fd5b601e835110611e3a57600080fd5b60008210158015611e6b57507fffffffffffffffffffffffffffffffffffffffffffffffffffffffffffffffff8211155b611e7457600080fd5b6000600460008a73ffffffffffffffffffffffffffffffffffffffff1673ffffffffffffffffffffffffffffffffffffffff1681526020019081526020016000208054905011611ec357600080fd5b60004290506000611ed38a6140c2565b9050611edd61481a565b60008090505b828110156122a257600460008d73ffffffffffffffffffffffffffffffffffffffff1673ffffffffffffffffffffffffffffffffffffffff1681526020019081526020016000208181548110611f3557fe5b90600052602060002090600602016040518060c0016040529081600082018054600181600116156101000203166002900480601f016020809104026020016040519081016040528092919081815260200182805460018160011615610100020316600290048015611fe75780601f10611fbc57610100808354040283529160200191611fe7565b820191906000526020600020905b815481529060010190602001808311611fca57829003601f168201915b50505050508152602001600182018054600181600116156101000203166002900480601f0160208091040260200160405190810160405280929190818152602001828054600181600116156101000203166002900480156120895780601f1061205e57610100808354040283529160200191612089565b820191906000526020600020905b81548152906001019060200180831161206c57829003601f168201915b50505050508152602001600282018054600181600116156101000203166002900480601f01602080910402602001604051908101604052809291908181526020018280546001816001161561010002031660029004801561212b5780601f106121005761010080835404028352916020019161212b565b820191906000526020600020905b81548152906001019060200180831161210e57829003601f168201915b50505050508152602001600382018054600181600116156101000203166002900480601f0160208091040260200160405190810160405280929190818152602001828054600181600116156101000203166002900480156121cd5780601f106121a2576101008083540402835291602001916121cd565b820191906000526020600020905b8154815290600101906020018083116121b057829003601f168201915b50505050508152602001600482018054600181600116156101000203166002900480601f01602080910402602001604051908101604052809291908181526020018280546001816001161561010002031660029004801561226f5780601f106122445761010080835404028352916020019161226f565b820191906000526020600020905b81548152906001019060200180831161225257829003601f168201915b505050505081526020016005820154815250509150858260a001511415612295576122a2565b8080600101915050611ee3565b50898160000181905250888160200181905250878160400181905250868160600181905250858160800181905250848160a00181815250503373ffffffffffffffffffffffffffffffffffffffff168b73ffffffffffffffffffffffffffffffffffffffff167f30990cdc5872ccbf411335c8ed18c1622ddeafe254b87f4ab281a8536fdc105d836000015184602001518560400151866060015187608001518860a001518b60405161235b9796959493929190615a45565b60405180910390a360019350505050979650505050505050565b61237e81614244565b50565b6060600b60009054906101000a900460ff161561239d57600080fd5b6123a63361295c565b806123b657506123b533613fdd565b5b6123f5576040517f08c379a00000000000000000000000000000000000000000000000000000000081526004016123ec90615c3f565b60405180910390fd5b600073ffffffffffffffffffffffffffffffffffffffff168273ffffffffffffffffffffffffffffffffffffffff16141561242f57600080fd5b61243833613fdd565b8061244857506124473361295c565b5b156124e257600a60008373ffffffffffffffffffffffffffffffffffffffff1673ffffffffffffffffffffffffffffffffffffffff1681526020019081526020016000208054806020026020016040519081016040528092919081815260200182805480156124d657602002820191906000526020600020905b8154815260200190600101908083116124c2575b50505050509050612697565b6124eb3361295c565b156125bd578173ffffffffffffffffffffffffffffffffffffffff163373ffffffffffffffffffffffffffffffffffffffff161461252857600080fd5b600a60008373ffffffffffffffffffffffffffffffffffffffff1673ffffffffffffffffffffffffffffffffffffffff1681526020019081526020016000208054806020026020016040519081016040528092919081815260200182805480156125b157602002820191906000526020600020905b81548152602001906001019080831161259d575b50505050509050612696565b6125c633613fdd565b15612695578173ffffffffffffffffffffffffffffffffffffffff163373ffffffffffffffffffffffffffffffffffffffff16141561260457600080fd5b600a60008373ffffffffffffffffffffffffffffffffffffffff1673ffffffffffffffffffffffffffffffffffffffff16815260200190815260200160002080548060200260200160405190810160405280929190818152602001828054801561268d57602002820191906000526020600020905b815481526020019060010190808311612679575b505050505090505b5b5b3373ffffffffffffffffffffffffffffffffffffffff168273ffffffffffffffffffffffffffffffffffffffff167fc7f5159d1102cf2ec23ffec745ab0d855395057e6c5f7619dc2826012fe9a5b5836040516126f49190615723565b60405180910390a3919050565b61270a33610fe9565b612749576040517f08c379a000000000000000000000000000000000000000000000000000000000815260040161274090615c1f565b60405180910390fd5b612752816142b5565b50565b61275e33610fe9565b61279d576040517f08c379a000000000000000000000000000000000000000000000000000000000815260040161279490615c1f565b60405180910390fd5b6127a681614162565b50565b6127b233613fdd565b6127f1576040517f08c379a00000000000000000000000000000000000000000000000000000000081526004016127e890615bbf565b60405180910390fd5b6127fa81614326565b50565b61280633614397565b565b6000600b60009054906101000a900460ff161561282457600080fd5b61282d33613fdd565b61286c576040517f08c379a000000000000000000000000000000000000000000000000000000000815260040161286390615bbf565b60405180910390fd5b600073ffffffffffffffffffffffffffffffffffffffff168373ffffffffffffffffffffffffffffffffffffffff1614156128a657600080fd5b602e8251146128b457600080fd5b6007826040516128c4919061570c565b9081526020016040518091039020600080820160006128e39190614738565b600182016000905550503373ffffffffffffffffffffffffffffffffffffffff168373ffffffffffffffffffffffffffffffffffffffff167f9c676f11f477f126926ac2bc49046b7a599e258a4f198776caa2644fce3cd7c68460405161294a9190615782565b60405180910390a36001905092915050565b6000612972826002613ffa90919063ffffffff16565b9050919050565b6000600b60009054906101000a900460ff161561299557600080fd5b61299e33613fdd565b6129dd576040517f08c379a00000000000000000000000000000000000000000000000000000000081526004016129d490615bbf565b60405180910390fd5b600073ffffffffffffffffffffffffffffffffffffffff168973ffffffffffffffffffffffffffffffffffffffff161415612a1757600080fd5b610100885110612a2657600080fd5b60788710612a3357600080fd5b6102bc8610612a4157600080fd5b6032855110612a4f57600080fd5b610200845110612a5e57600080fd5b60008210158015612a8f57507fffffffffffffffffffffffffffffffffffffffffffffffffffffffffffffffff8211155b612a9857600080fd5b6000835111612aa657600080fd5b612aae614622565b612ab88a846119b4565b90508881600001819052508781602001818152505086816040018181525050858160600181905250848160800181905250838160a001819052503373ffffffffffffffffffffffffffffffffffffffff168a73ffffffffffffffffffffffffffffffffffffffff167f57b35ea5e0b3057bf8b2db47386f7e40ad15933e5c3a8d21e66f0de63fc0cf2383600001518460200151856040015186606001518760800151604051612b6b959493929190615b07565b60405180910390a3600191505098975050505050505050565b6000600680549050905090565b6000600b60009054906101000a900460ff1615612bad57600080fd5b612bb633613fdd565b612bf5576040517f08c379a0000000000000000000000000000000000000000000000000000000008152600401612bec90615bbf565b60405180910390fd5b600073ffffffffffffffffffffffffffffffffffffffff168473ffffffffffffffffffffffffffffffffffffffff161415612c2f57600080fd5b610100835110612c3e57600080fd5b602e825114612c4c57600080fd5b612c54614800565b600783604051612c64919061570c565b9081526020016040518091039020604051806040016040529081600082018054600181600116156101000203166002900480601f016020809104026020016040519081016040528092919081815260200182805460018160011615610100020316600290048015612d165780601f10612ceb57610100808354040283529160200191612d16565b820191906000526020600020905b815481529060010190602001808311612cf957829003601f168201915b5050505050815260200160018201548152505090508381600001819052503373ffffffffffffffffffffffffffffffffffffffff168573ffffffffffffffffffffffffffffffffffffffff167f87a983619f6316fe3e7ce828f67913b1a1048bf0b29304e3722f250644b049818360000151604051612d959190615760565b60405180910390a360019150509392505050565b612db233610fe9565b612df1576040517f08c379a0000000000000000000000000000000000000000000000000000000008152600401612de890615c1f565b60405180910390fd5b612dfa816143f1565b50565b612e0633610fe9565b612e45576040517f08c379a0000000000000000000000000000000000000000000000000000000008152600401612e3c90615c1f565b60405180910390fd5b612e4e81614462565b50565b60006006805490508263ffffffff1610612e6e5760009050613021565b606060068363ffffffff1681548110612e8357fe5b906000526020600020018054600181600116156101000203166002900480601f016020809104026020016040519081016040528092919081815260200182805460018160011615610100020316600290048015612f215780601f10612ef657610100808354040283529160200191612f21565b820191906000526020600020905b815481529060010190602001808311612f0457829003601f168201915b5050505050905060008363ffffffff1690505b600160068054905003811015612fa25760066001820181548110612f5457fe5b9060005260206000200160068281548110612f6b57fe5b906000526020600020019080546001816001161561010002031660029004612f94929190614850565b508080600101915050612f34565b50600660016006805490500381548110612fb857fe5b906000526020600020016000612fce9190614738565b6006805480919060019003612fe391906148d7565b507ff2cbfee8c87498d0a092f7a5fd04a4bdad181bc04b6dfb9f6406e09809d2f584816040516130139190615782565b60405180910390a160019150505b919050565b600061303c826003613ffa90919063ffffffff16565b9050919050565b6000600b60009054906101000a900460ff161561305f57600080fd5b61306833613fdd565b6130a7576040517f08c379a000000000000000000000000000000000000000000000000000000000815260040161309e90615bbf565b60405180910390fd5b600073ffffffffffffffffffffffffffffffffffffffff168473ffffffffffffffffffffffffffffffffffffffff1614156130e157600080fd5b6130ea8461295c565b6130f357600080fd5b61010083511061310257600080fd5b602e82511461311057600080fd5b600042905061311d614800565b604051806040016040528086815260200183815250905080600785604051613145919061570c565b9081526020016040518091039020600082015181600001908051906020019061316f929190614658565b50602082015181600101559050503373ffffffffffffffffffffffffffffffffffffffff168673ffffffffffffffffffffffffffffffffffffffff167f977dc7867dd6fb513af3d4bb11f4457a5052487f13412788530b454c0b7dfa2c866040516131da9190615782565b60405180910390a36001925050509392505050565b6004602052816000526040600020818154811061320857fe5b906000526020600020906006020160009150915050806000018054600181600116156101000203166002900480601f0160208091040260200160405190810160405280929190818152602001828054600181600116156101000203166002900480156132b55780601f1061328a576101008083540402835291602001916132b5565b820191906000526020600020905b81548152906001019060200180831161329857829003601f168201915b505050505090806001018054600181600116156101000203166002900480601f0160208091040260200160405190810160405280929190818152602001828054600181600116156101000203166002900480156133535780601f1061332857610100808354040283529160200191613353565b820191906000526020600020905b81548152906001019060200180831161333657829003601f168201915b505050505090806002018054600181600116156101000203166002900480601f0160208091040260200160405190810160405280929190818152602001828054600181600116156101000203166002900480156133f15780601f106133c6576101008083540402835291602001916133f1565b820191906000526020600020905b8154815290600101906020018083116133d457829003601f168201915b505050505090806003018054600181600116156101000203166002900480601f01602080910402602001604051908101604052809291908181526020018280546001816001161561010002031660029004801561348f5780601f106134645761010080835404028352916020019161348f565b820191906000526020600020905b81548152906001019060200180831161347257829003601f168201915b505050505090806004018054600181600116156101000203166002900480601f01602080910402602001604051908101604052809291908181526020018280546001816001161561010002031660029004801561352d5780601f106135025761010080835404028352916020019161352d565b820191906000526020600020905b81548152906001019060200180831161351057829003601f168201915b5050505050908060050154905086565b6000600b60009054906101000a900460ff161561355957600080fd5b61356233613fdd565b6135a1576040517f08c379a000000000000000000000000000000000000000000000000000000000815260040161359890615bbf565b60405180910390fd5b600073ffffffffffffffffffffffffffffffffffffffff168373ffffffffffffffffffffffffffffffffffffffff1614156135db57600080fd5b6000821015801561360c57507fffffffffffffffffffffffffffffffffffffffffffffffffffffffffffffffff8211155b61361557600080fd5b600960008473ffffffffffffffffffffffffffffffffffffffff1673ffffffffffffffffffffffffffffffffffffffff1681526020019081526020016000206000838152602001908152602001600020600080820160006136769190614738565b600182016000905560028201600090556003820160006136969190614738565b6004820160006136a69190614738565b6005820160006136b69190614903565b50503373ffffffffffffffffffffffffffffffffffffffff168373ffffffffffffffffffffffffffffffffffffffff167f7c7588a2bfe6e9d3c0acb5a62b93b9cb012ba9a6de37d69a1f4c1067b0cfa530846040516137159190615c81565b60405180910390a36001905092915050565b6000600b60009054906101000a900460ff161561374357600080fd5b61374c33610fe9565b61378b576040517f08c379a000000000000000000000000000000000000000000000000000000000815260040161378290615c1f565b60405180910390fd5b600073ffffffffffffffffffffffffffffffffffffffff168773ffffffffffffffffffffffffffffffffffffffff1614156137c557600080fd5b60808651106137d357600080fd5b601e8551106137e157600080fd5b601e8451106137ef57600080fd5b601e8351106137fd57600080fd5b601e82511061380b57600080fd5b600042905061381861481a565b6040518060c00160405280898152602001888152602001878152602001868152602001858152602001838152509050600460008a73ffffffffffffffffffffffffffffffffffffffff1673ffffffffffffffffffffffffffffffffffffffff168152602001908152602001600020819080600181540180825580915050906001820390600052602060002090600602016000909192909190915060008201518160000190805190602001906138ce929190614658565b5060208201518160010190805190602001906138eb929190614658565b506040820151816002019080519060200190613908929190614658565b506060820151816003019080519060200190613925929190614658565b506080820151816004019080519060200190613942929190614658565b5060a082015181600501555050503373ffffffffffffffffffffffffffffffffffffffff168973ffffffffffffffffffffffffffffffffffffffff167f99ef3acfa68b13c01a6a7e6717e2224b4157940e6a56be5bd957d13c059fe3a08a8a8a8a8a896040516139b79695949392919061581a565b60405180910390a36001925050509695505050505050565b6060806060806060600b60009054906101000a900460ff16156139f157600080fd5b6139fa33610fe9565b613a39576040517f08c379a0000000000000000000000000000000000000000000000000000000008152600401613a3090615c1f565b60405180910390fd5b613a4233610fe9565b15613a81578673ffffffffffffffffffffffffffffffffffffffff163373ffffffffffffffffffffffffffffffffffffffff161415613a8057600080fd5b5b600073ffffffffffffffffffffffffffffffffffffffff168773ffffffffffffffffffffffffffffffffffffffff161415613abb57600080fd5b60008610158015613aec57507fffffffffffffffffffffffffffffffffffffffffffffffffffffffffffffffff8611155b613af557600080fd5b6000600460008973ffffffffffffffffffffffffffffffffffffffff1673ffffffffffffffffffffffffffffffffffffffff1681526020019081526020016000208054905011613b4457600080fd5b60004290506000613b54896140c2565b9050613b5e61481a565b60008090505b82811015613f2357600460008c73ffffffffffffffffffffffffffffffffffffffff1673ffffffffffffffffffffffffffffffffffffffff1681526020019081526020016000208181548110613bb657fe5b90600052602060002090600602016040518060c0016040529081600082018054600181600116156101000203166002900480601f016020809104026020016040519081016040528092919081815260200182805460018160011615610100020316600290048015613c685780601f10613c3d57610100808354040283529160200191613c68565b820191906000526020600020905b815481529060010190602001808311613c4b57829003601f168201915b50505050508152602001600182018054600181600116156101000203166002900480601f016020809104026020016040519081016040528092919081815260200182805460018160011615610100020316600290048015613d0a5780601f10613cdf57610100808354040283529160200191613d0a565b820191906000526020600020905b815481529060010190602001808311613ced57829003601f168201915b50505050508152602001600282018054600181600116156101000203166002900480601f016020809104026020016040519081016040528092919081815260200182805460018160011615610100020316600290048015613dac5780601f10613d8157610100808354040283529160200191613dac565b820191906000526020600020905b815481529060010190602001808311613d8f57829003601f168201915b50505050508152602001600382018054600181600116156101000203166002900480601f016020809104026020016040519081016040528092919081815260200182805460018160011615610100020316600290048015613e4e5780601f10613e2357610100808354040283529160200191613e4e565b820191906000526020600020905b815481529060010190602001808311613e3157829003601f168201915b50505050508152602001600482018054600181600116156101000203166002900480601f016020809104026020016040519081016040528092919081815260200182805460018160011615610100020316600290048015613ef05780601f10613ec557610100808354040283529160200191613ef0565b820191906000526020600020905b815481529060010190602001808311613ed357829003601f168201915b505050505081526020016005820154815250509150898260a001511415613f1657613f23565b8080600101915050613b64565b503373ffffffffffffffffffffffffffffffffffffffff168a73ffffffffffffffffffffffffffffffffffffffff167fec95aa37f5ff4f1e52a5333f61229ce376a04a63d4ccdfae6678ef305b97f232836000015184602001518560400151866060015187608001518860a001518b604051613fa59796959493929190615a45565b60405180910390a380600001519750806020015196508060400151955080606001519450806080015193505050509295509295909350565b6000613ff3826001613ffa90919063ffffffff16565b9050919050565b60008073ffffffffffffffffffffffffffffffffffffffff168273ffffffffffffffffffffffffffffffffffffffff16141561406b576040517f08c379a000000000000000000000000000000000000000000000000000000000815260040161406290615bff565b60405180910390fd5b8260000160008373ffffffffffffffffffffffffffffffffffffffff1673ffffffffffffffffffffffffffffffffffffffff16815260200190815260200160002060009054906101000a900460ff16905092915050565b6000600b60009054906101000a900460ff16156140de57600080fd5b600073ffffffffffffffffffffffffffffffffffffffff168273ffffffffffffffffffffffffffffffffffffffff16141561411857600080fd5b600460008373ffffffffffffffffffffffffffffffffffffffff1673ffffffffffffffffffffffffffffffffffffffff168152602001908152602001600020805490509050919050565b6141768160016144d390919063ffffffff16565b3373ffffffffffffffffffffffffffffffffffffffff168173ffffffffffffffffffffffffffffffffffffffff167fb35968fdda9034197de288afbe8a2947dedade83d7dbc0de3e340d4f62ce64dc60405160405180910390a350565b6141e781600361457a90919063ffffffff16565b3373ffffffffffffffffffffffffffffffffffffffff168173ffffffffffffffffffffffffffffffffffffffff167f7fef988ea6e2f03c1f9fb16df333b2a7911dfb096f5c563866713c1c9517ec7060405160405180910390a350565b61425881600261457a90919063ffffffff16565b3373ffffffffffffffffffffffffffffffffffffffff168173ffffffffffffffffffffffffffffffffffffffff167ff6dfb9f71429364456283a1521c30cc400d799d7b381d7ce164687f11c18dbaf60405160405180910390a350565b6142c981600061457a90919063ffffffff16565b3373ffffffffffffffffffffffffffffffffffffffff168173ffffffffffffffffffffffffffffffffffffffff167fbf3f493c772c8c283fd124432c2d0f539ab343faa04258fe88e52912d36b102b60405160405180910390a350565b61433a8160026144d390919063ffffffff16565b3373ffffffffffffffffffffffffffffffffffffffff168173ffffffffffffffffffffffffffffffffffffffff167fd00481c3fc5867ec74704c9c99334b8d53c7735c947bdcb6cbebcae6740ed94060405160405180910390a350565b6143ab8160006144d390919063ffffffff16565b8073ffffffffffffffffffffffffffffffffffffffff167f583e7032182b053f2bcd5e3ac78021a3c8d321735043ee84032742c9a6528afd60405160405180910390a250565b61440581600161457a90919063ffffffff16565b3373ffffffffffffffffffffffffffffffffffffffff168173ffffffffffffffffffffffffffffffffffffffff167f93b0ab94930bbad064296971ea5e731f84ae511662781bcaf28543ab9042368a60405160405180910390a350565b6144768160036144d390919063ffffffff16565b3373ffffffffffffffffffffffffffffffffffffffff168173ffffffffffffffffffffffffffffffffffffffff167f83bb2e314d2b42b828b2082c5f08a3b9162d6322fe9b8bdaa47dc3d26ce183af60405160405180910390a350565b6144dd8282613ffa565b61451c576040517f08c379a000000000000000000000000000000000000000000000000000000000815260040161451390615bdf565b60405180910390fd5b60008260000160008373ffffffffffffffffffffffffffffffffffffffff1673ffffffffffffffffffffffffffffffffffffffff16815260200190815260200160002060006101000a81548160ff0219169083151502179055505050565b6145848282613ffa565b156145c4576040517f08c379a00000000000000000000000000000000000000000000000000000000081526004016145bb90615b9f565b60405180910390fd5b60018260000160008373ffffffffffffffffffffffffffffffffffffffff1673ffffffffffffffffffffffffffffffffffffffff16815260200190815260200160002060006101000a81548160ff0219169083151502179055505050565b6040518060c001604052806060815260200160008152602001600081526020016060815260200160608152602001606081525090565b828054600181600116156101000203166002900490600052602060002090601f016020900481019282601f1061469957805160ff19168380011785556146c7565b828001600101855582156146c7579182015b828111156146c65782518255916020019190600101906146ab565b5b5090506146d49190614924565b5090565b828054828255906000526020600020908101928215614727579160200282015b82811115614726578251829080519060200190614716929190614658565b50916020019190600101906146f8565b5b5090506147349190614949565b5090565b50805460018160011615610100020316600290046000825580601f1061475e575061477d565b601f01602090049060005260206000209081019061477c9190614924565b5b50565b828054600181600116156101000203166002900490600052602060002090601f016020900481019282601f106147c157805160ff19168380011785556147ef565b828001600101855582156147ef579182015b828111156147ee5782518255916020019190600101906147d3565b5b5090506147fc9190614924565b5090565b604051806040016040528060608152602001600081525090565b6040518060c001604052806060815260200160608152602001606081526020016060815260200160608152602001600081525090565b828054600181600116156101000203166002900490600052602060002090601f016020900481019282601f1061488957805485556148c6565b828001600101855582156148c657600052602060002091601f016020900482015b828111156148c55782548255916001019190600101906148aa565b5b5090506148d39190614924565b5090565b8154818355818111156148fe578183600052602060002091820191016148fd9190614949565b5b505050565b50805460008255906000526020600020908101906149219190614949565b50565b61494691905b8082111561494257600081600090555060010161492a565b5090565b90565b61497291905b8082111561496e57600081816149659190614738565b5060010161494f565b5090565b90565b60008135905061498481615f17565b92915050565b600082601f83011261499b57600080fd5b81356149ae6149a982615cc9565b615c9c565b9150818183526020840193506020810190508360005b838110156149f457813586016149da8882614a13565b8452602084019350602083019250506001810190506149c4565b5050505092915050565b600081359050614a0d81615f2e565b92915050565b600082601f830112614a2457600080fd5b8135614a37614a3282615cf1565b615c9c565b91508082526020830160208301858383011115614a5357600080fd5b614a5e838284615ec4565b50505092915050565b600082601f830112614a7857600080fd5b8135614a8b614a8682615d1d565b615c9c565b91508082526020830160208301858383011115614aa757600080fd5b614ab2838284615ec4565b50505092915050565b600081359050614aca81615f45565b92915050565b600081359050614adf81615f5c565b92915050565b600081359050614af481615f73565b92915050565b600060208284031215614b0c57600080fd5b6000614b1a84828501614975565b91505092915050565b60008060408385031215614b3657600080fd5b6000614b4485828601614975565b925050602083013567ffffffffffffffff811115614b6157600080fd5b614b6d85828601614a67565b9150509250929050565b600080600060608486031215614b8c57600080fd5b6000614b9a86828701614975565b935050602084013567ffffffffffffffff811115614bb757600080fd5b614bc386828701614a67565b925050604084013567ffffffffffffffff811115614be057600080fd5b614bec86828701614a67565b9150509250925092565b60008060008060008060c08789031215614c0f57600080fd5b6000614c1d89828a01614975565b965050602087013567ffffffffffffffff811115614c3a57600080fd5b614c4689828a01614a67565b955050604087013567ffffffffffffffff811115614c6357600080fd5b614c6f89828a01614a67565b945050606087013567ffffffffffffffff811115614c8c57600080fd5b614c9889828a01614a67565b935050608087013567ffffffffffffffff811115614cb557600080fd5b614cc189828a01614a67565b92505060a087013567ffffffffffffffff811115614cde57600080fd5b614cea89828a01614a67565b9150509295509295509295565b600080600080600080600060e0888a031215614d1257600080fd5b6000614d208a828b01614975565b975050602088013567ffffffffffffffff811115614d3d57600080fd5b614d498a828b01614a67565b965050604088013567ffffffffffffffff811115614d6657600080fd5b614d728a828b01614a67565b955050606088013567ffffffffffffffff811115614d8f57600080fd5b614d9b8a828b01614a67565b945050608088013567ffffffffffffffff811115614db857600080fd5b614dc48a828b01614a67565b93505060a088013567ffffffffffffffff811115614de157600080fd5b614ded8a828b01614a67565b92505060c0614dfe8a828b01614ad0565b91505092959891949750929550565b600080600080600080600060e0888a031215614e2857600080fd5b6000614e368a828b01614975565b975050602088013567ffffffffffffffff811115614e5357600080fd5b614e5f8a828b01614a67565b9650506040614e708a828b01614abb565b9550506060614e818a828b01614abb565b945050608088013567ffffffffffffffff811115614e9e57600080fd5b614eaa8a828b01614a67565b93505060a088013567ffffffffffffffff811115614ec757600080fd5b614ed38a828b01614a67565b92505060c088013567ffffffffffffffff811115614ef057600080fd5b614efc8a828b0161498a565b91505092959891949750929550565b600080600080600080600080610100898b031215614f2857600080fd5b6000614f368b828c01614975565b985050602089013567ffffffffffffffff811115614f5357600080fd5b614f5f8b828c01614a67565b9750506040614f708b828c01614ad0565b9650506060614f818b828c01614ad0565b955050608089013567ffffffffffffffff811115614f9e57600080fd5b614faa8b828c01614a67565b94505060a089013567ffffffffffffffff811115614fc757600080fd5b614fd38b828c01614a67565b93505060c089013567ffffffffffffffff811115614ff057600080fd5b614ffc8b828c0161498a565b92505060e061500d8b828c01614ad0565b9150509295985092959890939650565b6000806040838503121561503057600080fd5b600061503e85828601614975565b925050602061504f85828601614ad0565b9150509250929050565b60006020828403121561506b57600080fd5b6000615079848285016149fe565b91505092915050565b60006020828403121561509457600080fd5b600082013567ffffffffffffffff8111156150ae57600080fd5b6150ba84828501614a67565b91505092915050565b6000602082840312156150d557600080fd5b60006150e384828501614ad0565b91505092915050565b6000602082840312156150fe57600080fd5b600061510c84828501614ae5565b91505092915050565b60006151218383615302565b905092915050565b600061513583836156ee565b60208301905092915050565b600061514c82615d99565b6151568185615dfd565b93508360208202850161516885615d59565b8060005b858110156151a457848403895281516151858582615115565b945061519083615dd2565b925060208a0199505060018101905061516c565b50829750879550505050505092915050565b60006151c182615d8e565b6151cb8185615dec565b9350836020820285016151dd85615d49565b8060005b8581101561521957848403895281516151fa8582615115565b945061520583615dc5565b925060208a019950506001810190506151e1565b50829750879550505050505092915050565b600061523682615da4565b6152408185615e0e565b935061524b83615d69565b8060005b8381101561527c5781516152638882615129565b975061526e83615ddf565b92505060018101905061524f565b5085935050505092915050565b61529281615e5e565b82525050565b60006152a382615dba565b6152ad8185615e30565b93506152bd818560208601615ed3565b6152c681615f06565b840191505092915050565b60006152dc82615dba565b6152e68185615e41565b93506152f6818560208601615ed3565b80840191505092915050565b600061530d82615daf565b6153178185615e1f565b9350615327818560208601615ed3565b61533081615f06565b840191505092915050565b600061534682615daf565b6153508185615e30565b9350615360818560208601615ed3565b61536981615f06565b840191505092915050565b60008154600181166000811461539157600181146153b7576153fb565b607f60028304166153a28187615e30565b955060ff1983168652602086019350506153fb565b600282046153c58187615e30565b95506153d085615d79565b60005b828110156153f2578154818901526001820191506020810190506153d3565b80880195505050505b505092915050565b6000615410601f83615e30565b91507f526f6c65733a206163636f756e7420616c72656164792068617320726f6c65006000830152602082019050919050565b6000615450602d83615e30565b91507f4e6f207365206375656e746120636f6e20656c20726f6c20657370656369666960008301527f6361646f284dc3a96469636f29000000000000000000000000000000000000006020830152604082019050919050565b60006154b6602183615e30565b91507f526f6c65733a206163636f756e7420646f6573206e6f74206861766520726f6c60008301527f65000000000000000000000000000000000000000000000000000000000000006020830152604082019050919050565b600061551c602283615e30565b91507f526f6c65733a206163636f756e7420697320746865207a65726f20616464726560008301527f73730000000000000000000000000000000000000000000000000000000000006020830152604082019050919050565b6000615582602b83615e30565b91507f4e6f207365206375656e746120636f6e20656c20726f6c20657370656369666960008301527f6361646f2841646d696e290000000000000000000000000000000000000000006020830152604082019050919050565b60006155e8603883615e30565b91507f4e6f207365206375656e746120636f6e20656c20726f6c20657370656369666960008301527f6361646f2850616369656e7465206f206dc3a96469636f2900000000000000006020830152604082019050919050565b600060c083016000830151848203600086015261565e8282615302565b915050602083015161567360208601826156ee565b50604083015161568660408601826156ee565b506060830151848203606086015261569e8282615302565b915050608083015184820360808601526156b88282615302565b91505060a083015184820360a08601526156d282826151b6565b9150508091505092915050565b6156e881615eb2565b82525050565b6156f781615e98565b82525050565b61570681615e98565b82525050565b600061571882846152d1565b915081905092915050565b6000602082019050818103600083015261573d818461522b565b905092915050565b600060208201905061575a6000830184615289565b92915050565b6000602082019050818103600083015261577a818461533b565b905092915050565b6000602082019050818103600083015261579c8184615298565b905092915050565b600060a08201905081810360008301526157be8188615298565b905081810360208301526157d28187615298565b905081810360408301526157e68186615298565b905081810360608301526157fa8185615298565b9050818103608083015261580e8184615298565b90509695505050505050565b600060c08201905081810360008301526158348189615298565b905081810360208301526158488188615298565b9050818103604083015261585c8187615298565b905081810360608301526158708186615298565b905081810360808301526158848185615298565b905061589360a08301846156fd565b979650505050505050565b600060c08201905081810360008301526158b88189615298565b90506158c760208301886156df565b6158d460408301876156df565b81810360608301526158e68186615298565b905081810360808301526158fa8185615298565b905061590960a08301846156fd565b979650505050505050565b6000604082019050818103600083015261592e8185615298565b905061593d60208301846156fd565b9392505050565b600060c082019050818103600083015261595e8189615298565b905061596d60208301886156fd565b61597a60408301876156fd565b818103606083015261598c8186615298565b905081810360808301526159a08185615298565b905081810360a08301526159b48184615141565b9050979650505050505050565b600060c08201905081810360008301526159db818961533b565b905081810360208301526159ef818861533b565b90508181036040830152615a03818761533b565b90508181036060830152615a17818661533b565b90508181036080830152615a2b818561533b565b9050615a3a60a08301846156fd565b979650505050505050565b600060e0820190508181036000830152615a5f818a61533b565b90508181036020830152615a73818961533b565b90508181036040830152615a87818861533b565b90508181036060830152615a9b818761533b565b90508181036080830152615aaf818661533b565b9050615abe60a08301856156fd565b615acb60c08301846156fd565b98975050505050505050565b60006040820190508181036000830152615af1818561533b565b9050615b0060208301846156fd565b9392505050565b600060a0820190508181036000830152615b21818861533b565b9050615b3060208301876156fd565b615b3d60408301866156fd565b8181036060830152615b4f818561533b565b90508181036080830152615b63818461533b565b90509695505050505050565b60006040820190508181036000830152615b898185615374565b9050615b9860208301846156fd565b9392505050565b60006020820190508181036000830152615bb881615403565b9050919050565b60006020820190508181036000830152615bd881615443565b9050919050565b60006020820190508181036000830152615bf8816154a9565b9050919050565b60006020820190508181036000830152615c188161550f565b9050919050565b60006020820190508181036000830152615c3881615575565b9050919050565b60006020820190508181036000830152615c58816155db565b9050919050565b60006020820190508181036000830152615c798184615641565b905092915050565b6000602082019050615c9660008301846156fd565b92915050565b6000604051905081810181811067ffffffffffffffff82111715615cbf57600080fd5b8060405250919050565b600067ffffffffffffffff821115615ce057600080fd5b602082029050602081019050919050565b600067ffffffffffffffff821115615d0857600080fd5b601f19601f8301169050602081019050919050565b600067ffffffffffffffff821115615d3457600080fd5b601f19601f8301169050602081019050919050565b6000819050602082019050919050565b6000819050602082019050919050565b6000819050602082019050919050565b60008190508160005260206000209050919050565b600081519050919050565b600081519050919050565b600081519050919050565b600081519050919050565b600081519050919050565b6000602082019050919050565b6000602082019050919050565b6000602082019050919050565b600082825260208201905092915050565b600082825260208201905092915050565b600082825260208201905092915050565b600082825260208201905092915050565b600082825260208201905092915050565b600081905092915050565b6000615e5782615e78565b9050919050565b60008115159050919050565b600061ffff82169050919050565b600073ffffffffffffffffffffffffffffffffffffffff82169050919050565b6000819050919050565b600063ffffffff82169050919050565b6000615ebd82615e6a565b9050919050565b82818337600083830152505050565b60005b83811015615ef1578082015181840152602081019050615ed6565b83811115615f00576000848401525b50505050565b6000601f19601f8301169050919050565b615f2081615e4c565b8114615f2b57600080fd5b50565b615f3781615e5e565b8114615f4257600080fd5b50565b615f4e81615e6a565b8114615f5957600080fd5b50565b615f6581615e98565b8114615f7057600080fd5b50565b615f7c81615ea2565b8114615f8757600080fd5b5056fea365627a7a723158204f1c6a1280f5419cd83fbb53e2ef876315759b1f1ca7d2a3cc60f96a9cdf774a6c6578706572696d656e74616cf564736f6c63430005100040",
  "source": "pragma solidity 0.5.16;\r\npragma experimental ABIEncoderV2;\r\n\r\nimport \"./PatientRecords.sol\";\r\n\r\n/**\r\n * @title Smart Contract de Diagnstico de pacientes - Control de Diagnstico realizado por el mdico.\r\n * @author Francisco Alemn\r\n * @notice Este contrato representa el registro de un Diagnstico asociado a una persona.\r\n * @dev El contrato hereda las funciones del contrato de roles\r\n */\r\n\r\ncontract PatientDiagnosis is PatientRecords {\r\n\r\n    /**\r\n     * @title Representa un Dignostico el cual le pertenece a un paciente.\r\n     */\r\n    struct Diagnostico {\r\n        string comorb;\r\n        uint256 age;\r\n        uint256 weight;\r\n        string diagnostic;\r\n        string observations;\r\n        string[] estudio;\r\n    }\r\n\r\n    /**\r\n     * @notice Mapea el paciente a su diagnstico..\r\n     */\r\n    mapping (address => mapping (uint256 => Diagnostico)) public fileToPatientDiagnosis;\r\n    mapping (address => uint256[]) public extendedFileToPatientDiagnosis;\r\n    /**\r\n     * @notice Patrn de switch para encender/apagar\r\n     */\r\n    bool private stopped = false;\r\n\r\n    /**\r\n     * @dev Eventos que sern registrados en la blockchain.\r\n     */\r\n    event DiagnosticdAdded(\r\n        address indexed _patient,\r\n        address indexed _medic,\r\n        string _comorb,\r\n        uint256 _age,\r\n        uint256 _weight,\r\n        string _diagnostic,\r\n        string _observations,\r\n        uint256 _date\r\n        );\r\n\r\n    event DiagnosisUpdate(\r\n        address indexed _patient,\r\n        address indexed _medic,\r\n        string _comorb,\r\n        uint256 _age,\r\n        uint256 _weight,\r\n        string _diagnostic,\r\n        string _observations\r\n        );\r\n\r\n    event DiagnosticRetrieve(\r\n        address indexed _patient,\r\n        address indexed _medic,\r\n        string _comorb,\r\n        uint256 _age,\r\n        uint256 _weight,\r\n        string _diagnostic,\r\n        string  _observations\r\n        );\r\n\r\n    event FullDiagnosticRetrieve(\r\n        address indexed _patient,\r\n        address indexed _medic,\r\n        uint256[] _dates\r\n    );\r\n\r\n    event DiagnosticDelete(\r\n        address indexed _patient,\r\n        address indexed _medic,\r\n        uint256 _date\r\n        );\r\n\r\n    /**\r\n    * @dev Indica que se ha puesto el contrato en pausa.\r\n    * @param _admin Un administrador\r\n    * @param _stop Indica cuando hay una pausa o una reanudacin.\r\n    */\r\n    event LogSwitchStop(\r\n        address indexed _admin,\r\n        bool _stop\r\n    );\r\n\r\n    /**\r\n    * @dev Previene de ejecucin del contrato\r\n    */\r\n    modifier nonlyStopped {\r\n        require(!stopped);\r\n        _;\r\n    }\r\n\r\n    /**\r\n    * @dev Est funcin ser llamada para todos los mensajes que sean enviados a este contrado.\r\n    * Enviar Ether a este contrato ocasionar una excepcin, dado que las funciones no tienen un modificador de pago.\r\n    */\r\n    function () external payable {}\r\n\r\n    /**\r\n    * @notice Pausar el contrato\r\n    * Se detiene el contrato bajo ciertas condiciones.\r\n    * Sera til cuando nuevos errores sean descubiertos.\r\n    * @param _stop Switch del contrado de encendido/apagado\r\n    */\r\n    function emergencyStop(bool _stop) public onlyAdmin {\r\n        stopped = _stop;\r\n        emit LogSwitchStop(msg.sender, _stop);\r\n    }\r\n\r\n    function patientDiagnosis(address _account, uint256 _timeStamp) public view returns (Diagnostico memory) {\r\n        return fileToPatientDiagnosis[_account][_timeStamp];\r\n    }\r\n\r\n    /**\r\n   * @dev Funcin de creacin de Diagnstico. Esta funcin es realizada por un doctor.\r\n   * @param _account a\r\n   * @param _age a\r\n   * @param _weight a\r\n   * @param _diagnostic a\r\n   * @param _observations a\r\n   *@param _date a\r\n   * @return _success a\r\n   */\r\n    function addDiagnostic(\r\n        address _account,\r\n        string memory _comorb,\r\n        uint16 _age,\r\n        uint16 _weight,\r\n        string memory _diagnostic,\r\n        string memory _observations,\r\n        string[] memory _estudio\r\n        )\r\n    public nonlyStopped onlyMedic returns (bool _success) {\r\n        require(_account != address(0));\r\n        require(isPatient(_account) && isMedic(msg.sender));\r\n        require(bytes(_comorb).length < 50);\r\n        require(_age < 120);\r\n        require(_weight < 700);\r\n        require(bytes(_diagnostic).length < 256);\r\n        require(bytes(_observations).length < 512);\r\n\r\n        uint256 _date = now;\r\n        Diagnostico memory diagnostico = Diagnostico(\r\n            _comorb,\r\n            _age,\r\n            _weight,\r\n            _diagnostic,\r\n            _observations,\r\n            _estudio\r\n        );\r\n\r\n        fileToPatientDiagnosis[_account][_date] = diagnostico;\r\n        extendedFileToPatientDiagnosis[_account].push(_date);\r\n\r\n        emit DiagnosticdAdded(\r\n            _account,\r\n            msg.sender,\r\n            _comorb,\r\n            _age,\r\n            _weight,\r\n            _diagnostic,\r\n            _observations,\r\n            _date\r\n        );\r\n        _success = true;\r\n    }\r\n\r\n    /**\r\n    * @notice Returns el Diagnstico en el ndice del propietario de la direccin.\r\n    * @dev Controlado por el switch\r\n    * @param _account Cuenta del paciente\r\n    */\r\n    function updateDiagnostic(\r\n        address _account,\r\n        string memory _comorb,\r\n        uint256 _age,\r\n        uint256 _weight,\r\n        string memory _diagnostic,\r\n        string memory _observations,\r\n        string[] memory _estudio,\r\n        uint256 _date\r\n        )\r\n    public nonlyStopped onlyMedic returns (bool _success) {\r\n        require(_account != address(0));\r\n        require(bytes(_comorb).length < 256);\r\n        require(_age < 120);\r\n        require(_weight < 700);\r\n        require(bytes(_diagnostic).length < 50);\r\n        require(bytes(_observations).length < 512);\r\n        require(_date >= 0 && _date <= 2**256 - 1);\r\n        //require(fileToPatientDiagnosis[_account][_date] != 0);\r\n        require(_estudio.length > 0);\r\n\r\n        Diagnostico memory diagnostico = patientDiagnosis(_account, _date);\r\n        diagnostico.comorb = _comorb;\r\n        diagnostico.age = _age;\r\n        diagnostico.weight = _weight;\r\n        diagnostico.diagnostic = _diagnostic;\r\n        diagnostico.observations = _observations;\r\n        diagnostico.estudio = _estudio;\r\n\r\n        emit DiagnosisUpdate(\r\n            _account,\r\n            msg.sender,\r\n            diagnostico.comorb,\r\n            diagnostico.age,\r\n            diagnostico.weight,\r\n            diagnostico.diagnostic,\r\n            diagnostico.observations\r\n        );\r\n        _success = true;\r\n    }\r\n\r\n    /**\r\n    * @notice Returns el Diagnstico en el ndice del propietario de la direccin.\r\n    * @dev Controlado por el switch\r\n    * @param _account The owner address\r\n    * @return _date The uploaded timestamp\r\n    */\r\n    function viewDiagnostic(address _account, uint256 _date) public nonlyStopped onlyPatient returns (\r\n        string memory _comorb,\r\n        uint256 _age,\r\n        uint256 _weight,\r\n        string memory _diagnostic,\r\n        string memory _observations,\r\n        string[] memory _estudio\r\n        ) {\r\n        if (isPatient(msg.sender)) {\r\n            require(msg.sender == _account);\r\n        }\r\n        if (isMedic(msg.sender)) {\r\n            require(msg.sender != _account);\r\n        }\r\n        require(_account != address(0));\r\n        require(_date >= 0 && _date <= 2**256 - 1);\r\n        //require(fileToPatientDiagnosis[_account][_date] != false);\r\n\r\n        Diagnostico memory diagnostico = patientDiagnosis(_account, _date);\r\n\r\n        emit DiagnosticRetrieve(\r\n            _account,\r\n            msg.sender,\r\n            diagnostico.comorb,\r\n            diagnostico.age,\r\n            diagnostico.weight,\r\n            diagnostico.diagnostic,\r\n            diagnostico.observations\r\n        );\r\n        _comorb = diagnostico.comorb;\r\n        _age = diagnostico.age;\r\n        _weight = diagnostico.weight;\r\n        _diagnostic = diagnostico.diagnostic;\r\n        _observations = diagnostico.observations;\r\n        _estudio = diagnostico.estudio;\r\n    }\r\n\r\n    /**\r\n    * @notice Returns el Diagnstico en el ndice del propietario de la direccin.\r\n    * @dev Controlado por el switch\r\n    * @param _account The owner address\r\n    * @return _date The uploaded timestamp\r\n    */\r\n    function extendedViewDiagnostic(\r\n        address _account\r\n        )\r\n    public nonlyStopped onlyPatient returns (uint256[] memory _dates) {\r\n        require(_account != address(0));\r\n        if (isMedic(msg.sender) || isPatient(msg.sender)) {\r\n            _dates = extendedFileToPatientDiagnosis[_account];\r\n        } else if (isPatient(msg.sender)) {\r\n            require(msg.sender == _account);\r\n            _dates = extendedFileToPatientDiagnosis[_account];\r\n        } else if (isMedic(msg.sender)) {\r\n            require(msg.sender != _account);\r\n            _dates = extendedFileToPatientDiagnosis[_account];\r\n        }\r\n\r\n        emit FullDiagnosticRetrieve(\r\n            _account,\r\n            msg.sender,\r\n            _dates\r\n        );\r\n    }\r\n\r\n    /**\r\n    * @notice Returns el estudio en el ndice del propietario de la direccin.\r\n    * @dev Controlado por el switch\r\n    * @param _account The owner address\r\n    * @return _uploadDate The uploaded timestamp\r\n    */\r\n    function deleteDiagnostic(address _account, uint256 _date) public nonlyStopped onlyMedic returns (bool _success) {\r\n        require(_account != address(0));\r\n        require(_date >= 0 && _date <= 2**256 - 1);\r\n        //require(fileToPatientDiagnosis[_account][_date] != false);\r\n\r\n        delete fileToPatientDiagnosis[_account][_date];\r\n        //delete extendedFileToPatientDiagnosis[_account];\r\n\r\n        emit DiagnosticDelete(\r\n            _account,\r\n            msg.sender,\r\n            _date\r\n        );\r\n        _success = true;\r\n    }\r\n\r\n}\r\n",
  "sourcePath": "D:\\Mega-AC1982\\Develop\\Angular\\MedicalHistory-BlockChainProject\\frontend\\truffle\\contracts\\PatientDiagnosis.sol",
  "compiler": {
    "name": "solc",
    "version": "0.5.16+commit.9c3226ce.Emscripten.clang"
  },
  "schemaVersion": "3.1.0",
  "updatedAt": "2020-04-29T01:07:47.926Z",
  "devdoc": {
    "author": "Francisco Alemn",
    "details": "El contrato hereda las funciones del contrato de roles",
    "methods": {
      "addAdmin(address)": {
        "details": "Funcin pblica para asignar admin",
        "params": {
          "account": "Cuenta que ser asignada como admin"
        }
      },
      "addAssistant(address)": {
        "details": "Funcin pblica para asignar asistente",
        "params": {
          "account": "Cuenta que ser asignada como asistente"
        }
      },
      "addDiagnostic(address,string,uint16,uint16,string,string,string[])": {
        "details": "Funcin de creacin de Diagnstico. Esta funcin es realizada por un doctor.",
        "params": {
          "_account": "a",
          "_age": "a",
          "_diagnostic": "a",
          "_observations": "a param _date a",
          "_weight": "a"
        },
        "return": "_success a"
      },
      "addMedic(address)": {
        "details": "Funcin pblica para asignar mdico",
        "params": {
          "account": "Cuenta que ser asignada como mdico"
        }
      },
      "addMedicRecord(string)": {
        "params": {
          "_hashString": "cadena de IPFS que contiene el archivo de registro"
        }
      },
      "addMedics(address,string,string,string,string,string)": {
        "details": "Funcin para agregar un mdico. Esta funcin es realizada por un administrador.",
        "params": {
          "_account": "a",
          "_cedula": "a",
          "_email": "a",
          "_hashPicture": "a",
          "_name": "a",
          "_specialty": "a"
        },
        "return": "_success a"
      },
      "addPatient(address)": {
        "details": "Funcin pblica para asignar paciente",
        "params": {
          "account": "Cuenta que ser asignada como paciente"
        }
      },
      "addRecord(address,string,string)": {
        "details": "Funcin de creacin de Estudio. Esta funcin es realizada por un doctor.",
        "params": {
          "_account": "a",
          "_ipfsHash": "a"
        },
        "return": "_success a"
      },
      "deleteDiagnostic(address,uint256)": {
        "details": "Controlado por el switch",
        "params": {
          "_account": "The owner address"
        },
        "return": "_uploadDate The uploaded timestamp"
      },
      "deleteMedics(address,uint256)": {
        "details": "Controlado por el switch",
        "params": {
          "_account": "The owner address"
        },
        "return": "_date The uploaded timestamp"
      },
      "deleteRecord(address,string)": {
        "details": "Controlado por el switch",
        "params": {
          "_account": "The owner address"
        },
        "return": "_uploadDate The uploaded timestamp"
      },
      "emergencyStop(bool)": {
        "params": {
          "_stop": "Switch del contrado de encendido/apagado"
        }
      },
      "extendedViewDiagnostic(address)": {
        "details": "Controlado por el switch",
        "params": {
          "_account": "The owner address"
        },
        "return": "_date The uploaded timestamp"
      },
      "getPendingLength()": {
        "return": "Longitud de MedicPending"
      },
      "getPendingRequest(uint32)": {
        "params": {
          "_index": "Indice a consultar"
        },
        "return": "Cadena dentro del indice indicado en MedicPending"
      },
      "isAdmin(address)": {
        "params": {
          "account": "Cuenta donde se validar el rol."
        },
        "return": "true si la cuenta tiene rol de admin"
      },
      "isAssistant(address)": {
        "params": {
          "account": "Cuenta donde se validar el rol."
        },
        "return": "true si la cuenta tiene rol de asistente"
      },
      "isMedic(address)": {
        "params": {
          "account": "Cuenta donde se validar el rol."
        },
        "return": "true si la cuenta tiene rol de mdico"
      },
      "isPatient(address)": {
        "params": {
          "account": "Cuenta donde se validar el rol."
        },
        "return": "true si la cuenta tiene rol de paciente"
      },
      "removeAssistant(address)": {
        "details": "Remover a rol de asistente. Quien invoque al contrato no volver a ser asistente."
      },
      "removeMedic(address)": {
        "details": "Funcin pblica para remover mdico",
        "params": {
          "account": "Cuenta que ser removida de mdico"
        }
      },
      "removePatient(address)": {
        "details": "Remover a rol de paciente. Quien invoque al contrato no volver a ser paciente."
      },
      "removePending(uint32)": {
        "details": "Hace un swap para no dejar espacios en blanco",
        "params": {
          "_index": "The owner address"
        },
        "return": "booleano diciendo si fue exitoso o no"
      },
      "renounceAdmin()": {
        "details": "Renunciar a rol de administrador. Quien inque al contrato no volver a ser admin."
      },
      "renounceMedic()": {
        "details": "Renunciar a rol de personal mdico. Quien invoque al contrato no volver a ser mdico."
      },
      "updateDiagnostic(address,string,uint256,uint256,string,string,string[],uint256)": {
        "details": "Controlado por el switch",
        "params": {
          "_account": "Cuenta del paciente"
        }
      },
      "updateMedics(address,string,string,string,string,string,uint256)": {
        "details": "Controlado por el switch",
        "params": {
          "_account": "Cuenta del mdico"
        },
        "return": "a"
      },
      "updateRecord(address,string,string)": {
        "details": "Controlado por el switch",
        "params": {
          "_account": "Cuenta del paciente"
        },
        "return": "_ipfsHash The IPFS hash"
      },
      "viewDiagnostic(address,uint256)": {
        "details": "Controlado por el switch",
        "params": {
          "_account": "The owner address"
        },
        "return": "_date The uploaded timestamp"
      },
      "viewMedics(address,uint256)": {
        "details": "Controlado por el switch",
        "params": {
          "_account": "The owner address"
        },
        "return": "_date The uploaded timestamp"
      },
      "viewRecords(address,string)": {
        "details": "Controlado por el switch",
        "params": {
          "_account": "The owner address"
        },
        "return": "_uploadDate The uploaded timestamp"
      }
    },
    "title": "Smart Contract de Diagnstico de pacientes - Control de Diagnstico realizado por el mdico."
  },
  "userdoc": {
    "methods": {
      "addMedicRecord(string)": {
        "notice": "Guarda el hash de un registro del medico"
      },
      "deleteDiagnostic(address,uint256)": {
        "notice": "Returns el estudio en el ndice del propietario de la direccin."
      },
      "deleteMedics(address,uint256)": {
        "notice": "Returns el medico en el ndice del propietario de la direccin."
      },
      "deleteRecord(address,string)": {
        "notice": "Returns el estudio en el ndice del propietario de la direccin."
      },
      "emergencyStop(bool)": {
        "notice": "Pausar el contrato Se detiene el contrato bajo ciertas condiciones. Sera til cuando nuevos errores sean descubiertos."
      },
      "extendedViewDiagnostic(address)": {
        "notice": "Returns el Diagnstico en el ndice del propietario de la direccin."
      },
      "getPendingLength()": {
        "notice": "Regresa la longitud del arreglo de solicitudes pendientes"
      },
      "getPendingRequest(uint32)": {
        "notice": "Regresa la cadena hash de un indice dado"
      },
      "removePending(uint32)": {
        "notice": "Remueve el elemento del indice indicado"
      },
      "updateDiagnostic(address,string,uint256,uint256,string,string,string[],uint256)": {
        "notice": "Returns el Diagnstico en el ndice del propietario de la direccin."
      },
      "updateMedics(address,string,string,string,string,string,uint256)": {
        "notice": "Returns el Medico en el ndice del propietario de la direccin."
      },
      "updateRecord(address,string,string)": {
        "notice": "Returns el estudio en el ndice del propietario de la direccin."
      },
      "viewDiagnostic(address,uint256)": {
        "notice": "Returns el Diagnstico en el ndice del propietario de la direccin."
      },
      "viewMedics(address,uint256)": {
        "notice": "Returns el Medico en el ndice del propietario de la direccin."
      },
      "viewRecords(address,string)": {
        "notice": "Returns el estudio en el ndice del propietario de la direccin."
      }
    },
    "notice": "Este contrato representa el registro de un Diagnstico asociado a una persona."
  }
}