{
  "contractName": "PatientRecords",
  "abi": [
    {
      "anonymous": false,
      "inputs": [
        {
          "indexed": true,
          "internalType": "address",
          "name": "newAdm",
          "type": "address"
        },
        {
          "indexed": true,
          "internalType": "address",
          "name": "whoAddedAdm",
          "type": "address"
        }
      ],
      "name": "AdminAdded",
      "type": "event"
    },
    {
      "anonymous": false,
      "inputs": [
        {
          "indexed": true,
          "internalType": "address",
          "name": "accountRen",
          "type": "address"
        }
      ],
      "name": "AdminRenounce",
      "type": "event"
    },
    {
      "anonymous": false,
      "inputs": [
        {
          "indexed": true,
          "internalType": "address",
          "name": "newAssistant",
          "type": "address"
        },
        {
          "indexed": true,
          "internalType": "address",
          "name": "whoAddedAssistant",
          "type": "address"
        }
      ],
      "name": "AssistantAdded",
      "type": "event"
    },
    {
      "anonymous": false,
      "inputs": [
        {
          "indexed": true,
          "internalType": "address",
          "name": "oldAssistant",
          "type": "address"
        },
        {
          "indexed": true,
          "internalType": "address",
          "name": "whoRemovedAssistant",
          "type": "address"
        }
      ],
      "name": "AssistantRemoved",
      "type": "event"
    },
    {
      "anonymous": false,
      "inputs": [
        {
          "indexed": true,
          "internalType": "address",
          "name": "_admin",
          "type": "address"
        },
        {
          "indexed": false,
          "internalType": "bool",
          "name": "_stop",
          "type": "bool"
        }
      ],
      "name": "LogSwitchStop",
      "type": "event"
    },
    {
      "anonymous": false,
      "inputs": [
        {
          "indexed": true,
          "internalType": "address",
          "name": "newMed",
          "type": "address"
        },
        {
          "indexed": true,
          "internalType": "address",
          "name": "whoAddedMed",
          "type": "address"
        }
      ],
      "name": "MedicAdded",
      "type": "event"
    },
    {
      "anonymous": false,
      "inputs": [
        {
          "indexed": true,
          "internalType": "address",
          "name": "oldMed",
          "type": "address"
        },
        {
          "indexed": true,
          "internalType": "address",
          "name": "whoRemovedMed",
          "type": "address"
        }
      ],
      "name": "MedicRemoved",
      "type": "event"
    },
    {
      "anonymous": false,
      "inputs": [
        {
          "indexed": true,
          "internalType": "address",
          "name": "medRen",
          "type": "address"
        }
      ],
      "name": "MedicRenounce",
      "type": "event"
    },
    {
      "anonymous": false,
      "inputs": [
        {
          "indexed": true,
          "internalType": "address",
          "name": "newPat",
          "type": "address"
        },
        {
          "indexed": true,
          "internalType": "address",
          "name": "whoAddedPat",
          "type": "address"
        }
      ],
      "name": "PatientAdded",
      "type": "event"
    },
    {
      "anonymous": false,
      "inputs": [
        {
          "indexed": true,
          "internalType": "address",
          "name": "oldPat",
          "type": "address"
        },
        {
          "indexed": true,
          "internalType": "address",
          "name": "whoRemovedPat",
          "type": "address"
        }
      ],
      "name": "PatientRemoved",
      "type": "event"
    },
    {
      "anonymous": false,
      "inputs": [
        {
          "indexed": true,
          "internalType": "address",
          "name": "_patient",
          "type": "address"
        },
        {
          "indexed": true,
          "internalType": "address",
          "name": "_medic",
          "type": "address"
        },
        {
          "indexed": false,
          "internalType": "string",
          "name": "_ipfsHash",
          "type": "string"
        }
      ],
      "name": "RecordAdded",
      "type": "event"
    },
    {
      "anonymous": false,
      "inputs": [
        {
          "indexed": true,
          "internalType": "address",
          "name": "_patient",
          "type": "address"
        },
        {
          "indexed": true,
          "internalType": "address",
          "name": "_medic",
          "type": "address"
        },
        {
          "indexed": false,
          "internalType": "string",
          "name": "_ipfsHash",
          "type": "string"
        }
      ],
      "name": "RecordDelete",
      "type": "event"
    },
    {
      "anonymous": false,
      "inputs": [
        {
          "indexed": true,
          "internalType": "address",
          "name": "_patient",
          "type": "address"
        },
        {
          "indexed": true,
          "internalType": "address",
          "name": "_medic",
          "type": "address"
        },
        {
          "indexed": false,
          "internalType": "string",
          "name": "_descript",
          "type": "string"
        },
        {
          "indexed": false,
          "internalType": "uint256",
          "name": "_uploadDate",
          "type": "uint256"
        }
      ],
      "name": "RecordRetrieve",
      "type": "event"
    },
    {
      "anonymous": false,
      "inputs": [
        {
          "indexed": true,
          "internalType": "address",
          "name": "_patient",
          "type": "address"
        },
        {
          "indexed": true,
          "internalType": "address",
          "name": "_medic",
          "type": "address"
        },
        {
          "indexed": false,
          "internalType": "string",
          "name": "_descript",
          "type": "string"
        }
      ],
      "name": "RecordUpdate",
      "type": "event"
    },
    {
      "payable": false,
      "stateMutability": "nonpayable",
      "type": "fallback"
    },
    {
      "constant": false,
      "inputs": [
        {
          "internalType": "address",
          "name": "account",
          "type": "address"
        }
      ],
      "name": "addAdmin",
      "outputs": [],
      "payable": false,
      "stateMutability": "nonpayable",
      "type": "function"
    },
    {
      "constant": false,
      "inputs": [
        {
          "internalType": "address",
          "name": "account",
          "type": "address"
        }
      ],
      "name": "addAssistant",
      "outputs": [],
      "payable": false,
      "stateMutability": "nonpayable",
      "type": "function"
    },
    {
      "constant": false,
      "inputs": [
        {
          "internalType": "address",
          "name": "account",
          "type": "address"
        }
      ],
      "name": "addMedic",
      "outputs": [],
      "payable": false,
      "stateMutability": "nonpayable",
      "type": "function"
    },
    {
      "constant": false,
      "inputs": [
        {
          "internalType": "address",
          "name": "account",
          "type": "address"
        }
      ],
      "name": "addPatient",
      "outputs": [],
      "payable": false,
      "stateMutability": "nonpayable",
      "type": "function"
    },
    {
      "constant": true,
      "inputs": [
        {
          "internalType": "address",
          "name": "account",
          "type": "address"
        }
      ],
      "name": "isAdmin",
      "outputs": [
        {
          "internalType": "bool",
          "name": "",
          "type": "bool"
        }
      ],
      "payable": false,
      "stateMutability": "view",
      "type": "function"
    },
    {
      "constant": true,
      "inputs": [
        {
          "internalType": "address",
          "name": "account",
          "type": "address"
        }
      ],
      "name": "isAssistant",
      "outputs": [
        {
          "internalType": "bool",
          "name": "",
          "type": "bool"
        }
      ],
      "payable": false,
      "stateMutability": "view",
      "type": "function"
    },
    {
      "constant": true,
      "inputs": [
        {
          "internalType": "address",
          "name": "account",
          "type": "address"
        }
      ],
      "name": "isMedic",
      "outputs": [
        {
          "internalType": "bool",
          "name": "",
          "type": "bool"
        }
      ],
      "payable": false,
      "stateMutability": "view",
      "type": "function"
    },
    {
      "constant": true,
      "inputs": [
        {
          "internalType": "address",
          "name": "account",
          "type": "address"
        }
      ],
      "name": "isPatient",
      "outputs": [
        {
          "internalType": "bool",
          "name": "",
          "type": "bool"
        }
      ],
      "payable": false,
      "stateMutability": "view",
      "type": "function"
    },
    {
      "constant": false,
      "inputs": [
        {
          "internalType": "address",
          "name": "account",
          "type": "address"
        }
      ],
      "name": "removeAssistant",
      "outputs": [],
      "payable": false,
      "stateMutability": "nonpayable",
      "type": "function"
    },
    {
      "constant": false,
      "inputs": [
        {
          "internalType": "address",
          "name": "account",
          "type": "address"
        }
      ],
      "name": "removeMedic",
      "outputs": [],
      "payable": false,
      "stateMutability": "nonpayable",
      "type": "function"
    },
    {
      "constant": false,
      "inputs": [
        {
          "internalType": "address",
          "name": "account",
          "type": "address"
        }
      ],
      "name": "removePatient",
      "outputs": [],
      "payable": false,
      "stateMutability": "nonpayable",
      "type": "function"
    },
    {
      "constant": false,
      "inputs": [],
      "name": "renounceAdmin",
      "outputs": [],
      "payable": false,
      "stateMutability": "nonpayable",
      "type": "function"
    },
    {
      "constant": false,
      "inputs": [],
      "name": "renounceMedic",
      "outputs": [],
      "payable": false,
      "stateMutability": "nonpayable",
      "type": "function"
    },
    {
      "constant": false,
      "inputs": [
        {
          "internalType": "bool",
          "name": "_stop",
          "type": "bool"
        }
      ],
      "name": "emergencyStop",
      "outputs": [],
      "payable": false,
      "stateMutability": "nonpayable",
      "type": "function"
    },
    {
      "constant": false,
      "inputs": [
        {
          "internalType": "address",
          "name": "_account",
          "type": "address"
        },
        {
          "internalType": "string",
          "name": "_descript",
          "type": "string"
        },
        {
          "internalType": "string",
          "name": "_ipfsHash",
          "type": "string"
        }
      ],
      "name": "addRecord",
      "outputs": [
        {
          "internalType": "bool",
          "name": "_success",
          "type": "bool"
        }
      ],
      "payable": false,
      "stateMutability": "nonpayable",
      "type": "function"
    },
    {
      "constant": false,
      "inputs": [
        {
          "internalType": "address",
          "name": "_account",
          "type": "address"
        },
        {
          "internalType": "string",
          "name": "_ipfsHash",
          "type": "string"
        }
      ],
      "name": "viewRecords",
      "outputs": [
        {
          "internalType": "string",
          "name": "_descript",
          "type": "string"
        },
        {
          "internalType": "uint256",
          "name": "_uploadDate",
          "type": "uint256"
        }
      ],
      "payable": false,
      "stateMutability": "nonpayable",
      "type": "function"
    },
    {
      "constant": false,
      "inputs": [
        {
          "internalType": "address",
          "name": "_account",
          "type": "address"
        },
        {
          "internalType": "string",
          "name": "_descript",
          "type": "string"
        },
        {
          "internalType": "string",
          "name": "_ipfsHash",
          "type": "string"
        }
      ],
      "name": "updateRecord",
      "outputs": [
        {
          "internalType": "bool",
          "name": "_success",
          "type": "bool"
        }
      ],
      "payable": false,
      "stateMutability": "nonpayable",
      "type": "function"
    },
    {
      "constant": false,
      "inputs": [
        {
          "internalType": "address",
          "name": "_account",
          "type": "address"
        },
        {
          "internalType": "string",
          "name": "_ipfsHash",
          "type": "string"
        }
      ],
      "name": "deleteRecord",
      "outputs": [
        {
          "internalType": "bool",
          "name": "_success",
          "type": "bool"
        }
      ],
      "payable": false,
      "stateMutability": "nonpayable",
      "type": "function"
    }
  ],
  "bytecode": "0x60806040526000600560006101000a81548160ff02191690831515021790555062000030336200003660201b60201c565b62000272565b62000051816000620000ae60201b62001e191790919060201c565b3373ffffffffffffffffffffffffffffffffffffffff168173ffffffffffffffffffffffffffffffffffffffff167fbf3f493c772c8c283fd124432c2d0f539ab343faa04258fe88e52912d36b102b60405160405180910390a350565b620000c082826200019260201b60201c565b1562000134576040517f08c379a000000000000000000000000000000000000000000000000000000000815260040180806020018281038252601f8152602001807f526f6c65733a206163636f756e7420616c72656164792068617320726f6c650081525060200191505060405180910390fd5b60018260000160008373ffffffffffffffffffffffffffffffffffffffff1673ffffffffffffffffffffffffffffffffffffffff16815260200190815260200160002060006101000a81548160ff0219169083151502179055505050565b60008073ffffffffffffffffffffffffffffffffffffffff168273ffffffffffffffffffffffffffffffffffffffff1614156200021b576040517f08c379a0000000000000000000000000000000000000000000000000000000008152600401808060200182810382526022815260200180620023be6022913960400191505060405180910390fd5b8260000160008373ffffffffffffffffffffffffffffffffffffffff1673ffffffffffffffffffffffffffffffffffffffff16815260200190815260200160002060009054906101000a900460ff16905092915050565b61213c80620002826000396000f3fe608060405234801561001057600080fd5b50600436106101165760003560e01c80638bad0c0a116100a2578063b0397ff811610071578063b0397ff814610740578063b8792f0b14610784578063c6584bb8146107c8578063d47b41d514610824578063eae3ef8a146109ae57610116565b80638bad0c0a1461045d5780638c406f2e146104675780638f9c79ed1461055a578063a1f23f19146105b657610116565b80635c8b67df116100e95780635c8b67df146103095780636d263ceb1461034d57806370480275146103915780637d01dbc2146103d55780637d0d62571461041957610116565b80630ac62e021461011857806324d7806c1461014857806333dc0abd146101a45780635995fd00146101ae575b005b6101466004803603602081101561012e57600080fd5b81019080803515159060200190929190505050610a0a565b005b61018a6004803603602081101561015e57600080fd5b81019080803573ffffffffffffffffffffffffffffffffffffffff169060200190929190505050610ad7565b604051808215151515815260200191505060405180910390f35b6101ac610af4565b005b610287600480360360408110156101c457600080fd5b81019080803573ffffffffffffffffffffffffffffffffffffffff1690602001909291908035906020019064010000000081111561020157600080fd5b82018360208201111561021357600080fd5b8035906020019184600183028401116401000000008311171561023557600080fd5b91908080601f016020809104026020016040519081016040528093929190818152602001838380828437600081840152601f19601f820116905080830192505050505050509192919290505050610b5d565b6040518080602001838152602001828103825284818151815260200191508051906020019080838360005b838110156102cd5780820151818401526020810190506102b2565b50505050905090810190601f1680156102fa5780820380516001836020036101000a031916815260200191505b50935050505060405180910390f35b61034b6004803603602081101561031f57600080fd5b81019080803573ffffffffffffffffffffffffffffffffffffffff169060200190929190505050610e4b565b005b61038f6004803603602081101561036357600080fd5b81019080803573ffffffffffffffffffffffffffffffffffffffff169060200190929190505050610eb5565b005b6103d3600480360360208110156103a757600080fd5b81019080803573ffffffffffffffffffffffffffffffffffffffff169060200190929190505050610f2f565b005b610417600480360360208110156103eb57600080fd5b81019080803573ffffffffffffffffffffffffffffffffffffffff169060200190929190505050610f99565b005b61045b6004803603602081101561042f57600080fd5b81019080803573ffffffffffffffffffffffffffffffffffffffff169060200190929190505050611003565b005b61046561106d565b005b6105406004803603604081101561047d57600080fd5b81019080803573ffffffffffffffffffffffffffffffffffffffff169060200190929190803590602001906401000000008111156104ba57600080fd5b8201836020820111156104cc57600080fd5b803590602001918460018302840111640100000000831117156104ee57600080fd5b91908080601f016020809104026020016040519081016040528093929190818152602001838380828437600081840152601f19601f820116905080830192505050505050509192919290505050611078565b604051808215151515815260200191505060405180910390f35b61059c6004803603602081101561057057600080fd5b81019080803573ffffffffffffffffffffffffffffffffffffffff169060200190929190505050611292565b604051808215151515815260200191505060405180910390f35b610726600480360360608110156105cc57600080fd5b81019080803573ffffffffffffffffffffffffffffffffffffffff1690602001909291908035906020019064010000000081111561060957600080fd5b82018360208201111561061b57600080fd5b8035906020019184600183028401116401000000008311171561063d57600080fd5b91908080601f016020809104026020016040519081016040528093929190818152602001838380828437600081840152601f19601f820116905080830192505050505050509192919290803590602001906401000000008111156106a057600080fd5b8201836020820111156106b257600080fd5b803590602001918460018302840111640100000000831117156106d457600080fd5b91908080601f016020809104026020016040519081016040528093929190818152602001838380828437600081840152601f19601f8201169050808301925050505050505091929192905050506112af565b604051808215151515815260200191505060405180910390f35b6107826004803603602081101561075657600080fd5b81019080803573ffffffffffffffffffffffffffffffffffffffff16906020019092919050505061158d565b005b6107c66004803603602081101561079a57600080fd5b81019080803573ffffffffffffffffffffffffffffffffffffffff1690602001909291905050506115f7565b005b61080a600480360360208110156107de57600080fd5b81019080803573ffffffffffffffffffffffffffffffffffffffff169060200190929190505050611661565b604051808215151515815260200191505060405180910390f35b6109946004803603606081101561083a57600080fd5b81019080803573ffffffffffffffffffffffffffffffffffffffff1690602001909291908035906020019064010000000081111561087757600080fd5b82018360208201111561088957600080fd5b803590602001918460018302840111640100000000831117156108ab57600080fd5b91908080601f016020809104026020016040519081016040528093929190818152602001838380828437600081840152601f19601f8201169050808301925050505050505091929192908035906020019064010000000081111561090e57600080fd5b82018360208201111561092057600080fd5b8035906020019184600183028401116401000000008311171561094257600080fd5b91908080601f016020809104026020016040519081016040528093929190818152602001838380828437600081840152601f19601f82011690508083019250505050505050919291929050505061167e565b604051808215151515815260200191505060405180910390f35b6109f0600480360360208110156109c457600080fd5b81019080803573ffffffffffffffffffffffffffffffffffffffff1690602001909291905050506118f0565b604051808215151515815260200191505060405180910390f35b610a1333610ad7565b610a68576040517f08c379a000000000000000000000000000000000000000000000000000000000815260040180806020018281038252602b8152602001806120a5602b913960400191505060405180910390fd5b80600560006101000a81548160ff0219169083151502179055503373ffffffffffffffffffffffffffffffffffffffff167f58b15338e6499b2b2827d169f60332c3b4b476fcd06b9a3c7e37afa77c49228e82604051808215151515815260200191505060405180910390a250565b6000610aed82600061190d90919063ffffffff16565b9050919050565b610afd336118f0565b610b52576040517f08c379a000000000000000000000000000000000000000000000000000000000815260040180806020018281038252602d815260200180612035602d913960400191505060405180910390fd5b610b5b336119eb565b565b60606000600560009054906101000a900460ff1615610b7b57600080fd5b610b8433611292565b80610b945750610b93336118f0565b5b610be9576040517f08c379a00000000000000000000000000000000000000000000000000000000081526004018080602001828103825260388152602001806120d06038913960400191505060405180910390fd5b600073ffffffffffffffffffffffffffffffffffffffff168473ffffffffffffffffffffffffffffffffffffffff161415610c2357600080fd5b602e835114610c3157600080fd5b610c39611ef4565b6004846040518082805190602001908083835b60208310610c6f5780518252602082019150602081019050602083039250610c4c565b6001836020036101000a0380198251168184511680821785525050505050509050019150509081526020016040518091039020604051806040016040529081600082018054600181600116156101000203166002900480601f016020809104026020016040519081016040528092919081815260200182805460018160011615610100020316600290048015610d465780601f10610d1b57610100808354040283529160200191610d46565b820191906000526020600020905b815481529060010190602001808311610d2957829003601f168201915b5050505050815260200160018201548152505090503373ffffffffffffffffffffffffffffffffffffffff168573ffffffffffffffffffffffffffffffffffffffff167f4ee0bf4d8ed0ec027f6654b0ba0995ae922f70b4f3bdbc0ff59c0a7dbd5491c6836000015184602001516040518080602001838152602001828103825284818151815260200191508051906020019080838360005b83811015610dfa578082015181840152602081019050610ddf565b50505050905090810190601f168015610e275780820380516001836020036101000a031916815260200191505b50935050505060405180910390a38060000151925080602001519150509250929050565b610e5433610ad7565b610ea9576040517f08c379a000000000000000000000000000000000000000000000000000000000815260040180806020018281038252602b8152602001806120a5602b913960400191505060405180910390fd5b610eb281611a5c565b50565b610ebe33611661565b80610ece5750610ecd336118f0565b5b610f23576040517f08c379a0000000000000000000000000000000000000000000000000000000008152600401808060200182810382526039815260200180611ffc6039913960400191505060405180910390fd5b610f2c81611acd565b50565b610f3833610ad7565b610f8d576040517f08c379a000000000000000000000000000000000000000000000000000000000815260040180806020018281038252602b8152602001806120a5602b913960400191505060405180910390fd5b610f9681611b3e565b50565b610fa233610ad7565b610ff7576040517f08c379a000000000000000000000000000000000000000000000000000000000815260040180806020018281038252602b8152602001806120a5602b913960400191505060405180910390fd5b611000816119eb565b50565b61100c336118f0565b611061576040517f08c379a000000000000000000000000000000000000000000000000000000000815260040180806020018281038252602d815260200180612035602d913960400191505060405180910390fd5b61106a81611baf565b50565b61107633611c20565b565b6000600560009054906101000a900460ff161561109457600080fd5b61109d336118f0565b6110f2576040517f08c379a000000000000000000000000000000000000000000000000000000000815260040180806020018281038252602d815260200180612035602d913960400191505060405180910390fd5b600073ffffffffffffffffffffffffffffffffffffffff168373ffffffffffffffffffffffffffffffffffffffff16141561112c57600080fd5b602e82511461113a57600080fd5b6004826040518082805190602001908083835b60208310611170578051825260208201915060208101905060208303925061114d565b6001836020036101000a0380198251168184511680821785525050505050509050019150509081526020016040518091039020600080820160006111b49190611f0e565b600182016000905550503373ffffffffffffffffffffffffffffffffffffffff168373ffffffffffffffffffffffffffffffffffffffff167f9c676f11f477f126926ac2bc49046b7a599e258a4f198776caa2644fce3cd7c6846040518080602001828103825283818151815260200191508051906020019080838360005b8381101561124e578082015181840152602081019050611233565b50505050905090810190601f16801561127b5780820380516001836020036101000a031916815260200191505b509250505060405180910390a36001905092915050565b60006112a882600261190d90919063ffffffff16565b9050919050565b6000600560009054906101000a900460ff16156112cb57600080fd5b6112d4336118f0565b611329576040517f08c379a000000000000000000000000000000000000000000000000000000000815260040180806020018281038252602d815260200180612035602d913960400191505060405180910390fd5b600073ffffffffffffffffffffffffffffffffffffffff168473ffffffffffffffffffffffffffffffffffffffff16141561136357600080fd5b61010083511061137257600080fd5b602e82511461138057600080fd5b611388611ef4565b6004836040518082805190602001908083835b602083106113be578051825260208201915060208101905060208303925061139b565b6001836020036101000a0380198251168184511680821785525050505050509050019150509081526020016040518091039020604051806040016040529081600082018054600181600116156101000203166002900480601f0160208091040260200160405190810160405280929190818152602001828054600181600116156101000203166002900480156114955780601f1061146a57610100808354040283529160200191611495565b820191906000526020600020905b81548152906001019060200180831161147857829003601f168201915b5050505050815260200160018201548152505090508381600001819052503373ffffffffffffffffffffffffffffffffffffffff168573ffffffffffffffffffffffffffffffffffffffff167f87a983619f6316fe3e7ce828f67913b1a1048bf0b29304e3722f250644b0498183600001516040518080602001828103825283818151815260200191508051906020019080838360005b8381101561154757808201518184015260208101905061152c565b50505050905090810190601f1680156115745780820380516001836020036101000a031916815260200191505b509250505060405180910390a360019150509392505050565b61159633610ad7565b6115eb576040517f08c379a000000000000000000000000000000000000000000000000000000000815260040180806020018281038252602b8152602001806120a5602b913960400191505060405180910390fd5b6115f481611c7a565b50565b61160033610ad7565b611655576040517f08c379a000000000000000000000000000000000000000000000000000000000815260040180806020018281038252602b8152602001806120a5602b913960400191505060405180910390fd5b61165e81611ceb565b50565b600061167782600361190d90919063ffffffff16565b9050919050565b6000600560009054906101000a900460ff161561169a57600080fd5b6116a3336118f0565b6116f8576040517f08c379a000000000000000000000000000000000000000000000000000000000815260040180806020018281038252602d815260200180612035602d913960400191505060405180910390fd5b600073ffffffffffffffffffffffffffffffffffffffff168473ffffffffffffffffffffffffffffffffffffffff16141561173257600080fd5b61173b84611292565b61174457600080fd5b61010083511061175357600080fd5b602e82511461176157600080fd5b600042905061176e611ef4565b6040518060400160405280868152602001838152509050806004856040518082805190602001908083835b602083106117bc5780518252602082019150602081019050602083039250611799565b6001836020036101000a0380198251168184511680821785525050505050509050019150509081526020016040518091039020600082015181600001908051906020019061180b929190611f56565b50602082015181600101559050503373ffffffffffffffffffffffffffffffffffffffff168673ffffffffffffffffffffffffffffffffffffffff167f977dc7867dd6fb513af3d4bb11f4457a5052487f13412788530b454c0b7dfa2c866040518080602001828103825283818151815260200191508051906020019080838360005b838110156118a957808201518184015260208101905061188e565b50505050905090810190601f1680156118d65780820380516001836020036101000a031916815260200191505b509250505060405180910390a36001925050509392505050565b600061190682600161190d90919063ffffffff16565b9050919050565b60008073ffffffffffffffffffffffffffffffffffffffff168273ffffffffffffffffffffffffffffffffffffffff161415611994576040517f08c379a00000000000000000000000000000000000000000000000000000000081526004018080602001828103825260228152602001806120836022913960400191505060405180910390fd5b8260000160008373ffffffffffffffffffffffffffffffffffffffff1673ffffffffffffffffffffffffffffffffffffffff16815260200190815260200160002060009054906101000a900460ff16905092915050565b6119ff816001611d5c90919063ffffffff16565b3373ffffffffffffffffffffffffffffffffffffffff168173ffffffffffffffffffffffffffffffffffffffff167fb35968fdda9034197de288afbe8a2947dedade83d7dbc0de3e340d4f62ce64dc60405160405180910390a350565b611a70816003611e1990919063ffffffff16565b3373ffffffffffffffffffffffffffffffffffffffff168173ffffffffffffffffffffffffffffffffffffffff167f7fef988ea6e2f03c1f9fb16df333b2a7911dfb096f5c563866713c1c9517ec7060405160405180910390a350565b611ae1816002611e1990919063ffffffff16565b3373ffffffffffffffffffffffffffffffffffffffff168173ffffffffffffffffffffffffffffffffffffffff167ff6dfb9f71429364456283a1521c30cc400d799d7b381d7ce164687f11c18dbaf60405160405180910390a350565b611b52816000611e1990919063ffffffff16565b3373ffffffffffffffffffffffffffffffffffffffff168173ffffffffffffffffffffffffffffffffffffffff167fbf3f493c772c8c283fd124432c2d0f539ab343faa04258fe88e52912d36b102b60405160405180910390a350565b611bc3816002611d5c90919063ffffffff16565b3373ffffffffffffffffffffffffffffffffffffffff168173ffffffffffffffffffffffffffffffffffffffff167fd00481c3fc5867ec74704c9c99334b8d53c7735c947bdcb6cbebcae6740ed94060405160405180910390a350565b611c34816000611d5c90919063ffffffff16565b8073ffffffffffffffffffffffffffffffffffffffff167f583e7032182b053f2bcd5e3ac78021a3c8d321735043ee84032742c9a6528afd60405160405180910390a250565b611c8e816001611e1990919063ffffffff16565b3373ffffffffffffffffffffffffffffffffffffffff168173ffffffffffffffffffffffffffffffffffffffff167f93b0ab94930bbad064296971ea5e731f84ae511662781bcaf28543ab9042368a60405160405180910390a350565b611cff816003611d5c90919063ffffffff16565b3373ffffffffffffffffffffffffffffffffffffffff168173ffffffffffffffffffffffffffffffffffffffff167f83bb2e314d2b42b828b2082c5f08a3b9162d6322fe9b8bdaa47dc3d26ce183af60405160405180910390a350565b611d66828261190d565b611dbb576040517f08c379a00000000000000000000000000000000000000000000000000000000081526004018080602001828103825260218152602001806120626021913960400191505060405180910390fd5b60008260000160008373ffffffffffffffffffffffffffffffffffffffff1673ffffffffffffffffffffffffffffffffffffffff16815260200190815260200160002060006101000a81548160ff0219169083151502179055505050565b611e23828261190d565b15611e96576040517f08c379a000000000000000000000000000000000000000000000000000000000815260040180806020018281038252601f8152602001807f526f6c65733a206163636f756e7420616c72656164792068617320726f6c650081525060200191505060405180910390fd5b60018260000160008373ffffffffffffffffffffffffffffffffffffffff1673ffffffffffffffffffffffffffffffffffffffff16815260200190815260200160002060006101000a81548160ff0219169083151502179055505050565b604051806040016040528060608152602001600081525090565b50805460018160011615610100020316600290046000825580601f10611f345750611f53565b601f016020900490600052602060002090810190611f529190611fd6565b5b50565b828054600181600116156101000203166002900490600052602060002090601f016020900481019282601f10611f9757805160ff1916838001178555611fc5565b82800160010185558215611fc5579182015b82811115611fc4578251825591602001919060010190611fa9565b5b509050611fd29190611fd6565b5090565b611ff891905b80821115611ff4576000816000905550600101611fdc565b5090565b9056fe4e6f207365206375656e746120636f6e20656c20726f6c2065737065636966696361646f284173697374656e7465206f206dc3a96469636f294e6f207365206375656e746120636f6e20656c20726f6c2065737065636966696361646f284dc3a96469636f29526f6c65733a206163636f756e7420646f6573206e6f74206861766520726f6c65526f6c65733a206163636f756e7420697320746865207a65726f20616464726573734e6f207365206375656e746120636f6e20656c20726f6c2065737065636966696361646f2841646d696e294e6f207365206375656e746120636f6e20656c20726f6c2065737065636966696361646f2850616369656e7465206f206dc3a96469636f29a265627a7a72315820662dab8056fd13090ec97f80e1a6648a778d8f13cd849471fa10f3a1f89aee0f64736f6c63430005100032526f6c65733a206163636f756e7420697320746865207a65726f2061646472657373",
  "source": "pragma solidity ^0.5.16;\r\n\r\nimport \"./acceso/UserRoles.sol\";\r\n\r\n/**\r\n * @title Smart Contract de Historial de pacientes - Control de Estudio basado en rol.\r\n * @author Adrin Constante\r\n * @notice Este contrato representa el registro de un Estudio asociado a una persona.\r\n * @notice Debido a las limitaciones de almacenamiento, los Estudio serl almacenados en IPFS.\r\n * El hash IPFS generado por el archivo en conjunto con metadatos del paciente sern almacenados en la blockchain.\r\n * @dev El contrato hereda las funciones del contrato de roles\r\n */\r\n\r\ncontract PatientRecords is UserRoles {\r\n    /**\r\n     * @title Representa un Estudio el cual le pertenece a un paciente.\r\n     */\r\n    struct Estudio {\r\n        string descript;\r\n        uint256 uploadDate;\r\n    }\r\n\r\n    /**\r\n     * @notice Mapea el ipfsHash a su estudio..\r\n     */\r\n    mapping (string => Estudio) internal ipfsHashToEstudio;\r\n\r\n    /**\r\n     * @notice Patrn de switch para encender/apagar\r\n        Pasar a otro contrato\r\n     */\r\n    bool private stopped = false;\r\n\r\n    /**\r\n     * @dev Eventos que sern registrados en la blockchain con finalidad de auditoria.\r\n     */\r\n    event RecordAdded(\r\n        address indexed _patient,\r\n        address indexed _medic,\r\n        string _ipfsHash\r\n        );\r\n\r\n    event RecordUpdate(\r\n        address indexed _patient,\r\n        address indexed _medic,\r\n        string _descript\r\n        );\r\n\r\n    event RecordRetrieve(\r\n        address indexed _patient,\r\n        address indexed _medic,\r\n        string _descript,\r\n        uint256 _uploadDate\r\n        );\r\n\r\n    event RecordDelete(\r\n        address indexed _patient,\r\n        address indexed _medic,\r\n        string _ipfsHash\r\n        );\r\n\r\n    /**\r\n    * @dev Indica que se ha puesto el contrato en pausa.\r\n    * @param _admin Un administrador\r\n    * @param _stop Indica cuando hay una pausa o una reanudacin.\r\n    */\r\n    event LogSwitchStop(\r\n        address indexed _admin,\r\n        bool _stop\r\n    );\r\n\r\n    /**\r\n    * @dev Previene de ejecucin del contrato\r\n    */\r\n    modifier nonlyStopped {\r\n        require(!stopped);\r\n        _;\r\n    }\r\n\r\n    /**\r\n    * @dev Est funcin ser llamada para todos los mensajes que sean enviados a este contrado.\r\n    * Enviar Ether a este contrato ocasionar una excepcin, dado que las funciones no tienen un modificador de pago.\r\n    */\r\n    function() external {}\r\n\r\n    /**\r\n    * @notice Pausar el contrato\r\n    * Se detiene el contrato bajo ciertas condiciones.\r\n    * Sera til cuando nuevos errores sean descubiertos.\r\n    * @param _stop Switch del contrado de encendido/apagado\r\n    */\r\n    function emergencyStop(bool _stop) public onlyAdmin {\r\n        stopped = _stop;\r\n        emit LogSwitchStop(msg.sender, _stop);\r\n    }\r\n\r\n  /**\r\n   * @dev Funcin de creacin de Estudio. Esta funcin es realizada por un doctor.\r\n   * @param _account a\r\n   * @param _ipfsHash a\r\n   * @return _success a\r\n   */\r\n    function addRecord(\r\n        address _account,\r\n        string memory _descript,\r\n        string memory _ipfsHash)\r\n    public nonlyStopped onlyMedic returns (bool _success) {\r\n        require(_account != address(0));\r\n        require(isPatient(_account));\r\n        require(bytes(_descript).length < 256);\r\n        require(bytes(_ipfsHash).length == 46);\r\n\r\n        uint256 _uploadDate = now;\r\n\r\n        Estudio memory _estudio = Estudio(\r\n            _descript,\r\n            _uploadDate\r\n        );\r\n\r\n        ipfsHashToEstudio[_ipfsHash] = _estudio;\r\n\r\n        emit RecordAdded(\r\n            _account,\r\n            msg.sender,\r\n            _ipfsHash\r\n        );\r\n        _success = true;\r\n    }\r\n\r\n    /**\r\n    * @notice Returns el estudio en el ndice del propietario de la direccin.\r\n    * @dev Controlado por el switch\r\n    * @param _account The owner address\r\n    * @return _uploadDate The uploaded timestamp\r\n    */\r\n    function viewRecords(address _account, string memory _ipfsHash)\r\n    public nonlyStopped onlyPatient returns(string memory _descript, uint256 _uploadDate) {\r\n        require(_account != 0x0000000000000000000000000000000000000000);\r\n        require(bytes(_ipfsHash).length == 46);\r\n\r\n        Estudio memory estudio = ipfsHashToEstudio[_ipfsHash];\r\n\r\n        emit RecordRetrieve(\r\n            _account,\r\n            msg.sender,\r\n            estudio.descript,\r\n            estudio.uploadDate\r\n        );\r\n        _descript = estudio.descript;\r\n        _uploadDate = estudio.uploadDate;\r\n    }\r\n\r\n    /**\r\n    * @notice Returns el estudio en el ndice del propietario de la direccin.\r\n    * @dev Controlado por el switch\r\n    * @param _account Cuenta del paciente\r\n    * @return _ipfsHash The IPFS hash\r\n    */\r\n    function updateRecord(\r\n        address _account,\r\n        string memory _descript,\r\n        string memory _ipfsHash)\r\n    public nonlyStopped onlyMedic returns (bool _success) {\r\n        require(_account != 0x0000000000000000000000000000000000000000);\r\n        require(bytes(_descript).length < 256);\r\n        require(bytes(_ipfsHash).length == 46);\r\n\r\n        Estudio memory estudio = ipfsHashToEstudio[_ipfsHash];\r\n\r\n        estudio.descript = _descript;\r\n\r\n        emit RecordUpdate(\r\n            _account,\r\n            msg.sender,\r\n            estudio.descript\r\n        );\r\n        _success = true;\r\n    }\r\n\r\n    /**\r\n    * @notice Returns el estudio en el ndice del propietario de la direccin.\r\n    * @dev Controlado por el switch\r\n    * @param _account The owner address\r\n    * @return _uploadDate The uploaded timestamp\r\n    */\r\n    function deleteRecord(\r\n        address _account,\r\n        string memory _ipfsHash\r\n        )\r\n    public nonlyStopped onlyMedic returns (bool _success) {\r\n        require(_account != 0x0000000000000000000000000000000000000000);\r\n        require(bytes(_ipfsHash).length == 46);\r\n\r\n        delete ipfsHashToEstudio[_ipfsHash];\r\n\r\n        emit RecordDelete(\r\n            _account,\r\n            msg.sender,\r\n            _ipfsHash\r\n        );\r\n\r\n        _success = true;\r\n    }\r\n\r\n}\r\n",
  "sourcePath": "D:\\Mega-AC1982\\Develop\\Block-Chain\\MedicalHistory-BlockChainProject\\frontend\\truffle\\contracts\\PatientRecords.sol",
  "compiler": {
    "name": "solc",
    "version": "0.5.16+commit.9c3226ce.Emscripten.clang"
  },
  "schemaVersion": "3.0.23",
  "updatedAt": "2020-04-17T21:54:07.005Z",
  "devdoc": {
    "author": "Adrin Constante",
    "details": "El contrato hereda las funciones del contrato de roles",
    "methods": {
      "addAdmin(address)": {
        "details": "Funcin pblica para asignar admin",
        "params": {
          "account": "Cuenta que ser asignada como admin"
        }
      },
      "addAssistant(address)": {
        "details": "Funcin pblica para asignar asistente",
        "params": {
          "account": "Cuenta que ser asignada como asistente"
        }
      },
      "addMedic(address)": {
        "details": "Funcin pblica para asignar mdico",
        "params": {
          "account": "Cuenta que ser asignada como mdico"
        }
      },
      "addPatient(address)": {
        "details": "Funcin pblica para asignar paciente",
        "params": {
          "account": "Cuenta que ser asignada como paciente"
        }
      },
      "addRecord(address,string,string)": {
        "details": "Funcin de creacin de Estudio. Esta funcin es realizada por un doctor.",
        "params": {
          "_account": "a",
          "_ipfsHash": "a"
        },
        "return": "_success a"
      },
      "deleteRecord(address,string)": {
        "details": "Controlado por el switch",
        "params": {
          "_account": "The owner address"
        },
        "return": "_uploadDate The uploaded timestamp"
      },
      "emergencyStop(bool)": {
        "params": {
          "_stop": "Switch del contrado de encendido/apagado"
        }
      },
      "isAdmin(address)": {
        "params": {
          "account": "Cuenta donde se validar el rol."
        },
        "return": "true si la cuenta tiene rol de admin"
      },
      "isAssistant(address)": {
        "params": {
          "account": "Cuenta donde se validar el rol."
        },
        "return": "true si la cuenta tiene rol de asistente"
      },
      "isMedic(address)": {
        "params": {
          "account": "Cuenta donde se validar el rol."
        },
        "return": "true si la cuenta tiene rol de mdico"
      },
      "isPatient(address)": {
        "params": {
          "account": "Cuenta donde se validar el rol."
        },
        "return": "true si la cuenta tiene rol de paciente"
      },
      "removeAssistant(address)": {
        "details": "Remover a rol de asistente. Quien invoque al contrato no volver a ser asistente."
      },
      "removeMedic(address)": {
        "details": "Funcin pblica para remover mdico",
        "params": {
          "account": "Cuenta que ser removida de mdico"
        }
      },
      "removePatient(address)": {
        "details": "Remover a rol de paciente. Quien invoque al contrato no volver a ser paciente."
      },
      "renounceAdmin()": {
        "details": "Renunciar a rol de administrador. Quien inque al contrato no volver a ser admin."
      },
      "renounceMedic()": {
        "details": "Renunciar a rol de personal mdico. Quien invoque al contrato no volver a ser mdico."
      },
      "updateRecord(address,string,string)": {
        "details": "Controlado por el switch",
        "params": {
          "_account": "Cuenta del paciente"
        },
        "return": "_ipfsHash The IPFS hash"
      },
      "viewRecords(address,string)": {
        "details": "Controlado por el switch",
        "params": {
          "_account": "The owner address"
        },
        "return": "_uploadDate The uploaded timestamp"
      }
    },
    "title": "Smart Contract de Historial de pacientes - Control de Estudio basado en rol."
  },
  "userdoc": {
    "methods": {
      "deleteRecord(address,string)": {
        "notice": "Returns el estudio en el ndice del propietario de la direccin."
      },
      "emergencyStop(bool)": {
        "notice": "Pausar el contrato Se detiene el contrato bajo ciertas condiciones. Sera til cuando nuevos errores sean descubiertos."
      },
      "updateRecord(address,string,string)": {
        "notice": "Returns el estudio en el ndice del propietario de la direccin."
      },
      "viewRecords(address,string)": {
        "notice": "Returns el estudio en el ndice del propietario de la direccin."
      }
    },
    "notice": "Este contrato representa el registro de un Estudio asociado a una persona.Debido a las limitaciones de almacenamiento, los Estudio serl almacenados en IPFS. El hash IPFS generado por el archivo en conjunto con metadatos del paciente sern almacenados en la blockchain."
  }
}