{
  "contractName": "PatientDiagnosis",
  "abi": [
    {
      "anonymous": false,
      "inputs": [
        {
          "indexed": true,
          "internalType": "address",
          "name": "newAdm",
          "type": "address"
        },
        {
          "indexed": true,
          "internalType": "address",
          "name": "whoAddedAdm",
          "type": "address"
        }
      ],
      "name": "AdminAdded",
      "type": "event"
    },
    {
      "anonymous": false,
      "inputs": [
        {
          "indexed": true,
          "internalType": "address",
          "name": "_patient",
          "type": "address"
        },
        {
          "indexed": true,
          "internalType": "address",
          "name": "_medic",
          "type": "address"
        },
        {
          "indexed": false,
          "internalType": "uint256",
          "name": "_date",
          "type": "uint256"
        }
      ],
      "name": "DiagnosisUpdate",
      "type": "event"
    },
    {
      "anonymous": false,
      "inputs": [
        {
          "indexed": true,
          "internalType": "address",
          "name": "_patient",
          "type": "address"
        },
        {
          "indexed": true,
          "internalType": "address",
          "name": "_medic",
          "type": "address"
        },
        {
          "indexed": false,
          "internalType": "uint256",
          "name": "_date",
          "type": "uint256"
        }
      ],
      "name": "DiagnosticAdded",
      "type": "event"
    },
    {
      "anonymous": false,
      "inputs": [
        {
          "indexed": true,
          "internalType": "address",
          "name": "_patient",
          "type": "address"
        },
        {
          "indexed": true,
          "internalType": "address",
          "name": "_medic",
          "type": "address"
        },
        {
          "indexed": false,
          "internalType": "string",
          "name": "_comorb",
          "type": "string"
        },
        {
          "indexed": false,
          "internalType": "uint256",
          "name": "_age",
          "type": "uint256"
        },
        {
          "indexed": false,
          "internalType": "uint256",
          "name": "_weight",
          "type": "uint256"
        },
        {
          "indexed": false,
          "internalType": "string",
          "name": "_diagnostic",
          "type": "string"
        },
        {
          "indexed": false,
          "internalType": "string",
          "name": "_observations",
          "type": "string"
        }
      ],
      "name": "DiagnosticRetrieve",
      "type": "event"
    },
    {
      "anonymous": false,
      "inputs": [
        {
          "indexed": true,
          "internalType": "address",
          "name": "_patient",
          "type": "address"
        },
        {
          "indexed": true,
          "internalType": "address",
          "name": "_medic",
          "type": "address"
        },
        {
          "indexed": false,
          "internalType": "uint256[]",
          "name": "_dates",
          "type": "uint256[]"
        }
      ],
      "name": "FullDiagnosticRetrieve",
      "type": "event"
    },
    {
      "anonymous": false,
      "inputs": [
        {
          "indexed": true,
          "internalType": "address",
          "name": "_admin",
          "type": "address"
        },
        {
          "indexed": false,
          "internalType": "bool",
          "name": "_stop",
          "type": "bool"
        }
      ],
      "name": "LogSwitchStop",
      "type": "event"
    },
    {
      "anonymous": false,
      "inputs": [
        {
          "indexed": true,
          "internalType": "address",
          "name": "newMed",
          "type": "address"
        },
        {
          "indexed": true,
          "internalType": "address",
          "name": "whoAddedMed",
          "type": "address"
        }
      ],
      "name": "MedicAdded",
      "type": "event"
    },
    {
      "anonymous": false,
      "inputs": [
        {
          "indexed": true,
          "internalType": "address",
          "name": "oldMed",
          "type": "address"
        },
        {
          "indexed": true,
          "internalType": "address",
          "name": "whoRemovedMed",
          "type": "address"
        }
      ],
      "name": "MedicRemoved",
      "type": "event"
    },
    {
      "anonymous": false,
      "inputs": [
        {
          "indexed": true,
          "internalType": "address",
          "name": "_medic",
          "type": "address"
        },
        {
          "indexed": true,
          "internalType": "address",
          "name": "_admin",
          "type": "address"
        },
        {
          "indexed": false,
          "internalType": "string",
          "name": "_name",
          "type": "string"
        },
        {
          "indexed": false,
          "internalType": "string",
          "name": "_specialty",
          "type": "string"
        },
        {
          "indexed": false,
          "internalType": "string",
          "name": "_cedula",
          "type": "string"
        },
        {
          "indexed": false,
          "internalType": "string",
          "name": "_email",
          "type": "string"
        },
        {
          "indexed": false,
          "internalType": "string",
          "name": "_hashPicture",
          "type": "string"
        },
        {
          "indexed": false,
          "internalType": "uint256",
          "name": "_date",
          "type": "uint256"
        }
      ],
      "name": "MedicsAdded",
      "type": "event"
    },
    {
      "anonymous": false,
      "inputs": [
        {
          "indexed": true,
          "internalType": "address",
          "name": "_medic",
          "type": "address"
        },
        {
          "indexed": true,
          "internalType": "address",
          "name": "_admin",
          "type": "address"
        },
        {
          "indexed": false,
          "internalType": "string",
          "name": "_name",
          "type": "string"
        },
        {
          "indexed": false,
          "internalType": "string",
          "name": "_specialty",
          "type": "string"
        },
        {
          "indexed": false,
          "internalType": "string",
          "name": "_cedula",
          "type": "string"
        },
        {
          "indexed": false,
          "internalType": "string",
          "name": "_email",
          "type": "string"
        },
        {
          "indexed": false,
          "internalType": "string",
          "name": "_hashPicture",
          "type": "string"
        },
        {
          "indexed": false,
          "internalType": "uint256",
          "name": "_date",
          "type": "uint256"
        },
        {
          "indexed": false,
          "internalType": "uint256",
          "name": "_queryDate",
          "type": "uint256"
        }
      ],
      "name": "MedicsRetrieve",
      "type": "event"
    },
    {
      "anonymous": false,
      "inputs": [
        {
          "indexed": true,
          "internalType": "address",
          "name": "_patient",
          "type": "address"
        },
        {
          "indexed": true,
          "internalType": "address",
          "name": "_medic",
          "type": "address"
        },
        {
          "indexed": false,
          "internalType": "uint256",
          "name": "whenWas",
          "type": "uint256"
        }
      ],
      "name": "PatientAdded",
      "type": "event"
    },
    {
      "anonymous": false,
      "inputs": [
        {
          "indexed": true,
          "internalType": "address",
          "name": "newPat",
          "type": "address"
        },
        {
          "indexed": true,
          "internalType": "address",
          "name": "whoAddedPat",
          "type": "address"
        }
      ],
      "name": "PatientAdded",
      "type": "event"
    },
    {
      "anonymous": false,
      "inputs": [
        {
          "indexed": true,
          "internalType": "address",
          "name": "oldPat",
          "type": "address"
        },
        {
          "indexed": true,
          "internalType": "address",
          "name": "whoRemovedPat",
          "type": "address"
        }
      ],
      "name": "PatientRemoved",
      "type": "event"
    },
    {
      "anonymous": false,
      "inputs": [
        {
          "indexed": true,
          "internalType": "address",
          "name": "_patient",
          "type": "address"
        },
        {
          "indexed": true,
          "internalType": "address",
          "name": "_medic",
          "type": "address"
        },
        {
          "indexed": false,
          "internalType": "string",
          "name": "_nombre",
          "type": "string"
        },
        {
          "indexed": false,
          "internalType": "string",
          "name": "_curp",
          "type": "string"
        },
        {
          "indexed": false,
          "internalType": "string",
          "name": "_tipoSangre",
          "type": "string"
        },
        {
          "indexed": false,
          "internalType": "string",
          "name": "_sexo",
          "type": "string"
        },
        {
          "indexed": false,
          "internalType": "string",
          "name": "_hashCredencial",
          "type": "string"
        },
        {
          "indexed": false,
          "internalType": "string",
          "name": "_hashFoto",
          "type": "string"
        },
        {
          "indexed": false,
          "internalType": "uint256",
          "name": "whenWas",
          "type": "uint256"
        }
      ],
      "name": "PatientRetrieve",
      "type": "event"
    },
    {
      "anonymous": false,
      "inputs": [
        {
          "indexed": true,
          "internalType": "address",
          "name": "_patient",
          "type": "address"
        },
        {
          "indexed": true,
          "internalType": "address",
          "name": "_medic",
          "type": "address"
        },
        {
          "indexed": false,
          "internalType": "uint256",
          "name": "whenWas",
          "type": "uint256"
        }
      ],
      "name": "PatientUpdate",
      "type": "event"
    },
    {
      "anonymous": false,
      "inputs": [
        {
          "indexed": true,
          "internalType": "address",
          "name": "_patient",
          "type": "address"
        },
        {
          "indexed": true,
          "internalType": "address",
          "name": "_medic",
          "type": "address"
        },
        {
          "indexed": false,
          "internalType": "string",
          "name": "_ipfsHash",
          "type": "string"
        }
      ],
      "name": "RecordAdded",
      "type": "event"
    },
    {
      "anonymous": false,
      "inputs": [
        {
          "indexed": true,
          "internalType": "address",
          "name": "_patient",
          "type": "address"
        },
        {
          "indexed": true,
          "internalType": "address",
          "name": "_medic",
          "type": "address"
        },
        {
          "indexed": false,
          "internalType": "string",
          "name": "_descript",
          "type": "string"
        },
        {
          "indexed": false,
          "internalType": "uint256",
          "name": "_uploadDate",
          "type": "uint256"
        }
      ],
      "name": "RecordRetrieve",
      "type": "event"
    },
    {
      "anonymous": false,
      "inputs": [
        {
          "indexed": true,
          "internalType": "address",
          "name": "_patient",
          "type": "address"
        },
        {
          "indexed": true,
          "internalType": "address",
          "name": "_medic",
          "type": "address"
        },
        {
          "indexed": false,
          "internalType": "string",
          "name": "_descript",
          "type": "string"
        }
      ],
      "name": "RecordUpdate",
      "type": "event"
    },
    {
      "payable": true,
      "stateMutability": "payable",
      "type": "fallback"
    },
    {
      "constant": false,
      "inputs": [
        {
          "internalType": "address",
          "name": "account",
          "type": "address"
        }
      ],
      "name": "addAdmin",
      "outputs": [],
      "payable": false,
      "stateMutability": "nonpayable",
      "type": "function"
    },
    {
      "constant": false,
      "inputs": [
        {
          "internalType": "address",
          "name": "account",
          "type": "address"
        }
      ],
      "name": "addMedic",
      "outputs": [],
      "payable": false,
      "stateMutability": "nonpayable",
      "type": "function"
    },
    {
      "constant": false,
      "inputs": [
        {
          "internalType": "address",
          "name": "_account",
          "type": "address"
        },
        {
          "internalType": "string",
          "name": "_name",
          "type": "string"
        },
        {
          "internalType": "string",
          "name": "_specialty",
          "type": "string"
        },
        {
          "internalType": "string",
          "name": "_cedula",
          "type": "string"
        },
        {
          "internalType": "string",
          "name": "_email",
          "type": "string"
        },
        {
          "internalType": "string",
          "name": "_hashPicture",
          "type": "string"
        }
      ],
      "name": "addMedics",
      "outputs": [
        {
          "internalType": "bool",
          "name": "_success",
          "type": "bool"
        }
      ],
      "payable": false,
      "stateMutability": "nonpayable",
      "type": "function"
    },
    {
      "constant": false,
      "inputs": [
        {
          "internalType": "address",
          "name": "account",
          "type": "address"
        }
      ],
      "name": "addPatient",
      "outputs": [],
      "payable": false,
      "stateMutability": "nonpayable",
      "type": "function"
    },
    {
      "constant": false,
      "inputs": [
        {
          "internalType": "address",
          "name": "_account",
          "type": "address"
        },
        {
          "internalType": "string",
          "name": "_descript",
          "type": "string"
        },
        {
          "internalType": "string",
          "name": "_ipfsHash",
          "type": "string"
        }
      ],
      "name": "addRecord",
      "outputs": [
        {
          "internalType": "bool",
          "name": "_success",
          "type": "bool"
        }
      ],
      "payable": false,
      "stateMutability": "nonpayable",
      "type": "function"
    },
    {
      "constant": false,
      "inputs": [
        {
          "internalType": "bool",
          "name": "_stop",
          "type": "bool"
        }
      ],
      "name": "emergencyStop",
      "outputs": [],
      "payable": false,
      "stateMutability": "nonpayable",
      "type": "function"
    },
    {
      "constant": true,
      "inputs": [
        {
          "internalType": "address",
          "name": "",
          "type": "address"
        },
        {
          "internalType": "uint256",
          "name": "",
          "type": "uint256"
        }
      ],
      "name": "extendedFileToPatientDiagnosis",
      "outputs": [
        {
          "internalType": "uint256",
          "name": "",
          "type": "uint256"
        }
      ],
      "payable": false,
      "stateMutability": "view",
      "type": "function"
    },
    {
      "constant": true,
      "inputs": [
        {
          "internalType": "address",
          "name": "",
          "type": "address"
        }
      ],
      "name": "fileToMedic",
      "outputs": [
        {
          "internalType": "string",
          "name": "name",
          "type": "string"
        },
        {
          "internalType": "string",
          "name": "specialty",
          "type": "string"
        },
        {
          "internalType": "string",
          "name": "cedula",
          "type": "string"
        },
        {
          "internalType": "string",
          "name": "email",
          "type": "string"
        },
        {
          "internalType": "string",
          "name": "hashPicture",
          "type": "string"
        },
        {
          "internalType": "uint256",
          "name": "whenAdded",
          "type": "uint256"
        },
        {
          "internalType": "bool",
          "name": "isMedico",
          "type": "bool"
        }
      ],
      "payable": false,
      "stateMutability": "view",
      "type": "function"
    },
    {
      "constant": true,
      "inputs": [
        {
          "internalType": "address",
          "name": "",
          "type": "address"
        }
      ],
      "name": "fileToPatient",
      "outputs": [
        {
          "internalType": "string",
          "name": "nombre",
          "type": "string"
        },
        {
          "internalType": "string",
          "name": "curp",
          "type": "string"
        },
        {
          "internalType": "string",
          "name": "tipoSangre",
          "type": "string"
        },
        {
          "internalType": "string",
          "name": "sexo",
          "type": "string"
        },
        {
          "internalType": "string",
          "name": "hashCredencial",
          "type": "string"
        },
        {
          "internalType": "string",
          "name": "hashFoto",
          "type": "string"
        },
        {
          "internalType": "bool",
          "name": "isPatient",
          "type": "bool"
        }
      ],
      "payable": false,
      "stateMutability": "view",
      "type": "function"
    },
    {
      "constant": true,
      "inputs": [
        {
          "internalType": "address",
          "name": "",
          "type": "address"
        },
        {
          "internalType": "uint256",
          "name": "",
          "type": "uint256"
        }
      ],
      "name": "fileToPatientDiagnosis",
      "outputs": [
        {
          "internalType": "string",
          "name": "comorb",
          "type": "string"
        },
        {
          "internalType": "uint256",
          "name": "age",
          "type": "uint256"
        },
        {
          "internalType": "uint256",
          "name": "weight",
          "type": "uint256"
        },
        {
          "internalType": "string",
          "name": "diagnostic",
          "type": "string"
        },
        {
          "internalType": "string",
          "name": "observations",
          "type": "string"
        },
        {
          "internalType": "bool",
          "name": "isDiag",
          "type": "bool"
        }
      ],
      "payable": false,
      "stateMutability": "view",
      "type": "function"
    },
    {
      "constant": true,
      "inputs": [
        {
          "internalType": "address",
          "name": "account",
          "type": "address"
        }
      ],
      "name": "isAdmin",
      "outputs": [
        {
          "internalType": "bool",
          "name": "",
          "type": "bool"
        }
      ],
      "payable": false,
      "stateMutability": "view",
      "type": "function"
    },
    {
      "constant": true,
      "inputs": [
        {
          "internalType": "address",
          "name": "account",
          "type": "address"
        }
      ],
      "name": "isMedic",
      "outputs": [
        {
          "internalType": "bool",
          "name": "",
          "type": "bool"
        }
      ],
      "payable": false,
      "stateMutability": "view",
      "type": "function"
    },
    {
      "constant": true,
      "inputs": [
        {
          "internalType": "address",
          "name": "account",
          "type": "address"
        }
      ],
      "name": "isPatient",
      "outputs": [
        {
          "internalType": "bool",
          "name": "",
          "type": "bool"
        }
      ],
      "payable": false,
      "stateMutability": "view",
      "type": "function"
    },
    {
      "constant": false,
      "inputs": [
        {
          "internalType": "address",
          "name": "account",
          "type": "address"
        }
      ],
      "name": "removeMedic",
      "outputs": [],
      "payable": false,
      "stateMutability": "nonpayable",
      "type": "function"
    },
    {
      "constant": false,
      "inputs": [
        {
          "internalType": "address",
          "name": "account",
          "type": "address"
        }
      ],
      "name": "removePatient",
      "outputs": [],
      "payable": false,
      "stateMutability": "nonpayable",
      "type": "function"
    },
    {
      "constant": false,
      "inputs": [
        {
          "internalType": "address",
          "name": "_account",
          "type": "address"
        },
        {
          "internalType": "string",
          "name": "_descript",
          "type": "string"
        },
        {
          "internalType": "string",
          "name": "_ipfsHash",
          "type": "string"
        }
      ],
      "name": "updateRecord",
      "outputs": [
        {
          "internalType": "bool",
          "name": "_success",
          "type": "bool"
        }
      ],
      "payable": false,
      "stateMutability": "nonpayable",
      "type": "function"
    },
    {
      "constant": false,
      "inputs": [
        {
          "internalType": "address",
          "name": "_account",
          "type": "address"
        },
        {
          "internalType": "uint256",
          "name": "_date",
          "type": "uint256"
        }
      ],
      "name": "viewMedics",
      "outputs": [
        {
          "internalType": "string",
          "name": "name",
          "type": "string"
        },
        {
          "internalType": "string",
          "name": "specialty",
          "type": "string"
        },
        {
          "internalType": "string",
          "name": "cedula",
          "type": "string"
        },
        {
          "internalType": "string",
          "name": "email",
          "type": "string"
        },
        {
          "internalType": "string",
          "name": "hashPicture",
          "type": "string"
        },
        {
          "internalType": "uint256",
          "name": "whenAdded",
          "type": "uint256"
        }
      ],
      "payable": false,
      "stateMutability": "nonpayable",
      "type": "function"
    },
    {
      "constant": false,
      "inputs": [
        {
          "internalType": "address",
          "name": "_account",
          "type": "address"
        },
        {
          "internalType": "string",
          "name": "_ipfsHash",
          "type": "string"
        }
      ],
      "name": "viewRecords",
      "outputs": [
        {
          "internalType": "string",
          "name": "_descript",
          "type": "string"
        },
        {
          "internalType": "uint256",
          "name": "_uploadDate",
          "type": "uint256"
        }
      ],
      "payable": false,
      "stateMutability": "nonpayable",
      "type": "function"
    },
    {
      "constant": true,
      "inputs": [
        {
          "internalType": "address",
          "name": "_account",
          "type": "address"
        },
        {
          "internalType": "uint256",
          "name": "_timeStamp",
          "type": "uint256"
        }
      ],
      "name": "patientDiagnosis",
      "outputs": [
        {
          "components": [
            {
              "internalType": "string",
              "name": "comorb",
              "type": "string"
            },
            {
              "internalType": "uint256",
              "name": "age",
              "type": "uint256"
            },
            {
              "internalType": "uint256",
              "name": "weight",
              "type": "uint256"
            },
            {
              "internalType": "string",
              "name": "diagnostic",
              "type": "string"
            },
            {
              "internalType": "string",
              "name": "observations",
              "type": "string"
            },
            {
              "internalType": "string[]",
              "name": "estudio",
              "type": "string[]"
            },
            {
              "internalType": "bool",
              "name": "isDiag",
              "type": "bool"
            }
          ],
          "internalType": "struct PatientDiagnosis.Diagnostico",
          "name": "diag",
          "type": "tuple"
        }
      ],
      "payable": false,
      "stateMutability": "view",
      "type": "function"
    },
    {
      "constant": true,
      "inputs": [
        {
          "internalType": "address",
          "name": "_account",
          "type": "address"
        }
      ],
      "name": "extendedIsDiag",
      "outputs": [
        {
          "internalType": "bool",
          "name": "isIndeed",
          "type": "bool"
        }
      ],
      "payable": false,
      "stateMutability": "view",
      "type": "function"
    },
    {
      "constant": true,
      "inputs": [
        {
          "internalType": "address",
          "name": "entityAddress",
          "type": "address"
        },
        {
          "internalType": "uint256",
          "name": "date",
          "type": "uint256"
        }
      ],
      "name": "isDiag",
      "outputs": [
        {
          "internalType": "bool",
          "name": "isIndeed",
          "type": "bool"
        }
      ],
      "payable": false,
      "stateMutability": "view",
      "type": "function"
    },
    {
      "constant": true,
      "inputs": [
        {
          "internalType": "address",
          "name": "entityAddress",
          "type": "address"
        }
      ],
      "name": "isPaciente",
      "outputs": [
        {
          "internalType": "bool",
          "name": "isIndeed",
          "type": "bool"
        }
      ],
      "payable": false,
      "stateMutability": "view",
      "type": "function"
    },
    {
      "constant": false,
      "inputs": [
        {
          "internalType": "address",
          "name": "_account",
          "type": "address"
        },
        {
          "internalType": "string",
          "name": "_comorb",
          "type": "string"
        },
        {
          "internalType": "uint16",
          "name": "_age",
          "type": "uint16"
        },
        {
          "internalType": "uint16",
          "name": "_weight",
          "type": "uint16"
        },
        {
          "internalType": "string",
          "name": "_diagnostic",
          "type": "string"
        },
        {
          "internalType": "string",
          "name": "_observations",
          "type": "string"
        },
        {
          "internalType": "string[]",
          "name": "_estudio",
          "type": "string[]"
        }
      ],
      "name": "addDiagnostic",
      "outputs": [
        {
          "internalType": "bool",
          "name": "_success",
          "type": "bool"
        }
      ],
      "payable": false,
      "stateMutability": "nonpayable",
      "type": "function"
    },
    {
      "constant": false,
      "inputs": [
        {
          "internalType": "address",
          "name": "_account",
          "type": "address"
        },
        {
          "internalType": "string",
          "name": "_nombre",
          "type": "string"
        },
        {
          "internalType": "string",
          "name": "_curp",
          "type": "string"
        },
        {
          "internalType": "string",
          "name": "_tipoSangre",
          "type": "string"
        },
        {
          "internalType": "string",
          "name": "_sexo",
          "type": "string"
        },
        {
          "internalType": "string",
          "name": "_hashCredencial",
          "type": "string"
        },
        {
          "internalType": "string",
          "name": "_hashFoto",
          "type": "string"
        }
      ],
      "name": "patientSelfReg",
      "outputs": [
        {
          "internalType": "bool",
          "name": "_success",
          "type": "bool"
        }
      ],
      "payable": true,
      "stateMutability": "payable",
      "type": "function"
    },
    {
      "constant": false,
      "inputs": [
        {
          "internalType": "address",
          "name": "_account",
          "type": "address"
        },
        {
          "internalType": "string",
          "name": "_comorb",
          "type": "string"
        },
        {
          "internalType": "uint256",
          "name": "_age",
          "type": "uint256"
        },
        {
          "internalType": "uint256",
          "name": "_weight",
          "type": "uint256"
        },
        {
          "internalType": "string",
          "name": "_diagnostic",
          "type": "string"
        },
        {
          "internalType": "string",
          "name": "_observations",
          "type": "string"
        },
        {
          "internalType": "string[]",
          "name": "_estudio",
          "type": "string[]"
        },
        {
          "internalType": "uint256",
          "name": "_date",
          "type": "uint256"
        }
      ],
      "name": "updateDiagnostic",
      "outputs": [
        {
          "internalType": "bool",
          "name": "_success",
          "type": "bool"
        }
      ],
      "payable": false,
      "stateMutability": "nonpayable",
      "type": "function"
    },
    {
      "constant": false,
      "inputs": [
        {
          "internalType": "address",
          "name": "_account",
          "type": "address"
        },
        {
          "internalType": "string",
          "name": "_nombre",
          "type": "string"
        },
        {
          "internalType": "string",
          "name": "_curp",
          "type": "string"
        },
        {
          "internalType": "string",
          "name": "_tipoSangre",
          "type": "string"
        },
        {
          "internalType": "string",
          "name": "_sexo",
          "type": "string"
        },
        {
          "internalType": "string",
          "name": "_hashCredencial",
          "type": "string"
        },
        {
          "internalType": "string",
          "name": "_hashFoto",
          "type": "string"
        }
      ],
      "name": "selfUpdatePatient",
      "outputs": [
        {
          "internalType": "bool",
          "name": "_success",
          "type": "bool"
        }
      ],
      "payable": true,
      "stateMutability": "payable",
      "type": "function"
    },
    {
      "constant": false,
      "inputs": [
        {
          "internalType": "address",
          "name": "_account",
          "type": "address"
        },
        {
          "internalType": "uint256",
          "name": "_date",
          "type": "uint256"
        }
      ],
      "name": "viewDiagnostic",
      "outputs": [
        {
          "internalType": "string[]",
          "name": "_estudio",
          "type": "string[]"
        }
      ],
      "payable": false,
      "stateMutability": "nonpayable",
      "type": "function"
    },
    {
      "constant": false,
      "inputs": [
        {
          "internalType": "address",
          "name": "_account",
          "type": "address"
        }
      ],
      "name": "retrievePatient",
      "outputs": [
        {
          "internalType": "string",
          "name": "_hashCredencial",
          "type": "string"
        },
        {
          "internalType": "string",
          "name": "_hashFoto",
          "type": "string"
        }
      ],
      "payable": true,
      "stateMutability": "payable",
      "type": "function"
    },
    {
      "constant": false,
      "inputs": [
        {
          "internalType": "address",
          "name": "_account",
          "type": "address"
        }
      ],
      "name": "extendedViewDiagnostic",
      "outputs": [
        {
          "internalType": "uint256[]",
          "name": "_dates",
          "type": "uint256[]"
        }
      ],
      "payable": false,
      "stateMutability": "nonpayable",
      "type": "function"
    }
  ],
  "bytecode": "0x60806040526000600460006101000a81548160ff0219169083151502179055506000600660006101000a81548160ff0219169083151502179055506000600a60006101000a81548160ff02191690831515021790555062000066336200006c60201b60201c565b62000438565b600073ffffffffffffffffffffffffffffffffffffffff168173ffffffffffffffffffffffffffffffffffffffff161415620000df576040517f08c379a0000000000000000000000000000000000000000000000000000000008152600401620000d69062000405565b60405180910390fd5b620000fa8160006200015760201b6200444a1790919060201c565b3373ffffffffffffffffffffffffffffffffffffffff168173ffffffffffffffffffffffffffffffffffffffff167fbf3f493c772c8c283fd124432c2d0f539ab343faa04258fe88e52912d36b102b60405160405180910390a350565b6200016982826200020a60201b60201c565b15620001ac576040517f08c379a0000000000000000000000000000000000000000000000000000000008152600401620001a390620003c1565b60405180910390fd5b60018260000160008373ffffffffffffffffffffffffffffffffffffffff1673ffffffffffffffffffffffffffffffffffffffff16815260200190815260200160002060006101000a81548160ff0219169083151502179055505050565b60008073ffffffffffffffffffffffffffffffffffffffff168273ffffffffffffffffffffffffffffffffffffffff1614156200027e576040517f08c379a00000000000000000000000000000000000000000000000000000000081526004016200027590620003e3565b60405180910390fd5b8260000160008373ffffffffffffffffffffffffffffffffffffffff1673ffffffffffffffffffffffffffffffffffffffff16815260200190815260200160002060009054906101000a900460ff16905092915050565b6000620002e4601f8362000427565b91507f526f6c65733a206163636f756e7420616c72656164792068617320726f6c65006000830152602082019050919050565b60006200032660228362000427565b91507f526f6c65733a206163636f756e7420697320746865207a65726f20616464726560008301527f73730000000000000000000000000000000000000000000000000000000000006020830152604082019050919050565b60006200038e60198362000427565b91507f4572726f7220656e206c612061646472657373207573616461000000000000006000830152602082019050919050565b60006020820190508181036000830152620003dc81620002d5565b9050919050565b60006020820190508181036000830152620003fe8162000317565b9050919050565b6000602082019050818103600083015262000420816200037f565b9050919050565b600082825260208201905092915050565b615ebe80620004486000396000f3fe6080604052600436106101c25760003560e01c806370480275116100f7578063b0397ff811610095578063ea04f68f11610064578063ea04f68f14610734578063ea6d89bd14610776578063eae3ef8a146107b9578063f124911e146107f6576101c2565b8063b0397ff814610661578063d47b41d51461068a578063e11dd61c146106c7578063e765e735146106f7576101c2565b80638f9c79ed116100d15780638f9c79ed1461056d578063928a47d6146105aa57806395a4420a146105e7578063a1f23f1914610624576101c2565b806370480275146104f25780637d01dbc21461051b5780637d0d625714610544576101c2565b806339aa3987116101645780635c11b70f1161013e5780635c11b70f146104125780636278ed791461044f5780636d263ceb1461048c5780636f7ee01e146104b5576101c2565b806339aa39871461034f5780634e0581f4146103925780635995fd00146103d4576101c2565b80631c712b6c116101a05780631c712b6c14610267578063209074dd146102a457806324d7806c146102e15780632a50bc271461031e576101c2565b80630ac62e02146101c45780630e15809a146101ed5780630e9cb9ba1461022a575b005b3480156101d057600080fd5b506101eb60048036036101e69190810190614ed9565b610826565b005b3480156101f957600080fd5b50610214600480360361020f9190810190614962565b6108d9565b604051610221919061559f565b60405180910390f35b34801561023657600080fd5b50610251600480360361024c9190810190614e9d565b610928565b60405161025e9190615b4f565b60405180910390f35b34801561027357600080fd5b5061028e60048036036102899190810190614e9d565b610956565b60405161029b9190615539565b60405180910390f35b3480156102b057600080fd5b506102cb60048036036102c69190810190614c8d565b610c1c565b6040516102d8919061559f565b60405180910390f35b3480156102ed57600080fd5b5061030860048036036103039190810190614962565b610f66565b604051610315919061559f565b60405180910390f35b61033860048036036103339190810190614962565b610f83565b6040516103469291906155fe565b60405180910390f35b34801561035b57600080fd5b5061037660048036036103719190810190614962565b611558565b60405161038997969594939291906156e9565b60405180910390f35b34801561039e57600080fd5b506103b960048036036103b49190810190614e9d565b611937565b6040516103cb969594939291906159d7565b60405180910390f35b3480156103e057600080fd5b506103fb60048036036103f6919081019061498b565b611b55565b6040516104099291906156b9565b60405180910390f35b34801561041e57600080fd5b5061043960048036036104349190810190614e9d565b611d92565b6040516104469190615b2d565b60405180910390f35b34801561045b57600080fd5b5061047660048036036104719190810190614962565b6120fb565b604051610483919061559f565b60405180910390f35b34801561049857600080fd5b506104b360048036036104ae9190810190614962565b612154565b005b3480156104c157600080fd5b506104dc60048036036104d79190810190614962565b612198565b6040516104e9919061555b565b60405180910390f35b3480156104fe57600080fd5b5061051960048036036105149190810190614962565b6124b8565b005b34801561052757600080fd5b50610542600480360361053d9190810190614962565b61250c565b005b34801561055057600080fd5b5061056b60048036036105669190810190614962565b612560565b005b34801561057957600080fd5b50610594600480360361058f9190810190614962565b6125b4565b6040516105a1919061559f565b60405180910390f35b3480156105b657600080fd5b506105d160048036036105cc9190810190614d8b565b6125d1565b6040516105de919061559f565b60405180910390f35b3480156105f357600080fd5b5061060e60048036036106099190810190614e9d565b6128c3565b60405161061b919061559f565b60405180910390f35b34801561063057600080fd5b5061064b600480360361064691908101906149df565b61292e565b604051610658919061559f565b60405180910390f35b34801561066d57600080fd5b5061068860048036036106839190810190614962565b612b61565b005b34801561069657600080fd5b506106b160048036036106ac91908101906149df565b612bb5565b6040516106be919061559f565b60405180910390f35b6106e160048036036106dc9190810190614b5f565b612d8a565b6040516106ee919061559f565b60405180910390f35b34801561070357600080fd5b5061071e60048036036107199190810190614a5e565b6130a0565b60405161072b919061559f565b60405180910390f35b34801561074057600080fd5b5061075b60048036036107569190810190614e9d565b61334f565b60405161076d96959493929190615635565b60405180910390f35b34801561078257600080fd5b5061079d60048036036107989190810190614962565b6138de565b6040516107b0979695949392919061581b565b60405180910390f35b3480156107c557600080fd5b506107e060048036036107db9190810190614962565b613c25565b6040516107ed919061559f565b60405180910390f35b610810600480360361080b9190810190614b5f565b613c42565b60405161081d919061559f565b60405180910390f35b61082f33610f66565b61086e576040517f08c379a000000000000000000000000000000000000000000000000000000000815260040161086590615acd565b60405180910390fd5b80600660006101000a81548160ff0219169083151502179055503373ffffffffffffffffffffffffffffffffffffffff167f58b15338e6499b2b2827d169f60332c3b4b476fcd06b9a3c7e37afa77c49228e826040516108ce919061559f565b60405180910390a250565b600080600860008473ffffffffffffffffffffffffffffffffffffffff1673ffffffffffffffffffffffffffffffffffffffff1681526020019081526020016000208054905010159050919050565b6008602052816000526040600020818154811061094157fe5b90600052602060002001600091509150505481565b6060600a60009054906101000a900460ff161561097257600080fd5b61097b336125b4565b8061098b575061098a33613c25565b5b6109ca576040517f08c379a00000000000000000000000000000000000000000000000000000000081526004016109c190615aed565b60405180910390fd5b600073ffffffffffffffffffffffffffffffffffffffff168373ffffffffffffffffffffffffffffffffffffffff161415610a0457600080fd5b60008210158015610a3557507fffffffffffffffffffffffffffffffffffffffffffffffffffffffffffffffff8211155b610a3e57600080fd5b610a4883836128c3565b610a5157600080fd5b610a59614599565b610a638484611d92565b9050610a6e33613c25565b8015610a7f5750610a7e336125b4565b5b15610af8578373ffffffffffffffffffffffffffffffffffffffff163373ffffffffffffffffffffffffffffffffffffffff16141580610aea57508373ffffffffffffffffffffffffffffffffffffffff163373ffffffffffffffffffffffffffffffffffffffff16145b610af357600080fd5b610b8d565b610b0133613c25565b15610b44578373ffffffffffffffffffffffffffffffffffffffff163373ffffffffffffffffffffffffffffffffffffffff161415610b3f57600080fd5b610b8c565b610b4d336125b4565b15610b8b578373ffffffffffffffffffffffffffffffffffffffff163373ffffffffffffffffffffffffffffffffffffffff1614610b8a57600080fd5b5b5b5b3373ffffffffffffffffffffffffffffffffffffffff168473ffffffffffffffffffffffffffffffffffffffff167f9938502686a91e4f81577fc5def2278e38d6af2a37e6eb3d255fdb29b3af63fa83600001518460200151856040015186606001518760800151604051610c0695949392919061596f565b60405180910390a38060a0015191505092915050565b6000600a60009054906101000a900460ff1615610c3857600080fd5b610c4133613c25565b610c80576040517f08c379a0000000000000000000000000000000000000000000000000000000008152600401610c7790615a6d565b60405180910390fd5b600073ffffffffffffffffffffffffffffffffffffffff168873ffffffffffffffffffffffffffffffffffffffff161415610cba57600080fd5b610cc3886108d9565b610ccc57600080fd5b610cd5886125b4565b8015610ce65750610ce533613c25565b5b610cef57600080fd5b6032875110610cfd57600080fd5b60788661ffff1610610d0e57600080fd5b6102bc8561ffff1610610d2057600080fd5b610100845110610d2f57600080fd5b610200835110610d3e57600080fd5b6000429050610d4b614599565b6040518060e001604052808a81526020018961ffff1681526020018861ffff16815260200187815260200186815260200185815260200160011515815250905080600760008c73ffffffffffffffffffffffffffffffffffffffff1673ffffffffffffffffffffffffffffffffffffffff16815260200190815260200160002060008481526020019081526020016000206000820151816000019080519060200190610df89291906145d8565b5060208201518160010155604082015181600201556060820151816003019080519060200190610e299291906145d8565b506080820151816004019080519060200190610e469291906145d8565b5060a0820151816005019080519060200190610e63929190614658565b5060c08201518160060160006101000a81548160ff021916908315150217905550905050600860008b73ffffffffffffffffffffffffffffffffffffffff1673ffffffffffffffffffffffffffffffffffffffff1681526020019081526020016000208290806001815401808255809150509060018203906000526020600020016000909192909190915055503373ffffffffffffffffffffffffffffffffffffffff168a73ffffffffffffffffffffffffffffffffffffffff167fc76a6c87db395959e2b38c12986f5904eb13332810fff9c429f1f96ce566aa0084604051610f4d9190615b4f565b60405180910390a3600192505050979650505050505050565b6000610f7c826000613f1d90919063ffffffff16565b9050919050565b606080600a60009054906101000a900460ff1615610fa057600080fd5b610fa9336125b4565b80610fb95750610fb833613c25565b5b610ff8576040517f08c379a0000000000000000000000000000000000000000000000000000000008152600401610fef90615aed565b60405180910390fd5b600073ffffffffffffffffffffffffffffffffffffffff168373ffffffffffffffffffffffffffffffffffffffff16141561103257600080fd5b61103a6146b8565b600960008573ffffffffffffffffffffffffffffffffffffffff1673ffffffffffffffffffffffffffffffffffffffff1681526020019081526020016000206040518060e0016040529081600082018054600181600116156101000203166002900480601f01602080910402602001604051908101604052809291908181526020018280546001816001161561010002031660029004801561111d5780601f106110f25761010080835404028352916020019161111d565b820191906000526020600020905b81548152906001019060200180831161110057829003601f168201915b50505050508152602001600182018054600181600116156101000203166002900480601f0160208091040260200160405190810160405280929190818152602001828054600181600116156101000203166002900480156111bf5780601f10611194576101008083540402835291602001916111bf565b820191906000526020600020905b8154815290600101906020018083116111a257829003601f168201915b50505050508152602001600282018054600181600116156101000203166002900480601f0160208091040260200160405190810160405280929190818152602001828054600181600116156101000203166002900480156112615780601f1061123657610100808354040283529160200191611261565b820191906000526020600020905b81548152906001019060200180831161124457829003601f168201915b50505050508152602001600382018054600181600116156101000203166002900480601f0160208091040260200160405190810160405280929190818152602001828054600181600116156101000203166002900480156113035780601f106112d857610100808354040283529160200191611303565b820191906000526020600020905b8154815290600101906020018083116112e657829003601f168201915b50505050508152602001600482018054600181600116156101000203166002900480601f0160208091040260200160405190810160405280929190818152602001828054600181600116156101000203166002900480156113a55780601f1061137a576101008083540402835291602001916113a5565b820191906000526020600020905b81548152906001019060200180831161138857829003601f168201915b50505050508152602001600582018054600181600116156101000203166002900480601f0160208091040260200160405190810160405280929190818152602001828054600181600116156101000203166002900480156114475780601f1061141c57610100808354040283529160200191611447565b820191906000526020600020905b81548152906001019060200180831161142a57829003601f168201915b505050505081526020016006820160009054906101000a900460ff16151515158152505090503073ffffffffffffffffffffffffffffffffffffffff166108fc666a94d74f4300009081150290604051600060405180830381858888f193505050501580156114ba573d6000803e3d6000fd5b503373ffffffffffffffffffffffffffffffffffffffff168473ffffffffffffffffffffffffffffffffffffffff167f16415829ac3edb82b22ad83d057c7c1f86de9ee05fbf6ad3ce3b410a74a38ac7836000015184602001518560400151866060015187608001518860a001514260405161153c9796959493929190615782565b60405180910390a3806080015192508060a00151915050915091565b6009602052806000526040600020600091509050806000018054600181600116156101000203166002900480601f0160208091040260200160405190810160405280929190818152602001828054600181600116156101000203166002900480156116045780601f106115d957610100808354040283529160200191611604565b820191906000526020600020905b8154815290600101906020018083116115e757829003601f168201915b505050505090806001018054600181600116156101000203166002900480601f0160208091040260200160405190810160405280929190818152602001828054600181600116156101000203166002900480156116a25780601f10611677576101008083540402835291602001916116a2565b820191906000526020600020905b81548152906001019060200180831161168557829003601f168201915b505050505090806002018054600181600116156101000203166002900480601f0160208091040260200160405190810160405280929190818152602001828054600181600116156101000203166002900480156117405780601f1061171557610100808354040283529160200191611740565b820191906000526020600020905b81548152906001019060200180831161172357829003601f168201915b505050505090806003018054600181600116156101000203166002900480601f0160208091040260200160405190810160405280929190818152602001828054600181600116156101000203166002900480156117de5780601f106117b3576101008083540402835291602001916117de565b820191906000526020600020905b8154815290600101906020018083116117c157829003601f168201915b505050505090806004018054600181600116156101000203166002900480601f01602080910402602001604051908101604052809291908181526020018280546001816001161561010002031660029004801561187c5780601f106118515761010080835404028352916020019161187c565b820191906000526020600020905b81548152906001019060200180831161185f57829003601f168201915b505050505090806005018054600181600116156101000203166002900480601f01602080910402602001604051908101604052809291908181526020018280546001816001161561010002031660029004801561191a5780601f106118ef5761010080835404028352916020019161191a565b820191906000526020600020905b8154815290600101906020018083116118fd57829003601f168201915b5050505050908060060160009054906101000a900460ff16905087565b600760205281600052604060002060205280600052604060002060009150915050806000018054600181600116156101000203166002900480601f0160208091040260200160405190810160405280929190818152602001828054600181600116156101000203166002900480156119f05780601f106119c5576101008083540402835291602001916119f0565b820191906000526020600020905b8154815290600101906020018083116119d357829003601f168201915b505050505090806001015490806002015490806003018054600181600116156101000203166002900480601f016020809104026020016040519081016040528092919081815260200182805460018160011615610100020316600290048015611a9a5780601f10611a6f57610100808354040283529160200191611a9a565b820191906000526020600020905b815481529060010190602001808311611a7d57829003601f168201915b505050505090806004018054600181600116156101000203166002900480601f016020809104026020016040519081016040528092919081815260200182805460018160011615610100020316600290048015611b385780601f10611b0d57610100808354040283529160200191611b38565b820191906000526020600020905b815481529060010190602001808311611b1b57829003601f168201915b5050505050908060060160009054906101000a900460ff16905086565b60606000600a60009054906101000a900460ff1615611b7357600080fd5b611b7c336125b4565b80611b8c5750611b8b33613c25565b5b611bcb576040517f08c379a0000000000000000000000000000000000000000000000000000000008152600401611bc290615aed565b60405180910390fd5b600073ffffffffffffffffffffffffffffffffffffffff168473ffffffffffffffffffffffffffffffffffffffff161415611c0557600080fd5b602e835114611c1357600080fd5b611c1b6146f7565b600584604051611c2b9190615522565b9081526020016040518091039020604051806060016040529081600082018054600181600116156101000203166002900480601f016020809104026020016040519081016040528092919081815260200182805460018160011615610100020316600290048015611cdd5780601f10611cb257610100808354040283529160200191611cdd565b820191906000526020600020905b815481529060010190602001808311611cc057829003601f168201915b50505050508152602001600182015481526020016002820160009054906101000a900460ff16151515158152505090503373ffffffffffffffffffffffffffffffffffffffff168573ffffffffffffffffffffffffffffffffffffffff167f4ee0bf4d8ed0ec027f6654b0ba0995ae922f70b4f3bdbc0ff59c0a7dbd5491c683600001518460200151604051611d7492919061593f565b60405180910390a38060000151925080602001519150509250929050565b611d9a614599565b600760008473ffffffffffffffffffffffffffffffffffffffff1673ffffffffffffffffffffffffffffffffffffffff16815260200190815260200160002060008381526020019081526020016000206040518060e0016040529081600082018054600181600116156101000203166002900480601f016020809104026020016040519081016040528092919081815260200182805460018160011615610100020316600290048015611e8e5780601f10611e6357610100808354040283529160200191611e8e565b820191906000526020600020905b815481529060010190602001808311611e7157829003601f168201915b505050505081526020016001820154815260200160028201548152602001600382018054600181600116156101000203166002900480601f016020809104026020016040519081016040528092919081815260200182805460018160011615610100020316600290048015611f445780601f10611f1957610100808354040283529160200191611f44565b820191906000526020600020905b815481529060010190602001808311611f2757829003601f168201915b50505050508152602001600482018054600181600116156101000203166002900480601f016020809104026020016040519081016040528092919081815260200182805460018160011615610100020316600290048015611fe65780601f10611fbb57610100808354040283529160200191611fe6565b820191906000526020600020905b815481529060010190602001808311611fc957829003601f168201915b5050505050815260200160058201805480602002602001604051908101604052809291908181526020016000905b828210156120d0578382906000526020600020018054600181600116156101000203166002900480601f0160208091040260200160405190810160405280929190818152602001828054600181600116156101000203166002900480156120bc5780601f10612091576101008083540402835291602001916120bc565b820191906000526020600020905b81548152906001019060200180831161209f57829003601f168201915b505050505081526020019060010190612014565b5050505081526020016006820160009054906101000a900460ff161515151581525050905092915050565b6000600960008373ffffffffffffffffffffffffffffffffffffffff1673ffffffffffffffffffffffffffffffffffffffff16815260200190815260200160002060060160009054906101000a900460ff169050919050565b3373ffffffffffffffffffffffffffffffffffffffff168173ffffffffffffffffffffffffffffffffffffffff161461218c57600080fd5b61219581613fe5565b50565b6060600a60009054906101000a900460ff16156121b457600080fd5b6121bd336125b4565b806121cd57506121cc33613c25565b5b61220c576040517f08c379a000000000000000000000000000000000000000000000000000000000815260040161220390615aed565b60405180910390fd5b600073ffffffffffffffffffffffffffffffffffffffff168273ffffffffffffffffffffffffffffffffffffffff16141561224657600080fd5b61224f826108d9565b61225857600080fd5b61226133613c25565b80156122725750612271336125b4565b5b156122eb578173ffffffffffffffffffffffffffffffffffffffff163373ffffffffffffffffffffffffffffffffffffffff161415806122dd57508173ffffffffffffffffffffffffffffffffffffffff163373ffffffffffffffffffffffffffffffffffffffff16145b6122e657600080fd5b612380565b6122f433613c25565b15612337578173ffffffffffffffffffffffffffffffffffffffff163373ffffffffffffffffffffffffffffffffffffffff16141561233257600080fd5b61237f565b612340336125b4565b1561237e578173ffffffffffffffffffffffffffffffffffffffff163373ffffffffffffffffffffffffffffffffffffffff161461237d57600080fd5b5b5b5b3373ffffffffffffffffffffffffffffffffffffffff168273ffffffffffffffffffffffffffffffffffffffff167fc7f5159d1102cf2ec23ffec745ab0d855395057e6c5f7619dc2826012fe9a5b5600860008673ffffffffffffffffffffffffffffffffffffffff1673ffffffffffffffffffffffffffffffffffffffff16815260200190815260200160002060405161241b919061557d565b60405180910390a3600860008373ffffffffffffffffffffffffffffffffffffffff1673ffffffffffffffffffffffffffffffffffffffff1681526020019081526020016000208054806020026020016040519081016040528092919081815260200182805480156124ac57602002820191906000526020600020905b815481526020019060010190808311612498575b50505050509050919050565b6124c133610f66565b612500576040517f08c379a00000000000000000000000000000000000000000000000000000000081526004016124f790615acd565b60405180910390fd5b612509816140c6565b50565b61251533610f66565b612554576040517f08c379a000000000000000000000000000000000000000000000000000000000815260040161254b90615acd565b60405180910390fd5b61255d816141a7565b50565b61256933613c25565b6125a8576040517f08c379a000000000000000000000000000000000000000000000000000000000815260040161259f90615a6d565b60405180910390fd5b6125b181614288565b50565b60006125ca826002613f1d90919063ffffffff16565b9050919050565b6000600a60009054906101000a900460ff16156125ed57600080fd5b6125f633613c25565b612635576040517f08c379a000000000000000000000000000000000000000000000000000000000815260040161262c90615a6d565b60405180910390fd5b600073ffffffffffffffffffffffffffffffffffffffff168973ffffffffffffffffffffffffffffffffffffffff16141561266f57600080fd5b61267989836128c3565b61268257600080fd5b61010088511061269157600080fd5b6078871061269e57600080fd5b6102bc86106126ac57600080fd5b60328551106126ba57600080fd5b6102008451106126c957600080fd5b600082101580156126fa57507fffffffffffffffffffffffffffffffffffffffffffffffffffffffffffffffff8211155b61270357600080fd5b600083511161271157600080fd5b612719614599565b6040518060e001604052808a815260200189815260200188815260200187815260200186815260200185815260200160011515815250905080600760008c73ffffffffffffffffffffffffffffffffffffffff1673ffffffffffffffffffffffffffffffffffffffff168152602001908152602001600020600085815260200190815260200160002060008201518160000190805190602001906127be9291906145d8565b50602082015181600101556040820151816002015560608201518160030190805190602001906127ef9291906145d8565b50608082015181600401908051906020019061280c9291906145d8565b5060a0820151816005019080519060200190612829929190614658565b5060c08201518160060160006101000a81548160ff0219169083151502179055509050503373ffffffffffffffffffffffffffffffffffffffff168a73ffffffffffffffffffffffffffffffffffffffff167f8864f7e8a3380841730dc6cd85a46a50d39d8521d4c55ba7faf825e5bb1d6a61426040516128aa9190615b4f565b60405180910390a3600191505098975050505050505050565b6000600760008473ffffffffffffffffffffffffffffffffffffffff1673ffffffffffffffffffffffffffffffffffffffff168152602001908152602001600020600083815260200190815260200160002060060160009054906101000a900460ff16905092915050565b6000600a60009054906101000a900460ff161561294a57600080fd5b61295333613c25565b612992576040517f08c379a000000000000000000000000000000000000000000000000000000000815260040161298990615a6d565b60405180910390fd5b600073ffffffffffffffffffffffffffffffffffffffff168473ffffffffffffffffffffffffffffffffffffffff1614156129cc57600080fd5b6101008351106129db57600080fd5b602e8251146129e957600080fd5b6129f16146f7565b600583604051612a019190615522565b9081526020016040518091039020604051806060016040529081600082018054600181600116156101000203166002900480601f016020809104026020016040519081016040528092919081815260200182805460018160011615610100020316600290048015612ab35780601f10612a8857610100808354040283529160200191612ab3565b820191906000526020600020905b815481529060010190602001808311612a9657829003601f168201915b50505050508152602001600182015481526020016002820160009054906101000a900460ff16151515158152505090508381600001819052503373ffffffffffffffffffffffffffffffffffffffff168573ffffffffffffffffffffffffffffffffffffffff167f87a983619f6316fe3e7ce828f67913b1a1048bf0b29304e3722f250644b049818360000151604051612b4d91906155ba565b60405180910390a360019150509392505050565b612b6a33610f66565b612ba9576040517f08c379a0000000000000000000000000000000000000000000000000000000008152600401612ba090615acd565b60405180910390fd5b612bb281614369565b50565b6000600a60009054906101000a900460ff1615612bd157600080fd5b612bda33613c25565b612c19576040517f08c379a0000000000000000000000000000000000000000000000000000000008152600401612c1090615a6d565b60405180910390fd5b600073ffffffffffffffffffffffffffffffffffffffff168473ffffffffffffffffffffffffffffffffffffffff161415612c5357600080fd5b612c5c846125b4565b612c6557600080fd5b610100835110612c7457600080fd5b602e825114612c8257600080fd5b6000429050612c8f6146f7565b604051806060016040528086815260200183815260200160011515815250905080600585604051612cc09190615522565b90815260200160405180910390206000820151816000019080519060200190612cea9291906145d8565b506020820151816001015560408201518160020160006101000a81548160ff0219169083151502179055509050503373ffffffffffffffffffffffffffffffffffffffff168673ffffffffffffffffffffffffffffffffffffffff167f977dc7867dd6fb513af3d4bb11f4457a5052487f13412788530b454c0b7dfa2c86604051612d7591906155dc565b60405180910390a36001925050509392505050565b6000600a60009054906101000a900460ff1615612da657600080fd5b612daf336125b4565b80612dbf5750612dbe33613c25565b5b612dfe576040517f08c379a0000000000000000000000000000000000000000000000000000000008152600401612df590615aed565b60405180910390fd5b600073ffffffffffffffffffffffffffffffffffffffff168873ffffffffffffffffffffffffffffffffffffffff161415612e3857600080fd5b6032875110612e4657600080fd5b6012865114612e5457600080fd5b6008855110612e6257600080fd5b600a845110612e7057600080fd5b602e835114612e7e57600080fd5b602e825114612e8c57600080fd5b612e946146b8565b6040518060e0016040528089815260200188815260200187815260200186815260200185815260200184815260200160011515815250905080600960008b73ffffffffffffffffffffffffffffffffffffffff1673ffffffffffffffffffffffffffffffffffffffff1681526020019081526020016000206000820151816000019080519060200190612f289291906145d8565b506020820151816001019080519060200190612f459291906145d8565b506040820151816002019080519060200190612f629291906145d8565b506060820151816003019080519060200190612f7f9291906145d8565b506080820151816004019080519060200190612f9c9291906145d8565b5060a0820151816005019080519060200190612fb99291906145d8565b5060c08201518160060160006101000a81548160ff0219169083151502179055509050503073ffffffffffffffffffffffffffffffffffffffff166108fc666a94d74f4300009081150290604051600060405180830381858888f1935050505015801561302a573d6000803e3d6000fd5b503373ffffffffffffffffffffffffffffffffffffffff168973ffffffffffffffffffffffffffffffffffffffff167f9e71bc592b814feac46375b302d8d1a7df91fcc6f69df3adb3bc0ce721fe6daf426040516130889190615b4f565b60405180910390a36001915050979650505050505050565b6000600a60009054906101000a900460ff16156130bc57600080fd5b6130c533610f66565b613104576040517f08c379a00000000000000000000000000000000000000000000000000000000081526004016130fb90615acd565b60405180910390fd5b600073ffffffffffffffffffffffffffffffffffffffff168773ffffffffffffffffffffffffffffffffffffffff16141561313e57600080fd5b608086511061314c57600080fd5b601e85511061315a57600080fd5b601e84511061316857600080fd5b601e83511061317657600080fd5b601e82511061318457600080fd5b600042905061319161471a565b6040518060e0016040528089815260200188815260200187815260200186815260200185815260200183815260200160011515815250905080600360008b73ffffffffffffffffffffffffffffffffffffffff1673ffffffffffffffffffffffffffffffffffffffff16815260200190815260200160002060008201518160000190805190602001906132259291906145d8565b5060208201518160010190805190602001906132429291906145d8565b50604082015181600201908051906020019061325f9291906145d8565b50606082015181600301908051906020019061327c9291906145d8565b5060808201518160040190805190602001906132999291906145d8565b5060a0820151816005015560c08201518160060160006101000a81548160ff0219169083151502179055509050506132d089612b61565b3373ffffffffffffffffffffffffffffffffffffffff168973ffffffffffffffffffffffffffffffffffffffff167f99ef3acfa68b13c01a6a7e6717e2224b4157940e6a56be5bd957d13c059fe3a08a8a8a8a8a8960405161333796959493929190615635565b60405180910390a36001925050509695505050505050565b60608060608060606000600a60009054906101000a900460ff161561337357600080fd5b61337c33610f66565b6133bb576040517f08c379a00000000000000000000000000000000000000000000000000000000081526004016133b290615acd565b60405180910390fd5b6133c433610f66565b15613403578773ffffffffffffffffffffffffffffffffffffffff163373ffffffffffffffffffffffffffffffffffffffff16141561340257600080fd5b5b600073ffffffffffffffffffffffffffffffffffffffff168873ffffffffffffffffffffffffffffffffffffffff16141561343d57600080fd5b6000871015801561346e57507fffffffffffffffffffffffffffffffffffffffffffffffffffffffffffffffff8711155b61347757600080fd5b600042905061348461471a565b600360008b73ffffffffffffffffffffffffffffffffffffffff1673ffffffffffffffffffffffffffffffffffffffff1681526020019081526020016000206040518060e0016040529081600082018054600181600116156101000203166002900480601f0160208091040260200160405190810160405280929190818152602001828054600181600116156101000203166002900480156135675780601f1061353c57610100808354040283529160200191613567565b820191906000526020600020905b81548152906001019060200180831161354a57829003601f168201915b50505050508152602001600182018054600181600116156101000203166002900480601f0160208091040260200160405190810160405280929190818152602001828054600181600116156101000203166002900480156136095780601f106135de57610100808354040283529160200191613609565b820191906000526020600020905b8154815290600101906020018083116135ec57829003601f168201915b50505050508152602001600282018054600181600116156101000203166002900480601f0160208091040260200160405190810160405280929190818152602001828054600181600116156101000203166002900480156136ab5780601f10613680576101008083540402835291602001916136ab565b820191906000526020600020905b81548152906001019060200180831161368e57829003601f168201915b50505050508152602001600382018054600181600116156101000203166002900480601f01602080910402602001604051908101604052809291908181526020018280546001816001161561010002031660029004801561374d5780601f106137225761010080835404028352916020019161374d565b820191906000526020600020905b81548152906001019060200180831161373057829003601f168201915b50505050508152602001600482018054600181600116156101000203166002900480601f0160208091040260200160405190810160405280929190818152602001828054600181600116156101000203166002900480156137ef5780601f106137c4576101008083540402835291602001916137ef565b820191906000526020600020905b8154815290600101906020018083116137d257829003601f168201915b50505050508152602001600582015481526020016006820160009054906101000a900460ff16151515158152505090503373ffffffffffffffffffffffffffffffffffffffff168a73ffffffffffffffffffffffffffffffffffffffff167fec95aa37f5ff4f1e52a5333f61229ce376a04a63d4ccdfae6678ef305b97f232836000015184602001518560400151866060015187608001518860a001518a6040516138a097969594939291906158ad565b60405180910390a380600001519750806020015196508060400151955080606001519450806080015193508060a00151925050509295509295509295565b6003602052806000526040600020600091509050806000018054600181600116156101000203166002900480601f01602080910402602001604051908101604052809291908181526020018280546001816001161561010002031660029004801561398a5780601f1061395f5761010080835404028352916020019161398a565b820191906000526020600020905b81548152906001019060200180831161396d57829003601f168201915b505050505090806001018054600181600116156101000203166002900480601f016020809104026020016040519081016040528092919081815260200182805460018160011615610100020316600290048015613a285780601f106139fd57610100808354040283529160200191613a28565b820191906000526020600020905b815481529060010190602001808311613a0b57829003601f168201915b505050505090806002018054600181600116156101000203166002900480601f016020809104026020016040519081016040528092919081815260200182805460018160011615610100020316600290048015613ac65780601f10613a9b57610100808354040283529160200191613ac6565b820191906000526020600020905b815481529060010190602001808311613aa957829003601f168201915b505050505090806003018054600181600116156101000203166002900480601f016020809104026020016040519081016040528092919081815260200182805460018160011615610100020316600290048015613b645780601f10613b3957610100808354040283529160200191613b64565b820191906000526020600020905b815481529060010190602001808311613b4757829003601f168201915b505050505090806004018054600181600116156101000203166002900480601f016020809104026020016040519081016040528092919081815260200182805460018160011615610100020316600290048015613c025780601f10613bd757610100808354040283529160200191613c02565b820191906000526020600020905b815481529060010190602001808311613be557829003601f168201915b5050505050908060050154908060060160009054906101000a900460ff16905087565b6000613c3b826001613f1d90919063ffffffff16565b9050919050565b6000600a60009054906101000a900460ff1615613c5e57600080fd5b600073ffffffffffffffffffffffffffffffffffffffff168873ffffffffffffffffffffffffffffffffffffffff161415613c9857600080fd5b613ca1886120fb565b15613cab57600080fd5b6032875110613cb957600080fd5b6012865114613cc757600080fd5b6008855110613cd557600080fd5b600a845110613ce357600080fd5b602e835114613cf157600080fd5b602e825114613cff57600080fd5b613d076146b8565b6040518060e0016040528089815260200188815260200187815260200186815260200185815260200184815260200160011515815250905080600960008b73ffffffffffffffffffffffffffffffffffffffff1673ffffffffffffffffffffffffffffffffffffffff1681526020019081526020016000206000820151816000019080519060200190613d9b9291906145d8565b506020820151816001019080519060200190613db89291906145d8565b506040820151816002019080519060200190613dd59291906145d8565b506060820151816003019080519060200190613df29291906145d8565b506080820151816004019080519060200190613e0f9291906145d8565b5060a0820151816005019080519060200190613e2c9291906145d8565b5060c08201518160060160006101000a81548160ff021916908315150217905550905050613e5989612154565b3073ffffffffffffffffffffffffffffffffffffffff166108fc670de0b6b3a76400009081150290604051600060405180830381858888f19350505050158015613ea7573d6000803e3d6000fd5b503373ffffffffffffffffffffffffffffffffffffffff168973ffffffffffffffffffffffffffffffffffffffff167f2307cf939b5254e14a1148c82c404da79a28d96b2e809eb9a9ee8fe009ae71d042604051613f059190615b4f565b60405180910390a36001915050979650505050505050565b60008073ffffffffffffffffffffffffffffffffffffffff168273ffffffffffffffffffffffffffffffffffffffff161415613f8e576040517f08c379a0000000000000000000000000000000000000000000000000000000008152600401613f8590615aad565b60405180910390fd5b8260000160008373ffffffffffffffffffffffffffffffffffffffff1673ffffffffffffffffffffffffffffffffffffffff16815260200190815260200160002060009054906101000a900460ff16905092915050565b600073ffffffffffffffffffffffffffffffffffffffff168173ffffffffffffffffffffffffffffffffffffffff161415614055576040517f08c379a000000000000000000000000000000000000000000000000000000000815260040161404c90615b0d565b60405180910390fd5b61406981600261444a90919063ffffffff16565b3373ffffffffffffffffffffffffffffffffffffffff168173ffffffffffffffffffffffffffffffffffffffff167ff6dfb9f71429364456283a1521c30cc400d799d7b381d7ce164687f11c18dbaf60405160405180910390a350565b600073ffffffffffffffffffffffffffffffffffffffff168173ffffffffffffffffffffffffffffffffffffffff161415614136576040517f08c379a000000000000000000000000000000000000000000000000000000000815260040161412d90615b0d565b60405180910390fd5b61414a81600061444a90919063ffffffff16565b3373ffffffffffffffffffffffffffffffffffffffff168173ffffffffffffffffffffffffffffffffffffffff167fbf3f493c772c8c283fd124432c2d0f539ab343faa04258fe88e52912d36b102b60405160405180910390a350565b600073ffffffffffffffffffffffffffffffffffffffff168173ffffffffffffffffffffffffffffffffffffffff161415614217576040517f08c379a000000000000000000000000000000000000000000000000000000000815260040161420e90615b0d565b60405180910390fd5b61422b8160016144f290919063ffffffff16565b3373ffffffffffffffffffffffffffffffffffffffff168173ffffffffffffffffffffffffffffffffffffffff167fb35968fdda9034197de288afbe8a2947dedade83d7dbc0de3e340d4f62ce64dc60405160405180910390a350565b600073ffffffffffffffffffffffffffffffffffffffff168173ffffffffffffffffffffffffffffffffffffffff1614156142f8576040517f08c379a00000000000000000000000000000000000000000000000000000000081526004016142ef90615b0d565b60405180910390fd5b61430c8160026144f290919063ffffffff16565b3373ffffffffffffffffffffffffffffffffffffffff168173ffffffffffffffffffffffffffffffffffffffff167fd00481c3fc5867ec74704c9c99334b8d53c7735c947bdcb6cbebcae6740ed94060405160405180910390a350565b600073ffffffffffffffffffffffffffffffffffffffff168173ffffffffffffffffffffffffffffffffffffffff1614156143d9576040517f08c379a00000000000000000000000000000000000000000000000000000000081526004016143d090615b0d565b60405180910390fd5b6143ed81600161444a90919063ffffffff16565b3373ffffffffffffffffffffffffffffffffffffffff168173ffffffffffffffffffffffffffffffffffffffff167f93b0ab94930bbad064296971ea5e731f84ae511662781bcaf28543ab9042368a60405160405180910390a350565b6144548282613f1d565b15614494576040517f08c379a000000000000000000000000000000000000000000000000000000000815260040161448b90615a4d565b60405180910390fd5b60018260000160008373ffffffffffffffffffffffffffffffffffffffff1673ffffffffffffffffffffffffffffffffffffffff16815260200190815260200160002060006101000a81548160ff0219169083151502179055505050565b6144fc8282613f1d565b61453b576040517f08c379a000000000000000000000000000000000000000000000000000000000815260040161453290615a8d565b60405180910390fd5b60008260000160008373ffffffffffffffffffffffffffffffffffffffff1673ffffffffffffffffffffffffffffffffffffffff16815260200190815260200160002060006101000a81548160ff0219169083151502179055505050565b6040518060e001604052806060815260200160008152602001600081526020016060815260200160608152602001606081526020016000151581525090565b828054600181600116156101000203166002900490600052602060002090601f016020900481019282601f1061461957805160ff1916838001178555614647565b82800160010185558215614647579182015b8281111561464657825182559160200191906001019061462b565b5b5090506146549190614759565b5090565b8280548282559060005260206000209081019282156146a7579160200282015b828111156146a65782518290805190602001906146969291906145d8565b5091602001919060010190614678565b5b5090506146b4919061477e565b5090565b6040518060e001604052806060815260200160608152602001606081526020016060815260200160608152602001606081526020016000151581525090565b604051806060016040528060608152602001600081526020016000151581525090565b6040518060e001604052806060815260200160608152602001606081526020016060815260200160608152602001600081526020016000151581525090565b61477b91905b8082111561477757600081600090555060010161475f565b5090565b90565b6147a791905b808211156147a3576000818161479a91906147aa565b50600101614784565b5090565b90565b50805460018160011615610100020316600290046000825580601f106147d057506147ef565b601f0160209004906000526020600020908101906147ee9190614759565b5b50565b60008135905061480181615e1f565b92915050565b600082601f83011261481857600080fd5b813561482b61482682615b97565b615b6a565b9150818183526020840193506020810190508360005b8381101561487157813586016148578882614890565b845260208401935060208301925050600181019050614841565b5050505092915050565b60008135905061488a81615e36565b92915050565b600082601f8301126148a157600080fd5b81356148b46148af82615bbf565b615b6a565b915080825260208301602083018583830111156148d057600080fd5b6148db838284615d92565b50505092915050565b600082601f8301126148f557600080fd5b813561490861490382615beb565b615b6a565b9150808252602083016020830185838301111561492457600080fd5b61492f838284615d92565b50505092915050565b60008135905061494781615e4d565b92915050565b60008135905061495c81615e64565b92915050565b60006020828403121561497457600080fd5b6000614982848285016147f2565b91505092915050565b6000806040838503121561499e57600080fd5b60006149ac858286016147f2565b925050602083013567ffffffffffffffff8111156149c957600080fd5b6149d5858286016148e4565b9150509250929050565b6000806000606084860312156149f457600080fd5b6000614a02868287016147f2565b935050602084013567ffffffffffffffff811115614a1f57600080fd5b614a2b868287016148e4565b925050604084013567ffffffffffffffff811115614a4857600080fd5b614a54868287016148e4565b9150509250925092565b60008060008060008060c08789031215614a7757600080fd5b6000614a8589828a016147f2565b965050602087013567ffffffffffffffff811115614aa257600080fd5b614aae89828a016148e4565b955050604087013567ffffffffffffffff811115614acb57600080fd5b614ad789828a016148e4565b945050606087013567ffffffffffffffff811115614af457600080fd5b614b0089828a016148e4565b935050608087013567ffffffffffffffff811115614b1d57600080fd5b614b2989828a016148e4565b92505060a087013567ffffffffffffffff811115614b4657600080fd5b614b5289828a016148e4565b9150509295509295509295565b600080600080600080600060e0888a031215614b7a57600080fd5b6000614b888a828b016147f2565b975050602088013567ffffffffffffffff811115614ba557600080fd5b614bb18a828b016148e4565b965050604088013567ffffffffffffffff811115614bce57600080fd5b614bda8a828b016148e4565b955050606088013567ffffffffffffffff811115614bf757600080fd5b614c038a828b016148e4565b945050608088013567ffffffffffffffff811115614c2057600080fd5b614c2c8a828b016148e4565b93505060a088013567ffffffffffffffff811115614c4957600080fd5b614c558a828b016148e4565b92505060c088013567ffffffffffffffff811115614c7257600080fd5b614c7e8a828b016148e4565b91505092959891949750929550565b600080600080600080600060e0888a031215614ca857600080fd5b6000614cb68a828b016147f2565b975050602088013567ffffffffffffffff811115614cd357600080fd5b614cdf8a828b016148e4565b9650506040614cf08a828b01614938565b9550506060614d018a828b01614938565b945050608088013567ffffffffffffffff811115614d1e57600080fd5b614d2a8a828b016148e4565b93505060a088013567ffffffffffffffff811115614d4757600080fd5b614d538a828b016148e4565b92505060c088013567ffffffffffffffff811115614d7057600080fd5b614d7c8a828b01614807565b91505092959891949750929550565b600080600080600080600080610100898b031215614da857600080fd5b6000614db68b828c016147f2565b985050602089013567ffffffffffffffff811115614dd357600080fd5b614ddf8b828c016148e4565b9750506040614df08b828c0161494d565b9650506060614e018b828c0161494d565b955050608089013567ffffffffffffffff811115614e1e57600080fd5b614e2a8b828c016148e4565b94505060a089013567ffffffffffffffff811115614e4757600080fd5b614e538b828c016148e4565b93505060c089013567ffffffffffffffff811115614e7057600080fd5b614e7c8b828c01614807565b92505060e0614e8d8b828c0161494d565b9150509295985092959890939650565b60008060408385031215614eb057600080fd5b6000614ebe858286016147f2565b9250506020614ecf8582860161494d565b9150509250929050565b600060208284031215614eeb57600080fd5b6000614ef98482850161487b565b91505092915050565b6000614f0e8383615163565b905092915050565b6000614f228383615504565b60208301905092915050565b6000614f3982615c67565b614f438185615ce3565b935083602082028501614f5585615c27565b8060005b85811015614f915784840389528151614f728582614f02565b9450614f7d83615cab565b925060208a01995050600181019050614f59565b50829750879550505050505092915050565b6000614fae82615c5c565b614fb88185615cd2565b935083602082028501614fca85615c17565b8060005b858110156150065784840389528151614fe78582614f02565b9450614ff283615c9e565b925060208a01995050600181019050614fce565b50829750879550505050505092915050565b600061502382615c72565b61502d8185615cf4565b935061503883615c37565b8060005b838110156150695781516150508882614f16565b975061505b83615cb8565b92505060018101905061503c565b5085935050505092915050565b600061508182615c7d565b61508b8185615cf4565b935061509683615c47565b8060005b838110156150ce576150ab82615dee565b6150b58882614f16565b97506150c083615cc5565b92505060018101905061509a565b5085935050505092915050565b6150e481615d4e565b82525050565b6150f381615d4e565b82525050565b600061510482615c93565b61510e8185615d16565b935061511e818560208601615da1565b61512781615e01565b840191505092915050565b600061513d82615c93565b6151478185615d27565b9350615157818560208601615da1565b80840191505092915050565b600061516e82615c88565b6151788185615d05565b9350615188818560208601615da1565b61519181615e01565b840191505092915050565b60006151a782615c88565b6151b18185615d16565b93506151c1818560208601615da1565b6151ca81615e01565b840191505092915050565b60006151e2601f83615d16565b91507f526f6c65733a206163636f756e7420616c72656164792068617320726f6c65006000830152602082019050919050565b6000615222602d83615d16565b91507f4e6f207365206375656e746120636f6e20656c20726f6c20657370656369666960008301527f6361646f284dc3a96469636f29000000000000000000000000000000000000006020830152604082019050919050565b6000615288602183615d16565b91507f526f6c65733a206163636f756e7420646f6573206e6f74206861766520726f6c60008301527f65000000000000000000000000000000000000000000000000000000000000006020830152604082019050919050565b60006152ee602283615d16565b91507f526f6c65733a206163636f756e7420697320746865207a65726f20616464726560008301527f73730000000000000000000000000000000000000000000000000000000000006020830152604082019050919050565b6000615354602b83615d16565b91507f4e6f207365206375656e746120636f6e20656c20726f6c20657370656369666960008301527f6361646f2841646d696e290000000000000000000000000000000000000000006020830152604082019050919050565b60006153ba603883615d16565b91507f4e6f207365206375656e746120636f6e20656c20726f6c20657370656369666960008301527f6361646f2850616369656e7465206f206dc3a96469636f2900000000000000006020830152604082019050919050565b6000615420601983615d16565b91507f4572726f7220656e206c612061646472657373207573616461000000000000006000830152602082019050919050565b600060e08301600083015184820360008601526154708282615163565b91505060208301516154856020860182615504565b5060408301516154986040860182615504565b50606083015184820360608601526154b08282615163565b915050608083015184820360808601526154ca8282615163565b91505060a083015184820360a08601526154e48282614fa3565b91505060c08301516154f960c08601826150db565b508091505092915050565b61550d81615d88565b82525050565b61551c81615d88565b82525050565b600061552e8284615132565b915081905092915050565b600060208201905081810360008301526155538184614f2e565b905092915050565b600060208201905081810360008301526155758184615018565b905092915050565b600060208201905081810360008301526155978184615076565b905092915050565b60006020820190506155b460008301846150ea565b92915050565b600060208201905081810360008301526155d4818461519c565b905092915050565b600060208201905081810360008301526155f681846150f9565b905092915050565b6000604082019050818103600083015261561881856150f9565b9050818103602083015261562c81846150f9565b90509392505050565b600060c082019050818103600083015261564f81896150f9565b9050818103602083015261566381886150f9565b9050818103604083015261567781876150f9565b9050818103606083015261568b81866150f9565b9050818103608083015261569f81856150f9565b90506156ae60a0830184615513565b979650505050505050565b600060408201905081810360008301526156d381856150f9565b90506156e26020830184615513565b9392505050565b600060e0820190508181036000830152615703818a61519c565b90508181036020830152615717818961519c565b9050818103604083015261572b818861519c565b9050818103606083015261573f818761519c565b90508181036080830152615753818661519c565b905081810360a0830152615767818561519c565b905061577660c08301846150ea565b98975050505050505050565b600060e082019050818103600083015261579c818a61519c565b905081810360208301526157b0818961519c565b905081810360408301526157c4818861519c565b905081810360608301526157d8818761519c565b905081810360808301526157ec818661519c565b905081810360a0830152615800818561519c565b905061580f60c0830184615513565b98975050505050505050565b600060e0820190508181036000830152615835818a61519c565b90508181036020830152615849818961519c565b9050818103604083015261585d818861519c565b90508181036060830152615871818761519c565b90508181036080830152615885818661519c565b905061589460a0830185615513565b6158a160c08301846150ea565b98975050505050505050565b600060e08201905081810360008301526158c7818a61519c565b905081810360208301526158db818961519c565b905081810360408301526158ef818861519c565b90508181036060830152615903818761519c565b90508181036080830152615917818661519c565b905061592660a0830185615513565b61593360c0830184615513565b98975050505050505050565b60006040820190508181036000830152615959818561519c565b90506159686020830184615513565b9392505050565b600060a0820190508181036000830152615989818861519c565b90506159986020830187615513565b6159a56040830186615513565b81810360608301526159b7818561519c565b905081810360808301526159cb818461519c565b90509695505050505050565b600060c08201905081810360008301526159f1818961519c565b9050615a006020830188615513565b615a0d6040830187615513565b8181036060830152615a1f818661519c565b90508181036080830152615a33818561519c565b9050615a4260a08301846150ea565b979650505050505050565b60006020820190508181036000830152615a66816151d5565b9050919050565b60006020820190508181036000830152615a8681615215565b9050919050565b60006020820190508181036000830152615aa68161527b565b9050919050565b60006020820190508181036000830152615ac6816152e1565b9050919050565b60006020820190508181036000830152615ae681615347565b9050919050565b60006020820190508181036000830152615b06816153ad565b9050919050565b60006020820190508181036000830152615b2681615413565b9050919050565b60006020820190508181036000830152615b478184615453565b905092915050565b6000602082019050615b646000830184615513565b92915050565b6000604051905081810181811067ffffffffffffffff82111715615b8d57600080fd5b8060405250919050565b600067ffffffffffffffff821115615bae57600080fd5b602082029050602081019050919050565b600067ffffffffffffffff821115615bd657600080fd5b601f19601f8301169050602081019050919050565b600067ffffffffffffffff821115615c0257600080fd5b601f19601f8301169050602081019050919050565b6000819050602082019050919050565b6000819050602082019050919050565b6000819050602082019050919050565b60008190508160005260206000209050919050565b600081519050919050565b600081519050919050565b600081519050919050565b600081549050919050565b600081519050919050565b600081519050919050565b6000602082019050919050565b6000602082019050919050565b6000602082019050919050565b6000600182019050919050565b600082825260208201905092915050565b600082825260208201905092915050565b600082825260208201905092915050565b600082825260208201905092915050565b600082825260208201905092915050565b600081905092915050565b6000819050919050565b6000615d4782615d68565b9050919050565b60008115159050919050565b600061ffff82169050919050565b600073ffffffffffffffffffffffffffffffffffffffff82169050919050565b6000819050919050565b82818337600083830152505050565b60005b83811015615dbf578082015181840152602081019050615da4565b83811115615dce576000848401525b50505050565b6000615de7615de283615e12565b615d32565b9050919050565b6000615dfa8254615dd4565b9050919050565b6000601f19601f8301169050919050565b60008160001c9050919050565b615e2881615d3c565b8114615e3357600080fd5b50565b615e3f81615d4e565b8114615e4a57600080fd5b50565b615e5681615d5a565b8114615e6157600080fd5b50565b615e6d81615d88565b8114615e7857600080fd5b5056fea365627a7a72315820155f4920ffe4cdb59fbfeb7651120a37b28ad69e7236f416dc2afc0703b068e76c6578706572696d656e74616cf564736f6c63430005100040",
  "source": "pragma solidity 0.5.16;\r\npragma experimental ABIEncoderV2;\r\n\r\nimport \"./PatientRecords.sol\";\r\n\r\n/**\r\n * @title Smart Contract de Diagnstico de pacientes - Control de Diagnstico realizado por el mdico.\r\n * @author Francisco Alemn\r\n * @notice Este contrato representa el registro de un Diagnstico asociado a una persona.\r\n * @dev El contrato hereda las funciones del contrato de roles\r\n */\r\n\r\ncontract PatientDiagnosis is PatientRecords {\r\n\r\n    /**\r\n     * @title Representa un Dignostico el cual le pertenece a un paciente.\r\n     */\r\n    struct Diagnostico {\r\n        string comorb;\r\n        uint256 age;\r\n        uint256 weight;\r\n        string diagnostic;\r\n        string observations;\r\n        string[] estudio;\r\n        bool isDiag;\r\n    }\r\n\r\n    /**\r\n     * @title Representa un Estudio el cual le pertenece a un paciente.\r\n     */\r\n    struct Paciente {\r\n        string nombre;\r\n        string curp;\r\n        string tipoSangre;\r\n        string sexo;\r\n        string hashCredencial;\r\n        string hashFoto;\r\n        bool isPatient;\r\n    }\r\n\r\n    /**\r\n     * @notice Mapea el paciente a su diagnstico..\r\n     */\r\n    mapping (address => mapping (uint256 => Diagnostico)) public fileToPatientDiagnosis;\r\n    mapping (address => uint256[]) public extendedFileToPatientDiagnosis;\r\n    mapping (address => Paciente) public fileToPatient;\r\n    /**\r\n     * @notice Patrn de switch para encender/apagar\r\n     */\r\n    bool private stopped = false;\r\n\r\n    /**\r\n     * @dev Eventos que sern registrados en la blockchain.\r\n     */\r\n    event DiagnosticAdded(\r\n        address indexed _patient,\r\n        address indexed _medic,\r\n        uint256 _date\r\n        );\r\n\r\n    event DiagnosisUpdate(\r\n        address indexed _patient,\r\n        address indexed _medic,\r\n        uint256 _date\r\n        );\r\n\r\n    event DiagnosticRetrieve(\r\n        address indexed _patient,\r\n        address indexed _medic,\r\n        string _comorb,\r\n        uint256 _age,\r\n        uint256 _weight,\r\n        string _diagnostic,\r\n        string  _observations\r\n        );\r\n\r\n    event FullDiagnosticRetrieve(\r\n        address indexed _patient,\r\n        address indexed _medic,\r\n        uint256[] _dates\r\n    );\r\n\r\n//    event DiagnosticDelete(\r\n//        address indexed _patient,\r\n//        address indexed _medic,\r\n//        uint256 _date\r\n//        );\r\n    event PatientAdded(\r\n        address indexed _patient,\r\n        address indexed _medic,\r\n        uint256 whenWas\r\n        );\r\n\r\n    event PatientUpdate(\r\n        address indexed _patient,\r\n        address indexed _medic,\r\n        uint256 whenWas\r\n        );\r\n\r\n    event PatientRetrieve(\r\n        address indexed _patient,\r\n        address indexed _medic,\r\n        string _nombre,\r\n        string _curp,\r\n        string _tipoSangre,\r\n        string _sexo,\r\n        string _hashCredencial,\r\n        string _hashFoto,\r\n        uint256 whenWas\r\n        );\r\n\r\n//    event PatientDelete(\r\n//        address indexed _patient,\r\n//        address indexed _medic,\r\n//        uint256 _date\r\n//        );\r\n    /**\r\n    * @dev Indica que se ha puesto el contrato en pausa.\r\n    * @param _admin Un administrador\r\n    * @param _stop Indica cuando hay una pausa o una reanudacin.\r\n    */\r\n    event LogSwitchStop(\r\n        address indexed _admin,\r\n        bool _stop\r\n    );\r\n\r\n    /**\r\n    * @dev Previene de ejecucin del contrato\r\n    */\r\n    modifier nonlyStopped {\r\n        require(!stopped);\r\n        _;\r\n    }\r\n\r\n    /**\r\n    * @dev Est funcin ser llamada para todos los mensajes que sean enviados a este contrado.\r\n    * Enviar Ether a este contrato ocasionar una excepcin, dado que las funciones no tienen un modificador de pago.\r\n    */\r\n    function () external payable {}\r\n\r\n    function patientDiagnosis(address _account, uint256 _timeStamp) public view returns (Diagnostico memory diag) {\r\n        return fileToPatientDiagnosis[_account][_timeStamp];\r\n    }\r\n\r\n    function extendedIsDiag(address _account) public view returns (bool isIndeed) {\r\n        return extendedFileToPatientDiagnosis[_account].length >= 0;\r\n    }\r\n\r\n    function isDiag(address entityAddress, uint256 date) public view returns(bool isIndeed) {\r\n        return fileToPatientDiagnosis[entityAddress][date].isDiag;\r\n    }\r\n\r\n    function isPaciente(address entityAddress) public view returns(bool isIndeed) {\r\n        return fileToPatient[entityAddress].isPatient;\r\n    }\r\n\r\n    /**\r\n   * @dev Funcin de creacin de Diagnstico. Esta funcin es realizada por un doctor.\r\n   * @param _account a\r\n   * @param _age a\r\n   * @param _weight a\r\n   * @param _diagnostic a\r\n   * @param _observations a\r\n   *@param _date a\r\n   * @return _success a\r\n   */\r\n    function addDiagnostic(\r\n        address _account,\r\n        string memory _comorb,\r\n        uint16 _age,\r\n        uint16 _weight,\r\n        string memory _diagnostic,\r\n        string memory _observations,\r\n        string[] memory _estudio\r\n        )\r\n    public nonlyStopped onlyMedic returns (bool _success) {\r\n        require(_account != address(0));\r\n        require(extendedIsDiag(_account));\r\n        require(isPatient(_account) && isMedic(msg.sender));\r\n        require(bytes(_comorb).length < 50);\r\n        require(_age < 120);\r\n        require(_weight < 700);\r\n        require(bytes(_diagnostic).length < 256);\r\n        require(bytes(_observations).length < 512);\r\n\r\n        uint256 _date = now;\r\n        Diagnostico memory diagnostico = Diagnostico(\r\n            _comorb,\r\n            _age,\r\n            _weight,\r\n            _diagnostic,\r\n            _observations,\r\n            _estudio,\r\n            true\r\n        );\r\n\r\n        fileToPatientDiagnosis[_account][_date] = diagnostico;\r\n        extendedFileToPatientDiagnosis[_account].push(_date);\r\n\r\n        emit DiagnosticAdded(\r\n            _account,\r\n            msg.sender,\r\n            _date\r\n        );\r\n        _success = true;\r\n    }\r\n\r\n    /**\r\n   * @dev Funcin de creacin de Diagnstico. Esta funcin es realizada por un doctor.\r\n   * @param _account a\r\n   * @return _success a\r\n   */\r\n    function patientSelfReg(\r\n        address _account,\r\n        string memory _nombre,\r\n        string memory _curp,\r\n        string memory _tipoSangre,\r\n        string memory _sexo,\r\n        string memory _hashCredencial,\r\n        string memory _hashFoto\r\n        )\r\n    public payable nonlyStopped returns (bool _success) {\r\n        require(_account != address(0));\r\n        require(!isPaciente(_account));\r\n        require(bytes(_nombre).length < 50);\r\n        require(bytes(_curp).length == 18);\r\n        require(bytes(_tipoSangre).length < 8);\r\n        require(bytes(_sexo).length < 10);\r\n        require(bytes(_hashCredencial).length == 46);\r\n        require(bytes(_hashFoto).length == 46);\r\n\r\n        Paciente memory paciente = Paciente(\r\n            _nombre,\r\n            _curp,\r\n            _tipoSangre,\r\n            _sexo,\r\n            _hashCredencial,\r\n            _hashFoto,\r\n            true\r\n        );\r\n\r\n        fileToPatient[_account] = paciente;\r\n        addPatient(_account);\r\n        address(this).transfer(1 ether);\r\n\r\n        emit PatientAdded(\r\n            _account,\r\n            msg.sender,\r\n            now\r\n        );\r\n        _success = true;\r\n    }\r\n\r\n    /**\r\n    * @notice Returns el Diagnstico en el ndice del propietario de la direccin.\r\n    * @dev Controlado por el switch\r\n    * @param _account Cuenta del paciente\r\n    */\r\n    function updateDiagnostic(\r\n        address _account,\r\n        string memory _comorb,\r\n        uint256 _age,\r\n        uint256 _weight,\r\n        string memory _diagnostic,\r\n        string memory _observations,\r\n        string[] memory _estudio,\r\n        uint256 _date\r\n        )\r\n    public nonlyStopped onlyMedic returns (bool _success) {\r\n        require(_account != address(0));\r\n        require(isDiag(_account, _date));\r\n        require(bytes(_comorb).length < 256);\r\n        require(_age < 120);\r\n        require(_weight < 700);\r\n        require(bytes(_diagnostic).length < 50);\r\n        require(bytes(_observations).length < 512);\r\n        require(_date >= 0 && _date <= 2**256 - 1);\r\n        require(_estudio.length > 0);\r\n\r\n        Diagnostico memory diagnostico = Diagnostico(\r\n            _comorb,\r\n            _age,\r\n            _weight,\r\n            _diagnostic,\r\n            _observations,\r\n            _estudio,\r\n            true\r\n        );\r\n\r\n        fileToPatientDiagnosis[_account][_date] = diagnostico;\r\n\r\n        emit DiagnosisUpdate(\r\n            _account,\r\n            msg.sender,\r\n            now\r\n        );\r\n        _success = true;\r\n    }\r\n\r\n    /**\r\n   * @dev Funcin de creacin de Diagnstico. Esta funcin es realizada por un doctor.\r\n   * @param _account a\r\n   * @return _success a\r\n   */\r\n    function selfUpdatePatient(\r\n        address _account,\r\n        string memory _nombre,\r\n        string memory _curp,\r\n        string memory _tipoSangre,\r\n        string memory _sexo,\r\n        string memory _hashCredencial,\r\n        string memory _hashFoto\r\n        )\r\n    public payable nonlyStopped onlyPatient returns (bool _success) {\r\n        require(_account != address(0));\r\n        require(bytes(_nombre).length < 50);\r\n        require(bytes(_curp).length == 18);\r\n        require(bytes(_tipoSangre).length < 8);\r\n        require(bytes(_sexo).length < 10);\r\n        require(bytes(_hashCredencial).length == 46);\r\n        require(bytes(_hashFoto).length == 46);\r\n\r\n        Paciente memory paciente = Paciente(\r\n            _nombre,\r\n            _curp,\r\n            _tipoSangre,\r\n            _sexo,\r\n            _hashCredencial,\r\n            _hashFoto,\r\n            true\r\n        );\r\n\r\n        fileToPatient[_account] = paciente;\r\n\r\n        address(this).transfer(0.03 ether);\r\n\r\n        emit PatientUpdate(\r\n            _account,\r\n            msg.sender,\r\n            now\r\n        );\r\n        _success = true;\r\n    }\r\n\r\n    /**\r\n    * @notice Returns el Diagnstico en el ndice del propietario de la direccin.\r\n    * @dev Controlado por el switch\r\n    * @param _account The owner address\r\n    * @return _date The uploaded timestamp\r\n    */\r\n    function viewDiagnostic(address _account, uint256 _date) public nonlyStopped onlyPatient returns (\r\n        string[] memory _estudio\r\n        ) {\r\n        require(_account != address(0));\r\n        require(_date >= 0 && _date <= 2**256 - 1);\r\n        require(isDiag(_account, _date));\r\n        Diagnostico memory diagnostico = patientDiagnosis(_account, _date);\r\n        if (isMedic(msg.sender) && isPatient(msg.sender)) {\r\n            require(msg.sender != _account || msg.sender == _account);\r\n        } else if (isMedic(msg.sender)) {\r\n            require(msg.sender != _account);\r\n        } else if (isPatient(msg.sender)) {\r\n            require(msg.sender == _account);\r\n        }\r\n        emit DiagnosticRetrieve(\r\n            _account,\r\n            msg.sender,\r\n            diagnostico.comorb,\r\n            diagnostico.age,\r\n            diagnostico.weight,\r\n            diagnostico.diagnostic,\r\n            diagnostico.observations\r\n        );\r\n        _estudio = diagnostico.estudio;\r\n    }\r\n\r\n    /**\r\n   * @dev Funcin de creacin de Diagnstico. Esta funcin es realizada por un doctor.\r\n   * @param _account a\r\n   */\r\n    function retrievePatient(\r\n        address _account\r\n        )\r\n    public payable nonlyStopped onlyPatient returns (\r\n            string memory _hashCredencial,\r\n            string memory _hashFoto\r\n        ) {\r\n        require(_account != address(0));\r\n\r\n        Paciente memory paciente = fileToPatient[_account];\r\n        address(this).transfer(0.03 ether);\r\n\r\n        emit PatientRetrieve(\r\n            _account,\r\n            msg.sender,\r\n            paciente.nombre,\r\n            paciente.curp,\r\n            paciente.tipoSangre,\r\n            paciente.sexo,\r\n            paciente.hashCredencial,\r\n            paciente.hashFoto,\r\n            now\r\n        );\r\n\r\n        _hashCredencial = paciente.hashCredencial;\r\n        _hashFoto = paciente.hashFoto;\r\n    }\r\n\r\n    /**\r\n    * @notice Returns el Diagnstico en el ndice del propietario de la direccin.\r\n    * @dev Controlado por el switch\r\n    * @param _account The owner address\r\n    * @return _date The uploaded timestamp\r\n    */\r\n    function extendedViewDiagnostic(\r\n        address _account\r\n        )\r\n    public nonlyStopped onlyPatient returns (uint256[] memory _dates) {\r\n        require(_account != address(0));\r\n        require(extendedIsDiag(_account));\r\n        if (isMedic(msg.sender) && isPatient(msg.sender)) {\r\n            require(msg.sender != _account || msg.sender == _account);\r\n        } else if (isMedic(msg.sender)) {\r\n            require(msg.sender != _account);\r\n        } else if (isPatient(msg.sender)) {\r\n            require(msg.sender == _account);\r\n        }\r\n        emit FullDiagnosticRetrieve(\r\n            _account,\r\n            msg.sender,\r\n            extendedFileToPatientDiagnosis[_account]\r\n        );\r\n        _dates = extendedFileToPatientDiagnosis[_account];\r\n    }\r\n\r\n    /**\r\n    * @notice Returns el estudio en el ndice del propietario de la direccin.\r\n    * @dev Controlado por el switch\r\n    * @param _account The owner address\r\n    * @return _uploadDate The uploaded timestamp\r\n    */\r\n//    function deleteDiagnostic(address _account, uint256 _date) public nonlyStopped onlyMedic returns (bool _success) {\r\n//        require(_account != address(0));\r\n//        require(isDiag(_account, _date));\r\n//        require(_date >= 0 && _date <= 2**256 - 1);\r\n//\r\n//        fileToPatientDiagnosis[_account][_date].isDiag = false;\r\n//\r\n//        emit DiagnosticDelete(\r\n//            _account,\r\n//            msg.sender,\r\n//            _date\r\n//        );\r\n//        _success = true;\r\n//    }\r\n\r\n}\r\n",
  "sourcePath": "D:\\Mega-AC1982\\Develop\\Block-Chain\\v1.1\\MedicalHistory-BlockChainProject\\frontend\\truffle\\contracts\\PatientDiagnosis.sol",
  "compiler": {
    "name": "solc",
    "version": "0.5.16+commit.9c3226ce.Emscripten.clang"
  },
  "schemaVersion": "3.1.0",
  "updatedAt": "2020-04-29T05:35:57.045Z",
  "devdoc": {
    "author": "Francisco Alemn",
    "details": "El contrato hereda las funciones del contrato de roles",
    "methods": {
      "addAdmin(address)": {
        "details": "Funcin pblica para asignar admin",
        "params": {
          "account": "Cuenta que ser asignada como admin"
        }
      },
      "addDiagnostic(address,string,uint16,uint16,string,string,string[])": {
        "details": "Funcin de creacin de Diagnstico. Esta funcin es realizada por un doctor.",
        "params": {
          "_account": "a",
          "_age": "a",
          "_diagnostic": "a",
          "_observations": "a param _date a",
          "_weight": "a"
        },
        "return": "_success a"
      },
      "addMedic(address)": {
        "details": "Funcin pblica para asignar mdico",
        "params": {
          "account": "Cuenta que ser asignada como mdico"
        }
      },
      "addMedics(address,string,string,string,string,string)": {
        "details": "Funcin para agregar un mdico. Esta funcin es realizada por un administrador.",
        "params": {
          "_account": "a",
          "_cedula": "a",
          "_email": "a",
          "_hashPicture": "a",
          "_name": "a",
          "_specialty": "a"
        },
        "return": "_success a"
      },
      "addPatient(address)": {
        "details": "Funcin pblica para asignar paciente",
        "params": {
          "account": "Cuenta que ser asignada como paciente"
        }
      },
      "addRecord(address,string,string)": {
        "details": "Funcin de creacin de Estudio. Esta funcin es realizada por un doctor.",
        "params": {
          "_account": "a",
          "_ipfsHash": "a"
        },
        "return": "_success a"
      },
      "emergencyStop(bool)": {
        "params": {
          "_stop": "Switch del contrado de encendido/apagado"
        }
      },
      "extendedViewDiagnostic(address)": {
        "details": "Controlado por el switch",
        "params": {
          "_account": "The owner address"
        },
        "return": "_date The uploaded timestamp"
      },
      "isAdmin(address)": {
        "params": {
          "account": "Cuenta donde se validar el rol."
        },
        "return": "true si la cuenta tiene rol de admin"
      },
      "isMedic(address)": {
        "params": {
          "account": "Cuenta donde se validar el rol."
        },
        "return": "true si la cuenta tiene rol de mdico"
      },
      "isPatient(address)": {
        "params": {
          "account": "Cuenta donde se validar el rol."
        },
        "return": "true si la cuenta tiene rol de paciente"
      },
      "patientSelfReg(address,string,string,string,string,string,string)": {
        "details": "Funcin de creacin de Diagnstico. Esta funcin es realizada por un doctor.",
        "params": {
          "_account": "a"
        },
        "return": "_success a"
      },
      "removeMedic(address)": {
        "details": "Funcin pblica para remover mdico",
        "params": {
          "account": "Cuenta que ser removida de mdico"
        }
      },
      "removePatient(address)": {
        "details": "Remover a rol de paciente. Quien invoque al contrato no volver a ser paciente."
      },
      "retrievePatient(address)": {
        "details": "Funcin de creacin de Diagnstico. Esta funcin es realizada por un doctor.",
        "params": {
          "_account": "a"
        }
      },
      "selfUpdatePatient(address,string,string,string,string,string,string)": {
        "details": "Funcin de creacin de Diagnstico. Esta funcin es realizada por un doctor.",
        "params": {
          "_account": "a"
        },
        "return": "_success a"
      },
      "updateDiagnostic(address,string,uint256,uint256,string,string,string[],uint256)": {
        "details": "Controlado por el switch",
        "params": {
          "_account": "Cuenta del paciente"
        }
      },
      "updateRecord(address,string,string)": {
        "details": "Controlado por el switch",
        "params": {
          "_account": "Cuenta del paciente"
        },
        "return": "_ipfsHash The IPFS hash"
      },
      "viewDiagnostic(address,uint256)": {
        "details": "Controlado por el switch",
        "params": {
          "_account": "The owner address"
        },
        "return": "_date The uploaded timestamp"
      },
      "viewMedics(address,uint256)": {
        "details": "Controlado por el switch",
        "params": {
          "_account": "The owner address"
        },
        "return": "_date The uploaded timestamp"
      },
      "viewRecords(address,string)": {
        "details": "Controlado por el switch",
        "params": {
          "_account": "The owner address"
        },
        "return": "_uploadDate The uploaded timestamp"
      }
    },
    "title": "Smart Contract de Diagnstico de pacientes - Control de Diagnstico realizado por el mdico."
  },
  "userdoc": {
    "methods": {
      "emergencyStop(bool)": {
        "notice": "Pausar el contrato Se detiene el contrato bajo ciertas condiciones. Sera til cuando nuevos errores sean descubiertos."
      },
      "extendedViewDiagnostic(address)": {
        "notice": "Returns el Diagnstico en el ndice del propietario de la direccin."
      },
      "updateDiagnostic(address,string,uint256,uint256,string,string,string[],uint256)": {
        "notice": "Returns el Diagnstico en el ndice del propietario de la direccin."
      },
      "updateRecord(address,string,string)": {
        "notice": "Returns el estudio en el ndice del propietario de la direccin."
      },
      "viewDiagnostic(address,uint256)": {
        "notice": "Returns el Diagnstico en el ndice del propietario de la direccin."
      },
      "viewMedics(address,uint256)": {
        "notice": "Returns el Medico en el ndice del propietario de la direccin."
      },
      "viewRecords(address,string)": {
        "notice": "Returns el estudio en el ndice del propietario de la direccin."
      }
    },
    "notice": "Este contrato representa el registro de un Diagnstico asociado a una persona."
  }
}