{
  "contractName": "PatientRecords",
  "abi": [
    {
      "anonymous": false,
      "inputs": [
        {
          "indexed": true,
          "internalType": "address",
          "name": "newAdm",
          "type": "address"
        },
        {
          "indexed": true,
          "internalType": "address",
          "name": "whoAddedAdm",
          "type": "address"
        }
      ],
      "name": "AdminAdded",
      "type": "event"
    },
    {
      "anonymous": false,
      "inputs": [
        {
          "indexed": true,
          "internalType": "address",
          "name": "accountRen",
          "type": "address"
        }
      ],
      "name": "AdminRenounce",
      "type": "event"
    },
    {
      "anonymous": false,
      "inputs": [
        {
          "indexed": true,
          "internalType": "address",
          "name": "newAssistant",
          "type": "address"
        },
        {
          "indexed": true,
          "internalType": "address",
          "name": "whoAddedAssistant",
          "type": "address"
        }
      ],
      "name": "AssistantAdded",
      "type": "event"
    },
    {
      "anonymous": false,
      "inputs": [
        {
          "indexed": true,
          "internalType": "address",
          "name": "oldAssistant",
          "type": "address"
        },
        {
          "indexed": true,
          "internalType": "address",
          "name": "whoRemovedAssistant",
          "type": "address"
        }
      ],
      "name": "AssistantRemoved",
      "type": "event"
    },
    {
      "anonymous": false,
      "inputs": [
        {
          "indexed": true,
          "internalType": "address",
          "name": "_admin",
          "type": "address"
        },
        {
          "indexed": false,
          "internalType": "bool",
          "name": "_stop",
          "type": "bool"
        }
      ],
      "name": "LogSwitchStop",
      "type": "event"
    },
    {
      "anonymous": false,
      "inputs": [
        {
          "indexed": true,
          "internalType": "address",
          "name": "newMed",
          "type": "address"
        },
        {
          "indexed": true,
          "internalType": "address",
          "name": "whoAddedMed",
          "type": "address"
        }
      ],
      "name": "MedicAdded",
      "type": "event"
    },
    {
      "anonymous": false,
      "inputs": [
        {
          "indexed": true,
          "internalType": "address",
          "name": "oldMed",
          "type": "address"
        },
        {
          "indexed": true,
          "internalType": "address",
          "name": "whoRemovedMed",
          "type": "address"
        }
      ],
      "name": "MedicRemoved",
      "type": "event"
    },
    {
      "anonymous": false,
      "inputs": [
        {
          "indexed": true,
          "internalType": "address",
          "name": "medRen",
          "type": "address"
        }
      ],
      "name": "MedicRenounce",
      "type": "event"
    },
    {
      "anonymous": false,
      "inputs": [
        {
          "indexed": true,
          "internalType": "address",
          "name": "_medic",
          "type": "address"
        },
        {
          "indexed": true,
          "internalType": "address",
          "name": "_admin",
          "type": "address"
        },
        {
          "indexed": false,
          "internalType": "string",
          "name": "_name",
          "type": "string"
        },
        {
          "indexed": false,
          "internalType": "string",
          "name": "_specialty",
          "type": "string"
        },
        {
          "indexed": false,
          "internalType": "string",
          "name": "_cedula",
          "type": "string"
        },
        {
          "indexed": false,
          "internalType": "string",
          "name": "_email",
          "type": "string"
        },
        {
          "indexed": false,
          "internalType": "string",
          "name": "_hashPicture",
          "type": "string"
        },
        {
          "indexed": false,
          "internalType": "uint256",
          "name": "_date",
          "type": "uint256"
        }
      ],
      "name": "MedicsAdded",
      "type": "event"
    },
    {
      "anonymous": false,
      "inputs": [
        {
          "indexed": true,
          "internalType": "address",
          "name": "_medic",
          "type": "address"
        },
        {
          "indexed": true,
          "internalType": "address",
          "name": "_admin",
          "type": "address"
        },
        {
          "indexed": false,
          "internalType": "string",
          "name": "_hashPicture",
          "type": "string"
        },
        {
          "indexed": false,
          "internalType": "uint256",
          "name": "_date",
          "type": "uint256"
        }
      ],
      "name": "MedicsDelete",
      "type": "event"
    },
    {
      "anonymous": false,
      "inputs": [
        {
          "indexed": true,
          "internalType": "address",
          "name": "_medic",
          "type": "address"
        },
        {
          "indexed": true,
          "internalType": "address",
          "name": "_admin",
          "type": "address"
        },
        {
          "indexed": false,
          "internalType": "string",
          "name": "_name",
          "type": "string"
        },
        {
          "indexed": false,
          "internalType": "string",
          "name": "_specialty",
          "type": "string"
        },
        {
          "indexed": false,
          "internalType": "string",
          "name": "_cedula",
          "type": "string"
        },
        {
          "indexed": false,
          "internalType": "string",
          "name": "_email",
          "type": "string"
        },
        {
          "indexed": false,
          "internalType": "string",
          "name": "_hashPicture",
          "type": "string"
        },
        {
          "indexed": false,
          "internalType": "uint256",
          "name": "_date",
          "type": "uint256"
        },
        {
          "indexed": false,
          "internalType": "uint256",
          "name": "_queryDate",
          "type": "uint256"
        }
      ],
      "name": "MedicsRetrieve",
      "type": "event"
    },
    {
      "anonymous": false,
      "inputs": [
        {
          "indexed": true,
          "internalType": "address",
          "name": "_medic",
          "type": "address"
        },
        {
          "indexed": true,
          "internalType": "address",
          "name": "_admin",
          "type": "address"
        },
        {
          "indexed": false,
          "internalType": "string",
          "name": "_name",
          "type": "string"
        },
        {
          "indexed": false,
          "internalType": "string",
          "name": "_specialty",
          "type": "string"
        },
        {
          "indexed": false,
          "internalType": "string",
          "name": "_cedula",
          "type": "string"
        },
        {
          "indexed": false,
          "internalType": "string",
          "name": "_email",
          "type": "string"
        },
        {
          "indexed": false,
          "internalType": "string",
          "name": "_hashPicture",
          "type": "string"
        },
        {
          "indexed": false,
          "internalType": "uint256",
          "name": "_date",
          "type": "uint256"
        },
        {
          "indexed": false,
          "internalType": "uint256",
          "name": "_queryDate",
          "type": "uint256"
        }
      ],
      "name": "MedicsUpdate",
      "type": "event"
    },
    {
      "anonymous": false,
      "inputs": [
        {
          "indexed": false,
          "internalType": "string",
          "name": "_hash",
          "type": "string"
        }
      ],
      "name": "NewMedicRecord",
      "type": "event"
    },
    {
      "anonymous": false,
      "inputs": [
        {
          "indexed": true,
          "internalType": "address",
          "name": "newPat",
          "type": "address"
        },
        {
          "indexed": true,
          "internalType": "address",
          "name": "whoAddedPat",
          "type": "address"
        }
      ],
      "name": "PatientAdded",
      "type": "event"
    },
    {
      "anonymous": false,
      "inputs": [
        {
          "indexed": true,
          "internalType": "address",
          "name": "oldPat",
          "type": "address"
        },
        {
          "indexed": true,
          "internalType": "address",
          "name": "whoRemovedPat",
          "type": "address"
        }
      ],
      "name": "PatientRemoved",
      "type": "event"
    },
    {
      "anonymous": false,
      "inputs": [
        {
          "indexed": true,
          "internalType": "address",
          "name": "_patient",
          "type": "address"
        },
        {
          "indexed": true,
          "internalType": "address",
          "name": "_medic",
          "type": "address"
        },
        {
          "indexed": false,
          "internalType": "string",
          "name": "_ipfsHash",
          "type": "string"
        }
      ],
      "name": "RecordAdded",
      "type": "event"
    },
    {
      "anonymous": false,
      "inputs": [
        {
          "indexed": true,
          "internalType": "address",
          "name": "_patient",
          "type": "address"
        },
        {
          "indexed": true,
          "internalType": "address",
          "name": "_medic",
          "type": "address"
        },
        {
          "indexed": false,
          "internalType": "string",
          "name": "_ipfsHash",
          "type": "string"
        }
      ],
      "name": "RecordDelete",
      "type": "event"
    },
    {
      "anonymous": false,
      "inputs": [
        {
          "indexed": true,
          "internalType": "address",
          "name": "_patient",
          "type": "address"
        },
        {
          "indexed": true,
          "internalType": "address",
          "name": "_medic",
          "type": "address"
        },
        {
          "indexed": false,
          "internalType": "string",
          "name": "_descript",
          "type": "string"
        },
        {
          "indexed": false,
          "internalType": "uint256",
          "name": "_uploadDate",
          "type": "uint256"
        }
      ],
      "name": "RecordRetrieve",
      "type": "event"
    },
    {
      "anonymous": false,
      "inputs": [
        {
          "indexed": true,
          "internalType": "address",
          "name": "_patient",
          "type": "address"
        },
        {
          "indexed": true,
          "internalType": "address",
          "name": "_medic",
          "type": "address"
        },
        {
          "indexed": false,
          "internalType": "string",
          "name": "_descript",
          "type": "string"
        }
      ],
      "name": "RecordUpdate",
      "type": "event"
    },
    {
      "anonymous": false,
      "inputs": [
        {
          "indexed": false,
          "internalType": "string",
          "name": "_hash",
          "type": "string"
        }
      ],
      "name": "RemoveMedicRecord",
      "type": "event"
    },
    {
      "constant": false,
      "inputs": [
        {
          "internalType": "address",
          "name": "account",
          "type": "address"
        }
      ],
      "name": "addAdmin",
      "outputs": [],
      "payable": false,
      "stateMutability": "nonpayable",
      "type": "function"
    },
    {
      "constant": false,
      "inputs": [
        {
          "internalType": "address",
          "name": "account",
          "type": "address"
        }
      ],
      "name": "addAssistant",
      "outputs": [],
      "payable": false,
      "stateMutability": "nonpayable",
      "type": "function"
    },
    {
      "constant": false,
      "inputs": [
        {
          "internalType": "address",
          "name": "account",
          "type": "address"
        }
      ],
      "name": "addMedic",
      "outputs": [],
      "payable": false,
      "stateMutability": "nonpayable",
      "type": "function"
    },
    {
      "constant": false,
      "inputs": [
        {
          "internalType": "string",
          "name": "_hashString",
          "type": "string"
        }
      ],
      "name": "addMedicRecord",
      "outputs": [],
      "payable": false,
      "stateMutability": "nonpayable",
      "type": "function"
    },
    {
      "constant": false,
      "inputs": [
        {
          "internalType": "address",
          "name": "_account",
          "type": "address"
        },
        {
          "internalType": "string",
          "name": "_name",
          "type": "string"
        },
        {
          "internalType": "string",
          "name": "_specialty",
          "type": "string"
        },
        {
          "internalType": "string",
          "name": "_cedula",
          "type": "string"
        },
        {
          "internalType": "string",
          "name": "_email",
          "type": "string"
        },
        {
          "internalType": "string",
          "name": "_hashPicture",
          "type": "string"
        }
      ],
      "name": "addMedics",
      "outputs": [
        {
          "internalType": "bool",
          "name": "_success",
          "type": "bool"
        }
      ],
      "payable": false,
      "stateMutability": "nonpayable",
      "type": "function"
    },
    {
      "constant": false,
      "inputs": [
        {
          "internalType": "address",
          "name": "account",
          "type": "address"
        }
      ],
      "name": "addPatient",
      "outputs": [],
      "payable": false,
      "stateMutability": "nonpayable",
      "type": "function"
    },
    {
      "constant": false,
      "inputs": [
        {
          "internalType": "address",
          "name": "_account",
          "type": "address"
        },
        {
          "internalType": "uint256",
          "name": "_date",
          "type": "uint256"
        }
      ],
      "name": "deleteMedics",
      "outputs": [
        {
          "internalType": "bool",
          "name": "_success",
          "type": "bool"
        }
      ],
      "payable": false,
      "stateMutability": "nonpayable",
      "type": "function"
    },
    {
      "constant": true,
      "inputs": [
        {
          "internalType": "address",
          "name": "",
          "type": "address"
        },
        {
          "internalType": "uint256",
          "name": "",
          "type": "uint256"
        }
      ],
      "name": "fileToMedic",
      "outputs": [
        {
          "internalType": "string",
          "name": "name",
          "type": "string"
        },
        {
          "internalType": "string",
          "name": "specialty",
          "type": "string"
        },
        {
          "internalType": "string",
          "name": "cedula",
          "type": "string"
        },
        {
          "internalType": "string",
          "name": "email",
          "type": "string"
        },
        {
          "internalType": "string",
          "name": "hashPicture",
          "type": "string"
        },
        {
          "internalType": "uint256",
          "name": "date",
          "type": "uint256"
        }
      ],
      "payable": false,
      "stateMutability": "view",
      "type": "function"
    },
    {
      "constant": true,
      "inputs": [],
      "name": "getPendingLength",
      "outputs": [
        {
          "internalType": "uint256",
          "name": "count",
          "type": "uint256"
        }
      ],
      "payable": false,
      "stateMutability": "view",
      "type": "function"
    },
    {
      "constant": true,
      "inputs": [
        {
          "internalType": "uint32",
          "name": "_index",
          "type": "uint32"
        }
      ],
      "name": "getPendingRequest",
      "outputs": [
        {
          "internalType": "string",
          "name": "_hashString",
          "type": "string"
        }
      ],
      "payable": false,
      "stateMutability": "view",
      "type": "function"
    },
    {
      "constant": true,
      "inputs": [
        {
          "internalType": "address",
          "name": "account",
          "type": "address"
        }
      ],
      "name": "isAdmin",
      "outputs": [
        {
          "internalType": "bool",
          "name": "",
          "type": "bool"
        }
      ],
      "payable": false,
      "stateMutability": "view",
      "type": "function"
    },
    {
      "constant": true,
      "inputs": [
        {
          "internalType": "address",
          "name": "account",
          "type": "address"
        }
      ],
      "name": "isAssistant",
      "outputs": [
        {
          "internalType": "bool",
          "name": "",
          "type": "bool"
        }
      ],
      "payable": false,
      "stateMutability": "view",
      "type": "function"
    },
    {
      "constant": true,
      "inputs": [
        {
          "internalType": "address",
          "name": "account",
          "type": "address"
        }
      ],
      "name": "isMedic",
      "outputs": [
        {
          "internalType": "bool",
          "name": "",
          "type": "bool"
        }
      ],
      "payable": false,
      "stateMutability": "view",
      "type": "function"
    },
    {
      "constant": true,
      "inputs": [
        {
          "internalType": "address",
          "name": "account",
          "type": "address"
        }
      ],
      "name": "isPatient",
      "outputs": [
        {
          "internalType": "bool",
          "name": "",
          "type": "bool"
        }
      ],
      "payable": false,
      "stateMutability": "view",
      "type": "function"
    },
    {
      "constant": true,
      "inputs": [
        {
          "internalType": "uint256",
          "name": "",
          "type": "uint256"
        }
      ],
      "name": "medicPending",
      "outputs": [
        {
          "internalType": "string",
          "name": "",
          "type": "string"
        }
      ],
      "payable": false,
      "stateMutability": "view",
      "type": "function"
    },
    {
      "constant": false,
      "inputs": [
        {
          "internalType": "address",
          "name": "account",
          "type": "address"
        }
      ],
      "name": "removeAssistant",
      "outputs": [],
      "payable": false,
      "stateMutability": "nonpayable",
      "type": "function"
    },
    {
      "constant": false,
      "inputs": [
        {
          "internalType": "address",
          "name": "account",
          "type": "address"
        }
      ],
      "name": "removeMedic",
      "outputs": [],
      "payable": false,
      "stateMutability": "nonpayable",
      "type": "function"
    },
    {
      "constant": false,
      "inputs": [
        {
          "internalType": "address",
          "name": "account",
          "type": "address"
        }
      ],
      "name": "removePatient",
      "outputs": [],
      "payable": false,
      "stateMutability": "nonpayable",
      "type": "function"
    },
    {
      "constant": false,
      "inputs": [
        {
          "internalType": "uint32",
          "name": "_index",
          "type": "uint32"
        }
      ],
      "name": "removePending",
      "outputs": [
        {
          "internalType": "bool",
          "name": "success",
          "type": "bool"
        }
      ],
      "payable": false,
      "stateMutability": "nonpayable",
      "type": "function"
    },
    {
      "constant": false,
      "inputs": [],
      "name": "renounceAdmin",
      "outputs": [],
      "payable": false,
      "stateMutability": "nonpayable",
      "type": "function"
    },
    {
      "constant": false,
      "inputs": [],
      "name": "renounceMedic",
      "outputs": [],
      "payable": false,
      "stateMutability": "nonpayable",
      "type": "function"
    },
    {
      "constant": false,
      "inputs": [
        {
          "internalType": "address",
          "name": "_account",
          "type": "address"
        },
        {
          "internalType": "string",
          "name": "_name",
          "type": "string"
        },
        {
          "internalType": "string",
          "name": "_specialty",
          "type": "string"
        },
        {
          "internalType": "string",
          "name": "_cedula",
          "type": "string"
        },
        {
          "internalType": "string",
          "name": "_email",
          "type": "string"
        },
        {
          "internalType": "string",
          "name": "_hashPicture",
          "type": "string"
        },
        {
          "internalType": "uint256",
          "name": "_date",
          "type": "uint256"
        }
      ],
      "name": "updateMedics",
      "outputs": [
        {
          "internalType": "bool",
          "name": "_success",
          "type": "bool"
        }
      ],
      "payable": false,
      "stateMutability": "nonpayable",
      "type": "function"
    },
    {
      "constant": false,
      "inputs": [
        {
          "internalType": "address",
          "name": "_account",
          "type": "address"
        },
        {
          "internalType": "uint256",
          "name": "_date",
          "type": "uint256"
        }
      ],
      "name": "viewMedics",
      "outputs": [
        {
          "internalType": "string",
          "name": "name",
          "type": "string"
        },
        {
          "internalType": "string",
          "name": "specialty",
          "type": "string"
        },
        {
          "internalType": "string",
          "name": "cedula",
          "type": "string"
        },
        {
          "internalType": "string",
          "name": "email",
          "type": "string"
        },
        {
          "internalType": "string",
          "name": "hashPicture",
          "type": "string"
        }
      ],
      "payable": false,
      "stateMutability": "nonpayable",
      "type": "function"
    },
    {
      "constant": false,
      "inputs": [
        {
          "internalType": "bool",
          "name": "_stop",
          "type": "bool"
        }
      ],
      "name": "emergencyStop",
      "outputs": [],
      "payable": false,
      "stateMutability": "nonpayable",
      "type": "function"
    },
    {
      "constant": false,
      "inputs": [
        {
          "internalType": "address",
          "name": "_account",
          "type": "address"
        },
        {
          "internalType": "string",
          "name": "_descript",
          "type": "string"
        },
        {
          "internalType": "string",
          "name": "_ipfsHash",
          "type": "string"
        }
      ],
      "name": "addRecord",
      "outputs": [
        {
          "internalType": "bool",
          "name": "_success",
          "type": "bool"
        }
      ],
      "payable": false,
      "stateMutability": "nonpayable",
      "type": "function"
    },
    {
      "constant": false,
      "inputs": [
        {
          "internalType": "address",
          "name": "_account",
          "type": "address"
        },
        {
          "internalType": "string",
          "name": "_ipfsHash",
          "type": "string"
        }
      ],
      "name": "viewRecords",
      "outputs": [
        {
          "internalType": "string",
          "name": "_descript",
          "type": "string"
        },
        {
          "internalType": "uint256",
          "name": "_uploadDate",
          "type": "uint256"
        }
      ],
      "payable": false,
      "stateMutability": "nonpayable",
      "type": "function"
    },
    {
      "constant": false,
      "inputs": [
        {
          "internalType": "address",
          "name": "_account",
          "type": "address"
        },
        {
          "internalType": "string",
          "name": "_descript",
          "type": "string"
        },
        {
          "internalType": "string",
          "name": "_ipfsHash",
          "type": "string"
        }
      ],
      "name": "updateRecord",
      "outputs": [
        {
          "internalType": "bool",
          "name": "_success",
          "type": "bool"
        }
      ],
      "payable": false,
      "stateMutability": "nonpayable",
      "type": "function"
    },
    {
      "constant": false,
      "inputs": [
        {
          "internalType": "address",
          "name": "_account",
          "type": "address"
        },
        {
          "internalType": "string",
          "name": "_ipfsHash",
          "type": "string"
        }
      ],
      "name": "deleteRecord",
      "outputs": [
        {
          "internalType": "bool",
          "name": "_success",
          "type": "bool"
        }
      ],
      "payable": false,
      "stateMutability": "nonpayable",
      "type": "function"
    }
  ],
  "bytecode": "0x60806040526000600560006101000a81548160ff0219169083151502179055506000600860006101000a81548160ff0219169083151502179055506200004b336200005160201b60201c565b6200028d565b6200006c816000620000c960201b62004ea61790919060201c565b3373ffffffffffffffffffffffffffffffffffffffff168173ffffffffffffffffffffffffffffffffffffffff167fbf3f493c772c8c283fd124432c2d0f539ab343faa04258fe88e52912d36b102b60405160405180910390a350565b620000db8282620001ad60201b60201c565b156200014f576040517f08c379a000000000000000000000000000000000000000000000000000000000815260040180806020018281038252601f8152602001807f526f6c65733a206163636f756e7420616c72656164792068617320726f6c650081525060200191505060405180910390fd5b60018260000160008373ffffffffffffffffffffffffffffffffffffffff1673ffffffffffffffffffffffffffffffffffffffff16815260200190815260200160002060006101000a81548160ff0219169083151502179055505050565b60008073ffffffffffffffffffffffffffffffffffffffff168273ffffffffffffffffffffffffffffffffffffffff16141562000236576040517f08c379a0000000000000000000000000000000000000000000000000000000008152600401808060200182810382526022815260200180620055c26022913960400191505060405180910390fd5b8260000160008373ffffffffffffffffffffffffffffffffffffffff1673ffffffffffffffffffffffffffffffffffffffff16815260200190815260200160002060009054906101000a900460ff16905092915050565b615325806200029d6000396000f3fe608060405234801561001057600080fd5b50600436106101c45760003560e01c80638bad0c0a116100f9578063beea194b11610097578063d6aac86911610071578063d6aac86914611097578063e765e73514611315578063ea04f68f14611664578063eae3ef8a146118db576101c4565b8063beea194b14610e65578063c6584bb814610eb1578063d47b41d514610f0d576101c4565b80639b2ae4c6116100d35780639b2ae4c614610c35578063a1f23f1914610c53578063b0397ff814610ddd578063b8792f0b14610e21576101c4565b80638bad0c0a14610adc5780638c406f2e14610ae65780638f9c79ed14610bd9576101c4565b80635acec4ab116101665780636d263ceb116101405780636d263ceb146109cc5780637048027514610a105780637d01dbc214610a545780637d0d625714610a98576101c4565b80635acec4ab146105825780635c8b67df1461062f57806362499d5c14610673576101c4565b806333dc0abd116101a257806333dc0abd146102bb57806347d96cb1146102c5578063510b2f611461036c5780635995fd0014610427576101c4565b80630ac62e02146101c957806324d7806c146101f95780633364587414610255575b600080fd5b6101f7600480360360208110156101df57600080fd5b81019080803515159060200190929190505050611937565b005b61023b6004803603602081101561020f57600080fd5b81019080803573ffffffffffffffffffffffffffffffffffffffff169060200190929190505050611a04565b604051808215151515815260200191505060405180910390f35b6102a16004803603604081101561026b57600080fd5b81019080803573ffffffffffffffffffffffffffffffffffffffff16906020019092919080359060200190929190505050611a21565b604051808215151515815260200191505060405180910390f35b6102c3611dfc565b005b6102f1600480360360208110156102db57600080fd5b8101908080359060200190929190505050611e65565b6040518080602001828103825283818151815260200191508051906020019080838360005b83811015610331578082015181840152602081019050610316565b50505050905090810190601f16801561035e5780820380516001836020036101000a031916815260200191505b509250505060405180910390f35b6104256004803603602081101561038257600080fd5b810190808035906020019064010000000081111561039f57600080fd5b8201836020820111156103b157600080fd5b803590602001918460018302840111640100000000831117156103d357600080fd5b91908080601f016020809104026020016040519081016040528093929190818152602001838380828437600081840152601f19601f820116905080830192505050505050509192919290505050611f1e565b005b6105006004803603604081101561043d57600080fd5b81019080803573ffffffffffffffffffffffffffffffffffffffff1690602001909291908035906020019064010000000081111561047a57600080fd5b82018360208201111561048c57600080fd5b803590602001918460018302840111640100000000831117156104ae57600080fd5b91908080601f016020809104026020016040519081016040528093929190818152602001838380828437600081840152601f19601f820116905080830192505050505050509192919290505050611ffc565b6040518080602001838152602001828103825284818151815260200191508051906020019080838360005b8381101561054657808201518184015260208101905061052b565b50505050905090810190601f1680156105735780820380516001836020036101000a031916815260200191505b50935050505060405180910390f35b6105b46004803603602081101561059857600080fd5b81019080803563ffffffff1690602001909291905050506122ea565b6040518080602001828103825283818151815260200191508051906020019080838360005b838110156105f45780820151818401526020810190506105d9565b50505050905090810190601f1680156106215780820380516001836020036101000a031916815260200191505b509250505060405180910390f35b6106716004803603602081101561064557600080fd5b81019080803573ffffffffffffffffffffffffffffffffffffffff1690602001909291905050506123a9565b005b6109b2600480360360e081101561068957600080fd5b81019080803573ffffffffffffffffffffffffffffffffffffffff169060200190929190803590602001906401000000008111156106c657600080fd5b8201836020820111156106d857600080fd5b803590602001918460018302840111640100000000831117156106fa57600080fd5b91908080601f016020809104026020016040519081016040528093929190818152602001838380828437600081840152601f19601f8201169050808301925050505050505091929192908035906020019064010000000081111561075d57600080fd5b82018360208201111561076f57600080fd5b8035906020019184600183028401116401000000008311171561079157600080fd5b91908080601f016020809104026020016040519081016040528093929190818152602001838380828437600081840152601f19601f820116905080830192505050505050509192919290803590602001906401000000008111156107f457600080fd5b82018360208201111561080657600080fd5b8035906020019184600183028401116401000000008311171561082857600080fd5b91908080601f016020809104026020016040519081016040528093929190818152602001838380828437600081840152601f19601f8201169050808301925050505050505091929192908035906020019064010000000081111561088b57600080fd5b82018360208201111561089d57600080fd5b803590602001918460018302840111640100000000831117156108bf57600080fd5b91908080601f016020809104026020016040519081016040528093929190818152602001838380828437600081840152601f19601f8201169050808301925050505050505091929192908035906020019064010000000081111561092257600080fd5b82018360208201111561093457600080fd5b8035906020019184600183028401116401000000008311171561095657600080fd5b91908080601f016020809104026020016040519081016040528093929190818152602001838380828437600081840152601f19601f82011690508083019250505050505050919291929080359060200190929190505050612413565b604051808215151515815260200191505060405180910390f35b610a0e600480360360208110156109e257600080fd5b81019080803573ffffffffffffffffffffffffffffffffffffffff169060200190929190505050612c65565b005b610a5260048036036020811015610a2657600080fd5b81019080803573ffffffffffffffffffffffffffffffffffffffff169060200190929190505050612c71565b005b610a9660048036036020811015610a6a57600080fd5b81019080803573ffffffffffffffffffffffffffffffffffffffff169060200190929190505050612cdb565b005b610ada60048036036020811015610aae57600080fd5b81019080803573ffffffffffffffffffffffffffffffffffffffff169060200190929190505050612d45565b005b610ae4612daf565b005b610bbf60048036036040811015610afc57600080fd5b81019080803573ffffffffffffffffffffffffffffffffffffffff16906020019092919080359060200190640100000000811115610b3957600080fd5b820183602082011115610b4b57600080fd5b80359060200191846001830284011164010000000083111715610b6d57600080fd5b91908080601f016020809104026020016040519081016040528093929190818152602001838380828437600081840152601f19601f820116905080830192505050505050509192919290505050612dba565b604051808215151515815260200191505060405180910390f35b610c1b60048036036020811015610bef57600080fd5b81019080803573ffffffffffffffffffffffffffffffffffffffff169060200190929190505050612fd4565b604051808215151515815260200191505060405180910390f35b610c3d612ff1565b6040518082815260200191505060405180910390f35b610dc360048036036060811015610c6957600080fd5b81019080803573ffffffffffffffffffffffffffffffffffffffff16906020019092919080359060200190640100000000811115610ca657600080fd5b820183602082011115610cb857600080fd5b80359060200191846001830284011164010000000083111715610cda57600080fd5b91908080601f016020809104026020016040519081016040528093929190818152602001838380828437600081840152601f19601f82011690508083019250505050505050919291929080359060200190640100000000811115610d3d57600080fd5b820183602082011115610d4f57600080fd5b80359060200191846001830284011164010000000083111715610d7157600080fd5b91908080601f016020809104026020016040519081016040528093929190818152602001838380828437600081840152601f19601f820116905080830192505050505050509192919290505050612ffe565b604051808215151515815260200191505060405180910390f35b610e1f60048036036020811015610df357600080fd5b81019080803573ffffffffffffffffffffffffffffffffffffffff1690602001909291905050506132dc565b005b610e6360048036036020811015610e3757600080fd5b81019080803573ffffffffffffffffffffffffffffffffffffffff169060200190929190505050613346565b005b610e9760048036036020811015610e7b57600080fd5b81019080803563ffffffff1690602001909291905050506133b0565b604051808215151515815260200191505060405180910390f35b610ef360048036036020811015610ec757600080fd5b81019080803573ffffffffffffffffffffffffffffffffffffffff1690602001909291905050506135ea565b604051808215151515815260200191505060405180910390f35b61107d60048036036060811015610f2357600080fd5b81019080803573ffffffffffffffffffffffffffffffffffffffff16906020019092919080359060200190640100000000811115610f6057600080fd5b820183602082011115610f7257600080fd5b80359060200191846001830284011164010000000083111715610f9457600080fd5b91908080601f016020809104026020016040519081016040528093929190818152602001838380828437600081840152601f19601f82011690508083019250505050505050919291929080359060200190640100000000811115610ff757600080fd5b82018360208201111561100957600080fd5b8035906020019184600183028401116401000000008311171561102b57600080fd5b91908080601f016020809104026020016040519081016040528093929190818152602001838380828437600081840152601f19601f820116905080830192505050505050509192919290505050613607565b604051808215151515815260200191505060405180910390f35b6110e3600480360360408110156110ad57600080fd5b81019080803573ffffffffffffffffffffffffffffffffffffffff16906020019092919080359060200190929190505050613879565b60405180806020018060200180602001806020018060200187815260200186810386528c818151815260200191508051906020019080838360005b8381101561113957808201518184015260208101905061111e565b50505050905090810190601f1680156111665780820380516001836020036101000a031916815260200191505b5086810385528b818151815260200191508051906020019080838360005b8381101561119f578082015181840152602081019050611184565b50505050905090810190601f1680156111cc5780820380516001836020036101000a031916815260200191505b5086810384528a818151815260200191508051906020019080838360005b838110156112055780820151818401526020810190506111ea565b50505050905090810190601f1680156112325780820380516001836020036101000a031916815260200191505b50868103835289818151815260200191508051906020019080838360005b8381101561126b578082015181840152602081019050611250565b50505050905090810190601f1680156112985780820380516001836020036101000a031916815260200191505b50868103825288818151815260200191508051906020019080838360005b838110156112d15780820151818401526020810190506112b6565b50505050905090810190601f1680156112fe5780820380516001836020036101000a031916815260200191505b509b50505050505050505050505060405180910390f35b61164a600480360360c081101561132b57600080fd5b81019080803573ffffffffffffffffffffffffffffffffffffffff1690602001909291908035906020019064010000000081111561136857600080fd5b82018360208201111561137a57600080fd5b8035906020019184600183028401116401000000008311171561139c57600080fd5b91908080601f016020809104026020016040519081016040528093929190818152602001838380828437600081840152601f19601f820116905080830192505050505050509192919290803590602001906401000000008111156113ff57600080fd5b82018360208201111561141157600080fd5b8035906020019184600183028401116401000000008311171561143357600080fd5b91908080601f016020809104026020016040519081016040528093929190818152602001838380828437600081840152601f19601f8201169050808301925050505050505091929192908035906020019064010000000081111561149657600080fd5b8201836020820111156114a857600080fd5b803590602001918460018302840111640100000000831117156114ca57600080fd5b91908080601f016020809104026020016040519081016040528093929190818152602001838380828437600081840152601f19601f8201169050808301925050505050505091929192908035906020019064010000000081111561152d57600080fd5b82018360208201111561153f57600080fd5b8035906020019184600183028401116401000000008311171561156157600080fd5b91908080601f016020809104026020016040519081016040528093929190818152602001838380828437600081840152601f19601f820116905080830192505050505050509192919290803590602001906401000000008111156115c457600080fd5b8201836020820111156115d657600080fd5b803590602001918460018302840111640100000000831117156115f857600080fd5b91908080601f016020809104026020016040519081016040528093929190818152602001838380828437600081840152601f19601f820116905080830192505050505050509192919290505050613bc7565b604051808215151515815260200191505060405180910390f35b6116b06004803603604081101561167a57600080fd5b81019080803573ffffffffffffffffffffffffffffffffffffffff1690602001909291908035906020019092919050505061409c565b60405180806020018060200180602001806020018060200186810386528b818151815260200191508051906020019080838360005b838110156117005780820151818401526020810190506116e5565b50505050905090810190601f16801561172d5780820380516001836020036101000a031916815260200191505b5086810385528a818151815260200191508051906020019080838360005b8381101561176657808201518184015260208101905061174b565b50505050905090810190601f1680156117935780820380516001836020036101000a031916815260200191505b50868103845289818151815260200191508051906020019080838360005b838110156117cc5780820151818401526020810190506117b1565b50505050905090810190601f1680156117f95780820380516001836020036101000a031916815260200191505b50868103835288818151815260200191508051906020019080838360005b83811015611832578082015181840152602081019050611817565b50505050905090810190601f16801561185f5780820380516001836020036101000a031916815260200191505b50868103825287818151815260200191508051906020019080838360005b8381101561189857808201518184015260208101905061187d565b50505050905090810190601f1680156118c55780820380516001836020036101000a031916815260200191505b509a505050505050505050505060405180910390f35b61191d600480360360208110156118f157600080fd5b81019080803573ffffffffffffffffffffffffffffffffffffffff1690602001909291905050506148dd565b604051808215151515815260200191505060405180910390f35b61194033611a04565b611995576040517f08c379a000000000000000000000000000000000000000000000000000000000815260040180806020018281038252602b81526020018061528e602b913960400191505060405180910390fd5b80600860006101000a81548160ff0219169083151502179055503373ffffffffffffffffffffffffffffffffffffffff167f58b15338e6499b2b2827d169f60332c3b4b476fcd06b9a3c7e37afa77c49228e82604051808215151515815260200191505060405180910390a250565b6000611a1a8260006148fa90919063ffffffff16565b9050919050565b6000600860009054906101000a900460ff1615611a3d57600080fd5b611a4633611a04565b611a9b576040517f08c379a000000000000000000000000000000000000000000000000000000000815260040180806020018281038252602b81526020018061528e602b913960400191505060405180910390fd5b600073ffffffffffffffffffffffffffffffffffffffff168373ffffffffffffffffffffffffffffffffffffffff161415611ad557600080fd5b60008210158015611b0657507fffffffffffffffffffffffffffffffffffffffffffffffffffffffffffffffff8211155b611b0f57600080fd5b6000600460008573ffffffffffffffffffffffffffffffffffffffff1673ffffffffffffffffffffffffffffffffffffffff1681526020019081526020016000208054905011611b5e57600080fd5b60004290506000611b6e856149d8565b905060008090505b81811015611def5784600460008873ffffffffffffffffffffffffffffffffffffffff1673ffffffffffffffffffffffffffffffffffffffff1681526020019081526020016000208281548110611bc957fe5b9060005260206000209060060201600501541415611de2573373ffffffffffffffffffffffffffffffffffffffff168673ffffffffffffffffffffffffffffffffffffffff167f1977237b5f2ef5422b52998d1f30b1e788c1c890c07a074c7856db9bc6d2ccc2600460008a73ffffffffffffffffffffffffffffffffffffffff1673ffffffffffffffffffffffffffffffffffffffff1681526020019081526020016000208481548110611c7a57fe5b9060005260206000209060060201600401866040518080602001838152602001828103825284818154600181600116156101000203166002900481526020019150805460018160011615610100020316600290048015611d1b5780601f10611cf057610100808354040283529160200191611d1b565b820191906000526020600020905b815481529060010190602001808311611cfe57829003601f168201915b5050935050505060405180910390a3600460008773ffffffffffffffffffffffffffffffffffffffff1673ffffffffffffffffffffffffffffffffffffffff1681526020019081526020016000208181548110611d7457fe5b906000526020600020906006020160008082016000611d939190614f81565b600182016000611da39190614f81565b600282016000611db39190614f81565b600382016000611dc39190614f81565b600482016000611dd39190614f81565b60058201600090555050611def565b8080600101915050611b76565b5060019250505092915050565b611e05336148dd565b611e5a576040517f08c379a000000000000000000000000000000000000000000000000000000000815260040180806020018281038252602d81526020018061521e602d913960400191505060405180910390fd5b611e6333614a78565b565b60068181548110611e7257fe5b906000526020600020016000915090508054600181600116156101000203166002900480601f016020809104026020016040519081016040528092919081815260200182805460018160011615610100020316600290048015611f165780601f10611eeb57610100808354040283529160200191611f16565b820191906000526020600020905b815481529060010190602001808311611ef957829003601f168201915b505050505081565b6006819080600181540180825580915050906001820390600052602060002001600090919290919091509080519060200190611f5b929190614fc9565b50507fda8ad9477ca7c92626705474e6194137fbe13627f4f72e07c6d8411bf7c7a1f0816040518080602001828103825283818151815260200191508051906020019080838360005b83811015611fbf578082015181840152602081019050611fa4565b50505050905090810190601f168015611fec5780820380516001836020036101000a031916815260200191505b509250505060405180910390a150565b60606000600860009054906101000a900460ff161561201a57600080fd5b61202333612fd4565b806120335750612032336148dd565b5b612088576040517f08c379a00000000000000000000000000000000000000000000000000000000081526004018080602001828103825260388152602001806152b96038913960400191505060405180910390fd5b600073ffffffffffffffffffffffffffffffffffffffff168473ffffffffffffffffffffffffffffffffffffffff1614156120c257600080fd5b602e8351146120d057600080fd5b6120d8615049565b6007846040518082805190602001908083835b6020831061210e57805182526020820191506020810190506020830392506120eb565b6001836020036101000a0380198251168184511680821785525050505050509050019150509081526020016040518091039020604051806040016040529081600082018054600181600116156101000203166002900480601f0160208091040260200160405190810160405280929190818152602001828054600181600116156101000203166002900480156121e55780601f106121ba576101008083540402835291602001916121e5565b820191906000526020600020905b8154815290600101906020018083116121c857829003601f168201915b5050505050815260200160018201548152505090503373ffffffffffffffffffffffffffffffffffffffff168573ffffffffffffffffffffffffffffffffffffffff167f4ee0bf4d8ed0ec027f6654b0ba0995ae922f70b4f3bdbc0ff59c0a7dbd5491c6836000015184602001516040518080602001838152602001828103825284818151815260200191508051906020019080838360005b8381101561229957808201518184015260208101905061227e565b50505050905090810190601f1680156122c65780820380516001836020036101000a031916815260200191505b50935050505060405180910390a38060000151925080602001519150509250929050565b606060068263ffffffff16815481106122ff57fe5b906000526020600020018054600181600116156101000203166002900480601f01602080910402602001604051908101604052809291908181526020018280546001816001161561010002031660029004801561239d5780601f106123725761010080835404028352916020019161239d565b820191906000526020600020905b81548152906001019060200180831161238057829003601f168201915b50505050509050919050565b6123b233611a04565b612407576040517f08c379a000000000000000000000000000000000000000000000000000000000815260040180806020018281038252602b81526020018061528e602b913960400191505060405180910390fd5b61241081614ae9565b50565b6000600860009054906101000a900460ff161561242f57600080fd5b61243833611a04565b61248d576040517f08c379a000000000000000000000000000000000000000000000000000000000815260040180806020018281038252602b81526020018061528e602b913960400191505060405180910390fd5b600073ffffffffffffffffffffffffffffffffffffffff168873ffffffffffffffffffffffffffffffffffffffff1614156124c757600080fd5b60808751106124d557600080fd5b601e8651106124e357600080fd5b601e8551106124f157600080fd5b601e8451106124ff57600080fd5b601e83511061250d57600080fd5b6000821015801561253e57507fffffffffffffffffffffffffffffffffffffffffffffffffffffffffffffffff8211155b61254757600080fd5b6000600460008a73ffffffffffffffffffffffffffffffffffffffff1673ffffffffffffffffffffffffffffffffffffffff168152602001908152602001600020805490501161259657600080fd5b600042905060006125a68a6149d8565b90506125b0615063565b60008090505b8281101561297557600460008d73ffffffffffffffffffffffffffffffffffffffff1673ffffffffffffffffffffffffffffffffffffffff168152602001908152602001600020818154811061260857fe5b90600052602060002090600602016040518060c0016040529081600082018054600181600116156101000203166002900480601f0160208091040260200160405190810160405280929190818152602001828054600181600116156101000203166002900480156126ba5780601f1061268f576101008083540402835291602001916126ba565b820191906000526020600020905b81548152906001019060200180831161269d57829003601f168201915b50505050508152602001600182018054600181600116156101000203166002900480601f01602080910402602001604051908101604052809291908181526020018280546001816001161561010002031660029004801561275c5780601f106127315761010080835404028352916020019161275c565b820191906000526020600020905b81548152906001019060200180831161273f57829003601f168201915b50505050508152602001600282018054600181600116156101000203166002900480601f0160208091040260200160405190810160405280929190818152602001828054600181600116156101000203166002900480156127fe5780601f106127d3576101008083540402835291602001916127fe565b820191906000526020600020905b8154815290600101906020018083116127e157829003601f168201915b50505050508152602001600382018054600181600116156101000203166002900480601f0160208091040260200160405190810160405280929190818152602001828054600181600116156101000203166002900480156128a05780601f10612875576101008083540402835291602001916128a0565b820191906000526020600020905b81548152906001019060200180831161288357829003601f168201915b50505050508152602001600482018054600181600116156101000203166002900480601f0160208091040260200160405190810160405280929190818152602001828054600181600116156101000203166002900480156129425780601f1061291757610100808354040283529160200191612942565b820191906000526020600020905b81548152906001019060200180831161292557829003601f168201915b505050505081526020016005820154815250509150858260a00151141561296857612975565b80806001019150506125b6565b50898160000181905250888160200181905250878160400181905250868160600181905250858160800181905250848160a00181815250503373ffffffffffffffffffffffffffffffffffffffff168b73ffffffffffffffffffffffffffffffffffffffff167f30990cdc5872ccbf411335c8ed18c1622ddeafe254b87f4ab281a8536fdc105d836000015184602001518560400151866060015187608001518860a001518b60405180806020018060200180602001806020018060200188815260200187815260200186810386528d818151815260200191508051906020019080838360005b83811015612a77578082015181840152602081019050612a5c565b50505050905090810190601f168015612aa45780820380516001836020036101000a031916815260200191505b5086810385528c818151815260200191508051906020019080838360005b83811015612add578082015181840152602081019050612ac2565b50505050905090810190601f168015612b0a5780820380516001836020036101000a031916815260200191505b5086810384528b818151815260200191508051906020019080838360005b83811015612b43578082015181840152602081019050612b28565b50505050905090810190601f168015612b705780820380516001836020036101000a031916815260200191505b5086810383528a818151815260200191508051906020019080838360005b83811015612ba9578082015181840152602081019050612b8e565b50505050905090810190601f168015612bd65780820380516001836020036101000a031916815260200191505b50868103825289818151815260200191508051906020019080838360005b83811015612c0f578082015181840152602081019050612bf4565b50505050905090810190601f168015612c3c5780820380516001836020036101000a031916815260200191505b509c5050505050505050505050505060405180910390a360019350505050979650505050505050565b612c6e81614b5a565b50565b612c7a33611a04565b612ccf576040517f08c379a000000000000000000000000000000000000000000000000000000000815260040180806020018281038252602b81526020018061528e602b913960400191505060405180910390fd5b612cd881614bcb565b50565b612ce433611a04565b612d39576040517f08c379a000000000000000000000000000000000000000000000000000000000815260040180806020018281038252602b81526020018061528e602b913960400191505060405180910390fd5b612d4281614a78565b50565b612d4e336148dd565b612da3576040517f08c379a000000000000000000000000000000000000000000000000000000000815260040180806020018281038252602d81526020018061521e602d913960400191505060405180910390fd5b612dac81614c3c565b50565b612db833614cad565b565b6000600860009054906101000a900460ff1615612dd657600080fd5b612ddf336148dd565b612e34576040517f08c379a000000000000000000000000000000000000000000000000000000000815260040180806020018281038252602d81526020018061521e602d913960400191505060405180910390fd5b600073ffffffffffffffffffffffffffffffffffffffff168373ffffffffffffffffffffffffffffffffffffffff161415612e6e57600080fd5b602e825114612e7c57600080fd5b6007826040518082805190602001908083835b60208310612eb25780518252602082019150602081019050602083039250612e8f565b6001836020036101000a038019825116818451168082178552505050505050905001915050908152602001604051809103902060008082016000612ef69190614f81565b600182016000905550503373ffffffffffffffffffffffffffffffffffffffff168373ffffffffffffffffffffffffffffffffffffffff167f9c676f11f477f126926ac2bc49046b7a599e258a4f198776caa2644fce3cd7c6846040518080602001828103825283818151815260200191508051906020019080838360005b83811015612f90578082015181840152602081019050612f75565b50505050905090810190601f168015612fbd5780820380516001836020036101000a031916815260200191505b509250505060405180910390a36001905092915050565b6000612fea8260026148fa90919063ffffffff16565b9050919050565b6000600680549050905090565b6000600860009054906101000a900460ff161561301a57600080fd5b613023336148dd565b613078576040517f08c379a000000000000000000000000000000000000000000000000000000000815260040180806020018281038252602d81526020018061521e602d913960400191505060405180910390fd5b600073ffffffffffffffffffffffffffffffffffffffff168473ffffffffffffffffffffffffffffffffffffffff1614156130b257600080fd5b6101008351106130c157600080fd5b602e8251146130cf57600080fd5b6130d7615049565b6007836040518082805190602001908083835b6020831061310d57805182526020820191506020810190506020830392506130ea565b6001836020036101000a0380198251168184511680821785525050505050509050019150509081526020016040518091039020604051806040016040529081600082018054600181600116156101000203166002900480601f0160208091040260200160405190810160405280929190818152602001828054600181600116156101000203166002900480156131e45780601f106131b9576101008083540402835291602001916131e4565b820191906000526020600020905b8154815290600101906020018083116131c757829003601f168201915b5050505050815260200160018201548152505090508381600001819052503373ffffffffffffffffffffffffffffffffffffffff168573ffffffffffffffffffffffffffffffffffffffff167f87a983619f6316fe3e7ce828f67913b1a1048bf0b29304e3722f250644b0498183600001516040518080602001828103825283818151815260200191508051906020019080838360005b8381101561329657808201518184015260208101905061327b565b50505050905090810190601f1680156132c35780820380516001836020036101000a031916815260200191505b509250505060405180910390a360019150509392505050565b6132e533611a04565b61333a576040517f08c379a000000000000000000000000000000000000000000000000000000000815260040180806020018281038252602b81526020018061528e602b913960400191505060405180910390fd5b61334381614d07565b50565b61334f33611a04565b6133a4576040517f08c379a000000000000000000000000000000000000000000000000000000000815260040180806020018281038252602b81526020018061528e602b913960400191505060405180910390fd5b6133ad81614d78565b50565b60006006805490508263ffffffff16106133cd57600090506135e5565b606060068363ffffffff16815481106133e257fe5b906000526020600020018054600181600116156101000203166002900480601f0160208091040260200160405190810160405280929190818152602001828054600181600116156101000203166002900480156134805780601f1061345557610100808354040283529160200191613480565b820191906000526020600020905b81548152906001019060200180831161346357829003601f168201915b5050505050905060008363ffffffff1690505b60016006805490500381101561350157600660018201815481106134b357fe5b90600052602060002001600682815481106134ca57fe5b9060005260206000200190805460018160011615610100020316600290046134f3929190615099565b508080600101915050613493565b5060066001600680549050038154811061351757fe5b90600052602060002001600061352d9190614f81565b60068054809190600190036135429190615120565b507ff2cbfee8c87498d0a092f7a5fd04a4bdad181bc04b6dfb9f6406e09809d2f584816040518080602001828103825283818151815260200191508051906020019080838360005b838110156135a557808201518184015260208101905061358a565b50505050905090810190601f1680156135d25780820380516001836020036101000a031916815260200191505b509250505060405180910390a160019150505b919050565b60006136008260036148fa90919063ffffffff16565b9050919050565b6000600860009054906101000a900460ff161561362357600080fd5b61362c336148dd565b613681576040517f08c379a000000000000000000000000000000000000000000000000000000000815260040180806020018281038252602d81526020018061521e602d913960400191505060405180910390fd5b600073ffffffffffffffffffffffffffffffffffffffff168473ffffffffffffffffffffffffffffffffffffffff1614156136bb57600080fd5b6136c484612fd4565b6136cd57600080fd5b6101008351106136dc57600080fd5b602e8251146136ea57600080fd5b60004290506136f7615049565b6040518060400160405280868152602001838152509050806007856040518082805190602001908083835b602083106137455780518252602082019150602081019050602083039250613722565b6001836020036101000a0380198251168184511680821785525050505050509050019150509081526020016040518091039020600082015181600001908051906020019061379492919061514c565b50602082015181600101559050503373ffffffffffffffffffffffffffffffffffffffff168673ffffffffffffffffffffffffffffffffffffffff167f977dc7867dd6fb513af3d4bb11f4457a5052487f13412788530b454c0b7dfa2c866040518080602001828103825283818151815260200191508051906020019080838360005b83811015613832578082015181840152602081019050613817565b50505050905090810190601f16801561385f5780820380516001836020036101000a031916815260200191505b509250505060405180910390a36001925050509392505050565b6004602052816000526040600020818154811061389257fe5b906000526020600020906006020160009150915050806000018054600181600116156101000203166002900480601f01602080910402602001604051908101604052809291908181526020018280546001816001161561010002031660029004801561393f5780601f106139145761010080835404028352916020019161393f565b820191906000526020600020905b81548152906001019060200180831161392257829003601f168201915b505050505090806001018054600181600116156101000203166002900480601f0160208091040260200160405190810160405280929190818152602001828054600181600116156101000203166002900480156139dd5780601f106139b2576101008083540402835291602001916139dd565b820191906000526020600020905b8154815290600101906020018083116139c057829003601f168201915b505050505090806002018054600181600116156101000203166002900480601f016020809104026020016040519081016040528092919081815260200182805460018160011615610100020316600290048015613a7b5780601f10613a5057610100808354040283529160200191613a7b565b820191906000526020600020905b815481529060010190602001808311613a5e57829003601f168201915b505050505090806003018054600181600116156101000203166002900480601f016020809104026020016040519081016040528092919081815260200182805460018160011615610100020316600290048015613b195780601f10613aee57610100808354040283529160200191613b19565b820191906000526020600020905b815481529060010190602001808311613afc57829003601f168201915b505050505090806004018054600181600116156101000203166002900480601f016020809104026020016040519081016040528092919081815260200182805460018160011615610100020316600290048015613bb75780601f10613b8c57610100808354040283529160200191613bb7565b820191906000526020600020905b815481529060010190602001808311613b9a57829003601f168201915b5050505050908060050154905086565b6000600860009054906101000a900460ff1615613be357600080fd5b613bec33611a04565b613c41576040517f08c379a000000000000000000000000000000000000000000000000000000000815260040180806020018281038252602b81526020018061528e602b913960400191505060405180910390fd5b600073ffffffffffffffffffffffffffffffffffffffff168773ffffffffffffffffffffffffffffffffffffffff161415613c7b57600080fd5b6080865110613c8957600080fd5b601e855110613c9757600080fd5b601e845110613ca557600080fd5b601e835110613cb357600080fd5b601e825110613cc157600080fd5b6000429050613cce615063565b6040518060c00160405280898152602001888152602001878152602001868152602001858152602001838152509050600460008a73ffffffffffffffffffffffffffffffffffffffff1673ffffffffffffffffffffffffffffffffffffffff16815260200190815260200160002081908060018154018082558091505090600182039060005260206000209060060201600090919290919091506000820151816000019080519060200190613d8492919061514c565b506020820151816001019080519060200190613da192919061514c565b506040820151816002019080519060200190613dbe92919061514c565b506060820151816003019080519060200190613ddb92919061514c565b506080820151816004019080519060200190613df892919061514c565b5060a082015181600501555050503373ffffffffffffffffffffffffffffffffffffffff168973ffffffffffffffffffffffffffffffffffffffff167f99ef3acfa68b13c01a6a7e6717e2224b4157940e6a56be5bd957d13c059fe3a08a8a8a8a8a8960405180806020018060200180602001806020018060200187815260200186810386528c818151815260200191508051906020019080838360005b83811015613eb1578082015181840152602081019050613e96565b50505050905090810190601f168015613ede5780820380516001836020036101000a031916815260200191505b5086810385528b818151815260200191508051906020019080838360005b83811015613f17578082015181840152602081019050613efc565b50505050905090810190601f168015613f445780820380516001836020036101000a031916815260200191505b5086810384528a818151815260200191508051906020019080838360005b83811015613f7d578082015181840152602081019050613f62565b50505050905090810190601f168015613faa5780820380516001836020036101000a031916815260200191505b50868103835289818151815260200191508051906020019080838360005b83811015613fe3578082015181840152602081019050613fc8565b50505050905090810190601f1680156140105780820380516001836020036101000a031916815260200191505b50868103825288818151815260200191508051906020019080838360005b8381101561404957808201518184015260208101905061402e565b50505050905090810190601f1680156140765780820380516001836020036101000a031916815260200191505b509b50505050505050505050505060405180910390a36001925050509695505050505050565b6060806060806060600860009054906101000a900460ff16156140be57600080fd5b6140c733611a04565b61411c576040517f08c379a000000000000000000000000000000000000000000000000000000000815260040180806020018281038252602b81526020018061528e602b913960400191505060405180910390fd5b61412533611a04565b15614164578673ffffffffffffffffffffffffffffffffffffffff163373ffffffffffffffffffffffffffffffffffffffff16141561416357600080fd5b5b600073ffffffffffffffffffffffffffffffffffffffff168773ffffffffffffffffffffffffffffffffffffffff16141561419e57600080fd5b600086101580156141cf57507fffffffffffffffffffffffffffffffffffffffffffffffffffffffffffffffff8611155b6141d857600080fd5b6000600460008973ffffffffffffffffffffffffffffffffffffffff1673ffffffffffffffffffffffffffffffffffffffff168152602001908152602001600020805490501161422757600080fd5b60004290506000614237896149d8565b9050614241615063565b60008090505b8281101561460657600460008c73ffffffffffffffffffffffffffffffffffffffff1673ffffffffffffffffffffffffffffffffffffffff168152602001908152602001600020818154811061429957fe5b90600052602060002090600602016040518060c0016040529081600082018054600181600116156101000203166002900480601f01602080910402602001604051908101604052809291908181526020018280546001816001161561010002031660029004801561434b5780601f106143205761010080835404028352916020019161434b565b820191906000526020600020905b81548152906001019060200180831161432e57829003601f168201915b50505050508152602001600182018054600181600116156101000203166002900480601f0160208091040260200160405190810160405280929190818152602001828054600181600116156101000203166002900480156143ed5780601f106143c2576101008083540402835291602001916143ed565b820191906000526020600020905b8154815290600101906020018083116143d057829003601f168201915b50505050508152602001600282018054600181600116156101000203166002900480601f01602080910402602001604051908101604052809291908181526020018280546001816001161561010002031660029004801561448f5780601f106144645761010080835404028352916020019161448f565b820191906000526020600020905b81548152906001019060200180831161447257829003601f168201915b50505050508152602001600382018054600181600116156101000203166002900480601f0160208091040260200160405190810160405280929190818152602001828054600181600116156101000203166002900480156145315780601f1061450657610100808354040283529160200191614531565b820191906000526020600020905b81548152906001019060200180831161451457829003601f168201915b50505050508152602001600482018054600181600116156101000203166002900480601f0160208091040260200160405190810160405280929190818152602001828054600181600116156101000203166002900480156145d35780601f106145a8576101008083540402835291602001916145d3565b820191906000526020600020905b8154815290600101906020018083116145b657829003601f168201915b505050505081526020016005820154815250509150898260a0015114156145f957614606565b8080600101915050614247565b503373ffffffffffffffffffffffffffffffffffffffff168a73ffffffffffffffffffffffffffffffffffffffff167fec95aa37f5ff4f1e52a5333f61229ce376a04a63d4ccdfae6678ef305b97f232836000015184602001518560400151866060015187608001518860a001518b60405180806020018060200180602001806020018060200188815260200187815260200186810386528d818151815260200191508051906020019080838360005b838110156146d15780820151818401526020810190506146b6565b50505050905090810190601f1680156146fe5780820380516001836020036101000a031916815260200191505b5086810385528c818151815260200191508051906020019080838360005b8381101561473757808201518184015260208101905061471c565b50505050905090810190601f1680156147645780820380516001836020036101000a031916815260200191505b5086810384528b818151815260200191508051906020019080838360005b8381101561479d578082015181840152602081019050614782565b50505050905090810190601f1680156147ca5780820380516001836020036101000a031916815260200191505b5086810383528a818151815260200191508051906020019080838360005b838110156148035780820151818401526020810190506147e8565b50505050905090810190601f1680156148305780820380516001836020036101000a031916815260200191505b50868103825289818151815260200191508051906020019080838360005b8381101561486957808201518184015260208101905061484e565b50505050905090810190601f1680156148965780820380516001836020036101000a031916815260200191505b509c5050505050505050505050505060405180910390a380600001519750806020015196508060400151955080606001519450806080015193505050509295509295909350565b60006148f38260016148fa90919063ffffffff16565b9050919050565b60008073ffffffffffffffffffffffffffffffffffffffff168273ffffffffffffffffffffffffffffffffffffffff161415614981576040517f08c379a000000000000000000000000000000000000000000000000000000000815260040180806020018281038252602281526020018061526c6022913960400191505060405180910390fd5b8260000160008373ffffffffffffffffffffffffffffffffffffffff1673ffffffffffffffffffffffffffffffffffffffff16815260200190815260200160002060009054906101000a900460ff16905092915050565b6000600860009054906101000a900460ff16156149f457600080fd5b600073ffffffffffffffffffffffffffffffffffffffff168273ffffffffffffffffffffffffffffffffffffffff161415614a2e57600080fd5b600460008373ffffffffffffffffffffffffffffffffffffffff1673ffffffffffffffffffffffffffffffffffffffff168152602001908152602001600020805490509050919050565b614a8c816001614de990919063ffffffff16565b3373ffffffffffffffffffffffffffffffffffffffff168173ffffffffffffffffffffffffffffffffffffffff167fb35968fdda9034197de288afbe8a2947dedade83d7dbc0de3e340d4f62ce64dc60405160405180910390a350565b614afd816003614ea690919063ffffffff16565b3373ffffffffffffffffffffffffffffffffffffffff168173ffffffffffffffffffffffffffffffffffffffff167f7fef988ea6e2f03c1f9fb16df333b2a7911dfb096f5c563866713c1c9517ec7060405160405180910390a350565b614b6e816002614ea690919063ffffffff16565b3373ffffffffffffffffffffffffffffffffffffffff168173ffffffffffffffffffffffffffffffffffffffff167ff6dfb9f71429364456283a1521c30cc400d799d7b381d7ce164687f11c18dbaf60405160405180910390a350565b614bdf816000614ea690919063ffffffff16565b3373ffffffffffffffffffffffffffffffffffffffff168173ffffffffffffffffffffffffffffffffffffffff167fbf3f493c772c8c283fd124432c2d0f539ab343faa04258fe88e52912d36b102b60405160405180910390a350565b614c50816002614de990919063ffffffff16565b3373ffffffffffffffffffffffffffffffffffffffff168173ffffffffffffffffffffffffffffffffffffffff167fd00481c3fc5867ec74704c9c99334b8d53c7735c947bdcb6cbebcae6740ed94060405160405180910390a350565b614cc1816000614de990919063ffffffff16565b8073ffffffffffffffffffffffffffffffffffffffff167f583e7032182b053f2bcd5e3ac78021a3c8d321735043ee84032742c9a6528afd60405160405180910390a250565b614d1b816001614ea690919063ffffffff16565b3373ffffffffffffffffffffffffffffffffffffffff168173ffffffffffffffffffffffffffffffffffffffff167f93b0ab94930bbad064296971ea5e731f84ae511662781bcaf28543ab9042368a60405160405180910390a350565b614d8c816003614de990919063ffffffff16565b3373ffffffffffffffffffffffffffffffffffffffff168173ffffffffffffffffffffffffffffffffffffffff167f83bb2e314d2b42b828b2082c5f08a3b9162d6322fe9b8bdaa47dc3d26ce183af60405160405180910390a350565b614df382826148fa565b614e48576040517f08c379a000000000000000000000000000000000000000000000000000000000815260040180806020018281038252602181526020018061524b6021913960400191505060405180910390fd5b60008260000160008373ffffffffffffffffffffffffffffffffffffffff1673ffffffffffffffffffffffffffffffffffffffff16815260200190815260200160002060006101000a81548160ff0219169083151502179055505050565b614eb082826148fa565b15614f23576040517f08c379a000000000000000000000000000000000000000000000000000000000815260040180806020018281038252601f8152602001807f526f6c65733a206163636f756e7420616c72656164792068617320726f6c650081525060200191505060405180910390fd5b60018260000160008373ffffffffffffffffffffffffffffffffffffffff1673ffffffffffffffffffffffffffffffffffffffff16815260200190815260200160002060006101000a81548160ff0219169083151502179055505050565b50805460018160011615610100020316600290046000825580601f10614fa75750614fc6565b601f016020900490600052602060002090810190614fc591906151cc565b5b50565b828054600181600116156101000203166002900490600052602060002090601f016020900481019282601f1061500a57805160ff1916838001178555615038565b82800160010185558215615038579182015b8281111561503757825182559160200191906001019061501c565b5b50905061504591906151cc565b5090565b604051806040016040528060608152602001600081525090565b6040518060c001604052806060815260200160608152602001606081526020016060815260200160608152602001600081525090565b828054600181600116156101000203166002900490600052602060002090601f016020900481019282601f106150d2578054855561510f565b8280016001018555821561510f57600052602060002091601f016020900482015b8281111561510e5782548255916001019190600101906150f3565b5b50905061511c91906151cc565b5090565b8154818355818111156151475781836000526020600020918201910161514691906151f1565b5b505050565b828054600181600116156101000203166002900490600052602060002090601f016020900481019282601f1061518d57805160ff19168380011785556151bb565b828001600101855582156151bb579182015b828111156151ba57825182559160200191906001019061519f565b5b5090506151c891906151cc565b5090565b6151ee91905b808211156151ea5760008160009055506001016151d2565b5090565b90565b61521a91905b80821115615216576000818161520d9190614f81565b506001016151f7565b5090565b9056fe4e6f207365206375656e746120636f6e20656c20726f6c2065737065636966696361646f284dc3a96469636f29526f6c65733a206163636f756e7420646f6573206e6f74206861766520726f6c65526f6c65733a206163636f756e7420697320746865207a65726f20616464726573734e6f207365206375656e746120636f6e20656c20726f6c2065737065636966696361646f2841646d696e294e6f207365206375656e746120636f6e20656c20726f6c2065737065636966696361646f2850616369656e7465206f206dc3a96469636f29a265627a7a72315820726ed87fe568569fb93b0cddeb54ca468b339d37a2fdc03da52ce45351125a2564736f6c63430005100032526f6c65733a206163636f756e7420697320746865207a65726f2061646472657373",
  "source": "pragma solidity 0.5.16;\r\n\r\nimport \"./PendingRecords.sol\";\r\n\r\n/**\r\n * @title Smart Contract de Historial de pacientes - Control de Estudio basado en rol.\r\n * @author Adrin Constante\r\n * @notice Este contrato representa el registro de un Estudio asociado a una persona.\r\n * @notice Debido a las limitaciones de almacenamiento, los Estudio serl almacenados en IPFS.\r\n * El hash IPFS generado por el archivo en conjunto con metadatos del paciente sern almacenados en la blockchain.\r\n * @dev El contrato hereda las funciones del contrato de roles\r\n */\r\n\r\ncontract PatientRecords is PendingRecords {\r\n    /**\r\n     * @title Representa un Estudio el cual le pertenece a un paciente.\r\n     */\r\n    struct Estudio {\r\n        string descript;\r\n        uint256 uploadDate;\r\n    }\r\n\r\n    /**\r\n     * @notice Mapea el ipfsHash a su estudio..\r\n     */\r\n    mapping (string => Estudio) internal ipfsHashToEstudio;\r\n\r\n    /**\r\n     * @notice Patrn de switch para encender/apagar\r\n        Pasar a otro contrato\r\n     */\r\n    bool private stopped = false;\r\n\r\n    /**\r\n     * @dev Eventos que sern registrados en la blockchain con finalidad de auditoria.\r\n     */\r\n    event RecordAdded(\r\n        address indexed _patient,\r\n        address indexed _medic,\r\n        string _ipfsHash\r\n        );\r\n\r\n    event RecordUpdate(\r\n        address indexed _patient,\r\n        address indexed _medic,\r\n        string _descript\r\n        );\r\n\r\n    event RecordRetrieve(\r\n        address indexed _patient,\r\n        address indexed _medic,\r\n        string _descript,\r\n        uint256 _uploadDate\r\n        );\r\n\r\n    event RecordDelete(\r\n        address indexed _patient,\r\n        address indexed _medic,\r\n        string _ipfsHash\r\n        );\r\n\r\n    /**\r\n    * @dev Indica que se ha puesto el contrato en pausa.\r\n    * @param _admin Un administrador\r\n    * @param _stop Indica cuando hay una pausa o una reanudacin.\r\n    */\r\n    event LogSwitchStop(\r\n        address indexed _admin,\r\n        bool _stop\r\n    );\r\n\r\n    /**\r\n    * @dev Previene de ejecucin del contrato\r\n    */\r\n    modifier nonlyStopped {\r\n        require(!stopped);\r\n        _;\r\n    }\r\n\r\n    /**\r\n    * @notice Pausar el contrato\r\n    * Se detiene el contrato bajo ciertas condiciones.\r\n    * Sera til cuando nuevos errores sean descubiertos.\r\n    * @param _stop Switch del contrado de encendido/apagado\r\n    */\r\n    function emergencyStop(bool _stop) public onlyAdmin {\r\n        stopped = _stop;\r\n        emit LogSwitchStop(msg.sender, _stop);\r\n    }\r\n\r\n  /**\r\n   * @dev Funcin de creacin de Estudio. Esta funcin es realizada por un doctor.\r\n   * @param _account a\r\n   * @param _ipfsHash a\r\n   * @return _success a\r\n   */\r\n    function addRecord(\r\n        address _account,\r\n        string memory _descript,\r\n        string memory _ipfsHash)\r\n    public nonlyStopped onlyMedic returns (bool _success) {\r\n        require(_account != address(0));\r\n        require(isPatient(_account));\r\n        require(bytes(_descript).length < 256);\r\n        require(bytes(_ipfsHash).length == 46);\r\n\r\n        uint256 _uploadDate = now;\r\n\r\n        Estudio memory _estudio = Estudio(\r\n            _descript,\r\n            _uploadDate\r\n        );\r\n\r\n        ipfsHashToEstudio[_ipfsHash] = _estudio;\r\n\r\n        emit RecordAdded(\r\n            _account,\r\n            msg.sender,\r\n            _ipfsHash\r\n        );\r\n        _success = true;\r\n    }\r\n\r\n    /**\r\n    * @notice Returns el estudio en el ndice del propietario de la direccin.\r\n    * @dev Controlado por el switch\r\n    * @param _account The owner address\r\n    * @return _uploadDate The uploaded timestamp\r\n    */\r\n    function viewRecords(address _account, string memory _ipfsHash)\r\n    public nonlyStopped onlyPatient returns(string memory _descript, uint256 _uploadDate) {\r\n        require(_account != 0x0000000000000000000000000000000000000000);\r\n        require(bytes(_ipfsHash).length == 46);\r\n\r\n        Estudio memory estudio = ipfsHashToEstudio[_ipfsHash];\r\n\r\n        emit RecordRetrieve(\r\n            _account,\r\n            msg.sender,\r\n            estudio.descript,\r\n            estudio.uploadDate\r\n        );\r\n        _descript = estudio.descript;\r\n        _uploadDate = estudio.uploadDate;\r\n    }\r\n\r\n    /**\r\n    * @notice Returns el estudio en el ndice del propietario de la direccin.\r\n    * @dev Controlado por el switch\r\n    * @param _account Cuenta del paciente\r\n    * @return _ipfsHash The IPFS hash\r\n    */\r\n    function updateRecord(\r\n        address _account,\r\n        string memory _descript,\r\n        string memory _ipfsHash)\r\n    public nonlyStopped onlyMedic returns (bool _success) {\r\n        require(_account != 0x0000000000000000000000000000000000000000);\r\n        require(bytes(_descript).length < 256);\r\n        require(bytes(_ipfsHash).length == 46);\r\n\r\n        Estudio memory estudio = ipfsHashToEstudio[_ipfsHash];\r\n\r\n        estudio.descript = _descript;\r\n\r\n        emit RecordUpdate(\r\n            _account,\r\n            msg.sender,\r\n            estudio.descript\r\n        );\r\n        _success = true;\r\n    }\r\n\r\n    /**\r\n    * @notice Returns el estudio en el ndice del propietario de la direccin.\r\n    * @dev Controlado por el switch\r\n    * @param _account The owner address\r\n    * @return _uploadDate The uploaded timestamp\r\n    */\r\n    function deleteRecord(\r\n        address _account,\r\n        string memory _ipfsHash\r\n        )\r\n    public nonlyStopped onlyMedic returns (bool _success) {\r\n        require(_account != 0x0000000000000000000000000000000000000000);\r\n        require(bytes(_ipfsHash).length == 46);\r\n\r\n        delete ipfsHashToEstudio[_ipfsHash];\r\n\r\n        emit RecordDelete(\r\n            _account,\r\n            msg.sender,\r\n            _ipfsHash\r\n        );\r\n\r\n        _success = true;\r\n    }\r\n\r\n}\r\n",
  "sourcePath": "D:\\Mega-AC1982\\Develop\\Angular\\MedicalHistory-BlockChainProject\\frontend\\truffle\\contracts\\PatientRecords.sol",
  "compiler": {
    "name": "solc",
    "version": "0.5.16+commit.9c3226ce.Emscripten.clang"
  },
  "schemaVersion": "3.1.0",
  "updatedAt": "2020-04-29T01:07:47.955Z",
  "devdoc": {
    "author": "Adrin Constante",
    "details": "El contrato hereda las funciones del contrato de roles",
    "methods": {
      "addAdmin(address)": {
        "details": "Funcin pblica para asignar admin",
        "params": {
          "account": "Cuenta que ser asignada como admin"
        }
      },
      "addAssistant(address)": {
        "details": "Funcin pblica para asignar asistente",
        "params": {
          "account": "Cuenta que ser asignada como asistente"
        }
      },
      "addMedic(address)": {
        "details": "Funcin pblica para asignar mdico",
        "params": {
          "account": "Cuenta que ser asignada como mdico"
        }
      },
      "addMedicRecord(string)": {
        "params": {
          "_hashString": "cadena de IPFS que contiene el archivo de registro"
        }
      },
      "addMedics(address,string,string,string,string,string)": {
        "details": "Funcin para agregar un mdico. Esta funcin es realizada por un administrador.",
        "params": {
          "_account": "a",
          "_cedula": "a",
          "_email": "a",
          "_hashPicture": "a",
          "_name": "a",
          "_specialty": "a"
        },
        "return": "_success a"
      },
      "addPatient(address)": {
        "details": "Funcin pblica para asignar paciente",
        "params": {
          "account": "Cuenta que ser asignada como paciente"
        }
      },
      "addRecord(address,string,string)": {
        "details": "Funcin de creacin de Estudio. Esta funcin es realizada por un doctor.",
        "params": {
          "_account": "a",
          "_ipfsHash": "a"
        },
        "return": "_success a"
      },
      "deleteMedics(address,uint256)": {
        "details": "Controlado por el switch",
        "params": {
          "_account": "The owner address"
        },
        "return": "_date The uploaded timestamp"
      },
      "deleteRecord(address,string)": {
        "details": "Controlado por el switch",
        "params": {
          "_account": "The owner address"
        },
        "return": "_uploadDate The uploaded timestamp"
      },
      "emergencyStop(bool)": {
        "params": {
          "_stop": "Switch del contrado de encendido/apagado"
        }
      },
      "getPendingLength()": {
        "return": "Longitud de MedicPending"
      },
      "getPendingRequest(uint32)": {
        "params": {
          "_index": "Indice a consultar"
        },
        "return": "Cadena dentro del indice indicado en MedicPending"
      },
      "isAdmin(address)": {
        "params": {
          "account": "Cuenta donde se validar el rol."
        },
        "return": "true si la cuenta tiene rol de admin"
      },
      "isAssistant(address)": {
        "params": {
          "account": "Cuenta donde se validar el rol."
        },
        "return": "true si la cuenta tiene rol de asistente"
      },
      "isMedic(address)": {
        "params": {
          "account": "Cuenta donde se validar el rol."
        },
        "return": "true si la cuenta tiene rol de mdico"
      },
      "isPatient(address)": {
        "params": {
          "account": "Cuenta donde se validar el rol."
        },
        "return": "true si la cuenta tiene rol de paciente"
      },
      "removeAssistant(address)": {
        "details": "Remover a rol de asistente. Quien invoque al contrato no volver a ser asistente."
      },
      "removeMedic(address)": {
        "details": "Funcin pblica para remover mdico",
        "params": {
          "account": "Cuenta que ser removida de mdico"
        }
      },
      "removePatient(address)": {
        "details": "Remover a rol de paciente. Quien invoque al contrato no volver a ser paciente."
      },
      "removePending(uint32)": {
        "details": "Hace un swap para no dejar espacios en blanco",
        "params": {
          "_index": "The owner address"
        },
        "return": "booleano diciendo si fue exitoso o no"
      },
      "renounceAdmin()": {
        "details": "Renunciar a rol de administrador. Quien inque al contrato no volver a ser admin."
      },
      "renounceMedic()": {
        "details": "Renunciar a rol de personal mdico. Quien invoque al contrato no volver a ser mdico."
      },
      "updateMedics(address,string,string,string,string,string,uint256)": {
        "details": "Controlado por el switch",
        "params": {
          "_account": "Cuenta del mdico"
        },
        "return": "a"
      },
      "updateRecord(address,string,string)": {
        "details": "Controlado por el switch",
        "params": {
          "_account": "Cuenta del paciente"
        },
        "return": "_ipfsHash The IPFS hash"
      },
      "viewMedics(address,uint256)": {
        "details": "Controlado por el switch",
        "params": {
          "_account": "The owner address"
        },
        "return": "_date The uploaded timestamp"
      },
      "viewRecords(address,string)": {
        "details": "Controlado por el switch",
        "params": {
          "_account": "The owner address"
        },
        "return": "_uploadDate The uploaded timestamp"
      }
    },
    "title": "Smart Contract de Historial de pacientes - Control de Estudio basado en rol."
  },
  "userdoc": {
    "methods": {
      "addMedicRecord(string)": {
        "notice": "Guarda el hash de un registro del medico"
      },
      "deleteMedics(address,uint256)": {
        "notice": "Returns el medico en el ndice del propietario de la direccin."
      },
      "deleteRecord(address,string)": {
        "notice": "Returns el estudio en el ndice del propietario de la direccin."
      },
      "emergencyStop(bool)": {
        "notice": "Pausar el contrato Se detiene el contrato bajo ciertas condiciones. Sera til cuando nuevos errores sean descubiertos."
      },
      "getPendingLength()": {
        "notice": "Regresa la longitud del arreglo de solicitudes pendientes"
      },
      "getPendingRequest(uint32)": {
        "notice": "Regresa la cadena hash de un indice dado"
      },
      "removePending(uint32)": {
        "notice": "Remueve el elemento del indice indicado"
      },
      "updateMedics(address,string,string,string,string,string,uint256)": {
        "notice": "Returns el Medico en el ndice del propietario de la direccin."
      },
      "updateRecord(address,string,string)": {
        "notice": "Returns el estudio en el ndice del propietario de la direccin."
      },
      "viewMedics(address,uint256)": {
        "notice": "Returns el Medico en el ndice del propietario de la direccin."
      },
      "viewRecords(address,string)": {
        "notice": "Returns el estudio en el ndice del propietario de la direccin."
      }
    },
    "notice": "Este contrato representa el registro de un Estudio asociado a una persona.Debido a las limitaciones de almacenamiento, los Estudio serl almacenados en IPFS. El hash IPFS generado por el archivo en conjunto con metadatos del paciente sern almacenados en la blockchain."
  }
}