{
  "contractName": "PendingRecords",
  "abi": [
    {
      "anonymous": false,
      "inputs": [
        {
          "indexed": false,
          "internalType": "string",
          "name": "_hash",
          "type": "string"
        }
      ],
      "name": "NewMedicRecord",
      "type": "event"
    },
    {
      "anonymous": false,
      "inputs": [
        {
          "indexed": false,
          "internalType": "string",
          "name": "_hash",
          "type": "string"
        }
      ],
      "name": "RemoveMedicRecord",
      "type": "event"
    },
    {
      "constant": true,
      "inputs": [
        {
          "internalType": "uint256",
          "name": "",
          "type": "uint256"
        }
      ],
      "name": "medicPending",
      "outputs": [
        {
          "internalType": "string",
          "name": "",
          "type": "string"
        }
      ],
      "payable": false,
      "stateMutability": "view",
      "type": "function"
    },
    {
      "constant": false,
      "inputs": [
        {
          "internalType": "string",
          "name": "_hashString",
          "type": "string"
        }
      ],
      "name": "addMedicRecord",
      "outputs": [],
      "payable": false,
      "stateMutability": "nonpayable",
      "type": "function"
    },
    {
      "constant": true,
      "inputs": [],
      "name": "getPendingLength",
      "outputs": [
        {
          "internalType": "uint256",
          "name": "count",
          "type": "uint256"
        }
      ],
      "payable": false,
      "stateMutability": "view",
      "type": "function"
    },
    {
      "constant": true,
      "inputs": [
        {
          "internalType": "uint32",
          "name": "_index",
          "type": "uint32"
        }
      ],
      "name": "getPendingRequest",
      "outputs": [
        {
          "internalType": "string",
          "name": "_hashString",
          "type": "string"
        }
      ],
      "payable": false,
      "stateMutability": "view",
      "type": "function"
    },
    {
      "constant": false,
      "inputs": [
        {
          "internalType": "uint32",
          "name": "_index",
          "type": "uint32"
        }
      ],
      "name": "removePending",
      "outputs": [
        {
          "internalType": "bool",
          "name": "success",
          "type": "bool"
        }
      ],
      "payable": false,
      "stateMutability": "nonpayable",
      "type": "function"
    }
  ],
  "bytecode": "0x608060405234801561001057600080fd5b50610971806100206000396000f3fe608060405234801561001057600080fd5b50600436106100575760003560e01c806347d96cb11461005c578063510b2f61146101035780635acec4ab146101be5780639b2ae4c61461026b578063beea194b14610289575b600080fd5b6100886004803603602081101561007257600080fd5b81019080803590602001909291905050506102d5565b6040518080602001828103825283818151815260200191508051906020019080838360005b838110156100c85780820151818401526020810190506100ad565b50505050905090810190601f1680156100f55780820380516001836020036101000a031916815260200191505b509250505060405180910390f35b6101bc6004803603602081101561011957600080fd5b810190808035906020019064010000000081111561013657600080fd5b82018360208201111561014857600080fd5b8035906020019184600183028401116401000000008311171561016a57600080fd5b91908080601f016020809104026020016040519081016040528093929190818152602001838380828437600081840152601f19601f82011690508083019250505050505050919291929050505061038e565b005b6101f0600480360360208110156101d457600080fd5b81019080803563ffffffff16906020019092919050505061046c565b6040518080602001828103825283818151815260200191508051906020019080838360005b83811015610230578082015181840152602081019050610215565b50505050905090810190601f16801561025d5780820380516001836020036101000a031916815260200191505b509250505060405180910390f35b61027361052b565b6040518082815260200191505060405180910390f35b6102bb6004803603602081101561029f57600080fd5b81019080803563ffffffff169060200190929190505050610537565b604051808215151515815260200191505060405180910390f35b600081815481106102e257fe5b906000526020600020016000915090508054600181600116156101000203166002900480601f0160208091040260200160405190810160405280929190818152602001828054600181600116156101000203166002900480156103865780601f1061035b57610100808354040283529160200191610386565b820191906000526020600020905b81548152906001019060200180831161036957829003601f168201915b505050505081565b60008190806001815401808255809150509060018203906000526020600020016000909192909190915090805190602001906103cb929190610770565b50507fda8ad9477ca7c92626705474e6194137fbe13627f4f72e07c6d8411bf7c7a1f0816040518080602001828103825283818151815260200191508051906020019080838360005b8381101561042f578082015181840152602081019050610414565b50505050905090810190601f16801561045c5780820380516001836020036101000a031916815260200191505b509250505060405180910390a150565b606060008263ffffffff168154811061048157fe5b906000526020600020018054600181600116156101000203166002900480601f01602080910402602001604051908101604052809291908181526020018280546001816001161561010002031660029004801561051f5780601f106104f45761010080835404028352916020019161051f565b820191906000526020600020905b81548152906001019060200180831161050257829003601f168201915b50505050509050919050565b60008080549050905090565b600080805490508263ffffffff1610610553576000905061076b565b606060008363ffffffff168154811061056857fe5b906000526020600020018054600181600116156101000203166002900480601f0160208091040260200160405190810160405280929190818152602001828054600181600116156101000203166002900480156106065780601f106105db57610100808354040283529160200191610606565b820191906000526020600020905b8154815290600101906020018083116105e957829003601f168201915b5050505050905060008363ffffffff1690505b600160008054905003811015610687576000600182018154811061063957fe5b906000526020600020016000828154811061065057fe5b9060005260206000200190805460018160011615610100020316600290046106799291906107f0565b508080600101915050610619565b5060006001600080549050038154811061069d57fe5b9060005260206000200160006106b39190610877565b60008054809190600190036106c891906108bf565b507ff2cbfee8c87498d0a092f7a5fd04a4bdad181bc04b6dfb9f6406e09809d2f584816040518080602001828103825283818151815260200191508051906020019080838360005b8381101561072b578082015181840152602081019050610710565b50505050905090810190601f1680156107585780820380516001836020036101000a031916815260200191505b509250505060405180910390a160019150505b919050565b828054600181600116156101000203166002900490600052602060002090601f016020900481019282601f106107b157805160ff19168380011785556107df565b828001600101855582156107df579182015b828111156107de5782518255916020019190600101906107c3565b5b5090506107ec91906108eb565b5090565b828054600181600116156101000203166002900490600052602060002090601f016020900481019282601f106108295780548555610866565b8280016001018555821561086657600052602060002091601f016020900482015b8281111561086557825482559160010191906001019061084a565b5b50905061087391906108eb565b5090565b50805460018160011615610100020316600290046000825580601f1061089d57506108bc565b601f0160209004906000526020600020908101906108bb91906108eb565b5b50565b8154818355818111156108e6578183600052602060002091820191016108e59190610910565b5b505050565b61090d91905b808211156109095760008160009055506001016108f1565b5090565b90565b61093991905b80821115610935576000818161092c9190610877565b50600101610916565b5090565b9056fea265627a7a72315820ba792934940d0875c096927f2467c1a5325105b71b20b7e8467a908d5ecf312964736f6c63430005100032",
  "source": "pragma solidity ^0.5.16;\r\n\r\n\r\ncontract PendingRecords {\r\n    string[] public medicPending;\r\n    event NewMedicRecord(string _hash);\r\n    event RemoveMedicRecord(string _hash);\r\n\r\n    /**\r\n    * @notice Guarda el hash de un registro del medico\r\n    * @param _hashString cadena de IPFS que contiene el archivo de registro\r\n    */\r\n    function addMedicRecord(string memory _hashString) public {\r\n        medicPending.push(_hashString);\r\n        emit NewMedicRecord(_hashString);\r\n    }\r\n\r\n    /**\r\n    * @notice Regresa la longitud del arreglo de solicitudes pendientes\r\n    * @return Longitud de MedicPending\r\n    */\r\n    function getPendingLength() public view returns(uint count) {\r\n        return medicPending.length;\r\n    }\r\n\r\n    /**\r\n    * @notice Regresa la cadena hash de un indice dado\r\n    * @param _index Indice a consultar\r\n    * @return Cadena dentro del indice indicado en MedicPending\r\n    */\r\n    function getPendingRequest(uint32 _index) public view returns(string memory _hashString) {\r\n        return medicPending[_index];\r\n    }\r\n\r\n    /**\r\n    * @notice Remueve el elemento del indice indicado\r\n    * @dev Hace un swap para no dejar espacios en blanco\r\n    * @param _index The owner address\r\n    * @return booleano diciendo si fue exitoso o no\r\n    */\r\n    function removePending(uint32 _index) public returns(bool success) {\r\n        if (_index >= medicPending.length) return false;\r\n\r\n        string memory removedHash = medicPending[_index];\r\n        for (uint i = _index; i < medicPending.length-1; i++) {\r\n            medicPending[i] = medicPending[i+1];\r\n        }\r\n        delete medicPending[medicPending.length-1];\r\n        medicPending.length--;\r\n        emit RemoveMedicRecord(removedHash);\r\n        return true;\r\n    }\r\n}\r\n",
  "sourcePath": "D:\\Mega-AC1982\\Develop\\Block-Chain\\v1.1\\MedicalHistory-BlockChainProject\\frontend\\truffle\\contracts\\PendingRecords.sol",
  "compiler": {
    "name": "solc",
    "version": "0.5.16+commit.9c3226ce.Emscripten.clang"
  },
  "schemaVersion": "3.1.0",
  "updatedAt": "2020-04-29T07:42:55.053Z",
  "devdoc": {
    "methods": {
      "addMedicRecord(string)": {
        "params": {
          "_hashString": "cadena de IPFS que contiene el archivo de registro"
        }
      },
      "getPendingLength()": {
        "return": "Longitud de MedicPending"
      },
      "getPendingRequest(uint32)": {
        "params": {
          "_index": "Indice a consultar"
        },
        "return": "Cadena dentro del indice indicado en MedicPending"
      },
      "removePending(uint32)": {
        "details": "Hace un swap para no dejar espacios en blanco",
        "params": {
          "_index": "The owner address"
        },
        "return": "booleano diciendo si fue exitoso o no"
      }
    }
  },
  "userdoc": {
    "methods": {
      "addMedicRecord(string)": {
        "notice": "Guarda el hash de un registro del medico"
      },
      "getPendingLength()": {
        "notice": "Regresa la longitud del arreglo de solicitudes pendientes"
      },
      "getPendingRequest(uint32)": {
        "notice": "Regresa la cadena hash de un indice dado"
      },
      "removePending(uint32)": {
        "notice": "Remueve el elemento del indice indicado"
      }
    }
  }
}