{
  "contractName": "PendingRecords",
  "abi": [
    {
      "anonymous": false,
      "inputs": [
        {
          "indexed": true,
          "internalType": "address",
          "name": "newAdm",
          "type": "address"
        },
        {
          "indexed": true,
          "internalType": "address",
          "name": "whoAddedAdm",
          "type": "address"
        }
      ],
      "name": "AdminAdded",
      "type": "event"
    },
    {
      "anonymous": false,
      "inputs": [
        {
          "indexed": true,
          "internalType": "address",
          "name": "accountRen",
          "type": "address"
        }
      ],
      "name": "AdminRenounce",
      "type": "event"
    },
    {
      "anonymous": false,
      "inputs": [
        {
          "indexed": true,
          "internalType": "address",
          "name": "newAssistant",
          "type": "address"
        },
        {
          "indexed": true,
          "internalType": "address",
          "name": "whoAddedAssistant",
          "type": "address"
        }
      ],
      "name": "AssistantAdded",
      "type": "event"
    },
    {
      "anonymous": false,
      "inputs": [
        {
          "indexed": true,
          "internalType": "address",
          "name": "oldAssistant",
          "type": "address"
        },
        {
          "indexed": true,
          "internalType": "address",
          "name": "whoRemovedAssistant",
          "type": "address"
        }
      ],
      "name": "AssistantRemoved",
      "type": "event"
    },
    {
      "anonymous": false,
      "inputs": [
        {
          "indexed": true,
          "internalType": "address",
          "name": "_admin",
          "type": "address"
        },
        {
          "indexed": false,
          "internalType": "bool",
          "name": "_stop",
          "type": "bool"
        }
      ],
      "name": "LogSwitchStop",
      "type": "event"
    },
    {
      "anonymous": false,
      "inputs": [
        {
          "indexed": true,
          "internalType": "address",
          "name": "newMed",
          "type": "address"
        },
        {
          "indexed": true,
          "internalType": "address",
          "name": "whoAddedMed",
          "type": "address"
        }
      ],
      "name": "MedicAdded",
      "type": "event"
    },
    {
      "anonymous": false,
      "inputs": [
        {
          "indexed": true,
          "internalType": "address",
          "name": "oldMed",
          "type": "address"
        },
        {
          "indexed": true,
          "internalType": "address",
          "name": "whoRemovedMed",
          "type": "address"
        }
      ],
      "name": "MedicRemoved",
      "type": "event"
    },
    {
      "anonymous": false,
      "inputs": [
        {
          "indexed": true,
          "internalType": "address",
          "name": "medRen",
          "type": "address"
        }
      ],
      "name": "MedicRenounce",
      "type": "event"
    },
    {
      "anonymous": false,
      "inputs": [
        {
          "indexed": true,
          "internalType": "address",
          "name": "_medic",
          "type": "address"
        },
        {
          "indexed": true,
          "internalType": "address",
          "name": "_admin",
          "type": "address"
        },
        {
          "indexed": false,
          "internalType": "string",
          "name": "_name",
          "type": "string"
        },
        {
          "indexed": false,
          "internalType": "string",
          "name": "_specialty",
          "type": "string"
        },
        {
          "indexed": false,
          "internalType": "string",
          "name": "_cedula",
          "type": "string"
        },
        {
          "indexed": false,
          "internalType": "string",
          "name": "_email",
          "type": "string"
        },
        {
          "indexed": false,
          "internalType": "string",
          "name": "_hashPicture",
          "type": "string"
        },
        {
          "indexed": false,
          "internalType": "uint256",
          "name": "_date",
          "type": "uint256"
        }
      ],
      "name": "MedicsAdded",
      "type": "event"
    },
    {
      "anonymous": false,
      "inputs": [
        {
          "indexed": true,
          "internalType": "address",
          "name": "_medic",
          "type": "address"
        },
        {
          "indexed": true,
          "internalType": "address",
          "name": "_admin",
          "type": "address"
        },
        {
          "indexed": false,
          "internalType": "string",
          "name": "_hashPicture",
          "type": "string"
        },
        {
          "indexed": false,
          "internalType": "uint256",
          "name": "_date",
          "type": "uint256"
        }
      ],
      "name": "MedicsDelete",
      "type": "event"
    },
    {
      "anonymous": false,
      "inputs": [
        {
          "indexed": true,
          "internalType": "address",
          "name": "_medic",
          "type": "address"
        },
        {
          "indexed": true,
          "internalType": "address",
          "name": "_admin",
          "type": "address"
        },
        {
          "indexed": false,
          "internalType": "string",
          "name": "_name",
          "type": "string"
        },
        {
          "indexed": false,
          "internalType": "string",
          "name": "_specialty",
          "type": "string"
        },
        {
          "indexed": false,
          "internalType": "string",
          "name": "_cedula",
          "type": "string"
        },
        {
          "indexed": false,
          "internalType": "string",
          "name": "_email",
          "type": "string"
        },
        {
          "indexed": false,
          "internalType": "string",
          "name": "_hashPicture",
          "type": "string"
        },
        {
          "indexed": false,
          "internalType": "uint256",
          "name": "_date",
          "type": "uint256"
        },
        {
          "indexed": false,
          "internalType": "uint256",
          "name": "_queryDate",
          "type": "uint256"
        }
      ],
      "name": "MedicsRetrieve",
      "type": "event"
    },
    {
      "anonymous": false,
      "inputs": [
        {
          "indexed": true,
          "internalType": "address",
          "name": "_medic",
          "type": "address"
        },
        {
          "indexed": true,
          "internalType": "address",
          "name": "_admin",
          "type": "address"
        },
        {
          "indexed": false,
          "internalType": "string",
          "name": "_name",
          "type": "string"
        },
        {
          "indexed": false,
          "internalType": "string",
          "name": "_specialty",
          "type": "string"
        },
        {
          "indexed": false,
          "internalType": "string",
          "name": "_cedula",
          "type": "string"
        },
        {
          "indexed": false,
          "internalType": "string",
          "name": "_email",
          "type": "string"
        },
        {
          "indexed": false,
          "internalType": "string",
          "name": "_hashPicture",
          "type": "string"
        },
        {
          "indexed": false,
          "internalType": "uint256",
          "name": "_date",
          "type": "uint256"
        },
        {
          "indexed": false,
          "internalType": "uint256",
          "name": "_queryDate",
          "type": "uint256"
        }
      ],
      "name": "MedicsUpdate",
      "type": "event"
    },
    {
      "anonymous": false,
      "inputs": [
        {
          "indexed": false,
          "internalType": "string",
          "name": "_hash",
          "type": "string"
        }
      ],
      "name": "NewMedicRecord",
      "type": "event"
    },
    {
      "anonymous": false,
      "inputs": [
        {
          "indexed": true,
          "internalType": "address",
          "name": "newPat",
          "type": "address"
        },
        {
          "indexed": true,
          "internalType": "address",
          "name": "whoAddedPat",
          "type": "address"
        }
      ],
      "name": "PatientAdded",
      "type": "event"
    },
    {
      "anonymous": false,
      "inputs": [
        {
          "indexed": true,
          "internalType": "address",
          "name": "oldPat",
          "type": "address"
        },
        {
          "indexed": true,
          "internalType": "address",
          "name": "whoRemovedPat",
          "type": "address"
        }
      ],
      "name": "PatientRemoved",
      "type": "event"
    },
    {
      "anonymous": false,
      "inputs": [
        {
          "indexed": false,
          "internalType": "string",
          "name": "_hash",
          "type": "string"
        }
      ],
      "name": "RemoveMedicRecord",
      "type": "event"
    },
    {
      "constant": false,
      "inputs": [
        {
          "internalType": "address",
          "name": "account",
          "type": "address"
        }
      ],
      "name": "addAdmin",
      "outputs": [],
      "payable": false,
      "stateMutability": "nonpayable",
      "type": "function"
    },
    {
      "constant": false,
      "inputs": [
        {
          "internalType": "address",
          "name": "account",
          "type": "address"
        }
      ],
      "name": "addAssistant",
      "outputs": [],
      "payable": false,
      "stateMutability": "nonpayable",
      "type": "function"
    },
    {
      "constant": false,
      "inputs": [
        {
          "internalType": "address",
          "name": "account",
          "type": "address"
        }
      ],
      "name": "addMedic",
      "outputs": [],
      "payable": false,
      "stateMutability": "nonpayable",
      "type": "function"
    },
    {
      "constant": false,
      "inputs": [
        {
          "internalType": "address",
          "name": "_account",
          "type": "address"
        },
        {
          "internalType": "string",
          "name": "_name",
          "type": "string"
        },
        {
          "internalType": "string",
          "name": "_specialty",
          "type": "string"
        },
        {
          "internalType": "string",
          "name": "_cedula",
          "type": "string"
        },
        {
          "internalType": "string",
          "name": "_email",
          "type": "string"
        },
        {
          "internalType": "string",
          "name": "_hashPicture",
          "type": "string"
        }
      ],
      "name": "addMedics",
      "outputs": [
        {
          "internalType": "bool",
          "name": "_success",
          "type": "bool"
        }
      ],
      "payable": false,
      "stateMutability": "nonpayable",
      "type": "function"
    },
    {
      "constant": false,
      "inputs": [
        {
          "internalType": "address",
          "name": "account",
          "type": "address"
        }
      ],
      "name": "addPatient",
      "outputs": [],
      "payable": false,
      "stateMutability": "nonpayable",
      "type": "function"
    },
    {
      "constant": false,
      "inputs": [
        {
          "internalType": "address",
          "name": "_account",
          "type": "address"
        },
        {
          "internalType": "uint256",
          "name": "_date",
          "type": "uint256"
        }
      ],
      "name": "deleteMedics",
      "outputs": [
        {
          "internalType": "bool",
          "name": "_success",
          "type": "bool"
        }
      ],
      "payable": false,
      "stateMutability": "nonpayable",
      "type": "function"
    },
    {
      "constant": false,
      "inputs": [
        {
          "internalType": "bool",
          "name": "_stop",
          "type": "bool"
        }
      ],
      "name": "emergencyStop",
      "outputs": [],
      "payable": false,
      "stateMutability": "nonpayable",
      "type": "function"
    },
    {
      "constant": true,
      "inputs": [
        {
          "internalType": "address",
          "name": "",
          "type": "address"
        },
        {
          "internalType": "uint256",
          "name": "",
          "type": "uint256"
        }
      ],
      "name": "fileToMedic",
      "outputs": [
        {
          "internalType": "string",
          "name": "name",
          "type": "string"
        },
        {
          "internalType": "string",
          "name": "specialty",
          "type": "string"
        },
        {
          "internalType": "string",
          "name": "cedula",
          "type": "string"
        },
        {
          "internalType": "string",
          "name": "email",
          "type": "string"
        },
        {
          "internalType": "string",
          "name": "hashPicture",
          "type": "string"
        },
        {
          "internalType": "uint256",
          "name": "date",
          "type": "uint256"
        }
      ],
      "payable": false,
      "stateMutability": "view",
      "type": "function"
    },
    {
      "constant": true,
      "inputs": [
        {
          "internalType": "address",
          "name": "account",
          "type": "address"
        }
      ],
      "name": "isAdmin",
      "outputs": [
        {
          "internalType": "bool",
          "name": "",
          "type": "bool"
        }
      ],
      "payable": false,
      "stateMutability": "view",
      "type": "function"
    },
    {
      "constant": true,
      "inputs": [
        {
          "internalType": "address",
          "name": "account",
          "type": "address"
        }
      ],
      "name": "isAssistant",
      "outputs": [
        {
          "internalType": "bool",
          "name": "",
          "type": "bool"
        }
      ],
      "payable": false,
      "stateMutability": "view",
      "type": "function"
    },
    {
      "constant": true,
      "inputs": [
        {
          "internalType": "address",
          "name": "account",
          "type": "address"
        }
      ],
      "name": "isMedic",
      "outputs": [
        {
          "internalType": "bool",
          "name": "",
          "type": "bool"
        }
      ],
      "payable": false,
      "stateMutability": "view",
      "type": "function"
    },
    {
      "constant": true,
      "inputs": [
        {
          "internalType": "address",
          "name": "account",
          "type": "address"
        }
      ],
      "name": "isPatient",
      "outputs": [
        {
          "internalType": "bool",
          "name": "",
          "type": "bool"
        }
      ],
      "payable": false,
      "stateMutability": "view",
      "type": "function"
    },
    {
      "constant": true,
      "inputs": [
        {
          "internalType": "uint256",
          "name": "",
          "type": "uint256"
        }
      ],
      "name": "medicPending",
      "outputs": [
        {
          "internalType": "string",
          "name": "",
          "type": "string"
        }
      ],
      "payable": false,
      "stateMutability": "view",
      "type": "function"
    },
    {
      "constant": false,
      "inputs": [
        {
          "internalType": "address",
          "name": "account",
          "type": "address"
        }
      ],
      "name": "removeAssistant",
      "outputs": [],
      "payable": false,
      "stateMutability": "nonpayable",
      "type": "function"
    },
    {
      "constant": false,
      "inputs": [
        {
          "internalType": "address",
          "name": "account",
          "type": "address"
        }
      ],
      "name": "removeMedic",
      "outputs": [],
      "payable": false,
      "stateMutability": "nonpayable",
      "type": "function"
    },
    {
      "constant": false,
      "inputs": [
        {
          "internalType": "address",
          "name": "account",
          "type": "address"
        }
      ],
      "name": "removePatient",
      "outputs": [],
      "payable": false,
      "stateMutability": "nonpayable",
      "type": "function"
    },
    {
      "constant": false,
      "inputs": [],
      "name": "renounceAdmin",
      "outputs": [],
      "payable": false,
      "stateMutability": "nonpayable",
      "type": "function"
    },
    {
      "constant": false,
      "inputs": [],
      "name": "renounceMedic",
      "outputs": [],
      "payable": false,
      "stateMutability": "nonpayable",
      "type": "function"
    },
    {
      "constant": false,
      "inputs": [
        {
          "internalType": "address",
          "name": "_account",
          "type": "address"
        },
        {
          "internalType": "string",
          "name": "_name",
          "type": "string"
        },
        {
          "internalType": "string",
          "name": "_specialty",
          "type": "string"
        },
        {
          "internalType": "string",
          "name": "_cedula",
          "type": "string"
        },
        {
          "internalType": "string",
          "name": "_email",
          "type": "string"
        },
        {
          "internalType": "string",
          "name": "_hashPicture",
          "type": "string"
        },
        {
          "internalType": "uint256",
          "name": "_date",
          "type": "uint256"
        }
      ],
      "name": "updateMedics",
      "outputs": [
        {
          "internalType": "bool",
          "name": "_success",
          "type": "bool"
        }
      ],
      "payable": false,
      "stateMutability": "nonpayable",
      "type": "function"
    },
    {
      "constant": false,
      "inputs": [
        {
          "internalType": "address",
          "name": "_account",
          "type": "address"
        },
        {
          "internalType": "uint256",
          "name": "_date",
          "type": "uint256"
        }
      ],
      "name": "viewMedics",
      "outputs": [
        {
          "internalType": "string",
          "name": "name",
          "type": "string"
        },
        {
          "internalType": "string",
          "name": "specialty",
          "type": "string"
        },
        {
          "internalType": "string",
          "name": "cedula",
          "type": "string"
        },
        {
          "internalType": "string",
          "name": "email",
          "type": "string"
        },
        {
          "internalType": "string",
          "name": "hashPicture",
          "type": "string"
        }
      ],
      "payable": false,
      "stateMutability": "nonpayable",
      "type": "function"
    },
    {
      "constant": false,
      "inputs": [
        {
          "internalType": "string",
          "name": "_hashString",
          "type": "string"
        }
      ],
      "name": "addMedicRecord",
      "outputs": [],
      "payable": false,
      "stateMutability": "nonpayable",
      "type": "function"
    },
    {
      "constant": true,
      "inputs": [],
      "name": "getPendingLength",
      "outputs": [
        {
          "internalType": "uint256",
          "name": "count",
          "type": "uint256"
        }
      ],
      "payable": false,
      "stateMutability": "view",
      "type": "function"
    },
    {
      "constant": true,
      "inputs": [
        {
          "internalType": "uint32",
          "name": "_index",
          "type": "uint32"
        }
      ],
      "name": "getPendingRequest",
      "outputs": [
        {
          "internalType": "string",
          "name": "_hashString",
          "type": "string"
        }
      ],
      "payable": false,
      "stateMutability": "view",
      "type": "function"
    },
    {
      "constant": false,
      "inputs": [
        {
          "internalType": "uint32",
          "name": "_index",
          "type": "uint32"
        }
      ],
      "name": "removePending",
      "outputs": [
        {
          "internalType": "bool",
          "name": "success",
          "type": "bool"
        }
      ],
      "payable": false,
      "stateMutability": "nonpayable",
      "type": "function"
    }
  ],
  "bytecode": "0x60806040526000600560006101000a81548160ff02191690831515021790555062000030336200003660201b60201c565b62000272565b62000051816000620000ae60201b62003e801790919060201c565b3373ffffffffffffffffffffffffffffffffffffffff168173ffffffffffffffffffffffffffffffffffffffff167fbf3f493c772c8c283fd124432c2d0f539ab343faa04258fe88e52912d36b102b60405160405180910390a350565b620000c082826200019260201b60201c565b1562000134576040517f08c379a000000000000000000000000000000000000000000000000000000000815260040180806020018281038252601f8152602001807f526f6c65733a206163636f756e7420616c72656164792068617320726f6c650081525060200191505060405180910390fd5b60018260000160008373ffffffffffffffffffffffffffffffffffffffff1673ffffffffffffffffffffffffffffffffffffffff16815260200190815260200160002060006101000a81548160ff0219169083151502179055505050565b60008073ffffffffffffffffffffffffffffffffffffffff168273ffffffffffffffffffffffffffffffffffffffff1614156200021b576040517f08c379a00000000000000000000000000000000000000000000000000000000081526004018080602001828103825260228152602001806200452f6022913960400191505060405180910390fd5b8260000160008373ffffffffffffffffffffffffffffffffffffffff1673ffffffffffffffffffffffffffffffffffffffff16815260200190815260200160002060009054906101000a900460ff16905092915050565b6142ad80620002826000396000f3fe608060405234801561001057600080fd5b50600436106101585760003560e01c80637d0d6257116100c3578063beea194b1161007c578063beea194b14610a21578063c6584bb814610a6d578063d6aac86914610ac9578063e765e73514610d47578063ea04f68f14611096578063eae3ef8a1461130d57610158565b80637d0d6257146108d15780638bad0c0a146109155780638f9c79ed1461091f5780639b2ae4c61461097b578063b0397ff814610999578063b8792f0b146109dd57610158565b80635acec4ab116101155780635acec4ab146103bb5780635c8b67df1461046857806362499d5c146104ac5780636d263ceb1461080557806370480275146108495780637d01dbc21461088d57610158565b80630ac62e021461015d57806324d7806c1461018d57806333645874146101e957806333dc0abd1461024f57806347d96cb114610259578063510b2f6114610300575b600080fd5b61018b6004803603602081101561017357600080fd5b81019080803515159060200190929190505050611369565b005b6101cf600480360360208110156101a357600080fd5b81019080803573ffffffffffffffffffffffffffffffffffffffff169060200190929190505050611436565b604051808215151515815260200191505060405180910390f35b610235600480360360408110156101ff57600080fd5b81019080803573ffffffffffffffffffffffffffffffffffffffff16906020019092919080359060200190929190505050611453565b604051808215151515815260200191505060405180910390f35b61025761182e565b005b6102856004803603602081101561026f57600080fd5b8101908080359060200190929190505050611897565b6040518080602001828103825283818151815260200191508051906020019080838360005b838110156102c55780820151818401526020810190506102aa565b50505050905090810190601f1680156102f25780820380516001836020036101000a031916815260200191505b509250505060405180910390f35b6103b96004803603602081101561031657600080fd5b810190808035906020019064010000000081111561033357600080fd5b82018360208201111561034557600080fd5b8035906020019184600183028401116401000000008311171561036757600080fd5b91908080601f016020809104026020016040519081016040528093929190818152602001838380828437600081840152601f19601f820116905080830192505050505050509192919290505050611950565b005b6103ed600480360360208110156103d157600080fd5b81019080803563ffffffff169060200190929190505050611a2e565b6040518080602001828103825283818151815260200191508051906020019080838360005b8381101561042d578082015181840152602081019050610412565b50505050905090810190601f16801561045a5780820380516001836020036101000a031916815260200191505b509250505060405180910390f35b6104aa6004803603602081101561047e57600080fd5b81019080803573ffffffffffffffffffffffffffffffffffffffff169060200190929190505050611aed565b005b6107eb600480360360e08110156104c257600080fd5b81019080803573ffffffffffffffffffffffffffffffffffffffff169060200190929190803590602001906401000000008111156104ff57600080fd5b82018360208201111561051157600080fd5b8035906020019184600183028401116401000000008311171561053357600080fd5b91908080601f016020809104026020016040519081016040528093929190818152602001838380828437600081840152601f19601f8201169050808301925050505050505091929192908035906020019064010000000081111561059657600080fd5b8201836020820111156105a857600080fd5b803590602001918460018302840111640100000000831117156105ca57600080fd5b91908080601f016020809104026020016040519081016040528093929190818152602001838380828437600081840152601f19601f8201169050808301925050505050505091929192908035906020019064010000000081111561062d57600080fd5b82018360208201111561063f57600080fd5b8035906020019184600183028401116401000000008311171561066157600080fd5b91908080601f016020809104026020016040519081016040528093929190818152602001838380828437600081840152601f19601f820116905080830192505050505050509192919290803590602001906401000000008111156106c457600080fd5b8201836020820111156106d657600080fd5b803590602001918460018302840111640100000000831117156106f857600080fd5b91908080601f016020809104026020016040519081016040528093929190818152602001838380828437600081840152601f19601f8201169050808301925050505050505091929192908035906020019064010000000081111561075b57600080fd5b82018360208201111561076d57600080fd5b8035906020019184600183028401116401000000008311171561078f57600080fd5b91908080601f016020809104026020016040519081016040528093929190818152602001838380828437600081840152601f19601f82011690508083019250505050505050919291929080359060200190929190505050611b57565b604051808215151515815260200191505060405180910390f35b6108476004803603602081101561081b57600080fd5b81019080803573ffffffffffffffffffffffffffffffffffffffff1690602001909291905050506123a9565b005b61088b6004803603602081101561085f57600080fd5b81019080803573ffffffffffffffffffffffffffffffffffffffff1690602001909291905050506123b5565b005b6108cf600480360360208110156108a357600080fd5b81019080803573ffffffffffffffffffffffffffffffffffffffff16906020019092919050505061241f565b005b610913600480360360208110156108e757600080fd5b81019080803573ffffffffffffffffffffffffffffffffffffffff169060200190929190505050612489565b005b61091d6124f3565b005b6109616004803603602081101561093557600080fd5b81019080803573ffffffffffffffffffffffffffffffffffffffff1690602001909291905050506124fe565b604051808215151515815260200191505060405180910390f35b61098361251b565b6040518082815260200191505060405180910390f35b6109db600480360360208110156109af57600080fd5b81019080803573ffffffffffffffffffffffffffffffffffffffff169060200190929190505050612528565b005b610a1f600480360360208110156109f357600080fd5b81019080803573ffffffffffffffffffffffffffffffffffffffff169060200190929190505050612592565b005b610a5360048036036020811015610a3757600080fd5b81019080803563ffffffff1690602001909291905050506125fc565b604051808215151515815260200191505060405180910390f35b610aaf60048036036020811015610a8357600080fd5b81019080803573ffffffffffffffffffffffffffffffffffffffff169060200190929190505050612836565b604051808215151515815260200191505060405180910390f35b610b1560048036036040811015610adf57600080fd5b81019080803573ffffffffffffffffffffffffffffffffffffffff16906020019092919080359060200190929190505050612853565b60405180806020018060200180602001806020018060200187815260200186810386528c818151815260200191508051906020019080838360005b83811015610b6b578082015181840152602081019050610b50565b50505050905090810190601f168015610b985780820380516001836020036101000a031916815260200191505b5086810385528b818151815260200191508051906020019080838360005b83811015610bd1578082015181840152602081019050610bb6565b50505050905090810190601f168015610bfe5780820380516001836020036101000a031916815260200191505b5086810384528a818151815260200191508051906020019080838360005b83811015610c37578082015181840152602081019050610c1c565b50505050905090810190601f168015610c645780820380516001836020036101000a031916815260200191505b50868103835289818151815260200191508051906020019080838360005b83811015610c9d578082015181840152602081019050610c82565b50505050905090810190601f168015610cca5780820380516001836020036101000a031916815260200191505b50868103825288818151815260200191508051906020019080838360005b83811015610d03578082015181840152602081019050610ce8565b50505050905090810190601f168015610d305780820380516001836020036101000a031916815260200191505b509b50505050505050505050505060405180910390f35b61107c600480360360c0811015610d5d57600080fd5b81019080803573ffffffffffffffffffffffffffffffffffffffff16906020019092919080359060200190640100000000811115610d9a57600080fd5b820183602082011115610dac57600080fd5b80359060200191846001830284011164010000000083111715610dce57600080fd5b91908080601f016020809104026020016040519081016040528093929190818152602001838380828437600081840152601f19601f82011690508083019250505050505050919291929080359060200190640100000000811115610e3157600080fd5b820183602082011115610e4357600080fd5b80359060200191846001830284011164010000000083111715610e6557600080fd5b91908080601f016020809104026020016040519081016040528093929190818152602001838380828437600081840152601f19601f82011690508083019250505050505050919291929080359060200190640100000000811115610ec857600080fd5b820183602082011115610eda57600080fd5b80359060200191846001830284011164010000000083111715610efc57600080fd5b91908080601f016020809104026020016040519081016040528093929190818152602001838380828437600081840152601f19601f82011690508083019250505050505050919291929080359060200190640100000000811115610f5f57600080fd5b820183602082011115610f7157600080fd5b80359060200191846001830284011164010000000083111715610f9357600080fd5b91908080601f016020809104026020016040519081016040528093929190818152602001838380828437600081840152601f19601f82011690508083019250505050505050919291929080359060200190640100000000811115610ff657600080fd5b82018360208201111561100857600080fd5b8035906020019184600183028401116401000000008311171561102a57600080fd5b91908080601f016020809104026020016040519081016040528093929190818152602001838380828437600081840152601f19601f820116905080830192505050505050509192919290505050612ba1565b604051808215151515815260200191505060405180910390f35b6110e2600480360360408110156110ac57600080fd5b81019080803573ffffffffffffffffffffffffffffffffffffffff16906020019092919080359060200190929190505050613076565b60405180806020018060200180602001806020018060200186810386528b818151815260200191508051906020019080838360005b83811015611132578082015181840152602081019050611117565b50505050905090810190601f16801561115f5780820380516001836020036101000a031916815260200191505b5086810385528a818151815260200191508051906020019080838360005b8381101561119857808201518184015260208101905061117d565b50505050905090810190601f1680156111c55780820380516001836020036101000a031916815260200191505b50868103845289818151815260200191508051906020019080838360005b838110156111fe5780820151818401526020810190506111e3565b50505050905090810190601f16801561122b5780820380516001836020036101000a031916815260200191505b50868103835288818151815260200191508051906020019080838360005b83811015611264578082015181840152602081019050611249565b50505050905090810190601f1680156112915780820380516001836020036101000a031916815260200191505b50868103825287818151815260200191508051906020019080838360005b838110156112ca5780820151818401526020810190506112af565b50505050905090810190601f1680156112f75780820380516001836020036101000a031916815260200191505b509a505050505050505050505060405180910390f35b61134f6004803603602081101561132357600080fd5b81019080803573ffffffffffffffffffffffffffffffffffffffff1690602001909291905050506138b7565b604051808215151515815260200191505060405180910390f35b61137233611436565b6113c7576040517f08c379a000000000000000000000000000000000000000000000000000000000815260040180806020018281038252602b81526020018061424e602b913960400191505060405180910390fd5b80600560006101000a81548160ff0219169083151502179055503373ffffffffffffffffffffffffffffffffffffffff167f58b15338e6499b2b2827d169f60332c3b4b476fcd06b9a3c7e37afa77c49228e82604051808215151515815260200191505060405180910390a250565b600061144c8260006138d490919063ffffffff16565b9050919050565b6000600560009054906101000a900460ff161561146f57600080fd5b61147833611436565b6114cd576040517f08c379a000000000000000000000000000000000000000000000000000000000815260040180806020018281038252602b81526020018061424e602b913960400191505060405180910390fd5b600073ffffffffffffffffffffffffffffffffffffffff168373ffffffffffffffffffffffffffffffffffffffff16141561150757600080fd5b6000821015801561153857507fffffffffffffffffffffffffffffffffffffffffffffffffffffffffffffffff8211155b61154157600080fd5b6000600460008573ffffffffffffffffffffffffffffffffffffffff1673ffffffffffffffffffffffffffffffffffffffff168152602001908152602001600020805490501161159057600080fd5b600042905060006115a0856139b2565b905060008090505b818110156118215784600460008873ffffffffffffffffffffffffffffffffffffffff1673ffffffffffffffffffffffffffffffffffffffff16815260200190815260200160002082815481106115fb57fe5b9060005260206000209060060201600501541415611814573373ffffffffffffffffffffffffffffffffffffffff168673ffffffffffffffffffffffffffffffffffffffff167f1977237b5f2ef5422b52998d1f30b1e788c1c890c07a074c7856db9bc6d2ccc2600460008a73ffffffffffffffffffffffffffffffffffffffff1673ffffffffffffffffffffffffffffffffffffffff16815260200190815260200160002084815481106116ac57fe5b906000526020600020906006020160040186604051808060200183815260200182810382528481815460018160011615610100020316600290048152602001915080546001816001161561010002031660029004801561174d5780601f106117225761010080835404028352916020019161174d565b820191906000526020600020905b81548152906001019060200180831161173057829003601f168201915b5050935050505060405180910390a3600460008773ffffffffffffffffffffffffffffffffffffffff1673ffffffffffffffffffffffffffffffffffffffff16815260200190815260200160002081815481106117a657fe5b9060005260206000209060060201600080820160006117c59190613f5b565b6001820160006117d59190613f5b565b6002820160006117e59190613f5b565b6003820160006117f59190613f5b565b6004820160006118059190613f5b565b60058201600090555050611821565b80806001019150506115a8565b5060019250505092915050565b611837336138b7565b61188c576040517f08c379a000000000000000000000000000000000000000000000000000000000815260040180806020018281038252602d8152602001806141de602d913960400191505060405180910390fd5b61189533613a52565b565b600681815481106118a457fe5b906000526020600020016000915090508054600181600116156101000203166002900480601f0160208091040260200160405190810160405280929190818152602001828054600181600116156101000203166002900480156119485780601f1061191d57610100808354040283529160200191611948565b820191906000526020600020905b81548152906001019060200180831161192b57829003601f168201915b505050505081565b600681908060018154018082558091505090600182039060005260206000200160009091929091909150908051906020019061198d929190613fa3565b50507fda8ad9477ca7c92626705474e6194137fbe13627f4f72e07c6d8411bf7c7a1f0816040518080602001828103825283818151815260200191508051906020019080838360005b838110156119f15780820151818401526020810190506119d6565b50505050905090810190601f168015611a1e5780820380516001836020036101000a031916815260200191505b509250505060405180910390a150565b606060068263ffffffff1681548110611a4357fe5b906000526020600020018054600181600116156101000203166002900480601f016020809104026020016040519081016040528092919081815260200182805460018160011615610100020316600290048015611ae15780601f10611ab657610100808354040283529160200191611ae1565b820191906000526020600020905b815481529060010190602001808311611ac457829003601f168201915b50505050509050919050565b611af633611436565b611b4b576040517f08c379a000000000000000000000000000000000000000000000000000000000815260040180806020018281038252602b81526020018061424e602b913960400191505060405180910390fd5b611b5481613ac3565b50565b6000600560009054906101000a900460ff1615611b7357600080fd5b611b7c33611436565b611bd1576040517f08c379a000000000000000000000000000000000000000000000000000000000815260040180806020018281038252602b81526020018061424e602b913960400191505060405180910390fd5b600073ffffffffffffffffffffffffffffffffffffffff168873ffffffffffffffffffffffffffffffffffffffff161415611c0b57600080fd5b6080875110611c1957600080fd5b601e865110611c2757600080fd5b601e855110611c3557600080fd5b601e845110611c4357600080fd5b601e835110611c5157600080fd5b60008210158015611c8257507fffffffffffffffffffffffffffffffffffffffffffffffffffffffffffffffff8211155b611c8b57600080fd5b6000600460008a73ffffffffffffffffffffffffffffffffffffffff1673ffffffffffffffffffffffffffffffffffffffff1681526020019081526020016000208054905011611cda57600080fd5b60004290506000611cea8a6139b2565b9050611cf4614023565b60008090505b828110156120b957600460008d73ffffffffffffffffffffffffffffffffffffffff1673ffffffffffffffffffffffffffffffffffffffff1681526020019081526020016000208181548110611d4c57fe5b90600052602060002090600602016040518060c0016040529081600082018054600181600116156101000203166002900480601f016020809104026020016040519081016040528092919081815260200182805460018160011615610100020316600290048015611dfe5780601f10611dd357610100808354040283529160200191611dfe565b820191906000526020600020905b815481529060010190602001808311611de157829003601f168201915b50505050508152602001600182018054600181600116156101000203166002900480601f016020809104026020016040519081016040528092919081815260200182805460018160011615610100020316600290048015611ea05780601f10611e7557610100808354040283529160200191611ea0565b820191906000526020600020905b815481529060010190602001808311611e8357829003601f168201915b50505050508152602001600282018054600181600116156101000203166002900480601f016020809104026020016040519081016040528092919081815260200182805460018160011615610100020316600290048015611f425780601f10611f1757610100808354040283529160200191611f42565b820191906000526020600020905b815481529060010190602001808311611f2557829003601f168201915b50505050508152602001600382018054600181600116156101000203166002900480601f016020809104026020016040519081016040528092919081815260200182805460018160011615610100020316600290048015611fe45780601f10611fb957610100808354040283529160200191611fe4565b820191906000526020600020905b815481529060010190602001808311611fc757829003601f168201915b50505050508152602001600482018054600181600116156101000203166002900480601f0160208091040260200160405190810160405280929190818152602001828054600181600116156101000203166002900480156120865780601f1061205b57610100808354040283529160200191612086565b820191906000526020600020905b81548152906001019060200180831161206957829003601f168201915b505050505081526020016005820154815250509150858260a0015114156120ac576120b9565b8080600101915050611cfa565b50898160000181905250888160200181905250878160400181905250868160600181905250858160800181905250848160a00181815250503373ffffffffffffffffffffffffffffffffffffffff168b73ffffffffffffffffffffffffffffffffffffffff167f30990cdc5872ccbf411335c8ed18c1622ddeafe254b87f4ab281a8536fdc105d836000015184602001518560400151866060015187608001518860a001518b60405180806020018060200180602001806020018060200188815260200187815260200186810386528d818151815260200191508051906020019080838360005b838110156121bb5780820151818401526020810190506121a0565b50505050905090810190601f1680156121e85780820380516001836020036101000a031916815260200191505b5086810385528c818151815260200191508051906020019080838360005b83811015612221578082015181840152602081019050612206565b50505050905090810190601f16801561224e5780820380516001836020036101000a031916815260200191505b5086810384528b818151815260200191508051906020019080838360005b8381101561228757808201518184015260208101905061226c565b50505050905090810190601f1680156122b45780820380516001836020036101000a031916815260200191505b5086810383528a818151815260200191508051906020019080838360005b838110156122ed5780820151818401526020810190506122d2565b50505050905090810190601f16801561231a5780820380516001836020036101000a031916815260200191505b50868103825289818151815260200191508051906020019080838360005b83811015612353578082015181840152602081019050612338565b50505050905090810190601f1680156123805780820380516001836020036101000a031916815260200191505b509c5050505050505050505050505060405180910390a360019350505050979650505050505050565b6123b281613b34565b50565b6123be33611436565b612413576040517f08c379a000000000000000000000000000000000000000000000000000000000815260040180806020018281038252602b81526020018061424e602b913960400191505060405180910390fd5b61241c81613ba5565b50565b61242833611436565b61247d576040517f08c379a000000000000000000000000000000000000000000000000000000000815260040180806020018281038252602b81526020018061424e602b913960400191505060405180910390fd5b61248681613a52565b50565b612492336138b7565b6124e7576040517f08c379a000000000000000000000000000000000000000000000000000000000815260040180806020018281038252602d8152602001806141de602d913960400191505060405180910390fd5b6124f081613c16565b50565b6124fc33613c87565b565b60006125148260026138d490919063ffffffff16565b9050919050565b6000600680549050905090565b61253133611436565b612586576040517f08c379a000000000000000000000000000000000000000000000000000000000815260040180806020018281038252602b81526020018061424e602b913960400191505060405180910390fd5b61258f81613ce1565b50565b61259b33611436565b6125f0576040517f08c379a000000000000000000000000000000000000000000000000000000000815260040180806020018281038252602b81526020018061424e602b913960400191505060405180910390fd5b6125f981613d52565b50565b60006006805490508263ffffffff16106126195760009050612831565b606060068363ffffffff168154811061262e57fe5b906000526020600020018054600181600116156101000203166002900480601f0160208091040260200160405190810160405280929190818152602001828054600181600116156101000203166002900480156126cc5780601f106126a1576101008083540402835291602001916126cc565b820191906000526020600020905b8154815290600101906020018083116126af57829003601f168201915b5050505050905060008363ffffffff1690505b60016006805490500381101561274d57600660018201815481106126ff57fe5b906000526020600020016006828154811061271657fe5b90600052602060002001908054600181600116156101000203166002900461273f929190614059565b5080806001019150506126df565b5060066001600680549050038154811061276357fe5b9060005260206000200160006127799190613f5b565b600680548091906001900361278e91906140e0565b507ff2cbfee8c87498d0a092f7a5fd04a4bdad181bc04b6dfb9f6406e09809d2f584816040518080602001828103825283818151815260200191508051906020019080838360005b838110156127f15780820151818401526020810190506127d6565b50505050905090810190601f16801561281e5780820380516001836020036101000a031916815260200191505b509250505060405180910390a160019150505b919050565b600061284c8260036138d490919063ffffffff16565b9050919050565b6004602052816000526040600020818154811061286c57fe5b906000526020600020906006020160009150915050806000018054600181600116156101000203166002900480601f0160208091040260200160405190810160405280929190818152602001828054600181600116156101000203166002900480156129195780601f106128ee57610100808354040283529160200191612919565b820191906000526020600020905b8154815290600101906020018083116128fc57829003601f168201915b505050505090806001018054600181600116156101000203166002900480601f0160208091040260200160405190810160405280929190818152602001828054600181600116156101000203166002900480156129b75780601f1061298c576101008083540402835291602001916129b7565b820191906000526020600020905b81548152906001019060200180831161299a57829003601f168201915b505050505090806002018054600181600116156101000203166002900480601f016020809104026020016040519081016040528092919081815260200182805460018160011615610100020316600290048015612a555780601f10612a2a57610100808354040283529160200191612a55565b820191906000526020600020905b815481529060010190602001808311612a3857829003601f168201915b505050505090806003018054600181600116156101000203166002900480601f016020809104026020016040519081016040528092919081815260200182805460018160011615610100020316600290048015612af35780601f10612ac857610100808354040283529160200191612af3565b820191906000526020600020905b815481529060010190602001808311612ad657829003601f168201915b505050505090806004018054600181600116156101000203166002900480601f016020809104026020016040519081016040528092919081815260200182805460018160011615610100020316600290048015612b915780601f10612b6657610100808354040283529160200191612b91565b820191906000526020600020905b815481529060010190602001808311612b7457829003601f168201915b5050505050908060050154905086565b6000600560009054906101000a900460ff1615612bbd57600080fd5b612bc633611436565b612c1b576040517f08c379a000000000000000000000000000000000000000000000000000000000815260040180806020018281038252602b81526020018061424e602b913960400191505060405180910390fd5b600073ffffffffffffffffffffffffffffffffffffffff168773ffffffffffffffffffffffffffffffffffffffff161415612c5557600080fd5b6080865110612c6357600080fd5b601e855110612c7157600080fd5b601e845110612c7f57600080fd5b601e835110612c8d57600080fd5b601e825110612c9b57600080fd5b6000429050612ca8614023565b6040518060c00160405280898152602001888152602001878152602001868152602001858152602001838152509050600460008a73ffffffffffffffffffffffffffffffffffffffff1673ffffffffffffffffffffffffffffffffffffffff16815260200190815260200160002081908060018154018082558091505090600182039060005260206000209060060201600090919290919091506000820151816000019080519060200190612d5e92919061410c565b506020820151816001019080519060200190612d7b92919061410c565b506040820151816002019080519060200190612d9892919061410c565b506060820151816003019080519060200190612db592919061410c565b506080820151816004019080519060200190612dd292919061410c565b5060a082015181600501555050503373ffffffffffffffffffffffffffffffffffffffff168973ffffffffffffffffffffffffffffffffffffffff167f99ef3acfa68b13c01a6a7e6717e2224b4157940e6a56be5bd957d13c059fe3a08a8a8a8a8a8960405180806020018060200180602001806020018060200187815260200186810386528c818151815260200191508051906020019080838360005b83811015612e8b578082015181840152602081019050612e70565b50505050905090810190601f168015612eb85780820380516001836020036101000a031916815260200191505b5086810385528b818151815260200191508051906020019080838360005b83811015612ef1578082015181840152602081019050612ed6565b50505050905090810190601f168015612f1e5780820380516001836020036101000a031916815260200191505b5086810384528a818151815260200191508051906020019080838360005b83811015612f57578082015181840152602081019050612f3c565b50505050905090810190601f168015612f845780820380516001836020036101000a031916815260200191505b50868103835289818151815260200191508051906020019080838360005b83811015612fbd578082015181840152602081019050612fa2565b50505050905090810190601f168015612fea5780820380516001836020036101000a031916815260200191505b50868103825288818151815260200191508051906020019080838360005b83811015613023578082015181840152602081019050613008565b50505050905090810190601f1680156130505780820380516001836020036101000a031916815260200191505b509b50505050505050505050505060405180910390a36001925050509695505050505050565b6060806060806060600560009054906101000a900460ff161561309857600080fd5b6130a133611436565b6130f6576040517f08c379a000000000000000000000000000000000000000000000000000000000815260040180806020018281038252602b81526020018061424e602b913960400191505060405180910390fd5b6130ff33611436565b1561313e578673ffffffffffffffffffffffffffffffffffffffff163373ffffffffffffffffffffffffffffffffffffffff16141561313d57600080fd5b5b600073ffffffffffffffffffffffffffffffffffffffff168773ffffffffffffffffffffffffffffffffffffffff16141561317857600080fd5b600086101580156131a957507fffffffffffffffffffffffffffffffffffffffffffffffffffffffffffffffff8611155b6131b257600080fd5b6000600460008973ffffffffffffffffffffffffffffffffffffffff1673ffffffffffffffffffffffffffffffffffffffff168152602001908152602001600020805490501161320157600080fd5b60004290506000613211896139b2565b905061321b614023565b60008090505b828110156135e057600460008c73ffffffffffffffffffffffffffffffffffffffff1673ffffffffffffffffffffffffffffffffffffffff168152602001908152602001600020818154811061327357fe5b90600052602060002090600602016040518060c0016040529081600082018054600181600116156101000203166002900480601f0160208091040260200160405190810160405280929190818152602001828054600181600116156101000203166002900480156133255780601f106132fa57610100808354040283529160200191613325565b820191906000526020600020905b81548152906001019060200180831161330857829003601f168201915b50505050508152602001600182018054600181600116156101000203166002900480601f0160208091040260200160405190810160405280929190818152602001828054600181600116156101000203166002900480156133c75780601f1061339c576101008083540402835291602001916133c7565b820191906000526020600020905b8154815290600101906020018083116133aa57829003601f168201915b50505050508152602001600282018054600181600116156101000203166002900480601f0160208091040260200160405190810160405280929190818152602001828054600181600116156101000203166002900480156134695780601f1061343e57610100808354040283529160200191613469565b820191906000526020600020905b81548152906001019060200180831161344c57829003601f168201915b50505050508152602001600382018054600181600116156101000203166002900480601f01602080910402602001604051908101604052809291908181526020018280546001816001161561010002031660029004801561350b5780601f106134e05761010080835404028352916020019161350b565b820191906000526020600020905b8154815290600101906020018083116134ee57829003601f168201915b50505050508152602001600482018054600181600116156101000203166002900480601f0160208091040260200160405190810160405280929190818152602001828054600181600116156101000203166002900480156135ad5780601f10613582576101008083540402835291602001916135ad565b820191906000526020600020905b81548152906001019060200180831161359057829003601f168201915b505050505081526020016005820154815250509150898260a0015114156135d3576135e0565b8080600101915050613221565b503373ffffffffffffffffffffffffffffffffffffffff168a73ffffffffffffffffffffffffffffffffffffffff167fec95aa37f5ff4f1e52a5333f61229ce376a04a63d4ccdfae6678ef305b97f232836000015184602001518560400151866060015187608001518860a001518b60405180806020018060200180602001806020018060200188815260200187815260200186810386528d818151815260200191508051906020019080838360005b838110156136ab578082015181840152602081019050613690565b50505050905090810190601f1680156136d85780820380516001836020036101000a031916815260200191505b5086810385528c818151815260200191508051906020019080838360005b838110156137115780820151818401526020810190506136f6565b50505050905090810190601f16801561373e5780820380516001836020036101000a031916815260200191505b5086810384528b818151815260200191508051906020019080838360005b8381101561377757808201518184015260208101905061375c565b50505050905090810190601f1680156137a45780820380516001836020036101000a031916815260200191505b5086810383528a818151815260200191508051906020019080838360005b838110156137dd5780820151818401526020810190506137c2565b50505050905090810190601f16801561380a5780820380516001836020036101000a031916815260200191505b50868103825289818151815260200191508051906020019080838360005b83811015613843578082015181840152602081019050613828565b50505050905090810190601f1680156138705780820380516001836020036101000a031916815260200191505b509c5050505050505050505050505060405180910390a380600001519750806020015196508060400151955080606001519450806080015193505050509295509295909350565b60006138cd8260016138d490919063ffffffff16565b9050919050565b60008073ffffffffffffffffffffffffffffffffffffffff168273ffffffffffffffffffffffffffffffffffffffff16141561395b576040517f08c379a000000000000000000000000000000000000000000000000000000000815260040180806020018281038252602281526020018061422c6022913960400191505060405180910390fd5b8260000160008373ffffffffffffffffffffffffffffffffffffffff1673ffffffffffffffffffffffffffffffffffffffff16815260200190815260200160002060009054906101000a900460ff16905092915050565b6000600560009054906101000a900460ff16156139ce57600080fd5b600073ffffffffffffffffffffffffffffffffffffffff168273ffffffffffffffffffffffffffffffffffffffff161415613a0857600080fd5b600460008373ffffffffffffffffffffffffffffffffffffffff1673ffffffffffffffffffffffffffffffffffffffff168152602001908152602001600020805490509050919050565b613a66816001613dc390919063ffffffff16565b3373ffffffffffffffffffffffffffffffffffffffff168173ffffffffffffffffffffffffffffffffffffffff167fb35968fdda9034197de288afbe8a2947dedade83d7dbc0de3e340d4f62ce64dc60405160405180910390a350565b613ad7816003613e8090919063ffffffff16565b3373ffffffffffffffffffffffffffffffffffffffff168173ffffffffffffffffffffffffffffffffffffffff167f7fef988ea6e2f03c1f9fb16df333b2a7911dfb096f5c563866713c1c9517ec7060405160405180910390a350565b613b48816002613e8090919063ffffffff16565b3373ffffffffffffffffffffffffffffffffffffffff168173ffffffffffffffffffffffffffffffffffffffff167ff6dfb9f71429364456283a1521c30cc400d799d7b381d7ce164687f11c18dbaf60405160405180910390a350565b613bb9816000613e8090919063ffffffff16565b3373ffffffffffffffffffffffffffffffffffffffff168173ffffffffffffffffffffffffffffffffffffffff167fbf3f493c772c8c283fd124432c2d0f539ab343faa04258fe88e52912d36b102b60405160405180910390a350565b613c2a816002613dc390919063ffffffff16565b3373ffffffffffffffffffffffffffffffffffffffff168173ffffffffffffffffffffffffffffffffffffffff167fd00481c3fc5867ec74704c9c99334b8d53c7735c947bdcb6cbebcae6740ed94060405160405180910390a350565b613c9b816000613dc390919063ffffffff16565b8073ffffffffffffffffffffffffffffffffffffffff167f583e7032182b053f2bcd5e3ac78021a3c8d321735043ee84032742c9a6528afd60405160405180910390a250565b613cf5816001613e8090919063ffffffff16565b3373ffffffffffffffffffffffffffffffffffffffff168173ffffffffffffffffffffffffffffffffffffffff167f93b0ab94930bbad064296971ea5e731f84ae511662781bcaf28543ab9042368a60405160405180910390a350565b613d66816003613dc390919063ffffffff16565b3373ffffffffffffffffffffffffffffffffffffffff168173ffffffffffffffffffffffffffffffffffffffff167f83bb2e314d2b42b828b2082c5f08a3b9162d6322fe9b8bdaa47dc3d26ce183af60405160405180910390a350565b613dcd82826138d4565b613e22576040517f08c379a000000000000000000000000000000000000000000000000000000000815260040180806020018281038252602181526020018061420b6021913960400191505060405180910390fd5b60008260000160008373ffffffffffffffffffffffffffffffffffffffff1673ffffffffffffffffffffffffffffffffffffffff16815260200190815260200160002060006101000a81548160ff0219169083151502179055505050565b613e8a82826138d4565b15613efd576040517f08c379a000000000000000000000000000000000000000000000000000000000815260040180806020018281038252601f8152602001807f526f6c65733a206163636f756e7420616c72656164792068617320726f6c650081525060200191505060405180910390fd5b60018260000160008373ffffffffffffffffffffffffffffffffffffffff1673ffffffffffffffffffffffffffffffffffffffff16815260200190815260200160002060006101000a81548160ff0219169083151502179055505050565b50805460018160011615610100020316600290046000825580601f10613f815750613fa0565b601f016020900490600052602060002090810190613f9f919061418c565b5b50565b828054600181600116156101000203166002900490600052602060002090601f016020900481019282601f10613fe457805160ff1916838001178555614012565b82800160010185558215614012579182015b82811115614011578251825591602001919060010190613ff6565b5b50905061401f919061418c565b5090565b6040518060c001604052806060815260200160608152602001606081526020016060815260200160608152602001600081525090565b828054600181600116156101000203166002900490600052602060002090601f016020900481019282601f1061409257805485556140cf565b828001600101855582156140cf57600052602060002091601f016020900482015b828111156140ce5782548255916001019190600101906140b3565b5b5090506140dc919061418c565b5090565b8154818355818111156141075781836000526020600020918201910161410691906141b1565b5b505050565b828054600181600116156101000203166002900490600052602060002090601f016020900481019282601f1061414d57805160ff191683800117855561417b565b8280016001018555821561417b579182015b8281111561417a57825182559160200191906001019061415f565b5b509050614188919061418c565b5090565b6141ae91905b808211156141aa576000816000905550600101614192565b5090565b90565b6141da91905b808211156141d657600081816141cd9190613f5b565b506001016141b7565b5090565b9056fe4e6f207365206375656e746120636f6e20656c20726f6c2065737065636966696361646f284dc3a96469636f29526f6c65733a206163636f756e7420646f6573206e6f74206861766520726f6c65526f6c65733a206163636f756e7420697320746865207a65726f20616464726573734e6f207365206375656e746120636f6e20656c20726f6c2065737065636966696361646f2841646d696e29a265627a7a72315820dd5775a85ebe09ffa9258f653e04d92282c10ebb19fc5eee10028ea8b746b38864736f6c63430005100032526f6c65733a206163636f756e7420697320746865207a65726f2061646472657373",
  "source": "pragma solidity 0.5.16;\r\n\r\nimport \"./MedicsRegister.sol\";\r\n\r\n\r\ncontract PendingRecords is MedicsRegister {\r\n    string[] public medicPending;\r\n    event NewMedicRecord(string _hash);\r\n    event RemoveMedicRecord(string _hash);\r\n\r\n    /**\r\n    * @notice Guarda el hash de un registro del medico\r\n    * @param _hashString cadena de IPFS que contiene el archivo de registro\r\n    */\r\n    function addMedicRecord(string memory _hashString) public {\r\n        medicPending.push(_hashString);\r\n        emit NewMedicRecord(_hashString);\r\n    }\r\n\r\n    /**\r\n    * @notice Regresa la longitud del arreglo de solicitudes pendientes\r\n    * @return Longitud de MedicPending\r\n    */\r\n    function getPendingLength() public view returns(uint count) {\r\n        return medicPending.length;\r\n    }\r\n\r\n    /**\r\n    * @notice Regresa la cadena hash de un indice dado\r\n    * @param _index Indice a consultar\r\n    * @return Cadena dentro del indice indicado en MedicPending\r\n    */\r\n    function getPendingRequest(uint32 _index) public view returns(string memory _hashString) {\r\n        return medicPending[_index];\r\n    }\r\n\r\n    /**\r\n    * @notice Remueve el elemento del indice indicado\r\n    * @dev Hace un swap para no dejar espacios en blanco\r\n    * @param _index The owner address\r\n    * @return booleano diciendo si fue exitoso o no\r\n    */\r\n    function removePending(uint32 _index) public returns(bool success) {\r\n        if (_index >= medicPending.length) return false;\r\n\r\n        string memory removedHash = medicPending[_index];\r\n        for (uint i = _index; i < medicPending.length-1; i++) {\r\n            medicPending[i] = medicPending[i+1];\r\n        }\r\n        delete medicPending[medicPending.length-1];\r\n        medicPending.length--;\r\n        emit RemoveMedicRecord(removedHash);\r\n        return true;\r\n    }\r\n}\r\n",
  "sourcePath": "D:\\Mega-AC1982\\Develop\\Angular\\MedicalHistory-BlockChainProject\\frontend\\truffle\\contracts\\PendingRecords.sol",
  "compiler": {
    "name": "solc",
    "version": "0.5.16+commit.9c3226ce.Emscripten.clang"
  },
  "schemaVersion": "3.1.0",
  "updatedAt": "2020-04-29T01:07:47.965Z",
  "devdoc": {
    "methods": {
      "addAdmin(address)": {
        "details": "Funcin pblica para asignar admin",
        "params": {
          "account": "Cuenta que ser asignada como admin"
        }
      },
      "addAssistant(address)": {
        "details": "Funcin pblica para asignar asistente",
        "params": {
          "account": "Cuenta que ser asignada como asistente"
        }
      },
      "addMedic(address)": {
        "details": "Funcin pblica para asignar mdico",
        "params": {
          "account": "Cuenta que ser asignada como mdico"
        }
      },
      "addMedicRecord(string)": {
        "params": {
          "_hashString": "cadena de IPFS que contiene el archivo de registro"
        }
      },
      "addMedics(address,string,string,string,string,string)": {
        "details": "Funcin para agregar un mdico. Esta funcin es realizada por un administrador.",
        "params": {
          "_account": "a",
          "_cedula": "a",
          "_email": "a",
          "_hashPicture": "a",
          "_name": "a",
          "_specialty": "a"
        },
        "return": "_success a"
      },
      "addPatient(address)": {
        "details": "Funcin pblica para asignar paciente",
        "params": {
          "account": "Cuenta que ser asignada como paciente"
        }
      },
      "deleteMedics(address,uint256)": {
        "details": "Controlado por el switch",
        "params": {
          "_account": "The owner address"
        },
        "return": "_date The uploaded timestamp"
      },
      "emergencyStop(bool)": {
        "params": {
          "_stop": "Switch del contrado de encendido/apagado"
        }
      },
      "getPendingLength()": {
        "return": "Longitud de MedicPending"
      },
      "getPendingRequest(uint32)": {
        "params": {
          "_index": "Indice a consultar"
        },
        "return": "Cadena dentro del indice indicado en MedicPending"
      },
      "isAdmin(address)": {
        "params": {
          "account": "Cuenta donde se validar el rol."
        },
        "return": "true si la cuenta tiene rol de admin"
      },
      "isAssistant(address)": {
        "params": {
          "account": "Cuenta donde se validar el rol."
        },
        "return": "true si la cuenta tiene rol de asistente"
      },
      "isMedic(address)": {
        "params": {
          "account": "Cuenta donde se validar el rol."
        },
        "return": "true si la cuenta tiene rol de mdico"
      },
      "isPatient(address)": {
        "params": {
          "account": "Cuenta donde se validar el rol."
        },
        "return": "true si la cuenta tiene rol de paciente"
      },
      "removeAssistant(address)": {
        "details": "Remover a rol de asistente. Quien invoque al contrato no volver a ser asistente."
      },
      "removeMedic(address)": {
        "details": "Funcin pblica para remover mdico",
        "params": {
          "account": "Cuenta que ser removida de mdico"
        }
      },
      "removePatient(address)": {
        "details": "Remover a rol de paciente. Quien invoque al contrato no volver a ser paciente."
      },
      "removePending(uint32)": {
        "details": "Hace un swap para no dejar espacios en blanco",
        "params": {
          "_index": "The owner address"
        },
        "return": "booleano diciendo si fue exitoso o no"
      },
      "renounceAdmin()": {
        "details": "Renunciar a rol de administrador. Quien inque al contrato no volver a ser admin."
      },
      "renounceMedic()": {
        "details": "Renunciar a rol de personal mdico. Quien invoque al contrato no volver a ser mdico."
      },
      "updateMedics(address,string,string,string,string,string,uint256)": {
        "details": "Controlado por el switch",
        "params": {
          "_account": "Cuenta del mdico"
        },
        "return": "a"
      },
      "viewMedics(address,uint256)": {
        "details": "Controlado por el switch",
        "params": {
          "_account": "The owner address"
        },
        "return": "_date The uploaded timestamp"
      }
    }
  },
  "userdoc": {
    "methods": {
      "addMedicRecord(string)": {
        "notice": "Guarda el hash de un registro del medico"
      },
      "deleteMedics(address,uint256)": {
        "notice": "Returns el medico en el ndice del propietario de la direccin."
      },
      "emergencyStop(bool)": {
        "notice": "Pausar el contrato Se detiene el contrato bajo ciertas condiciones. Sera til cuando nuevos errores sean descubiertos."
      },
      "getPendingLength()": {
        "notice": "Regresa la longitud del arreglo de solicitudes pendientes"
      },
      "getPendingRequest(uint32)": {
        "notice": "Regresa la cadena hash de un indice dado"
      },
      "removePending(uint32)": {
        "notice": "Remueve el elemento del indice indicado"
      },
      "updateMedics(address,string,string,string,string,string,uint256)": {
        "notice": "Returns el Medico en el ndice del propietario de la direccin."
      },
      "viewMedics(address,uint256)": {
        "notice": "Returns el Medico en el ndice del propietario de la direccin."
      }
    }
  }
}