{
  "contractName": "Validator",
  "abi": [
    {
      "constant": false,
      "inputs": [
        {
          "internalType": "uint256",
          "name": "Nonce",
          "type": "uint256"
        }
      ],
      "name": "verifyNonce",
      "outputs": [
        {
          "internalType": "bool",
          "name": "success",
          "type": "bool"
        }
      ],
      "payable": false,
      "stateMutability": "nonpayable",
      "type": "function"
    },
    {
      "constant": true,
      "inputs": [
        {
          "internalType": "bytes32",
          "name": "r",
          "type": "bytes32"
        },
        {
          "internalType": "bytes32",
          "name": "s",
          "type": "bytes32"
        },
        {
          "internalType": "uint8",
          "name": "v",
          "type": "uint8"
        },
        {
          "internalType": "bytes32",
          "name": "hash",
          "type": "bytes32"
        }
      ],
      "name": "verify",
      "outputs": [
        {
          "internalType": "address",
          "name": "",
          "type": "address"
        }
      ],
      "payable": false,
      "stateMutability": "pure",
      "type": "function"
    }
  ],
  "bytecode": "0x608060405234801561001057600080fd5b50610282806100206000396000f3fe608060405234801561001057600080fd5b50600436106100365760003560e01c80631d4413201461003b578063def45ef414610081575b600080fd5b6100676004803603602081101561005157600080fd5b8101908080359060200190929190505050610110565b604051808215151515815260200191505060405180910390f35b6100ce6004803603608081101561009757600080fd5b810190808035906020019092919080359060200190929190803560ff169060200190929190803590602001909291905050506101da565b604051808273ffffffffffffffffffffffffffffffffffffffff1673ffffffffffffffffffffffffffffffffffffffff16815260200191505060405180910390f35b60006001600083815260200190815260200160002060009054906101000a900460ff16156101a6576040517f08c379a000000000000000000000000000000000000000000000000000000000815260040180806020018281038252600a8152602001807f4e6f6e636520757365640000000000000000000000000000000000000000000081525060200191505060405180910390fd5b600180600084815260200190815260200160002060006101000a81548160ff02191690831515021790555060019050919050565b600060018284878760405160008152602001604052604051808581526020018460ff1660ff1681526020018381526020018281526020019450505050506020604051602081039080840390855afa158015610239573d6000803e3d6000fd5b50505060206040510351905094935050505056fea265627a7a7231582084a63e51c2b69eb60aeef6aecf1242eeea07599000a4346635661e22b6eb8a1064736f6c63430005100032",
  "source": "pragma solidity 0.5.16;\r\n\r\ncontract Validator {\r\n\r\n    address owner;\r\n    mapping(uint256=>bool) usedNonces;\r\n\r\n    function verifyNonce(uint256 Nonce)public returns(bool success){\r\n        require(!usedNonces[Nonce], \"Nonce used\");\r\n        usedNonces[Nonce] = true;\r\n\r\n        success = true;\r\n    }\r\n\r\n    function verify(bytes32 r, bytes32 s, uint8 v, bytes32 hash)public pure returns(address) {\r\n        return ecrecover(hash, v, r, s);\r\n    }\r\n\r\n\r\n\r\n    // function kill() onlyOwner {\r\n    //     suicide(owner);\r\n    // }\r\n}\r\n",
  "sourcePath": "D:\\Mega-AC1982\\Develop\\Angular\\MedicalHistory-BlockChainProject\\frontend\\truffle\\contracts\\Validator.sol",
  "compiler": {
    "name": "solc",
    "version": "0.5.16+commit.9c3226ce.Emscripten.clang"
  },
  "schemaVersion": "3.1.0",
  "updatedAt": "2020-04-29T01:07:47.971Z",
  "devdoc": {
    "methods": {}
  },
  "userdoc": {
    "methods": {}
  }
}